:020000022000DC
:1070000080620020C5CB0200658C0400B1CB020079
:10701000B1CB0200B1CB0200B1CB020000000000F6
:10702000000000000000000000000000BDCC0200D5
:10703000B1CB02000000000029CC0200B1CB02005D
:1070400051CF020009D7030051CF020051CF0200F7
:1070500051CF020051CF020051CF020051CF0200A8
:1070600051CF020051CF020051CF020051CF020098
:1070700051CF020051CF020051CF020051CF020088
:1070800051CF020051CF020051CF020051CF020078
:1070900051CF020051CF020051CF020051CF020068
:1070A00051CF020051CF020051CF020051CF020058
:1070B00051CF020051CF020051CF020051CF020048
:1070C00051CF020051CF020051CF020051CF020038
:1070D00051CF020051CF020051CF020051CF020028
:1070E00051CF020051CF020051CF020051CF020018
:1070F00051CF020051CF020051CF020051CF020008
:1071000090F800F06DE9024520F007016FF0000CE7
:1071100010F0070491F820F040F049804FF000048F
:107120006FF00700D1E9002391F840F000F108006A
:1071300082FA4CF2A4FA8CF283FA4CF3A2FA8CF3A2
:107140004BBBD1E9022382FA4CF200F10800A4FA09
:107150008CF283FA4CF3A2FA8CF3E3B9D1E904235D
:1071600082FA4CF200F10800A4FA8CF283FA4CF394
:10717000A2FA8CF37BB9D1E9062301F1200182FA4E
:107180004CF200F10800A4FA8CF283FA4CF3A2FA54
:107190008CF3002BC6D0002A04BF04301A4612BA62
:1071A000B2FA82F2FDE8024500EBD2007047D1E965
:1071B000002304F00305C4F100004FEAC50514F0F4
:1071C000040F91F840F00CFA05F562EA05021CBFC5
:1071D00063EA050362464FF00004A9E700000000DF
:1071E000A2EB0300704700BF02780B78012A28BF8A
:1071F0009A42F5D16DE9044540EA0104CDE9026700
:107200006FF0000C4FEA447212B380EA010414F0EC
:10721000070F6AD100F0070420F0070004F003050F
:1072200021F007014FEAC505F0E8042314F0040F2C
:10723000F1E804670CFA05F462EA040266EA04065F
:107240000AD063EA0403624667EA0407664603E07D
:10725000F0E80423F1E8046782FA4CF582EA0604B8
:10726000A4FA8CF46CBB83FA4CF583EA0705A5FA03
:107270008CF595B950E9022351E9026782FA4CF581
:1072800082EA0604A4FA8CF483FA4CF583EA070533
:10729000A5FA8CF52543DBD09CB92DBAB5FA85F457
:1072A00024F0070427FA04F1DDE9026723FA04F366
:1072B00003F0FF0001F0FF01FDE80445A0EB010031
:1072C000704724BAB4FA84F424F0070426FA04F1CF
:1072D000DDE9026722FA04F202F0FF0001F0FF018B
:1072E000FDE80445A0EB0100704714F0030F3CD10A
:1072F00010F0030428D150F8082B51F8083B82FA0B
:107300004CF582EA0305A5FA8CF55DB950F8042C1A
:1073100051F8043C82FA4CF582EA0305A5FA8CF593
:10732000002DE8D02DBAB5FA85F424F0070423FA2D
:1073300004F122FA04F202F0FF0001F0FF01FDE87F
:107340000445A0EB010070474FEAC40420F003009D
:1073500050F8082B21F0030151F8083B0CFA04F413
:1073600062EA040263EA0403C9E710F003041AD0D6
:10737000A1EB040120F00300E40750F8042B06D031
:107380000FD28B785FFAA2F4E41A06D12BB1CB7836
:107390005FFAB2F4E41A00D11BB920465DF8104B35
:1073A000704701F1040150F8042BCC0721F00301D0
:1073B00051F8043B48D824D222F07F4482FA4CF59D
:1073C00094EA1325A5FA8CF50AD165B951F8043B66
:1073D00084EA0204B4EB036F0ED150F8042BEBE700
:1073E0004FEA132355E035F07F454DD10878FDE88D
:1073F0000445C0F1000070474FEA126203F0FF033A
:1074000047E002EA1C4482FA4CF594EA1345A5FAD7
:107410008CF50AD165B951F8043B84EA0204B4EB57
:10742000034F0CD150F8042BEBE74FEA134330E045
:1074300015EA1C4528D10B884FEA124229E04FEA91
:10744000124203EA1C4324E002F0FF0482FA4CF5E6
:1074500094EA1365A5FA8CF50AD165B951F8043B95
:1074600084EA0204B4EB032F09D150F8042BEBE7B4
:107470004FEA13630DE015F0FF0F05D10B684FEADB
:10748000122223F07F4304E04FF00000FDE80445A2
:10749000704712BA1BBA82FA4CF482EA0304A4FAC7
:1074A0008CF5B5FA85F402FA04F203FA04F34FEA14
:1074B0001260FDE80445A0EB13607047844641EA82
:1074C000000313F003036DD1403A41D351F8043B5C
:1074D00040F8043B51F8043B40F8043B51F8043BAE
:1074E00040F8043B51F8043B40F8043B51F8043B9E
:1074F00040F8043B51F8043B40F8043B51F8043B8E
:1075000040F8043B51F8043B40F8043B51F8043B7D
:1075100040F8043B51F8043B40F8043B51F8043B6D
:1075200040F8043B51F8043B40F8043B51F8043B5D
:1075300040F8043B51F8043B40F8043B51F8043B4D
:1075400040F8043B51F8043B40F8043B403ABDD2BC
:10755000303211D351F8043B40F8043B51F8043B5E
:1075600040F8043B51F8043B40F8043B51F8043B1D
:1075700040F8043B103AEDD20C3205D351F8043BED
:1075800040F8043B043AF9D2043208D0D2071CBFB9
:1075900011F8013B00F8013B01D30B8803806046E2
:1075A000704700BF082A13D38B078DD010F0030358
:1075B0008AD0C3F10403D21ADB071CBF11F8013BC8
:1075C00000F8013B80D331F8023B20F8023B7BE717
:1075D000043AD9D3013A11F8013B00F8013BF9D242
:1075E0000B7803704B7843708B78837060467047DC
:1075F00081F0004102E000BF83F0004330B54FEA64
:1076000041044FEA430594EA050F08BF90EA020FD0
:107610001FBF54EA000C55EA020C7FEA645C7FEA63
:10762000655C00F0E2804FEA5454D4EB5555B8BF86
:107630006D420CDD2C4480EA020281EA030382EAF7
:10764000000083EA010180EA020281EA0303362D89
:1076500088BF30BD11F0004F4FEA01314FF4801C5C
:107660004CEA113102D0404261EB410113F0004F6E
:107670004FEA03334CEA133302D0524263EB430325
:1076800094EA050F00F0A780A4F10104D5F1200EC3
:107690000DDB02FA0EFC22FA05F2801841F100011E
:1076A00003FA0EF2801843FA05F359410EE0A5F1F2
:1076B00020050EF1200E012A03FA0EFC28BF4CF023
:1076C000020C43FA05F3C01851EBE37101F00045D9
:1076D00007D54FF0000EDCF1000C7EEB00006EEBE6
:1076E0000101B1F5801F1BD3B1F5001F0CD3490870
:1076F0005FEA30004FEA3C0C04F101044FEA4452C7
:1077000012F5800F80F09A80BCF1004F08BF5FEA4D
:10771000500C50F1000041EB045141EA050130BD2D
:107720005FEA4C0C404141EB0101013C28BFB1F53F
:10773000801FE9D291F0000F04BF01460020B1FA8A
:1077400081F308BF2033A3F10B03B3F120020CDA5D
:107750000C3208DD02F1140CC2F10C0201FA0CF03B
:1077600021FA02F10CE002F11402D8BFC2F1200CA0
:1077700001FA02F120FA0CFCDCBF41EA0C01904056
:10778000E41AA2BF01EB0451294330BD6FEA04049F
:107790001F3C1CDA0C340EDC04F11404C4F120028A
:1077A00020FA04F001FA02F340EA030021FA04F39C
:1077B00045EA030130BDC4F10C04C4F1200220FAF3
:1077C00002F001FA04F340EA0300294630BD21FA31
:1077D00004F0294630BD94F0000F83F4801306BFF7
:1077E00081F480110134013D4EE77FEA645C18BFEB
:1077F0007FEA655C29D094EA050F08BF90EA020F82
:1078000005D054EA000C04BF1946104630BD91EA79
:10781000030F1EBF0021002030BD5FEA545C05D17C
:107820004000494128BF41F0004130BD14F58004BB
:107830003CBF01F5801130BD01F0004545F0FE412F
:1078400041F470014FF0000030BD7FEA645C1ABF64
:10785000194610467FEA655C1CBF0B46024650EA9B
:10786000013406BF52EA033591EA030F41F40021C7
:1078700030BD00BF90F0000F04BF0021704730B54D
:107880004FF4806404F132044FF000054FF0000122
:1078900050E700BF90F0000F04BF0021704730B5E3
:1078A0004FF4806404F1320410F0004548BF4042B8
:1078B0004FF000013EE700BF42004FEAE2014FEA0D
:1078C00031014FEA02701FBF12F07F4393F07F4FE8
:1078D00081F06051704732F07F4208BF704793F0EB
:1078E0007F4F04BF41F40021704730B54FF46074FE
:1078F00001F0004521F000411CE700BF50EA010201
:1079000008BF704730B54FF000050AE050EA0102A9
:1079100008BF704730B511F0004502D5404261EB19
:1079200041014FF4806404F132045FEA915C3FF45A
:10793000D8AE4FF003025FEADC0C18BF03325FEAF7
:10794000DC0C18BF033202EBDC02C2F1200300FAA8
:1079500003FC20FA02F001FA03FE40EA0E0021FACD
:1079600002F11444BDE600BF70B54FF0FF0C4CF4BB
:10797000E06C1CEA11541DBF1CEA135594EA0C0F6D
:1079800095EA0C0F00F0DEF82C4481EA030621EAA8
:107990004C5123EA4C5350EA013518BF52EA0335E3
:1079A00041F4801143F4801338D0A0FB02CE4FF095
:1079B0000005E1FB02E506F00042E0FB03E54FF0C5
:1079C0000006E1FB03569CF0000F18BF4EF0010EBD
:1079D000A4F1FF04B6F5007F64F5407404D25FEAB9
:1079E0004E0E6D4146EB060642EAC62141EA55516C
:1079F0004FEAC52040EA5E504FEACE2EB4F1FD0CAE
:107A000088BFBCF5E06F1ED8BEF1004F08BF5FEA2B
:107A1000500E50F1000041EB045170BD06F00046DD
:107A200046EA010140EA020081EA0301B4EB5C048A
:107A3000C2BFD4EB0C0541EA045170BD41F4801182
:107A40004FF0000E013C00F3AB8014F1360FDEBFA7
:107A5000002001F0004170BDC4F10004203C35DA83
:107A60000C341BDC04F11404C4F1200500FA05F306
:107A700020FA04F001FA05F240EA020001F00042A7
:107A800021F0004110EBD37021FA04F642EB06011D
:107A90005EEA430E08BF20EAD37070BDC4F10C0447
:107AA000C4F1200500FA04F320FA05F001FA04F20B
:107AB00040EA020001F0004110EBD37041F10001F7
:107AC0005EEA430E08BF20EAD37070BDC4F1200502
:107AD00000FA05F24EEA020E20FA04F301FA05F26A
:107AE00043EA020321FA04F001F0004121FA04F212
:107AF00020EA020000EBD3705EEA430E08BF20EAE2
:107B0000D37070BD94F0000F0FD101F0004640001B
:107B100041EB010111F4801F08BF013CF7D041EA9D
:107B2000060195F0000F18BF704703F000465200A1
:107B300043EB030313F4801F08BF013DF7D043EA72
:107B40000603704794EA0C0F0CEA135518BF95EA28
:107B50000C0F0CD050EA410618BF52EA4306D1D1AF
:107B600081EA030101F000414FF0000070BD50EACE
:107B7000410606BF1046194652EA430619D094EA58
:107B80000C0F02D150EA013613D195EA0C0F05D142
:107B900052EA03361CBF104619460AD181EA030196
:107BA00001F0004141F0FE4141F470014FF000004E
:107BB00070BD41F0FE4141F4780170BD70B54FF0E9
:107BC000FF0C4CF4E06C1CEA11541DBF1CEA135569
:107BD00094EA0C0F95EA0C0F00F0A7F8A4EB05044B
:107BE00081EA030E52EA03354FEA013100F0888042
:107BF0004FEA03334FF0805545EA131343EA12630B
:107C00004FEA022245EA111545EA10654FEA0026BF
:107C10000EF000419D4208BF964244F1FD0404F578
:107C2000407402D25B084FEA3202B61A65EB0305D4
:107C30005B084FEA32024FF480104FF4002CB6EB91
:107C4000020E75EB030E22BFB61A754640EA0C0011
:107C50005B084FEA3202B6EB020E75EB030E22BF51
:107C6000B61A754640EA5C005B084FEA3202B6EB92
:107C7000020E75EB030E22BFB61A754640EA9C0051
:107C80005B084FEA3202B6EB020E75EB030E22BF21
:107C9000B61A754640EADC0055EA060E18D04FEADF
:107CA000051545EA16754FEA06164FEAC30343EA7F
:107CB00052734FEAC2025FEA1C1CC0D111F4801F4C
:107CC0000BD141EA00014FF000004FF0004CB6E745
:107CD00011F4801F04BF01430020B4F1FD0C88BFE4
:107CE000BCF5E06F3FF6AFAEB5EB030C04BFB6EBEF
:107CF000020C5FEA500C50F1000041EB045170BDE2
:107D00000EF0004E4EEA113114EB5C04C2BFD4EB0E
:107D10000C0541EA045170BD41F480114FF0000E92
:107D2000013C90E645EA060E8DE60CEA135594EA0E
:107D30000C0F08BF95EA0C0F3FF43BAF94EA0C0F11
:107D40000AD150EA01347FF434AF95EA0C0F7FF486
:107D500025AF104619462CE795EA0C0F06D152EADA
:107D600003353FF4FDAE1046194622E750EA4106BE
:107D700018BF52EA43067FF4C5AE50EA41047FF4CF
:107D80000DAF52EA43057FF4EBAE12E74FEA410232
:107D9000B2F1E04324BFB3F5001CDCF1FE5C0DD969
:107DA00001F0004C4FEAC0024CEA5070B2F1004FB3
:107DB00040EB830008BF20F00100704711F0804FB6
:107DC00021D113F13872BCBF01F00040704741F47B
:107DD00080114FEA5252C2F11802C2F1200C10FA7F
:107DE0000CF320FA02F018BF40F001004FEAC12363
:107DF0004FEAD32303FA0CFC40EA0C0023FA02F307
:107E00004FEA4303CCE77FEA625307D150EA0133DC
:107E10001EBF4FF0FE4040F44000704701F00040AC
:107E200040F0FE4040F40000704700BF7BB972B9DB
:107E30000029BEBF00204FF0004106E008BF002827
:107E40001CBF6FF000414FF0FF3000F077B8ADF18C
:107E5000080C6DE904CE002909DB002B1ADB00F0C9
:107E6000A5F8DDF804E0DDE9022304B070474042E4
:107E700061EB4101002B1BDB00F098F8DDF804E01A
:107E8000DDE9022304B0404261EB4101524263EB61
:107E900043037047524263EB430300F087F8DDF879
:107EA00004E0DDE9022304B0404261EB4101704788
:107EB000524263EB430300F079F8DDF804E0DDE9BA
:107EC000022304B0524263EB4303704753B94AB9EB
:107ED000002908BF00281CBF4FF0FF314FF0FF30D2
:107EE00000F02CB8ADF1080C6DE904CE00F05EF89E
:107EF000DDF804E0DDE9022304B07047D0B5FFF7F8
:107F0000DBFC0C4B002206460F46FFF72DFD00F070
:107F100017F80446FFF7AEFC074B0022FFF724FDDD
:107F200002460B4630463946FFF766FB00F008F87C
:107F30002146D0BD0000F03D0000F041704700BF79
:107F40004A0011D212F5001211D20DD56FF47873D8
:107F5000B3EB62520ED44FEAC12343F0004343EA2D
:107F6000505323FA02F070474FF00000704750EA78
:107F7000013002D14FF0FF3070474FF000007047E2
:107F800007EE900AF5EEC07AF1EE10FA08B503D4C8
:107F9000BDE80840FFF7B2BFF1EE677A17EE900A2E
:107FA000FFF7ACFF404261EB410108BD2DE9F0470E
:107FB00086468C460846089E154674461946002B90
:107FC00040F0C2808542B2FA82F245D94AB1C2F18C
:107FD000200300FA02FC2EFA03F3954043EA0C0C4E
:107FE00094404FEA154EA8B2BCFBFEF8230C0EFBE2
:107FF00018CC08FB00F943EA0C43994528D9EB1843
:1080000008F1FF3704D2994502D9A8F102072B44A1
:10801000A3EB0903A4B2B3FBFEFC0EFB1C330CFB69
:1080200000F044EA0344A04214D92C190CF1FF33A8
:1080300004D2A04202D9ACF102032C44241A43EA30
:1080400007401EB1D440002334607360BDE8F08760
:108050004746DDE76346F1E792BB431B01214FEA48
:10806000154EAFB2B3FBFEFC200C0EFB1C330CFB19
:1080700007F840EA0343984562D9EB180CF1FF304A
:1080800004D2984502D9ACF102002B44A3EB0803BB
:10809000A4B2B3FBFEFC0EFB1C330CFB07F744EA57
:1080A0000344A7424ED92C190CF1FF3304D2A74246
:1080B00002D9ACF102032C44E41B43EA0040C0E7C0
:1080C000C2F1200320FA03F1954090402EFA03F309
:1080D00003434FEA154EAFB2B1FBFEFC0EFB1C1082
:1080E000190C0CFB07F841EA0041884504FA02F438
:1080F00022D969180CF1FF3004D2884502D9ACF1BD
:1081000002002944A1EB08019BB2B1FBFEFC0EFB6F
:108110001C110CFB07F743EA01439F420ED9EB18F1
:108120000CF1FF3104D29F4202D9ACF102012B4481
:10813000DB1B41EA004192E76046E3E76146F7E76F
:108140006046A3E76346B7E7834206D916B9002124
:1081500008467BE7C6E900E0F9E7B3FA83F78FB991
:10816000834201D3724508D8BEEB020460EB0303DF
:1081700001209C461EB9002168E73846FAE7C6E9A7
:10818000004CF8E7C7F1200CBB4022FA0CF41C436A
:108190002EFA0CF120FA0CF3B84001434FEA1449CF
:1081A0000EFA07F5B3FBF9F81FFA84FE09FB183045
:1081B0000B0C08FB0EFA43EA00439A4502FA07F259
:1081C00040D9E31808F1FF3004D29A4502D9A8F14A
:1081D00002002344A3EB0A0389B2B3FBF9F809FBBD
:1081E000183308FB0EFE41EA03418E452CD9611875
:1081F00008F1FF3304D28E4502D9A8F102032144CD
:1082000043EA0040A0FB0298A1EB0E014145CE4697
:10821000434602D306D14D4504D2B9EB020E68EBBA
:1082200004030138002EA6D0B5EB0E0261EB03016A
:1082300001FA0CFC22FA07F34CEA0303F940C6E901
:10824000003198E74046C5E74346D9E70000000003
:108250002DE9F04F2DED048B8FB05949594802AFED
:108260001FF056FC584825F0C7F878B1564825F05D
:10827000C3F858B1544825F0BFF838B1534825F039
:10828000BBF858B952494F481FF042FC0024204621
:108290003437BD46BDEC048BBDE8F08F00224D495C
:1082A000104623F08FFC044628B14B49024645484E
:1082B0001FF029FCEBE707F0F9FA044610B1474933
:1082C0000246F4E7464D0FCD07F11C040FC42B689E
:1082D0002360012300934349434B022207F11C0012
:1082E00008F064F8044610B140490246DFE740490F
:1082F000404808F03DFC044610B13F490246D6E72D
:108300003E481FF009FC0028C0DB3D481FF004FC7C
:108310000028BBDB3B481FF0FFFB0028B6DB6823CF
:108320000024C7E90534294DAE68D6F80080B8F1BD
:10833000000F01D13449A6E707F1140322460321B7
:108340002846C0470028F5DBD6F80080B8F1000FBA
:1083500001D12E4997E707F1140322460721284649
:10836000C0470028F5DB2A4916481FF0D1FBE84634
:1083700088B002AA274B2849536100200423C2E990
:10838000060142F8103F0F4823464FF4035103F013
:1083900007FE224B3B61B368C5460BB9204972E723
:1083A000204A07F110012846984704460028F5D1D5
:1083B0004221F36828469847002837DA1A4962E7CD
:1083C00083F60400ACE50400F4DF040074E104006B
:1083D0009EF604008C020020B9F60400DEF60400CC
:1083E00030E60400C0E60400B8E60400FEF604002F
:1083F0000DAE0200C80700201FF70400D0E60400FD
:10840000E0E60400D8E604003DF704006FF704003E
:1084100098F70400BBF7040000E09040010003005F
:10842000DCF7040081AE020003F8040092481FF05C
:108430008DFB92481FF08AFB91481FF087FB914902
:1084400091481FF065FB0FF21829D9E900898F4D7B
:1084500025F004FC6868FFF71DFA42464B46FFF71B
:10846000ADFB824628688A4D8B46FFF713FA024619
:108470000B4650465946FFF7C1F87BA3D3E90023CA
:10848000FFF79CFBC7E902016868FFF703FA424661
:108490004B46FFF793FB824628687E4D8B46FFF7DD
:1084A000F9F902460B4650465946FFF7A7F86EA366
:1084B000D3E90023FFF782FBC7E900016868FFF7F3
:1084C000E9F942464B46FFF779FB82462868724D30
:1084D0008B46FFF7DFF902460B4650465946FFF739
:1084E0008DF863A3D3E90023FFF73EFAFFF74EFCB4
:1084F0006A4BDFED6B7AD3ED006A9FED6A7A95EDFA
:10850000008A09EE900A69EEA77A46EE877AD7E9E3
:1085100002019FED657AC3ED007AF0EEE76AF4EEB2
:10852000C76A9FED627AF1EE10FAD8BFF0EE477A93
:108530009FED5F7A07EE878A85ED008AFFF726FCBC
:1085400008EE900AD7E90001FFF720FC09EE100AB7
:1085500029EE090A08EEA80A1EF0FEFEDFED557AA4
:10856000B4EEE70AF1EE10FA34D4B0EE680AF0EE99
:10857000490A1EF0C5FEDFED507A60EE278AF4EE60
:10858000688AF1EE10FA25D69FED4C9AB0EE480AB3
:10859000F0EE490A1EF0B6FEF0EE490A38EEC00AC7
:1085A0001EF0B0FEDFED467AB4EEE70AF1EE10FA07
:1085B000C8BF30EE490ADFED437AB4EEE70AF1EEC8
:1085C00010FA48BF30EE090ADFED3F7A00EE278A45
:1085D00085ED008A95ED008ADFED3C7AB4EEE78AFE
:1085E000F1EE10FA37D4DFED3A7AB4EEE78AF1EE25
:1085F00010FAD4BF18EE100A17EE900A0134322C8C
:1086000020D16C468CB002AD324B6B61FFF754F950
:10861000C5E9060118EE100AFFF74EF9C5E9080191
:1086200019EE900AFFF748F92A460823C5E90A011E
:1086300042F8103F1448002344F2C00103F0B0FC9C
:10864000A5460024244B01221A6000214FF4A47097
:1086500025F05BFAFBE617EE900ACFE7AFF3008058
:108660000000000080842E4100000060B89E23407E
:1086700000000000DCA54C40D0E60400E0E6040069
:10868000D8E604001FF80400ACE50400381C002004
:10869000301C0020281C0020241C0020201C00204E
:1086A000CDCC4C3ECDCC4C3F9A99993E0000000079
:1086B0000AD7233CCDCCCC3DE02E65420000B4432C
:1086C00000003443000034C30AD7A33B000087C432
:1086D0000000874438F80400441C0020000000001B
:1086E0002DE9F04F9FB08246039117461C460025A6
:1086F000387810B9284600F0A6BD252809D003997E
:10870000D0470028C0F29F857B1C01350593059F4B
:10871000EEE71822002110A81FF032F97B78252BF4
:1087200000F0BC800023791C98469E469C46184663
:108730000E4611F8012B2B2A00F0E38000F2DA80BC
:10874000202A00F0E180232A00F0E1802BB19DF87F
:10875000483043F040038DF84830B8F1000F05D0A1
:108760009DF8483043F020038DF84830BEF1000FEB
:1087700005D09DF8483043F010038DF84830BCF127
:10878000000F05D09DF8483043F008038DF84830BD
:1087900028B19DF8483043F004038DF848309DF827
:1087A000483003F04401442903D16FF386138DF858
:1087B00048309DF848300E9643F080032A2A8DF801
:1087C000483040F0A9809DF8493043F001038DF80E
:1087D0004930731C1A782E2A9DF849200CBF0121BC
:1087E000002161F341028DF849200CD15A1C0E92F0
:1087F0005A782A2A40F0A0809DF8492042F00402CD
:108800008DF8492002331A786C2A00F0C18000F2FA
:10881000A380682A00F0A9806A2A00F0C2804C2A4E
:1088200000F0C78013F8012B0593782A8DF84B20B0
:1088300000F209816D2A00F2C980692A00F20381E1
:10884000572A00F2E280412A04D0A2F14503022B0C
:1088500000F2F9809DF84A3002F0DF020421A2F113
:10886000410961F30203D9F100029DF849108DF826
:108870004A3042EB090262F3C7110A068DF849102B
:10888000CBB200F11F8103F07802182A40F0098171
:108890006FF3C6038DF849300023F8E08DF84B30B4
:1088A000BB1C05939DF849309DF84A20DE0702F075
:1088B000070040F1098154F8041B0491002908DAEB
:1088C0009DF8481041F004018DF848100499494280
:1088D0000491590740F1008154F8046B002E80F296
:1088E000FF809DF849306FF341038DF849304FF018
:1088F000FF36F5E02D2A0DD0302A7FF427AF012373
:1089000016E74FF0010C13E74FF0010E10E74FF0A0
:1089100001080DE701200BE70EA802F02FFF0E9BC8
:10892000B3423FF457AF9DF848201390C00F60F357
:1089300041028DF848204DE70EA802F01FFF9DF878
:1089400048301490C3F3400242EAD07262F341030C
:108950008DF848300E9B56E7742A26D07A2A7FF489
:1089600061AF9DF8492006210CE05A78682A9DF8ED
:10897000492006D1012161F3C6028DF84920023356
:1089800050E7022161F3C6028DF84920013349E71F
:108990005A786C2A9DF8492001D10421EBE7032184
:1089A000F0E79DF849200521ECE79DF849200721D3
:1089B000E8E7BDF8482022F4F04222F0020242F437
:1089C000804242F00202ADF84820DFE76E3AD3B2AF
:1089D00001229A4040F282431A429DF8493039D12F
:1089E00012F0240F61D1D1072DD59DF84A2003F054
:1089F0007803A3F14008032161F30202D8F10003D8
:108A00008DF84A2043EB080341E0A2F15801C9B2B6
:108A1000012000FA01F111F4624F7FF41BAF40F620
:108A2000010319429DF849301AD111F4043F0AD0CC
:108A30009DF84A2060F3020203F07803402B8DF882
:108A40004A207FF429AF9DF8483043F001038DF8A8
:108A5000483021E79DF84A20022161F30202EBE74A
:108A60009DF84A10022003F0780360F30201402BC6
:108A70008DF84A1002BF9DF8481041F001018DF8B1
:108A80004810632A7FF408AF003B18BF01239DF80C
:108A90004820C2F340010B4363F341028DF84820A4
:108AA00000E713F0380FCED1F6E69DF84A200321F7
:108AB00013F0780F61F302028DF84A2014BF0123EE
:108AC0000023E4E70123E2E79DF948100029B4BF41
:108AD00013994FF0FF31FBE69E077FF508AF149E18
:108AE00000230428CDE913339DF8493007D19907B5
:108AF00005D49DF949100029ACBF06260D2602F0C9
:108B00000702012AC3F3C30332D1DA1E042A04D8B0
:108B1000DFE802F02045452020002268012B4FEAC3
:108B2000E271CDE910211BD19DF94020D117CDE98B
:108B3000102104349DF84820069292074FD0059BDF
:108B400003993A4650461FF0A9FA0028C0F27B83E9
:108B50000544DCE554F8042BD117CDE91021E9E7F1
:108B6000022BE6D111B242F3C032CDE91012E0E798
:108B7000022A24D1DA1E042A04D8DFE802F01810F1
:108B800010181800012B54F8042B4FF0000114D0DA
:108B9000022BCDE91021CDD192B21092CAE7073451
:108BA00024F00704F4E80201CDE91001C2E754F80B
:108BB000042B109200221192BCE7D2B2CDE7042A16
:108BC00008D1073424F00704D4E900010834CDE9C2
:108BD0001001AFE7032AADD154F8042BDDE79DF86F
:108BE0004B80B8F1780F3FF692ADB8F1570F5CD8D3
:108BF000B8F1250F00F0A480B8F1240F7FF687ADFF
:108C0000B8F1410F04D0A8F14503022B3FF67FAD28
:108C1000DDE91023002BC0F24D810699080700F111
:108C20004C81C1F300194FEA4919C3F30A51C3F348
:108C30001303002940F0448152EA030014BF4FF0AF
:108C4000010C4FF0000CD80240EA5250D702CDE997
:108C50000C70B8F1460F47EA010740EAE17008BF1F
:108C60004FF06608384300F0B881BCF1000F10D017
:108C70001B0343EA125317033A4618464FF0000C01
:108C8000002880F25681BCF1000F40F05981CDE9F7
:108C90000C730D9B43F00043A1F2FE3B0D930021AA
:108CA000DDE90C230F46052060E1A8F15802202AD7
:108CB0003FF62DAD01A151F822F000BF878E0200D2
:108CC0000F8702000F8702000F8702000F87020044
:108CD0000F8702000F8702000F8702000F87020034
:108CE000118C02000F870200338E0200478E0200B3
:108CF000118C0200118C0200118C02000F870200FF
:108D0000478E02000F8702000F8702000F870200C4
:108D10000F8702008D8E0200878E0200D78D020021
:108D20000F8702000F870200518D02000F8702009B
:108D3000878E02000F8702000F870200878E0200D5
:108D400003994046D0470028C0F27D820135DEE419
:108D5000002E109F3BDB314638461EF0C1FE002F2F
:108D60003FF4D5AC3E18F31B4FF000099DF84A20A4
:108D700012F01001069100F05B82023312F0400203
:108D8000DDF84C80089218BF149ACDF81C8043443B
:108D900018BF9B18049A002A40F36582D31A9DF8E5
:108DA000482004935007C2F3800B00F15C82510607
:108DB00040F14C82B9F1000F07D003994846D047E3
:108DC0000028C0F240820135D94630223FE23846C1
:108DD000FEF796F9C6E71098002800F024820DF1FE
:108DE0007503009312AA17AB002102F0DDFCBDF859
:108DF0004A3003F0EF0343F4F04343F01003074617
:108E0000ADF84A304FF00009002E0CDB9DF84820E9
:108E10000DF17503DB1B6FF386129E428DF848201F
:108E200001D9F31A1393002F3FF471AC0DF17506BD
:108E30006DE0109B8DF85C304FF000090DF15D0680
:108E400017AF012392E7069B1F0758BFC3F3001912
:108E5000DDE9102354BF4FEA49194FF02B09002BCD
:108E600006DA524263EB4303CDE910234FF02D099C
:108E70000DF175030093DDE9100117AB12AA02F0A2
:108E800093FC0746C0E74FF00009F1E7109A072B63
:108E90003FF63DACDFE803F00C04060C08080C0CB0
:108EA000157034E4158032E4EB17C2E900532EE468
:108EB00015602CE44FF02D09B7E64FF02B09B4E60E
:108EC00040F2FF70814231D108F10108A2495FFAF6
:108ED00088F8134311F8081001F003011ED101298D
:108EE0000BBF492369234E216E210CBF4622662207
:108EF0008DF85C309DF848308DF85D106FF3861367
:108F00008DF85E208DF848300DF15F0617AFF31B2A
:108F1000B9F1000F3FF42AAF013327E7012915BF4C
:108F20006E234E23612141211A46E1E74FF0000CE8
:108F300089E6921801F1FF3140414FF0010C9FE6A4
:108F4000CDE90C20A5E6520842EAC3725B08B3F1F2
:108F5000333F59460BF1010BF5D200FB03FCA2FB9A
:108F6000002301F1020B6344013F01211BF1020FB9
:108F7000E9DB09B1CDE90C23BBF1000FDDE90C32CF
:108F80002EDCCBF10401A1F120000BF11C0B02FA45
:108F90000BFB22FA00F0CA40CB40079208F0DF0238
:108FA00043EA0B03472A43EA00037DD1F91C01DBA6
:108FB000BE422BDAA8F10208002E5FFA88F87CDDA9
:108FC0009DF84820920606F1FF3676D4B6F1000BE4
:108FD00018BF4FF0010B721C27E04FF0000B5EE64C
:108FE000023342F100020CA8CDE90C321FF027F841
:108FF000DDE90C320BF1FF3B0137DB185241002A4F
:109000000BF1FF3BF9DACDE90C32B5E79DF84820CA
:109010009006A6EB07064DD4B6F1000B18BF4FF033
:10902000010BF2194FF066084AD4102AA8BF10228B
:109030009FED477B8DED0E7B10200B90DDE90E013F
:10904000002A3FD1079A1B1842EB0101B1F1805F62
:1090500047D2CDE90C31069BB8F1660F03F0200230
:1090600040F0C180002F47DC30238DF85C30002AAF
:1090700074D1002E40F3BA812E238DF85D3087B174
:109080007B42B342A8BF33469DF84A201393002B7E
:10909000A6EB0306D4BF0023012363F345128DF82A
:1090A0004A200DF15E0340E0B8F1660F4FF0000B6F
:1090B000B7D090E74FF0000BB3E74FF0000B8AE713
:1090C0000022B5E7400840EAC1704908CDE90E0129
:1090D0000EA8CDE908231EF0B2FF089A099B013AB9
:1090E000ACE75B0843EAC1730CA84908CDE90C3131
:1090F00001371EF0A4FFAEE717AB0B9900290BDD7B
:109100000BA90CA8CDE906321EF0B1FF069B079A09
:1091100003F8010B013FF0D11397AAB9002E40F3D9
:1091200063812E2103F8011B0027002E1FDD0B9AFF
:10913000002A1CDD0BA90CA806931EF098FF069BC5
:10914000013E03F8010BF0E72E2203F8012BEBE7B9
:109150000000000000000008B4F304002E238DF886
:109160005D30002F9DD0002E8ADC0DF15E03BBF137
:10917000000F4CD114961E4608F0DF03452B21D179
:10918000002FBABF7F422D232B23632FC8BF642239
:109190007370C2BFB7FBF2F303F1300102FB137728
:1091A0004FF00A0286F80080CABFB170023603365B
:1091B000B7FBF2F303F1300102FB1373303331706C
:1091C00073700236139B002B2BDC149B002BD4BF37
:1091D000002301239DF84A2063F3861200238DF8B3
:1091E0004A20337092E60BA90CA806921EF03FFFAE
:1091F000069A8DF85C00302818BF07F1FF3712B9C6
:10920000002E40F3F3802E238DF85D3049E71E4693
:10921000013B16F8012C302AF9D02E2A08BF1E4631
:10922000AAE70123D6E7734E8146771F05239DE504
:10923000110748BF0133A1E5104609920399D047B1
:109240000028099A05DA1FB0BDE8F08F2022DDF86A
:1092500010B0594600290BF1FF3BEDDC049BCDF823
:1092600010B02B445D1AB9F1000F05D003994846A0
:10927000D0470028E7DB0135089B002B79D09DF90A
:109280004930002B29DBDFF870913B46187819F83C
:10929000002052079B4603F101033FD49DF84A305A
:1092A000EF1B98065F4407D44246002A08F1FF38B6
:1092B0003BDC079B3B449F1A9BF800002E280AD1F9
:1092C0000399D0470028BEDBB8F1000F07F1010772
:1092D00031DC0BF1010B5D4638E0B94699F800002E
:1092E0007028C84609F1010913D1EF1B149D4744AA
:1092F0003D44EB1B002B34DC039933464246504679
:109300001EF0CCFE00289EDB3844049E0546064431
:1093100065E00399D0470028E0DA94E706930399C3
:10932000D0470028069BB1DA8DE703993020D0475B
:109330000028B9DA87E703993020D04708F1FF38D1
:10934000C0E70399D0470028FFF67DAF287819F8C9
:1093500000305907A84605F10105F2D4A7EB0B0729
:10936000C4E703993020D0470028FFF66CAF0137DF
:10937000BFE79DF84A30DA0601D41B0706D50399EA
:109380003020D0470028FFF65EAF0135069B3BB189
:1093900003999DF84B00D0470028FFF654AF0135E4
:1093A000A84406E003993020D0470028FFF64BAFD1
:1093B0000135A8EB0503002BF4DC039933463A464C
:1093C00050461EF06BFE0028FFF63DAF28449CE798
:1093D00003992020D0470028FFF635AF0135731BD5
:1093E000002BF5DCFFF793B91746C0E60DF15D03DE
:1093F000BDE600BF4BF90400B5F304000000000017
:109400002DE9F843D0E90738856903EB08042F34C8
:10941000A5420F46164619D8DFF87080A3FB080155
:1094200017A3D3E90023FEF751FD0346601BA0FB01
:10943000080123F07F4412A3D3E90023FEF746FD81
:1094400020F07F403C603060BDE8F883DFF83C905E
:109450000BA3D3E90023A5FB0901FEF737FD20F09C
:109460007F4409480A2106A3D3E90023E8FB090148
:10947000FEF72CFD20F07F403C603060BDE8F883B3
:109480008D49FD1A0700000000166BF100CA9A3BD7
:109490009FED0D7B124B134A1348144910B483ED12
:1094A000007B9FED0B7B82ED007B9FED0B7B104BD8
:1094B0004FF0FF34002281ED007B04601A605DF8FC
:1094C000044B0DF08BBB00BFFFFFFFFFFF1F000031
:1094D00000000000000000001F000000000000006D
:1094E0008002002078150020342900207802002016
:1094F0002C29002000000000002800F037812DE911
:10950000F04FC74C94F85E30DA078DB000F16881F7
:10951000627F94F8293004EB820204EB8303166A1D
:10952000DF6A0EB3354615F8020BC0F380100CF05D
:10953000F7F90368C6F802308388AB8033785B069E
:1095400006D5062128460AF023FE002800F04A81AD
:109550003D4615F8020BC0F380100CF0E1F90368EA
:10956000C7F802308388AB80337813F00E0F40F0D9
:10957000958063691BB10C200DB0BDE8F08F0CF035
:1095800073FE8146002800F03B810CF079FE824694
:10959000002800F032810FF0D9FA0546002800F0CB
:1095A0003181D0F888004FF6FF73AB8405F1100BC2
:1095B000002800F01D8105F17C0205F178010AF018
:1095C000F3FDB5F8763023F4EF6323F0070343F49B
:1095D0008C7343F00103A5F8763095F8373003F02B
:1095E0003F0363F07F0385F8373095F88E3023F022
:1095F000070385F88E3095F83C3023F00F034FF0C9
:10960000000885F83C304FF4C023C5F88E31284659
:10961000C5E91288C5F88880A5F88C8085F839805E
:10962000A5F82A80C5F82E80C5F85080A5F860817D
:10963000A5F89481A5F88A8111F03AFA85F8648139
:10964000C5F868910FF04EFD95F89C3160F3020368
:1096500085F89C310FF04CFD95F89C3160F3C50303
:1096600085F89C3195F8623168F3410385F86231E1
:109670000121284610F0EEF805F1E00011F038F86D
:10968000C4E9159AC4F814B0C5E9028885F80080C9
:109690002D6114F0E7FC002840F0A680237E012114
:1096A000C3F342030DF12B008DF82B300AF01AFFA3
:1096B000024600285CD0394630460EF09DFD5949DF
:1096C000594BB4F85C70A0FB0101C0184FF00005C5
:1096D00051A3D3E9002341F10701C4E902552570E4
:1096E000FEF7F4FB60600CF0D9F800F109083FB90F
:1096F000357805F00F05A5F10105B5FA85F56D0979
:10970000207E636865F3000010F00105207636D0F6
:10971000464A0992002010600225454A454F0493AD
:109720000BAE019305920321CDE902000694434656
:109730000090089607972A460B950BF0B1FF31462B
:109740000CF014FEA0B93C4905914AF2D8330093BD
:10975000CDE90300CDE9010007970896069443463A
:10976000012203210B950BF07FFF2EE00EF0E0BCF1
:109770006369002B3FF4FFAE0EF0B0FCFBE62B4A12
:109780002E48049303F24713069402959121136027
:10979000A7FB000301FB0731264B0793244B0593DE
:1097A0004FF6FF730992022703930BAE1AA3D3E976
:1097B00000230B970896FEF789FB4346CDE900503E
:1097C0003A46284603210BF06BFF31460CF0CEFDE4
:1097D0000028CDD194F85E3043F0010384F85E3068
:1097E0000020C9E61220C7E60EF078FC0320C3E68D
:1097F00005F18000C5F88800DDE648460CF03AFD2A
:109800000720B9E650460CF041FD48460CF032FD09
:10981000F6E700BFAFF300808D49FD1A0700000096
:10982000EC29002000CA9A3B8C49FD1AE02900204F
:1098300071820300B9590300617F0300002AE784A5
:1098400070B5037E8AB0C3F342030D46044601217E
:109850000DF1230016468DF823300AF043FE314601
:10986000024628460EF0C8FC1F49204AA0FB0131E1
:10987000981841F107011AA3D3E90023FEF726FB4C
:1098800063689842054621D21B1A00220192184AA9
:109890000293184BA21AA3FB023202219209002361
:1098A0000A4409AE099114490591CDE90333032116
:1098B000D2B20696009318460BF052FF31460CF0D8
:1098C00055FD38B9656000200AB070BDFBD9C21AD9
:1098D0000023DBE70C200AB070BD00BFAFF30080AF
:1098E0008D49FD1A0700000000CA9A3B8C49FD1AF9
:1098F000EC290020ABAAAAAAB95903000000000075
:1099000038B5194C9DF810E094F828C01CF00105FA
:1099100021D163F3420C4001237DA1834FEACE0E97
:109920000EF0180E00F0200040EA0E0023F038037D
:1099300003430E4823759121A2FB000384F828C03D
:1099400001FB023106A3D3E90023FEF7BFFAC4E905
:109950000800284638BD0C25284638BDAFF30080E6
:109960008D49FD1A0700000080150020002AE784B9
:109970002DE9F043044600F1150190F82800237DFD
:109980003F4DC0F3400060F386138DB023750BF09C
:10999000D7FF227DA38B3B48246102F07902002788
:1099A00022759121A3FB0002C4E90277277001FB15
:1099B000032131A3D3E90023FEF788FA324A636A10
:1099C0002362651BA2FB05250933C5F347159842A1
:1099D00005EB450898BF27624FEA88082B4F8EBFDA
:1099E000636003466060064647F808300BF056FF98
:1099F00047440DF12C090997CDF820900694A38BCC
:109A000000F109081F480027A3FB000203979121DA
:109A100001FB0321636804931D4B07931D4B0593C2
:109A200002230B9314A3D3E90023FEF74FFA104649
:109A300019464FF47A720023FEF748FA0435EDB266
:109A4000CDE90160032143462A46009738460BF0D2
:109A500027FE49460CF08AFC40B994F8283043F0C0
:109A6000010384F828300DB0BDE8F0830C200DB060
:109A7000BDE8F083AFF300808D49FD1A07000000B8
:109A800080150020002AE784A38B2EBA642A0020C8
:109A9000B9590300598703002DE9F04F05468BB0F3
:109AA0008B46012002219946144616F001FA002245
:109AB0000221824601200AF0C7FB2F494FF4D472DD
:109AC00028460AF051FB461D2C4B0093F6B2019537
:109AD0004B463246012100200BF09CFE10F0FD0F9A
:109AE00042D1274BA4FB0348204621A3D3E90023FE
:109AF0004146FEF7EBF9089506956B680493214BF8
:109B000020F07F47A7FB0331E01A1F4B07934FF06C
:109B100007021E4B059302FB07114FF6FE7368EB1D
:109B2000010103934FF47A720023FEF7CFF9CDF8C9
:109B300000B0CDE901704B463246012100200BF008
:109B400093FD10F0FD0F0DD1BAF1000F02D10BB053
:109B5000BDE8F08F0122022110460BB0BDE8F04FA6
:109B60000AF072BB00DEEFE700DEBAE7AFF3008079
:109B70008D49FD1A07000000B01500200D8A030072
:109B800000CA9A3B8D49FD1AF589030029D40300C8
:109B90002DE9F0418468A28C4FF6FF739A428CB095
:109BA00000F08E800546204611F0FEF92B7D012B3A
:109BB00000F00D81022B00F00081002B00F0DF800F
:109BC00094F86471002F40F0FB802B8AE68D94F9A5
:109BD0003720CDE90A77002B75D0002AC0F24181E9
:109BE0000023A4F89031AB7CA28D03F00303551C35
:109BF000012BADB200F0BF80B4F89431002B00F01F
:109C0000EC80AB4240F246815B1B9BB2062BA4F872
:109C100094314FF000028CBF00230123E2851F46E0
:109C200094F83C2063F3820284F83C2029460DF12D
:109C30002702204610F078FF743000F02581B4F838
:109C40008E312BB1AB4240F2FD805B1BA4F88E310C
:109C5000B4F88A312BB1AB4240F2EB805B1BA4F825
:109C60008A31E58D17B9AE4200F0DA800135ADB228
:109C700094F8D13013F0010640D1DDE90A130A4609
:109C8000002B40F0DD80002900F0CC801E461846F5
:109C9000A28C24690694CDE9035705329C4D0290AD
:109CA000CDE90016D2B20121002005950BF058FD38
:109CB00010F0FD0F04D00CF083FB844240F0FB80D9
:109CC0000CB0BDE8F081002AB8BF84F8D570AB7C39
:109CD000A28D03F00303551C012BADB24BD0B4F899
:109CE0009031002B88D0AB4240F2D9805B1BA4F8A6
:109CF0009031B4F89431002B83D191E794F9372057
:109D00006FF30003002A84F8D130C0F2818094F808
:109D10007600C0F3C00100F0070014F027F8B4F893
:109D20006E20B4F86C301344E28B03F23F131344FB
:109D30000344784A78480721E3FB0021104672A3C8
:109D4000D3E90023FEF7C2F8DDE90A1320F07F42D1
:109D500060686260904235BF161A801A00200026A3
:109D60000A46002B94D156EA010C91D1002859D013
:109D700019461E468CE70023A4F8943150E794F866
:109D80008E3003F01803182B7FF41AAF218DB4F82E
:109D90008C218B1D9A42C4BF931F5B1AB4F88811A3
:109DA000CCBF9BB21346994200F09480A4F888314E
:109DB000A4F88A31A4F88E2102E73D2784F8647163
:109DC000394620460CB0BDE8F0410FF04BBA0023F5
:109DD000A4F88E31A4F88A31F2E6E28C052A97BF06
:109DE000013240F2E2434FF4FA7392B203FB02F203
:109DF000B4F8923142F2107101FB0323013BB3FB33
:109E0000F2F39BB2A4F89431002B7FF4FAAE07E78B
:109E100094F87700012100F0070013F0A9FF7EE716
:109E20003D4625E7002D3FD00026114630463346FB
:109E30002EE70023A4F88A31204610F007FF10E730
:109E4000304625E70CF062FA014680B30023A4F8FF
:109E50008E31A38CC3801B23037100680CF028FA99
:109E6000F6E694F8D53043B3013B84F8D53004F1DD
:109E7000E008404610F07EFC90B3404610F07AFCBB
:109E800090B30023E385ABE69DF8271020460FF042
:109E9000E9F915E7082120460FF0E4F910E73E2123
:109EA00020460FF0DFF90BE7002FBDD108E70123B3
:109EB000A4F88E31CCE600DE02E70AAA0BA92846F8
:109EC000FFF79EFADDE90A231343D0D0237884F804
:109ED000D530CCE7B4F88E1100297FF471AE67E776
:109EE000FF200FF081F9C8E70246D4E91E010AF00D
:109EF00073F90028C5D194F83C301B0744BF238D6B
:109F0000E3856DE6AFF300808D49FD1A0700000080
:109F10004D8A03008C49FD1A00CA9A3B00000000DC
:109F20002DE9F04F87B0B0F86071BDF84C9000910A
:109F3000CDE90423B0F82431BDF840A01F44BFB2DE
:109F40000446A7EB090390F87600D4F81C819EB272
:109F5000BDF844300193C0F3C001BDF8483003960A
:109F600000F00700029313F001FFE58C052D40F28D
:109F7000A48015FB06F5ADB240F2E24BBAF1050F35
:109F800040F28F80B4F86E20B4F86C30134403F2C2
:109F9000D5130344764A77480721E3FB00214FF0AD
:109FA0009613E3619623104623846FA3D3E900231D
:109FB000FDF78CFF564620F07F4040F2E2430BFB5A
:109FC00005F203FB06F6531E3344B3FBF6F31FFA08
:109FD00083FB606006FB0BF082425D4653D265490D
:109FE000801AA0FB010160A3D3E90023FDF76EFFF7
:109FF00020F07F408044B4F82421B4F86031A9EB0C
:10A0000007094D44ADB213442B44A4F86031638D6D
:10A0100013441D4494F837306585DB0955D100DEC3
:10A0200000273546019B2385029BA4F892313146D7
:10A030002046A4F826A010F0A3FD4F4B218D3344F9
:10A04000881DB3FBF6F39AB29042A4F88C2104D297
:10A05000C1F57F41FA310A4492B2009BA4F88821ED
:10A0600013B10023A4F8943143462A4639462046CA
:10A07000FFF712FD94F8623143F0010384F8623176
:10A0800007B0BDE8F08F121A3A48A2FB000136A3D0
:10A09000D3E90023FDF71AFF20F07F40A8EB00086A
:10A0A000A9E74FF096130AF10106E3619623238492
:10A0B000B6B20A204FF4FA7381E7039B013515FB12
:10A0C00003F5ADB24FF4FA7B58E7216CA36C294F2E
:10A0D00001FB0233039A01FB1233A3640023C4F88B
:10A0E000DC3014F013F8054694F8D400C0F34200B5
:10A0F00014F00EF8054406FB05F5204B1C4805F549
:10A10000742505F23F25A3FB0535AD0CA36C256432
:10A110000BFB05FB72085B44963A934228BF13463B
:10A12000C4E91123049B40F2E24909FB03F3072130
:10A130002365EBFB07010CA3D3E90023FDF7C6FE63
:10A140000F4B059AA8EB0008A3FB0230800A09FB1D
:10A1500000F0A0FB070104A3D3E90023FDF7B6FE3E
:10A16000751B20F07F475DE78D49FD1A0700000051
:10A170008C49FD1A00CA9A3B7FC3C90183DE1B4389
:10A180005917B7D1000000002DE9F04F0D460968BE
:10A19000B0F82EC0D1F800900146144651F82EAB0D
:10A1A00052F8086B8F788346D0F81E00BBF8221057
:10A1B0009BF81C80A4F808C09770DBF82A20626026
:10A1C00091B0DBF83A20C4F82220ADF83C109BF89F
:10A1D0003E100E9084F8261010AB13E9030004F132
:10A1E00022020C90ADF83410104605210AF07AF9DD
:10A1F00094F8272000F03F0060F3050284F8272040
:10A200009BF83F20C2F3040184F82810BBF83410F7
:10A21000E1820128C8F380180DD902F01F021B3219
:10A2200002F01F020B2A06D889B2063989B240F61D
:10A230007A42914219D90021C9F8081094F82C20CB
:10A2400061F3000284F82C200125DBF80C408BF828
:10A250000450504659460CF01FF8206825712146DD
:10A2600011B0BDE8F04F0CF023B82A68002151600E
:10A27000BBF836202283E78ABBF832300A9340F2DB
:10A28000E242304602FB07F710F08EFC9BF83F10CD
:10A2900096F8D400490961F3430086F8D40013F01E
:10A2A00035FF0B9096F8D400C0F3420013F030FF56
:10A2B0000B99084407FB00F0994900F5742000F25F
:10A2C0003F20A1FB00107908800C96392063616360
:10A2D0009BF8311040F2E24201FB02F26264BBF8EB
:10A2E0003820A6F892213946304610F049FC8D4AB4
:10A2F0008D49C6F898113A44B2FBF7F290B2A6F82D
:10A300008C01218B01F1060C604504DDC1F57F4114
:10A31000FA31014488B25946A6F8880111F81C2F79
:10A32000C907C2F3401200F1EC80BDF83410ABF85D
:10A3300023100C988BF81E804FF48071CBF81F000F
:10A34000ABF81C10E18AABF82610218BABF8281073
:10A35000B6F89211ABF82A1096F8D4100B92C1F30C
:10A3600042018BF82C1030460EF0FCFBA082ABF8BB
:10A370000600D5F80480504659460BF08DFFA38A9D
:10A380000B9AA8F806301C23D8F800A088F80430EF
:10A39000002A40F0A28088F81C20414650460BF06D
:10A3A00087FF94F86700B4F85CA0B4F85E800121E0
:10A3B00000F0070013F0DCFCD04408F2D51800EBE5
:10A3C00008038246DFF86C8158480721E3FB080147
:10A3D0004FF09613C4E903334FA3D3E90023FDF7ED
:10A3E00075FD20F07F407060EB680A98226B40F2A8
:10A3F000E24101FB003404F2B3440221A41A01201B
:10A40000BF1A002209F020FF48460EF0A7F8A4EB7F
:10A410000A040246A4FB080114463FA3D3E9002323
:10A42000FDF754FDCDF80490AB684149009120F050
:10A430007F4AA21C363BD2B25344012100200BF0CC
:10A44000E9F901285FD099F81830DB0751D430467C
:10A450000EF088FB374BA7FB039804462EA3D3E9E5
:10A46000002348464146FDF731FD334BAD68334A82
:10A47000079220F07F47A7FB0331B9EB0300304B75
:10A4800005934FF4F8730696089373684FF0000B2A
:10A49000CDE903B34FF0070303FB071168EB01019C
:10A4A0004FF47A720023FDF711FD0534363DE4B216
:10A4B000CDE90170CDF800A02B4622460121584677
:10A4C0000BF0D2F810F0FD0F23D10122022110462B
:10A4D00011B0BDE8F04F09F0B7BE94F8273043F053
:10A4E000400384F82730201D13F098F801222085BE
:10A4F00051E7002301220093184611460BF048F95A
:10A50000A5E700DE11E70BF05BFF81459BD000DE85
:10A5100099E700DED9E700BF8D49FD1A070000006A
:10A5200083DE1B437FC3C901404B4C008C49FD1A9D
:10A53000B1D4030000CA9A3B8D49FD1A01D403002F
:10A5400029D4030000000000F0B5C468636883B03C
:10A550000546002B40D115F085F8002015F0A8F82D
:10A560000021084615F096F800222521082015F054
:10A57000D3F8374B019301A815F0BAF8354940F2EA
:10A580005B6015F073F9237AC3F3420262F306139A
:10A590002372204613F040FF27682E68384613F0D8
:10A5A0009DFB06446A6806F10901012015F098FA3E
:10A5B00015F086FB20460DF0DDFF811C3246C9B246
:10A5C000384613F08DFB054698B9204613F054FB2E
:10A5D00068B9002003B0F0BD93F82C309B07BAD0C7
:10A5E0001D48214615F012F815F0E8F8F1E700DEF5
:10A5F000EFE71A4A1A491B4840F211431DF065FD66
:10A60000194B0721A5FB030301FB05310EA3D3E979
:10A610000023FDF75BFC1549024615481DF055FD6A
:10A62000002585F31188BFF36F8F0323184602DFDF
:10A630001048214614F0EAFF15F0C0F86FF08B00C7
:10A64000C8E700BFAFF3008000CA9A3B00000000DB
:10A65000D6BE898E5555550021DE030044EF040017
:10A6600090EF0400E4ED04008D49FD1AC0EF0400F2
:10A6700094EF04001DE103002DE9F041C468237943
:10A680006FF300038CB023710F46054614F0EAFF08
:10A69000002015F00DF80021084614F0FBFF0820FB
:10A6A0000022252115F038F801200BF029FF0028A1
:10A6B00064D01C3015F05AF8494B0B930BA815F0D9
:10A6C00017F8484940F25B6015F0D0F82079C0F3E4
:10A6D0004100253013F016FB4348214614F096FF45
:10A6E00023799B062DD5962015F0EEF900231A4606
:10A6F0001946184615F020F9D4F800802E68404617
:10A7000013F0ECFA06446A6806F10901002015F01E
:10A71000E7F915F0D5FA15F07FF920460EF0DEF8CE
:10A72000011DC9B24046324613F0DAFA054648BB6D
:10A7300057B1204613F0A0FA10BB00200CB0BDE8C2
:10A74000F08115F059F9D7E72369002BF1D0274D97
:10A750000795274D059540F2F3150093CDE9037752
:10A76000CDE90177069433460322394608950AF06D
:10A770007BFF10F0FD0FDCD000DEDAE700DE98E7AB
:10A7800000DEDAE71B4A1C491C4840F2E5131DF0C5
:10A790009CFC1B4B0721A5FB030301FB05310EA30A
:10A7A000D3E90023FDF792FB1649024616481DF037
:10A7B0008CFC002585F31188BFF36F8F03231846A7
:10A7C00002DF1248214614F021FF14F0F7FF6FF06A
:10A7D0008B00B3E7AFF3008000CA9A3B0000000093
:10A7E000D6BE898E55555500F1E9030085E7030073
:10A7F00095E70300CCEF040090EF0400E4ED0400C3
:10A800008D49FD1A18F0040094EF040011E80300CC
:10A810002DE9F043C468A28A4FF6FF739A4283B0D1
:10A8200000F0FF80064614F085FA3389628B208C95
:10A83000A3831A4492B2104494F82730E28380B282
:10A84000411C21845D064FF00001618304F1220167
:10A8500000F1A78003F03F000B4694F82810009009
:10A8600004F1290012F092FE0546D4E90C31A26BE6
:10A87000A08BA36303FB0022E36B8A4294BF9B1867
:10A880005B188B4228BF0B46626C216CE3630A4461
:10A8900094F867306264002294F82C10226494F8D3
:10A8A0007E20C3F3020363F3061112F0040284F85E
:10A8B0002C1000F0878014F0D5FE002014F0F8FE74
:10A8C000201D14F015FF2389A17A40F25B6043EA52
:10A8D000014114F0CBFF284613F014FA21465848E2
:10A8E00014F094FEA08915F0EFF894F8662094F81F
:10A8F0006700C2F3C003002102F0070200F0070066
:10A9000015F01AF8204614F0AFFAD4F80080376832
:10A91000404613F0E3F90744726807F1090100208B
:10A9200015F0DEF8814615F09FF9002015F0B6F914
:10A93000E36B94F8670003F12F02636C00F00700EB
:10A94000012103EB420514F025FF4D44054494F822
:10A95000670000F00700022832D004280CBF4FF433
:10A96000BC73282301211D4414F016FF284415F060
:10A970006DF9A18A05313A46C9B2404613F0B0F9E3
:10A980000546B0B1B37A13F0020629D000252D4850
:10A99000214614F03BFE14F011FF284603B0BDE839
:10A9A000F0830A4603F03F03218D12F03BFE05467B
:10A9B0005BE7204613F060F9002839D10025ECE769
:10A9C0001823CFE7D4E91A0109F006FC00287FF428
:10A9D00072AF94F87E3043F0040384F87E306AE767
:10A9E000194A1A491A4840F259131DF06EFB1948CA
:10A9F0000721A5FB000301FB05310FA3D3E90023C9
:10AA0000FDF764FA1449024614481DF05EFB86F314
:10AA10001188BFF36F8F0323184602DF6FF08B0599
:10AA2000B5E70F48214614F0F1FD14F0C7FEC5E765
:10AA300000DEC3E7AFF3008000CA9A3B00000000CD
:10AA400091F0030001DE03002CF0040090EF0400FD
:10AA5000E4ED04008D49FD1A80F0040094EF040039
:10AA600021DE03000000000007EE901AF8EEE77AFE
:10AA700070B567EE807A064617EE900AFDF780FA09
:10AA80000D4D80FB05450AA3D3E900232046294646
:10AA9000FDF7CCF9094A3060002320462946FDF72E
:10AAA000C5F9064A0023FDF7C1F9726070BD00BF09
:10AAB0000010A5D4E80000003AA3950040420F0022
:10AAC00007EE901AF8EEE77AB2EE047A67EE807A33
:10AAD00070B5C7EE877A0646114D17EE900AFDF75E
:10AAE0004FFA80FB05450AA3D3E9002320462946F7
:10AAF000FDF79CF908A3D3E90023306029462046DE
:10AB0000FDF794F9074A0023FDF790F9726070BDD4
:10AB100000209BF35E10000080A8120100000000DE
:10AB2000D8EF2F0040420F0070B50446C1B307298B
:10AB30004BD153681068284AD917C0FB0231012B4A
:10AB400071F100023EDB2548181841F1000120A3F5
:10AB5000D3E90023FDF76AF9022826691AD01028E4
:10AB60001AD004281AD008282CD1032529462046BB
:10AB700021F09AFE00281FDB194B33F815303D22D7
:10AB8000A3FB023207EE903AF8EEE77AC6ED037ABD
:10AB9000002070BD0025E9E70125E7E70225E5E78C
:10ABA0001288104B33F8020B824208D1C9B22046FA
:10ABB00017F06AFF0028EBDA6FF00400E9E70131D3
:10ABC0000C29EFD16FF01500E3E76FF08500E0E7A7
:10ABD0003AA395000000000040420F009DD14A00BA
:10ABE00016F504001EF5040070B50D46032D114640
:10ABF00004461A4609D0072D0BD03B4A3B48022198
:10AC00001DF050FF6FF0850037E0BDE87040FFF7A2
:10AC10008BBF002951D00729F4D159681D68344BE6
:10AC2000C8170A46C5FB0320B425A2FB0531012A3B
:10AC300005FB001170F1000020DB2E48181828A336
:10AC4000D3E9002341F10001FDF7F0F8FA281DD007
:10AC5000B0F5FA7F1CD0B0F57A7F1BD0B0F5FA6F53
:10AC60001AD07D2839D1042529462046266921F0AD
:10AC70002BFE002812DA6FF0040070BD1E48181871
:10AC800061F1000116A3D3E90023DDE70025EBE71E
:10AC90000125E9E70225E7E70325E5E7174B33F848
:10ACA000153041F21712A3FB023207EE903AF8EE8C
:10ACB000E77AC6ED077A0020DFE71A88104B33F8F1
:10ACC000020B824206D1C9B2204617F0C1FE00280D
:10ACD000F1DAD0E701310C29F1D16FF01500CCE7A2
:10ACE000D8EF2F000000000078190500E4E404000C
:10ACF00040420F00ECF717001408E8FF0CF50400C1
:10AD00001EF5040008B520F07BFEBDE808400246B1
:10AD1000014902481CF0F7BE36F50400ACE504001A
:10AD20000A4609B9FFF7EEBF014902481CF0EBBE25
:10AD300052F50400ACE504000246024902481CF04A
:10AD4000E2BE00BF6BF50400ACE5040010B50A4696
:10AD5000054806491CF0D7FEBDE8104004484FF4F2
:10AD6000804200231BF0D0BBACE5040082F5040058
:10AD70000000002010B50446084619B1BDE8104097
:10AD8000FFF7DABF084909481CF0C2FE084920460F
:10AD900008F0C8FE10F0FF0205D0BDE810400549DC
:10ADA00002481CF0B0BE10BD9CF50400ACE50400E8
:10ADB00088020020A7F5040030B50E4D0FCD89B0F4
:10ADC00003AC0FC42B6823600123009302220A4BBB
:10ADD0000A4903A805F0EAFA024628B108490948D9
:10ADE0001CF091FE09B030BD074906481CF090FEEA
:10ADF000F8E700BF30E60400B8E60400C0E604004F
:10AE0000C9F50400ACE50400ECF5040030B50378A6
:10AE100093B0044607AD032B20D8DFE803F00219F6
:10AE20001B1D114928461CF0FDFD05956378049310
:10AE3000A3780393E37802932379019363790093D2
:10AE4000A3790A4A1E210AA81DF0E2F813B030BD0A
:10AE50000749E7E70749E5E70749E3E7074A0A2122
:10AE600028461DF0D5F8E0E703F6040025F60400B7
:10AE70000AF6040011F604001BF604008810050011
:10AE8000F8B5224A13680133044613608368204FE3
:10AE9000DB68204E032198473A46204600211CF0EB
:10AEA00062FE3246204601211CF05DFE1A4A022154
:10AEB00020461CF058FEA368184DDB680721204689
:10AEC0009847174A042120461CF04DFE154A0521DB
:10AED00020461CF048FE2A46062120461CF043FE70
:10AEE000114B1A6882B197E8030000221A600F4BD9
:10AEF00083E8030096E803000D4B83E8030095E820
:10AF000003000C4B83E80300F8BD00BF401C002089
:10AF1000181C0020101C0020081C0020F01B002022
:10AF2000001C0020F81B0020441C0020381C0020BE
:10AF3000301C0020281C002080B500AF8CB06B4670
:10AF40000A4858610A48C3E90821C3E90602094AC8
:10AF50009A621A46084B42F8103F084800234FF403
:10AF6000635101F01DF8BD4680BD00BF48F60400E6
:10AF70007FF804000002030506000002ACE50400AF
:10AF800080B50D4A0D4B00AF8AB0002818BF13469C
:10AF90006A460B4951610B49C2E906130A4B136219
:10AFA0000A4B42F8103F0A4800234FF4235100F0A7
:10AFB000F7FFBD4680BD00BF67F604006FF60400D2
:10AFC00078F6040071F80400000201030400000296
:10AFD000ACE504002DE9F04F91B08407009302F036
:10AFE00004030293C2F3C20303F10103DDF8688096
:10AFF000039205460E46059340F0BA81041D30B118
:10B00000072909D86FF01B0011B0BDE8F08F01F0DF
:10B0100007063444C6F10806009B4FF00009591E8C
:10B020004FF0040A4FF0FF330193CDF810904F46D4
:10B03000CB4653460DB1009820600598002800F3D8
:10B04000E8809848009A824203D397488242C0F031
:10B05000E080039AA4EB050E92074FEA9E0000F1F0
:10B0600003810F2F00F2B180002D00F0058107F160
:10B0700040020DEB020C019A0CF8200C0CF8102C7D
:10B08000049801300490E7E07A285DD84B280ED868
:10B09000472859D829282DD8252852D054D82028D7
:10B0A0007AD02338D0F1000B4BEB000B74E04C3816
:10B0B0002E2849D8DFE800F07048484848484848FA
:10B0C000484848484B484848484848484859484BE9
:10B0D0004B595959704B6D487048184B1848488265
:10B0E0007F4B48484B487F0000204FF0000B4FF04B
:10B0F000040A38E02A38C0B2012202FA00F010EA4D
:10B100000E0F49D110F0625C2FD110EA020B43D030
:10B110006046013C5444B4FBFAF40AFB04F4002DED
:10B1200061D0A3EB050CA444B4453FF66BAF0028F7
:10B1300068D1042B47D158F8043B2360043404231E
:10B140002AE0019A013A01924FF0000B24E011F835
:10B15000010C6C2834D111F8023C00206C2B834682
:10B16000C5D14FF0080A5346D3E708F1070828F085
:10B1700007080734F8E802AB24F0070435B1069855
:10B180002044B0423FF63EAFC4E900AB08344FF074
:10B19000000B4FF0080A534611F8010F002878D031
:10B1A000BBF1000F7FF470AF2528F5D1019B01336F
:10B1B00001934FF0010B4FF0040AECE7584694E777
:10B1C00000208346A5E7082B02D06FF015001BE78F
:10B1D00008F1070828F00708B8EC027B84ED007B33
:10B1E00008340823D8E768B9042B02D108F1040811
:10B1F000A4E7082BE9D108F1070828F0070808F1AF
:10B200000808EDE705980138059058F8040B009000
:10B2100010E7039A900720D5A4EB050E4FEA9E0095
:10B220004FF0010CBEF5007FCFD20F2FCDD8F5B176
:10B2300007F140020DEB020EC0B2019A0EF8200C8D
:10B240000EF8102CBCF1000F3FF41AAF60F07F0035
:10B250000EF8200C09F101090137C5F10802043488
:10B2600006924FF6DA7E97E74FF0000CDAE7BCF172
:10B27000000F01D00136EFE7029A0236002AEBD127
:10B280000098CDE90631FBF73BFFDDE906310644C6
:10B29000E2E7631BB3F5806F97D23DB9A6F10804CE
:10B2A000E018B1E6ECDE0400C41D0500029A286037
:10B2B0009B082B709DF81030C2B1EB7085F802909E
:10B2C000B9F1000F05D008A80022C5F1010C974282
:10B2D0000ED1C5F101030DF120084FF0000A0193D2
:10B2E0000DF1300B574512D1601B8DE66B70E5E711
:10B2F00010F8013B190608D50CEB040EB64503F017
:10B300007F033FF67FAE04F8013B0132DFE7B9F17E
:10B31000000F03D098F90020002A17DB029BD3B15D
:10B320001AF80B2004F8012B0022019B1819104475
:10B33000B0423FF667AE98F8000004F8010B0099A0
:10B3400003922046FCF7BAF8039A14440AF1010A62
:10B3500008F10108C6E798F8002055F8223000935C
:10B36000029B45F822300098FBF7CAFE421CDCE73E
:10B370006FF00D0048E600BF2DE9F04F97B000AF29
:10B3800090F802A0D7F880B03B62CBF3C00304462C
:10B39000FA62BB61894641B9457800780AEB8000C2
:10B3A00020444D4517D8A0EB0409E378FB61BAF1BE
:10B3B000000F02D01BF0010F16D1FB6953BBFB6AD3
:10B3C0001BB13A6A4946204698474D4628465C37A5
:10B3D000BD46BDE8F08F461C3046FBF791FE0130BC
:10B3E000304409F10109DCE7237862687A62FA6A7D
:10B3F0009900796104EB8301002A40F000814D46F9
:10B400000E4601EB0A094FF000084E454CD101EB06
:10B410000A0610E01BF0020FD1D023789A007A615F
:10B4200062687A62FA6A04EB8301002A77D14D469A
:10B4300001EB0A0690461BF0050F0CBF0223012307
:10B44000FB62FB6906EB430A0BF00203BB62564545
:10B45000BCD016F8021B16F8013C54F82390994B07
:10B46000994502D3984B994536D3BB69002B40D000
:10B47000786A1CF085FD00283BD0E9468AB06A4610
:10B48000924B53617B6AC2E906314FF40073138417
:10B490008F4B42F8103F8F4800234FF4125100F0B9
:10B4A0007FFD023DCD46D2E716F8013BF96254F824
:10B4B0002300FBF725FED7F88430F96A01304BB141
:10B4C000D7F8883098453EBFD7F8843023F8180065
:10B4D00008F10108054498E7BB6923B1786A1CF0BC
:10B4E0004FFD0028C9D11BF0010F05D1FB6AED1AF1
:10B4F000ADE7BB6A002BAAD04846FBF701FED7F8A0
:10B50000843053B1D7F8883098453FBFD7F88420AE
:10B51000431C22F8183008F10108054497E7BAF1F6
:10B52000000F72D01BF0040672D0D046002607F13F
:10B53000480052463B61B962FBF7C0FFB96A3B69FC
:10B5400001EB0A02BA62FA69F9695200FA60BA6A52
:10B5500002EB41023A610BF00202BA603A69B96A41
:10B560008A4257D162787A621BF0020F32440CBFD4
:10B570004FEA580100211BF0010FD2B240F09F802A
:10B580001BF0040F14BF40460020BB616270A07026
:10B59000E1703A6A7969FB6A20469847051EFFF612
:10B5A00015AFBB6923707B6A6370FB69E37041462A
:10B5B0003A6AFB6A84F802A007F148009847B0F1A4
:10B5C0000008C0F2BB807B693A6AA9EB0A01C91A7C
:10B5D000FB68C91AD7E90A0398470028C0F2B0806F
:10B5E000A84408EB00054FF0000B07F1380AB345FB
:10B5F00072D300213A6AFB6A08469847E6E6564647
:10B600004FF0000807F1380093E75646D04697E719
:10B61000B04695E7BA6A12F8021BBA6212F8015CEA
:10B62000284A54F82500904202D3274A90421ED35C
:10B63000BA6932B1786A7B601CF0A2FC7B68002892
:10B640008CD1BA6802BB08F1280207F1300C08F16E
:10B650000100944407F1580252FA80F008F1020800
:10B660000CF8101C5FFA88F800F8105C76E7BA69ED
:10B670003AB1786A7B601CF083FC7B6800287FF419
:10B680006DAF1BF0010F09D006F1280207F1300061
:10B69000711C161806F8205CCEB25FE71BF0040F91
:10B6A0003FF45CAF08F1280207F1300008F1010116
:10B6B00002EB000808F8105C5FFA81F84EE7002002
:10B6C00063E700BFECDE0400C41D050092F804002F
:10B6D0000400000164E504001BF80A3087F83730E5
:10B6E00054F82390D7F884302BB3D7F888309B4593
:10B6F00021D2D7F8843033F81B803A6AFB6A0121E3
:10B7000007F13700984700281ADB0544B8F1000F0D
:10B7100006D14846FBF7F4FC00F101081FFA88F84F
:10B720003A6AFB6A414648469847002808DB0544C8
:10B730000BF1010B5BE74FF00008DEE7454645E6FD
:10B74000054643E6014B1860704700BF9C0200208D
:10B7500030B587B00025CDE903010446009503A963
:10B7600005480595FCF7BCFFDDE904309842B8BFF9
:10B77000255407B030BD00BFCF7F0400F0B5094E9F
:10B78000016802460A2700200B4601311C78355D0E
:10B790006D0701D41360F0BD07FB0043A3F1300037
:10B7A000F2E700BFB5F304002DE9F84F15469A46BD
:10B7B000D378234A12F803B06F2B81460F460BF063
:10B7C000030B2BD026D8582B0CBF10260A26DDF8E9
:10B7D00028803246002348463946FCF777FB092A81
:10B7E00008F1FF38D4B21ED83034B145E4B277F155
:10B7F000000788F8004001D3D04511D82B789B066C
:10B8000005D5082E15D1AB7843F00803AB70404640
:10B81000BDE8F88F03F0F703702BD5E70826D6E7CD
:10B8200081460F46D5E7BBF1010F0CBF37345734C3
:10B83000DBE7102EEBD1AB7843F01003E6E700BF57
:10B84000B5F304002DE9F047058B04462807904620
:10B8500011D4022905F0070540F0CC8020461CF0E9
:10B86000C5FE78B10138218B042811D8DFE800F03B
:10B87000C2106D85950001290CBF45F0100545F0FB
:10B880002005258388F31188BFF36F8FBDE8F0870B
:10B8900001F0070AAA4500F0A5800027B9463E46F8
:10B8A000A368002B00F0BC8041F00801218388F3DD
:10B8B0001188BFF36F8FA168002900F0BA800D686E
:10B8C000002900F0B680D1F8048033465246204665
:10B8D000C047002D76D02B6829461D46F0E701F0C1
:10B8E00007035A1F012A1BD8002221F00701062B4B
:10B8F000276889B2C4E9002209D13B4603E0628B84
:10B90000013262831B68002BF9D141F002012183CF
:10B9100020461CF06BFE00287AD041F0200176E032
:10B92000042B0AD121F0070189B2218320461CF0A3
:10B930005DFE10B141F020012183218B01F0070A47
:10B94000AA454FD00027B946AAE7236921F007018D
:10B9500041F00601062DD3F8009021832DD1B9F1D5
:10B96000000F3FD041F00801218388F31188BFF315
:10B970006F8F3A492046C84729E021F00701236923
:10B9800041F0040189B2042DD3F804902183E6D05C
:10B9900000273E464FF0040A82E721F007012369A1
:10B9A00041F0050189B2052DD3F808902183D6D046
:10B9B00000273E464FF0050A72E700273E464FF04B
:10B9C000060A6DE72B4687E7B9F1000FD1D1EFF3F7
:10B9D0001188202383F31288BFF36F8F238B23F00A
:10B9E00008032383258BEA062ED525F01003238335
:10B9F00005F007056669218B002EBFF670AF0023A6
:10BA00002768C4E9003321F0070141F001012183D7
:10BA1000218B01F0070AAA454FF000097FF440AFDF
:10BA2000002F9CD041F00801218388F31188BFF3D7
:10BA30006F8F002FC8D03D683946334652462046A6
:10BA40001CF000FE2F46F4E7AB067FF51BAF25F098
:10BA50002003238305F0070500E700BF718604007B
:10BA60002DE9F047DFF85880044607464FF00109FA
:10BA700014B93846BDE8F08794FAA4F5B5FA85F50F
:10BA800009FA05F32E0108EB05156FEA030A24EA0B
:10BA900003042B7B002BEBD058F806301B694BB905
:10BAA0004644042273682846196807EA0A071CF00E
:10BAB00089FFDDE7284698470028D9D1F0E700BF85
:10BAC00014E6040030B51049104889B0002222F075
:10BAD0000DF90F4D0F494FF400320023CDE9062335
:10BAE00000240E23CDE90334CDE901440A4B009430
:10BAF0004FF4407228461AF083FD0849284621F089
:10BB00004CFF204609B030BD21BB0200A010002030
:10BB1000C00B0020803D00204DBE02004CF9040007
:10BB200001481AF08DBA00BF780900202DE9F047CE
:10BB3000804621480F461CF025FF0646002833D0DA
:10BB400000252846BDE8F087237B83B12368DB68A6
:10BB50000BB120469847636883F8069023681B69F9
:10BB6000D3B963680422196820461CF02BFF013604
:10BB700010345445E8D3B8F1000FE2D0002DDFD0E7
:10BB80002846FFF76DFF0546002FF7D000214FF440
:10BB9000A47021F0BAFFF1E7204698470028E0D0D2
:10BBA00009FA06F31D43E2E7044CDFF814A005464A
:10BBB0004FF00109DDE700BF581C002014E6040027
:10BBC00024E60400014B53F820007047FCE6040013
:10BBD00008B5034608462BB1044A136000F07AFC0E
:10BBE000002008BD6FF01500FBE700BFA002002099
:10BBF00010B5044C237813B903481AF021FA012335
:10BC0000237010BD323C00207809002010B5044696
:10BC10000B481CF0B7FE5CB1BFF35B8F094B53E8D8
:10BC2000001F013943E80012002AF8D1BFF35B8FEF
:10BC3000054822F067F80548BDE810401AF000BA40
:10BC4000501C0020541C0020A01000207809002067
:10BC50000020064BBFF35B8F014653E8000F43E81B
:10BC60000012002AF9D1BFF35B8F7047501C0020EF
:10BC700070B5FFF7EDFF084C084E0546B44200D3FF
:10BC800070BD63685B792BB123685B6813B129468B
:10BC9000204698471034F1E714E6040024E6040037
:10BCA00010B5044C044920461CF01EFB034B1C60DD
:10BCB00010BD00BF68080020E8E60400481C002012
:10BCC0000D4A0E48002310B513700D4A13600D4A3B
:10BCD0004FF400411360FFF77BFFFFF7E1FF0A4BD2
:10BCE0000A4918468B4200D310BD1A1A5C6812111B
:10BCF000013222711033F5E7333C002081890400C2
:10BD0000501C0020541C002014E6040024E604000B
:10BD100001460022014800231CF007BB68080020F0
:10BD200001481CF0A0BB00BF68080020024B014680
:10BD300018681CF0ECBB00BF481C002001481CF038
:10BD400021BC00BF6808002070B5294B1878002876
:10BD50004DD0FFF7E5FF0546002845D1254B264C81
:10BD60001B68002B19DD21F079FF4FF47A72A0FBDC
:10BD7000020302FB0131C30BD4E9002043EA414333
:10BD80009B1A4FEAD13140F2E93261EB0001934254
:10BD900071F1000101D3FFF76BFFD4E9003213F515
:10BDA0007A7342F10002C4E90032BDE87040FFF747
:10BDB000C5BF63685B7923B1236829461B682046A9
:10BDC00098471034B442F4D32846FFF7AFFFBFF3CF
:10BDD0005B8F0A4B53E8001F013943E80012002A29
:10BDE000F8D1BFF35B8FB9E7054C064EEAE770BDAB
:10BDF000323C0020501C002098100020541C0020D1
:10BE000014E6040024E6040070B50D4D297861B9EC
:10BE10000120FFF78BFE0B4C0B4EB44206D3FFF70D
:10BE200093FF0028FBD101232B7070BD63685B7901
:10BE30001BB1236820469B6898471034EDE700BF8C
:10BE4000333C002014E6040024E6040000212DE920
:10BE5000F0470846FFF76AFE044648B340F26768B9
:10BE60004FF000091AF090FE1A4B186030B11A4BCF
:10BE70001B68092B02DD19481AF0E2F8184FDFF8A9
:10BE80005CA0002544B12046FFF7EAFD044618B93E
:10BE90004FF0FF384FF0FF39FFF756FF064628B93D
:10BEA000B5B942464B4650461AF004F93546E9E723
:10BEB0004FF0FF384FF0FF39D4E72B689B691BB177
:10BEC00000221146284698471035BD42F5D3E8E7D1
:10BED000044DFAE74C1C0020541C00207809002077
:10BEE00024E6040014E6040013B518481CF04AFDCB
:10BEF000174B1B7873B1EFF31184202383F312885F
:10BF0000BFF36F8FFFF720FF84F31188BFF36F8FAC
:10BF100002B010BD0F4B1B68002BF9D050B90022A6
:10BF20000023CDE900230C484FF4004200231BF00E
:10BF30001BF9EDE70928EBD1074821F0E3FE07489C
:10BF400002B0BDE810401AF07BB800BF541C0020BE
:10BF5000333C00204C1C0020A01000207809002059
:10BF600010B5064B1B68044698472146A06004485C
:10BF70001CF05AFABDE81040FFF7B6BFA00200203F
:10BF800068080020044A054B9B1AB1EBD30F34BF5D
:10BF900052F8310000207047E4E4040014E6040085
:10BFA0002DE9F04F8FB004AFC1F34A28B8600D46B9
:10BFB00091467B600C0DB8F1000F63D0002607F1AD
:10BFC00014034FF0040B4FF00A0AC7F80C80C7E9BE
:10BFD00007667E620193CDF808B0CDF800A007F1A6
:10BFE0001C03F96832464846FFF7C6F9B0F5006F02
:10BFF00003461CD36C468AB0D9F8041004AB26481B
:10C00000C3E9050140F2FF71D9611A464FF400718E
:10C010001984224B42F8103F214833464FF4125105
:10C02000FFF7BEFFA5462C37BD46BDE8F08FC0F335
:10C030000A0804F11700184420F0070080083B604C
:10C04000FFF766FE68F35325044690B13B68154A36
:10C05000C7E9083600F1100107F11403F961CDE9D1
:10C0600000A3CDF808B0F96807F11C034846FFF7B4
:10C0700083F968F353257B68B9682A4620461CF08B
:10C08000C1FCD0E704F1170020F007008008FFF79B
:10C090003FFE0446EDE700BF61F904000400000123
:10C0A00094E50400D78904002DE9F04F87B0DDE95D
:10C0B0001279DDE9105A0446039193469846BFB1C0
:10C0C000CDF800903B46524610210020CDF8149048
:10C0D000FEF780FFB0F5006F06460AD3184A1948EC
:10C0E00040F2FF73022107B0BDE8F04F1CF0E3BC43
:10C0F0003E4605F11700304420F0070004F0070425
:10C100008008FFF705FE0BF0070BE40044EA8B14F0
:10C1100044EA462444EA0554054640B13FB1CDF80F
:10C1200000903B46524631461030FEF753FF0399CC
:10C1300043462246284607B0BDE8F04F1CF062BCDB
:10C14000A0F9040094E50400406820B1034BC01A34
:10C1500040F3CF0070474FF0FF307047E4E4040035
:10C160000EB403B503AB014653F8042B0448019306
:10C170001CF0D2FC02B05DF804EB03B0704700BFC6
:10C18000278B0400CA0605D48B064CBF024903491D
:10C19000FFF7E6BF704700BFD9F90400D8F90400E3
:10C1A0002DE9F04F8BB09A46169B06939DF854B03C
:10C1B000179B0593189B199E049304460D469046C1
:10C1C000BBF1000F00F09E8006F00103089306F01B
:10C1D0000803079306F4807309931CF0F1FB06F043
:10C1E0000209024600283BD08F492046FFF7B8FFDE
:10C1F0000746B9F1000F08D016F0440F32D18B4931
:10C200002A462046FFF7ACFF0744089B53B1884BF2
:10C21000884953F82B20884B2046002A08BF1A462D
:10C22000FFF79EFF099B002B48D0079B002B62D194
:10C23000B8F1000F64D0814942462046FFF790FFD5
:10C240000546069B3D44002B6BD1049B002B71D10E
:10C25000F30700F1E38031462046FFF793FFD7E074
:10C260000746C6E7764B18680028CDD0754B4FF4CB
:10C270007A791B68B5FBF3F54FF46163B5FBF0F118
:10C2800000FB115509FB05F54FF03C0CB1FBF3F237
:10C2900003FB1211B5FBF0FEB1FBFCF300FB1E55D6
:10C2A0000CFB131109FB05F50091B5FBF0F5664990
:10C2B000CDE901E52046FFF753FFA5E7079BEBB16A
:10C2C000624B634953F82B202046FFF749FF054690
:10C2D000B8F1000F05D0594942462046FFF740FF0C
:10C2E0000544BAF1000FACD05A4952462046FFF738
:10C2F00037FF0544A5E74FF0000AE1E7079DE7E7B0
:10C3000045469EE7BAF1010F069B06D1002B65D189
:10C31000049B002B7CD000250CE0002BF8D04E486D
:10C320005DE04E48069B4E4922461BF0F8FD049BFB
:10C33000002B69D0DFF83C81DFF83C91049F314647
:10C34000102F204628BF1027FFF71CFF4FF0000AD0
:10C35000554546DC059B49461A782046FFF700FF05
:10C360004FF0010A1AF0070F03D141462046FFF7AC
:10C37000F7FE57453CD9059B494613F80A2020464D
:10C38000FFF7EEFE0AF1010ABAF1100FEAD13549C2
:10C3900020464FF0000AFFF7E3FE5246059B9A5CE9
:10C3A000314B995C11F0970F08BF2E222F49204680
:10C3B000FFF7D6FE0AF1010ABAF1100F1DD01AF0EC
:10C3C000070F03D141462046FFF7CAFE57455246A4
:10C3D000E4D841462046FFF7C3FEEBE71F485D4621
:10C3E000A0E741462046FFF7BBFE0AF1010AAFE78E
:10C3F0001F492046FFF7B4FEC4E7059B3B44059365
:10C40000049BDB1B049399D1BBF1000F7FF420AF99
:10C4100020460BB0BDE8F04F1CF071BB064A054941
:10C420002046FFF79DFE16E7E0F90400E4F904005A
:10C430000CE704008A040500DBF9040009FA040093
:10C44000601C00205C1C0020EDF9040020E70400C3
:10C450000DFA040013FA04005D8B0400278B04001E
:10C46000198B040022FA0400B5F3040024FA040036
:10C470001EFA040020FA040018FA040073B542F210
:10C480000F738B4228BF0B4605680F4A04460521EF
:10C4900068461BF0BDFD63680C495B6806460B22CD
:10C4A00028461CF01EFB63683246694628465B68D6
:10C4B0001CF017FB636806495B681B2228461CF0CA
:10C4C00010FB02B070BD00BFC000050043FA0400BD
:10C4D00027FA0400074A00210123904206D8064AA1
:10C4E00001B901231360054B1860704740085B00D9
:10C4F0000121F2E740420F005C1C0020601C00207C
:10C50000F8B5074F0D4604464618B44201D12846F7
:10C51000F8BD14F8011BBB6801485B689847F4E755
:10C5200014E00400014B03600020704768E704003A
:10C5300007B51B491B481CF0ABFD70BB1A491948D5
:10C540001CF0A6FD48BB194916481CF0A1FD20BBF4
:10C55000174914481CF09CFDF8B90146154A1148CA
:10C560001DF0B3F8C8B9024613490E4801231DF067
:10C5700087F990B901230093014602230948EF226D
:10C580001CF0A6FC48B907481CF0CBFC28B90548AC
:10C5900003B05DF804EB1CF0F4BC03B05DF804FBE1
:10C5A00020030020340B002008030020F0020020AC
:10C5B000D8020020AC02002089FA040008B5034824
:10C5C000034A0021121A1CF045FB08BDC00B0020D5
:10C5D000283D00200748084A084908B5121A1CF0EF
:10C5E0003BFB0748074A0849BDE80840121A1CF0FF
:10C5F00033BB00BF00000020C00B0020C41D05009D
:10C600000000002000000020C41D05002DE9F84FA7
:10C61000804600AF0C46002965D0E9468AB0D1E9D2
:10C620000012A3686D4639482E464FF0050AC5E949
:10C630000501C5E9072346F810AF35483246002307
:10C640004FF42151FFF7ACFCCD46D4E903126369E6
:10C65000AD463048C5F810A0C5E90501C5E9072376
:10C660002B48002332464FF42151FFF799FCCD4669
:10C67000E369294A2648DFF8B0B001211CF01BFA13
:10C68000264600254FF00A0AE9468EB0D6E908E0B2
:10C69000D6E90A136A46C2F81CE005F1010EC2E9A8
:10C6A00008E0A81CC2E90A01E91CC2E905B5C2E913
:10C6B0000C1342F810AF1648002345F24001043530
:10C6C000FFF76EFC102DCD4606F11006DCD1236E6F
:10C6D000124A0F4801211CF0EEF9A369104A0C48D8
:10C6E00001211CF0E8F9B8F1010F07D1EFF3058340
:10C6F0000C4A0748103B41461CF0DDF921464046F4
:10C7000019F0E6F8BD46BDE8F88F00BFD9FA04007D
:10C71000D4E5040008FB040037FB040089FB040097
:10C7200098FB0400C6FB040046FB040030BFFFF783
:10C73000FDBF00BF054B9A699B689A421FBF044A20
:10C74000536843F080535360704700BFDC3B0020C8
:10C7500000ED00E070B5294C06460D4628482949F1
:10C760001CF087FAA36AD9043CD5254826491CF059
:10C7700080FA1720A36A1A0504D5214823491CF022
:10C7800078FA18201D4CA36A9B0512D51C48204935
:10C790001CF06FFAA36BA26A100409D51D4A184851
:10C7A00001211CF088F91EB1A36A23F40043A3629F
:10C7B0001920124CA36A590504D5114816491CF0DA
:10C7C00058FA1A20A36ADA050ED50D4813491CF051
:10C7D00050FA1B20094A936A43F47F439362002373
:10C7E0002B7070BD1620C5E7A36A9B04F2D50448E0
:10C7F0000B491CF03EFA1C20ECE700BF00ED00E006
:10C80000D4E50400D9FB0400EFFB040000FC0400A5
:10C8100013FC04002CFC040041FC04005CFC04003C
:10C8200074FC040010B5204C204921481CF021FA6A
:10C83000A36A990136D51E481E491CF01AFA1E201B
:10C84000A36ADA0104D51A481B491CF012FA1F200A
:10C85000154CA36A1B0304D5154818491CF009FAA6
:10C860002120A36A590304D5114815491CF001FA87
:10C8700022200D4CA36A9A0304D50D4811491CF0DF
:10C88000F8F92320A36ADB0304D509480E491CF0FC
:10C89000F0F92420044A936A6FEA03436FEA1343D2
:10C8A000936210BD1D20CBE700ED00E0A3FC040067
:10C8B000D4E50400BBFC0400CEFC0400E8FC04004A
:10C8C00006FD04002BFD040045FD04002DE9F8439E
:10C8D000364D804689463648364917461CF0C9F918
:10C8E000AB6ADE0627D5344931481CF0C2F9112461
:10C8F000AB6A1D0704D531492D481CF0BAF9122442
:10C900002A4DAB6A980718D52D4929481CF0B1F972
:10C910006E6BAB6A190646D52A4A25483346012173
:10C920001CF0C9F8B9F1000F03D0AB6A23F0800303
:10C93000AB62132403E01024DAE76FF015061B4DF9
:10C94000AB6ADA0704D5204919481CF092F914247F
:10C95000AB6A9B0604D51D4915481CF08AF91524BD
:10C96000124B9A6AD50602D49A6A90070AD55B6878
:10C97000190507D54146304600F078FA10B180F32A
:10C9800009880224094B9A6A920642BF5A6A22F425
:10C9900000525A629A6A42F0FF029A6200233B7088
:10C9A0002046BDE8F8836FF01506C2E700ED00E011
:10C9B000D4E5040070FD040086FD040000FC0400C2
:10C9C000B9FD0400D1FD0400E7FD040074FC04007F
:10C9D0002DE9F041634B9CB0D3F8048000AF0546CD
:10C9E000C8F30804002686F31188BFF36F8F02F0A6
:10C9F0007F43B3F17F4F07D102F00C03082B12D114
:10CA000059495A481CF035F9002635460023FB7178
:10CA1000E31E092B00F28480DFE803F00A7A7D76BA
:10CA200082828282828010074CBF0D460126EDE78C
:10CA30004F494E484B4C1CF01CF90023FB71E36A34
:10CA40009A0705D54B4949481CF013F9002432E0F8
:10CA5000E36A002B01DA4849F5E7E36A5B00F5D5A4
:10CA6000464942481CF005F96369AA6943F480739A
:10CA70006361BFF34F8FBFF36F8F636932F8022C8E
:10CA800023F480736361BFF34F8FBFF36F8F4DF655
:10CA900002739A4208D0A36ADBB243B3FA1D0121A4
:10CAA0002846FFF713FF31E02B68354A2F48012154
:10CAB0001CF001F82C68FB79ABB96822294607F114
:10CAC0000800FAF7FBFC7B6A002E45D0C3F308028E
:10CAD00022B96FEA53236FEA43237B6207F108010F
