:020000022000DC
:1070000000510020C994020061040400B5940200FC
:10701000B5940200B5940200B5940200000000008F
:107020000000000000000000000000009195020038
:10703000B5940200000000002D950200B5940200F6
:107040006197020075840300619702006197020056
:107050006197020061970200619702006197020048
:107060006197020061970200619702006197020038
:107070006197020061970200619702006197020028
:107080006197020061970200619702006197020018
:107090006197020061970200619702006197020008
:1070A00061970200619702006197020061970200F8
:1070B00061970200619702006197020061970200E8
:1070C00061970200619702006197020061970200D8
:1070D00061970200619702006197020061970200C8
:1070E00061970200619702006197020061970200B8
:1070F00061970200619702006197020061970200A8
:1071000053B94AB9002908BF00281CBF4FF0FF310E
:107110004FF0FF3000F00CB8ADF1080C6DE904CE73
:1071200000F022F8DDF804E0DDE9022304B0704746
:10713000704700BF10F8012B11F8013B012A28BF4E
:107140009A42F7D0D01A7047034611F8012B03F882
:10715000012B002AF9D17047034613F8012B002AAE
:10716000FBD1181A013870472DE9F04786468C4646
:107170000846089E154674461946002B40F0C2800A
:107180008542B2FA82F245D94AB1C2F1200300FA2F
:1071900002FC2EFA03F3954043EA0C0C94404FEAAC
:1071A000154EA8B2BCFBFEF8230C0EFB18CC08FB56
:1071B00000F943EA0C43994528D9EB1808F1FF3749
:1071C00004D2994502D9A8F102072B44A3EB090385
:1071D000A4B2B3FBFEFC0EFB1C330CFB00F044EA34
:1071E0000344A04214D92C190CF1FF3304D2A0425D
:1071F00002D9ACF102032C44241A43EA07401EB121
:10720000D440002334607360BDE8F0874746DDE773
:107210006346F1E792BB431B01214FEA154EAFB223
:10722000B3FBFEFC200C0EFB1C330CFB07F840EA02
:107230000343984562D9EB180CF1FF3004D298450E
:1072400002D9ACF102002B44A3EB0803A4B2B3FBB8
:10725000FEFC0EFB1C330CFB07F744EA0344A74279
:107260004ED92C190CF1FF3304D2A74202D9ACF14C
:1072700002032C44E41B43EA0040C0E7C2F12003B0
:1072800020FA03F1954090402EFA03F303434FEAAE
:10729000154EAFB2B1FBFEFC0EFB1C10190C0CFB23
:1072A00007F841EA0041884504FA02F422D9691836
:1072B0000CF1FF3004D2884502D9ACF10200294418
:1072C000A1EB08019BB2B1FBFEFC0EFB1C110CFBF9
:1072D00007F743EA01439F420ED9EB180CF1FF3147
:1072E00004D29F4202D9ACF102012B44DB1B41EADC
:1072F000004192E76046E3E76146F7E76046A3E7AF
:107300006346B7E7834206D916B9002108467BE7F2
:10731000C6E900E0F9E7B3FA83F78FB9834201D3F6
:10732000724508D8BEEB020460EB030301209C46C3
:107330001EB9002168E73846FAE7C6E9004CF8E7CD
:10734000C7F1200CBB4022FA0CF41C432EFA0CF1BE
:1073500020FA0CF3B84001434FEA14490EFA07F53E
:10736000B3FBF9F81FFA84FE09FB18300B0C08FB7D
:107370000EFA43EA00439A4502FA07F240D9E318AD
:1073800008F1FF3004D29A4502D9A8F10200234443
:10739000A3EB0A0389B2B3FBF9F809FB183308FB26
:1073A0000EFE41EA03418E452CD9611808F1FF33E6
:1073B00004D28E4502D9A8F10203214443EA0040D9
:1073C000A0FB0298A1EB0E014145CE46434602D3F5
:1073D00006D14D4504D2B9EB020E68EB0403013827
:1073E000002EA6D0B5EB0E0261EB030101FA0CFCF6
:1073F00022FA07F34CEA0303F940C6E9003198E7A3
:107400004046C5E74346D9E72DE9F843D0E90738B8
:10741000856903EB08042F34A5420F46164619D898
:10742000DFF86C80A3FB080117A3D3E90023FFF763
:1074300067FE0346601BA0FB080123F07F4412A3F4
:10744000D3E90023FFF75CFE20F07F403C60306012
:10745000BDE8F883DFF838900BA3D3E90023A5FB40
:107460000901FFF74DFE20F07F440A480A2106A3D8
:10747000D3E90023E8FB0901FFF742FE20F07F403B
:107480003C603060BDE8F8838D49FD1A07000000BC
:1074900000CA9A3B00166BF1002800F037812DE9F5
:1074A000F04FC74C94F85E30DA078DB000F1688178
:1074B000627F94F8293004EB820204EB8303166A9E
:1074C000DF6A0EB3354615F8020BC0F3801009F0E1
:1074D0005FF90368C6F802308388AB8033785B06B7
:1074E00006D50621284607F095FD002800F04A81C0
:1074F0003D4615F8020BC0F3801009F049F9036806
:10750000C7F802308388AB80337813F00E0F40F059
:10751000958063691BB10C200DB0BDE8F08F09F0B8
:10752000DBFD8146002800F03B8109F0E1FD824649
:10753000002800F032810CF0C7F90546002800F061
:107540003181D0F888004FF6FF73AB8405F1100B42
:10755000002800F01D8105F17C0205F1780107F09B
:1075600065FDB5F8763023F4EF6323F0070343F4A9
:107570008C7343F00103A5F8763095F8373003F0AB
:107580003F0363F07F0385F8373095F88E3023F0A2
:10759000070385F88E3095F83C3023F00F034FF049
:1075A000000885F83C304FF4C023C5F88E312846DA
:1075B000C5E91288C5F88880A5F88C8085F83980DF
:1075C000A5F82A80C5F82E80C5F85080A5F86081FE
:1075D000A5F89481A5F88A810EF028F985F86481D0
:1075E000C5F868910CF03CFC95F89C3160F30203FF
:1075F00085F89C310CF03AFC95F89C3160F3C5039A
:1076000085F89C3195F8623168F3410385F8623161
:10761000012128460CF0DCFF05F1E0000DF026FF0B
:10762000C4E9159AC4F814B0C5E9028885F8008049
:107630002D6111F0CDFB002840F0A680237E0121B2
:10764000C3F342030DF12B008DF82B3007F08AFEB7
:10765000024600285CD0394630460BF08DFC594973
:10766000594BB4F85C70A0FB0101C0184FF0000545
:1076700051A3D3E9002341F10701C4E90255257064
:10768000FFF73EFD606009F041F800F109083FB9DD
:10769000357805F00F05A5F10105B5FA85F56D09F9
:1076A000207E636865F3000010F00105207636D077
:1076B000464A0992002010600225454A454F04932E
:1076C0000BAE019305920321CDE9020006944346D7
:1076D0000090089607972A460B9508F019FF314647
:1076E00009F07CFDA0B93C4905914AF2D8330093DA
:1076F000CDE90300CDE901000797089606944346BB
:10770000012203210B9508F0E7FE2EE00BF0D0BB21
:107710006369002B3FF4FFAE0BF0A0FBFBE62B4AA6
:107720002E48049303F247130694029591211360A7
:10773000A7FB000301FB0731264B0793244B05935E
:107740004FF6FF730992022703930BAE1AA3D3E9F6
:1077500000230B970896FFF7D3FC4346CDE9005072
:107760003A462846032108F0D3FE314609F036FD9B
:107770000028CDD194F85E3043F0010384F85E30E8
:107780000020C9E61220C7E60BF068FB0320C3E621
:1077900005F18000C5F88800DDE6484609F0A2FC46
:1077A0000720B9E6504609F0A9FC484609F09AFCC2
:1077B000F6E700BFAFF300808D49FD1A0700000017
:1077C000B020002000CA9A3B8C49FD1AA42000205A
:1077D000ED2F030029080300E12C0300002AE784B1
:1077E00070B5037E8AB0C3F342030D4604460121FF
:1077F0000DF1230016468DF8233007F0B3FD314616
:10780000024628460BF0B8FB1F49204AA0FB013175
:10781000981841F107011AA3D3E90023FFF770FC80
:1078200063689842054621D21B1A00220192184A29
:107830000293184BA21AA3FB0232022192090023E1
:107840000A4409AE099114490591CDE90333032196
:10785000D2B206960093184608F0BAFE314609F0F7
:10786000BDFC38B9656000200AB070BDFBD9C21AF2
:107870000023DBE70C200AB070BD00BFAFF300802F
:107880008D49FD1A0700000000CA9A3B8C49FD1A79
:10789000B0200020ABAAAAAA29080300000000001B
:1078A00038B5194C9DF810E094F828C01CF001057B
:1078B00021D163F3420C4001237DA1834FEACE0E18
:1078C0000EF0180E00F0200040EA0E0023F03803FE
:1078D00003430E4823759121A2FB000384F828C0BE
:1078E00001FB023106A3D3E90023FFF709FCC4E939
:1078F0000800284638BD0C25284638BDAFF3008067
:107900008D49FD1A07000000380E0020002AE78488
:107910002DE9F043044600F1150190F82800237D7D
:107920003F4DC0F3400060F386138DB0237508F01F
:107930003FFF227DA38B3B48246102F079020027A0
:1079400022759121A3FB0002C4E90277277001FB95
:10795000032131A3D3E90023FFF7D2FB324A636A44
:107960002362651BA2FB05250933C5F34715984221
:1079700005EB450898BF27624FEA88082B4F8EBF5A
:10798000636003466060064647F8083008F0BEFEB4
:1079900047440DF12C090997CDF820900694A38B4C
:1079A00000F109081F480027A3FB0002039791215B
:1079B00001FB0321636804931D4B07931D4B059343
:1079C00002230B9314A3D3E90023FFF799FB10467E
:1079D00019464FF47A720023FFF792FB0435EDB29B
:1079E000CDE90160032143462A460097384608F056
:1079F0008FFD494609F0F2FB40B994F8283043F076
:107A0000010384F828300DB0BDE8F0830C200DB0E0
:107A1000BDE8F083AFF300808D49FD1A0700000038
:107A2000380E0020002AE784A38B2EBA28210020DC
:107A300029080300D53403002DE9F04F05468BB02B
:107A40008B46012002219946144613F0E3F80022E8
:107A500002218246012007F039FB2F494FF4D472EE
:107A6000284607F0C3FA461D2C4B0093F6B2019549
:107A70004B4632460121002008F004FE10F0FD0FB5
:107A800042D1274BA4FB0348204621A3D3E900237E
:107A90004146FFF735FB089506956B680493214B2B
:107AA00020F07F47A7FB0331E01A1F4B07934FF0ED
:107AB00007021E4B059302FB07114FF6FE7368EB9E
:107AC000010103934FF47A720023FFF719FBCDF8FD
:107AD00000B0CDE901704B4632460121002008F08C
:107AE000FBFC10F0FD0F0DD1BAF1000F02D10BB06D
:107AF000BDE8F08F0122022110460BB0BDE8F04F27
:107B000007F0E4BA00DEEFE700DEBAE7AFF300808B
:107B10008D49FD1A07000000680E00208937030018
:107B200000CA9A3B8D49FD1A713703009981030001
:107B30002DE9F0418468A28C4FF6FF739A428CB015
:107B400000F08E80054620460EF0ECF82B7D012BD0
:107B500000F00D81022B00F00081002B00F0DF808F
:107B600094F86471002F40F0FB802B8AE68D94F925
:107B70003720CDE90A77002B75D0002AC0F2418169
:107B80000023A4F89031AB7CA28D03F00303551CB5
:107B9000012BADB200F0BF80B4F89431002B00F09F
:107BA000EC80AB4240F246815B1B9BB2062BA4F8F3
:107BB00094314FF000028CBF00230123E2851F4661
:107BC00094F83C2063F3820284F83C2029460DF1AE
:107BD000270220460DF066FE743000F02581B4F8CF
:107BE0008E312BB1AB4240F2FD805B1BA4F88E318D
:107BF000B4F88A312BB1AB4240F2EB805B1BA4F8A6
:107C00008A31E58D17B9AE4200F0DA800135ADB2A8
:107C100094F8D13013F0010640D1DDE90A130A4689
:107C2000002B40F0DD80002900F0CC801E46184675
:107C3000A28C24690694CDE9035705329C4D02902D
:107C4000CDE90016D2B201210020059508F0C0FC54
:107C500010F0FD0F04D009F0EBFA844240F0FB80F5
:107C60000CB0BDE8F081002AB8BF84F8D570AB7CB9
:107C7000A28D03F00303551C012BADB24BD0B4F819
:107C80009031002B88D0AB4240F2D9805B1BA4F826
:107C90009031B4F89431002B83D191E794F93720D7
:107CA0006FF30003002A84F8D130C0F2818094F889
:107CB0007600C0F3C00100F0070010F00DFFB4F82B
:107CC0006E20B4F86C301344E28B03F23F1313447C
:107CD0000344784A78480721E3FB0021104672A349
:107CE000D3E90023FFF70CFADDE90A1320F07F4205
:107CF00060686260904235BF161A801A0020002624
:107D00000A46002B94D156EA010C91D1002859D093
:107D100019461E468CE70023A4F8943150E794F8E6
:107D20008E3003F01803182B7FF41AAF218DB4F8AE
:107D30008C218B1D9A42C4BF931F5B1AB4F8881123
:107D4000CCBF9BB21346994200F09480A4F88831CE
:107D5000A4F88A31A4F88E2102E73D2784F86471E3
:107D6000394620460CB0BDE8F0410CF039B900238B
:107D7000A4F88E31A4F88A31F2E6E28C052A97BF86
:107D8000013240F2E2434FF4FA7392B203FB02F283
:107D9000B4F8923142F2107101FB0323013BB3FBB3
:107DA000F2F39BB2A4F89431002B7FF4FAAE07E70C
:107DB00094F87700012100F0070010F08FFE7EE7B5
:107DC0003D4625E7002D3FD000261146304633467C
:107DD0002EE70023A4F88A3120460DF0F5FD10E7C8
:107DE000304625E709F0CAF9014680B30023A4F81C
:107DF0008E31A38CC3801B230371006809F090F9B6
:107E0000F6E694F8D53043B3013B84F8D53004F15D
:107E1000E00840460DF06CFB90B340460DF068FB67
:107E200090B30023E385ABE69DF8271020460CF0C5
:107E3000D7F815E7082120460CF0D2F810E73E21CC
:107E400020460CF0CDF80BE7002FBDD108E7012349
:107E5000A4F88E31CCE600DE02E70AAA0BA9284678
:107E6000FFF7D2FADDE90A231343D0D0237884F850
:107E7000D530CCE7B4F88E1100297FF471AE67E7F6
:107E8000FF200CF06FF8C8E70246D4E91E0107F0A6
:107E9000E5F80028C5D194F83C301B0744BF238D7A
:107EA000E3856DE6AFF300808D49FD1A0700000001
:107EB000C93703008C49FD1A00CA9A3B0000000034
:107EC0002DE9F04F87B0B0F86071BDF84C9000918B
:107ED000CDE90423B0F82431BDF840A01F44BFB25F
:107EE0000446A7EB090390F87600D4F81C819EB2F3
:107EF000BDF844300193C0F3C001BDF8483003968B
:107F000000F00700029310F0E7FDE58C052D40F22C
:107F1000A48015FB06F5ADB240F2E24BBAF1050FB5
:107F200040F28F80B4F86E20B4F86C30134403F242
:107F3000D5130344764A77480721E3FB00214FF02D
:107F40009613E3619623104623846FA3D3E900239D
:107F5000FFF7D6F8564620F07F4040F2E2430BFB95
:107F600005F203FB06F6531E3344B3FBF6F31FFA88
:107F700083FB606006FB0BF082425D4653D265498D
:107F8000801AA0FB010160A3D3E90023FFF7B8F832
:107F900020F07F408044B4F82421B4F86031A9EB8C
:107FA00007094D44ADB213442B44A4F86031638DEE
:107FB00013441D4494F837306585DB0955D100DE44
:107FC00000273546019B2385029BA4F89231314658
:107FD0002046A4F826A00DF091FC4F4B218D334490
:107FE000881DB3FBF6F39AB29042A4F88C2104D218
:107FF000C1F57F41FA310A4492B2009BA4F888216E
:1080000013B10023A4F8943143462A46394620464A
:10801000FFF712FD94F8623143F0010384F86231F6
:1080200007B0BDE8F08F121A3A48A2FB000136A350
:10803000D3E90023FFF764F820F07F40A8EB0008A5
:10804000A9E74FF096130AF10106E3619623238412
:10805000B6B20A204FF4FA7381E7039B013515FB92
:1080600003F5ADB24FF4FA7B58E7216CA36C294FAE
:1080700001FB0233039A01FB1233A3640023C4F80B
:10808000DC3010F0F9FE054694F8D400C0F342004D
:1080900010F0F4FE054406FB05F5204B1C4805F5E1
:1080A000742505F23F25A3FB0535AD0CA36C2564B3
:1080B0000BFB05FB72085B44963A934228BF1346BC
:1080C000C4E91123049B40F2E24909FB03F30721B1
:1080D0002365EBFB07010CA3D3E90023FFF710F89E
:1080E0000F4B059AA8EB0008A3FB0230800A09FB9E
:1080F00000F0A0FB070104A3D3E90023FFF700F879
:10810000751B20F07F475DE78D49FD1A07000000D1
:108110008C49FD1A00CA9A3B7FC3C90183DE1B4309
:108120005917B7D1000000002DE9F04F0D4609683E
:10813000B0F82EC0D1F800900146144651F82EAB8D
:1081400052F8086B8F788346D0F81E00BBF82210D7
:108150009BF81C80A4F808C09770DBF82A206260A6
:1081600091B0DBF83A20C4F82220ADF83C109BF81F
:108170003E100E9084F8261010AB13E9030004F1B2
:1081800022020C90ADF834101046052107F0EAF8F1
:1081900094F8272000F03F0060F3050284F82720C0
:1081A0009BF83F20C2F3040184F82810BBF8341078
:1081B000E1820128C8F380180DD902F01F021B329A
:1081C00002F01F020B2A06D889B2063989B240F69E
:1081D0007A42914219D90021C9F8081094F82C204C
:1081E00061F3000284F82C200125DBF80C408BF8A9
:1081F00004505046594608F087FF206825712146F3
:1082000011B0BDE8F04F08F08BBF2A680021516023
:10821000BBF836202283E78ABBF832300A9340F25B
:10822000E242304602FB07F70DF07CFB9BF83F1063
:1082300096F8D400490961F3430086F8D40010F0A1
:108240001BFE0B9096F8D400C0F3420010F016FE0F
:108250000B99084407FB00F0994900F5742000F2DF
:108260003F20A1FB00107908800C963920636163E0
:108270009BF8311040F2E24201FB02F26264BBF86B
:108280003820A6F89221394630460DF037FB8D4A4A
:108290008D49C6F898113A44B2FBF7F290B2A6F8AD
:1082A0008C01218B01F1060C604504DDC1F57F4195
:1082B000FA31014488B25946A6F8880111F81C2FFA
:1082C000C907C2F3401200F1EC80BDF83410ABF8DE
:1082D00023100C988BF81E804FF48071CBF81F0090
:1082E000ABF81C10E18AABF82610218BABF82810F4
:1082F000B6F89211ABF82A1096F8D4100B92C1F38D
:1083000042018BF82C1030460BF0EAFAA082ABF851
:108310000600D5F804805046594608F0F5FEA38AB9
:108320000B9AA8F806301C23D8F800A088F804306F
:10833000002A40F0A28088F81C204146504608F0F0
:10834000EFFE94F86700B4F85CA0B4F85E800121F9
:1083500000F0070010F0C2FBD04408F2D51800EB83
:1083600008038246DFF8648159480721E3FB0801CE
:108370004FF09613C4E903334FA3D3E90023FEF76C
:10838000BFFE20F07F407060EB680A98226B40F2DD
:10839000E24101FB003404F2B3440221A41A01209B
:1083A000BF1A002206F092FE48460AF095FFA4EBA1
:1083B0000A040246A4FB080114463FA3D3E90023A4
:1083C000FEF79EFECDF80490AB684249009120F084
:1083D0007F4AA21C363BD2B253440121002008F050
:1083E00051F901285FD099F81830DB0751D4304695
:1083F0000BF076FA354BA7FB039804462EA3D3E97E
:10840000002348464146FEF77BFE334BAD68334AB6
:10841000079220F07F47A7FB0331B9EB0300304BF5
:1084200005934FF4F8730696089373684FF0000BAA
:10843000CDE903B34FF0070303FB071168EB01011C
:108440004FF47A720023FEF75BFE0534363DE4B24A
:10845000CDE90170CDF800A02B46224601215846F7
:1084600008F03AF810F0FD0F23D101220221104646
:1084700011B0BDE8F04F06F029BE94F8273043F064
:10848000400384F82730201D0FF07EFF0122208555
:1084900051E70023012200931846114608F0B0F876
:1084A000A5E700DE11E708F0C3FE81459BD000DEA2
:1084B00099E700DED9E700BF8D49FD1A07000000EB
:1084C00083DE1B437FC3C901404B4C0000CA9A3B6B
:1084D0008C49FD1A218203008D49FD1A7181030028
:1084E0009981030000000000F0B5C468636883B0A0
:1084F0000546002B40D111F06BFF002011F08CFFDE
:108500000021084611F07AFF00222521082011F0F1
:10851000B7FF374B019301A811F09EFF354940F298
:108520005B6012F055F8237AC3F3420262F306133C
:108530002372204610F026FE27682E68384610F079
:1085400083FA06446A6806F10901012012F07AF9FB
:1085500012F068FA20460AF0CBFE811C3246C9B2FE
:10856000384610F073FA054698B9204610F03AFAEA
:1085700068B9002003B0F0BD93F82C309B07BAD047
:108580001D48214611F0F8FE11F0CCFFF1E700DEA6
:10859000EFE71A4A1A491B4840F2114317F079FDD8
:1085A000194B0721A5FB030301FB05310EA3D3E9FA
:1085B0000023FEF7A5FD15490246154817F069FD91
:1085C000002585F31188BFF36F8F0323184602DF60
:1085D0001048214611F0D0FE11F0A4FF6FF08B007F
:1085E000C8E700BFAFF3008000CA9A3B000000005C
:1085F000D6BE898E555555008D8B0300306604001C
:108600007C660400F46404008D49FD1AAC66040025
:1086100080660400898E03002DE9F041C468237947
:108620006FF300038CB023710F46054611F0D0FEA6
:10863000002011F0F1FE0021084611F0DFFE0820B5
:108640000022252111F01CFF012008F091FE0028D6
:1086500064D01C3011F03EFF494B0B930BA811F076
:10866000FBFE484940F25B6011F0B2FF2079C0F395
:108670004100253010F0FCF94348214611F07CFE02
:1086800023799B062DD5962012F0D0F800231A46A8
:108690001946184612F002F8D4F800802E684046B9
:1086A00010F0D2F906446A6806F10901002012F0C0
:1086B000C9F812F0B7F912F061F820460AF0CCFFC1
:1086C000011DC9B24046324610F0C0F9054648BB0C
:1086D00057B1204610F086F910BB00200CB0BDE861
:1086E000F08112F03BF8D7E72369002BF1D0274D3A
:1086F0000795274D059540F2F3150093CDE90377D3
:10870000CDE901770694334603223946089507F0F0
:10871000E3FE10F0FD0FDCD000DEDAE700DE98E7C4
:1087200000DEDAE71B4A1C491C4840F2E51317F04B
:10873000B0FC1B4B0721A5FB030301FB05310EA376
:10874000D3E90023FEF7DCFC16490246164817F071
:10875000A0FC002585F31188BFF36F8F0323184613
:1087600002DF1248214611F007FE11F0DBFE6FF028
:108770008B00B3E7AFF3008000CA9A3B0000000013
:10878000D6BE898E555555005D970300F1940300C0
:1087900001950300B86604007C660400F4640400DC
:1087A0008D49FD1A04670400806604007D9503006E
:1087B0002DE9F043C468A28A4FF6FF739A4283B052
:1087C00000F0FF80064611F06BF93389628B208C34
:1087D000A3831A4492B2104494F82730E28380B203
:1087E000411C21845D064FF00001618304F12201E8
:1087F00000F1A78003F03F000B4694F8281000908A
:1088000004F129000FF078FD0546D4E90C31A26B84
:10881000A08BA36303FB0022E36B8A4294BF9B18E7
:108820005B188B4228BF0B46626C216CE3630A44E1
:1088300094F867306264002294F82C10226494F853
:108840007E20C3F3020363F3061112F0040284F8DE
:108850002C1000F0878011F0BBFD002011F0DCFD32
:10886000201D11F0F9FD2389A17A40F25B6043EAF3
:10887000014111F0ADFE284610F0FAF821465848A3
:1088800011F07AFDA08911F0D1FF94F8662094F8D8
:108890006700C2F3C003002102F0070200F00700E6
:1088A00011F0FCFE204611F095F9D4F800803768ED
:1088B000404610F0C9F80744726807F1090100202A
:1088C00011F0C0FF814612F081F8002012F098F8F4
:1088D000E36B94F8670003F12F02636C00F007006C
:1088E000012103EB420511F009FE4D44054494F8C3
:1088F000670000F00700022832D004280CBF4FF4B4
:10890000BC73282301211D4411F0FAFD284412F004
:108910004FF8A18A05313A46C9B2404610F096F8A0
:108920000546B0B1B37A13F0020629D000252D48D0
:10893000214611F021FD11F0F5FD284603B0BDE8F8
:10894000F0830A4603F03F03218D0FF021FD054619
:108950005BE7204610F046F8002839D10025ECE707
:108960001823CFE7D4E91A0106F078FB00287FF43A
:1089700072AF94F87E3043F0040384F87E306AE7E7
:10898000194A1A491A4840F2591317F082FB19483C
:108990000721A5FB000301FB05310FA3D3E9002349
:1089A000FEF7AEFB14490246144817F072FB86F33B
:1089B0001188BFF36F8F0323184602DF6FF08B051A
:1089C000B5E70F48214611F0D7FC11F0ABFDC5E724
:1089D00000DEC3E7AFF3008000CA9A3B000000004E
:1089E000FD9D03006D8B0300186704007C66040086
:1089F000F46404008D49FD1A6C670400806604006D
:108A00008D8B030007B5134600910348034917F007
:108A100033FB03B05DF804FB626904008E6B040055
:108A2000044A054B0549002818BF1A46044817F0A8
:108A300023BB00BF8969040081690400806B0400C6
:108A40009269040010B5054817F016FBBDE8104008
:108A500003484FF48042002316F056B89D69040085
:108A60000000002030B50D4D0FCD89B003AC0FC410
:108A70002B68236001230A4900930222094B03A8B3
:108A800003F0BAFA014620B1074817F0F5FA09B029
:108A900030BD064817F0F0FAF9E700BFE05F0400C8
:108AA0003060040028600400B7690400DA6904003B
:108AB00010B5044621B10948BDE8104017F0DCBAF2
:108AC000074817F0D9FA0749204606F0A7F810F032
:108AD000FF0101D00448EFE710BD00BFF1690400B9
:108AE000086A040088020020136A040008B539B936
:108AF0001AF07BFE01460348BDE8084017F0BCBAF7
:108B00000148F9E7356A0400516A040030B503787A
:108B100093B0044607AD032B20D8DFE803F0021919
:108B20001B1D11492846FEF70FFB0595637804933A
:108B3000A3780393E37802932379019363790093F5
:108B4000A3790A4A1E210AA816F034FE13B030BDDC
:108B50000749E7E70749E5E70749E3E7074A0A2145
:108B6000284616F027FEE0E76A6A0400936A0400CC
:108B7000716A0400786A0400826A04008C6A040046
:108B800010B402460848016984680B6882F44022E8
:108B900043F080430B6082F00102236810BC22F492
:108BA00080121E21184700BF005C040030B5254824
:108BB00089B017F061FA0022234910461BF074F8BF
:108BC000044630B10146214817F056FA204609B054
:108BD00030BD02F097FD044610B101461C48F3E792
:108BE0001C4D0FCD03AC0FC42B68236001230093F1
:108BF00019491A4B022203A803F0FEF9044610B1EA
:108C000001461748E0E71749174803F0ABFD044653
:108C100010B101461548D7E7154817F02DFA4FF463
:108C2000D010FFF7ADFF4FF4804000211CF004FD91
:108C30004FF4B010FFF7A4FF002141F69A101CF08A
:108C4000FBFCF9E7B66A04008C020020E36A04002A
:108C5000086B0400E05F040030600400286004003A
:108C6000286B04000D8B020020070020496B0400D4
:108C7000676B0400014B1B68184700BF9C02002073
:108C8000014B1860704700BF9C02002030B585B0D2
:108C900004460D461022002168461CF0B8FE02234F
:108CA0008DF802302A46044B01932146684616F09F
:108CB000ABFD05B030BD00BF758C020080B5054628
:108CC0000E461746984616F06DFA03461CF022FF32
:108CD000DFF81890044649F80030424630463946DD
:108CE000A84754F8090000F00BFC00BF0800000082
:108CF0002DE9F047058B04462807904611D4022938
:108D000005F0070540F0CC80204617F0EAF978B16D
:108D10000138218B042811D8DFE800F0C2106D85DE
:108D2000950001290CBF45F0100545F0200525836D
:108D300088F31188BFF36F8FBDE8F08701F0070A51
:108D4000AA4500F0A5800027B9463E46A368002B3F
:108D500000F0BC8041F00801218388F31188BFF343
:108D60006F8FA168002900F0BA800D68002900F01B
:108D7000B680D1F80480334652462046C047002DC5
:108D800076D02B6829461D46F0E701F007035A1FED
:108D9000012A1BD8002221F00701062B276889B27F
:108DA000C4E9002209D13B4603E0628B01326283B1
:108DB0001B68002BF9D141F002012183204617F0F6
:108DC00090F900287AD041F0200176E0042B0AD1F6
:108DD00021F0070189B22183204617F082F910B1F2
:108DE00041F020012183218B01F0070AAA454FD0D1
:108DF0000027B946AAE7236921F0070141F00601DF
:108E0000062DD3F8009021832DD1B9F1000F3FD06A
:108E100041F00801218388F31188BFF36F8F3A492D
:108E20002046C84729E021F00701236941F00401E9
:108E300089B2042DD3F804902183E6D000273E4662
:108E40004FF0040A82E721F00701236941F0050190
:108E500089B2052DD3F808902183D6D000273E464D
:108E60004FF0050A72E700273E464FF0060A6DE70D
:108E70002B4687E7B9F1000FD1D1EFF311882023FA
:108E800083F31288BFF36F8F238B23F008032383B0
:108E9000258BEA062ED525F01003238305F0070560
:108EA0006669218B002EBFF670AF00232768C4E9E6
:108EB000003321F0070141F001012183218B01F0F2
:108EC000070AAA454FF000097FF440AF002F9CD05D
:108ED00041F00801218388F31188BFF36F8F002FC1
:108EE000C8D03D68394633465246204617F025F92A
:108EF0002F46F4E7AB067FF51BAF25F02003238355
:108F000005F0070500E700BF67010400014B03609F
:108F1000002070474060040007B51B491B4817F04C
:108F2000B0FC70BB1A49194817F0ABFC48BB194993
:108F3000164817F0A6FC20BB1749144817F0A1FCEF
:108F4000F8B90146154A114817F064FFC8B902463E
:108F500013490E48012318F038F890B90123009303
:108F6000014602230948EF2217F0ABFB48B9074836
:108F700017F0D0FB28B9054803B05DF804EB17F0F3
:108F8000F9BB03B05DF804FB14030020200A0020A5
:108F9000FC020020E4020020CC020020A0020020FD
:108FA0009B6B040008B50348034A0021121A17F00E
:108FB0004FFA08BDB00A0020F43100200748084AE3
:108FC000084908B5121A17F045FA0748074A084930
:108FD000BDE80840121A17F03DBA00BF000000209B
:108FE000AC0A0020287304000000002000000020CC
:108FF0002873040038B505460C4699B1D1E9012320
:109000000F48096817F038F8D4E90423E1680D48DF
:1090100017F032F8E1690C4817F02EF8A1690B48F7
:1090200017F02AF8012D05D1EFF305810848103912
:1090300017F022F821462846BDE8384014F0A4BFB6
:10904000EB6B04001B6C04004B6C04005B6C0400B5
:109050008A6C040030BFFFF7FDBF00BF2DE9F0416F
:109060000B4EDFF8308006EB0807CC1B0546324676
:10907000094920461CF0A3FCA01942460021083CE7
:109080001CF0C5FCC5F8844007F10800BDE8F0817C
:109090000000000008000000E05F0400054B5A6972
:1090A0009B689A421FBF044A536843F08053536041
:1090B000704700BF5C31002000ED00E02DE9F8436F
:1090C000324D804632488946174616F0D5FFAB6AC6
:1090D000DE0622D52F4816F0CFFF1124AB6A1D07FC
:1090E00003D52D4816F0C8FF1224284DAB6A980707
:1090F00015D52A4816F0C0FF6E6BAB6A190642D52B
:109100002748314616F0B8FFB9F1000F03D0AB6A1B
:1091100023F08003AB62132403E01024DEE76FF03A
:1091200015061A4DAB6ADA0703D51E4816F0A4FFE0
:109130001424AB6A9B0603D51B4816F09DFF15242B
:10914000124B9A6AD50602D49A6A90070AD55B68D0
:10915000190507D54146304600F0BAFA10B180F340
:1091600009880224094B9A6A920642BF5A6A22F47D
:1091700000525A629A6A42F0FF029A6200233B70E0
:109180002046BDE8F8836FF01506C4E700ED00E067
:109190009E6C0400B56C0400E96C0400FD6C0400D6
:1091A000166D04002D6D04004D6D040010B51D4CAE
:1091B0001D4816F061FFA36A990130D51B4816F0CF
:1091C0005BFF1E20A36ADA0103D5194816F054FF8D
:1091D0001F20144CA36A1B0303D5164816F04CFF3E
:1091E0002120A36A590303D5134816F045FF222016
:1091F0000C4CA36A9A0303D5104816F03DFF2320B8
:10920000A36ADB0303D50E4816F036FF2420054A77
:10921000936A6FEA03436FEA1343936210BD1D2004
:10922000D0E700BF00ED00E07D6D0400966D040006
:10923000AA6D0400C56D0400E46D04000A6E04000C
:10924000256E040070B5244C064624480D4616F0E1
:1092500013FFA36AD90435D5214816F00DFF172056
:10926000A36A1A0503D51F4816F006FF18201A4CEA
:10927000A36A9B050FD51C4816F0FEFEA16BA36ADE
:10928000180407D5194816F0F7FE1EB1A36A23F497
:109290000043A3621920104CA36A590503D5144852
:1092A00016F0EAFE1A20A36ADA050DD5114816F069
:1092B000E3FE1B20084A936A43F47F439362002332
:1092C0002B7070BD1620CBE7A36A9B04F2D50A4829
:1092D00016F0D2FE1C20EDE700ED00E0516E040018
:1092E000686E0400E96C04007A6E0400946E040059
:1092F000AA6E0400C66E04004D6D04002DE9F04115
:109300005B4B5F688AB00446C7F30806002585F307
:109310001188BFF36F8F02F07F43B3F17F4F06D107
:1093200002F00C03082B13D1524816F0A5FE0025BD
:109330002C464FF00008F31E8DF80780092B00F231
:109340008680DFE803F00A7A7E76848484848482CF
:1093500010074CBF0C460125EBE74748444E16F07A
:109360008BFE8DF80780F36A9A0704D5434816F000
:1093700083FE002330E0F36A002B01DA4048F6E771
:10938000F36A5B00F5D53F4816F076FE7369A26973
:1093900043F480737361BFF34F8FBFF36F8F7369B3
:1093A00032F8022C23F480737361BFF34F8FBFF345
:1093B0006F8F4DF602739A4209D0B36ADBB253B392
:1093C0000DF1070201212046FFF778FE33E0216806
:1093D0002D4816F051FE23689DF80720C2B902AE51
:1093E00004F1200720686168324603C20834BC4299
:1093F0001646F7D1099AB5B3C2F3080121B96FEA4D
:1094000052226FEA4222099202A91846FFF7F2FDA2
:109410000AB0BDE8F081B36A13F47F4F05D00DF1B7
:1094200007010120FFF70EFF05E0B36AB3F5803FA7
:109430009FD3FFF7BBFE0346CEE70DF107020021E5
:10944000C1E70DF107010020ECE710488FE7104B52
:109450001049114817F4F87FA6F1100218BF1946F9
:1094600016F00AFE85E722F4FF7222F00102CAE735
:1094700000ED00E00D6F0400396F0400516F04002F
:10948000736F0400826F0400A26F0400BF6F0400BA
:10949000F46E0400DF6E0400E46F0400044B5A69AC
:1094A00042F010025A615A6922F008025A6170476C
:1094B00000ED00E0EFF30880EFF3098101B572469B
:1094C000FFF71CFF01BD00BF0B4880F3088813F0B5
:1094D00095FE202080F3118808484FF4046140185D
:1094E00080F30988EFF314800221084380F3148885
:1094F000BFF36F8F00F0B4F800510020404300200C
:10950000084B9B6883420BD1EFF3058343B1064BB5
:109510005A6842F080525A605A6A22F400425A62F3
:1095200015F046BE5C31002000ED00E015498A6868
:109530004FF030001044EFF3098C80E8F01F20203A
:1095400080F31288BFF36F8F0F4F4FF000664A69A8
:109550008A603E60D2F884000C4C2060D2F888000B
:109560000023C2F8883080F3118804B5104600F05B
:1095700015F9BDE8044002F1300090E8F01F8CF3CB
:10958000098870475C31002004ED00E040130020A2
:109590001EF0040F0CBFEFF30880EFF30980816920
:1095A00011F8021C0229FFD001B5724616F054FFD3
:1095B00001BD00BF40B2002807DB044A4109012376
:1095C00000F01F00834042F82130704700E100E0C6
:1095D00040B200280CDB4309064900F01F0020338D
:1095E0000122824041F82320BFF34F8FBFF36F8FDA
:1095F000704700BF00E100E0054B420900F01F008A
:1096000053F82220012303FA00F01040704700BFF6
:1096100000E100E040B20028A8BF00F1604001F185
:109620000101B8BF064B4FEA4111ACBF00F56140E4
:1096300000F00F00C9B2B4BF195480F8001370478E
:1096400014ED00E0044B054A23F07F039360BFF361
:109650004F8FBFF36F8F70470070020000ED00E086
:1096600008B5FFF7EFFF0B4AD2F8883023F47003F8
:10967000C2F88830EFF3148323F0040383F31488D3
:10968000BFF36F8FFFF78EFCFFF798FC00F05CF8DC
:1096900014F042FD00ED00E042F8203C009B42F84F
:1096A0001C3C0A49019B42F8183C029B42F8143CBE
:1096B00021F001014FF0807342F8043C42F8081C8D
:1096C0000023203A0265C0F888307047BD8C020044
:1096D000094A0346906870B113F1160F406F05D028
:1096E000A0F140029A4205D8834203D2814228BFAA
:1096F00000207047002070475C31002008B51546F7
:109700000C4A0D4B9060D0F884201A600E4600F091
:1097100045F82C4686F309880020044B98472046DC
:10972000002100220023024C204700007D04040099
:10973000BD8C02005C31002040130020014B102240
:109740001A61704700ED00E0044800232021C21890
:109750000133302B82F80013F9D1704700E100E0AB
:1097600008B5EFF30583064A103B02EBC30152F83C
:10977000330049688847BDE80840FFF78FBC00BF49
:10978000005D0400024B034A0348012100F076B853
:10979000000004200000002040600400426F054BE0
:1097A000403A1A60044A4021C3E9011218460121D7
:1097B00000F06EB84413002000000B15084AC2F8F0
:1097C00098000B6823F01F03034343F01003C2F813
:1097D0009C308B6843F00103C2F8A030704700BF93
:1097E00000ED00E02DE9F043DFF8608085B00E4623
:1097F0001F4604464FF00009B14523DA6068D8B12E
:109800003FB1411E08421BD11F2819D923681942B4
:1098100016D12368019316F054FEA3680343039303
:10982000D8F89050C5F30725D0B2013DA84207D81B
:1098300001A9FFF7C3FF421C09F101090C34DBE762
:109840006FF01502104605B0BDE8F08300ED00E0B2
:10985000044B0522C3F89420BFF34F8FBFF36F8FE3
:10986000704700BF00ED00E0BFF35F8F024B0022A6
:10987000C3F89420704700BF00ED00E010B5034C22
:1098800001232278FFF7AEFF207010BDAE3100201B
:1098900008B50B4A00231278FFF7A4FF10F1160F4A
:1098A00007D0084A0021D2F89030C3F3072398422A
:1098B00000DB08BDC2F89800C2F8A0100130F2E742
:1098C000AE31002000ED00E02DE9F043534B544C45
:1098D000D3F890302568C3F307239D4285B000F28A
:1098E0009A80FFF7C1FF00200C2685421AD14D4C0B
:1098F0004D4F25706846FFF709FBDFF82081DFF840
:109900002C9106460025AE4213D12378434900200E
:10991000D1F89020C2F30722934276DBFFF798FF3D
:10992000002042E0616806FB0011FFF747FF0130AD
:10993000DBE7009800EB05114FEA051CCB683B40C4
:10994000B3F5000F48D00AD8B3F5001F30D0B3F5F7
:10995000800F36D0B3F5801F10D00135D3E7B3F1B7
:10996000807F42D0B3F1007FF7D150F80C30886887
:109970004A6816F0A6FD40F4802009E050F80C304B
:1099800088684A6816F09DFD40F0885040F4302009
:10999000CDE901230390D8F890302078C3F3072352
:1099A000013B98422AD96FF0150005B0BDE8F0835D
:1099B00050F80C3088684A6816F083FD40EA0900C8
:1099C000E6E750F80C3088684A6816F07AFD40F0F7
:1099D000C06040F40030DBE750F80C3088684A681B
:1099E00016F06FFD40F08270D2E750F80C308868B6
:1099F0004A6816F066FD40F08870C9E701A9FFF7D4
:109A0000DDFE237801332370A7E7C1F89830C1F851
:109A1000A00001337CE74FF0FF30C6E700ED00E027
:109A20004C600400AE3100200000F0FF000008117F
:109A300008B5024B1B689847002008BD5013002052
:109A4000034B044A1860937843F002039370704705
:109A5000501300202C03002008B50649064821F0C9
:109A60000701C1F1005202F5802216F0C6FA00206B
:109A700008BD00BFA38F00205413002070B54169BA
:109A8000867A0B4D044659B1437ADB0706D42C2362
:109A900003FB06535B6A1B689B689847002363615E
:109AA0002C20214606FB0050BDE870401BF021BC75
:109AB000B8080020024B2C2202FB0030704700BF88
:109AC000B8080020827A064B2C2101FB02339A6AE7
:109AD0001B7F1B33801A23F00303B0FBF3F07047A6
:109AE000B808002038B5074B827A2C2404FB0233D7
:109AF0005B6AD3E901240C601568FFF7E3FF04FB00
:109B0000005038BDB80800202DE9F04385B0054667
:109B10006846039190461C461BF037FEDDE900675E
:109B2000EFF31189202383F31288BFF36F8F6B8BC0
:109B3000002B41D02A8B9A4225D9002200232846A7
:109B400014F04CFD0446F0B189F31188BFF36F8F18
:109B5000039B002B41D032463B4668461BF03AFE41
:109B6000A27A264B2C2101FB023320465B6A1B683C
:109B700003A91D68DDE90023A847606170BB20468A
:109B8000FFF77CFF24E0698B4B1E6B8389F3118800
:109B9000BFF36F8F2B7F2A8BAC6A1B3323F0030339
:109BA000521A02FB0344154B154AEB1A9B10534300
:109BB000A3722B7FE372CBE789F31188BFF36F8F1A
:109BC00023464246284614F009FD04460028BFD12A
:109BD0000024204605B0BDE8F08363610123002521
:109BE0002381039B6382E27A6560294604F11800B1
:109BF0001BF00DFF63692582E360EAE7B8080020E7
:109C0000A38B2EBA70B50D4C2C2500B970BD037A0C
:109C10004668002BFAD0013BDBB20372002BF5D172
:109C2000C3604360837A05FB03431B6A13B1984703
:109C30003046EAE7FFF722FFFAE700BFB808002046
:109C40000E4A0123C2F840354FF080424FF0805158
:109C5000C2F87835D1F83001082808D1D1F834118C
:109C6000052904D80648415C09B1C2F838364FF0DE
:109C700080430122C3F880250020704700E00140A6
:109C80000770040020B1034B800143F00103184723
:109C9000704700BF206004002DE9F04190F82030AB
:109CA00003F01F03012B04460F4600F120061BD0D2
:109CB000022B05D043BB90F8211017F06FF903E099
:109CC000818CC9B217F047F90546E8B1304616F065
:109CD00060FE024668688368A2B99B684BB13A4649
:109CE0003146BDE8F0411847818CC9B217F01AF926
:109CF000EAE76FF085031BF00DFF0F4A13500020B9
:109D0000BDE8F081DB68E9E794F82110204616F001
:109D10005FFD02460028ECD0304616F03AFE40B90E
:109D20001369002BE5D03A46314620469847034652
:109D3000E1E7D368F5E700BF0C0000002DE9F04F24
:109D40000B7E33F0800893B00446174600F12009DB
:109D500040F071844A7E02F0010097B117F10C0FB8
:109D60000FD088B917F1710F03D10846FFF74AFFEA
:109D700003E00846FFF746FFB846404613B0BDE88B
:109D8000F08F002800F04084002B40F00E840B8AF6
:109D9000072B0DD80846FFF735FF484616F0F9FDAA
:109DA0000346A069002B00F03684802100F03CBC03
:109DB000CA68136823625368C9F804304A68E58C9E
:109DC000002AE7D0484616F0E4FD08BB537E15B1E3
:109DD00013F0020F01E013F0040FDBD0002016F0A7
:109DE000E0FB05460028D8D01BF094FE94F8202014
:109DF000B84E002312F0600F8351C2F341130BD011
:109E0000032B40F0B3811BF085FE6FF0850340E02B
:109E1000002DBFD0537EDBE7484616F0BAFD94F81C
:109E20002130002840F03981013B0A2BEBD801A1F9
:109E300051F823F0819F0200079E020003A0020058
:109E4000079E0200619E0200079E0200079E02001C
:109E5000079E0200D39E0200079E0200359F02006B
:109E6000A069618C03697F29D3F88030CBD8A28C9C
:109E7000002AC8D1E28C002AC5D194F82020D2064D
:109E8000C1D194F82C20022A05D11BF043FE4FF0DB
:109E9000FF33335013E01B0706D5C9B216F0B2FDED
:109EA000804620B1284661E7012384F8353094F8D4
:109EB0002C30012B0BD1638C4BB984F82C301BF068
:109EC00029FE3358002B00F05683284663E7012310
:109ED000F3E7204616F0F0FB628CFF2A014692D889
:109EE000E38C002B8FD194F82030D8068BD194F8D6
:109EF0002C30002BC9D02AB1D2B2204616F037FF41
:109F00000028C2D0618C94F834308B42D7D0C9B2CB
:109F1000204616F033FF80460028C3D1628C002A09
:109F200014BF0223012384F82C300521204617F0AA
:109F300043FAC4E794F8203003F01F03012B7FF4A9
:109F400062AFE38C002B7FF45EAF628CFF2A3FF69A
:109F50005AAFA18CFF293FF656AF94F82C30022B54
:109F600093D1D2B2C9B2204617F01AF910F1020FFC
:109F7000804640F000811BF0CDFD46F800809EE752
:109F8000E38CA18C002B7FF43EAF94F82C30002B97
:109F90003FF47BAF012B0FD100297FF476AF12F095
:109FA0001F020CD1638C012B89D194F868306FF3B8
:109FB000C30384F8683082E712F01F0217D0022A28
:109FC0007FF47DAFB4F822A0BAF1000F7FF477AF31
:109FD0005FFA81F84146204617F0D4F903461BF09A
:109FE00099FD3350013306D14FF0FF385AE700296D
:109FF0007FF44BAFD6E752464146204616F0CFFCE1
:10A000005DE7E38CA18C002B7FF4FDAE638C022B0B
:10A010005FFA81F813D194F8203003F01F0358EA57
:10A0200003037FF4F0AEA0690122090A16F0C7FC11
:10A0300000287FF4E8AE012384F835303FE794F838
:10A040002C0000283FF421AF01280DD100297FF416
:10A050001CAF12F01F020AD1012B7FF430AF94F82D
:10A06000683043F00803A4E712F01F0211D0022A5F
:10A070007FF425AF002B7FF422AF4146204617F036
:10A080006CF903461BF046FD33500133ACD001227E
:10A09000B2E700297FF4F9AEDEE70A2B3FF6B3AE54
:10A0A00001A151F823F000BFD9A00200079E0200D1
:10A0B000079E0200079E0200079E0200079E020004
:10A0C00059A10200079E02000FA50200079E020090
:10A0D0003DA502000C000000E38CA18C022B7FF454
:10A0E00092AE94F82C30002B3FF4CFAE012B10D160
:10A0F00000297FF4CAAE12F01F020DD194F8683027
:10A100004FEA930808F00208C3F3001348EA030873
:10A1100006E012F01F0210D0022A12D04FF0000801
:10A1200005F10C0A504616F0B6FAE38C98420ED2AE
:10A130001BF0F0FC6FF00B03ABE600297FF4A5AE3B
:10A14000DCE7C9B2204617F02CF98046E8E7414623
:10A15000504616F05AFAB2E694F82020B4F822A03D
:10A16000D2064FEA1A235FFA8AFA09D02946204616
:10A17000FFF792FD8046B8F1000F7FF493AE9EE6A4
:10A18000013B0E2B3FF63FAE01A252F823F000BF79
:10A19000CDA1020017A20200CFA20200079E02007A
:10A1A000079E0200C7A20200C7A20200079E02008B
:10A1B000079E0200079E0200079E0200079E020003
:10A1C000079E0200079E020017A4020005F10C0A78
:10A1D0005046B4F8268016F05EFA80450AD2B4F8EC
:10A1E0002680204616F068FA48B101287FF40BAEAD
:10A1F000216F05E0504616F04EFA8046F1E7E16E19
:10A20000002900F013810A78424528BF4246504693
:10A2100016F0EAF953E6204616F04EFA0AF101026A
:10A2200001900146D2B2204616F07BFD82460028FE
:10A230003FF4E9AD05F10C08D0F804B0404616F043
:10A240002AFA9BF80020904203D2404616F023FAE7
:10A2500002465946404616F0C7F9DAF80CA0BAF1A2
:10A26000000F09D1298AE38C99427FF628AEC91ADA
:10A27000404616F0D4F922E6DAF8040083681B6B36
:10A2800013B9DAF800A0EAE7019998470028F8D056
:10A29000A0F1040B5BF8043F002BF2D01B78002BDD
:10A2A000EFD0404616F0F7F9DBF800301A7890420C
:10A2B00003D2404616F0EFF982B2DBF800104046B8
:10A2C00016F092F9E6E7204616F0F6F99BE55246BD
:10A2D0000321204616F0BBFA824600283FF493ADD6
:10A2E00016F052FBB4F826B0E0B9BAF81430ADF865
:10A2F0002830DAF8103005F10C081B88ADF82A3048
:10A30000404616F0C8F9834508D2E08C9DF8282015
:10A31000824228BF02460AA9404679E7404616F025
:10A32000BAF9F3E700238DF814309AF81530DAF80B
:10A3300008208DF81530C24B1340C24A934258D1C1
:10A34000102106A81AF037FA0028FFF65CAD0AAA19
:10A350001028DFF8F4E20DF1180C114628BF102088
:10A36000404502F1020233D8800002308DF814001B
:10A37000019105F10C0A504616F08DF99DF81480F4
:10A38000D84528BFD846404503D2504616F083F939
:10A390008046B8F1020FC34628BF4FF0020B5A4661
:10A3A00005A9504616F020F9A8EB0B08DDF804B01B
:10A3B0004FEA58030BEB58025A4522D118F0010F0F
:10A3C0003FF47DAD019AD15C504616F016F976E562
:10A3D0001CF8013B4FEA131A03F00F031EF80AA002
:10A3E0001EF8033002F802AC02F8013C08F1010843
:10A3F000B6E79AF814308DF81430DAF8103001937B
:10A40000B7E71BF8011B5046CDE9023216F0FDF804
:10A41000DDE90232D0E7204616F04EF920B10128DE
:10A420007FF4F1AC236F00E0E36E13B96FF0150811
:10A4300038E55B88B3F5007F7FF6E5AC834B0A9384
:10A4400000238DF82C30A36C04F1480A9A455BD1A7
:10A4500005F10C0B584616F01EF9BDF82A80E38C66
:10A46000984528BF9846404503D2584616F013F940
:10A4700080469DF82820424528BF42460AA95846F2
:10A4800016F0B2F8B8F1050F94BFA8EB0808A8F1D0
:10A490000508B8F1000F3FF412ADA36C53453FF42B
:10A4A0000EAD002B3FF40BAD5A7D0F2A14D11A7D4F
:10A4B00019690193424528BF4246584616F094F860
:10A4C000019B1A7D424594BFA8EB0208A8EB08083F
:10A4D000B8F1000F3FF4F3ACE26C9A423FF4EFACFA
:10A4E0001B68DEE75A7D0F2A0AD11A7DBDF82A10B3
:10A4F0000A44ADF82A209DF82C2001328DF82C203A
:10A50000E26C9342A4D01B68002BEBD1A0E794F837
:10A510002C3094F834A0002B3FF4B7ACE38C012B23
:10A520007FF471AC05F10C08404616F0B4F8E38CEA
:10A530009842FFF4FDAD5146404646E794F820307E
:10A5400003F01F03012B7FF4A0AC204616F0FDFBA7
:10A5500000283FF49AACA38C4268FF2B3FF653AC23
:10A5600012799A42FFF44FAC0F2B3FF64CAC2344C8
:10A5700093F836A0D2E70123A362484616F009FA01
:10A5800060B9E38C53B12946002016F00AF805465D
:10A5900000283FF402AC6B7E5E07F4D529462046C6
:10A5A00013B0BDE8F04F16F078BE50077FF5F5AB5D
:10A5B000802B7FF4F2AB0846FFF724FBA36A012B44
:10A5C0007FF4DBAB94F83530002B3FF4D6AB94F836
:10A5D0002130052B05D1618CA069C9B216F012FAA1
:10A5E000804694F82130032B09D1638C022B06D1CD
:10A5F000A18CA0690022090A16F0E1F98046002327
:10A6000084F83530FFF7B9BB52077FF5C6AB002B96
:10A610003FF4ABABCCE7E38C002B3FF4C6AB17F1B8
:10A620000C0118BF0121C90119F050FD002380461B
:10A63000A362FFF7A2BB6FF00408FFF79EBB00BF49
:10A6400000FF0200000302000D700400050F05006A
:10A650000248002200231AF062BD00BF3408002027
:10A660002DE9FF41514F4FF0FF334FF0FF3201A969
:10A67000384613F087FE039B1B69D3F89C409DF876
:10A680000430072BEFD8DFE803F00A041A0D2C275B
:10A690007B8D00220121204616F08EFEE3E700228A
:10A6A0001146F8E794F8683043F0040301A984F8F0
:10A6B0006830204616F0C8F900220321EBE794F831
:10A6C00068306FF3820301A984F86830204616F0E1
:10A6D000BBF900220221DEE701A9204616F0B4F9F9
:10A6E000C1E794F86830A6696FF3820384F8683094
:10A6F0003369D6F80880BFF35B8FD3F8A030BFF37F
:10A700005B8F9907C3F3400208D40421204616F05A
:10A7100053FE4FF0FF352A460721BCE7D8F83C30FE
:10A7200030469847D8F82430002130469847D8F86A
:10A730004030054630469847E5B92946204616F090
:10A740001DFB0546B0B98021204616F003FEA06926
:10A7500019F071FD831E5842584194F8683084F80E
:10A760002C5023F0680343EA401384F868302A46EB
:10A77000042190E700220421204616F01DFECAE7BE
:10A7800002990B7ED1F81E2013F07F0F204606D1D0
:10A79000FFF7D4FA054600283FF465AFBBE716F093
:10A7A000D1FBF7E7029A062175E700BF34080020C5
:10A7B00030B589B000220023CDE9062300246FF0D4
:10A7C0000703CDE90334CDE901441A4B1A4900943B
:10A7D0004FF48062194814F021FA194917481AF009
:10A7E0008BFE184B18498B4207D3184B1849002091
:10A7F0008B4210D3002009B030BD03F11402BFF327
:10A800005B8F52E8000F42E80045002DF9D1BFF3FD
:10A810005B8F1833E7E703F11402BFF35B8F52E855
:10A82000004F42E80005002DF9D1BFF35B8F1833CC
:10A83000DEE700BF61A6020000320020B00A00205F
:10A840001E700400940A0020AC0A0020AC0A00200C
:10A85000AC0A002038B5024609490546806919F05E
:10A8600051FD044648B985F83400284616F05DF9D4
:10A87000044610B1A86919F078FD204638BD00BF24
:10A8800051A6020070B5084C084E0546B44202D3EA
:10A890000024204670BD636828461968FCF74AFC0E
:10A8A0000028F6D01834F1E7940A0020AC0A002002
:10A8B00070B50646EFF31181202282F31288BFF3B0
:10A8C0006F8F1D4C236881F31188BFF36F8F5B6816
:10A8D00093F86830DB0705D4BDE8704021220023DF
:10A8E00014F046B9EFF3118382F31288BFF36F8F30
:10A8F000256865B983F31188BFF36F8F2368D3B1DF
:10A9000030460022BDE87040002314F0FDB86168B5
:10A910002A6822608D4208BF626083F31188BFF30A
:10A920006F8F686805F10801C36998470348294695
:10A930001AF0A5FBE2E770BD6013002004080020B8
:10A9400030B585B06C4684E80600054600221548FF
:10A95000002303A913F078FC0246E8B9039B94E8AE
:10A9600003005D60083383E80300EFF311802023C8
:10A9700083F31288BFF36F8F039B1A600A4A5168F2
:10A9800061B9C2E9003380F31188BFF36F8F0748C4
:10A990000022002314F0B8F805B030BD0B605360FE
:10A9A000F1E700BF04080020601300203000002001
:10A9B00038B54B78046945682069202B08D0222BD4
:10A9C00019D01BF0A7F8114B6FF085021A5010E058
:10A9D000CB88072BF5D1D3681A6842609A88028128
:10A9E0009B79837216F009FD22460821284616F04D
:10A9F000F1FC002038BD4B888381C3F3400203F093
:10AA000001030276437622460921EFE70C0000009D
:10AA100008B51346026910694A78212A13D133B95F
:10AA20001BF078F80B4B6FF00B021A5009E0CA8844
:10AA3000072A00F1040128BF072203F10C0015F0DA
:10AA4000D3FD002008BD1BF065F8024B6FF08502B6
:10AA5000EBE700BF0C00000073B504698DF8071028
:10AA60002025EFF3118685F31288BFF36F8F012243
:10AA7000E06B0DF1070115F0A8FC86F31188BFF318
:10AA80006F8F012812D01AF031FD08B9A37EABB93F
:10AA90000D4BBFF35B8F012253E8001F002903D148
:10AAA00043E800200028F7D1BFF35B8F2122002369
:10AAB00004F1480014F028F802B070BD00212120F4
:10AAC0001AF0BAFDCDE700BF6813002038B505695C
:10AAD0000E49EB6B0024C3E90144DC606B6B05F1AC
:10AAE0004800C3E90144DC601AF0E1FC05F178009C
:10AAF00007491AF08FFC074905F124001AF08AFC77
:10AB0000284616F07AFC204638BD00BFCF15040059
:10AB100077170400031804000378012B30B513D015
:10AB2000022B27D07BB9194B0A4603F1100453F8C6
:10AB3000045B42F8045BA342F9D11B78137043888D
:10AB40004B731B0A8B7330BD104B0A4603F1100484
:10AB500053F8045B42F8045BA342F9D11B781370ED
:10AB600043684B73C3F307221B0CCB731B0A8A7316
:10AB70000B74E8E700F1100350F8042B41F8042BA4
:10AB80009842F9D103780B70DDE700BF50700400E4
:10AB900008B516F07BFF14F011FA044B1B680BB1DB
:10ABA0000A209847BDE8084014F01CBA6C13002036
:10ABB00038B50446084815F09FFC054648B1631EA9
:10ABC000DBB21F2B96BF054A0021D15C0C3015F07B
:10ABD00014FD284638BD00BF9409002061700400B0
:10ABE0000F2810B50CD80D280CD90A4815F084FC94
:10ABF000044618B104210C3015F0FFFC204610BDAE
:10AC00001328F2D009B10448F0E7BDE81040022053
:10AC1000FFF7CEBFC00900201009002070B5C6683C
:10AC20003378B6F8014083B90F21204602F000F8CE
:10AC3000F378054650B90A4A118831B96FEA0450D1
:10AC40006FEA10501080074A137070BD43720121E3
:10AC500001F05AFF2846BDE8704001F00FBF00BF69
:10AC600090310020AF31002010B5084C014606227B
:10AC700094F86F0002F072FA38B994F86F00044942
:10AC8000BDE81040052202F069BA10BD080100209D
:10AC90003670040010B5012104460C3015F0DFFCBD
:10ACA0002146034A0078BDE81040002316F0BBBFE0
:10ACB0006861040010B5012104460C3015F0CFFC8A
:10ACC0002146034A0078BDE81040082316F0ABBFC8
:10ACD0002861040010B5012104460C3015F0BFFCBA
:10ACE0002146034A0078BDE81040022316F09BBFBE
:10ACF000F86004002DE9F047884616468246002891
:10AD000072D0BFF35B8FDFF8E490002359E8004F67
:10AD100049E80032002AF9D1BFF35B8F002C63D0E1
:10AD20002046FEF7CFFE324D0C2303FB0050274692
:10AD30004388534511D0BFF35B8F59E8003F49E882
:10AD40000072002AF9D1BFF35B8F002B4CD01F4655
:10AD50003846BDE8F047FEF755BFA64208D020466A
:10AD600015F0C5FB328AF16804F10C0015F03CFCCB
:10AD70002046FEF7A7FE0C2606FB00504368ABB149
:10AD8000B8F1000F12D12046FEF79CFE06FB0050E2
:10AD900001214268D2E90003127A03F01F06B14094
:10ADA0005B09DAB100EB830016F0DFFE2046FEF708
:10ADB00089FE0C2606FB00508368002BC8D0204675
:10ADC000FEF780FE704305F800802046FEF77AFE0D
:10ADD00006FB0055A86813F033FCB9E7C94300EB44
:10ADE000830016F037FFE1E7BDE8F087500200204E
:10ADF000701300202DE9F8430C4614F0DFF8E368E7
:10AE0000228A1978022964D0042905D02046FEF749
:10AE1000F9FE6FF0150405E0022A08D82046FEF777
:10AE2000F1FE002414F0DEF82046BDE8F8835878DF
:10AE30003E2808D1032AF1D0DB78012B01D00A2B60
:10AE400047D1032604E016F07EFE0646F0073ED505
:10AE500004F10C05284615F01AFC01210746284686
:10AE6000B4F8109015F0F3FB0221284615F0F7FB1B
:10AE7000804600783E2816D1E3681B78012B31D03C
:10AE80000A2B2FD002251A4A1A491B4841F2F30314
:10AE900015F0FFF8002383F31188BFF36F8F0323AE
:10AEA000184602DF04E016F04EFEC1070546EAD55B
:10AEB000124A98F800000623214616F0B4FEAA07AD
:10AEC00012D56369A4F8109013FA87F7E760B30707
:10AED000A7D521460A4815F013FB0A490A481AF07B
:10AEE000B5FA9EE70325E3E72046FEF78BFEEEE783
:10AEF00081700400B5700400CE700400C8600400C6
:10AF000054020020E8030020400B002070B53148B7
:10AF100015F00BFB044600285AD000F10C0528461A
:10AF200015F0A5FB022805D004282FD02046FEF7F7
:10AF300069FE21E0238A032BF8D90421284615F065
:10AF40008EFBFF22438806882276228AC6F30B00F6
:10AF50009A426083EAD10F2101F06AFE054600287B
:10AF6000E4D001F081FE320B20762146284617F00E
:10AF7000E1F9284601F082FD174BD3F84C313BB381
:10AF8000BDE87040154916481AF060BA28460221FB
:10AF900015F065FB054600783E2812D016F0D3FD6B
:10AFA00010F002060DD10F4A0F49104840F66343D6
:10AFB00015F06FF886F31188BFF36F8F03231846DF
:10AFC00002DF0B4A28780423214616F02CFEADE759
:10AFD00070BD00BF5402002008010020E8030020DB
:10AFE000400B002081700400EB700400CE70040060
:10AFF0000861040008B501F097FABFF35B8F084BB6
:10B000001A68BFF35B8F02F00B02BFF35B8F53E84C
:10B01000001F43E800200028F9D1BFF35B8F08BD73
:10B02000DC01002010B5C1E900239DF808300B7247
:10B030000C46FEF747FD034B0C2202FB00335C601D
:10B0400010BD00BF70130020F8B502460B46104833
:10B0500015F052FA0446C0B104210C3015F0B3FAD1
:10B060002046FEF72FFD0B4D0C2707FB0050002656
:10B0700046802046FEF726FD07FB005086602046EE
:10B08000FEF720FD07FB00556E602046F8BD00BFAF
:10B090006809002070130020034B0146D3F86C01AF
:10B0A00082689268104700BF0801002008B5044874
:10B0B000042116F05AFDBDE8084001F035BA00BF82
:10B0C000DC01002000487047976B0400014813F032
:10B0D000ABBC00BFD803002070B505460C4659B97B
:10B0E0004FF0FF304FF0FF31FFF7AEFF044618B9C5
:10B0F0006FF06805284670BD2046FEF7E3FC164B4E
:10B100000C2202FB0033A61830465D8015F0BFFA12
:10B1100003280BD90321304615F088FA0580238ACD
:10B12000033B83700121304615F088FA40F6354321
:10B130009D4208D12046FFF7AFFF054648B12046A3
:10B14000FEF760FDD6E7054821461AF0C7F8FFF77D
:10B15000BDFF0025CEE700BF701300205C02002079
:10B1600038B502460B46244DD5F8541109B90020D4
:10B1700038BD05F5987013F09DFA0028F7D100222C
:10B18000002305F5AA7013F029FA044668B91B4A92
:10B190001B491C4840F6734314F07BFF84F311886D
:10B1A000BFF36F8F0323184602DFD5F8480120B1A3
:10B1B000FEF728FD0023C5F84831204615F0CBF9ED
:10B1C000C5F848012046FFF767FF98B10E4813F015
:10B1D00037FA2046FEF776FC0C4B0C2202FB0030BF
:10B1E0001F2140882246FFF785FD2046FEF70AFD15
:10B1F000FFF76CFF0120BBE708010020817004000D
:10B2000019710400CE700400380200207013002071
:10B210002DE9F04F064687B017460C4669B94FF046
:10B22000FF304FF0FF31FFF70FFF044660B96FF0BA
:10B230006805284607B0BDE8F08F887AFEF73AFC2B
:10B24000454B834240F082800122002168461AF07B
:10B250005EF82046FEF736FCDFF800A10C2303FB66
:10B2600000A0C0F808D0204615F075F90146304618
:10B27000FFF732FF054618B12046FEF7C3FCD8E7BA
:10B280001AF048FC364B1A58364B9A4220D1DFF858
:10B29000D8B036481AF037F8002181464FF4A02084
:10B2A000FFF75EFF804688B9314A32484FF4F973A0
:10B2B000594614F0EEFE3048314614F0EAFE88F3A9
:10B2C0001188BFF36F8F0323184602DF4C45E0D18E
:10B2D0004FF4A0220023684613F0ECF9804698B1A1
:10B2E0004FF4FC73224A2549224814F0D2FE244828
:10B2F0004246314614F0CDFE002383F31188BFF39C
:10B300006F8F0323184602DF2046FEF7DBFB0C237A
:10B3100058431AF80060AEB12046093EFEF772FCB1
:10B32000092E0CD8DFE806F0150B0B08050B0B0BEC
:10B330000B126FF00B057CE76FF00C0579E76FF0EF
:10B34000040576E7002F97D03C6072E76FF0150593
:10B350006FE76FF06E056CE768090020701300203E
:10B3600008000000E01100201D7104005C020020B4
:10B3700081700400CE700400257104004571040042
:10B380004E710400F7B50022114640F60340FFF766
:10B390003FFF0446002853D1FFF72CFE214601AAA7
:10B3A00041F20300FFF734FF0446002848D1019A18
:10B3B000A04DD168D1F80100D1F8051005F178034E
:10B3C00003C31046FEF71EFC214601AA41F201000C
:10B3D000FFF71EFF044698BB0198C3685A7885F8AA
:10B3E00070205A88A5F872201A7985F87120B3F870
:10B3F0000720A5F87420B3F80530A5F87630FEF7DD
:10B4000001FC214601AA41F20200FFF701FF0446B8
:10B41000B0B9019FFA6805F18006531C41321868E3
:10B420005968344603C4083393422646F7D1384658
:10B43000FEF7E8FB95F87C305E0604D46FF012044A
:10B44000204603B0F0BD01AA002142F20300FFF73D
:10B45000DFFE04460028F3D1019B774EDA68D2F86C
:10B460000100D2F8051003C61846FEF7CBFB2146B3
:10B4700001AA42F20200FFF7CBFE04460028DFD10A
:10B48000019CE368B3F8012091B249B1D97839B190
:10B49000A5F80421DA78114606F1280019F037FFE3
:10B4A0002046FEF7AFFB95F87C601F2316F02006C0
:10B4B000A5F8203119D14FF0FF304FF0FF31FFF7E1
:10B4C000C3FD0446002800F0AC8002210C3015F0CA
:10B4D00085F80123037046702146324640F66D40E0
:10B4E000FFF796FE04460028AAD195F89C301C0769
:10B4F00012D501AA002142F21C00FFF789FE044682
:10B5000000289DD10198C368D3F80120D3F80530F5
:10B51000C5E93823FEF776FB95F8D830980624D590
:10B520000DF10201684616F018FD0446002887D187
:10B530004FF0FF304FF0FF31FFF786FD0646002841
:10B540006FD004210C3015F049F8BDF800300380AD
:10B55000BDF8023043802246314642F22400FFF714
:10B5600057FE044600287FF46BAF4FF0FF304FF0DA
:10B57000FF31FFF769FD0446002852D008210C3046
:10B5800015F02CF895F8D82012F0020F14BF2F23D5
:10B590000F23910695F8D92048BF43F0400312F0DD
:10B5A000090F18BF43F4006300220370C3F307239D
:10B5B00043708270C270027142718271C271214601
:10B5C00042F20100FFF724FE044600287FF438AF62
:10B5D00095F87C30B5F804119A0625D4C9B901AAAA
:10B5E00041F20500FFF714FE044600287FF428AF5F
:10B5F000B5F80431019C4BB9E368B3F80120A5F814
:10B6000004219A880D48114619F081FE2046FEF764
:10B61000F9FA4FF0FF304FF0FF31FFF715FD044608
:10B6200070B96FF068040BE70029F2D16FF00404E1
:10B6300006E700BF08010020E00100201002002002
:10B6400008210C3014F0CAFF1023037088234370C4
:10B6500002230022C3702023827002714271827122
:10B66000C371214640F60140FFF7D2FD0446002891
:10B670007FF4E6AE014601AA4FF60140FFF7C8FD90
:10B68000044620BB0198FEF7BDFA214601AA4FF6F9
:10B690000240FFF7BDFD0446C8B90198C368B3F87E
:10B6A0000130A5F8C130FEF7ADFA95F8C1305B075F
:10B6B0000DD501AA21464FF60340FFF7A9FD30B989
:10B6C0000198C3685B7885F8C030FEF79BFA00F0FC
:10B6D000D3FB044600287FF4B3AE01F015FE044608
:10B6E00000287FF4ADAEFFF7E1FCA9E610B5FFF747
:10B6F00049FE034B1B6813B1BDE81040184710BD4D
:10B700009413002073B5254D0646D5F86C0119F049
:10B7100020FC00283BD06FF0020105F1D40016F0A8
:10B7200099FA012116F021FA10EA010432D11C4BDA
:10B730001E600A4605F5987019F0E9FD05F5AA7036
:10B7400019F08DFD174819F0ACFE17491548009403
:10B750006FF007034FF4966213F06CF91349114828
:10B7600019F0CAFED5F86C01114983681B68984727
:10B77000044648B926B902B0BDE87040FFF702BEE2
:10B7800005F1C40013F050F9204602B070BD6FF00F
:10B790001204F9E76FF07704F6E700BF0801002014
:10B7A00094130020400B00204036002093710400C9
:10B7B000F5AD02002DE9FF414D4BB0F8018019882D
:10B7C00048F4704291424FF0000602BF1E80494B80
:10B7D0001E78C378012B08BF474B00F104040546CF
:10B7E00020460CBF93F86F70002716F04BF92146E6
:10B7F000A8B102A816F03BF9D5F81130CDF8013008
:10B80000B5F81530ADF805300127EB78012B1CD0C9
:10B810001321404616F0B9FB04B0BDE8F08138466C
:10B8200016F053FC0346006802909A889B7968687A
:10B83000ADF80C208DF80E30A288A3792F790090F6
:10B84000ADF804208DF80630DFE702A8FFF70CFA08
:10B8500004460028DCD00346B5F8012023F8702BFD
:10B8600002989DF80E20BDF80C1020679A719980FF
:10B87000B5F81730A4F88630B5F81930A4F88C3034
:10B88000B5F81B30A4F88E30EB78E3700022012B62
:10B8900062721CD18DF80070BDF804209DF806304E
:10B8A0000098A4F87B2084F87D30C4F8770000F07D
:10B8B0009FFB237A1049C3EBC3035A18CB58C4F833
:10B8C0007E309388A4F88230937984F884300721FD
:10B8D000204601F019F926B166720121204601F0D7
:10B8E00013F9204601F0F2F9204601F0C7F893E77A
:10B8F00090310020AF3100200801002000B5C3685E
:10B900001A7889B032B13C2A32D109B05DF804EB23
:10B9100016F0ACB98DF80020B3F80120ADF8012085
:10B92000DA788DF80320B3F80B20ADF81720B3F8C0
:10B930000D20ADF81920B3F80F20ADF81B205A7C6C
:10B940008DF81D20586801901A899B7A8DF80A306D
:10B95000094BADF8082068461A689B88CDF80B2083
:10B96000ADF80F30CDF81120ADF81530FFF722FFFC
:10B9700009B05DF804FB00BF4A70040038B503212C
:10B9800004460C3014F06BFEE3680578B0F8010053
:10B99000197840F6354398420AD02246FFF7AAF9B3
:10B9A00035B1044812F04CFEBDE83840FFF78EBBBD
:10B9B00038BD00BF3802002038B5042104460C30E1
:10B9C00014F04DFE4578017840882246FFF792F941
:10B9D00035B1044812F034FEBDE83840FFF776BBBD
:10B9E00038BD00BF3802002070B54FF0FF320D4661
:10B9F0004FF0FF3300210646FFF7F2F8044660B926
:10BA00000A4A0B490B481A2314F043FB84F31188AC
:10BA1000BFF36F8F0323184602DF022104F10C00ED
:10BA200014F0DCFD06704570204670BD9C7104006A
:10BA300019710400CE700400F8B50A4DEF7906467E
:10BA40000024E3B29F4202D86FF0010007E02946CC
:10BA5000304616F02CFB0735631C08B12046F8BDB4
:10BA60001C46EEE70801002070B5144E0622314650
:10BA7000044619F0D4FFE0B14FF0FF304FF0FF3132
:10BA8000FFF7E2FA0546B0B1062221460C3014F069
:10BA9000ABFD0022294642F20500FFF7B9FB48B989
:10BAA0003346226843F86929A288B280012283F8CC
:10BAB0006820002070BD6FF06800FBE77101002076
:10BAC00037B504460D4689B11849284616F0EFFAF5
:10BAD00060B9174A2968C4EBC404A3181151AA8895
:10BAE0009A80AA799A71002003B030BD684615F09B
:10BAF000B0FF0028F8D16846FFF79EFF0028F5DA6E
:10BB00000B4A00989DF80610C4EBC404A31810510A
:10BB1000BDF8040098809971002DE4D012592A6074
:10BB20009A88AA809B79AB71DDE700BF3D70040065
:10BB30000801002008B528B1054816F0C0FA030630
:10BB400001D5012008BD024816F0B9FAF9E700BF97
:10BB5000DC01002070B5044611B16FF0150070BD16
:10BB600080B11B4916F0A3FA60B92046FFF764FFC5
:10BB7000002827DA2378012BEFD1A37903F0C00343
:10BB8000C02BEAD1134DEB79012B1ED005F1D40067
:10BB900016F095FAC30707D4002CDED00C492046D6
:10BBA00016F085FA0028D8D1EE792146731C30466C
:10BBB000EB71FFF785FF08B93046D0E7EB79013B21
:10BBC000EB71CCE76FF07700C9E76FF00B00C6E7C9
:10BBD0003D700400080100202DE9F3410446D8B16E
:10BBE00001AA002141F20900FFF712FB054698B9AE
:10BBF000019E1249D6F80C8008F10107062238464A
:10BC000019F00DFF28B10E490622384619F007FF3A
:10BC100030B93046FDF7F6FF002002B0BDE8F081F4
:10BC2000D8F80130C4F80130BB88A4F8053030469C
:10BC30002570FDF7E7FF0120EFE700BF4A70040021
:10BC40004470040007B56846FFF7C6FF044BD8717F
:10BC500018B169460020FFF733FF03B05DF804FB1D
:10BC600008010020F0B5294DEE7989B0002E46D1AB
:10BC700095F8C230DB0722D56A4631464FF60940B7
:10BC8000FFF7C6FAD8B9DDF800C0DCF80C406378DD
:10BC9000012B1E4628BF012673B1A31C02AA123431
:10BCA00018685968174603C70833A3423A46F7D1C4
:10BCB000186838609B88BB806046FDF7A3FFEE7173
:10BCC000002416260127EB79E0B2834202D8B3B1F3
:10BCD000002012E008AB06FB0033694653F8182C2D
:10BCE00033F8143CCDF80120ADF805308DF8007024
:10BCF000FFF7E6FE01340028E5D009B0F0BD0021D1
:10BD0000084609B0BDE8F040FFF724BF0801002055
:10BD100010B50C4631B300F06BF998B100F1100387
:10BD2000184616F0CCF9C1050CD5184616F0C7F91F
:10BD3000C20407D50D4B1B78012B11D101232370B1
:10BD400000200CE000F054F920B1103016F0B7F9E3
:10BD5000C305F3D4002016F0C5F90028EED010BDBD
:10BD60000023ECE76FF01500F9E700BF08010020A1
:10BD70002DE9F0410E4617461D460446002871D0B5
:10BD8000002B6FD00A03037809D54C076AD416F04C
:10BD9000BFF90446002853D101232B700CE0B107F2
:10BDA0002DD033480FB1B20608D4C3EBC302825C76
:10BDB000012A12D002B92A70002441E090F8D8205C
:10BDC000510652D5C3EBC302825C012A05D002B9E9
:10BDD0002A702B7843F00203DFE74FF001080721B8
:10BDE00011FB03810144204616F074F9044638BB68
:10BDF00085F80080002FDFD0B206DDD5E9E716F028
:10BE0000040212D01A49C3EBC3028F5C012F09D17F
:10BE1000072212FB0373194416F05CF9044678B943
:10BE20002F70E9E7002FE7D1FAE7124816F047F93B
:10BE3000830608D4204616F06BF9012304462B70C4
:10BE40002046BDE8F081104600F086FB06462046FD
:10BE500016F05EF9044601202870002EF0D100F0A3
:10BE60007BFBEDE76FF01504EAE76FF08504E7E789
:10BE700008010020DC01002010B50A4CE3790BB169
:10BE8000002010BDFFF7DEFE0028FAD1E379002B79
:10BE9000F6D1FFF7E7FE0028F3D1601CBDE81040A3
:10BEA000FFF7E2BD08010020F8B5456869050646C0
:10BEB00035D4046914B115F0030330D0194F30782C
:10BEC000FB7983422BD9C0EBC000174907223844C5
:10BED00019F0A5FDA8B115F0030306D197F870205D
:10BEE000082A02D8B2689F2A19D915F0300F09D054
:10BEF000ACB1EA060AD405F46035B5F5603018BF78
:10BF00000120F8BDEB0601D4002CF4D1D6E90223C0
:10BF10009A4204D81F2A02D9B3F5804FEBD90020EA
:10BF2000EFE700BF080100203D700400F7B5CDE940
:10BF30000001694642F208009DF8207016461D4631
:10BF400016F01BF9044668B97FB9BFF35B8F0C4B41
:10BF500053E8001F41F0040143E80012002AF7D122
:10BF6000BFF35B8F204603B0F0BD694642F2090083
:10BF7000CDE9006516F001F90028E6D00446F1E7A6
:10BF800030010020F8B50446164B14F8097B83F8FD
:10BF90006F7005460E4607221349204619F03FFDF3
:10BFA00070B91249384601F095F8044610B96FF09F
:10BFB0000B00F8BD052100F0A7FD34600020F8E774
:10BFC0002146384616F060FA40B92146287801F03B
:10BFD00081F804460028EAD00621ECE76FF015004E
:10BFE000E7E700BF080100203D7004003670040040
:10BFF00000487047200100202DE9F04F8B4ED0F80B
:10C0000010B089B09A460023BBEB030405463046C6
:10C0100018BF0124039316F0AAF80F464107914672
:10C0200040F1E5802846FFF73FFF60B96FF0150447
:10C030003846002340F20111994540F0E180204646
:10C0400009B0BDE8F08F2846FFF774FD8046002850
:10C05000ECD0A6F1AC0016F08AF8C205C0F30023BC
:10C0600000F1C880CDE90533CDF81B30AB686868B6
:10C07000ADF81030EB68ADF8123016F069F88DF8B5
:10C080001D00BFF35B8F56E8003F23F4807346E842
:10C090000032002AF7D1BFF35B8F2A7806F8BC2C58
:10C0A00006F8652C696822460DF11503A6F1BC005F
:10C0B000FFF75EFE04460028BAD1A6F1B303BBF138
:10C0C000000F11D02A69116846F8B31C9188998035
:10C0D00092799A716B689E0745D1980502D4BAF19E
:10C0E000000F54D002230BE0514A116846F8B31CEC
:10C0F0009188927999809A716B689C07EDD05B4624
:10C100008DF814304FF0FF304FF0FF31FEF79CFFF9
:10C110000446002871D00F2204A90C3014F064FAF0
:10C120002146002242F20600FFF772F8044600287A
:10C130007FF47EAFBBF1000F2DD06B68990736D12D
:10C140003C48012116F08EF8039E0446002836D0A4
:10C15000002E3FF46DAF3046002100F0D5FC304694
:10C1600000F08CFC64E713F0100F0CBF01230423D4
:10C170008DF814302B691A68CDF816209A88ADF81E
:10C180001A209B798DF81C304FF00008BAE7032382
:10C190008DF81430F8E7129BCDF8008052464946DE
:10C1A0003846FFF7C3FE04460028C6D040E72148C2
:10C1B00003A9FFF7E7FE04460028C1D038E716B10F
:10C1C000304600F05BFC6A681B4812F0030218BF9F
:10C1D0000122092116F02BF842460A2116F027F811
:10C1E0006A680C21C2F3800216F021F820E76FF094
:10C1F0000A041DE76FF077041AE76FF0680417E789
:10C2000002888A4204D1426812B11278D20702D45D
:10C210000133083010E70949094819F048F94FF48B
:10C2200070220023064812F0A3FC08E7DC0100207E
:10C230003D7004002001002030010020B7220400DE
:10C240003801002010B51E4816F032F81D4815F0D0
:10C250008EFFC1052ED51B4815F089FF820515D527
:10C2600019491A48072219F0DAFB19490346087ED2
:10C270001BBB1849052200F071FF044630B10021B4
:10C28000417200F041FC204600F0F8FB0C48002110
:10C2900015F0E8FF044670B90F4815F068FF8306F3
:10C2A00008D5204600F058F9204615F01BFF012064
:10C2B00000F052F90024204610BD06222131DAE7B1
:10C2C00020010020300100203D70040029010020E1
:10C2D0000801002036700400DC01002070B505461E
:10C2E00086B00E464FF0FF304FF0FF31FEF7ACFE48
:10C2F0000446A0B102210C3014F070F9094A4670CE
:10C30000057003A9204600950523FEF78BFE002249
:10C31000214642F20C00FEF77BFF06B070BD6FF0C5
:10C320006800FAE7DC01002008B50C4B0246400922
:10C3300003EB800015F0C1FF02F01F0340FA03F386
:10C3400013F0010006D122B9054815F0B6FF40F3FD
:10C35000C01008BD6FF07700FBE700BF9813002006
:10C36000DC0100200A4ABFF35B8F430902EB830222
:10C3700000F01F0001238340DB4352E8000F184008
:10C3800042E800010029F8D1BFF35B8F704700BF7E
:10C390009813002030B587B05D480022002312F0CA
:10C3A00055F8002840F092805A485A4D15F085FF04
:10C3B00010F0010345D02B1D93E8070006AB03E9FD
:10C3C0000700554815F079FFC0F34013514815F0A8
:10C3D00074FF014600286BD073B10C224F490DEB5E
:10C3E000020019F01CFB00286BD000210846FFF763
:10C3F00075FF0446002865D100239DF80C00ADF8B8
:10C400000930BDF80E30ADF80530BDF81030ADF88C
:10C410000730431E8DF8040058420DF109015841C0
:10C42000FFF776FC044600284CD14FF0FF304FF068
:10C43000FF31FEF709FE0546002849D16FF0680478
:10C4400040E03548364A15F038FF10F0800F0ED026
:10C450009089D1891269ADF80E004FF48074ADF85F
:10C460000C40ADF81010ADF812300592A9E72D4C34
:10C470002068616803AB03C3A068186092F8D930E4
:10C48000180748BF0523234848BF8DF80D3015F025
:10C4900014FF810706D53023ADF810306023ADF8C6
:10C4A0000E308EE71B4815F008FF4207F3D488E7EB
:10C4B0003BB1FFF713FF044620B9184B2861C3E9CD
:10C4C00001000024124812F039F8204607B030BDB0
:10C4D000072201A90C3014F087F82246294642F2BF
:10C4E0000B00FEF795FE04460028EBD19DF80D10D9
:10C4F000012001F00101FFF7F1FE04460028E1D11F
:10C5000006AA12E90700054B83E80700D9E700BF38
:10C51000B413002098130020DC010020A813002091
:10C52000080100200C60040010B5094C44220021D1
:10C53000204619F06CFA04F11C0018F0FFFD04F11C
:10C54000300018F0FBFD034B00221A6010BD00BF45
:10C5500098130020E4130020044B597C003801F0AC
:10C56000010118BF0120FFF7B9BE00BF98130020DA
:10C57000032838B5054603D1BDE83840FFF70ABFA8
:10C58000FFF7D2FE0446C8B9BFF35B8F0C4B6A09B4
:10C5900003EB820305F01F0101228A4053E8000FDC
:10C5A000104343E800010029F8D1BFF35B8FFFF788
:10C5B000F1FE044610B12846FFF7D4FE204638BDF0
:10C5C000981300202DE9F04F00F10C088BB00446C1
:10C5D000404614F04CF806465D48DFF878A115F0A7
:10C5E0006CFE00F001035A48029315F066FEC0F39A
:10C5F0008003019316B90BB0BDE8F08F029B13B90D
:10C60000019B002BF7D0238A082BF4D9092140463F
:10C6100014F025F8037A228A01339A420546EAD3B8
:10C620000123ADF824307F238DF81E30037A0344B4
:10C63000471C5B7A8DF81D30FF238DF81C300023DA
:10C64000ADF8223002788DF81F20042A9CBF424B9F
:10C650009B5CADF82030037A3D48009315F02DFE29
:10C6600003463B4815F029FEDA0703D5BDF8203014
:10C670005B0765D4384615F005FA00284AD03946DC
:10C6800004A815F0F4F9DAF80030B3B1404613F01D
:10C69000FEFF009BB4F810B0DAF8007023828146E8
:10C6A00043469DF81F209DF91D1004A8B8476369F3
:10C6B000A4F810B013FA89F3E36004AB0693274B98
:10C6C0001A68002A3AD0136803B1083B52F8081CD4
:10C6D000B9B11F46A2F108034046039313F0D7FFF8
:10C6E000009BB4F810B02382039B81461B6841462F
:10C6F00006A898476369A4F810B013FA89F3E360B9
:10C700003B46DBB19F681A68B7B1083F002AE3D106
:10C710003B46F7E76B78FF2B09D1114B1868049063
:10C720009A889B798DF81630ADF81420ABE739461E
:10C7300015F0CBFC0346F1E7002ACDD10023069388
:10C74000297A40460131013E13F081FFF6B251E7EC
:10C7500098130020E4130020D2710400DC130020A1
:10C760003D700400F8B50546224815F0A6FD4307C4
:10C770000F463CD52A78012A03D96FF015042046CC
:10C78000F8BD6B780F2BF8D86888031F9BB243F66F
:10C79000FC74A342F1D8A9880B1F9BB2A342ECD82A
:10C7A0008842EAD37AB914480022002311F04EFEE1
:10C7B00004460028E3D1FFF7B7FD044640B10E4818
:10C7C00011F0BCFEDBE715F0BAFC0028EBD1D4E792
:10C7D00028686968094E0A4B03C6A868306020467D
:10C7E0001F60FFF7C5FE044606F12400E8E76FF07E
:10C7F0000A04C4E7DC010020C81300209C130020B9
:10C80000E413002070B50C4B1C68054644B154F885
:10C81000143C143C13B1697A284698476469F5E7DB
:10C82000064C074EB44200D370BD236813B1697A39
:10C83000284698471834F5E71C140020B05F040020
:10C84000C85F040010B50446FDF73CF9044901EB4C
:10C850000011204615F057F9BDE81040FEF736BC30
:10C86000E813002070B5D1E9015600220446C1E961
:10C870000122064818F032FD3DB1314620462B46D4
:10C880006FF06D02BDE87040184770BDA008002031
:10C8900037B5837A072B04462FD1BFF35B8F031D77
:10C8A00053E8002F42F4806143E80015002DF7D1D2
:10C8B000BFF35B8F510520D4BFF35B8F6368BFF379
:10C8C0005B8F9A0301D415F086FBA37A072B14D152
:10C8D0000B4B93F8D8309B060FD515F0A7FA60B133
:10C8E0000DF1060101A815F038FB30B9BDF806209E
:10C8F000BDF80410204615F089FB03B030BD00BF21
:10C900000801002070B505460F480022002311F0F1
:10C91000D1FEB8B90D4B1C6834B154F80C3C143C32
:10C9200003B198476469F7E7094C0A4EB44204D34F
:10C930002846BDE8704012F077B8A36803B1984765
:10C940001834F3E770BD00BF7C0800201C140020E1
:10C95000B05F0400C85F04002DE9F843DFF854809D
:10C96000044620270025EFF3118387F31288BFF3D5
:10C970006F8FE16929B983F31188BFF36F8FBDE829
:10C98000F883206A0A68E261814208BF226283F369
:10C990001188BFF36F8FD1E901694046C1E90155A4
:10C9A00018F09CFC1EB1002249462046B047FEF715
:10C9B0008DFBD8E7A00800200448B0F80431002B14
:10C9C00000F5847008BF0020704700BF08010020F8
:10C9D00030B5044619F09EF80D4A0D460D49085829
:10C9E000D2F8901088428BB005D120460BB0BDE83C
:10C9F0003040FFF7B1BF24342146104618F026FD21
:10CA00001DB16946204618F031FD0BB030BD00BFA6
:10CA1000E01100200800000038B5002204468A42D8
:10CA200002D10024204638BD04F1C4030120BFF325
:10CA30005B8F53E8005F002D04D143E8000CBCF18C
:10CA4000000FF6D1BFF35B8F02D0C8340244E6E793
:10CA5000002CE6D0C4220021204618F0D8FF04F1B3
:10CA60004000044918F023FD034904F1240018F0A4
:10CA7000D1FCD7E70DD20200E722040008B5C4308C
:10CA8000BFF35B8F50E8003F013B40E80032002AD3
:10CA9000F8D1BFF35B8F3BB9044811F0D1FDBDE87D
:10CAA0000840034811F0C0BF08BD00BF7C0800204B
:10CAB0000804002010B5044615F08AFC12F07EFA36
:10CAC000104BD3F8241104F1B80249B9C4F8B810D6
:10CAD000D3F8281189B9C3E9492212F083FA06E094
