:020000022000DC
:10700000006F002029F902001BDB040015F90200C3
:1070100015F9020015F9020015F902000000000040
:1070200000000000000000000000000021FA020043
:1070300015F90200000000008DF9020015F90200A8
:10704000B5FC02001D060400B5FC0200B5FC020000
:10705000B5FC0200B5FC0200B5FC0200B5FC020064
:10706000B5FC0200B5FC0200B5FC0200B5FC020054
:10707000B5FC0200B5FC0200B5FC0200B5FC020044
:10708000B5FC0200B5FC0200B5FC0200B5FC020034
:10709000B5FC0200B5FC0200B5FC0200B5FC020024
:1070A000B5FC0200B5FC0200B5FC0200B5FC020014
:1070B000B5FC0200B5FC0200B5FC0200B5FC020004
:1070C000B5FC0200B5FC0200B5FC0200B5FC0200F4
:1070D000B5FC0200B5FC0200B5FC0200B5FC0200E4
:1070E000B5FC0200B5FC0200B5FC0200B5FC0200D4
:1070F000B5FC0200B5FC0200B5FC0200B5FC0200C4
:1071000090F800F06DE9024520F007016FF0000CE7
:1071100010F0070491F820F040F049804FF000048F
:107120006FF00700D1E9002391F840F000F108006A
:1071300082FA4CF2A4FA8CF283FA4CF3A2FA8CF3A2
:107140004BBBD1E9022382FA4CF200F10800A4FA09
:107150008CF283FA4CF3A2FA8CF3E3B9D1E904235D
:1071600082FA4CF200F10800A4FA8CF283FA4CF394
:10717000A2FA8CF37BB9D1E9062301F1200182FA4E
:107180004CF200F10800A4FA8CF283FA4CF3A2FA54
:107190008CF3002BC6D0002A04BF04301A4612BA62
:1071A000B2FA82F2FDE8024500EBD2007047D1E965
:1071B000002304F00305C4F100004FEAC50514F0F4
:1071C000040F91F840F00CFA05F562EA05021CBFC5
:1071D00063EA050362464FF00004A9E700000000DF
:1071E000A2EB0300704700BF02780B78012A28BF8A
:1071F0009A42F5D16DE9044540EA0104CDE9026700
:107200006FF0000C4FEA447212B380EA010414F0EC
:10721000070F6AD100F0070420F0070004F003050F
:1072200021F007014FEAC505F0E8042314F0040F2C
:10723000F1E804670CFA05F462EA040266EA04065F
:107240000AD063EA0403624667EA0407664603E07D
:10725000F0E80423F1E8046782FA4CF582EA0604B8
:10726000A4FA8CF46CBB83FA4CF583EA0705A5FA03
:107270008CF595B950E9022351E9026782FA4CF581
:1072800082EA0604A4FA8CF483FA4CF583EA070533
:10729000A5FA8CF52543DBD09CB92DBAB5FA85F457
:1072A00024F0070427FA04F1DDE9026723FA04F366
:1072B00003F0FF0001F0FF01FDE80445A0EB010031
:1072C000704724BAB4FA84F424F0070426FA04F1CF
:1072D000DDE9026722FA04F202F0FF0001F0FF018B
:1072E000FDE80445A0EB0100704714F0030F3CD10A
:1072F00010F0030428D150F8082B51F8083B82FA0B
:107300004CF582EA0305A5FA8CF55DB950F8042C1A
:1073100051F8043C82FA4CF582EA0305A5FA8CF593
:10732000002DE8D02DBAB5FA85F424F0070423FA2D
:1073300004F122FA04F202F0FF0001F0FF01FDE87F
:107340000445A0EB010070474FEAC40420F003009D
:1073500050F8082B21F0030151F8083B0CFA04F413
:1073600062EA040263EA0403C9E710F003041AD0D6
:10737000A1EB040120F00300E40750F8042B06D031
:107380000FD28B785FFAA2F4E41A06D12BB1CB7836
:107390005FFAB2F4E41A00D11BB920465DF8104B35
:1073A000704701F1040150F8042BCC0721F00301D0
:1073B00051F8043B48D824D222F07F4482FA4CF59D
:1073C00094EA1325A5FA8CF50AD165B951F8043B66
:1073D00084EA0204B4EB036F0ED150F8042BEBE700
:1073E0004FEA132355E035F07F454DD10878FDE88D
:1073F0000445C0F1000070474FEA126203F0FF033A
:1074000047E002EA1C4482FA4CF594EA1345A5FAD7
:107410008CF50AD165B951F8043B84EA0204B4EB57
:10742000034F0CD150F8042BEBE74FEA134330E045
:1074300015EA1C4528D10B884FEA124229E04FEA91
:10744000124203EA1C4324E002F0FF0482FA4CF5E6
:1074500094EA1365A5FA8CF50AD165B951F8043B95
:1074600084EA0204B4EB032F09D150F8042BEBE7B4
:107470004FEA13630DE015F0FF0F05D10B684FEADB
:10748000122223F07F4304E04FF00000FDE80445A2
:10749000704712BA1BBA82FA4CF482EA0304A4FAC7
:1074A0008CF5B5FA85F402FA04F203FA04F34FEA14
:1074B0001260FDE80445A0EB136070470000000077
:1074C00001F0FF01102A2BDB10F0070F08D010F895
:1074D000013B013A8B422DD010F0070F42B3F6D199
:1074E000F0B441EA012141EA014122F007047FF0B2
:1074F00000070023F0E80256083C85EA010586EA09
:10750000010685FA47F5A3FA87F586FA47F6A5FA44
:1075100087F68EB9EED1F0BC01F0FF0102F0070250
:1075200032B110F8013B013A83EA010313B1F8D1FB
:107530000020704701387047002D06BF35460338DC
:10754000073815F0010F07D1013015F4807F02BF15
:10755000013015F4C03F0130F0BC0138704700BF66
:10756000844641EA000313F003036DD1403A41D34E
:1075700051F8043B40F8043B51F8043B40F8043B0D
:1075800051F8043B40F8043B51F8043B40F8043BFD
:1075900051F8043B40F8043B51F8043B40F8043BED
:1075A00051F8043B40F8043B51F8043B40F8043BDD
:1075B00051F8043B40F8043B51F8043B40F8043BCD
:1075C00051F8043B40F8043B51F8043B40F8043BBD
:1075D00051F8043B40F8043B51F8043B40F8043BAD
:1075E00051F8043B40F8043B51F8043B40F8043B9D
:1075F000403ABDD2303211D351F8043B40F8043B3D
:1076000051F8043B40F8043B51F8043B40F8043B7C
:1076100051F8043B40F8043B103AEDD20C3205D34C
:1076200051F8043B40F8043B043AF9D2043208D044
:10763000D2071CBF11F8013B00F8013B01D30B88B6
:1076400003806046704700BF082A13D38B078DD094
:1076500010F003038AD0C3F10403D21ADB071CBF66
:1076600011F8013B00F8013B80D331F8023B20F8D0
:10767000023B7BE7043AD9D3013A11F8013B00F809
:10768000013BF9D20B7803704B7843708B78837091
:107690006046704781F0004102E000BF83F0004384
:1076A00030B54FEA41044FEA430594EA050F08BF9D
:1076B00090EA020F1FBF54EA000C55EA020C7FEA61
:1076C000645C7FEA655C00F0E2804FEA5454D4EBDE
:1076D0005555B8BF6D420CDD2C4480EA020281EAA8
:1076E000030382EA000083EA010180EA020281EAE0
:1076F0000303362D88BF30BD11F0004F4FEA013132
:107700004FF4801C4CEA113102D0404261EB410140
:1077100013F0004F4FEA03334CEA133302D05242C6
:1077200063EB430394EA050F00F0A780A4F1010482
:10773000D5F1200E0DDB02FA0EFC22FA05F28018BC
:1077400041F1000103FA0EF2801843FA05F35941A2
:107750000EE0A5F120050EF1200E012A03FA0EFC21
:1077600028BF4CF0020C43FA05F3C01851EBE3714B
:1077700001F0004507D54FF0000EDCF1000C7EEB68
:1077800000006EEB0101B1F5801F1BD3B1F5001FA6
:107790000CD349085FEA30004FEA3C0C04F10104C5
:1077A0004FEA445212F5800F80F09A80BCF1004FEE
:1077B00008BF5FEA500C50F1000041EB045141EA70
:1077C000050130BD5FEA4C0C404141EB0101013C39
:1077D00028BFB1F5801FE9D291F0000F04BF014628
:1077E0000020B1FA81F308BF2033A3F10B03B3F1FA
:1077F00020020CDA0C3208DD02F1140CC2F10C028A
:1078000001FA0CF021FA02F10CE002F11402D8BFE7
:10781000C2F1200C01FA02F120FA0CFCDCBF41EAB3
:107820000C019040E41AA2BF01EB0451294330BD82
:107830006FEA04041F3C1CDA0C340EDC04F114045F
:10784000C4F1200220FA04F001FA02F340EA030036
:1078500021FA04F345EA030130BDC4F10C04C4F17C
:10786000200220FA02F001FA04F340EA030029465C
:1078700030BD21FA04F0294630BD94F0000F83F4A6
:10788000801306BF81F480110134013D4EE77FEA89
:10789000645C18BF7FEA655C29D094EA050F08BFD5
:1078A00090EA020F05D054EA000C04BF19461046B6
:1078B00030BD91EA030F1EBF0021002030BD5FEAFA
:1078C000545C05D14000494128BF41F0004130BD22
:1078D00014F580043CBF01F5801130BD01F0004576
:1078E00045F0FE4141F470014FF0000030BD7FEAE9
:1078F000645C1ABF194610467FEA655C1CBF0B46E4
:10790000024650EA013406BF52EA033591EA030FFA
:1079100041F4002130BD00BF90F0000F04BF0021F2
:10792000704730B54FF4806404F132044FF0000525
:107930004FF0000150E700BF90F0000F04BF00219E
:10794000704730B54FF4806404F1320410F0004504
:1079500048BF40424FF000013EE700BF42004FEAFF
:10796000E2014FEA31014FEA02701FBF12F07F437C
:1079700093F07F4F81F06051704732F07F4208BF33
:10798000704793F07F4F04BF41F40021704730B53A
:107990004FF4607401F0004521F000411CE700BF86
:1079A00050EA010208BF704730B54FF000050AE009
:1079B00050EA010208BF704730B511F0004502D50A
:1079C000404261EB41014FF4806404F132045FEA0C
:1079D000915C3FF4D8AE4FF003025FEADC0C18BFB5
:1079E00003325FEADC0C18BF033202EBDC02C2F1A7
:1079F000200300FA03FC20FA02F001FA03FE40EA39
:107A00000E0021FA02F11444BDE600BF70B54FF03C
:107A1000FF0C4CF4E06C1CEA11541DBF1CEA13551A
:107A200094EA0C0F95EA0C0F00F0DEF82C4481EA82
:107A3000030621EA4C5123EA4C5350EA013518BFA2
:107A400052EA033541F4801143F4801338D0A0FB8F
:107A500002CE4FF00005E1FB02E506F00042E0FB3C
:107A600003E54FF00006E1FB03569CF0000F18BF42
:107A70004EF0010EA4F1FF04B6F5007F64F54074EA
:107A800004D25FEA4E0E6D4146EB060642EAC6217D
:107A900041EA55514FEAC52040EA5E504FEACE2EEA
:107AA000B4F1FD0C88BFBCF5E06F1ED8BEF1004FED
:107AB00008BF5FEA500E50F1000041EB045170BD69
:107AC00006F0004646EA010140EA020081EA0301AD
:107AD000B4EB5C04C2BFD4EB0C0541EA045170BDA9
:107AE00041F480114FF0000E013C00F3AB8014F123
:107AF000360FDEBF002001F0004170BDC4F100046C
:107B0000203C35DA0C341BDC04F11404C4F12005EC
:107B100000FA05F320FA04F001FA05F240EA020047
:107B200001F0004221F0004110EBD37021FA04F67D
:107B300042EB06015EEA430E08BF20EAD37070BD37
:107B4000C4F10C04C4F1200500FA04F320FA05F096
:107B500001FA04F240EA020001F0004110EBD37098
:107B600041F100015EEA430E08BF20EAD37070BD08
:107B7000C4F1200500FA05F24EEA020E20FA04F3E1
:107B800001FA05F243EA020321FA04F001F0004190
:107B900021FA04F220EA020000EBD3705EEA430E01
:107BA00008BF20EAD37070BD94F0000F0FD101F030
:107BB0000046400041EB010111F4801F08BF013C69
:107BC000F7D041EA060195F0000F18BF704703F0A7
:107BD0000046520043EB030313F4801F08BF013D2E
:107BE000F7D043EA0603704794EA0C0F0CEA1355EA
:107BF00018BF95EA0C0F0CD050EA410618BF52EAA4
:107C00004306D1D181EA030101F000414FF00000A9
:107C100070BD50EA410606BF1046194652EA4306B7
:107C200019D094EA0C0F02D150EA013613D195EA2B
:107C30000C0F05D152EA03361CBF104619460AD173
:107C400081EA030101F0004141F0FE4141F470017D
:107C50004FF0000070BD41F0FE4141F4780170BD6D
:107C600070B54FF0FF0C4CF4E06C1CEA11541DBFD2
:107C70001CEA135594EA0C0F95EA0C0F00F0A7F8D4
:107C8000A4EB050481EA030E52EA03354FEA013101
:107C900000F088804FEA03334FF0805545EA131314
:107CA00043EA12634FEA022245EA111545EA1065DC
:107CB0004FEA00260EF000419D4208BF964244F173
:107CC000FD0404F5407402D25B084FEA3202B61A92
:107CD00065EB03055B084FEA32024FF480104FF466
:107CE000002CB6EB020E75EB030E22BFB61A7546DA
:107CF00040EA0C005B084FEA3202B6EB020E75EB6D
:107D0000030E22BFB61A754640EA5C005B084FEAD4
:107D10003202B6EB020E75EB030E22BFB61A7546A1
:107D200040EA9C005B084FEA3202B6EB020E75EBAC
:107D3000030E22BFB61A754640EADC0055EA060E6D
:107D400018D04FEA051545EA16754FEA06164FEAB0
:107D5000C30343EA52734FEAC2025FEA1C1CC0D15C
:107D600011F4801F0BD141EA00014FF000004FF0E9
:107D7000004CB6E711F4801F04BF01430020B4F1AA
:107D8000FD0C88BFBCF5E06F3FF6AFAEB5EB030C62
:107D900004BFB6EB020C5FEA500C50F1000041EB5F
:107DA000045170BD0EF0004E4EEA113114EB5C042C
:107DB000C2BFD4EB0C0541EA045170BD41F48011FF
:107DC0004FF0000E013C90E645EA060E8DE60CEA07
:107DD000135594EA0C0F08BF95EA0C0F3FF43BAF24
:107DE00094EA0C0F0AD150EA01347FF434AF95EADB
:107DF0000C0F7FF425AF104619462CE795EA0C0FBF
:107E000006D152EA03353FF4FDAE1046194622E78B
:107E100050EA410618BF52EA43067FF4C5AE50EA65
:107E200041047FF40DAF52EA43057FF4EBAE12E755
:107E30004FF0FF3C06E000BF4FF0010C02E000BF36
:107E40004FF0010C4DF804CD4FEA410C7FEA6C5C19
:107E50004FEA430C18BF7FEA6C5C1BD001B050EABC
:107E6000410C0CBF52EA430C91EA030F02BF90EAA7
:107E7000020F0020704710F1000F91EA030F58BF66
:107E8000994208BF90422CBFD8176FEAE37040F0C8
:107E9000010070474FEA410C7FEA6C5C02D150EA66
:107EA000013C07D14FEA430C7FEA6C5CD6D152EA21
:107EB000033CD3D05DF8040B704700BF84461046E6
:107EC00062468C461946634600E000BF01B5FFF7E5
:107ED000B7FF002848BF10F1000F01BD4DF808EDB5
:107EE000FFF7F4FF0CBF012000205DF808FB00BF86
:107EF0004DF808EDFFF7EAFF34BF012000205DF8E0
:107F000008FB00BF4DF808EDFFF7E0FF94BF01202C
:107F100000205DF808FB00BF4DF808EDFFF7CEFF2D
:107F200094BF012000205DF808FB00BF4DF808ED6C
:107F3000FFF7C4FF34BF012000205DF808FB00BF3D
:107F40004FEA410C7FEA6C5C02D150EA013C0AD155
:107F50004FEA430C7FEA6C5C02D152EA033C02D147
:107F60004FF0000070474FF0010070474FEA4102A8
:107F700012F5001215D211D56FF47873B3EB62527B
:107F800012D94FEAC12343F0004343EA505311F0A2
:107F9000004F23FA02F018BF404270474FF0000034
:107FA000704750EA013005D111F0004008BF6FF072
:107FB000004070474FF00000704700BF7BB972B9B6
:107FC0000029BEBF00204FF0004106E008BF002896
:107FD0001CBF6FF000414FF0FF3000F077B8ADF1FB
:107FE000080C6DE904CE002909DB002B1ADB00F038
:107FF000A5F8DDF804E0DDE9022304B07047404253
:1080000061EB4101002B1BDB00F098F8DDF804E088
:10801000DDE9022304B0404261EB4101524263EBCF
:1080200043037047524263EB430300F087F8DDF8E7
:1080300004E0DDE9022304B0404261EB41017047F6
:10804000524263EB430300F079F8DDF804E0DDE928
:10805000022304B0524263EB4303704753B94AB959
:10806000002908BF00281CBF4FF0FF314FF0FF3040
:1080700000F02CB8ADF1080C6DE904CE00F05EF80C
:10808000DDF804E0DDE9022304B07047D0B5FFF766
:1080900065FC0C4B002206460F46FFF7B7FC00F0CC
:1080A00017F80446FFF738FC074B0022FFF7AEFC39
:1080B00002460B4630463946FFF7F0FA00F008F862
:1080C0002146D0BD0000F03D0000F041704700BFE8
:1080D0004A0011D212F5001211D20DD56FF4787347
:1080E000B3EB62520ED44FEAC12343F0004343EA9C
:1080F000505323FA02F070474FF00000704750EAE7
:10810000013002D14FF0FF3070474FF00000704750
:1081100007EE900AF5EEC07AF1EE10FA08B503D436
:10812000BDE80840FFF7B2BFF1EE677A17EE900A9C
:10813000FFF7ACFF404261EB410108BD2DE9F0477C
:1081400086468C460846089E154674461946002BFE
:1081500040F0C2808542B2FA82F245D94AB1C2F1FA
:10816000200300FA02FC2EFA03F3954043EA0C0CBC
:1081700094404FEA154EA8B2BCFBFEF8230C0EFB50
:1081800018CC08FB00F943EA0C43994528D9EB18B1
:1081900008F1FF3704D2994502D9A8F102072B4410
:1081A000A3EB0903A4B2B3FBFEFC0EFB1C330CFBD8
:1081B00000F044EA0344A04214D92C190CF1FF3317
:1081C00004D2A04202D9ACF102032C44241A43EA9F
:1081D00007401EB1D440002334607360BDE8F087CF
:1081E0004746DDE76346F1E792BB431B01214FEAB7
:1081F000154EAFB2B3FBFEFC200C0EFB1C330CFB88
:1082000007F840EA0343984562D9EB180CF1FF30B8
:1082100004D2984502D9ACF102002B44A3EB080329
:10822000A4B2B3FBFEFC0EFB1C330CFB07F744EAC5
:108230000344A7424ED92C190CF1FF3304D2A742B4
:1082400002D9ACF102032C44E41B43EA0040C0E72E
:10825000C2F1200320FA03F1954090402EFA03F377
:1082600003434FEA154EAFB2B1FBFEFC0EFB1C10F0
:10827000190C0CFB07F841EA0041884504FA02F4A6
:1082800022D969180CF1FF3004D2884502D9ACF12B
:1082900002002944A1EB08019BB2B1FBFEFC0EFBDE
:1082A0001C110CFB07F743EA01439F420ED9EB1860
:1082B0000CF1FF3104D29F4202D9ACF102012B44F0
:1082C000DB1B41EA004192E76046E3E76146F7E7DE
:1082D0006046A3E76346B7E7834206D916B9002193
:1082E00008467BE7C6E900E0F9E7B3FA83F78FB900
:1082F000834201D3724508D8BEEB020460EB03034E
:1083000001209C461EB9002168E73846FAE7C6E915
:10831000004CF8E7C7F1200CBB4022FA0CF41C43D8
:108320002EFA0CF120FA0CF3B84001434FEA14493D
:108330000EFA07F5B3FBF9F81FFA84FE09FB1830B3
:108340000B0C08FB0EFA43EA00439A4502FA07F2C7
:1083500040D9E31808F1FF3004D29A4502D9A8F1B8
:1083600002002344A3EB0A0389B2B3FBF9F809FB2B
:10837000183308FB0EFE41EA03418E452CD96118E3
:1083800008F1FF3304D28E4502D9A8F1020321443B
:1083900043EA0040A0FB0298A1EB0E014145CE4606
:1083A000434602D306D14D4504D2B9EB020E68EB29
:1083B00004030138002EA6D0B5EB0E0261EB0301D9
:1083C00001FA0CFC22FA07F34CEA0303F940C6E970
:1083D000003198E74046C5E74346D9E70000000072
:1083E0002DE9F04F9FB08246039117461C460025A9
:1083F000387810B9284600F0A6BD252809D0039981
:10840000D0470028C0F29F857B1C01350593059F4E
:10841000EEE71822002110A821F036FD7B78252BED
:1084200000F0BC800023791C98469E469C46184666
:108430000E4611F8012B2B2A00F0E38000F2DA80BF
:10844000202A00F0E180232A00F0E1802BB19DF882
:10845000483043F040038DF84830B8F1000F05D0A4
:108460009DF8483043F020038DF84830BEF1000FEE
:1084700005D09DF8483043F010038DF84830BCF12A
:10848000000F05D09DF8483043F008038DF84830C0
:1084900028B19DF8483043F004038DF848309DF82A
:1084A000483003F04401442903D16FF386138DF85B
:1084B00048309DF848300E9643F080032A2A8DF804
:1084C000483040F0A9809DF8493043F001038DF811
:1084D0004930731C1A782E2A9DF849200CBF0121BF
:1084E000002161F341028DF849200CD15A1C0E92F3
:1084F0005A782A2A40F0A0809DF8492042F00402D0
:108500008DF8492002331A786C2A00F0C18000F2FD
:10851000A380682A00F0A9806A2A00F0C2804C2A51
:1085200000F0C78013F8012B0593782A8DF84B20B3
:1085300000F209816D2A00F2C980692A00F20381E4
:10854000572A00F2E280412A04D0A2F14503022B0F
:1085500000F2F9809DF84A3002F0DF020421A2F116
:10856000410961F30203D9F100029DF849108DF829
:108570004A3042EB090262F3C7110A068DF849102E
:10858000CBB200F11F8103F07802182A40F0098174
:108590006FF3C6038DF849300023F8E08DF84B30B7
:1085A000BB1C05939DF849309DF84A20DE0702F078
:1085B000070040F1098154F8041B0491002908DAEE
:1085C0009DF8481041F004018DF848100499494283
:1085D0000491590740F1008154F8046B002E80F299
:1085E000FF809DF849306FF341038DF849304FF01B
:1085F000FF36F5E02D2A0DD0302A7FF427AF012376
:1086000016E74FF0010C13E74FF0010E10E74FF0A3
:1086100001080DE701200BE70EA805F07DFE0E9B7B
:10862000B3423FF457AF9DF848201390C00F60F35A
:1086300041028DF848204DE70EA805F06DFE9DF82B
:1086400048301490C3F3400242EAD07262F341030F
:108650008DF848300E9B56E7742A26D07A2A7FF48C
:1086600061AF9DF8492006210CE05A78682A9DF8F0
:10867000492006D1012161F3C6028DF84920023359
:1086800050E7022161F3C6028DF84920013349E722
:108690005A786C2A9DF8492001D10421EBE7032187
:1086A000F0E79DF849200521ECE79DF849200721D6
:1086B000E8E7BDF8482022F4F04222F0020242F43A
:1086C000804242F00202ADF84820DFE76E3AD3B2B2
:1086D00001229A4040F282431A429DF8493039D132
:1086E00012F0240F61D1D1072DD59DF84A2003F057
:1086F0007803A3F14008032161F30202D8F10003DB
:108700008DF84A2043EB080341E0A2F15801C9B2B9
:10871000012000FA01F111F4624F7FF41BAF40F623
:10872000010319429DF849301AD111F4043F0AD0CF
:108730009DF84A2060F3020203F07803402B8DF885
:108740004A207FF429AF9DF8483043F001038DF8AB
:10875000483021E79DF84A20022161F30202EBE74D
:108760009DF84A10022003F0780360F30201402BC9
:108770008DF84A1002BF9DF8481041F001018DF8B4
:108780004810632A7FF408AF003B18BF01239DF80F
:108790004820C2F340010B4363F341028DF84820A7
:1087A00000E713F0380FCED1F6E69DF84A200321FA
:1087B00013F0780F61F302028DF84A2014BF0123F1
:1087C0000023E4E70123E2E79DF948100029B4BF44
:1087D00013994FF0FF31FBE69E077FF508AF149E1B
:1087E00000230428CDE913339DF8493007D19907B8
:1087F00005D49DF949100029ACBF06260D2602F0CC
:108800000702012AC3F3C30332D1DA1E042A04D8B3
:10881000DFE802F02045452020002268012B4FEAC6
:10882000E271CDE910211BD19DF94020D117CDE98E
:10883000102104349DF84820069292074FD0059BE2
:1088400003993A46504624F084FB0028C0F27B830B
:108850000544DCE554F8042BD117CDE91021E9E7F4
:10886000022BE6D111B242F3C032CDE91012E0E79B
:10887000022A24D1DA1E042A04D8DFE802F01810F4
:1088800010181800012B54F8042B4FF0000114D0DD
:10889000022BCDE91021CDD192B21092CAE7073454
:1088A00024F00704F4E80201CDE91001C2E754F80E
:1088B000042B109200221192BCE7D2B2CDE7042A19
:1088C00008D1073424F00704D4E900010834CDE9C5
:1088D0001001AFE7032AADD154F8042BDDE79DF872
:1088E0004B80B8F1780F3FF692ADB8F1570F5CD8D6
:1088F000B8F1250F00F0A480B8F1240F7FF687AD02
:10890000B8F1410F04D0A8F14503022B3FF67FAD2B
:10891000DDE91023002BC0F24D810699080700F114
:108920004C81C1F300194FEA4919C3F30A51C3F34B
:108930001303002940F0448152EA030014BF4FF0B2
:10894000010C4FF0000CD80240EA5250D702CDE99A
:108950000C70B8F1460F47EA010740EAE17008BF22
:108960004FF06608384300F0B881BCF1000F10D01A
:108970001B0343EA125317033A4618464FF0000C04
:10898000002880F25681BCF1000F40F05981CDE9FA
:108990000C730D9B43F00043A1F2FE3B0D930021AD
:1089A000DDE90C230F46052060E1A8F15802202ADA
:1089B0003FF62DAD01A151F822F000BF878B0200D8
:1089C0000F8402000F8402000F8402000F84020053
:1089D0000F8402000F8402000F8402000F84020043
:1089E000118902000F840200338B0200478B0200C2
:1089F0001189020011890200118902000F8402000E
:108A0000478B02000F8402000F8402000F840200D3
:108A10000F8402008D8B0200878B0200D78A020030
:108A20000F8402000F840200518A02000F840200AA
:108A3000878B02000F8402000F840200878B0200E4
:108A400003994046D0470028C0F27D820135DEE41C
:108A5000002E109F3BDB3146384621F069FB002F8A
:108A60003FF4D5AC3E18F31B4FF000099DF84A20A7
:108A700012F01001069100F05B82023312F0400206
:108A8000DDF84C80089218BF149ACDF81C8043443E
:108A900018BF9B18049A002A40F36582D31A9DF8E8
:108AA000482004935007C2F3800B00F15C8251060A
:108AB00040F14C82B9F1000F07D003994846D047E6
:108AC0000028C0F240820135D94630223FE23846C4
:108AD000FEF716FBC6E71098002800F024820DF17F
:108AE0007503009312AA17AB002105F02BFCBDF80B
:108AF0004A3003F0EF0343F4F04343F0100307461A
:108B0000ADF84A304FF00009002E0CDB9DF84820EC
:108B10000DF17503DB1B6FF386129E428DF8482022
:108B200001D9F31A1393002F3FF471AC0DF17506C0
:108B30006DE0109B8DF85C304FF000090DF15D0683
:108B400017AF012392E7069B1F0758BFC3F3001915
:108B5000DDE9102354BF4FEA49194FF02B09002BD0
:108B600006DA524263EB4303CDE910234FF02D099F
:108B70000DF175030093DDE9100117AB12AA05F0A2
:108B8000E1FB0746C0E74FF00009F1E7109A072B19
:108B90003FF63DACDFE803F00C04060C08080C0CB3
:108BA000157034E4158032E4EB17C2E900532EE46B
:108BB00015602CE44FF02D09B7E64FF02B09B4E611
:108BC00040F2FF70814231D108F10108A2495FFAF9
:108BD00088F8134311F8081001F003011ED1012990
:108BE0000BBF492369234E216E210CBF462266220A
:108BF0008DF85C309DF848308DF85D106FF386136A
:108C00008DF85E208DF848300DF15F0617AFF31B2D
:108C1000B9F1000F3FF42AAF013327E7012915BF4F
:108C20006E234E23612141211A46E1E74FF0000CEB
:108C300089E6921801F1FF3140414FF0010C9FE6A7
:108C4000CDE90C20A5E6520842EAC3725B08B3F1F5
:108C5000333F59460BF1010BF5D200FB03FCA2FB9D
:108C6000002301F1020B6344013F01211BF1020FBC
:108C7000E9DB09B1CDE90C23BBF1000FDDE90C32D2
:108C80002EDCCBF10401A1F120000BF11C0B02FA48
:108C90000BFB22FA00F0CA40CB40079208F0DF023B
:108CA00043EA0B03472A43EA00037DD1F91C01DBA9
:108CB000BE422BDAA8F10208002E5FFA88F87CDDAC
:108CC0009DF84820920606F1FF3676D4B6F1000BE7
:108CD00018BF4FF0010B721C27E04FF0000B5EE64F
:108CE000023342F100020CA8CDE90C3224F002F963
:108CF000DDE90C320BF1FF3B0137DB185241002A52
:108D00000BF1FF3BF9DACDE90C32B5E79DF84820CD
:108D10009006A6EB07064DD4B6F1000B18BF4FF036
:108D2000010BF2194FF066084AD4102AA8BF10228E
:108D30009FED477B8DED0E7B10200B90DDE90E0142
:108D4000002A3FD1079A1B1842EB0101B1F1805F65
:108D500047D2CDE90C31069BB8F1660F03F0200233
:108D600040F0C180002F47DC30238DF85C30002AB2
:108D700074D1002E40F3BA812E238DF85D3087B177
:108D80007B42B342A8BF33469DF84A201393002B81
:108D9000A6EB0306D4BF0023012363F345128DF82D
:108DA0004A200DF15E0340E0B8F1660F4FF0000B72
:108DB000B7D090E74FF0000BB3E74FF0000B8AE716
:108DC0000022B5E7400840EAC1704908CDE90E012C
:108DD0000EA8CDE9082324F08DF8089A099B013AE2
:108DE000ACE75B0843EAC1730CA84908CDE90C3134
:108DF000013724F07FF8AEE717AB0B9900290BDDA4
:108E00000BA90CA8CDE9063224F08CF8069B079A32
:108E100003F8010B013FF0D11397AAB9002E40F3DC
:108E200063812E2103F8011B0027002E1FDD0B9A02
:108E3000002A1CDD0BA90CA8069324F073F8069BEE
:108E4000013E03F8010BF0E72E2203F8012BEBE7BC
:108E50000000000000000008044005002E238DF8EB
:108E60005D30002F9DD0002E8ADC0DF15E03BBF13A
:108E7000000F4CD114961E4608F0DF03452B21D17C
:108E8000002FBABF7F422D232B23632FC8BF64223C
:108E90007370C2BFB7FBF2F303F1300102FB13772B
:108EA0004FF00A0286F80080CABFB170023603365E
:108EB000B7FBF2F303F1300102FB1373303331706F
:108EC00073700236139B002B2BDC149B002BD4BF3A
:108ED000002301239DF84A2063F3861200238DF8B6
:108EE0004A20337092E60BA90CA8069224F01AF8D7
:108EF000069A8DF85C00302818BF07F1FF3712B9C9
:108F0000002E40F3F3802E238DF85D3049E71E4696
:108F1000013B16F8012C302AF9D02E2A08BF1E4634
:108F2000AAE70123D6E7734E8146771F05239DE507
:108F3000110748BF0133A1E5104609920399D047B4
:108F40000028099A05DA1FB0BDE8F08F2022DDF86D
:108F500010B0594600290BF1FF3BEDDC049BCDF826
:108F600010B02B445D1AB9F1000F05D003994846A3
:108F7000D0470028E7DB0135089B002B79D09DF90D
:108F80004930002B29DBDFF870913B46187819F83F
:108F9000002052079B4603F101033FD49DF84A305D
:108FA000EF1B98065F4407D44246002A08F1FF38B9
:108FB0003BDC079B3B449F1A9BF800002E280AD1FC
:108FC0000399D0470028BEDBB8F1000F07F1010775
:108FD00031DC0BF1010B5D4638E0B94699F8000031
:108FE0007028C84609F1010913D1EF1B149D4744AD
:108FF0003D44EB1B002B34DC03993346424650467C
:1090000023F0A7FF00289EDB3844049E0546064453
:1090100065E00399D0470028E0DA94E706930399C6
:10902000D0470028069BB1DA8DE703993020D0475E
:109030000028B9DA87E703993020D04708F1FF38D4
:10904000C0E70399D0470028FFF67DAF287819F8CC
:1090500000305907A84605F10105F2D4A7EB0B072C
:10906000C4E703993020D0470028FFF66CAF0137E2
:10907000BFE79DF84A30DA0601D41B0706D50399ED
:109080003020D0470028FFF65EAF0135069B3BB18C
:1090900003999DF84B00D0470028FFF654AF0135E7
:1090A000A84406E003993020D0470028FFF64BAFD4
:1090B0000135A8EB0503002BF4DC039933463A464F
:1090C000504623F046FF0028FFF63DAF28449CE7BA
:1090D00003992020D0470028FFF635AF0135731BD8
:1090E000002BF5DCFFF793B91746C0E60DF15D03E1
:1090F000BDE600BF63480500054005000000000014
:109100002DE9F843D0E90738856903EB08042F34CB
:10911000A5420F46164619D8DFF87080A3FB080158
:1091200017A3D3E90023FEF799FF0346601BA0FBBA
:10913000080123F07F4412A3D3E90023FEF78EFF3A
:1091400020F07F403C603060BDE8F883DFF83C9061
:109150000BA3D3E90023A5FB0901FEF77FFF20F055
:109160007F4409480A2106A3D3E90023E8FB09014B
:10917000FEF774FF20F07F403C603060BDE8F8836C
:109180008D49FD1A0700000000166BF100CA9A3BDA
:109190009FED0D7B124B134A1348144910B483ED15
:1091A000007B9FED0B7B82ED007B9FED0B7B104BDB
:1091B0004FF0FF34002281ED007B04601A605DF8FF
:1091C000044B10F095BC00BFFFFFFFFFFF1F000026
:1091D00000000000000000001F0000000000000070
:1091E00080020020B81D00208C3100207802002071
:1091F0008431002000000000002800F037812DE9B4
:10920000F04FC74C94F85E30DA078DB000F16881FA
:10921000627F94F8293004EB820204EB8303166A20
:10922000DF6A0EB3354615F8020BC0F380100FF05D
:1092300001FB0368C6F802308388AB8033785B0695
:1092400006D5062128460DF02BFF002800F04A81A4
:109250003D4615F8020BC0F380100FF0EBFA0368DF
:10926000C7F802308388AB80337813F00E0F40F0DC
:10927000958063691BB10C200DB0BDE8F08F0FF035
:109280007DFF8146002800F03B810FF083FF82467E
:10929000002800F0328112F0E3FB0546002800F0C0
:1092A0003181D0F888004FF6FF73AB8405F1100BC5
:1092B000002800F01D8105F17C0205F178010DF018
:1092C000FBFEB5F8763023F4EF6323F0070343F495
:1092D0008C7343F00103A5F8763095F8373003F02E
:1092E0003F0363F07F0385F8373095F88E3023F025
:1092F000070385F88E3095F83C3023F00F034FF0CC
:10930000000885F83C304FF4C023C5F88E3128465C
:10931000C5E91288C5F88880A5F88C8085F8398061
:10932000A5F82A80C5F82E80C5F85080A5F8608180
:10933000A5F89481A5F88A8114F044FB85F864812E
:10934000C5F8689112F058FE95F89C3160F302035D
:1093500085F89C3112F056FE95F89C3160F3C503F8
:1093600085F89C3195F8623168F3410385F86231E4
:109370000121284613F0F8F905F1E00014F042F954
:10938000C4E9159AC4F814B0C5E9028885F80080CC
:109390002D6117F0F1FD002840F0A680237E012109
:1093A000C3F342030DF12B008DF82B300EF022F8A1
:1093B000024600285CD03946304611F0A7FE5949D4
:1093C000594BB4F85C70A0FB0101C0184FF00005C8
:1093D00051A3D3E9002341F10701C4E902552570E7
:1093E000FEF73CFE60600FF0E1F900F109083FB9BB
:1093F000357805F00F05A5F10105B5FA85F56D097C
:10940000207E636865F3000010F00105207636D0F9
:10941000464A0992002010600225454A454F0493B0
:109420000BAE019305920321CDE902000694434659
:109430000090089607972A460B950FF0B9F8314629
:109440000FF01EFFA0B93C4905914AF2D8330093B2
:10945000CDE90300CDE9010007970896069443463D
:10946000012203210B950FF087F82EE011F0EABDE1
:109470006369002B3FF4FFAE11F0BAFDFBE62B4A07
:109480002E48049303F2471306940295912113602A
:10949000A7FB000301FB0731264B0793244B0593E1
:1094A0004FF6FF730992022703930BAE1AA3D3E979
:1094B00000230B970896FEF7D1FD4346CDE90050F7
:1094C0003A46284603210FF073F831460FF0D8FED4
:1094D0000028CDD194F85E3043F0010384F85E306B
:1094E0000020C9E61220C7E611F082FD0320C3E682
:1094F00005F18000C5F88800DDE648460FF044FE1F
:109500000720B9E650460FF04BFE48460FF03CFEF0
:10951000F6E700BFAFF300808D49FD1A0700000099
:109520004432002000CA9A3B8C49FD1A3832002090
:1095300085B10300CD88030075AE0300002AE784DF
:1095400070B5037E8AB0C3F342030D460446012181
:109550000DF1230016468DF823300DF04BFF3146F8
:109560000246284611F0D2FD1F49204AA0FB0131D6
:10957000981841F107011AA3D3E90023FEF76EFD05
:1095800063689842054621D21B1A00220192184AAC
:109590000293184BA21AA3FB023202219209002364
:1095A0000A4409AE099114490591CDE90333032119
:1095B000D2B20696009318460FF05AF831460FF0D3
:1095C0005FFE38B9656000200AB070BDFBD9C21AD1
:1095D0000023DBE70C200AB070BD00BFAFF30080B2
:1095E0008D49FD1A0700000000CA9A3B8C49FD1AFC
:1095F00044320020ABAAAAAACD88030000000000D4
:1096000038B5194C9DF810E094F828C01CF00105FD
:1096100021D163F3420C4001237DA1834FEACE0E9A
:109620000EF0180E00F0200040EA0E0023F0380380
:1096300003430E4823759121A2FB000384F828C040
:1096400001FB023106A3D3E90023FEF707FDC4E9BD
:109650000800284638BD0C25284638BDAFF30080E9
:109660008D49FD1A07000000C01D0020002AE78474
:109670002DE9F043044600F1150190F82800237D00
:109680003F4DC0F3400060F386138DB023750FF09B
:10969000E1F8227DA38B3B48246102F07902002788
:1096A00022759121A3FB0002C4E90277277001FB18
:1096B000032131A3D3E90023FEF7D0FC324A636AC9
:1096C0002362651BA2FB05250933C5F347159842A4
:1096D00005EB450898BF27624FEA88082B4F8EBFDD
:1096E000636003466060064647F808300FF05EF896
:1096F00047440DF12C090997CDF820900694A38BCF
:1097000000F109081F480027A3FB000203979121DD
:1097100001FB0321636804931D4B07931D4B0593C5
:1097200002230B9314A3D3E90023FEF797FC104602
:1097300019464FF47A720023FEF790FC0435EDB21F
:10974000CDE90160032143462A46009738460EF0D2
:109750002FFF49460FF094FD40B994F8283043F0AC
:10976000010384F828300DB0BDE8F0830C200DB063
:10977000BDE8F083AFF300808D49FD1A07000000BB
:10978000C01D0020002AE784A38B2EBABC32002023
:10979000CD8803006DB603002DE9F04F05468BB070
:1097A0008B46012002219946144619F00BFB00223A
:1097B0000221824601200DF0CFFC2F494FF4D472D4
:1097C00028460DF059FC461D2C4B0093F6B201952E
:1097D0004B463246012100200EF0A4FF10F0FD0F91
:1097E00042D1274BA4FB0348204621A3D3E9002301
:1097F0004146FEF733FC089506956B680493214BB0
:1098000020F07F47A7FB0331E01A1F4B07934FF06F
:1098100007021E4B059302FB07114FF6FE7368EB20
:10982000010103934FF47A720023FEF717FCCDF881
:1098300000B0CDE901704B463246012100200EF008
:109840009BFE10F0FD0F0DD1BAF1000F02D10BB04D
:10985000BDE8F08F0122022110460BB0BDE8F04FA9
:109860000DF07ABC00DEEFE700DEBAE7AFF3008070
:109870008D49FD1A07000000F01D002021B90300EA
:1098800000CA9A3B8D49FD1A09B903003D03040043
:109890002DE9F0418468A28C4FF6FF739A428CB098
:1098A00000F08E800546204614F008FB2B7D012B2E
:1098B00000F00D81022B00F00081002B00F0DF8012
:1098C00094F86471002F40F0FB802B8AE68D94F9A8
:1098D0003720CDE90A77002B75D0002AC0F24181EC
:1098E0000023A4F89031AB7CA28D03F00303551C38
:1098F000012BADB200F0BF80B4F89431002B00F022
:10990000EC80AB4240F246815B1B9BB2062BA4F875
:1099100094314FF000028CBF00230123E2851F46E3
:1099200094F83C2063F3820284F83C2029460DF130
:109930002702204614F082F8743000F02581B4F834
:109940008E312BB1AB4240F2FD805B1BA4F88E310F
:10995000B4F88A312BB1AB4240F2EB805B1BA4F828
:109960008A31E58D17B9AE4200F0DA800135ADB22B
:1099700094F8D13013F0010640D1DDE90A130A460C
:10998000002B40F0DD80002900F0CC801E461846F8
:10999000A28C24690694CDE9035705329C4D0290B0
:1099A000CDE90016D2B20121002005950EF060FE2F
:1099B00010F0FD0F04D00FF08DFC844240F0FB80CE
:1099C0000CB0BDE8F081002AB8BF84F8D570AB7C3C
:1099D000A28D03F00303551C012BADB24BD0B4F89C
:1099E0009031002B88D0AB4240F2D9805B1BA4F8A9
:1099F0009031B4F89431002B83D191E794F937205A
:109A00006FF30003002A84F8D130C0F2818094F80B
:109A10007600C0F3C00100F0070017F031F9B4F888
:109A20006E20B4F86C301344E28B03F23F131344FE
:109A30000344784A78480721E3FB0021104672A3CB
:109A4000D3E90023FEF70AFBDDE90A1320F07F4289
:109A500060686260904235BF161A801A00200026A6
:109A60000A46002B94D156EA010C91D1002859D016
:109A700019461E468CE70023A4F8943150E794F869
:109A80008E3003F01803182B7FF41AAF218DB4F831
:109A90008C218B1D9A42C4BF931F5B1AB4F88811A6
:109AA000CCBF9BB21346994200F09480A4F8883151
:109AB000A4F88A31A4F88E2102E73D2784F8647166
:109AC000394620460CB0BDE8F04112F055BB0023EA
:109AD000A4F88E31A4F88A31F2E6E28C052A97BF09
:109AE000013240F2E2434FF4FA7392B203FB02F206
:109AF000B4F8923142F2107101FB0323013BB3FB36
:109B0000F2F39BB2A4F89431002B7FF4FAAE07E78E
:109B100094F87700012100F0070017F0B3F87EE712
:109B20003D4625E7002D3FD00026114630463346FE
:109B30002EE70023A4F88A31204614F011F810E72C
:109B4000304625E70FF06CFB014680B30023A4F8F4
:109B50008E31A38CC3801B23037100680FF032FB8E
:109B6000F6E694F8D53043B3013B84F8D53004F1E0
:109B7000E008404613F088FD90B3404613F084FDA2
:109B800090B30023E385ABE69DF82710204612F042
:109B9000F3FA15E70821204612F0EEFA10E73E210D
:109BA000204612F0E9FA0BE7002FBDD108E70123A8
:109BB000A4F88E31CCE600DE02E70AAA0BA92846FB
:109BC000FFF79EFADDE90A231343D0D0237884F807
:109BD000D530CCE7B4F88E1100297FF471AE67E779
:109BE000FF2012F08BFAC8E70246D4E91E010DF0FF
:109BF0007BFA0028C5D194F83C301B0744BF238D65
:109C0000E3856DE6AFF300808D49FD1A0700000083
:109C100061B903008C49FD1A00CA9A3B000000009C
:109C20002DE9F04F87B0B0F86071BDF84C9000910D
:109C3000CDE90423B0F82431BDF840A01F44BFB2E1
:109C40000446A7EB090390F87600D4F81C819EB275
:109C5000BDF844300193C0F3C001BDF8483003960D
:109C600000F00700029317F00BF8E58C052D40F289
:109C7000A48015FB06F5ADB240F2E24BBAF1050F38
:109C800040F28F80B4F86E20B4F86C30134403F2C5
:109C9000D5130344764A77480721E3FB00214FF0B0
:109CA0009613E3619623104623846FA3D3E9002320
:109CB000FEF7D4F9564620F07F4040F2E2430BFB1A
:109CC00005F203FB06F6531E3344B3FBF6F31FFA0B
:109CD00083FB606006FB0BF082425D4653D2654910
:109CE000801AA0FB010160A3D3E90023FEF7B6F9B7
:109CF00020F07F408044B4F82421B4F86031A9EB0F
:109D000007094D44ADB213442B44A4F86031638D70
:109D100013441D4494F837306585DB0955D100DEC6
:109D200000273546019B2385029BA4F892313146DA
:109D30002046A4F826A013F0ADFE4F4B218D3344EE
:109D4000881DB3FBF6F39AB29042A4F88C2104D29A
:109D5000C1F57F41FA310A4492B2009BA4F88821F0
:109D600013B10023A4F8943143462A4639462046CD
:109D7000FFF712FD94F8623143F0010384F8623179
:109D800007B0BDE8F08F121A3A48A2FB000136A3D3
:109D9000D3E90023FEF762F920F07F40A8EB00082A
:109DA000A9E74FF096130AF10106E3619623238495
:109DB000B6B20A204FF4FA7381E7039B013515FB15
:109DC00003F5ADB24FF4FA7B58E7216CA36C294F31
:109DD00001FB0233039A01FB1233A3640023C4F88E
:109DE000DC3017F01DF9054694F8D400C0F34200AA
:109DF00017F018F9054406FB05F5204B1C4805F53E
:109E0000742505F23F25A3FB0535AD0CA36C256435
:109E10000BFB05FB72085B44963A934228BF13463E
:109E2000C4E91123049B40F2E24909FB03F3072133
:109E30002365EBFB07010CA3D3E90023FEF70EF922
:109E40000F4B059AA8EB0008A3FB0230800A09FB20
:109E500000F0A0FB070104A3D3E90023FEF7FEF8FE
:109E6000751B20F07F475DE78D49FD1A0700000054
:109E70008C49FD1A00CA9A3B7FC3C90183DE1B438C
:109E80005917B7D1000000002DE9F04F0D460968C1
:109E9000B0F82EC0D1F800900146144651F82EAB10
:109EA00052F8086B8F788346D0F81E00BBF822105A
:109EB0009BF81C80A4F808C09770DBF82A20626029
:109EC00091B0DBF83A20C4F82220ADF83C109BF8A2
:109ED0003E100E9084F8261010AB13E9030004F135
:109EE00022020C90ADF83410104605210DF082FAD4
:109EF00094F8272000F03F0060F3050284F8272043
:109F00009BF83F20C2F3040184F82810BBF83410FA
:109F1000E1820128C8F380180DD902F01F021B321C
:109F200002F01F020B2A06D889B2063989B240F620
:109F30007A42914219D90021C9F8081094F82C20CE
:109F400061F3000284F82C200125DBF80C408BF82B
:109F50000450504659460FF029F9206825712146D2
:109F600011B0BDE8F04F0FF02DB92A680021516003
:109F7000BBF836202283E78ABBF832300A9340F2DE
:109F8000E242304602FB07F713F098FD9BF83F10C2
:109F900096F8D400490961F3430086F8D40017F01D
:109FA0003FF80B9096F8D400C0F3420017F03AF84F
:109FB0000B99084407FB00F0994900F5742000F262
:109FC0003F20A1FB00107908800C96392063616363
:109FD0009BF8311040F2E24201FB02F26264BBF8EE
:109FE0003820A6F892213946304613F053FD8D4AA9
:109FF0008D49C6F898113A44B2FBF7F290B2A6F830
:10A000008C01218B01F1060C604504DDC1F57F4117
:10A01000FA31014488B25946A6F8880111F81C2F7C
:10A02000C907C2F3401200F1EC80BDF83410ABF860
:10A0300023100C988BF81E804FF48071CBF81F0012
:10A04000ABF81C10E18AABF82610218BABF8281076
:10A05000B6F89211ABF82A1096F8D4100B92C1F30F
:10A0600042018BF82C10304611F006FDA082ABF8AF
:10A070000600D5F80480504659460FF097F8A38A99
:10A080000B9AA8F806301C23D8F800A088F80430F2
:10A09000002A40F0A28088F81C20414650460FF06C
:10A0A00091F894F86700B4F85CA0B4F85E800121E0
:10A0B00000F0070016F0E6FDD04408F2D51800EBDA
:10A0C00008038246DFF86C8158480721E3FB08014A
:10A0D0004FF09613C4E903334FA3D3E90023FDF7F0
:10A0E000BDFF20F07F407060EB680A98226B40F261
:10A0F000E24101FB003404F2B3440221A41A01201E
:10A10000BF1A00220DF028F8484611F0B1F9A4EB6F
:10A110000A040246A4FB080114463FA3D3E9002326
:10A12000FDF79CFFCDF80490AB684149009120F009
:10A130007F4AA21C363BD2B25344012100200EF0CC
:10A14000F1FA01285FD099F81830DB0751D4304676
:10A1500011F092FC374BA7FB039804462EA3D3E9DA
:10A16000002348464146FDF779FF334BAD68334A3B
:10A17000079220F07F47A7FB0331B9EB0300304B78
:10A1800005934FF4F8730696089373684FF0000B2D
:10A19000CDE903B34FF0070303FB071168EB01019F
:10A1A0004FF47A720023FDF759FF0534363DE4B2CF
:10A1B000CDE90170CDF800A02B462246012158467A
:10A1C0000EF0DAF910F0FD0F23D101220221104622
:10A1D00011B0BDE8F04F0CF0BFBF94F8273043F04A
:10A1E000400384F82730201D16F0A2F901222085B3
:10A1F00051E7002301220093184611460EF050FA51
:10A20000A5E700DE11E70FF065F881459BD000DE81
:10A2100099E700DED9E700BF8D49FD1A070000006D
:10A2200083DE1B437FC3C901404B4C008C49FD1AA0
:10A23000C503040000CA9A3B8D49FD1A15030400AA
:10A240003D03040000000000F0B5C468636883B0FB
:10A250000546002B40D118F08FF9082018F0B2F90C
:10A260000021084618F0A0F900222521082018F046
:10A27000DDF9374B019301A818F0C4F9354940F2D4
:10A280005B6018F07DFA237AC3F3420262F306138F
:10A290002372204617F04AF827682E68384616F0D1
:10A2A000A7FC06446A6806F10901012018F0A2FB28
:10A2B00018F090FC204611F0E7F8811C3246C9B234
:10A2C000384616F097FC054698B9204616F05EFC15
:10A2D00068B9002003B0F0BD93F82C309B07BAD0CA
:10A2E0001D48214618F01CF918F0F2F9F1E700DEDC
:10A2F000EFE71A4A1A491B4840F2114322F040FE88
:10A30000194B0721A5FB030301FB05310EA3D3E97C
:10A310000023FDF7A3FE15490246154822F030FE42
:10A32000002585F31188BFF36F8F0323184602DFE2
:10A330001048214618F0F4F818F0CAF96FF08B00B5
:10A34000C8E700BFAFF3008000CA9A3B00000000DE
:10A35000D6BE898E55555500350D0400443C050088
:10A36000903C0500E43A05008D49FD1AC03C05000B
:10A37000943C0500311004002DE9F041C4682379B4
:10A380006FF300038CB023710F46054618F0F4F804
:10A39000082018F017F90021084618F005F90820E0
:10A3A0000022252118F042F901200FF033F800288F
:10A3B00064D01C3018F064F9494B0B930BA818F0CB
:10A3C00021F9484940F25B6018F0DAF92079C0F3CE
:10A3D0004100253016F020FC4348214618F0A0F833
:10A3E00023799B062DD5962018F0F8FA00231A46FB
:10A3F0001946184618F02AFAD4F800802E6840460C
:10A4000016F0F6FB06446A6806F10901002018F010
:10A41000F1FA18F0DFFB18F089FA204611F0E8F99C
:10A42000011DC9B24046324616F0E4FB054648BB62
:10A4300057B1204616F0AAFB10BB00200CB0BDE8B7
:10A44000F08118F063FAD7E72369002BF1D0274D8C
:10A450000795274D059540F2F3150093CDE9037755
:10A46000CDE90177069433460322394608950EF06C
:10A4700083F810F0FD0FDCD000DEDAE700DE98E7AD
:10A4800000DEDAE71B4A1C491C4840F2E51322F0C3
:10A4900077FD1B4B0721A5FB030301FB05310EA331
:10A4A000D3E90023FDF7DAFD16490246164822F0EB
:10A4B00067FD002585F31188BFF36F8F03231846CE
:10A4C00002DF1248214618F02BF818F001F96FF05E
:10A4D0008B00B3E7AFF3008000CA9A3B0000000096
:10A4E000D6BE898E555555000519040099160400ED
:10A4F000A9160400CC3C0500903C0500E43A050098
:10A500008D49FD1A183D0500943C050025170400EF
:10A510002DE9F043C468A28A4FF6FF739A4283B0D4
:10A5200000F0FF80064617F08FFB3389628B208C8A
:10A53000A3831A4492B2104494F82730E28380B285
:10A54000411C21845D064FF00001618304F122016A
:10A5500000F1A78003F03F000B4694F8281000900C
:10A5600004F1290015F09CFF0546D4E90C31A26BDB
:10A57000A08BA36303FB0022E36B8A4294BF9B186A
:10A580005B188B4228BF0B46626C216CE3630A4464
:10A5900094F867306264002294F82C10226494F8D6
:10A5A0007E20C3F3020363F3061112F0040284F861
:10A5B0002C1000F0878017F0DFFF082018F002F859
:10A5C000201D18F01FF82389A17A40F25B6043EA4E
:10A5D000014118F0D5F8284616F01EFB21465848D0
:10A5E00017F09EFFA08918F0F9F994F8662094F806
:10A5F0006700C2F3C003002102F0070200F0070069
:10A6000018F024F9204617F0B9FBD4F80080376819
:10A61000404616F0EDFA0744726807F10901002080
:10A6200018F0E8F9814618F0A9FA002018F0C0FAED
:10A63000E36B94F8670003F12F02636C00F00700EE
:10A64000012103EB420518F02FF84D44054494F81E
:10A65000670000F00700022832D004280CBF4FF436
:10A66000BC73282301211D4418F020F8284418F059
:10A6700077FAA18A05313A46C9B2404616F0BAFACD
:10A680000546B0B1B37A13F0020629D000252D4853
:10A69000214617F045FF18F01BF8284603B0BDE827
:10A6A000F0830A4603F03F03218D15F045FF054670
:10A6B0005BE7204616F06AFA002839D10025ECE75E
:10A6C0001823CFE7D4E91A010CF00EFD00287FF41F
:10A6D00072AF94F87E3043F0040384F87E306AE76A
:10A6E000194A1A491A4840F2591322F049FC1948EC
:10A6F0000721A5FB000301FB05310FA3D3E90023CC
:10A70000FDF7ACFC14490246144822F039FC86F3EC
:10A710001188BFF36F8F0323184602DF6FF08B059C
:10A72000B5E70F48214617F0FBFE17F0D1FFC5E74C
:10A7300000DEC3E7AFF3008000CA9A3B00000000D0
:10A74000A51F0400150D04002C3D0500903C0500DC
:10A75000E43A05008D49FD1A803D0500943C050052
:10A76000350D04000000000007EE901AF8EEE77ABD
:10A7700070B567EE807A064617EE900AFDF7C8FCC2
:10A780000D4D80FB05450AA3D3E900232046294649
:10A79000FDF714FC094A3060002320462946FDF7E6
:10A7A0000DFC064A0023FDF709FC726070BD00BF76
:10A7B0000010A5D4E80000003AA3950040420F0025
:10A7C00007EE901AF8EEE77AB2EE047A67EE807A36
:10A7D00070B5C7EE877A0646114D17EE900AFDF761
:10A7E00097FC80FB05450AA3D3E9002320462946B0
:10A7F000FDF7E4FB08A3D3E9002330602946204697
:10A80000FDF7DCFB074A0023FDF7D8FB726070BD43
:10A8100000209BF35E10000080A8120100000000E1
:10A82000D8EF2F0040420F0070B50446C1B307298E
:10A830004BD153681068284AD917C0FB0231012B4D
:10A8400071F100023EDB2548181841F1000120A3F8
:10A85000D3E90023FDF7B2FB022826691AD010289D
:10A860001AD004281AD008282CD1032529462046BE
:10A8700026F0A2FF00281FDB194B33F815303D22CC
:10A88000A3FB023207EE903AF8EEE77AC6ED037AC0
:10A89000002070BD0025E9E70125E7E70225E5E78F
:10A8A0001288104B33F8020B824208D1C9B22046FD
:10A8B0001AF0FEFE0028EBDA6FF00400E9E7013140
:10A8C0000C29EFD16FF01500E3E76FF08500E0E7AA
:10A8D0003AA395000000000040420F009DD14A00BD
:10A8E000184305002043050070B50D46032D1146A1
:10A8F00004461A4609D0072D0BD03B4A3B4802219B
:10A9000023F02BF86FF0850037E0BDE87040FFF7CB
:10A910008BBF002951D00729F4D159681D68344BE9
:10A92000C8170A46C5FB0320B425A2FB0531012A3E
:10A9300005FB001170F1000020DB2E48181828A339
:10A94000D3E9002341F10001FDF738FBFA281DD0BF
:10A95000B0F5FA7F1CD0B0F57A7F1BD0B0F5FA6F56
:10A960001AD07D2839D1042529462046266926F0AB
:10A9700033FF002812DA6FF0040070BD1E4818186B
:10A9800061F1000116A3D3E90023DDE70025EBE721
:10A990000125E9E70225E7E70325E5E7174B33F84B
:10A9A000153041F21712A3FB023207EE903AF8EE8F
:10A9B000E77AC6ED077A0020DFE71A88104B33F8F4
:10A9C000020B824206D1C9B220461AF055FE002879
:10A9D000F1DAD0E701310C29F1D16FF01500CCE7A5
:10A9E000D8EF2F00000000008B680500FC30050048
:10A9F00040420F00ECF717001408E8FF0E43050073
:10AA000020430500000000002DE9F04F2DED028BE2
:10AA1000D3B00C46CDE9080192460B931FF07CFDA4
:10AA2000036813931846FCF76BFBA38912901D066D
:10AA300003D52369002B00F08A870023CDF810A0EE
:10AA4000CDE92733CDE91533CDE917330E931493B0
:10AA50000793049B9FEDA27B1B7829AA8DED107BA9
:10AA600026929346002B00F0EB81DDF810A004E065
:10AA70001AF8013F002B00F01C81252BF8D1049B14
:10AA8000BAEB030540F01A819AF80030002B00F071
:10AA9000D78100239AF801508DF87B3006930AF194
:10AAA000010A4FF0FF3903930AF1010AA5F12003CF
:10AAB0005A2B00F23B81DFE813F0A502390139017E
:10AAC0009E023901390139016A00390139016602F2
:10AAD000780239017102850239017E025B005B0058
:10AAE0005B005B005B005B005B005B005B003901AF
:10AAF000390139013901390139013901CF013901F0
:10AB000034028700CF01CF01CF013901390139016A
:10AB10003901C20239013901B50039013901390160
:10AB20003E023901B0023901390101073901390109
:10AB3000390139013901390139013901CF013901AF
:10AB400034028B00CF01CF01CF01F2028B008000D5
:10AB50003901E8023901DA02B900C902800039017D
:10AB60003E027D00250739013901280739017D00A2
:10AB7000A5F1300300221AF8015B02EB820203EB1D
:10AB80004202A5F13003092BF5D906928EE7089D04
:10AB900028461FF0C1FC436817931846FCF7B0FA2B
:10ABA0001890044628461FF0B7FC83681593002CC4
:10ABB00040F070869AF8005076E7039B9AF80050B0
:10ABC00043F0200303936FE7039B43F010030393C9
:10ABD000039B9C0640F194810B9B073323F00703F2
:10ABE0001A46596852F8083B0B920A460029C0F2EF
:10ABF000BB85B9F1FF3F00F0F587039921F080068E
:10AC000053EA020100F05A850A2B72F1000180F02C
:10AC10007C8730338DF847310DF247130396049348
:10AC2000012634E0039B43F010030393039B13F0CE
:10AC3000200200F054810B9B073323F007031946D1
:10AC40005A6851F8083B0B91039921F48066002162
:10AC50000020B9F1FF3F8DF87B0000F0938226F0D1
:10AC60008000039053EA020040F08B82B9F1000F9C
:10AC700040F0C187002940F0268516F001061BBF71
:10AC800030238DF8473152AB0DF247130493002364
:10AC9000B145CDE90C3349469DF87B200A93B8BFF6
:10ACA000314605910F93002A52D0059B013305933D
:10ACB0004EE0049BBAEB030500F0C280049B289F82
:10ACC000CBE90035279B01332F44072B2897279387
:10ACD0000ADC0BF1080B079B2B440793D4E600BF5B
:10ACE0000000000000000000DDE9080126AA20F0B5
:10ACF0003BF880B90DF1A40BEDE7DDE9080126AAC8
:10AD000020F032F8002800F08A800A9B1BB10A99D3
:10AD100008981FF003FB099B9B89590601F1E58206
:10AD2000079853B0BDEC028BBDE8F08F002D00F00A
:10AD3000878000228DF8E4508DF87B200123CDE937
:10AD40000C2205931E4639AB0A9291460F9204934A
:10AD5000039B13F0020302D0059902310591039978
:10AD600011F0840405D1DDE905010F1A002F00F36D
:10AD70004183289F8AB1279A0DF17B010132013767
:10AD8000CBF80010072A4FF0010128972792CBF843
:10AD9000041000F387830BF1080B83B1279B1FAAD4
:10ADA00001330237CBF80020072B4FF0020228971F
:10ADB0002793CBF8042000F383830BF1080B802C3E
:10ADC00000F0FC81A9EB0608B8F1000F00F3428205
:10ADD000039BDA0500F16D81049BCBF80030279BC3
:10ADE000CBF804600133F519072B2895279300F35E
:10ADF000AA820BF1080B039B580705D5DDE9052353
:10AE00009C1A002C00F36E83DDE9062305998A4223
:10AE1000ACBF9B185B180793002D7FF46EAF002327
:10AE200027930A9B1BB10A9908981FF077FA0DF136
:10AE3000A40BCDF810A0049B1B78002B7FF415AE5B
:10AE4000289B002B3FF467AF099C089826AA21464F
:10AE50001FF08AFFA38960E70B9B073323F00703EA
:10AE6000B3EC027B57EC176B0B9327F000431B935B
:10AE70008DED1A7ADDE91A01AE4B4FF0FF328DED00
:10AE8000107BFDF75DF8002840F09B84DDE91A0196
:10AE9000A84B4FF0FF32FDF735F8002840F09184C1
:10AEA0000022002330463946FDF722F8002840F002
:10AEB0005B879DF87B20039B9F4C23F080030393CB
:10AEC0009E4B472DC8BF1C4603210023CDE90C3300
:10AED00004940A9305910E4699460F93E3E60B9965
:10AEE00051F8043B0B91039911F010017FF4ACAEC3
:10AEF000039A12F0400000F019879BB20A46A3E6BD
:10AF00000B9A52F8043B0B92039AD00600F1558439
:10AF1000039A510640F14D8443F3C03211461BB2EF
:10AF200064E60B9B002253F8041B8DF87B208DF800
:10AF3000E4100B9302E70B9F57F8043B04930026A1
:10AF40008DF87B60002B00F09E86B9F1FF3F00F08A
:10AF50000D8504984A463146FCF7B2FA0A9000285B
:10AF600001F025810A9B049A0B97B1469E1A26EAA6
:10AF7000E673CDE90C999DF87B200593CDF82890D8
:10AF8000CDF83C908FE60B9B53F8042B0692002AD9
:10AF900080F20A84069A0B9352420692039B9AF817
:10AFA000005043F0040303937EE52B239AF80050EE
:10AFB0008DF87B3078E5039B9AF8005043F08003CE
:10AFC000039371E5524612F8015B2A2D01F01982B4
:10AFD000A5F13003092B92464FF000093FF666AD0C
:10AFE0001AF8015B09EB890903EB4909A5F1300364
:10AFF000092BF5D95AE5039B9AF8005043F0010359
:10B00000039351E59DF87B309AF80050002B7FF4B4
:10B010004BAD20238DF87B3046E5039B43F01006B3
:10B0200016F0200200F089830B9B073323F00703FF
:10B0300019465A6851F8083B0B91012108E6039B19
:10B040009AF8005043F0080303932DE50B9A039BF5
:10B0500043F0020652F8043B0B9247F63002ADF87B
:10B060007C20374A1492022100227825F0E5039BC8
:10B070009E0640F1FD830B9B079A1B681A60D2174E
:10B080005A600B9B04330B93D3E69AF80050039B52
:10B090006C2D00F0538443F01003039304E59AF8F9
:10B0A0000050039B682D00F0408443F0400303935D
:10B0B000FAE4652D40F35381DDE9100100220023FD
:10B0C000FCF70CFF002800F04982279B1D4ACBF8B3
:10B0D0000020013301370122072B28972793CBF853
:10B0E000042000F38E850BF1080B209B0E9A9342EF
:10B0F00004DB039BDB0701D43D467CE6129B139ADD
:10B10000DD19CBE90023279B28950133072B2793D3
:10B1100000F3FE830BF1080B0E9B5C1E002C7FF7E7
:10B120006AAE102C279B084F40F37885DDE908892B
:10B13000102611E0FFFFEF7F084105000C410500DC
:10B1400018410500903C0500484105000BF1080B33
:10B15000103C102C40F3628501331035072BCBE9EE
:10B160000076CDE92735F1DD26AA494640461FF095
:10B17000FBFD00287FF4C9ADDDE927350DF1A40BF7
:10B18000E6E7039E01293FF43FAD022900F07681F6
:10B1900052AC03F00701DB0843EA4273D2083031B6
:10B1A00053EA0207204604F8011DF2D1F707049480
:10B1B00000F1768252AB03961E1B68E5DDE905239C
:10B1C000A3EB0208B8F1000F7FF7FCADB8F1100F48
:10B1D0003A46279BC04F29DD19951C961024DDE9BE
:10B1E0000865194606E0A8F11008B8F1100F0BF138
:10B1F000080B18DD013110320729CBE90074CDE9C5
:10B200002712F0DD26AA294630460DF1A40B1FF0C7
:10B21000ABFD00287FF479ADA8F11008B8F1100F4C
:10B22000DDE92712E6DC199D1C9E0B460133CBF8A5
:10B230000070072B08EB0207CDE92737CBF8048015
:10B2400000F30E85A9EB0608B8F1000F0BF1080B0F
:10B250007FF7BEADB8F1100F3A46279B9E4F2EDD0B
:10B260005946089CC3464FF01009B84637462E464B
:10B27000099D06E0ABF1100BBBF1100F01F10801C5
:10B2800018DD013394481032072BC1E90009CDE9DC
:10B290002732EFDD26AA294620461FF065FD00284B
:10B2A0007FF433ADABF1100BBBF1100FDDE92732AA
:10B2B00029A9E6DC35463E464746D8468B4601334B
:10B2C000CBF80070072B08EB0207CDE92737CBF846
:10B2D000048000F325820BF1080B79E5279B7F4959
:10B2E000CBF8001001337D1C0121072B28952793F3
:10B2F000CBF8041000F34A850BF1080B002A40F04C
:10B30000E084039B0E9A03F0010313433FF473ADF3
:10B31000129B139A5919CBE90023279B28910133DB
:10B32000072B279300F3EF850BF1080B049ACBF85A
:10B3300000200E9ACBF8042001335518072BCDE9D5
:10B3400027357FF756ADDDE9080126AA1FF00CFD71
:10B3500000287FF4DAAC289D0DF1A40B4BE50E9B81
:10B36000012B0BF1080640F37A81049BCBF80030E7
:10B37000279B013301370122072B28972793CBF80E
:10B38000042000F3F981129A03F10108139BD519E7
:10B39000B8F1070FC6E90032CDE9278500F3F8813F
:10B3A00008360E9BDDE9100103F1FF39002200236E
:10B3B000FCF794FD002840F08B81049CC6F80490B3
:10B3C00008F1010801344D44B8F1070FCDE9278594
:10B3D000346000F359810836169A726008F101034F
:10B3E0001544072B22AACDE927353260ABDC06F1E4
:10B3F000080B00E5102FDDE92721DFF8E4802DDDC3
:10B4000019934346CDE91C45B046DDE908451E4683
:10B4100004E0103F102F0BF1080B19DD0132103141
:10B420001023072ACDE92721CBF80060CBF80430A0
:10B43000EFDD26AA294620460DF1A40B1FF094FC4F
:10B4400000287FF462AC103F102FDDE92721E5DCF6
:10B45000DDE91C453046199B464680460132394499
:10B46000072ACBF80080CBF804702891279200F3CC
:10B47000A9839DF87B200BF1080B7AE4149C52A958
:10B4800003F00F001B09205C01F8010D43EA027371
:10B49000120953EA0200F3D152ABCDE903615E1AFF
:10B4A000FFF7F5BBDDE9080126AA19931FF05CFC44
:10B4B00000287FF42AAC289F199B0DF1A40B6CE4A3
:10B4C000DDE9080126AA1FF04FFC00287FF41DAC1F
:10B4D000289F0DF1A40B72E448410500903C050043
:10B4E00058410500102C279BDFF8CC8323DD47460D
:10B4F000DDF82490DDF82080102604E0103C102CAC
:10B500000BF1080B16DD01331035072BCBE9007664
:10B51000CDE92735F2DD26AA494640460DF1A40BB8
:10B520001FF022FC00287FF4F0AB103C102CDDE96A
:10B530002735E8DCB84601332544072BCBE90084E6
:10B54000CDE927357FF760ACDDE9080126AA1FF0B9
:10B550000BFC00287FF4D9AB289D55E4209A002AE3
:10B560007FF7BCAE0C9E0E9B049A9E42A8BF1E465F
:10B57000002E134419930BDD279B01333744072B0F
:10B58000CBE900262897279300F39F850BF1080B42
:10B590000C9D002EA8BFAD1B002D00F3EF81049B76
:10B5A0000C9A13449946039B5E0500F10C82209C83
:10B5B0000E9B9C4203DB039AD50740F18E84129BBD
:10B5C000139ADD19CBE90023279B28950133072B1C
:10B5D000279300F3DE850BF1080B0E9B1C1B199BB8
:10B5E000A3EB0906A642A8BF2646002E0DDD279B29
:10B5F000CBF8009001333544072BCBF80460289535
:10B60000279300F3E0850BF1080B002EA8BFA41BC5
:10B61000002C7FF7F0AB102C279BA64F40F3FE8247
:10B62000DDE90889102605E00BF1080B103C102C11
:10B6300040F3F48201331035072BCBE90076CDE9D6
:10B640002735F1DD26AA494640461FF08DFB00282C
:10B650007FF45BABDDE927350DF1A40BE6E7039B37
:10B66000DC073FF582AE049BCBF80030279B03F14B
:10B6700001087D1C0123B8F1070F2895CDF89C80A7
:10B68000CBF804307FF7A8AEDDE9080126AA1FF049
:10B690006BFB00287FF439ABDDE9278529AE9BE6FB
:10B6A000302900F0C882049A03963023023802F849
:10B6B000013C52AB1E1A0490FFF7E9BAB9F1000F32
:10B6C0007FF4A7AA039652AB4E460493FFF7DFBA66
:10B6D0000E9B012B7FF780AE112B764F40F3E48257
:10B6E00043461024DDE9088B06E00836A9F110096D
:10B6F000B9F1100F40F3D78201331035072BC6E99B
:10B700000074CDE92735F0DD26AA594640461FF0E2
:10B710002BFB00287FF4F9AADDE9273529AEE5E700
:10B72000DDE9080126AA1FF01FFB00287FF4EDAA1F
:10B73000289F0DF1A40BFFF74BBB0B9951F8043B6D
:10B740000B9116F010010CD116F0400004D00A46FF
:10B750009BB20121FFF77CBA16F400721CBFDBB26A
:10B7600002460121FFF774BA5B42039E62EB42027C
:10B770002D200121FFF76DBADDE9080126AA1FF08F
:10B78000F3FA00287FF4C1AADDE9273729AEFAE5EC
:10B79000DDE9080126AA1FF0E7FA00287FF4B5AA20
:10B7A000DDE9278529AEFCE59AF800500B93FFF7F9
:10B7B0007BB9039A920500F1A083DA171146FFF7CF
:10B7C00015BADDE9100102460B46FCF7B9FB00286B
:10B7D00040F0CC85612D00F09584412D00F003856B
:10B7E000B9F1FF3F00F0AA8325F02003472B04D1D5
:10B7F000B9F1000F08BF4FF00109DDE91001039C0A
:10B80000002944F480720592C0F2B584002341EC13
:10B81000180B19930A93A5F14103252B00F2C4825A
:10B82000DFE813F09603C202C202C2028F03930341
:10B83000C202C202C202C202C202C202C202C202E8
:10B84000C202C202C202C202C202C202C202C202D8
:10B85000C202C202C202C202C202C202C202C202C8
:10B86000C202C202C202C202C202C2028F03930318
:10B87000039BDD0600F10182039B5C0600F1378328
:10B88000039B980540F1F9810B9B079A1B681A707E
:10B89000FFF7F7BB159B9AF80050002B3FF404A963
:10B8A0001B78002B3FF400A9039B43F480630393B0
:10B8B000FFF7FAB84841050058410500BD4B149305
:10B8C000039B13F0200200F002810B9B073323F04F
:10B8D000070319465A6851F8083B0B910398C107B2
:10B8E0000AD553EA020107D040F00201039130214A
:10B8F0008DF87D508DF87C10039921F4806602212B
:10B90000FFF7A6B9039EFFF78BBBAB4B1493D7E7AA
:10B91000DDE9080126AA1FF027FA00287FF4F5A91F
:10B92000289D0DF1A40BFFF7F7BB43F400739AF8C1
:10B93000015003930AF1010AFFF7B6B843F0200360
:10B940009AF8015003930AF1010AFFF7ADB808987D
:10B9500040211DF02DFF099B18601861002800F0A0
:10B96000C184099A40235361FFF767B804980B9785
:10B97000FBF7C6FBB1460646FFF7F9BA102D3A466B
:10B98000279B8E4F40F3E181DDE90848102605E052
:10B990000BF1080B103D102D40F3D781013310320D
:10B9A000072BCBE90076CDE92732F1DD26AA414607
:10B9B00020461FF0D9F900287FF4A7A9DDE9273236
:10B9C0000DF1A40BE6E70D99CDF870A05A46384664
:10B9D0007A4EDDF854A0189BDDF824B04F464FF0A6
:10B9E0001008DDF83C9081B3B9F1000F00F0FD8044
:10B9F00009F1FF391799C2E9001327990131184459
:10BA000007292890279173DC0832199C9AF80010B6
:10BA1000E51B8D42A8BF0D46002D0CDD2799013195
:10BA200028440729C2E900752890279100F309816D
:10BA30009AF800100832002DACBF4C1B0C46002CAD
:10BA400012DC0F440D990029CED1B9F1000FCFD1EE
:10BA5000199BCDF854A0B9469945DDF870A09346DE
:10BA6000074628BF9946A2E5102C279940F39084F9
:10BA7000089D04930C9604E0103C102C02F108027F
:10BA800015DD013110300729C2E90068CDE9271022
:10BA9000F2DD26AA594628461FF066F900287FF4F1
:10BAA00034A9103C102CDDE9271029AAE9DC049BFD
:10BAB0000C9D1560013120440729CDE92710546001
:10BAC00000F310839AF8001008320F44BAE70B997C
:10BAD00051F8043B0B91039911F010017FF4FEAE75
:10BAE000039A12F0400000F029819BB20A46F5E665
:10BAF0000898049326AA59461FF036F900287FF4C7
:10BB000004A92898049B29AA7FE70021CDE90456BF
:10BB100006F48067DFF8A880159ECDF80CA052AC23
:10BB20008C4605E00A2B72F1000235D353462A46B3
:10BB3000991841F10001A8FB010525F0030000EB75
:10BB40009500091A581A4FF0CC3562F1000E05FB2A
:10BB500000F508FB0E55A0FB08A005440AF0010EF5
:10BB60000520AEFB000E40184FEA5A0A303004F8A8
:10BB7000010C4AEAC57A0CF1010C013C6D08002F5A
:10BB8000D0D031788C45CDD1BCF1FF0FCAD00A2B73
:10BB900072F1000280F0ED801596DDE9045652AB9B
:10BBA000DDF80CA0CDF838C0CDE903641E1BFFF70B
:10BBB0006EB800BF2C410500184105004841050042
:10BBC000CDCCCCCCDDE9080126AA19931FF0CCF826
:10BBD00000287FF49AA89DF87B20199B0DF1A40BF7
:10BBE000FFF7C7B8039EFFF70FB80D9901390AF1A7
:10BBF000FF3A0D91FEE60129039E7FF4C6AAFFF7E6
:10BC000008B8DDE9080126AA1FF0AEF800287FF485
:10BC10007CA8289F0DF1A40BFFF767BA01332544D8
:10BC2000072BCBF80070CBF80440CDE927357FF720
:10BC3000E0A8FFF788BB049A039652AB9E1AFFF761
:10BC400026B80898049326AA59461FF08DF80028B4
:10BC50007FF45BA89AF800102898049B29AAEAE6CA
:10BC6000DDE9080126AA1FF07FF800287FF44DA81F
:10BC7000289F0DF1A40BFFF7A5B80B9B079A1B6833
:10BC80001A60FFF7FEB94E46062E1A4628BF062652
:10BC900099460A93C14B0596CDE90C220B97049364
:10BCA0000F92FFF700B8984608F101084D44B8F12B
:10BCB000070FCDE927853760C6F804907FF78BAB77
:10BCC000E2E4129B13985919CBE90003279B2891B2
:10BCD0000133072B279300F316810BF1080B002A81
:10BCE000BFF624AB56421032AD4F80F2D382DDE96D
:10BCF0000848102505E00BF1080B103E102E40F30C
:10BD0000C98201331031072BCBE90075CDE927310A
:10BD1000F1DD26AA414620461FF026F800287EF4D1
:10BD2000F4AFDDE927310DF1A40BE6E7039A12F435
:10BD300000721CBFDBB20246FEF786BF039A12F404
:10BD400000721CBFDBB20246C8E50133CBF80070BD
:10BD5000072B05EB0207CDE92737CBF8045000F39A
:10BD6000E0800BF1080B1AE42D228DF87B20FFF701
:10BD7000A2B8189B1799E41A1A4620461EF0C0FF75
:10BD8000737803B101364FF0000CCFE6DDE908010E
:10BD900026AA1EF0E9FF00287EF4B7AF209A289D5E
:10BDA0000DF1A40BFFF7AABA4F46022124AB019371
:10BDB00021AB00930898B0EE480AF0EE680A20AB79
:10BDC0003A4600F041FB672D049000F00E82472DAB
:10BDD00000F09D82049B25F02008B8F1460F03EB8C
:10BDE000070605D11B78302B00F0E482209F3E44EB
:10BDF00051EC180B00220023FCF770F8002800F02B
:10BE000040813346049A9B1A0E93209A0C92B8F103
:10BE1000470F00F02481B8F1460F00F0FE81531E59
:10BE2000612D209300F0DE82412D40F020815021D1
:10BE30000120002BB6BFC2F101032B222D22092BBA
:10BE40008DF888108DF8892040F33D820DF197061A
:10BE5000544F32461046A7FB0312D20802EB820170
:10BE6000A3EB4101303100F8011C19466329134648
:10BE700000F1FF32EEDC303302F8013C831EB342A6
:10BE800080F0BC820DF1890213F8011B02F8011F3A
:10BE9000B342F9D152AB181AA0F1AD0316930E9B21
:10BEA000169A012B03EB020640F32D82129B1E44CF
:10BEB00024F4806343F4807303930023CDE90C33AF
:10BEC00026EAE6720F930592199B002B40F0D28070
:10BED0009DF87B209946FEF7E6BE199A1C1BA2EB43
:10BEE0000906A6423D46A8BF2646FFF78EBB0B9B20
:10BEF000079A1B681A80FFF7C4B843F3C0121146B3
:10BF00005BB2FEF773BEDDE9080126AA1EF02CFF26
:10BF100000287EF4FAAEDDE92731209A0DF1A40B5A
:10BF2000DDE6DDE9080126AA1EF01EFF00287EF4EA
:10BF3000ECAE289F0DF1A40BFFF731BB4FF00609C3
:10BF40005BE409F10107022130E74F4603212DE7A9
:10BF500020A8B0EE480AF0EE680A1EF09DFE00220E
:10BF60004FF07F5351EC100BFBF750FD00220023E4
:10BF700006460F46FBF7B2FF002840F0BB810A4B94
:10BF8000039309F1FF33CDE91C9B0D95CDE90E4AD2
:10BF9000DDF81080DDF80CB01D460DE040410500D5
:10BFA00048410500CDCCCCCC2C410500002200231B
:10BFB000FBF794FFF0B94D46AD4B002230463946B1
:10BFC000FBF724FD0F460646FBF7D0FF0446FBF7C0
:10BFD000B3FC0B46024639463046FBF75FFB1BF8C5
:10BFE0000430C24608F8013B6B1C05F1FF390646D8
:10BFF0000F46DBD19F4B0C950022304639460D9DF4
:10C000000D94DDE91C9B0E9CCDF838A0DDF83CA01A
:10C01000FBF78CFF002840F00E81964B30463946E6
:10C020000022FBF75BFF18B10D9BDF0700F10381D6
:10C030000C9B002BC0F21A810C9B0133434430222D
:10C0400008F8012B4345FBD1049A9B1A0E9325F067
:10C050002008DAE6049A249B9B1A209A0E93D31C9C
:10C060000C9201DB914518DA531E023D2093E9B290
:10C070000020DEE62D228DF87B204FF00009FEF730
:10C0800014BE249BB342BFF4BDAE30215A1C24928F
:10C090001970249B9E42F9D8B4E60E9B934200F39C
:10C0A000AB80E30740F16081129BD618670502D58B
:10C0B000002A00F33381059B039326EAE673059378
:10C0C000672500230F930D93FEE6DDE9080126AAFC
:10C0D0001EF04AFE00287EF418AE289F0DF1A40B36
:10C0E000FFF756BA0898049326AA59461EF03CFE5C
:10C0F00000287EF40AAE9AF800102898049B29AA1A
:10C100000F449FE478238DF87D3030238DF87C3008
:10C11000039BB9F1630F43F0020400F3AF800023E7
:10C120000A9339AB0493039B43F481730593119BEA
:10C13000002B23DB9DED108B00231993612D7FF4E1
:10C140006AABB0EE480AF0EE680A20A81EF0A4FD23
:10C1500000224FF07F5351EC100BFBF757FC0022ED
:10C16000002306460F46FBF7B9FE002840F0C280C8
:10C17000414B039305E70023039C0A93DDE9102359
:10C1800003F1004308EE903A2D2308EE102A19938C
:10C19000D4E7DDE9080126AA1EF0E6FD00287EF4BA
:10C1A000B4AD209C289D0DF1A40BFFF716BA4E46A6
:10C1B000CDF81490CDE90C009DF87B200B978146BB
:10C1C0000F90FEF770BDDDE9080126AA1EF0CCFD38
:10C1D00000287EF49AAD209C0E9B289D1C1B0DF11F
:10C1E000A40BFFF712BA58238DE7E6077FF532AFAD
:10C1F000C6194FF04708FBE50E9B129A9E180C9B40
:10C20000002B40F3C8806725620500F18880059BFC
:10C21000039326EAE673059353E70C9A04F00103AF
:10C22000002A43EA090340F3D580002B40F0BD808B
:10C230000C9E6625E8E70E9B039A2493D17B18F8A1
:10C24000013C8B42424609D1302002F8010C249A6D
:10C25000531E249312F8013C9942F6D0392B0BBFA0
:10C26000039B01339B7ADBB202F8013C4346EBE6C9
:10C27000000030400000E03F18410500089809F137
:10C2800001011DF095FA0490002800F0C980049B7C
:10C290000A9348E701333144072BCDE92731CBF826
:10C2A0000070CBF804607FF73FA8DDE9080126AAFB
:10C2B0001EF05AFD00287EF428ADDDE927310DF18E
:10C2C000A40BFFF733B8002840F0818030228DF8AE
:10C2D0008A200DF18B02303302F8013B22ABD31AD6
:10C2E0001693DCE5089A0C2313604FF0FF33079395
:10C2F000FEF716BD4E4B4F4A612D18BF1A4601235B
:10C30000039220933DE6E2077FF5D2ADCEE5E1074B
:10C310007FF5A0AE049BA846DE1969E5672515994F
:10C320000B78FF2B78D000240C9A204603E00130D4
:10C330000131FF2B08D0934206DAD21A4B78002B3A
:10C34000F5D10B780134F4E715910D900F940C9210
:10C35000059B0D9A03930F9B1344189A02FB0366E7
:10C3600026EAE6730593AFE516469FE6119B324C2D
:10C37000002B039BA8BF9DF87B2023F08003B8BF50
:10C380002D220393B8BF8DF87B202C4BFEF799BD6F
:10C390002B4DFFF78EBBC3F101031E44059A039298
:10C3A00026EAE673059367258BE6129BD6184E4462
:10C3B000662529E751EC180B00220023FBF78EFDC0
:10C3C00000287FF413ADC7F1010720970FE50DF1A9
:10C3D0008A0280E743B9059B0393012305936625F1
:10C3E0001E466EE6702123E5059B0393129B5E1C9F
:10C3F0004E4426EAE6730593662562E60223169309
:10C400004DE50B9B9AF80150924653F8042B0B9381
:10C4100042EAE279FEF748BB00230F930D9397E7BA
:10C4200009998B8943F0400213468A81FEF775BC57
:10C430002C4105001841050010410500144105007C
:10C4400048410500000000002DE9F04F9FB08DED40
:10C45000040B0091016C289D029057EC106B0A921E
:10C46000089349B1426C4A600123934004468B60B3
:10C470001EF07CF800232364B7F10009B4BF012348
:10C4800000232B60764BBCBF29F00049CDF81490F7
:10C4900033EA090300F0A8809DED047B002251ECF3
:10C4A000170B00238DED067BFBF718FD804668B166
:10C4B000089A01231360299B13B1299A694B1360D1
:10C4C000694B039303981FB0BDE8F08F9DED060BF9
:10C4D00002981CAA1DA91EF07FFB5FEA195582462F
:10C4E00040F09880DDE91C85454405F23243202B5D
:10C4F00040F38483C3F1400309FA03F905F21243C0
:10C5000026FA03F349EA0300FBF706FA0123013D8B
:10C510001193A1F1F871554B0022FBF7BFF84AA324
:10C52000D3E90023FBF772FA49A3D3E90023FBF711
:10C53000B7F8064628460F46FBF7FEF946A3D3E9AF
:10C540000023FBF763FA02460B4630463946FBF7F9
:10C55000A7F806460F46FBF709FD00228346002395
:10C5600030463946FBF7C4FC002840F01B83A8EB9B
:10C570000508BBF1160F08F1FF3400F28D813C4D28
:10C5800005EBCB05D5E90023DDE90601FBF7B0FC9F
:10C59000002873D00023002C0BF1FF3B1093C0F256
:10C5A000808100230B93BBF1000F6DDA0B9BA3EB93
:10C5B0000B030B93CBF10003CDE90EB3009B092BCA
:10C5C0004FF0000B68D8052B40F31D83043B00930C
:10C5D0000025009B023B032B00F22486DFE813F0CA
:10C5E00060045D0455043904089AC9F3130942F242
:10C5F0000F7359EA060913601CD1299B002B00F028
:10C600002C861C4B03930833299A039813601FB0A0
:10C61000BDE8F08FDDE90612C2F31303084643F0CC
:10C620007F51CDF84480A5F2FF35DDF8708041F4EC
:10C63000401170E7299B002B40F0E8830E4B0393D9
:10C6400040E700BFAFF3008061436F63A787D23F2D
:10C65000B3C8608B288AC63FFB799F501344D33FF1
:10C660000000F07F913C0500903C05000000F83F81
:10C67000F03205006841050074410500B8F1000F73
:10C6800040F35D8410900B9000230F93009BCDF836
:10C6900038B0092B5C4496D900234FF0FF32CDE926
:10C6A0000923012500930C95029B00215964099BE5
:10C6B000189302981DF034FF0390002800F0BB850A
:10C6C000DDE902321A64099B0E2B00F21481002D61
:10C6D00000F011810E9A002A40F33884B14D02F027
:10C6E0000F0305EBC3031511D205D3E9008940F10F
:10C6F000F883AD4BDDE90601D3E90823FBF7B0FA77
:10C70000CDE9120105F00F0503277DB1A64EEB0719
:10C7100008D540464946D6E90023FBF777F90137AB
:10C72000804689466D1006F10806F0D142464B4618
:10C73000DDE91201FBF794FA80468946109B43B16C
:10C740009A4B002240464946FBF7D2FB002840F0B6
:10C75000F0843846FBF7F0F842464B46FBF756F9B3
:10C76000934B0022FAF79CFF099B0646A1F15077F4
:10C77000002B00F0A9800E9B1993099B1293039B39
:10C78000884D49464046CDE914675E1CFBF7EEFB39
:10C79000129905EBC10313ED027B07468DED167B65
:10C7A000FBF7CAF802460B4640464946FAF776FFC1
:10C7B00089460C993037DDE916238046FFB20029FF
:10C7C00000F052847B490020FBF74AFADDE914238C
:10C7D000FAF764FF039D02460B46CDE914232F7040
:10C7E00042464B46FBF7A2FB002840F09684CDE979
:10C7F0001AB4CDF858A0129DDDE914AB00272AE049
:10C800000137AF4280F2DD846B4B5046594600221F
:10C81000FBF7FCF8684B002282468B4640464946AF
:10C82000FBF7F4F889468046FBF7A0FB0446FBF7CC
:10C8300083F802460B4640464946FAF72FFF30344C
:10C8400006F8014B52465B4680468946FBF750FB93
:10C85000002840F0B38442464B4654490020FAF782
:10C860001DFF52465B46FBF743FB0028C8D0199BCF
:10C87000DDF858A0039A374603F1010802E0974219
:10C8800000F07B843E4617F8013D392BF7D0013389
:10C89000DBB23B70454674E10123002C1093BFF6D8
:10C8A00080AEC8F101030B9300247CE63846FBF709
:10C8B00043F842464B46FBF7A9F83D4B0022FAF7F6
:10C8C000EFFE0646A1F150773C4B40464946002218
:10C8D000FAF7E4FE32463B4680468946FBF726FBE4
:10C8E000002840F0598440464946324607F100434B
:10C8F000FBF7FEFA28BB1D9B002BC0F291800E9A1D
:10C900000E2A00F38D80274D0E9B05EBC30595ED98
:10C91000007B0A9B002B8DED007B19DA099B002B15
:10C9200016DC0ED1254B0022DDE90001FBF76EF885
:10C9300002460B46DDE90601FBF7E4FA002800F0A9
:10C940002B844FF00009039E4F460A9BDD4324E2EF
:10C95000DDE90045DDE9068922462B464046494689
:10C96000FBF77EF9FBF702FB0646FAF7E5FF2246E6
:10C970002B46FBF74BF8039F0B46024649464046C1
:10C98000FAF78CFE06F1300307F8013B099B012BF7
:10C9900000F010830125CDF810A09946DDE900AB29
:10C9A000A8462BE0F0320500C83205000000F03F39
:10C9B00000001C400000E03F000024400000144044
:10C9C00052465B4620462946FBF74AF9FBF7CEFA6A
:10C9D0000646FAF7B1FF52465B46FBF717F808F137
:10C9E00001080B46024629462046FAF757FE06F193
:10C9F0003003C84507F8013B00F0DA82B94B00224A
:10CA0000FBF704F80022002304460D46FBF766FA04
:10CA10000028D5D00E9DDDF810A001353E46B0E0CF
:10CA20000C9A002A40F0D28000230F9E0B9D0C939D
:10CA30001F4655B1002C08DDA5420B9A2B46A8BF16
:10CA40002346D21A0B92ED1AE41A0F9B53B10C9B9A
:10CA500013B1002E40F0E78251460F9A02981DF064
:10CA600015FF8246029801211DF02CFE8146BBF184
:10CA7000000F40F0B681009B012B40F3CC810120D8
:10CA8000204410F01F0000F09A80C0F12003042B16
:10CA900040F3DA810B9BC0F11C0003440B93054467
:10CAA00004440B9B002B05DD514602981A461DF0ED
:10CAB00047FF8246002C05DD4946029822461DF0BC
:10CAC0003FFF8146109B002B40F07081099B002B9B
:10CAD00040F348810C9B002B40F0A4800E9D013553
