:020000022000DC
:1070000080530020E9AC02002B480400D5AC0200FC
:10701000D5AC0200D5AC0200D5AC020000000000E7
:10702000000000000000000000000000B1AD020000
:10703000D5AC0200000000004DAD0200D5AC02004E
:1070400081AF0200959C030081AF020081AF020076
:1070500081AF020081AF020081AF020081AF020068
:1070600081AF020081AF020081AF020081AF020058
:1070700081AF020081AF020081AF020081AF020048
:1070800081AF020081AF020081AF020081AF020038
:1070900081AF020081AF020081AF020081AF020028
:1070A00081AF020081AF020081AF020081AF020018
:1070B00081AF020081AF020081AF020081AF020008
:1070C00081AF020081AF020081AF020081AF0200F8
:1070D00081AF020081AF020081AF020081AF0200E8
:1070E00081AF020081AF020081AF020081AF0200D8
:1070F00081AF020081AF020081AF020081AF0200C8
:1071000081F0004102E000BF83F0004330B54FEA58
:1071100041044FEA430594EA050F08BF90EA020FC5
:107120001FBF54EA000C55EA020C7FEA645C7FEA58
:10713000655C00F0E2804FEA5454D4EB5555B8BF7B
:107140006D420CDD2C4480EA020281EA030382EAEC
:10715000000083EA010180EA020281EA0303362D7E
:1071600088BF30BD11F0004F4FEA01314FF4801C51
:107170004CEA113102D0404261EB410113F0004F63
:107180004FEA03334CEA133302D0524263EB43031A
:1071900094EA050F00F0A780A4F10104D5F1200EB8
:1071A0000DDB02FA0EFC22FA05F2801841F1000113
:1071B00003FA0EF2801843FA05F359410EE0A5F1E7
:1071C00020050EF1200E012A03FA0EFC28BF4CF018
:1071D000020C43FA05F3C01851EBE37101F00045CE
:1071E00007D54FF0000EDCF1000C7EEB00006EEBDB
:1071F0000101B1F5801F1BD3B1F5001F0CD3490865
:107200005FEA30004FEA3C0C04F101044FEA4452BB
:1072100012F5800F80F09A80BCF1004F08BF5FEA42
:10722000500C50F1000041EB045141EA050130BD22
:107230005FEA4C0C404141EB0101013C28BFB1F534
:10724000801FE9D291F0000F04BF01460020B1FA7F
:1072500081F308BF2033A3F10B03B3F120020CDA52
:107260000C3208DD02F1140CC2F10C0201FA0CF030
:1072700021FA02F10CE002F11402D8BFC2F1200C95
:1072800001FA02F120FA0CFCDCBF41EA0C0190404B
:10729000E41AA2BF01EB0451294330BD6FEA040494
:1072A0001F3C1CDA0C340EDC04F11404C4F120027F
:1072B00020FA04F001FA02F340EA030021FA04F391
:1072C00045EA030130BDC4F10C04C4F1200220FAE8
:1072D00002F001FA04F340EA0300294630BD21FA26
:1072E00004F0294630BD94F0000F83F4801306BFEC
:1072F00081F480110134013D4EE77FEA645C18BFE0
:107300007FEA655C29D094EA050F08BF90EA020F76
:1073100005D054EA000C04BF1946104630BD91EA6E
:10732000030F1EBF0021002030BD5FEA545C05D171
:107330004000494128BF41F0004130BD14F58004B0
:107340003CBF01F5801130BD01F0004545F0FE4124
:1073500041F470014FF0000030BD7FEA645C1ABF59
:10736000194610467FEA655C1CBF0B46024650EA90
:10737000013406BF52EA033591EA030F41F40021BC
:1073800030BD00BF90F0000F04BF0021704730B542
:107390004FF4806404F132044FF000054FF0000117
:1073A00050E700BF90F0000F04BF0021704730B5D8
:1073B0004FF4806404F1320410F0004548BF4042AD
:1073C0004FF000013EE700BF42004FEAE2014FEA02
:1073D00031014FEA02701FBF12F07F4393F07F4FDD
:1073E00081F06051704732F07F4208BF704793F0E0
:1073F0007F4F04BF41F40021704730B54FF46074F3
:1074000001F0004521F000411CE700BF50EA0102F5
:1074100008BF704730B54FF000050AE050EA01029E
:1074200008BF704730B511F0004502D5404261EB0E
:1074300041014FF4806404F132045FEA915C3FF44F
:10744000D8AE4FF003025FEADC0C18BF03325FEAEC
:10745000DC0C18BF033202EBDC02C2F1200300FA9D
:1074600003FC20FA02F001FA03FE40EA0E0021FAC2
:1074700002F11444BDE600BF70B54FF0FF0C4CF4B0
:10748000E06C1CEA11541DBF1CEA135594EA0C0F62
:1074900095EA0C0F00F0DEF82C4481EA030621EA9D
:1074A0004C5123EA4C5350EA013518BF52EA0335D8
:1074B00041F4801143F4801338D0A0FB02CE4FF08A
:1074C0000005E1FB02E506F00042E0FB03E54FF0BA
:1074D0000006E1FB03569CF0000F18BF4EF0010EB2
:1074E000A4F1FF04B6F5007F64F5407404D25FEAAE
:1074F0004E0E6D4146EB060642EAC62141EA555161
:107500004FEAC52040EA5E504FEACE2EB4F1FD0CA2
:1075100088BFBCF5E06F1ED8BEF1004F08BF5FEA20
:10752000500E50F1000041EB045170BD06F00046D2
:1075300046EA010140EA020081EA0301B4EB5C047F
:10754000C2BFD4EB0C0541EA045170BD41F4801177
:107550004FF0000E013C00F3AB8014F1360FDEBF9C
:10756000002001F0004170BDC4F10004203C35DA78
:107570000C341BDC04F11404C4F1200500FA05F3FB
:1075800020FA04F001FA05F240EA020001F000429C
:1075900021F0004110EBD37021FA04F642EB060112
:1075A0005EEA430E08BF20EAD37070BDC4F10C043C
:1075B000C4F1200500FA04F320FA05F001FA04F200
:1075C00040EA020001F0004110EBD37041F10001EC
:1075D0005EEA430E08BF20EAD37070BDC4F12005F7
:1075E00000FA05F24EEA020E20FA04F301FA05F25F
:1075F00043EA020321FA04F001F0004121FA04F207
:1076000020EA020000EBD3705EEA430E08BF20EAD6
:10761000D37070BD94F0000F0FD101F00046400010
:1076200041EB010111F4801F08BF013CF7D041EA92
:10763000060195F0000F18BF704703F00046520096
:1076400043EB030313F4801F08BF013DF7D043EA67
:107650000603704794EA0C0F0CEA135518BF95EA1D
:107660000C0F0CD050EA410618BF52EA4306D1D1A4
:1076700081EA030101F000414FF0000070BD50EAC3
:10768000410606BF1046194652EA430619D094EA4D
:107690000C0F02D150EA013613D195EA0C0F05D137
:1076A00052EA03361CBF104619460AD181EA03018B
:1076B00001F0004141F0FE4141F470014FF0000043
:1076C00070BD41F0FE4141F4780170BD70B54FF0DE
:1076D000FF0C4CF4E06C1CEA11541DBF1CEA13555E
:1076E00094EA0C0F95EA0C0F00F0A7F8A4EB050440
:1076F00081EA030E52EA03354FEA013100F0888037
:107700004FEA03334FF0805545EA131343EA1263FF
:107710004FEA022245EA111545EA10654FEA0026B4
:107720000EF000419D4208BF964244F1FD0404F56D
:10773000407402D25B084FEA3202B61A65EB0305C9
:107740005B084FEA32024FF480104FF4002CB6EB86
:10775000020E75EB030E22BFB61A754640EA0C0006
:107760005B084FEA3202B6EB020E75EB030E22BF46
:10777000B61A754640EA5C005B084FEA3202B6EB87
:10778000020E75EB030E22BFB61A754640EA9C0046
:107790005B084FEA3202B6EB020E75EB030E22BF16
:1077A000B61A754640EADC0055EA060E18D04FEAD4
:1077B000051545EA16754FEA06164FEAC30343EA74
:1077C00052734FEAC2025FEA1C1CC0D111F4801F41
:1077D0000BD141EA00014FF000004FF0004CB6E73A
:1077E00011F4801F04BF01430020B4F1FD0C88BFD9
:1077F000BCF5E06F3FF6AFAEB5EB030C04BFB6EBE4
:10780000020C5FEA500C50F1000041EB045170BDD6
:107810000EF0004E4EEA113114EB5C04C2BFD4EB03
:107820000C0541EA045170BD41F480114FF0000E87
:10783000013C90E645EA060E8DE60CEA135594EA03
:107840000C0F08BF95EA0C0F3FF43BAF94EA0C0F06
:107850000AD150EA01347FF434AF95EA0C0F7FF47B
:1078600025AF104619462CE795EA0C0F06D152EACF
:1078700003353FF4FDAE1046194622E750EA4106B3
:1078800018BF52EA43067FF4C5AE50EA41047FF4C4
:107890000DAF52EA43057FF4EBAE12E74FF0FF3C29
:1078A00006E000BF4FF0010C02E000BF4FF0010CFA
:1078B0004DF804CD4FEA410C7FEA6C5C4FEA430C73
:1078C00018BF7FEA6C5C1BD001B050EA410C0CBFC2
:1078D00052EA430C91EA030F02BF90EA020F002024
:1078E000704710F1000F91EA030F58BF994208BF8B
:1078F00090422CBFD8176FEAE37040F00100704748
:107900004FEA410C7FEA6C5C02D150EA013C07D19E
:107910004FEA430C7FEA6C5CD6D152EA033CD3D0E9
:107920005DF8040B704700BF8446104662468C46E3
:107930001946634600E000BF01B5FFF7B7FF002816
:1079400048BF10F1000F01BD4DF808EDFFF7F4FF3F
:107950000CBF012000205DF808FB00BF4DF808EDCA
:10796000FFF7EAFF34BF012000205DF808FB00BFED
:107970004DF808EDFFF7E0FF94BF012000205DF80F
:1079800008FB00BF4DF808EDFFF7CEFF94BF0120C4
:1079900000205DF808FB00BF4DF808EDFFF7C4FFBD
:1079A00034BF012000205DF808FB00BF80F00040DC
:1079B00002E000BF81F0004142001FBF5FEA4103C7
:1079C00092EA030F7FEA226C7FEA236C6AD04FEAC7
:1079D0001262D2EB1363C1BFD2184140484041400C
:1079E000B8BF5B42192B88BF704710F0004F40F4BE
:1079F000000020F07F4018BF404211F0004F41F4DA
:107A0000000121F07F4118BF494292EA030F3FD0A5
:107A1000A2F1010241FA03FC10EB0C00C3F12003B8
:107A200001FA03F100F0004302D5494260EB400047
:107A3000B0F5000F13D3B0F1807F06D340084FEAB2
:107A4000310102F10102FE2A51D2B1F1004F40EBA7
:107A5000C25008BF20F0010040EA0300704749000F
:107A600040EB0000013A28BFB0F5000FEDD2B0FAAC
:107A700080FCACF1080CB2EB0C0200FA0CF0AABFCF
:107A800000EBC25052421843BCBFD040184370476D
:107A900092F0000F81F4000106BF80F40000013273
:107AA000013BB5E74FEA41037FEA226C18BF7FEA4A
:107AB000236C21D092EA030F04D092F0000F08BF8C
:107AC0000846704790EA010F1CBF0020704712F073
:107AD0007F4F04D1400028BF40F00040704712F1B2
:107AE00000723CBF00F50000704700F0004343F017
:107AF000FE4040F4000070477FEA226216BF08464D
:107B00007FEA23630146420206BF5FEA412390EA0F
:107B1000010F40F4800070474FF0000304E000BF05
:107B200010F0004348BF40425FEA000C08BF7047B6
:107B300043F0964301464FF000001CE050EA01027A
:107B400008BF70474FF000030AE000BF50EA01028F
:107B500008BF704711F0004302D5404261EB41017C
:107B60005FEA010C02BF84460146002043F0B643A1
:107B700008BFA3F18053A3F50003BCFA8CF2083AC6
:107B8000A3EBC25310DB01FA02FC634400FA02FCCF
:107B9000C2F12002BCF1004F20FA02F243EB0200D6
:107BA00008BF20F00100704702F1200201FA02FC38
:107BB000C2F1200250EA4C0021FA02F243EB02002B
:107BC00008BF20EADC7070474FF0FF0C1CEAD0526F
:107BD0001EBF1CEAD15392EA0C0F93EA0C0F6FD030
:107BE0001A4480EA010C400218BF5FEA41211ED00E
:107BF0004FF0006343EA501043EA5111A0FB0131FA
:107C00000CF00040B1F5000F3EBF490041EAD371CE
:107C10005B0040EA010062F17F02FD2A1DD8B3F14A
:107C2000004F40EBC25008BF20F00100704790F0B9
:107C3000000F0CF0004C08BF49024CEA502040EA0B
:107C400051207F3AC2BFD2F1FF0340EAC2507047D1
:107C500040F400004FF00003013A5DDC12F1190F0F
:107C6000DCBF00F000407047C2F10002410021FA81
:107C700002F1C2F1200200FA02FC5FEA310040F199
:107C8000000053EA4C0308BF20EADC70704792F012
:107C9000000F00F0004C02BF400010F4000F013A4A
:107CA000F9D040EA0C0093F0000F01F0004C02BF45
:107CB000490011F4000F013BF9D041EA0C018FE7B4
:107CC0000CEAD15392EA0C0F18BF93EA0C0F0AD0BA
:107CD00030F0004C18BF31F0004CD8D180EA0100E0
:107CE00000F00040704790F0000F17BF90F0004F79
:107CF000084691F0000F91F0004F14D092EA0C0F5B
:107D000001D142020FD193EA0C0F03D14B0218BFED
:107D1000084608D180EA010000F0004040F0FE4033
:107D200040F40000704740F0FE4040F440007047CF
:107D30004FF0FF0C1CEAD0521EBF1CEAD15392EA4E
:107D40000C0F93EA0C0F69D0A2EB030280EA010C3E
:107D500049024FEA402037D04FF0805343EA1111D7
:107D600043EA10130CF000408B4238BF5B0042F135
:107D70007D024FF4000C8B4224BF5B1A40EA0C00DA
:107D8000B3EB510F24BFA3EB510340EA5C00B3EB0C
:107D9000910F24BFA3EB910340EA9C00B3EBD10FFA
:107DA00024BFA3EBD10340EADC001B0118BF5FEA4C
:107DB0001C1CE0D1FD2A3FF650AF8B4240EBC25075
:107DC00008BF20F0010070470CF0004C4CEA502036
:107DD0007F32C2BFD2F1FF0340EAC250704740F485
:107DE00000004FF00003013A37E792F0000F00F077
:107DF000004C02BF400010F4000F013AF9D040EAF5
:107E00000C0093F0000F01F0004C02BF490011F488
:107E1000000F013BF9D041EA0C0195E70CEAD15380
:107E200092EA0C0F08D142027FF47DAF93EA0C0F67
:107E30007FF470AF084676E793EA0C0F04D14B024B
:107E40003FF44CAF08466EE730F0004C18BF31F0FD
:107E5000004CCAD130F000427FF45CAF31F00043F7
:107E60007FF43CAF5FE700BF4FF0FF3C06E000BF90
:107E70004FF0010C02E000BF4FF0010C4DF804CDB3
:107E80004FEA40024FEA41037FEA226C18BF7FEAC3
:107E9000236C11D001B052EA530C18BF90EA010FC5
:107EA00058BFB2EB030088BFC81738BF6FEAE17054
:107EB00018BF40F0010070477FEA226C02D15FEAF0
:107EC000402C05D17FEA236CE4D15FEA412CE1D05C
:107ED0005DF8040B704700BF844608466146FFE723
:107EE0000FB5FFF7C9FF002848BF10F1000F0FBD05
:107EF0004DF808EDFFF7F4FF0CBF012000205DF8FE
:107F000008FB00BF4DF808EDFFF7EAFF34BF012082
:107F100000205DF808FB00BF4DF808EDFFF7E0FF1B
:107F200094BF012000205DF808FB00BF4DF808ED6C
:107F3000FFF7D2FF94BF012000205DF808FB00BFCF
:107F40004DF808EDFFF7C8FF34BF012000205DF8B1
:107F500008FB00BF7BB972B90029BEBF00204FF0FB
:107F6000004106E008BF00281CBF6FF000414FF041
:107F7000FF3000F077B8ADF1080C6DE904CE0029B0
:107F800009DB002B1ADB00F0BCF8DDF804E0DDE9CA
:107F9000022304B07047404261EB4101002B1BDB20
:107FA00000F0AFF8DDF804E0DDE9022304B0404260
:107FB00061EB4101524263EB43037047524263EB72
:107FC000430300F09EF8DDF804E0DDE9022304B08D
:107FD000404261EB41017047524263EB430300F0C2
:107FE00090F8DDF804E0DDE9022304B0524263EBCF
:107FF0004303704753B94AB9002908BF00281CBF82
:108000004FF0FF314FF0FF3000F02CB8ADF1080C0D
:108010006DE904CE00F075F8DDF804E0DDE9022337
:1080200004B07047D0B5FFF7CFF90C4B00220646DD
:108030000F46FFF721FA00F017F80446FFF7A2F900
:10804000074B0022FFF718FA02460B463046394626
:10805000FFF75AF800F008F82146D0BD0000F03DC7
:108060000000F041704700BF4A0011D212F5001223
:1080700011D20DD56FF47873B3EB62520ED44FEA80
:10808000C12343F0004343EA505323FA02F0704700
:108090004FF00000704750EA013002D14FF0FF303E
:1080A00070474FF00000704710F8012B11F8013BAA
:1080B000012A28BF9A42F7D0D01A7047034611F818
:1080C000012B03F8012B002AF9D17047034613F85E
:1080D000012B002AFBD1181A0138704710B5002176
:1080E0000446FFF70FFF20B92046BDE81040FFF718
:1080F00099BF04F10040FFF795FF404261EB410159
:1081000010BD2DE9F04786468C460846089E154668
:1081100074461946002B40F0C2808542B2FA82F2C2
:1081200045D94AB1C2F1200300FA02FC2EFA03F34A
:10813000954043EA0C0C94404FEA154EA8B2BCFBA4
:10814000FEF8230C0EFB18CC08FB00F943EA0C43A5
:10815000994528D9EB1808F1FF3704D2994502D97F
:10816000A8F102072B44A3EB0903A4B2B3FBFEFC66
:108170000EFB1C330CFB00F044EA0344A04214D96C
:108180002C190CF1FF3304D2A04202D9ACF1020346
:108190002C44241A43EA07401EB1D4400023346023
:1081A0007360BDE8F0874746DDE76346F1E792BBC1
:1081B000431B01214FEA154EAFB2B3FBFEFC200C6E
:1081C0000EFB1C330CFB07F840EA0343984562D9C9
:1081D000EB180CF1FF3004D2984502D9ACF1020043
:1081E0002B44A3EB0803A4B2B3FBFEFC0EFB1C3331
:1081F0000CFB07F744EA0344A7424ED92C190CF1B3
:10820000FF3304D2A74202D9ACF102032C44E41B91
:1082100043EA0040C0E7C2F1200320FA03F1954091
:1082200090402EFA03F303434FEA154EAFB2B1FB71
:10823000FEFC0EFB1C10190C0CFB07F841EA004178
:10824000884504FA02F422D969180CF1FF3004D2EF
:10825000884502D9ACF102002944A1EB08019BB288
:10826000B1FBFEFC0EFB1C110CFB07F743EA0143BC
:108270009F420ED9EB180CF1FF3104D29F4202D974
:10828000ACF102012B44DB1B41EA004192E760465E
:10829000E3E76146F7E76046A3E76346B7E7834253
:1082A00006D916B9002108467BE7C6E900E0F9E7E0
:1082B000B3FA83F78FB9834201D3724508D8BEEB76
:1082C000020460EB030301209C461EB9002168E70D
:1082D0003846FAE7C6E9004CF8E7C7F1200CBB4086
:1082E00022FA0CF41C432EFA0CF120FA0CF3B840DD
:1082F00001434FEA14490EFA07F5B3FBF9F81FFAE8
:1083000084FE09FB18300B0C08FB0EFA43EA00430D
:108310009A4502FA07F240D9E31808F1FF3004D277
:108320009A4502D9A8F102002344A3EB0A0389B2BB
:10833000B3FBF9F809FB183308FB0EFE41EA0341D1
:108340008E452CD9611808F1FF3304D28E4502D92D
:10835000A8F10203214443EA0040A0FB0298A1EBEC
:108360000E014145CE46434602D306D14D4504D2C7
:10837000B9EB020E68EB04030138002EA6D0B5EB72
:108380000E0261EB030101FA0CFC22FA07F34CEA3E
:108390000303F940C6E9003198E74046C5E7434684
:1083A000D9E70000000000002DE9F04FA8489DB07B
:1083B0001CF047F8A74821F0A5FC70B1A54821F0B2
:1083C000A1FC50B1A34821F09DFC30B1A24821F09E
:1083D00099FC38B9A1481CF034F8002420461DB09F
:1083E000BDE8F08F00229E4910461FF042FE044671
:1083F00020B101469B481CF024F8EFE704F092FD01
:10840000044610B101469848F5E7984D0FCD07ACEA
:108410000FC42B682360012300939549954B0222DA
:1084200007A805F0F9F9044610B101469248E2E7C1
:108430009249934805F0A6FD044610B101469148C3
:10844000D9E791481BF0F1FD0028C6DB8F481BF0EF
:10845000ECFD0028C1DB8E481BF0E7FD0028BCDBEB
:1084600068230024CDE905347B4DAE6837680FB929
:108470008848B0E705AB224603212846B8470028C4
:10848000F6DB37680FB98448A5E705AB224607211C
:108490002846B8470028F6DB804B0493B3680BB935
:1084A0007F4898E77F4A04A9284698470446002851
:1084B000F6D14221F36828469847002801DA7A4825
:1084C00089E7714821461BF0CAFD704821461BF020
:1084D000C6FD6F4821461BF0C2FD74481BF0B1FF7A
:1084E0000FF2541BDBE900AB714EDFF8C8817068F6
:1084F000FEF758FF52465B46FFF7E8F8044630683F
:108500000D46FEF74FFF02460B4620462946FEF772
:10851000FDFD0446D8F804000D46FEF743FF524621
:108520005B46FFF7D3F80646D8F80000DFF88881ED
:108530000F46FEF737FF02460B4630463946FEF738
:10854000E5FDCDE90201D8F80400FEF72BFF524605
:108550005B46FFF7BBF80646D8F800000F46FEF76B
:1085600021FF02460B4630463946FEF7CFFD024654
:108570000B46FEF781FF224606460F462B46204655
:108580002946FEF779FF32463B46FEF7BFFD1BF05A
:108590008BFC02460B46DDE90201FFF797F801F07C
:1085A000C3FCDDE902238046894610461946FEF7E2
:1085B00063FF32463B46FEF7A9FD1BF075FC024601
:1085C0000B4620462946FFF781F801F0ADFC4246F4
:1085D0004B4604460D460CA838491AF045FB38486E
:1085E0000CA91BF02EFF16A3D3E900232046294631
:1085F000FFF7D2F960B1254801211BF030FD314B66
:1086000001221A6000214FF4A47021F0EEFE6BE706
:1086100020460DA3D3E900232946FFF79FF904461E
:1086200010B101211848E8E7014618481BF017FD72
:108630002146F7E7AFF300800000000080842E4160
:1086400024945C54FB21E93F24945C54FB21E9BF52
:108650006CC10400A8AC040028AE040087C104006B
:108660008C020020A2C10400C7C10400A0B1040014
:10867000C0B40400B8B40400E7C1040069A3020058
:10868000C807002008C20400D0B40400E0B404000D
:10869000D8B4040026C2040058C20400010003003C
:1086A00081C20400DDA30200A8C20400C4C2040009
:1086B000301400202814002020140020DDC2040003
:1086C0004FC004003C1400202DE9F843D0E90738DE
:1086D000856903EB08042F34A5420F46164619D8C6
:1086E000DFF86C80A3FB080117A3D3E90023FFF791
:1086F00081FC0346601BA0FB080123F07F4412A30A
:10870000D3E90023FFF776FC20F07F403C60306027
:10871000BDE8F883DFF838900BA3D3E90023A5FB6D
:108720000901FFF767FC20F07F440A480A2106A3ED
:10873000D3E90023E8FB0901FFF75CFC20F07F4050
:108740003C603060BDE8F8838D49FD1A07000000E9
:1087500000CA9A3B00166BF1002800F037812DE922
:10876000F04FC74C94F85E30DA078DB000F16881A5
:10877000627F94F8293004EB820204EB8303166ACB
:10878000DF6A0EB3354615F8020BC0F3801009F00E
:108790000FFC0368C6F802308388AB8033785B0631
:1087A00006D50621284608F045F8002800F04A8141
:1087B0003D4615F8020BC0F3801009F0F9FB036881
:1087C000C7F802308388AB80337813F00E0F40F087
:1087D000958063691BB10C200DB0BDE8F08F0AF0E5
:1087E0008BF88146002800F03B810AF091F8824620
:1087F000002800F032810CF077FC0546002800F0DC
:108800003181D0F888004FF6FF73AB8405F1100B6F
:10881000002800F01D8105F17C0205F1780108F0C7
:1088200015F8B5F8763023F4EF6323F0070343F42B
:108830008C7343F00103A5F8763095F8373003F0D8
:108840003F0363F07F0385F8373095F88E3023F0CF
:10885000070385F88E3095F83C3023F00F034FF076
:10886000000885F83C304FF4C023C5F88E31284607
:10887000C5E91288C5F88880A5F88C8085F839800C
:10888000A5F82A80C5F82E80C5F85080A5F860812B
:10889000A5F89481A5F88A810EF0D8FB85F864814B
:1088A000C5F868910CF0ECFE95F89C3160F302037A
:1088B00085F89C310CF0EAFE95F89C3160F3C50315
:1088C00085F89C3195F8623168F3410385F862318F
:1088D000012128460DF08CFA05F1E0000EF0D6F9E2
:1088E000C4E9159AC4F814B0C5E9028885F8008077
:1088F0002D6111F07DFE002840F0A680237E01212D
:10890000C3F342030DF12B008DF82B3008F03AF938
:10891000024600285CD0394630460BF03DFF5949ED
:10892000594BB4F85C70A0FB0101C0184FF0000572
:1089300051A3D3E9002341F10701C4E90255257091
:10894000FFF758FB606009F0F1FA00F109083FB940
:10895000357805F00F05A5F10105B5FA85F56D0926
:10896000207E636865F3000010F00105207636D0A4
:10897000464A0992002010600225454A454F04935B
:108980000BAE019305920321CDE902000694434604
:108990000090089607972A460B9509F0C9F93146C9
:1089A0000AF02CF8A0B93C4905914AF2D83300935B
:1089B000CDE90300CDE901000797089606944346E8
:1089C000012203210B9509F097F92EE00BF080BEF0
:1089D0006369002B3FF4FFAE0BF050FEFBE62B4A21
:1089E0002E48049303F247130694029591211360D5
:1089F000A7FB000301FB0731264B0793244B05938C
:108A00004FF6FF730992022703930BAE1AA3D3E923
:108A100000230B970896FFF7EDFA4346CDE9005087
:108A20003A462846032109F083F9314609F0E6FF6A
:108A30000028CDD194F85E3043F0010384F85E3015
:108A40000020C9E61220C7E60BF018FE0320C3E69B
:108A500005F18000C5F88800DDE6484609F052FFC0
:108A60000720B9E6504609F059FF484609F04AFF89
:108A7000F6E700BFAFF300808D49FD1A0700000044
:108A8000B021002000CA9A3B8C49FD1AA421002085
:108A90000D4803004920030001450300002AE78434
:108AA00070B5037E8AB0C3F342030D46044601212C
:108AB0000DF1230016468DF8233008F063F8314697
:108AC000024628460BF068FE1F49204AA0FB0131F0
:108AD000981841F107011AA3D3E90023FFF78AFA96
:108AE00063689842054621D21B1A00220192184A57
:108AF0000293184BA21AA3FB02320221920900230F
:108B00000A4409AE099114490591CDE903330321C3
:108B1000D2B206960093184609F06AF9314609F078
:108B20006DFF38B9656000200AB070BDFBD9C21A6C
:108B30000023DBE70C200AB070BD00BFAFF300805C
:108B40008D49FD1A0700000000CA9A3B8C49FD1AA6
:108B5000B0210020ABAAAAAA49200300000000000F
:108B600038B5194C9DF810E094F828C01CF00105A8
:108B700021D163F3420C4001237DA1834FEACE0E45
:108B80000EF0180E00F0200040EA0E0023F038032B
:108B900003430E4823759121A2FB000384F828C0EB
:108BA00001FB023106A3D3E90023FFF723FAC4E94E
:108BB0000800284638BD0C25284638BDAFF3008094
:108BC0008D49FD1A07000000E80E0020002AE78406
:108BD0002DE9F043044600F1150190F82800237DAB
:108BE0003F4DC0F3400060F386138DB0237509F04C
:108BF000EFF9227DA38B3B48246102F07902002724
:108C000022759121A3FB0002C4E90277277001FBC2
:108C1000032131A3D3E90023FFF7ECF9324A636A59
:108C20002362651BA2FB05250933C5F3471598424E
:108C300005EB450898BF27624FEA88082B4F8EBF87
:108C4000636003466060064647F8083009F06EF935
:108C500047440DF12C090997CDF820900694A38B79
:108C600000F109081F480027A3FB00020397912188
:108C700001FB0321636804931D4B07931D4B059370
:108C800002230B9314A3D3E90023FFF7B3F9104693
:108C900019464FF47A720023FFF7ACF90435EDB2B0
:108CA000CDE90160032143462A460097384609F082
:108CB0003FF8494609F0A2FE40B994F8283043F045
:108CC000010384F828300DB0BDE8F0830C200DB00E
:108CD000BDE8F083AFF300808D49FD1A0700000066
:108CE000E80E0020002AE784A38B2EBA2822002059
:108CF00049200300F54C03002DE9F04F05468BB0E9
:108D00008B46012002219946144613F093FB002262
:108D100002218246012007F0E9FD2F494FF4D47269
:108D2000284607F073FD461D2C4B0093F6B20195C3
:108D30004B4632460121002009F0B4F810F0FD0F37
:108D400042D1274BA4FB0348204621A3D3E90023AB
:108D50004146FFF74FF9089506956B680493214B40
:108D600020F07F47A7FB0331E01A1F4B07934FF01A
:108D700007021E4B059302FB07114FF6FE7368EBCB
:108D8000010103934FF47A720023FFF733F9CDF812
:108D900000B0CDE901704B4632460121002008F0B9
:108DA000ABFF10F0FD0F0DD1BAF1000F02D10BB0E7
:108DB000BDE8F08F0122022110460BB0BDE8F04F54
:108DC00007F094BD00DEEFE700DEBAE7AFF3008006
:108DD0008D49FD1A07000000180F0020A94F03005D
:108DE00000CA9A3B8D49FD1A914F0300B9990300BF
:108DF0002DE9F0418468A28C4FF6FF739A428CB043
:108E000000F08E80054620460EF09CFB2B7D012B4A
:108E100000F00D81022B00F00081002B00F0DF80BC
:108E200094F86471002F40F0FB802B8AE68D94F952
:108E30003720CDE90A77002B75D0002AC0F2418196
:108E40000023A4F89031AB7CA28D03F00303551CE2
:108E5000012BADB200F0BF80B4F89431002B00F0CC
:108E6000EC80AB4240F246815B1B9BB2062BA4F820
:108E700094314FF000028CBF00230123E2851F468E
:108E800094F83C2063F3820284F83C2029460DF1DB
:108E9000270220460EF016F9743000F02581B4F850
:108EA0008E312BB1AB4240F2FD805B1BA4F88E31BA
:108EB000B4F88A312BB1AB4240F2EB805B1BA4F8D3
:108EC0008A31E58D17B9AE4200F0DA800135ADB2D6
:108ED00094F8D13013F0010640D1DDE90A130A46B7
:108EE000002B40F0DD80002900F0CC801E461846A3
:108EF000A28C24690694CDE9035705329C4D02905B
:108F0000CDE90016D2B201210020059508F070FFCE
:108F100010F0FD0F04D009F09BFD844240F0FB806F
:108F20000CB0BDE8F081002AB8BF84F8D570AB7CE6
:108F3000A28D03F00303551C012BADB24BD0B4F846
:108F40009031002B88D0AB4240F2D9805B1BA4F853
:108F50009031B4F89431002B83D191E794F9372004
:108F60006FF30003002A84F8D130C0F2818094F8B6
:108F70007600C0F3C00100F0070011F0BDF9B4F8AD
:108F80006E20B4F86C301344E28B03F23F131344A9
:108F90000344784A78480721E3FB0021104672A376
:108FA000D3E90023FFF726F8DDE90A1320F07F421A
:108FB00060686260904235BF161A801A0020002651
:108FC0000A46002B94D156EA010C91D1002859D0C1
:108FD00019461E468CE70023A4F8943150E794F814
:108FE0008E3003F01803182B7FF41AAF218DB4F8DC
:108FF0008C218B1D9A42C4BF931F5B1AB4F8881151
:10900000CCBF9BB21346994200F09480A4F88831FB
:10901000A4F88A31A4F88E2102E73D2784F8647110
:10902000394620460CB0BDE8F0410CF0E9BB002306
:10903000A4F88E31A4F88A31F2E6E28C052A97BFB3
:10904000013240F2E2434FF4FA7392B203FB02F2B0
:10905000B4F8923142F2107101FB0323013BB3FBE0
:10906000F2F39BB2A4F89431002B7FF4FAAE07E739
:1090700094F87700012100F0070011F03FF97EE736
:109080003D4625E7002D3FD00026114630463346A9
:109090002EE70023A4F88A3120460EF0A5F810E749
:1090A000304625E709F07AFC014680B30023A4F896
:1090B0008E31A38CC3801B230371006809F040FC30
:1090C000F6E694F8D53043B3013B84F8D53004F18B
:1090D000E00840460DF01CFE90B340460DF018FE2F
:1090E00090B30023E385ABE69DF8271020460CF0F3
:1090F00087FB15E7082120460CF082FB10E73E2194
:1091000020460CF07DFB0BE7002FBDD108E70123C3
:10911000A4F88E31CCE600DE02E70AAA0BA92846A5
:10912000FFF7D2FADDE90A231343D0D0237884F87D
:10913000D530CCE7B4F88E1100297FF471AE67E723
:10914000FF200CF01FFBC8E70246D4E91E0107F020
:1091500095FB0028C5D194F83C301B0744BF238DF4
:10916000E3856DE6AFF300808D49FD1A070000002E
:10917000E94F03008C49FD1A00CA9A3B0000000029
:109180002DE9F04F87B0B0F86071BDF84C900091B8
:10919000CDE90423B0F82431BDF840A01F44BFB28C
:1091A0000446A7EB090390F87600D4F81C819EB220
:1091B000BDF844300193C0F3C001BDF848300396B8
:1091C00000F00700029311F097F8E58C052D40F2AE
:1091D000A48015FB06F5ADB240F2E24BBAF1050FE3
:1091E00040F28F80B4F86E20B4F86C30134403F270
:1091F000D5130344764A77480721E3FB00214FF05B
:109200009613E3619623104623846FA3D3E90023CA
:10921000FEF7F0FE564620F07F4040F2E2430BFBA3
:1092200005F203FB06F6531E3344B3FBF6F31FFAB5
:1092300083FB606006FB0BF082425D4653D26549BA
:10924000801AA0FB010160A3D3E90023FEF7D2FE40
:1092500020F07F408044B4F82421B4F86031A9EBB9
:1092600007094D44ADB213442B44A4F86031638D1B
:1092700013441D4494F837306585DB0955D100DE71
:1092800000273546019B2385029BA4F89231314685
:109290002046A4F826A00DF041FF4F4B218D33440A
:1092A000881DB3FBF6F39AB29042A4F88C2104D245
:1092B000C1F57F41FA310A4492B2009BA4F888219B
:1092C00013B10023A4F8943143462A463946204678
:1092D000FFF712FD94F8623143F0010384F8623124
:1092E00007B0BDE8F08F121A3A48A2FB000136A37E
:1092F000D3E90023FEF77EFE20F07F40A8EB0008B4
:10930000A9E74FF096130AF10106E361962323843F
:10931000B6B20A204FF4FA7381E7039B013515FBBF
:1093200003F5ADB24FF4FA7B58E7216CA36C294FDB
:1093300001FB0233039A01FB1233A3640023C4F838
:10934000DC3011F0A9F9054694F8D400C0F34200CE
:1093500011F0A4F9054406FB05F5204B1C4805F562
:10936000742505F23F25A3FB0535AD0CA36C2564E0
:109370000BFB05FB72085B44963A934228BF1346E9
:10938000C4E91123049B40F2E24909FB03F30721DE
:109390002365EBFB07010CA3D3E90023FEF72AFEAC
:1093A0000F4B059AA8EB0008A3FB0230800A09FBCB
:1093B00000F0A0FB070104A3D3E90023FEF71AFE87
:1093C000751B20F07F475DE78D49FD1A07000000FF
:1093D0008C49FD1A00CA9A3B7FC3C90183DE1B4337
:1093E0005917B7D1000000002DE9F04F0D4609686C
:1093F000B0F82EC0D1F800900146144651F82EABBB
:1094000052F8086B8F788346D0F81E00BBF8221004
:109410009BF81C80A4F808C09770DBF82A206260D3
:1094200091B0DBF83A20C4F82220ADF83C109BF84C
:109430003E100E9084F8261010AB13E9030004F1DF
:1094400022020C90ADF834101046052107F09AFB6B
:1094500094F8272000F03F0060F3050284F82720ED
:109460009BF83F20C2F3040184F82810BBF83410A5
:10947000E1820128C8F380180DD902F01F021B32C7
:1094800002F01F020B2A06D889B2063989B240F6CB
:109490007A42914219D90021C9F8081094F82C2079
:1094A00061F3000284F82C200125DBF80C408BF8D6
:1094B00004505046594609F037FA20682571214674
:1094C00011B0BDE8F04F09F03BBA2A6800215160A5
:1094D000BBF836202283E78ABBF832300A9340F289
:1094E000E242304602FB07F70DF02CFE9BF83F10DE
:1094F00096F8D400490961F3430086F8D40011F0CE
:10950000CBF80B9096F8D400C0F3420011F0C6F8E7
:109510000B99084407FB00F0994900F5742000F20C
:109520003F20A1FB00107908800C9639206361630D
:109530009BF8311040F2E24201FB02F26264BBF898
:109540003820A6F89221394630460DF0E7FD8D4AC5
:109550008D49C6F898113A44B2FBF7F290B2A6F8DA
:109560008C01218B01F1060C604504DDC1F57F41C2
:10957000FA31014488B25946A6F8880111F81C2F27
:10958000C907C2F3401200F1EC80BDF83410ABF80B
:1095900023100C988BF81E804FF48071CBF81F00BD
:1095A000ABF81C10E18AABF82610218BABF8281021
:1095B000B6F89211ABF82A1096F8D4100B92C1F3BA
:1095C00042018BF82C1030460BF09AFDA082ABF8CC
:1095D0000600D5F804805046594609F0A5F9A38A3B
:1095E0000B9AA8F806301C23D8F800A088F804309D
:1095F000002A40F0A28088F81C204146504609F01D
:109600009FF994F86700B4F85CA0B4F85E8001217B
:1096100000F0070010F072FED04408F2D51800EBFD
:1096200008038246DFF8648159480721E3FB0801FB
:109630004FF09613C4E903334FA3D3E90023FEF799
:10964000D9FC20F07F407060EB680A98226B40F2F2
:10965000E24101FB003404F2B3440221A41A0120C8
:10966000BF1A002207F042F948460BF045FAA4EB76
:109670000A040246A4FB080114463FA3D3E90023D1
:10968000FEF7B8FCCDF80490AB684249009120F099
:109690007F4AA21C363BD2B253440121002008F07D
:1096A00001FC01285FD099F81830DB0751D430460F
:1096B0000BF026FD354BA7FB039804462EA3D3E9F8
:1096C000002348464146FEF795FC334BAD68334ACC
:1096D000079220F07F47A7FB0331B9EB0300304B23
:1096E00005934FF4F8730696089373684FF0000BD8
:1096F000CDE903B34FF0070303FB071168EB01014A
:109700004FF47A720023FEF775FC0534363DE4B25F
:10971000CDE90170CDF800A02B4622460121584624
:1097200008F0EAFA10F0FD0F23D1012202211046C1
:1097300011B0BDE8F04F07F0D9B894F8273043F0E6
:10974000400384F82730201D10F02EFA01222085D6
:1097500051E70023012200931846114608F060FBF0
:10976000A5E700DE11E709F073F981459BD000DE23
:1097700099E700DED9E700BF8D49FD1A0700000018
:1097800083DE1B437FC3C901404B4C0000CA9A3B98
:109790008C49FD1A419A03008D49FD1A91990300E5
:1097A000B999030000000000F0B5C468636883B095
:1097B0000546002B40D112F01BFA002012F03CFAB3
:1097C0000021084612F02AFA00222521082012F072
:1097D00067FA374B019301A812F04EFA354940F26F
:1097E0005B6012F005FB237AC3F3420262F30613B7
:1097F0002372204611F0D6F827682E68384610F0FC
:1098000033FD06446A6806F10901012012F02AFCC2
:1098100012F018FD20460BF07BF9811C3246C9B2CC
:10982000384610F023FD054698B9204610F0EAFCB2
:1098300068B9002003B0F0BD93F82C309B07BAD074
:109840001D48214612F0A8F912F07CFAF1E700DE7B
:10985000EFE71A4A1A491B4840F211431AF0FEFD7D
:10986000194B0721A5FB030301FB05310EA3D3E927
:109870000023FEF7BFFB1549024615481AF0EEFD1E
:10988000002585F31188BFF36F8F0323184602DF8D
:109890001048214612F080F912F054FA6FF08B0054
:1098A000C8E700BFAFF3008000CA9A3B0000000089
:1098B000D6BE898E55555500ADA30300D8BA040015
:1098C00024BB04009CB904008D49FD1A54BB04005C
:1098D00028BB0400A9A603002DE9F041C468237940
:1098E0006FF300038CB023710F46054612F080F928
:1098F000002012F0A1F90021084612F08FF908208B
:109900000022252112F0CCF9012009F041F90028AC
:1099100064D01C3012F0EEF9494B0B930BA812F0F7
:10992000ABF9484940F25B6012F062FA2079C0F36B
:109930004100253010F0ACFC4348214612F02CF9D0
:1099400023799B062DD5962012F080FB00231A4622
:109950001946184612F0B2FAD4F800802E68404634
:1099600010F082FC06446A6806F10901002012F03A
:1099700079FB12F067FC12F011FB20460BF07CFA29
:10998000011DC9B24046324610F070FC054648BB86
:1099900057B1204610F036FC10BB00200CB0BDE8DB
:1099A000F08112F0EBFAD7E72369002BF1D0274DB5
:1099B0000795274D059540F2F3150093CDE9037700
:1099C000CDE901770694334603223946089508F01D
:1099D00093F910F0FD0FDCD000DEDAE700DE98E747
:1099E00000DEDAE71B4A1C491C4840F2E5131AF076
:1099F00035FD1B4B0721A5FB030301FB05310EA31E
:109A0000D3E90023FEF7F6FA1649024616481AF083
:109A100025FD002585F31188BFF36F8F03231846BA
:109A200002DF1248214612F0B7F812F08BF96FF0FE
:109A30008B00B3E7AFF3008000CA9A3B0000000040
:109A4000D6BE898E555555007DAF030011AD03007C
:109A500021AD030060BB040024BB04009CB90400DA
:109A60008D49FD1AACBB040028BB04009DAD03006A
:109A70002DE9F043C468A28A4FF6FF739A4283B07F
:109A800000F0FF80064611F01BFC3389628B208CAE
:109A9000A3831A4492B2104494F82730E28380B230
:109AA000411C21845D064FF00001618304F1220115
:109AB00000F1A78003F03F000B4694F828100090B7
:109AC00004F1290010F028F80546D4E90C31A26B06
:109AD000A08BA36303FB0022E36B8A4294BF9B1815
:109AE0005B188B4228BF0B46626C216CE3630A440F
:109AF00094F867306264002294F82C10226494F881
:109B00007E20C3F3020363F3061112F0040284F80B
:109B10002C1000F0878012F06BF8002012F08CF807
:109B2000201D12F0A9F82389A17A40F25B6043EA74
:109B3000014112F05DF9284610F0AAFB2146584871
:109B400012F02AF8A08912F081FA94F8662094F8AD
:109B50006700C2F3C003002102F0070200F0070013
:109B600012F0ACF9204611F045FCD4F800803768BB
:109B7000404610F079FB0744726807F109010020A4
:109B800012F070FA814612F031FB002012F048FB0F
:109B9000E36B94F8670003F12F02636C00F0070099
:109BA000012103EB420512F0B9F84D44054494F845
:109BB000670000F00700022832D004280CBF4FF4E1
:109BC000BC73282301211D4412F0AAF8284412F086
:109BD000FFFAA18A05313A46C9B2404610F046FB69
:109BE0000546B0B1B37A13F0020629D000252D48FE
:109BF000214611F0D1FF12F0A5F8284603B0BDE8C8
:109C0000F0830A4603F03F03218D0FF0D1FF054694
:109C10005BE7204610F0F6FA002839D10025ECE782
:109C20001823CFE7D4E91A0106F028FE00287FF4B4
:109C300072AF94F87E3043F0040384F87E306AE714
:109C4000194A1A491A4840F259131AF007FC1948E0
:109C50000721A5FB000301FB05310FA3D3E9002376
:109C6000FEF7C8F91449024614481AF0F7FB86F3C8
:109C70001188BFF36F8F0323184602DF6FF08B0547
:109C8000B5E70F48214611F087FF12F05BF8C5E7F2
:109C900000DEC3E7AFF3008000CA9A3B000000007B
:109CA0001DB603008DA30300C0BB040024BB040049
:109CB0009CB904008D49FD1A14BC040028BB0400A3
:109CC000ADA303000000000070B514460646084628
:109CD000FDF726FF2146FDF777FFFEF7FFF90E4D52
:109CE00080FB05450AA3D3E9002320462946FEF759
:109CF00031F90A4A3060002320462946FEF72AF946
:109D0000064A0023FEF726F9726070BDAFF30080AB
:109D10000010A5D4E80000003AA3950040420F00CF
:109D200070B5144606460846FDF7FAFE2146FDF7D3
:109D30004BFF1349134DFDF7FBFFFEF7CFF980FBF7
:109D400005450BA3D3E9002320462946FEF702F977
:109D500009A3D3E90023306029462046FEF7FAF82C
:109D6000094A0023FEF7F6F8726070BDAFF3008079
:109D700000209BF35E10000080A81201000000008C
:109D800000002041D8EF2F0040420F0000000000EB
:109D9000032970B504460D4604D007294ED06FF054
:109DA000850026E0BAB3072AF9D158681A68564BDD
:109DB000C117C2FB0301012871F100033BDB534BC8
:109DC000C01841F100014CA3D3E90023FEF7C2F80B
:109DD000022826690ED010280ED004280ED008289C
:109DE00029D1294620461FF00AF9002808DA6FF029
:109DF000040070BD0025F4E70125F2E70225F0E735
:109E0000434B33F815103D20A1FB0001FDF79EFEEA
:109E1000F0600020EDE719883E4B33F8020B8142D9
:109E200006D1D1B2204614F09FFD0028F1DADEE71A
:109E300001320C2AF1D16FF01500DAE7002A4BD07D
:109E4000072AACD15A681D682F48D11713460A4615
:109E5000C5FB0032B425A3FB0501012B05FB021154
:109E600072F1000228DB2C4BC01825A3D3E9002394
:109E700041F10001FEF76EF8FA2825D0B0F5FA7F1F
:109E800024D0B0F57A7F23D0B0F5FA6F22D07D28A8
:109E9000D1D104252946204626691FF0C0F80028A4
:109EA000A5DB1E4B33F8151041F21710A1FB000182
:109EB000FDF74CFEF061ACE7194BC01861F10001F1
:109EC0000FA3D3E90023D5E70025E3E70125E1E768
:109ED0000225DFE70325DDE719880E4B33F8020B77
:109EE000814204D1D1B2204614F022FD9DE7013217
:109EF0000C2AF3D19FE700BF3AA3950000000000B1
:109F0000D8EF2F000000000040420F009DD14A0012
:109F1000F8BF040000C00400ECF71700EEBF040017
:109F20001408E8FF00000000C34A2DE9F84F21F0B3
:109F30000043934204460D468B4620D9BF4A9342C4
:109F400001D80CD158B122462B4620462946FDF7B0
:109F5000DDF804460D4620462946BDE8F88FBBF1E2
:109F6000000F97A3D3E9002303DD97A1D1E90001F6
:109F7000EDE797A1D1E90001FDF7C6F8E9E7B04A9E
:109F8000934211D8A2F1DE7293420AD892A3D3E988
:109F90000023FDF7BBF8AB4B0022FDF7FDFC0028CA
:109FA000D9D14FF0FF3A27E0A74A9342064621F065
:109FB000004700F2B880A2F55022934200F29B8045
:109FC00002463B463946FDF7A1F89E4B0022FDF7BD
:109FD0009BF8002204460D464FF080433046394638
:109FE000FDF794F802460B4620462946FDF76EFB26
:109FF0004FF0000A04460D4622462B4620462946CD
:10A00000FDF73AFA02460B4680468946FDF734FAD8
:10A0100073A3D3E9002306460F46FDF72DFA72A37A
:10A02000D3E90023FDF772F832463B46FDF724FAE8
:10A030006FA3D3E90023FDF769F832463B46FDF7ED
:10A040001BFA6DA3D3E90023FDF760F832463B46C7
:10A05000FDF712FA6AA3D3E90023FDF757F8324659
:10A060003B46FDF709FA68A3D3E90023FDF74EF854
:10A0700042464B46FDF700FA65A3D3E9002380462C
:10A08000894630463946FDF7F7F963A3D3E9002343
:10A09000FDF73AF832463B46FDF7EEF960A3D3E907
:10A0A0000023FDF731F832463B46FDF7E5F95EA3A4
:10A0B000D3E90023FDF728F832463B46FDF7DCF9EB
:10A0C0005BA3D3E90023FDF71FF832463B46FDF7BB
:10A0D000D3F902460B4640464946FDF717F822469B
:10A0E0002B46FDF7C9F9BAF1FF3F02460B4644D1B2
:10A0F0002046294640E7534B00223946FDF704F835
:10A10000504B04460D46002230463946FCF7FEFF10
:10A1100002460B4620462946FDF7D8FA4FF0010AC1
:10A1200004460D4668E7494A93421BD2484B002239
:10A130003946FCF7E9FF464B04460D4600223046FF
:10A140003946FDF799F93F4B0022FCF7DFFF024645
:10A150000B4620462946FDF7B9FA4FF0020A04469D
:10A160000D4649E702463B493B460020FDF7AEFA63
:10A170004FF0030A04460D463EE7374B374E03EBDC
:10A18000CA03D3E90023FCF7BFFF22462B46FCF7A6
:10A19000BBFF06EBCA0602460B46D6E90001FCF7F8
:10A1A000B3FFBBF1000FBCBF024601F10043044600
:10A1B0000D46BCBF14461D46CDE600BFAFF3008080
:10A1C000075C143326A6913C182D4454FB21F93F1B
:10A1D000182D4454FB21F9BF9C7500883CE4377E60
:10A1E00011DA22E33AAD903FEB0D76244B7BA93F89
:10A1F000513DD0A0660DB13F6E204CC5CD45B73F57
:10A20000FF8300922449C23F0D5555555555D53F02
:10A210002F6C6A2C44B4A2BF9AFDDE522DDEAD3FF6
:10A220006D9A74AFF2B0B33F711623FEC671BC3F96
:10A23000C4EB98999999C93FFFFF0F440000F07F44
:10A24000FFFFDB3F0000F03FFFFFF23F00800340D5
:10A250000000F83F0000F0BF78B4040098B4040098
:10A2600007B513460091034803491AF0EAF803B012
:10A270005DF804FB18C00400FFC20400044A054B4B
:10A280000549002818BF1A4604481AF0DAB800BF7A
:10A290003FC0040037C00400F1C2040048C00400FD
:10A2A00010B505481AF0CDF8BDE8104003484FF44A
:10A2B0008042002317F058BE53C004000000002065
:10A2C00030B50D4D0FCD89B003AC0FC42B682360A2
:10A2D00001230A4900930222094B03A803F09CFAC8
:10A2E000014620B107481AF0ACF809B030BD064865
:10A2F0001AF0A7F8F9E700BFA0B10400C0B4040049
:10A30000B8B404006DC0040090C0040010B5044649
:10A3100021B10948BDE810401AF093B807481AF077
:10A3200090F80749204606F089F810F0FF0101D0A7
:10A330000448EFE710BD00BFA7C00400BEC0040082
:10A3400088020020C9C0040008B539B91DF032FCEC
:10A3500001460348BDE808401AF073B80148F9E720
:10A36000EBC0040007C1040030B5037893B0044685
:10A3700007AD032B20D8DFE803F002191B1D11499C
:10A380002846FDF79BFE059563780493A378039315
:10A39000E37802932379019363790093A3790A4ABE
:10A3A0001E210AA818F036FC13B030BD0749E7E7B4
:10A3B0000749E5E70749E3E7074A0A21284618F075
:10A3C00029FCE0E720C1040049C1040027C10400C2
:10A3D0002EC1040038C1040042C10400F8B5224A6D
:10A3E00013680133044613608368204FDB68204EF6
:10A3F000204D032198473A462046002119F043FE9C
:10A4000032462046012119F03EFE2A46022120460E
:10A4100019F039FEA3680721DB6820469847164AE1
:10A420000421204619F02FFE144A0521204619F078
:10A430002AFE134A0621204619F025FE114B1A6800
:10A4400082B197E8030000221A600F4B83E80300F3
:10A4500096E803000D4B83E8030095E803000C4BDE
:10A4600083E80300F8BD00BF381400201814002052
:10A47000101400200814002000140020F8130020FD
:10A48000F01300203C140020301400202814002079
:10A4900020140020014B1B68184700BF9C020020BD
:10A4A000014B1860704700BF9C02002030B585B09A
:10A4B00004460D4610220021684620F081F902234F
:10A4C0008DF802302A46044B01932146684618F065
:10A4D0008BFC05B030BD00BF95A4020080B50546D9
:10A4E0000E461746984618F08DF8034620F052FBAA
:10A4F000DFF81890044649F80030424630463946A5
:10A50000A84754F8090000F00BFC00BF0800000049
:10A510002DE9F047058B04462807904611D40229FF
:10A5200005F0070540F0CC80204619F0BFFF78B158
:10A530000138218B042811D8DFE800F0C2106D85A6
:10A54000950001290CBF45F0100545F02005258335
:10A5500088F31188BFF36F8FBDE8F08701F0070A19
:10A56000AA4500F0A5800027B9463E46A368002B07
:10A5700000F0BC8041F00801218388F31188BFF30B
:10A580006F8FA168002900F0BA800D68002900F0E3
:10A59000B680D1F80480334652462046C047002D8D
:10A5A00076D02B6829461D46F0E701F007035A1FB5
:10A5B000012A1BD8002221F00701062B276889B247
:10A5C000C4E9002209D13B4603E0628B0132628379
:10A5D0001B68002BF9D141F002012183204619F0BC
:10A5E00065FF00287AD041F0200176E0042B0AD1E3
:10A5F00021F0070189B22183204619F057FF10B1DD
:10A6000041F020012183218B01F0070AAA454FD098
:10A610000027B946AAE7236921F0070141F00601A6
:10A62000062DD3F8009021832DD1B9F1000F3FD032
:10A6300041F00801218388F31188BFF36F8F3A49F5
:10A640002046C84729E021F00701236941F00401B1
:10A6500089B2042DD3F804902183E6D000273E462A
:10A660004FF0040A82E721F00701236941F0050158
:10A6700089B2052DD3F808902183D6D000273E4615
:10A680004FF0050A72E700273E464FF0060A6DE7D5
:10A690002B4687E7B9F1000FD1D1EFF311882023C2
:10A6A00083F31288BFF36F8F238B23F00803238378
:10A6B000258BEA062ED525F01003238305F0070528
:10A6C0006669218B002EBFF670AF00232768C4E9AE
:10A6D000003321F0070141F001012183218B01F0BA
:10A6E000070AAA454FF000097FF440AF002F9CD025
:10A6F00041F00801218388F31188BFF36F8F002F89
:10A70000C8D03D68394633465246204619F0FAFE15
:10A710002F46F4E7AB067FF51BAF25F0200323831C
:10A7200005F0070500E700BF31450400014B036059
:10A7300000207047E8B4040007B51B491B481AF015
:10A7400085FA70BB1A4919481AF080FA48BB1949B2
:10A7500016481AF07BFA20BB174914481AF076FA0B
:10A76000F8B90146154A11481AF039FDC8B9024630
:10A7700013490E4801231AF00DFE90B901230093EE
:10A78000014602230948EF221AF080F948B9074828
:10A790001AF0A5F928B9054803B05DF804EB1AF0E2
:10A7A000CEB903B05DF804FB14030020D40A0020E6
:10A7B000FC020020E4020020CC020020A0020020C5
:10A7C0000CC3040008B50348034A0021121A1AF00A
:10A7D00024F808BD600B0020483400200748084AD0
:10A7E000084908B5121A1AF01AF80748074A084922
:10A7F000BDE80840121A1AF012B800BF000000208D
:10A80000600B0020E4CA04000000002000000020CB
:10A81000E4CA040038B505460C4699B1D1E90123D4
:10A820000F48096819F00DFED4E90423E1680D48CA
:10A8300019F007FEE1690C4819F003FEA1690B4805
:10A8400019F0FFFD012D05D1EFF3058108481039FE
:10A8500019F0F7FD21462846BDE8384016F0C4BD82
:10A860005CC304008CC30400BCC30400CCC304005C
:10A87000FBC3040030BFFFF7FDBF00BF2DE9F0416F
:10A880000B4EDFF8308006EB0807CC1B054632463E
:10A89000094920461FF06CFFA01942460021083CE0
:10A8A0001FF08EFFC5F8844007F10800BDE8F08175
:10A8B000000000000800000098B10400054B5A6930
:10A8C0009B689A421FBF044A536843F08053536009
:10A8D000704700BFA033002000ED00E02DE9F843F1
:10A8E000324D804632488946174619F0AAFDAB6AB8
:10A8F000DE0622D52F4819F0A4FD1124AB6A1D07EE
:10A9000003D52D4819F09DFD1224284DAB6A9807F8
:10A9100015D52A4819F095FD6E6BAB6A190642D51C
:10A920002748314619F08DFDB9F1000F03D0AB6A0D
:10A9300023F08003AB62132403E01024DEE76FF002
:10A9400015061A4DAB6ADA0703D51E4819F079FDD2
:10A950001424AB6A9B0603D51B4819F072FD15241D
:10A96000124B9A6AD50602D49A6A90070AD55B6898
:10A97000190507D54146304600F0BAFA10B180F308
:10A9800009880224094B9A6A920642BF5A6A22F445
:10A9900000525A629A6A42F0FF029A6200233B70A8
:10A9A0002046BDE8F8836FF01506C4E700ED00E02F
:10A9B0000FC4040026C404005AC404006EC404007A
:10A9C00087C404009EC40400BEC4040010B51D4C1E
:10A9D0001D4819F036FDA36A990130D51B4819F0BE
:10A9E00030FD1E20A36ADA0103D5194819F029FDAC
:10A9F0001F20144CA36A1B0303D5164819F021FD30
:10AA00002120A36A590303D5134819F01AFD222007
:10AA10000C4CA36A9A0303D5104819F012FD2320A9
:10AA2000A36ADB0303D50E4819F00BFD2420054A69
:10AA3000936A6FEA03436FEA1343936210BD1D20CC
:10AA4000D0E700BF00ED00E0EEC4040007C504003D
:10AA50001BC5040036C5040055C504007BC50400B1
:10AA600096C5040070B5244C064624480D4619F0DE
:10AA7000E8FCA36AD90435D5214819F0E2FC172077
:10AA8000A36A1A0503D51F4819F0DBFC18201A4CDD
:10AA9000A36A9B050FD51C4819F0D3FCA16BA36AD0
:10AAA000180407D5194819F0CCFC1EB1A36A23F489
:10AAB0000043A3621920104CA36A590503D514481A
:10AAC00019F0BFFC1A20A36ADA050DD5114819F058
:10AAD000B8FC1B20084A936A43F47F439362002327
:10AAE0002B7070BD1620CBE7A36A9B04F2D50A48F1
:10AAF00019F0A7FC1C20EDE700ED00E0C2C5040042
:10AB0000D9C504005AC40400EBC5040005C60400FE
:10AB10001BC6040037C60400BEC404002DE9F04182
:10AB20005B4B5F688AB00446C7F30806002585F3CF
:10AB30001188BFF36F8F02F07F43B3F17F4F06D1CF
:10AB400002F00C03082B13D1524819F07AFC0025AF
:10AB50002C464FF00008F31E8DF80780092B00F2F9
:10AB60008680DFE803F00A7A7E7684848484848297
:10AB700010074CBF0C460125EBE74748444E19F03F
:10AB800060FC8DF80780F36A9A0704D5434819F0F2
:10AB900058FC002330E0F36A002B01DA4048F6E766
:10ABA000F36A5B00F5D53F4819F04BFC7369A26965
:10ABB00043F480737361BFF34F8FBFF36F8F73697B
:10ABC00032F8022C23F480737361BFF34F8FBFF30D
:10ABD0006F8F4DF602739A4209D0B36ADBB253B35A
:10ABE0000DF1070201212046FFF778FE33E02168CE
:10ABF0002D4819F026FC23689DF80720C2B902AE43
:10AC000004F1200720686168324603C20834BC4260
:10AC10001646F7D1099AB5B3C2F3080121B96FEA14
:10AC200052226FEA4222099202A91846FFF7F2FD6A
:10AC30000AB0BDE8F081B36A13F47F4F05D00DF17F
:10AC400007010120FFF70EFF05E0B36AB3F5803F6F
:10AC50009FD3FFF7BBFE0346CEE70DF107020021AD
:10AC6000C1E70DF107010020ECE710488FE7104B1A
:10AC70001049114817F4F87FA6F1100218BF1946C1
:10AC800019F0DFFB85E722F4FF7222F00102CAE728
:10AC900000ED00E07EC60400AAC60400C2C604009F
:10ACA000E4C60400F3C6040013C7040030C7040060
:10ACB00065C6040050C6040055C70400044B5A6919
:10ACC00042F010025A615A6922F008025A61704734
:10ACD00000ED00E0EFF30880EFF3098101B5724663
:10ACE000FFF71CFF01BD00BF0B4880F3088814F07C
:10ACF00089FC202080F3118808484FF40461401833
:10AD000080F30988EFF314800221084380F314884C
:10AD1000BFF36F8F00F0B4F880530020C0450020CF
:10AD2000084B9B6883420BD1EFF3058343B1064B7D
:10AD30005A6842F080525A605A6A22F400425A62BB
:10AD400017F066BCA033002000ED00E015498A68CA
:10AD50004FF030001044EFF3098C80E8F01F202002
:10AD600080F31288BFF36F8F0F4F4FF000664A6970
:10AD70008A603E60D2F884000C4C2060D2F88800D3
:10AD80000023C2F8883080F3118804B5104600F023
:10AD900015F9BDE8044002F1300090E8F01F8CF393
:10ADA00009887047A033002004ED00E04014002023
:10ADB0001EF0040F0CBFEFF30880EFF309808169E8
:10ADC00011F8021C0229FFD001B5724619F029FDC5
:10ADD00001BD00BF40B2002807DB044A410901233E
:10ADE00000F01F00834042F82130704700E100E08E
:10ADF00040B200280CDB4309064900F01F00203355
:10AE00000122824041F82320BFF34F8FBFF36F8FA1
:10AE1000704700BF00E100E0054B420900F01F0051
:10AE200053F82220012303FA00F01040704700BFBE
:10AE300000E100E040B20028A8BF00F1604001F14D
:10AE40000101B8BF064B4FEA4111ACBF00F56140AC
:10AE500000F00F00C9B2B4BF195480F80013704756
:10AE600014ED00E0044B054A23F07F039360BFF329
:10AE70004F8FBFF36F8F70470070020000ED00E04E
:10AE800008B5FFF7EFFF0B4AD2F8883023F47003C0
:10AE9000C2F88830EFF3148323F0040383F314889B
:10AEA000BFF36F8FFFF78EFCFFF798FC00F05CF8A4
:10AEB00016F062FB00ED00E042F8203C009B42F8F7
:10AEC0001C3C0A49019B42F8183C029B42F8143C86
:10AED00021F001014FF0807342F8043C42F8081C55
:10AEE0000023203A0265C0F888307047DDA40200D4
:10AEF000094A0346906870B113F1160F406F05D0F0
:10AF0000A0F140029A4205D8834203D2814228BF71
:10AF10000020704700207047A033002008B5154678
:10AF20000C4A0D4B9060D0F884201A600E4600F059
:10AF300045F82C4686F309880020044B98472046A4
:10AF4000002100220023024C204700004748040053
:10AF5000DDA40200A033002040140020014B102289
:10AF60001A61704700ED00E0044800232021C21858
:10AF70000133302B82F80013F9D1704700E100E073
:10AF800008B5EFF30583064A103B02EBC30152F804
:10AF9000330049688847BDE80840FFF78FBC00BF11
:10AFA00048AE0400024B034A0348012100F076B882
:10AFB0000000042000000020E8B40400426F054BAC
:10AFC000403A1A60044A4021C3E90112184601219F
:10AFD00000F06EB84414002000000B15084AC2F8B7
:10AFE00098000B6823F01F03034343F01003C2F8DB
:10AFF0009C308B6843F00103C2F8A030704700BF5B
:10B0000000ED00E02DE9F043DFF8608085B00E46EA
:10B010001F4604464FF00009B14523DA6068D8B1F5
:10B020003FB1411E08421BD11F2819D9236819427C
:10B0300016D12368019319F029FCA36803430393F5
:10B04000D8F89050C5F30725D0B2013DA84207D8E3
:10B0500001A9FFF7C3FF421C09F101090C34DBE72A
:10B060006FF01502104605B0BDE8F08300ED00E07A
:10B07000044B0522C3F89420BFF34F8FBFF36F8FAB
:10B08000704700BF00ED00E0BFF35F8F024B00226E
:10B09000C3F89420704700BF00ED00E010B5034CEA
:10B0A00001232278FFF7AEFF207010BDF23300209D
:10B0B00008B50B4A00231278FFF7A4FF10F1160F12
:10B0C00007D0084A0021D2F89030C3F307239842F2
:10B0D00000DB08BDC2F89800C2F8A0100130F2E70A
:10B0E000F233002000ED00E02DE9F043534B544CC7
:10B0F000D3F890302568C3F307239D4285B000F252
:10B100009A80FFF7C1FF00200C2685421AD14D4CD2
:10B110004D4F25706846FFF709FBDFF82081DFF807
:10B120002C9106460025AE4213D1237843490020D6
:10B13000D1F89020C2F30722934276DBFFF798FF05
:10B14000002042E0616806FB0011FFF747FF013075
:10B15000DBE7009800EB05114FEA051CCB683B408C
:10B16000B3F5000F48D00AD8B3F5001F30D0B3F5BF
:10B17000800F36D0B3F5801F10D00135D3E7B3F17F
:10B18000807F42D0B3F1007FF7D150F80C3088684F
:10B190004A6819F07BFB40F4802009E050F80C303D
:10B1A00088684A6819F072FB40F0885040F43020FB
:10B1B000CDE901230390D8F890302078C3F307231A
:10B1C000013B98422AD96FF0150005B0BDE8F08325
:10B1D00050F80C3088684A6819F058FB40EA0900BA
:10B1E000E6E750F80C3088684A6819F04FFB40F0E9
:10B1F000C06040F40030DBE750F80C3088684A68E3
:10B2000019F044FB40F08270D2E750F80C308868A7
:10B210004A6819F03BFB40F08870C9E701A9FFF7C5
:10B22000DDFE237801332370A7E7C1F89830C1F819
:10B23000A00001337CE74FF0FF30C6E700ED00E0EF
:10B24000F4B40400F23300200000F0FF0000081105
:10B2500008B5024B1B689847002008BD5014002019
:10B26000034B044A1860937843F0020393707047CD
:10B27000501400202C03002008B50649064821F090
:10B280000701C1F1005202F5802219F09BF800205D
:10B2900008BD00BF239200205414002070B54169FE
:10B2A000867A0B4D044659B1437ADB0706D42C232A
:10B2B00003FB06535B6A1B689B6898470023636126
:10B2C0002C20214606FB0050BDE870401EF0EABE6F
:10B2D0006C090020024B2C2202FB0030704700BF9B
:10B2E0006C090020827A064B2C2101FB02339A6AFA
:10B2F0001B7F1B33801A23F00303B0FBF3F070476E
:10B300006C09002038B5074B827A2C2404FB0233E9
:10B310005B6AD3E901240C601568FFF7E3FF04FBC7
:10B32000005038BD6C0900202DE9F04385B005467A
:10B330006846039190461C461FF000F9DDE900675E
:10B34000EFF31189202383F31288BFF36F8F6B8B88
:10B35000002B41D02A8B9A4225D90022002328466F
:10B3600016F06CFB0446F0B189F31188BFF36F8FC0
:10B37000039B002B41D032463B4668461FF003F941
:10B38000A27A264B2C2101FB023320465B6A1B6804
:10B3900003A91D68DDE90023A847606170BB204652
:10B3A000FFF77CFF24E0698B4B1E6B8389F31188C8
:10B3B000BFF36F8F2B7F2A8BAC6A1B3323F0030301
:10B3C000521A02FB0344154B154AEB1A9B105343C8
:10B3D000A3722B7FE372CBE789F31188BFF36F8FE2
:10B3E00023464246284616F029FB04460028BFD1D2
:10B3F0000024204605B0BDE8F083636101230025E9
:10B400002381039B6382E27A6560294604F1180078
:10B410001FF0D6F963692582E360EAE76C09002032
:10B42000A38B2EBA70B50D4C2C2500B970BD037AD4
:10B430004668002BFAD0013BDBB20372002BF5D13A
:10B44000C3604360837A05FB03431B6A13B19847CB
:10B450003046EAE7FFF722FFFAE700BF6C09002059
:10B460000E4A0123C2F840354FF080424FF0805120
:10B47000C2F87835D1F83001082808D1D1F8341154
:10B48000052904D80648415C09B1C2F838364FF0A6
:10B4900080430122C3F880250020704700E001406E
:10B4A00078C7040020B1034B800143F00103184723
:10B4B000704700BFE0B104002DE9F04190F8203062
:10B4C00003F01F03012B04460F4600F120061BD09A
:10B4D000022B05D043BB90F8211019F044FF03E084
:10B4E000818CC9B219F01CFF0546E8B1304619F04D
:10B4F00035FC024668688368A2B99B684BB13A463E
:10B500003146BDE8F0411847818CC9B219F0EFFE11
:10B51000EAE76FF085031FF03DFB0F4A1350002050
:10B52000BDE8F081DB68E9E794F82110204619F0C6
:10B5300034FB02460028ECD0304619F00FFC40B92D
:10B540001369002BE5D03A4631462046984703461A
:10B55000E1E7D368F5E700BF0C0000002DE9F04FEC
:10B560000B7E33F0800893B00446174600F12009A3
:10B5700040F071844A7E02F0010097B117F10C0F80
:10B580000FD088B917F1710F03D10846FFF74AFFB2
:10B5900003E00846FFF746FFB846404613B0BDE853
:10B5A000F08F002800F04084002B40F00E840B8ABE
:10B5B000072B0DD80846FFF735FF484619F0CEFB9C
:10B5C0000346A069002B00F03684802100F03CBCCB
:10B5D000CA68136823625368C9F804304A68E58C66
:10B5E000002AE7D0484619F0B9FB08BB537E15B1D5
:10B5F00013F0020F01E013F0040FDBD0002019F06C
:10B60000B5F905460028D8D01FF0C4FA94F82020D8
:10B61000B84E002312F0600F8351C2F341130BD0D8
:10B62000032B40F0B3811FF0B5FA6FF0850340E0C3
:10B63000002DBFD0537EDBE7484619F08FFB94F80E
:10B640002130002840F03981013B0A2BEBD801A1C1
:10B6500051F823F0A1B7020027B6020023B8020078
:10B6600027B6020081B6020027B6020027B6020004
:10B6700027B60200F3B6020027B6020055B7020053
:10B68000A069618C03697F29D3F88030CBD8A28C64
:10B69000002AC8D1E28C002AC5D194F82020D20615
:10B6A000C1D194F82C20022A05D11FF073FA4FF073
:10B6B000FF33335013E01B0706D5C9B219F087FBDF
:10B6C000804620B1284661E7012384F8353094F89C
:10B6D0002C30012B0BD1638C4BB984F82C301FF02C
:10B6E00059FA3358002B00F05683284663E70123AC
:10B6F000F3E7204619F0C5F9628CFF2A014692D87B
:10B70000E38C002B8FD194F82030D8068BD194F89D
:10B710002C30002BC9D02AB1D2B2204619F00CFD32
:10B720000028C2D0618C94F834308B42D7D0C9B293
:10B73000204619F008FD80460028C3D1628C002AFB
:10B7400014BF0223012384F82C30052120461AF06F
:10B7500018F8C4E794F8203003F01F03012B7FF49E
:10B7600062AFE38C002B7FF45EAF628CFF2A3FF662
:10B770005AAFA18CFF293FF656AF94F82C30022B1C
:10B7800093D1D2B2C9B2204619F0EFFE10F1020FE8
:10B79000804640F000811FF0FDF946F800809EE7EA
:10B7A000E38CA18C002B7FF43EAF94F82C30002B5F
:10B7B0003FF47BAF012B0FD100297FF476AF12F05D
:10B7C0001F020CD1638C012B89D194F868306FF380
:10B7D000C30384F8683082E712F01F0217D0022AF0
:10B7E0007FF47DAFB4F822A0BAF1000F7FF477AFF9
:10B7F0005FFA81F84146204619F0A9FF03461FF081
:10B80000C9F93350013306D14FF0FF385AE7002908
:10B810007FF44BAFD6E752464146204619F0A4FAD2
:10B820005DE7E38CA18C002B7FF4FDAE638C022BD3
:10B830005FFA81F813D194F8203003F01F0358EA1F
:10B8400003037FF4F0AEA0690122090A19F09CFA03
:10B8500000287FF4E8AE012384F835303FE794F800
:10B860002C0000283FF421AF01280DD100297FF4DE
:10B870001CAF12F01F020AD1012B7FF430AF94F8F5
:10B88000683043F00803A4E712F01F0211D0022A27
:10B890007FF425AF002B7FF422AF4146204619F0FC
:10B8A00041FF03461FF076F933500133ACD001223B
:10B8B000B2E700297FF4F9AEDEE70A2B3FF6B3AE1C
:10B8C00001A151F823F000BFF9B8020027B6020029
:10B8D00027B6020027B6020027B6020027B60200EC
:10B8E00079B9020027B602002FBD020027B6020078
:10B8F0005DBD02000C000000E38CA18C022B7FF4E4
:10B9000092AE94F82C30002B3FF4CFAE012B10D127
:10B9100000297FF4CAAE12F01F020DD194F86830EE
:10B920004FEA930808F00208C3F3001348EA03083B
:10B9300006E012F01F0210D0022A12D04FF00008C9
:10B9400005F10C0A504619F08BF8E38C98420ED2A0
:10B950001FF020F96FF00B03ABE600297FF4A5AED2
:10B96000DCE7C9B2204619F001FF8046E8E741460E
:10B97000504619F02FF8B2E694F82020B4F822A02F
:10B98000D2064FEA1A235FFA8AFA09D029462046DE
:10B99000FFF792FD8046B8F1000F7FF493AE9EE66C
:10B9A000013B0E2B3FF63FAE01A252F823F000BF41
:10B9B000EDB9020037BA0200EFBA020027B6020062
:10B9C00027B60200E7BA0200E7BA020027B6020073
:10B9D00027B6020027B6020027B6020027B60200EB
:10B9E00027B6020027B6020037BC020005F10C0A98
:10B9F0005046B4F8268019F033F880450AD2B4F8DE
:10BA00002680204619F03DF848B101287FF40BAE9E
:10BA1000216F05E0504619F023F88046F1E7E16E0A
:10BA2000002900F013810A78424528BF424650465B
:10BA300018F0BFFF53E6204619F023F80AF101027F
:10BA400001900146D2B2204619F050FB82460028F0
:10BA50003FF4E9AD05F10C08D0F804B0404618F009
:10BA6000FFFF9BF80020904203D2404618F0F8FFF9
:10BA700002465946404618F09CFFDAF80CA0BAF18D
:10BA8000000F09D1298AE38C99427FF628AEC91AA2
:10BA9000404618F0A9FF22E6DAF8040083681B6B21
:10BAA00013B9DAF800A0EAE7019998470028F8D01E
:10BAB000A0F1040B5BF8043F002BF2D01B78002BA5
:10BAC000EFD0404618F0CCFFDBF800301A789042F7
:10BAD00003D2404618F0C4FF82B2DBF800104046A3
:10BAE00018F067FFE6E7204618F0CBFF9BE55246CB
:10BAF0000321204619F090F8824600283FF493ADC8
:10BB000019F027F9B4F826B0E0B9BAF81430ADF856
:10BB10002830DAF8103005F10C081B88ADF82A300F
:10BB2000404618F09DFF834508D2E08C9DF8282000
:10BB3000824228BF02460AA9404679E7404618F0EB
:10BB40008FFFF3E700238DF814309AF81530DAF8F8
:10BB500008208DF81530C24B1340C24A934258D189
:10BB6000102106A81DF00CF80028FFF65CAD0AAA0B
:10BB70001028DFF8F4E20DF1180C114628BF102050
:10BB8000404502F1020233D8800002308DF81400E3
:10BB9000019105F10C0A504618F062FF9DF81480DF
:10BBA000D84528BFD846404503D2504618F058FF24
:10BBB0008046B8F1020FC34628BF4FF0020B5A4629
:10BBC00005A9504618F0F5FEA8EB0B08DDF804B007
:10BBD0004FEA58030BEB58025A4522D118F0010FD7
:10BBE0003FF47DAD019AD15C504618F0EBFE76E54E
:10BBF0001CF8013B4FEA131A03F00F031EF80AA0CA
:10BC00001EF8033002F802AC02F8013C08F101080A
:10BC1000B6E79AF814308DF81430DAF81030019342
:10BC2000B7E71BF8011B5046CDE9023218F0D2FEEF
:10BC3000DDE90232D0E7204618F023FF20B10128C9
:10BC40007FF4F1AC236F00E0E36E13B96FF01508D9
:10BC500038E55B88B3F5007F7FF6E5AC834B0A934C
:10BC600000238DF82C30A36C04F1480A9A455BD16F
:10BC700005F10C0B584618F0F3FEBDF82A80E38C52
:10BC8000984528BF9846404503D2584618F0E8FE2C
:10BC900080469DF82820424528BF42460AA95846BA
:10BCA00018F087FEB8F1050F94BFA8EB0808A8F1BB
:10BCB0000508B8F1000F3FF412ADA36C53453FF4F3
:10BCC0000EAD002B3FF40BAD5A7D0F2A14D11A7D17
:10BCD00019690193424528BF4246584618F069FE4B
:10BCE000019B1A7D424594BFA8EB0208A8EB080807
:10BCF000B8F1000F3FF4F3ACE26C9A423FF4EFACC2
:10BD00001B68DEE75A7D0F2A0AD11A7DBDF82A107A
:10BD10000A44ADF82A209DF82C2001328DF82C2001
:10BD2000E26C9342A4D01B68002BEBD1A0E794F8FF
:10BD30002C3094F834A0002B3FF4B7ACE38C012BEB
:10BD40007FF471AC05F10C08404618F089FEE38CD5
:10BD50009842FFF4FDAD5146404646E794F8203046
:10BD600003F01F03012B7FF4A0AC204619F0D2F999
:10BD700000283FF49AACA38C4268FF2B3FF653ACEB
:10BD800012799A42FFF44FAC0F2B3FF64CAC234490
:10BD900093F836A0D2E70123A362484618F0DEFFED
:10BDA00060B9E38C53B12946002018F0DFFD054649
:10BDB00000283FF402AC6B7E5E07F4D5294620468E
:10BDC00013B0BDE8F04F19F04DBC50077FF5F5AB4F
:10BDD000802B7FF4F2AB0846FFF724FBA36A012B0C
:10BDE0007FF4DBAB94F83530002B3FF4D6AB94F8FE
:10BDF0002130052B05D1618CA069C9B218F0E7FF8D
:10BE0000804694F82130032B09D1638C022B06D194
:10BE1000A18CA0690022090A18F0B6FF8046002311
:10BE200084F83530FFF7B9BB52077FF5C6AB002B5E
:10BE30003FF4ABABCCE7E38C002B3FF4C6AB17F180
:10BE40000C0118BF0121C9011CF025FB002380460D
:10BE5000A362FFF7A2BB6FF00408FFF79EBB00BF11
:10BE600000FF0200000302007EC70400050F05006A
:10BE70000248002200231EF02BB800BFE808002073
:10BE80002DE9FF41514F4FF0FF334FF0FF3201A931
:10BE9000384615F0A7FC039B1B69D3F89C409DF81E
:10BEA0000430072BEFD8DFE803F00A041A0D2C2723
:10BEB0007B8D00220121204619F063FCE3E700227C
:10BEC0001146F8E794F8683043F0040301A984F8B8
:10BED0006830204618F09DFF00220321EBE794F81C
:10BEE00068306FF3820301A984F86830204618F0A7
:10BEF00090FF00220221DEE701A9204618F089FF09
:10BF0000C1E794F86830A6696FF3820384F868305B
:10BF10003369D6F80880BFF35B8FD3F8A030BFF346
:10BF20005B8F9907C3F3400208D40421204619F01F
:10BF300028FC4FF0FF352A460721BCE7D8F83C30F3
:10BF400030469847D8F82430002130469847D8F832
:10BF50004030054630469847E5B92946204619F055
:10BF6000F2F80546B0B98021204619F0D8FBA06947
:10BF70001CF046FB831E5842584194F8683084F800
:10BF80002C5023F0680343EA401384F868302A46B3
:10BF9000042190E700220421204619F0F2FBCAE7B1
:10BFA00002990B7ED1F81E2013F07F0F204606D198
:10BFB000FFF7D4FA054600283FF465AFBBE719F058
:10BFC000A6F9F7E7029A062175E700BFE808002006
:10BFD00030B589B000220023CDE9062300246FF09C
:10BFE0000703CDE90334CDE901441A4B1A49009403
:10BFF0004FF48062194816F041F8194917481EF0AD
:10C0000054F9184B18498B4207D3184B1849002094
:10C010008B4210D3002009B030BD03F11402BFF3EE
:10C020005B8F52E8000F42E80045002DF9D1BFF3C5
:10C030005B8F1833E7E703F11402BFF35B8F52E81D
:10C04000004F42E80005002DF9D1BFF35B8F183394
:10C05000DEE700BF81BE020080340020600B0020BC
:10C060008FC70400480B0020600B0020600B0020ED
:10C07000600B002038B502460949054680691CF06E
:10C0800026FB044648B985F83400284618F032FFEC
:10C09000044610B1A8691CF04DFB204638BD00BF16
:10C0A00071BE020070B5084C084E0546B44202D37A
:10C0B0000024204670BD636828461968FBF7F4FF2A
:10C0C0000028F6D01834F1E7480B0020600B002060
:10C0D00070B50646EFF31181202282F31288BFF378
:10C0E0006F8F1D4C236881F31188BFF36F8F5B68DE
:10C0F00093F86830DB0705D4BDE8704021220023A7
:10C1000015F066BFEFF3118382F31288BFF36F8FD0
:10C11000256865B983F31188BFF36F8F2368D3B1A6
:10C1200030460022BDE87040002315F01DBF616855
:10C130002A6822608D4208BF626083F31188BFF3D2
:10C140006F8F686805F10801C3699847034829465D
:10C150001DF06EFEE2E770BD60140020B8080020FC
:10C1600030B585B06C4684E80600054600221548C7
:10C17000002303A915F098FA0246E8B9039B94E856
:10C1800003005D60083383E80300EFF31180202390
:10C1900083F31288BFF36F8F039B1A600A4A5168BA
:10C1A00061B9C2E9003380F31188BFF36F8F07488C
:10C1B0000022002315F0D8FE05B030BD0B6053609F
:10C1C000F1E700BFB8080020601400203000002014
:10C1D00038B54B78046945682069202B08D0222B9C
:10C1E00019D01EF0D7FC114B6FF085021A5010E0E9
:10C1F000CB88072BF5D1D3681A6842609A880281F0
:10C200009B79837219F0DEFA22460821284619F03C
:10C21000C6FA002038BD4B888381C3F3400203F087
:10C2200001030276437622460921EFE70C00000065
:10C2300008B51346026910694A78212A13D133B927
:10C240001EF0A8FC0B4B6FF00B021A5009E0CA88D5
:10C25000072A00F1040128BF072203F10C0018F09F
:10C26000A8FB002008BD1EF095FC024B6FF0850274
:10C27000EBE700BF0C00000073B504698DF80710F0
:10C280002025EFF3118685F31288BFF36F8F01220B
:10C29000E06B0DF1070118F07DFA86F31188BFF30A
:10C2A0006F8F012812D01DF0FAFF08B9A37EABB939
:10C2B0000D4BBFF35B8F012253E8001F002903D110
:10C2C00043E800200028F7D1BFF35B8F2122002331
:10C2D00004F1480015F048FE02B070BD0021212095
:10C2E0001EF083F8CDE700BF6814002038B505695B
:10C2F0000E49EB6B0024C3E90144DC606B6B05F174
:10C300004800C3E90144DC601DF0AAFF05F1780094
:10C3100007491DF058FF074905F124001DF053FFA0
:10C32000284619F04FFA204638BD00BF995904003D
:10C33000415B0400CD5B04000378012B30B513D0C2
:10C34000022B27D07BB9194B0A4603F1100453F88E
:10C35000045B42F8045BA342F9D11B781370438855
:10C360004B731B0A8B7330BD104B0A4603F110044C
:10C3700053F8045B42F8045BA342F9D11B781370B5
:10C3800043684B73C3F307221B0CCB731B0A8A73DE
:10C390000B74E8E700F1100350F8042B41F8042B6C
:10C3A0009842F9D103780B70DDE700BFC1C70400E4
:10C3B00008B519F050FD16F031F8044B1B680BB1AD
:10C3C0000A209847BDE8084016F03CB86C140020DD
:10C3D00038B50446084818F074FA054648B1631E9B
:10C3E000DBB21F2B96BF054A0021D15C0C3018F040
:10C3F000E9FA284638BD00BF480A0020D2C7040029
:10C400000F2810B50CD80D280CD90A4818F059FA85
:10C41000044618B104210C3018F0D4FA204610BD9F
:10C420001328F2D009B10448F0E7BDE8104002201B
:10C43000FFF7CEBF740A0020C409002070B5C6689B
:10C440003378B6F8014083B90F21204602F000F896
:10C45000F378054650B90A4A118831B96FEA045099
:10C460006FEA10501080074A137070BD43720121AB
:10C4700001F05AFF2846BDE8704001F00FBF00BF31
:10C48000D4330020F333002010B5084C01460622B7
:10C4900094F86F0002F072FA38B994F86F0004490A
:10C4A000BDE81040052202F069BA10BD0801002065
:10C4B000A7C7040010B5012104460C3018F0B4FAE7
:10C4C0002146034A0078BDE81040002319F090BDD2
:10C4D00010B6040010B5012104460C3018F0A4FA7F
:10C4E0002146034A0078BDE81040082319F080BDBA
:10C4F000D0B5040010B5012104460C3018F094FAB0
:10C500002146034A0078BDE81040022319F070BDAF
:10C51000A0B504002DE9F04788461646824600285B
:10C5200072D0BFF35B8FDFF8E490002359E8004F2F
:10C5300049E80032002AF9D1BFF35B8F002C63D0A9
:10C540002046FEF7CFFE324D0C2303FB005027465A
:10C550004388534511D0BFF35B8F59E8003F49E84A
:10C560000072002AF9D1BFF35B8F002B4CD01F461D
:10C570003846BDE8F047FEF755BFA64208D0204632
:10C5800018F09AF9328AF16804F10C0018F011FAE7
:10C590002046FEF7A7FE0C2606FB00504368ABB111
:10C5A000B8F1000F12D12046FEF79CFE06FB0050AA
:10C5B00001214268D2E90003127A03F01F06B1405C
:10C5C0005B09DAB100EB830019F0B4FC2046FEF7FA
:10C5D00089FE0C2606FB00508368002BC8D020463D
:10C5E000FEF780FE704305F800802046FEF77AFED5
:10C5F00006FB0055A86815F053FAB9E7C94300EBEC
:10C60000830019F00CFDE1E7BDE8F087500200203F
:10C61000701400202DE9F8430C4615F0FFFEE36886
:10C62000228A1978022964D0042905D02046FEF711
:10C63000F9FE6FF0150405E0022A08D82046FEF73F
:10C64000F1FE002415F0FEFE2046BDE8F883587880
:10C650003E2808D1032AF1D0DB78012B01D00A2B28
:10C6600047D1032604E019F053FC0646F0073ED5F7
:10C6700004F10C05284618F0EFF901210746284679
:10C68000B4F8109018F0C8F90221284618F0CCF937
:10C69000804600783E2816D1E3681B78012B31D004
:10C6A0000A2B2FD002251A4A1A491B4841F2F303DC
:10C6B00017F0D4FE002383F31188BFF36F8F032399
:10C6C000184602DF04E019F023FCC1070546EAD54D
:10C6D000124A98F800000623214619F089FCAA079F
:10C6E00012D56369A4F8109013FA87F7E760B307CF
:10C6F000A7D521460A4818F0E8F80A490A481DF06B
:10C700007EFD9EE70325E3E72046FEF78BFEEEE77E
:10C71000F2C7040026C804003FC8040070B5040036
:10C7200054020020E8030020F00B002070B53148CF
:10C7300018F0E0F8044600285AD000F10C0528460D
:10C7400018F07AF9022805D004282FD02046FEF7E9
:10C7500069FE21E0238A032BF8D90421284618F02A
:10C7600063F9FF22438806882276228AC6F30B00EB
:10C770009A426083EAD10F2101F06AFE0546002843
:10C78000E4D001F081FE320B20762146284619F0D4
:10C79000B6FF284601F082FD174BD3F84C313BB36E
:10C7A000BDE87040154916481DF029BD28460221F4
:10C7B00018F03AF9054600783E2812D019F0A8FB87
:10C7C00010F002060DD10F4A0F49104840F663439E
:10C7D00017F044FE86F31188BFF36F8F03231846CA
:10C7E00002DF0B4A28780423214619F001FCADE74B
:10C7F00070BD00BF5402002008010020E8030020A3
:10C80000F00B0020F2C704005CC804003FC804001D
:10C81000B0B5040008B501F097FABFF35B8F084B81
:10C820001A68BFF35B8F02F00B02BFF35B8F53E814
:10C83000001F43E800200028F9D1BFF35B8F08BD3B
:10C84000DC01002010B5C1E900239DF808300B720F
:10C850000C46FEF747FD034B0C2202FB00335C60E5
:10C8600010BD00BF70140020F8B502460B461048FA
:10C8700018F027F80446C0B104210C3018F088F8ED
:10C880002046FEF72FFD0B4D0C2707FB005000261E
:10C8900046802046FEF726FD07FB005086602046B6
:10C8A000FEF720FD07FB00556E602046F8BD00BF77
:10C8B0001C0A002070140020034B0146D3F86C01C1
:10C8C00082689268104700BF0801002008B504483C
:10C8D000042119F02FFBBDE8084001F035BA00BF74
:10C8E000DC0100200048704708C30400014815F02F
:10C8F000CBBA00BFD803002070B505460C4659B925
:10C900004FF0FF304FF0FF31FFF7AEFF044618B98C
:10C910006FF06805284670BD2046FEF7E3FC164B15
:10C920000C2202FB0033A61830465D8018F094F804
:10C9300003280BD90321304618F05DF80580238ABF
:10C94000033B83700121304618F05DF840F6354313
:10C950009D4208D12046FFF7AFFF054648B120466B
:10C96000FEF760FDD6E7054821461DF090FBFFF776
:10C97000BDFF0025CEE700BF701400205C02002040
:10C9800038B502460B46244DD5F8541109B900209C
:10C9900038BD05F5987015F0BDF80028F7D10022D4
:10C9A000002305F5AA7015F049F8044668B91B4A3A
:10C9B0001B491C4840F6734317F050FD84F311885F
:10C9C000BFF36F8F0323184602DFD5F8480120B16B
:10C9D000FEF728FD0023C5F84831204617F0A0FFD8
:10C9E000C5F848012046FFF767FF98B10E4815F0DB
:10C9F00057F82046FEF776FC0C4B0C2202FB003069
:10CA00001F2140882246FFF785FD2046FEF70AFDDC
:10CA1000FFF76CFF0120BBE708010020F2C704000C
:10CA20008AC804003FC804003802002070140020A7
:10CA30002DE9F04F064687B017460C4669B94FF00E
:10CA4000FF304FF0FF31FFF70FFF044660B96FF082
:10CA50006805284607B0BDE8F08F887AFEF73AFCF3
:10CA6000454B834240F082800122002168461DF040
:10CA700027FB2046FEF736FCDFF800A10C2303FB62
:10CA800000A0C0F808D0204617F04AFF0146304603
:10CA9000FFF732FF054618B12046FEF7C3FCD8E782
:10CAA0001EF078F8364B1A58364B9A4220D1DFF8F0
:10CAB000D8B036481DF000FB002181464FF4A0207D
:10CAC000FFF75EFF804688B9314A32484FF4F97368
:10CAD000594617F0C3FC3048314617F0BFFC88F3C5
