:020000022000DC
:10700000009D002075EA0200B1F5040061EA02006B
:1070100061EA020061EA020061EA02000000000089
:107020000000000000000000000000003DEB020036
:1070300061EA020000000000D9EA020061EA0200F1
:107040000DED0200653004000DED02000DED0200B3
:107050000DED02000DED02000DED02000DED020040
:107060000DED02000DED02000DED02000DED020030
:107070000DED02000DED02000DED02000DED020020
:107080000DED02000DED02000DED02000DED020010
:107090000DED02000DED02000DED02000DED020000
:1070A0000DED02000DED02000DED02000DED0200F0
:1070B0000DED02000DED02000DED02000DED0200E0
:1070C0000DED02000DED02000DED02000DED0200D0
:1070D0000DED02000DED02000DED02000DED0200C0
:1070E0000DED02000DED02000DED02000DED0200B0
:1070F0000DED02000DED02000DED02000DED0200A0
:1071000081F0004102E000BF83F0004330B54FEA58
:1071100041044FEA430594EA050F08BF90EA020FC5
:107120001FBF54EA000C55EA020C7FEA645C7FEA58
:10713000655C00F0E2804FEA5454D4EB5555B8BF7B
:107140006D420CDD2C4480EA020281EA030382EAEC
:10715000000083EA010180EA020281EA0303362D7E
:1071600088BF30BD11F0004F4FEA01314FF4801C51
:107170004CEA113102D0404261EB410113F0004F63
:107180004FEA03334CEA133302D0524263EB43031A
:1071900094EA050F00F0A780A4F10104D5F1200EB8
:1071A0000DDB02FA0EFC22FA05F2801841F1000113
:1071B00003FA0EF2801843FA05F359410EE0A5F1E7
:1071C00020050EF1200E012A03FA0EFC28BF4CF018
:1071D000020C43FA05F3C01851EBE37101F00045CE
:1071E00007D54FF0000EDCF1000C7EEB00006EEBDB
:1071F0000101B1F5801F1BD3B1F5001F0CD3490865
:107200005FEA30004FEA3C0C04F101044FEA4452BB
:1072100012F5800F80F09A80BCF1004F08BF5FEA42
:10722000500C50F1000041EB045141EA050130BD22
:107230005FEA4C0C404141EB0101013C28BFB1F534
:10724000801FE9D291F0000F04BF01460020B1FA7F
:1072500081F308BF2033A3F10B03B3F120020CDA52
:107260000C3208DD02F1140CC2F10C0201FA0CF030
:1072700021FA02F10CE002F11402D8BFC2F1200C95
:1072800001FA02F120FA0CFCDCBF41EA0C0190404B
:10729000E41AA2BF01EB0451294330BD6FEA040494
:1072A0001F3C1CDA0C340EDC04F11404C4F120027F
:1072B00020FA04F001FA02F340EA030021FA04F391
:1072C00045EA030130BDC4F10C04C4F1200220FAE8
:1072D00002F001FA04F340EA0300294630BD21FA26
:1072E00004F0294630BD94F0000F83F4801306BFEC
:1072F00081F480110134013D4EE77FEA645C18BFE0
:107300007FEA655C29D094EA050F08BF90EA020F76
:1073100005D054EA000C04BF1946104630BD91EA6E
:10732000030F1EBF0021002030BD5FEA545C05D171
:107330004000494128BF41F0004130BD14F58004B0
:107340003CBF01F5801130BD01F0004545F0FE4124
:1073500041F470014FF0000030BD7FEA645C1ABF59
:10736000194610467FEA655C1CBF0B46024650EA90
:10737000013406BF52EA033591EA030F41F40021BC
:1073800030BD00BF90F0000F04BF0021704730B542
:107390004FF4806404F132044FF000054FF0000117
:1073A00050E700BF90F0000F04BF0021704730B5D8
:1073B0004FF4806404F1320410F0004548BF4042AD
:1073C0004FF000013EE700BF42004FEAE2014FEA02
:1073D00031014FEA02701FBF12F07F4393F07F4FDD
:1073E00081F06051704732F07F4208BF704793F0E0
:1073F0007F4F04BF41F40021704730B54FF46074F3
:1074000001F0004521F000411CE700BF50EA0102F5
:1074100008BF704730B54FF000050AE050EA01029E
:1074200008BF704730B511F0004502D5404261EB0E
:1074300041014FF4806404F132045FEA915C3FF44F
:10744000D8AE4FF003025FEADC0C18BF03325FEAEC
:10745000DC0C18BF033202EBDC02C2F1200300FA9D
:1074600003FC20FA02F001FA03FE40EA0E0021FAC2
:1074700002F11444BDE600BF70B54FF0FF0C4CF4B0
:10748000E06C1CEA11541DBF1CEA135594EA0C0F62
:1074900095EA0C0F00F0DEF82C4481EA030621EA9D
:1074A0004C5123EA4C5350EA013518BF52EA0335D8
:1074B00041F4801143F4801338D0A0FB02CE4FF08A
:1074C0000005E1FB02E506F00042E0FB03E54FF0BA
:1074D0000006E1FB03569CF0000F18BF4EF0010EB2
:1074E000A4F1FF04B6F5007F64F5407404D25FEAAE
:1074F0004E0E6D4146EB060642EAC62141EA555161
:107500004FEAC52040EA5E504FEACE2EB4F1FD0CA2
:1075100088BFBCF5E06F1ED8BEF1004F08BF5FEA20
:10752000500E50F1000041EB045170BD06F00046D2
:1075300046EA010140EA020081EA0301B4EB5C047F
:10754000C2BFD4EB0C0541EA045170BD41F4801177
:107550004FF0000E013C00F3AB8014F1360FDEBF9C
:10756000002001F0004170BDC4F10004203C35DA78
:107570000C341BDC04F11404C4F1200500FA05F3FB
:1075800020FA04F001FA05F240EA020001F000429C
:1075900021F0004110EBD37021FA04F642EB060112
:1075A0005EEA430E08BF20EAD37070BDC4F10C043C
:1075B000C4F1200500FA04F320FA05F001FA04F200
:1075C00040EA020001F0004110EBD37041F10001EC
:1075D0005EEA430E08BF20EAD37070BDC4F12005F7
:1075E00000FA05F24EEA020E20FA04F301FA05F25F
:1075F00043EA020321FA04F001F0004121FA04F207
:1076000020EA020000EBD3705EEA430E08BF20EAD6
:10761000D37070BD94F0000F0FD101F00046400010
:1076200041EB010111F4801F08BF013CF7D041EA92
:10763000060195F0000F18BF704703F00046520096
:1076400043EB030313F4801F08BF013DF7D043EA67
:107650000603704794EA0C0F0CEA135518BF95EA1D
:107660000C0F0CD050EA410618BF52EA4306D1D1A4
:1076700081EA030101F000414FF0000070BD50EAC3
:10768000410606BF1046194652EA430619D094EA4D
:107690000C0F02D150EA013613D195EA0C0F05D137
:1076A00052EA03361CBF104619460AD181EA03018B
:1076B00001F0004141F0FE4141F470014FF0000043
:1076C00070BD41F0FE4141F4780170BD70B54FF0DE
:1076D000FF0C4CF4E06C1CEA11541DBF1CEA13555E
:1076E00094EA0C0F95EA0C0F00F0A7F8A4EB050440
:1076F00081EA030E52EA03354FEA013100F0888037
:107700004FEA03334FF0805545EA131343EA1263FF
:107710004FEA022245EA111545EA10654FEA0026B4
:107720000EF000419D4208BF964244F1FD0404F56D
:10773000407402D25B084FEA3202B61A65EB0305C9
:107740005B084FEA32024FF480104FF4002CB6EB86
:10775000020E75EB030E22BFB61A754640EA0C0006
:107760005B084FEA3202B6EB020E75EB030E22BF46
:10777000B61A754640EA5C005B084FEA3202B6EB87
:10778000020E75EB030E22BFB61A754640EA9C0046
:107790005B084FEA3202B6EB020E75EB030E22BF16
:1077A000B61A754640EADC0055EA060E18D04FEAD4
:1077B000051545EA16754FEA06164FEAC30343EA74
:1077C00052734FEAC2025FEA1C1CC0D111F4801F41
:1077D0000BD141EA00014FF000004FF0004CB6E73A
:1077E00011F4801F04BF01430020B4F1FD0C88BFD9
:1077F000BCF5E06F3FF6AFAEB5EB030C04BFB6EBE4
:10780000020C5FEA500C50F1000041EB045170BDD6
:107810000EF0004E4EEA113114EB5C04C2BFD4EB03
:107820000C0541EA045170BD41F480114FF0000E87
:10783000013C90E645EA060E8DE60CEA135594EA03
:107840000C0F08BF95EA0C0F3FF43BAF94EA0C0F06
:107850000AD150EA01347FF434AF95EA0C0F7FF47B
:1078600025AF104619462CE795EA0C0F06D152EACF
:1078700003353FF4FDAE1046194622E750EA4106B3
:1078800018BF52EA43067FF4C5AE50EA41047FF4C4
:107890000DAF52EA43057FF4EBAE12E74FF0FF3C29
:1078A00006E000BF4FF0010C02E000BF4FF0010CFA
:1078B0004DF804CD4FEA410C7FEA6C5C4FEA430C73
:1078C00018BF7FEA6C5C1BD001B050EA410C0CBFC2
:1078D00052EA430C91EA030F02BF90EA020F002024
:1078E000704710F1000F91EA030F58BF994208BF8B
:1078F00090422CBFD8176FEAE37040F00100704748
:107900004FEA410C7FEA6C5C02D150EA013C07D19E
:107910004FEA430C7FEA6C5CD6D152EA033CD3D0E9
:107920005DF8040B704700BF8446104662468C46E3
:107930001946634600E000BF01B5FFF7B7FF002816
:1079400048BF10F1000F01BD4DF808EDFFF7F4FF3F
:107950000CBF012000205DF808FB00BF4DF808EDCA
:10796000FFF7EAFF34BF012000205DF808FB00BFED
:107970004DF808EDFFF7E0FF94BF012000205DF80F
:1079800008FB00BF4DF808EDFFF7CEFF94BF0120C4
:1079900000205DF808FB00BF4DF808EDFFF7C4FFBD
:1079A00034BF012000205DF808FB00BF4FEA410C06
:1079B0007FEA6C5C02D150EA013C0AD14FEA430CE9
:1079C0007FEA6C5C02D152EA033C02D14FF0000026
:1079D00070474FF00100704753B94AB9002908BFFA
:1079E00000281CBF4FF0FF314FF0FF3000F00CB803
:1079F000ADF1080C6DE904CE00F022F8DDF804E0EA
:107A0000DDE9022304B07047704700BF10F8012B76
:107A100011F8013B012A28BF9A42F7D0D01A7047CB
:107A2000034611F8012B03F8012B002AF9D1704706
:107A3000034613F8012B002AFBD1181A01387047AE
:107A40002DE9F04786468C460846089E1546744642
:107A50001946002B40F0C2808542B2FA82F245D925
:107A60004AB1C2F1200300FA02FC2EFA03F395405A
:107A700043EA0C0C94404FEA154EA8B2BCFBFEF84A
:107A8000230C0EFB18CC08FB00F943EA0C43994584
:107A900028D9EB1808F1FF3704D2994502D9A8F18B
:107AA00002072B44A3EB0903A4B2B3FBFEFC0EFBBD
:107AB0001C330CFB00F044EA0344A04214D92C19F7
:107AC0000CF1FF3304D2A04202D9ACF102032C44E2
:107AD000241A43EA07401EB1D44000233460736087
:107AE000BDE8F0874746DDE76346F1E792BB431BFD
:107AF00001214FEA154EAFB2B3FBFEFC200C0EFB8A
:107B00001C330CFB07F840EA0343984562D9EB1895
:107B10000CF1FF3004D2984502D9ACF102002B449D
:107B2000A3EB0803A4B2B3FBFEFC0EFB1C330CFB5F
:107B300007F744EA0344A7424ED92C190CF1FF334E
:107B400004D2A74202D9ACF102032C44E41B43EA5D
:107B50000040C0E7C2F1200320FA03F195409040B5
:107B60002EFA03F303434FEA154EAFB2B1FBFEFC0E
:107B70000EFB1C10190C0CFB07F841EA004188456C
:107B800004FA02F422D969180CF1FF3004D28845B6
:107B900002D9ACF102002944A1EB08019BB2B1FB70
:107BA000FEFC0EFB1C110CFB07F743EA01439F424E
:107BB0000ED9EB180CF1FF3104D29F4202D9ACF17F
:107BC00002012B44DB1B41EA004192E76046E3E7F8
:107BD0006146F7E76046A3E76346B7E7834206D905
:107BE00016B9002108467BE7C6E900E0F9E7B3FAD9
:107BF00083F78FB9834201D3724508D8BEEB0204E4
:107C000060EB030301209C461EB9002168E738465B
:107C1000FAE7C6E9004CF8E7C7F1200CBB4022FAAE
:107C20000CF41C432EFA0CF120FA0CF3B84001437B
:107C30004FEA14490EFA07F5B3FBF9F81FFA84FE70
:107C400009FB18300B0C08FB0EFA43EA00439A4577
:107C500002FA07F240D9E31808F1FF3004D29A453E
:107C600002D9A8F102002344A3EB0A0389B2B3FBB3
:107C7000F9F809FB183308FB0EFE41EA03418E4573
:107C80002CD9611808F1FF3304D28E4502D9A8F12E
:107C90000203214443EA0040A0FB0298A1EB0E013D
:107CA0004145CE46434602D306D14D4504D2B9EBF9
:107CB000020E68EB04030138002EA6D0B5EB0E02CD
:107CC00061EB030101FA0CFC22FA07F34CEA03030F
:107CD000F940C6E9003198E74046C5E74346D9E791
:107CE0002DE9F04FADF5177D4FF0FF324FF0FF3328
:107CF000914823F073F8914BD3F8009000224B4643
:107D0000002B40F0BC80102A28BF10228C4D8D4FD4
:107D1000DFF834A20B92984600240026B9F1000F38
:107D200003D0B8F1100F40F0B1800DF1300A874B4D
:107D3000CAF800300EAC864BCAF80430202200216D
:107D400020462EF014FA834B1B78002B40F0E6807F
:107D500000260027804DB046B9469B460B9A9345B6
:107D600005F1100540F0C6801BB1CDE90E89C4E9CC
:107D700002670B98794DFFF705FB02460B46064656
:107D80000F46DDE90E01FFF7A1FC3B46CDE90E01F0
:107D90003246D4E90201FFF799FC7022C4E90201DE
:107DA000002128462EF0E3F9664B002245E9022324
:107DB000C5E90823C5E91223C5E91C23654A012347
:107DC00013705D48614D664E23F080F85D4B62494B
:107DD0005D480022CDE90623624B0022CDE9042351
:107DE000614B0022CDE9022351A3D3E90023CDE961
:107DF000084ACDE900230B9B012200F059FA0FCD70
:107E000034460FC495E80F0084E80F0050495748E6
:107E100080222EF09EF9BFF35B8F554B1B68BFF39A
:107E20005B8F012B27D12EF050F8D6E90623CDE940
:107E30000823D6E90423CDE90623D6E90223CDE9B8
:107E40000423D6E90023CDE902234FF47A72A0FB84
:107E5000020302FB0131C00B40EA4140C90BCDE9EE
:107E60000001444A4FF4007116A824F07DFA4248FC
:107E700016A926F09AFA0DF5177DBDE8F08F93F953
:107E8000AF1001B10132D3F8B43039E799F9AF300E
:107E90006BB309F1900209F1AE01002312F9010F51
:107EA00091420344FAD199F950001E2293FBF2F358
:107EB0005BB2C01AFFF776FA22462B46FFF706FCA4
:107EC00002460B463046394602F042FE0AEBC80332
:107ED000C3E900012049D9E9102301EB0810C0E9EA
:107EE0000023D9E91223C0E9022308F10108D9F8D7
:107EF000B49013E755E9042340464946FFF706F9D5
:107F000055E902238046894630463946FFF7FEF898
:107F10000BF1010B06460F4601231FE7104E0FCE53
:107F200025460FC596E80F0085E80F0049E700BF1A
:107F30009A9999999999B93F8C0800204825002071
:107F40000000324000002440D80E0020B80D002070
:107F5000380D002088540020D80D0020600F00202C
:107F6000D80F0020000010400000E03F580F002014
:107F700088020020298D05008A8A05000000000083
:107F80002DE9F04FAC4CDFF8B4A2DFF8B492AD4D60
:107F90008BB0204625F0A3FEAB4B07939CA3D3E9FF
:107FA000002300260027CDE902236FF0330848F2B2
:107FB000E603CDE90467CDF82090CDF81880009352
:107FC0005146A24A40F6C123204625F08DFE92A2DA
:107FD000D2E9001245F2DF13CDE907A5CDE9046728
:107FE000CDE90212DFF868A2CDF818800093494667
:107FF000984A48F2CF03204625F076FE6FF0390B01
:1080000049F6AB53CDE9079ACDE90467CDE902679C
:10801000DFF84492CDF818B0009329468F4A46F60F
:108020003703204625F060FE8D498E4A6FF03A03F3
:10803000CDE9075906938C4D002049F29073CDE9A4
:108040000401CDE90267009351464AF213332046FA
:1080500025F04AFECDE907A5CDF818B00FF2C01BF8
:10806000DBE900AB4CF6FB23CDE902670093494600
:10807000CDE904AB7D4A47F2D773204625F034FEA4
:1080800069A3D3E90023DFF8E8C1CDF81880CDE972
:10809000042344F2DA73CDE9079CCDE902670FF2BD
:1080A0009019D9E9008900932946724A41F63303B1
:1080B000204625F019FEDFF8C0E1704A6C496FF0E8
:1080C0003803069347F25073CDE9075ECDE90267A6
:1080D000CDE904890093204647F23D7325F004FE64
:1080E0004DA2D2E900126FF03003DFF884C1644E74
:1080F000069347F20313CDF81CC0CDE90212CDE977
:108100000489089600935F4A5B495F4D5F4F4EF2CA
:108110003303204625F0E8FDCDE904890FF2F0098C
:10812000D9E900896FF02C03DFF84CE106934CF29B
:108130004B33CDF81CE0CDE9028908950093314618
:10814000534A4EF6B933204625F0CEFD36A3D3E987
:108150000023CDE90767CDE904236FF03D0647F61C
:10816000C403CDE90289009329464A4A069642F69D
:10817000D973204625F0B8FD6FF03B03069324A386
:10818000D3E90023DFF81081CDE9022342F6C14391
:10819000CDE9075800933946CDE904AB3F4A404D3D
:1081A00048F68C73204625F09FFD19A3D3E90023E0
:1081B0002B490696CDE90223002046F6C533CDE9CA
:1081C000040100934146CDE90775364A46F6AC33C3
:1081D000204625F089FD1C4B0FA2D2E90012CDE903
:1081E00007836FF03E0306934CF6BD63CDE90212A0
:1081F0000093CDE904AB2C4A4CF25F03294620469C
:1082000025F072FD0BB0BDE8F08F00BFAFF300802A
:108210003333333333330B40333333333333FB3F75
:108220000AD7A3703D0A0F40C3F5285C8FC21540E2
:10823000F6285C8FC2F51B40482500209B8D050069
:10824000A28D0500C48D0500E28C0500808D05001F
:10825000E68D0500A98D0500088E0500CB8D050073
:108260000000F83FED8D05002A8E05000F8E0500F9
:108270004C8E0500318E05006E8E0500538E050074
:10828000908E0500758E0500B28E0500D48E050017
:10829000978E0500B98E0500F68E0500DB8E050071
:1082A000188F0500FD8E05001F8F050000000000DF
:1082B0002DE9F04FADF2E45D02AF7960FB66D7F8CF
:1082C0002016B86207F5C063D3E9004507F5C3631C
:1082D000D3E900897A63002900F0F5800B4607F1A5
:1082E000B80601F1200C18685968324603C20833F9
:1082F00063451646F7D17022002107F1E0002DF00A
:1083000036FF07F5AC70C7E93689C7E94089C7E988
:108310004A89C7E9548904F0E5F8C7E95A45C7E92D
:10832000644522462B4620462946FFF7A5F802461B
:108330000B4680468946FFF79FF807F5C163D3E9EE
:108340000023FFF799F86C4B0022FFF795F842469F
:1083500082468B464B4620462946FFF78DF807F5A7
:10836000C163D3E90023FFF787F8644B0022FFF7CE
:1083700083F80D4607F5C16104464B464246D1E9F4
:108380000001FFF779F870228046894607F5F07002
:1083900000212DF0ECFE07F51670C7E97A45C7E914
:1083A0008445C7E98645C7E99045C7E976ABC7E983
:1083B00080ABC7E98A89C7E9948904F093F807F587
:1083C000367107F5AC7025F005FD7B6B4C499C00C0
:1083D000002000239C427CD17B6B49491C0100207A
:1083E00000239C427ED1FB6E180106F067FEFB6EF7
:1083F000C7F8A800DD00284606F060FEC7F8900028
:10840000284606F05BFEFB6EB8645B011846C7F8B1
:10841000A03006F053FEC7F8B000D7F8A00006F071
:108420004DFEFB6EB86603FB03F4E400204606F045
:1084300045FEC7F8AC00204606F040FEF867D7F8C6
:10844000A00006F03BFEC7F8B400D7F8A00006F085
:1084500035FEC7F8A400204606F030FEF862284634
:1084600006F02CFED7F8A830B867002B4AD1D7F811
:10847000A80006F03DFED7F8900006F039FEB86C73
:1084800006F036FED7F8B00006F032FEB86E06F001
:108490002FFED7F8AC0006F02BFEF86F06F028FE92
:1084A000D7F8B40006F024FED7F8A40006F020FEAA
:1084B000F86A06F01DFEB86F06F01AFE07F2DC57E8
:1084C000BD46BDE8F08F202207F1B8002DF04FFE29
:1084D00011E7D7F82426126802EBC302C2E90001B3
:1084E000013377E7D7F82426526802EBC302C2E9CA
:1084F0000001013375E700BF0000D03F0000E03FFE
:108500000000F87FD7F89030002BB0D0BB6C002B68
:10851000ADD0D7F8B030002BA9D0BB6E002BA6D0C1
:10852000D7F8AC30002BA2D0FB6F002B9FD0D7F830
:10853000B430002B9BD0D7F8A430002B97D0FB6A27
:10854000002B94D0BB6F002B91D00023FB64C7F8A5
:108550009430D7F894307A6B934288D0202200214F
:1085600007F5AB602DF003FE07F5AB6407F5AC76BD
:108570004FF00008F4E802AB07F1B803BB65C7F899
:108580009830B1460025D7F89810F1E80223C7F8D3
:108590009810F9E80201FEF76FFF02460B465046BD
:1085A0005946FEF7B3FD0135042D82468B46EAD1CC
:1085B00008F10408B8F1100F44E902AB06F12006F7
:1085C000D8D107F5AB650FCD07F1B8040FC495E816
:1085D0000F0084E80F0007F59B6207F1D80107F54B
:1085E000AC7025F06FFC07F5AB6107F5AC7025F0BA
:1085F000F1FB07F58B6207F59B6025F063FC07F143
:10860000D80207F5EC7107F58B6025F0CFFBFA6C0B
:10861000BB6A7E6803EBC2081346FA6E1344FB6420
:10862000FA6CBB6A4FF0000B03EBC209C84540F07F
:10863000F280BBF1000F00F02482D7E92E34C7E9A5
:108640002034D7E93034C7E91834BB6CD7F8A860B8
:10865000C7F820D0083BFB63FD6B4FEA0B1906EB14
:108660000B1A3446D4E90023D7E92001FEF74CFD6C
:10867000D4E90223C7E92601D7E91801FEF744FD32
:10868000D7E92623C7E9220110461946FEF7F4FE72
:10869000D7E92223C7E9260110461946FEF7ECFE6A
:1086A00002460B46D7E92601FEF730FD25F07CF99E
:1086B00010345445E5E90201D4D14FEA4B13D7F801
:1086C000B0003B631A4600212DF051FDD7F8B08071
:1086D000D6E90023D7E92001FEF716FDD6E90223EB
:1086E000C7E92601D7E91801FEF70EFDD7E92623D1
:1086F000C7E9220110461946FEF7BEFED7E922233C
:1087000004460D4610461946FEF7B6FE02460B46D5
:1087100020462946FEF7FAFC25F046F94EA3D3E998
:10872000002304460D46FFF719F910B14AA5D5E913
:10873000004522462B46D7E92601FEF7C7FF224611
:10874000C8E900012B46D7E92201FEF7BFFF10362A
:108750005645C8E9020108F12008B9D1BB6ED7F827
:10876000B0000422594625F08FFB3A6BD7F8A400DD
:1087700000212DF0FCFCD7F8A430CDE900B3042291
:10878000BB6E114607F1D8000BFB0BF825F032FB4E
:108790004FEAC8020021D7F8AC002DF0E8FCD7F86A
:1087A000AC30CDE900B30422D7F8A430D7F8B0003C
:1087B000594625F01FFBD7F8AC500BF10103DB0045
:1087C000BB632C46002607F5C263D4E90001D3E958
:1087D0000023FEF79BFC0136BB6BB345C4E90001E7
:1087E0001C44F0D14FEA081006F068FC82460028CD
:1087F00000F08680BB6B4FEA4B06A3F1080800240B
:1088000003464246184629462DF0A3FC034643443E
:108810009C4600222EE0F8E8024522462B462046E0
:108820002946FFF7C3F898B9D7F8A83003EB0B1126
:10883000D6E90023C1E90023D6E90223C1E90223D6
:10884000D7F8903003EBCB03C3E900450BF1010BE4
:108850001036EBE6AFF300808DEDB5A0F7C6B03E65
:10886000944208BFB4494FF0000018BF0021ECE863
:10887000020101320BEB02018E42F1D80134A34513
:1088800043444544BDD109F108037B620AEB090367
:108890003B660023C7F898A0C7F888A0C7F88030C7
:1088A000D7F88830D3E90034C7E910343B6C3B6714
:1088B0007B6C23F000437B67D7F88030FB65013386
:1088C000C7F88030D7F88830D7F88050FC6D03EBBC
:1088D0000906AB4500F2F98095A3D3E90023D7E957
:1088E0001C01FFF73BF8002800F00981504606F014
:1088F000FFFBFB6FD7F8AC005A46594625F0C4FA87
:108900003A6BD7F8B40000212DF031FCD7F8B43021
:10891000CDE900B35A46FB6FD7F8A400042125F037
:1089200069FABB6FD7F89050A3F10806BB6BA3F1AF
:10893000080404EB0508F96BF1E90223F963F5E893
:108940000201FEF7E1FBA845E6E90201F3D1BB6FA6
:108950000025E318C7F898302C46D7F8B430BE6F1E
:1089600003EBC50A4FF000084FF00009F6E80223B8
:10897000FAE80201FEF780FD0B46024649464046F2
:10898000FEF7C4FBD7F89830B34280468946EDD154
:108990000B46B96D0246D1E90001FEF7B7FBBB6D8E
:1089A000E3E802010134042CBB655D44D5D107F531
:1089B00056758022002128462DF0D9FBCDE90045CF
:1089C0002146D7F8B030D7F8B4005A4625F012FA4D
:1089D0002C4607F5167807F576760025F4E802238D
:1089E000F8E80201FEF790FB0135102DE6E80201E0
:1089F000F4D107F59B64224607F1D80107F576709C
:108A000025F060FA07F5AB6107F5767025F0E2F91D
:108A100007F58B62204625F055FAD7F8A030D7F835
:108A2000B400ADEB030D02AD2B465A46042125F0F0
:108A30002BFA8022002120462DF099FB042101947D
:108A400000912B46D7F8B4005A4625F0D3F907F524
:108A5000AB65002607F5C263D3E90023F4E8020101
:108A6000FEF70AFD0136102EE5E80201F2D107F10A
:108A7000D80207F5AB6107F58B6025F097F9D7F8B9
:108A800020D0D7F82436D7F894201B6807F1B80413
:108A900003EB421307F1D805224603CAAA42186025
:108AA0005960144603F10803F6D1D7F82436586804
:108AB000D7F89430802200EBC31007F1D8012DF0D5
:108AC00048FBD7F89430013341E533683B65736860
:108AD00023F000437B65D7E91401D7E91C23FEF797
:108AE0005BFF50B9D7E91C23C7E91423D7E9142346
:108AF0000135C7E91C234E44EBE62C46F6E7FB6D37
:108B0000A3421BD0D7F8985009FB04A4D4E9002352
:108B1000D5E90001E5E802233B6E9D42E4E802014D
:108B2000F4D1D7F88830D3E9002309E0AFF300800F
:108B30009B2BA1869B84063D0000F03FD7E91023C4
:108B400037490020FEF7C2FDD7F8986004460D466D
:108B5000D6E9002320462946FEF78EFCE6E802010E
:108B60003B6E9E42F4D1FB6DDB00BB60544600259A
:108B7000FB6DAB422ED10135AB454C44F8D8D7F84C
:108B800088307A6A1344C7F88830D7F898304B4455
:108B9000C7F898303B6E4B443B66D7F880309B4516
:108BA0007FF47EAEBBF1000FFB6F0AEB080614BF2B
:108BB000454608250024314618462A462DF0C9FAB4
:108BC00001340346A34543444E44F4D8504606F0CE
:108BD0008FFA95E6BB68E318D3E90023C7E90623BB
:108BE00004EB0903FB60D7F898303B642646D6E9CE
:108BF0000023396CC7E90423F1E802233964D7E97B
:108C00000601FEF739FC0B460246D7E90401FEF7E0
:108C10007BFAE6E80201FB68B342E8D1ABE700BFAC
:108C20000000F03F00000000F0B5002285B01146C2
:108C300002AF40F6034008F06BFC044600285BD10D
:108C400008F014F921463A1D41F2030008F060FCD7
:108C50000446002850D17A68C14DD168D1F801008E
:108C6000D1F8051005F1780303C3104606F02CFB7C
:108C700021463A1D41F2010008F04AFC0446002852
:108C80003AD17868C3685A7885F870205A88A5F870
:108C900072201A7985F87120B3F80720A5F874209E
:108CA000B3F80530A5F8763006F00EFB21463A1DE4
:108CB00041F2020008F02CFC0446E8B9D7F804C0E1
:108CC000DCF80C2005F18006531C41321868596805
:108CD000344603C4083393422646F7D1604606F073
:108CE000F3FA95F87C305B060AD49E4A9E4801212F
:108CF00028F069F86FF0120420460C37BD46F0BD2D
:108D00003A1D002142F2030008F002FC044600284C
:108D1000F2D17A68954BD168D1F80100D1F80510ED
:108D200003C3104606F0D0FA21463A1D42F2020073
:108D300008F0EEFB04460028DED17E68F468B4F843
:108D400001309AB292B1E27882B1A5F80431E378A9
:108D5000032B06D0032200928348854A022126F085
:108D600061FBE278834811462CF00BFE304606F09A
:108D7000ABFA95F87C6016F0200619D14FF0FF3061
:108D80004FF0FF3108F09CF80446002800F09D8069
:108D900002210C3026F0D4FC0123037046702146DA
:108DA000324640F66D4008F0B3FB04460028A3D1DC
:108DB00095F89C301E0712D53A1D002142F21C0086
:108DC00008F0A6FB0446002896D17868C368D3F85B
:108DD0000120D3F80530C5E9382306F075FA95F877
:108DE000D8305C0610D53A1D002142F22A0008F066
:108DF0008FFB044600287FF47FAF7868C3685B78F8
:108E000085F8203106F060FA4FF0FF304FF0FF3167
:108E100008F056F80446002857D008210C3026F0F8
:108E20008FFC95F8D81011F0400F024640F2022353
:108E300008BF032388074CBF43F02C0043F00C000D
:108E40008B0695F8D93048BF40F0400013F0090F69
:108E500018BF40F40060CE0748BF40F0100000216A
:108E600027F0DBFF2146002242F2010008F050FB10
:108E7000044600287FF440AF95F87C30B5F8041123
:108E8000980625D4C9B93A1D41F2050008F040FB07
:108E9000044600287FF430AFB5F804317C684BB944
:108EA000E368B3F80120A5F804219A8831481146F7
:108EB0002CF067FD204606F007FA4FF0FF304FF028
:108EC000FF3107F0FDFF044660B96FF0680413E757
:108ED0000029F2D1284A2448012127F074FF6FF0BD
:108EE000040409E708210C3026F02AFC95F8D83054
:108EF000D907024629D421484FF0005127F08DFFB1
:108F00002146002240F6014008F002FB04460028FA
:108F10007FF4F2AE01463A1D4FF6014008F0F8FA30
:108F200080B3174A1048022127F04DFF09F000FADC
:108F3000044600287FF4E0AE0AF0A0FF04460028B3
:108F40007FF4DAAE08F0A8F8D6E603A1D1E9000173
:108F5000D4E700BFAFF300809088000200800020BB
:108F600008010020B99E05007C6B0500E00100208F
:108F7000DD9E050010020020239F050010880002DE
:108F8000469F05007B68DC68B4F80130032B96BF70
:108F9000434A444952F823106E468AB002AA424816
:108FA000D3614FF400731384404BC2E9050142F8CA
:108FB000103F3F484FF4135127F01FFFB4F8012032
:108FC000B4F80330022AB54649D1052B47D8394AAF
:108FD00052F823106E468AB002AA3748D3614FF484
:108FE00000731384314BC2E9050142F8103F4FF47E
:108FF00013512F4827F001FF637994F806C0D4F885
:109000000900032BB54698BF2C4AB4F8076094BFFB
:1090100052F8231023496C468CB002AADFF8A0E076
:10902000C2E9073C4FF400739385264BC2E905E182
:10903000C2E909604FF4735142F8103F1C4827F011
:10904000DCFEA546786806F03FF93A1D00214FF690
:10905000024008F05DFA044618B11B4A62E7114964
:10906000B8E77868C368B3F80130A5F8C13006F0F6
:109070002BF995F8C1305B077FF558AF3A1D2146B3
:109080004FF6034008F044FA08B1104A4AE77868FE
:10909000C3685B7885F8C03006F016F946E700BF74
:1090A00030730500F58905006A9F05000400000182
:1090B0007C6B050018730500839F0500087305008D
:1090C0009B9F050007000001C89F0500F19F050058
:1090D00038B51B4C9DF810E094F84CC01CF001050D
:1090E00024D163F3420C400194F83830A4F84210C4
:1090F0004FEACE0E0EF0180E00F0200040EA0E00EF
:1091000023F0380303430F4884F838309121A2FB41
:10911000000384F84CC001FB023107A3D3E900230C
:10912000FEF75AFC6064A064284638BD0C2528462A
:1091300038BD00BFAFF300808D49FD1A0700000065
:10914000301D0020002AE78410B504469DF8080071
:1091500062864FEA411CC00094F8281000F0180005
:109160000CF0200C4CEA000C0B4821F038014CEAC2
:10917000010CA3FB0002912184F828C001FB03210C
:1091800003A3D3E90023FEF727FC606310BD00BFF3
:109190008D49FD1A07000000002AE7840000000046
:1091A0002DE9F047044600F13B0190F84C0094F89B
:1091B0003830514DC0F3400060F386138CB084F812
:1091C000383011F045FA94F83820B4F842304B4862
:1091D000246102F07902002784F838209121A3FB52
:1091E0000002C4E90277277001FB032140A3D3E901
:1091F0000023FEF7F1FBA26C414B651BA3FB053579
:1092000002F1090398428EBF19463A46014662644C
:109210006160064611F0CEF96369C5F3871500F168
:109220000907002B48D00DF12C08CDF820800694BA
:10923000B4F8423031484FF0000AA3FB0002CDF8E9
:109240000CA0912101FB0321636804932D4B07932C
:109250002D4B05934FF0020925A3D3E90023CDF848
:109260002C90FEF7B9FB104619464FF47A72002392
:10927000FEF7B2FB0235EDB22A46CDE901603B466E
:109280000321CDF800A0504611F042F8414611F0FC
:10929000B7FE054660B994F84C3043F001034846E8
:1092A00084F84C3019F0CCFB28460CB0BDE8F087B0
:1092B0000C200CB0BDE8F0870DF12C08CDE90A3385
:1092C000616843460AAA032000F0EEFD0028ACD1F5
:1092D0000B990E4806A3D3E90023A1FB0001FEF77A
:1092E0007BFB0A9B20F07F471F449EE7AFF3008083
:1092F0008D49FD1A07000000301D0020002AE78478
:10930000CDCCCCCCB9A6030025CE030000CA9A3B35
:109310002DE9F0418468A28C4FF6FF739A428AB01F
:1093200000F0CE800546204616F010FAAB7C012BEB
:1093300000F01D81022B00F00F81002B00F0EF8068
:1093400094F83C81B8F1000F40F00A81A68DEB89BA
:10935000E78D0136B6B2002B40F0B5802B7C03F0D0
:109360000303012B00F0D680B4F86831002B00F025
:10937000B180B34240F230819B1BA4F86831B4F84D
:109380006C31002B00F0C980B34240F223819B1B5B
:109390009BB2062BA4F86C314FF000028CBF002367
:1093A0000123E285984694F83A2063F3820284F818
:1093B0003A2031460DF12702204615F075FF743032
:1093C00000F00281B4F866312BB1B34240F2E8807C
:1093D0009B1BA4F86631B4F862312BB1B34240F262
:1093E000D8809B1BA4F8623194F8B530E58D03F06A
:1093F0000101B8F1000F0AD1AF4200F0C68001357B
:10940000ADB241B9002D5BD04146404642E0013546
:10941000ADB200293DD094F8B53094F937206FF300
:109420000003002A84F8B530C0F2A78094F85A00EF
:10943000C0F3C00100F007001AF034F994F85A2084
:1094400094F85B1002F003030933C2F34002DB001F
:10945000D34001F003020932C1F34001D200CA40F7
:10946000E18B01F23F110B44134403446A4A6B48F9
:109470000721E3FB0021104665A3D3E90023FEF793
:10948000ABFA616820F07F40814280F09880411AF9
:1094900060600020A28C246903950023604DCDF804
:1094A00010800332CDE9011006940093D2B201215D
:1094B0001846059510F048FF10F0FD0F40F08E8023
:1094C0000AB0BDE8F081A4F868812B7C03F00303A7
:1094D000012B1FD0B4F86C31002B7FF455AFE28C18
:1094E000052A97BF013240F2E2434FF4FA7392B279
:1094F00003FB02F2B4F86A3142F2107101FB03235C
:10950000013BB3FBF2F39BB2A4F86C31002B7FF468
:109510003BAF02E00023A4F86C31002343E794F84A
:10952000723003F01803182B7FF40AAF218DB4F8C2
:1095300064218B1D9A42C4BF931F5B1AB4F860115B
:10954000CCBF9BB21346994253D0A4F86031A4F823
:109550006231A4F86621F3E64FF03D0884F83C81BF
:10956000414620460AB0BDE8F04114F043BA00235A
:10957000A4F86631A4F86231E2E694F85B000121B8
:1095800000F007001AF090F858E7002998D04546F7
:1095900041E70023A4F86231204615F0F9FE23E7E5
:1095A00011F0FEFC014600B30023A4F86631A38C41
:1095B000C3801B230371006811F0C4FC0BE76060DB
:1095C000081A1CD0002165E79DF82710204614F0EA
:1095D00011FA75E70821C4E73E21C2E711F022FD28
:1095E00084423FF46DAF00DE6AE70123A4F86631E0
:1095F000F1E6B4F8661100297FF4A2AEA7E7002DCA
:10960000E0D1B8F1000FDDD15AE700BFAFF3008021
:109610008D49FD1A070000008C49FD1A00CA9A3BCB
:10962000A9D10300000000002DE9F04F8FB0B0F881
:1096300038610D930446B0F8FC3090F85A000B9155
:109640001E44C0F3C001BDF86830BDF86C70BDF8B1
:109650006080BDF86490D4F8F4A00C9300F007008B
:109660001AF020F8E58CB6B2A6EB070B052D1FFA11
:109670008BFB40F2D38015FB0BF5B8F1050FADB2B3
:1096800040F2E24B40F2D480B4F85220B4F85030AB
:10969000134403F2D51303447B4A7C480721E3FBC0
:1096A00000214FF09613E36196231046238474A3A0
:1096B000D3E90023FEF790F9434620F07F4040F2C3
:1096C000E2420BFB05F102FB03FB4A1E5A44B2FBCC
:1096D000FBF293B20BFB03F39942606095B280F00A
:1096E000B3806A48591AA1FB000165A3D3E900239E
:1096F000FEF772F920F07F408244B4F8FC20B4F801
:109700003831BF1B3D44ADB213442B44A4F838316B
:10971000638D1A4494F837301544DB09658540F0B1
:10972000A1800D9B5948A3FB000155A3D3E9002359
:10973000FEF752F920F07F4501350C9BA4F86A3101
:1097400059462046A4F82680A4F8289015F0D8FDA4
:109750004F4B218D5B44881DB3FBFBF39AB29042C3
:10976000A4F8642104D2C1F57F41FA310A4492B2CF
:109770000B9BA4F8602113B10023A4F86C310221E3
:1097800001201BF039FD00220221064601200FF0C6
:1097900051FC40494FF4C47220460FF0DBFBC21C61
:1097A0003D4B0093D7B2019453463A460121002025
:1097B00010F05EFE10F0FD0F5FD1344830A3D3E906
:1097C00000238BFB0001FEF707F908940694194665
:1097D00063680493314B0793314B05934FF6FE7347
:1097E00080460393104600234FF47A72FEF7F4F894
:1097F0000095CDE9018053463A460121002010F042
:1098000087FD10F0FD0F36D17EBB94F83A3143F05E
:10981000010384F83A310FB0BDE8F08F013515FB34
:109820000BF5B8F1050FADB24FF4FA7B3FF62CAF54
:109830004FF0961208F10103E261962222849BB256
:109840000A204FF4FA723CE71048C91AA1FB000144
:109850000BA3D3E90023FEF7BFF820F07F40AAEB6B
:10986000000A4AE700DE002567E7012202211046D0
:109870000FF0E0FBC9E700DEC6E700DE9DE700BFB2
:109880008D49FD1A070000008C49FD1A00CA9A3B59
:109890007FC3C901801D002069D1030051D103009D
:1098A0007D1D0400000000002DE9F04F8BB0CDE9D4
:1098B00004011F460020BDF860309DF85490BDF8AB
:1098C00058A0BDF85CB00393164613F09FFB002828
:1098D00000F06E8109F001080446404610F0A8FE31
:1098E0000290B8F1000F70D1149B02993A4640469D
:1098F00013F08EFF002840F06C81636904F11002C0
:109900000692002B68D063691D6807F0010A93F87E
:109910004A000293C0F3C00100F0070019F0C2FE34
:10992000029BB3F84210B3F84020DB8900F23F10ED
:109930000A4403441344C648C64A0721E3FB0021F6
:109940001046C1A3D3E90023FEF746F820F07F407C
:109950006860304619F092F894F839306FF341039B
:1099600084F83930FF2384F83A30002E00F0248147
:10997000A9F10203012B40F2308194F84C1069F3F5
:10998000420184F84C1094F839106AF30001DDE9C3
:10999000042384F8391014990968A16114998988FD
:1099A000A1830399A18404F1100000960021FFF720
:1099B000CBFBA06419F0F6FF002840F01981204687
:1099C000FFF7EEFB0BB0BDE8F08F06210FF0D6FAE3
:1099D000002889D11220F5E711F09CFA06900028A2
:1099E00000F0278113F066FC0546002800F01E8178
:1099F00014300FF07FFC05F11003002840F01B81AC
:109A0000032105F11800079319F072FDE86E079B1A
:109A1000A5F828B04FF6FF72A5F826A0AA84002862
:109A200000F0008105F1600205F15C0107930FF081
:109A3000B1FAB5F85A2022F4EF6222F0070242F49C
:109A40008C7242F00102A5F85A2095F872204FF06E
:109A5000000B22F0070285F8722001212846C5F884
:109A60006CB0A5F870B014F0B3FAA5F82AB0C5F838
:109A70002EB005F1320018F0B5FA95F8372060F3F2
:109A8000050285F8372001210DF1270019F030FD7E
:109A90009DF82710704A039BA5F86A31A2FB0102CA
:109AA000D20802EB4202A1EB820195F83720079B16
:109AB00085F839B002F03F0285F8372095F83A2052
:109AC000A5F838B1053122F0070240F2E24085F8EE
:109AD000381085F83A20298D604AA5F86CB100FB52
:109AE0000AFA06205244A5F8680101F1060CB2FBFF
:109AF000FAF290B26045A5F866B1A5F862B1A5F892
:109B0000640102DD0638401A80B2A5F860012846DB
:109B1000079315F08DFB5146284615F0F1FB4FF0E9
:109B2000000B069BC5F8403185F83CB113F064FE8C
:109B300095F8742160F3020285F8742113F062FE37
:109B400095F8742160F3C50285F8742195F83A21DF
:109B50006BF3410285F83A2105F1B80015F088F958
:109B600095F87A21149B07F0010A6AF3410285F8FF
:109B70007A214FF09612C5E907221A68C5F88121AB
:109B800095F87A219988029BA5F8851169F300025E
:109B900085F87A211A68C5F87B219A88079BA5F871
:109BA0007F216361C5E902BB85F800B02D61AEE697
:109BB0000C200BB0BDE8F08F19F044FA00283FF4F8
:109BC000D7AE14993846324619F034F884F83A0082
:109BD000CEE60B200BB0BDE8F08F002018F068FF38
:109BE00094F8393043F00203C14684F83930C4E6B2
:109BF0006569EB6D2BBB05F1500105F14C000FF0D1
:109C0000CDF9E0B12E68E865D6F84001A8B111F0B1
:109C100087F9304613F054FB0023032063610BB037
:109C2000BDE8F08F05F16400E866FBE6069811F0E8
:109C300077F90720C6E600DEE2E600DEE7E700DEB1
:109C4000E0E700DED7E700BF8D49FD1A07000000FE
:109C500000CA9A3B8C49FD1AABAAAAAA7FC3C901C4
:109C60002DE9F04F04468DB0077F238D406AADF893
:109C70002C30E3070E461546C7F3C0110A90C7F310
:109C8000401700F1F9800023A383B37C707C13F0AC
:109C900001031CBFD4F81E30C4F82B3004F12B0292
:109CA00014BF638CC4F82B30FF28938004F125087F
:109CB00004F11F0200F0C68004F11E0118F0EAFB57
:109CC000A37FBDF82C200A98C4F825000233A3779F
:109CD000A8F804203368D3F800A0EB8A63862B8BA6
:109CE000A386BAF82430E38619F0B0FE84F8380071
:109CF000D5F80090484613F0E9FA0021A882E080E8
:109D0000484615F011FBD6F804802068214611F072
:109D10000DF9AB8AA8F806301C23D8F8004088F863
:109D20000430002F40F09C8088F81C70414620468B
:109D300011F008F995F84A00B5F816B0F46840F249
:109D4000E243C0F3C00100F0070003FB0BFB19F076
:109D5000A9FC0022A4EB0008022101200FF06AF9FF
:109D6000504613F02BF94A4CA8FB044846A3D3E90C
:109D70000023054641462046FDF72EFECDF804A0FF
:109D8000B3684449009120F07F47AA1C363BD2B209
:109D90003B440121002010F06BFB10F0FD0F6FD150
:109DA0004FF0000A012211465346CDF800A050465C
:109DB00010F01CFB484613F089FA0546344832A3DC
:109DC000D3E90023ABFB0001FDF706FE1946324B39
:109DD000B6680893314B069340F27233CDF81C906D
:109DE0000993D9F804308346CDE904A31046002333
:109DF0004FF47A72FDF7F0FD294B0722A7FB0331E0
:109E0000CDE902B002FB0711E01A68EB01014FF443
:109E10007A720023FDF7E0FD0335363EEDB2CDE961
:109E2000007033462A460121504610F01DFA10F00A
:109E3000FD0F23D10122022110460DB0BDE8F04FE5
:109E40000FF0F8B80023BDF82CC00A98C4F82530EC
:109E5000A8F80430A177C4F81F00A2F804C039E7BD
:109E600095F8273043F0400385F82730281D18F077
:109E70000FF90127288557E700DE04E700DED9E760
:109E800000DE8DE7AFF300808D49FD1A070000006A
:109E900000CA9A3B711D0400751D04007D1D04005D
:109EA0008D49FD1A000000002DE9F04F8FB0FF270B
:109EB00009930B1D08930023CDE90533DFF880A13A
:109EC0008DF82F70054616460C9398463C460DF1CA
:109ED00034090DF1300B02230D93CDE901A9CDF822
:109EE00000B033460DF12F022946002010F004FB8C
:109EF000022813D00D9BBBB9FF2C18D03368434503
:109F000015D0002F00F08B80013FFF24FFB28DF8A9
:109F10002F40E0E72946002010F034FB0D9B022B78
:109F2000F8D00D9B002BE7D000DEFF2CE6D19DF88A
:109F30002F00FF284DD00338C3B2012BCBD880B2FD
:109F400013F0CCF90028C6D090F93730002B26DA70
:109F5000436807939DF82F000338C3B2012B14D92F
:109F6000FF2CDDF8308008D00599404610F024FB26
:109F7000089B069A134498422DD8079B9DF82F40C2
:109F8000CDE90583D6F80080A5E780B213F0A6F9E5
:109F90000028E5D090F93730002BE1DA9BE790F804
:109FA0005A00C0F3C00100F0070019F07BFB254AFE
:109FB000254B00F5935005300721E0FB0231184690
:109FC0001BA3D3E90023FDF707FD20F07F43079390
:109FD000C0E7FF2C27D0069A1C480721A2FB0003EC
:109FE00001FB023114A3D3E90023FDF7F5FC04467D
:109FF000B8B9059B1548013BA3FB0002072101FBF3
:10A0000003210DA3D3E90023FDF7E6FC099A00F133
:10A010001E032344002013600FB0BDE8F08F00DE64
:10A0200072E73E34E5E76FF009000FB0BDE8F08F4E
:10A030008D49FD1A0700000000CA9A3B000000008D
:10A04000951F040000CA9A3B8C49FD1A8D49FD1AE0
:10A050002DE9F043C668476873683D491A68D0F82F
:10A060000090A7F57423A3F510738B4283B080464C
:10A0700007D907F1E87707F5D43709F1FF3907F574
:10A08000A57773685168DD8ACDF8049006F1100356
:10A0900001AA0220FFF708FF00284ED10199A1EB89
:10A0A00009031B0237D40846494610F085FA0346D7
:10A0B00028480721A3FB000201FB032122A3D3E9C7
:10A0C0000023FDF789FC34690444002C346109DB6A
:10A0D00040F2E24305FB03F3A3422FD2E41AA3426A
:10A0E000FCD33461D8F800301A48A3EB0903A3FB72
:10A0F0000002072101FB032113A3D3E90023FDF78D
:10A100006BFC154BA3FB0737A0EB97402044306155
:10A1100003B0BDE8F083484610F04EFA03460D4800
:10A120000721A3FB000201FB032107A3D3E90023BE
:10A13000FDF752FC3469241AC7E73469002CD1D1E9
:10A1400003B0BDE8F08300BF00CA9A3B00000000E6
:10A15000BFBDF07F8D49FD1A83DE1B430000000068
:10A160002DE9F041C46894F92830002B8CB0C0F27E
:10A17000D480636805460E46002B40F0C38094F8F7
:10A1800028306FF3000384F828301AF0ADFB00206C
:10A190001AF0CEFB002108461AF0BCFB0820002272
:10A1A00025211AF0F9FB012010F0DCFF002800F057
:10A1B000BB801C301AF01AFC754B0B930BA81AF0DD
:10A1C000D7FB744940F25B601AF086FC94F82800D3
:10A1D000C0F34100253019F031FA6F4821461AF0DA
:10A1E00057FB94F828309B0603D46368002B00F0DB
:10A1F000868096201AF0BEFD00231A46194618469E
:10A200001AF0D0FC18F01EFF002840D194F8283036
:10A2100013F0180F53D1D4F800802F68404619F07E
:10A22000F9F907446A6807F1090100201AF0AEFD48
:10A230001AF082FE1AF026FD204612F0CBFE811C99
:10A24000C9B240463A4619F0E7F98046002871D174
:10A2500016B9636B002B3BD163687BB12A684F4B07
:10A26000A2616A68E26104F11801996064620122E6
:10A27000022100200EF012FF002859D1204619F0CB
:10A2800097F9002852D100200CB0BDE8F08194F875
:10A290002800C0F3C00018F0C7FB07460DF12B00E3
:10A2A00018F0F2FD79788046BA1C38781AF00EFD65
:10A2B0009DF82B00002241461AF004FFABE7012075
:10A2C00018F0B2FB4178821C00781AF0FFFCA2E77C
:10A2D000334A0792334A059240F2F31200930892F0
:10A2E000CDE90366CDE9016606943B46314601227D
:10A2F00010F00EF810F0FD0FAED000DEACE71AF053
:10A30000B1FC7FE7636893F82A30D90705D4636806
:10A3100093F82A309A077FF532AF234821461AF086
:10A32000B7FA1AF085FBAEE700DE42E700DEAAE7E7
:10A3300000DEA3E71D4A1E491E4840F2E51324F043
:10A3400041F81D4B0721A8FB030301FB08310EA3B5
:10A35000D3E90023FDF740FB18490246184824F0D2
:10A3600031F8002585F31188BFF36F8F032318465A
:10A3700002DF144821461AF08BFA1AF059FB6FF0ED
:10A380008B0081E7AFF3008000CA9A3B0000000019
:10A39000D6BE898E5555550069A40200EC050020F3
:10A3A000513A0400593A040061370400A07A0500CC
:10A3B000EC7A05003C7905008D49FD1A1C7B0500EF
:10A3C000F07A0500053B040038B5044619F058FB47
:10A3D00094F8283094F82820C3F34103013303F0A4
:10A3E0000303032B08BF002363F3420214BF03F1EE
:10A3F0002500252084F8282019F020F963680BB186
:10A4000023694BB910F0D6F8C11C00201AF032FDB8
:10A41000BDE838401AF090BD1AF05AFD054610F01C
:10A42000C9F8C11C00201AF025FD1AF085FD1AF0AC
:10A430004FFD294610F0C0F8094A03460721A0FB4A
:10A44000020201FB032104A3D3E90023FDF7C4FAB0
:10A4500023691B1A236138BD00CA9A3B0000000023
:10A460008D49FD1A000000002DE9F0478AB004462E
:10A470001AF01EFBC0B250B919F02AF9CA48214699
:10A480001AF006FA0AB0BDE8F0471AF0D1BA1AF08D
:10A490002FFB05461AF04EFC07461AF055FC814684
:10A4A0001AF06AFE06461AF049FE82461AF004FCCB
:10A4B000EDB280461AF0E4FB19F00AF9002DDDD068
:10A4C000012010F04FFE0546002800F0B58117F07E
:10A4D000FF07F6B240F0ED80002E40F0E4804FF030
:10A4E000FF093A464B463146204619F051FC0028F8
:10A4F000C4D02A7F616800238DF823305FFA88F783
:10A5000002F00F03002900F0F680616891F82A102C
:10A51000880700F1F080072BB0D094F828100907C5
:10A5200040F12C81002B40F0CE806B7F063B1F2B2F
:10A53000A4D8042010F016FE00289FD01AF004FDC5
:10A54000636B074643B9638E40F2712202FB03F34B
:10A55000B0FBF3F203FB120723685A68934B072101
:10A56000A2FB030301FB02318DA3D3E90023FDF716
:10A5700033FA6FF4427C00EB0C031F3B62EB0202E8
:10A58000BB4272F10002FFF479AF1AF06BFB484650
:10A59000636818F05FFC94F829309907804640F111
:10A5A000D981002800F0D681824601271AF0AEFA40
:10A5B000CDE9027A09AB049305F11E0301932B7FC9
:10A5C000C3F380130146074600930022012320466F
:10A5D00019F0FAFB38461AF00FFA1AF05FFA002861
:10A5E00040F0D581724821461AF052F9626892F81B
:10A5F0002A3043F0010382F82A3094F8283043F0DF
:10A60000800384F8283010F0C7FD172202714FF63E
:10A61000FF72C28095F81CC082463B46CCF3401CBA
:10A6200000F11C0207F1200E1D6858689968DF6868
:10A63000D7601033734515605060916002F11002CD
:10A64000F2D11B6813609AF81C30CAF808406CF30A
:10A6500045138AF81C301AF03BFC002ECAF8100093
:10A66000099BCAF8143008BF4FF0FF098AF8199007
:10A6700094F8293013F0020303D0B8F1000318BF97
:10A6800001239AF81A2063F300028AF81A2010F0C6
:10A6900083FDCAF80C00DAF8000051460AB0BDE8A4
:10A6A000F04710F0A3BD5FFA8AF018F01BFC81465A
:10A6B00017E794F828005FFA89F1C0F3C00018F09A
:10A6C000EDFB81460DE7012B74D16A7F0C2A7FF4E4
:10A6D000D5AE2A7FCDF80090194600230193D20908
:10A6E00005F12403204619F0DBFA00287FF421AF9E
:10A6F0002B7F03F00F03002B5CD16B7F052B7FF6C4
:10A70000BDAE252B3FF6BAAE94F8282002F0210208
:10A71000202A09D16268002A00F0B080052B7FF65C
:10A72000ADAE252B3FF6AAAE63682BB12B7F03F0AD
:10A730000F03072B7FF4A2AE03209DF8238010F0B7
:10A7400011FD054600283FF499AE10F025FD4FF6A7
:10A75000FF73EB8005232B71EFB97F20AB7E28764A
:10A76000002E08BF4FF0FF0968F34103286885F801
:10A770001990AB76294610F039FD7FE6B9F1FF0F4D
:10A780008DF82490C2F380185AD094F82A2091456D
:10A790003FF4C8AEAFE71AF07FFAC0B2DEE700BF01
:10A7A00000CA9A3B000000001D3B04008D49FD1AC1
:10A7B000293C0400062BA0D04521D94011F001010D
:10A7C0003CD1012B10D16B7F0C2B7FF457AE2A7F2D
:10A7D000CDF800900DF123030193D20905F1240374
:10A7E000204619F05DFA10BB2B7F03F00F03042BFA
:10A7F0007FF444AE6B7F063B1F2B3FF63FAE94F8D1
:10A800002830DB077FF53AAE1AF080F92B7F02780B
:10A81000C3F38013B3EBD21F7FF430AE08300622AF
:10A8200005F11E012BF0ABFC00287FF427AE6B7FF7
:10A83000002B7FF479AF21E600DE48E66B7F6DE701
:10A8400005F11E0A09AA5146404618F09FFB002850
:10A850003FF44EAF94F8293003F0010343457FF4F1
:10A8600047AF5146062204F108002BF088FC00286F
:10A870007FF43EAF2B7F03F00F0353E69620079241
:10A880001AF078FA079A10461AF044F9032010F0EB
:10A8900069FC804600283FF4F1AD10F07DFC4FF6D6
:10A8A000FF73A8F80630052388F80430002F58D12C
:10A8B0007F23002E88F8183014BF4B46FF2388F8FA
:10A8C000193098F81A30D8F800006FF3410388F86F
:10A8D0001A30414610F08AFC1AF018F90646032295
:10A8E000337862F3030333702B7F3278C3F3801322
:10A8F00063F3C7120C2332704846737018F0AAFA3B
:10A9000094F82920920730D578B33178324641F057
:10A91000400102F8021B0168C6F802108388938088
:10A92000D5F81E30B3606B8CB38130461AF064F8F2
:10A930001AF0B4F868BB1AF0FFFA94F828301648F9
:10A9400043F00103214684F828300AB0BDE8F047FF
:10A9500019F09EBF94F8287004F12B0AC7F38017F2
:10A9600024E61AF099F9C3B2A3E794F828303278B4
:10A97000C3F3801363F38612334603F8022BD4F833
:10A980002B20C6F80220B4F82F209A80C8E700DEFA
:10A9900028E600DECFE700BF313B040000000000E6
:10A9A000F0B5C468A28A4FF6FF739A4285B000F0F2
:10A9B000AE80054619F0E4FA2B89628B208CA383C4
:10A9C0001A4492B2104494F82730E28380B2411CBA
:10A9D00021845E064FF00001618304F1220167D4F7
:10A9E00003F03F000B4694F82810009004F1290072
:10A9F00017F006FB0646204603A919F001FC039B4D
:10AA000094F862101A7861F3C3021A70039A94F8EA
:10AA100062301178C3F3400363F38201117019F0BF
:10AA200063FF002019F084FF201D19F0A1FF238986
:10AA3000A17A40F25B6043EA01411AF04DF83046DA
:10AA400018F0FCFD0399204619F0AEFB214636486C
:10AA500019F01EFFE0891AF08DF994F84B0000F010
:10AA600007001AF057F827682E68384618F0D2FD0C
:10AA7000064406F109016A6801201AF087F91AF004
:10AA80005BFAA18A03313246C9B2384618F0C4FDD8
:10AA90000646A8B1AB7A13F0020517D0002523486B
:10AAA000214619F0F5FE19F0C3FF284605B0F0BDA8
:10AAB0000A4603F03F03218D17F0EEFA06469AE7A7
:10AAC000204618F075FD48BB0025EEE7184A1949E5
:10AAD00019484FF4807323F075FC18480721A6FB32
:10AAE000000301FB06310EA3D3E90023FCF774FF3A
:10AAF00013490246134823F065FC85F31188BFF320
:10AB00006F8F0323184602DF6FF08B05C7E70E48EF
:10AB1000214619F0BDFE19F08BFFD5E700DED3E723
:10AB200000CA9A3B00000000054104003D370400C4
:10AB3000307B0500EC7A05003C7905008D49FD1A53
:10AB4000807B0500F07A05006137040000000000FA
:10AB50002DE9F04F93B0CDE90023DDE9007B2BF028
:10AB6000004C0D465CEA0701044611D1031885F438
:10AB70000022524199426F4B934180F0AA80DDE957
:10AB8000002320462946FCF7C1FA04460D4618E08A
:10AB9000694A25F000439342A846F0D8864615D16D
:10ABA0000028ECD19C45EAD824D1002FE7D1634A94
:10ABB000934240F29180BBF1000FC0F21185DDE9B4
:10ABC00000452046294613B0BDE8F08F944502D8D1
:10ABD00010D1002F76D008F1404808F5801858EAC7
:10ABE0000E08CCD1FA198BF400235B419045514AF1
:10ABF0009A41C2E7B8F1000F24DA514A944525D9A9
:10AC00000226002F4ED0204625F00041BEF1000F55
:10AC100040F0AB82484A934240F07B82BBF1000F88
:10AC200005DA02460B4600204649FCF74FFDB8F115
:10AC3000000F04460D46C4DA012EC2D105F10043CF
:10AC40001D46BEE7002F64D00026DCE73B4A944552
:10AC500003D8002FF8D13E4624E04FEA2C52A2F24E
:10AC6000FF32142A0CDDC2F1340227FA02F606FA8A
:10AC700002F2BA42EDD106F00106C6F10206C0E7C3
:10AC8000002F40F03482C2F114024CFA02F606FAA8
:10AC900002F262452B4A28D1944528D006F00106DD
:10ACA000C6F10206BBF1804FADD1274A9342AAD824
:10ACB000264A93424CD922462B4620462946FCF789
:10ACC000DBFB62E703F1404202F5801202437FF4AE
:10ACD0006EAF1C4D002474E7BBF1000F80F280843E
:10ACE000DDE9004303F100456BE79445B3D1BBF1C7
:10ACF000000FBFF666AF0022002320462946FCF76E
:10AD000023FE78B14FEAD87013B0BDE8F04F22F0BF
:10AD10006BBF0C4A9445EAD0BBF1804F40F0DD8117
:10AD20003E46C2E722462B4606490020FCF7CEFCF1
:10AD30002BE700BF0000F0FF0000F07FFFFFEF3FB8
:10AD4000FFFF3F430000F03FFFFFEF5F0000501E9A
:10AD50005EEA030E204625F0004100F002824FEA31
:10AD6000D872013A0992324300F0E481CA4A08EAF3
:10AD70000202002A00F0D58200241A15A2F2FF3246
:10AD800022440E92C54AC3F3130343F07F55934206
:10AD900045F4401508DDC24A934240F3CA820E9B37
:10ADA00001330E93A5F580154FF0000A4FEACA0350
:10ADB0000F93BC4B03EBCA03D3E900342946CDE91A
:10ADC0000A341A462346CDE90C01FCF79DF9DDE96A
:10ADD0000C2380468946DDE90A01FCF797F9024613
:10ADE0000B460020B049FCF771FCCDE9100102468A
:10ADF0000B4640464946FCF73FFBCDE90601DDE93D
:10AE00000634CDE9043400230493DDE904346D10E5
:10AE100045F0005505F50025CDE90234002205EB8B
:10AE20008A4314461D462046DDE902232946FCF7E5
:10AE300023FB02460B4640464946FCF765F9DDE92F
:10AE40000A238046894620462946FCF75DF90246DA
:10AE50000B46DDE90C01FCF757F9DDE90223FCF7AD
:10AE60000BFB02460B4640464946FCF74DF9DDE92F
:10AE70001023FCF701FBDDE90623CDE90A011046AA
:10AE80001946FCF7F9FA72A3D3E9002380468946F4
:10AE9000FCF7F2FA70A3D3E90023FCF737F9424636
:10AEA0004B46FCF7E9FA6EA3D3E90023FCF72EF931
:10AEB00042464B46FCF7E0FA6BA3D3E90023FCF7CC
:10AEC00025F942464B46FCF7D7FA69A3D3E900239C
:10AED000FCF71CF942464B46FCF7CEFA66A3D3E9D1
:10AEE0000023FCF713F9424604460D464B46404604
:10AEF0004946FCF7C1FA02460B4620462946FCF7B4
:10AF0000BBFADDE9022304460D46DDE90601FCF744
:10AF1000FDF8DDE90A23FCF7AFFA22462B46FCF7E1
:10AF2000F5F8DDE9022304460D4610461946FCF704
:10AF3000A3FA02460B46CDE90C235C4B0022FCF73A
:10AF4000E5F822462B46FCF7E1F8DDE90223002074
:10AF500080468946FCF790FA544BCDE90201002265
:10AF600040464946FCF7D0F8DDE90C23FCF7CCF865
:10AF700002460B4620462946FCF7C6F8DDE90623C3
:10AF8000FCF77AFADDE90A2304460D4640464946B5
:10AF9000FCF772FA02460B4620462946FCF7B6F843
:10AFA00004460D4602460B46DDE90201FCF7AEF809
:10AFB00033A3D3E90023002080468946FCF75CFADE
:10AFC000DDE90223CDE9060140464946FCF79CF83D
:10AFD00002460B4620462946FCF796F82AA3D3E9F9
:10AFE0000023FCF749FA2AA3D3E9002304460D46BF
:10AFF00040464946FCF740FA02460B4620462946A1
:10B00000FCF784F80F9A2A4B1344D3E90023FCF78A
:10B010007DF8CDE902010E98FCF7C4F90F9A254B93
:10B020001344D3E900890446DDE902230D46DDE936
:10B030000601FCF76BF842464B46FCF767F82246E0
:10B040002B46FCF763F8002022462B4634E000BF75
:10B05000EF4E454A287ECA3F65DBC9934A86CD3FFD
:10B0600001411DA96074D13F4D268F515555D53FE3
:10B07000FFAB6FDBB66DDB3F033333333333E33F7B
:10B08000000000E009C7EE3FFD033ADC09C7EE3FD0
:10B09000F5015B14E02F3EBE0000F07F8E980300A8
:10B0A00079B60B00187005000000F03F0000084062
:10B0B000F86F050008700500CDE90401FCF724F8DD
:10B0C00042464B46FCF720F8DDE90623FCF71CF866
:10B0D00002460B46DDE90201D6E0BB4A934515D195
:10B0E0002046294613B0BDE8F04F22F05DBCBEF10A
:10B0F000000F1FD1B54A9342204625F0004107D1E9
:10B10000BBF1000FBFF641AD76468AE53E467AE5D3
:10B110007646AF4A934217D1BBF1000F05DA0246DB
:10B120000B460020AA49FCF7D1FAB8F1000FBFF690
:10B130002CAD36B92046294613B0BDE8F04F22F0B9
:10B140005FBD04460D4677E57BB9BBF1000F08DA19
:10B15000B8F1000F03DA731E58425841D4E518467F
:10B16000D2E5012E7FF411AD2BE54FEAD87202F142
:10B17000FF3ECDF824E05EEA060EDBD0BCF1844F42
:10B180007FF6F4AD934CA445934C13D9A34208D851
:10B19000BBF1000F08DA002013B0BDE8F04F22F039
:10B1A00017BDBBF1000FF6DC002013B0BDE8F04F77
:10B1B0002BF051B9A34205D2BBF1000F02EA060001
:10B1C000F3DAE9E7824CA34205D9BBF1000F02EAAA
:10B1D0000600E1DCE9E77E4B0022FBF795FF70A358
:10B1E000D3E9002304460D46FCF746F96EA3D3E9E4
:10B1F00000238046894620462946FCF73DF9774BD7
:10B20000CDE90201002220462946FCF735F9024625
:10B210000B4667A1D1E90001FBF776FF22462B46DA
:10B22000FCF72AF902460B4600206749FBF76CFF42
:10B230002246CDE904012B4620462946FCF71CF99D
:10B2400002460B46DDE90401FCF716F95AA3D3E9DF
:10B250000023FCF711F902460B46DDE90201FBF77A
:10B2600053FF02460B4604460D4640464946FBF74F
:10B270004DFF002042464B46CDE90401FBF744FF59
:10B2800002460B4620462946FBF73EFF099B013E3E
:10B290001E4314BF4E4B524B00220026CDE9022321
:10B2A00004460D465B46DDE900013246FBF72CFF04
:10B2B000DDE90423FCF7E0F85F46DDE900238B4677
:10B2C000824629462046FCF7D7F802460B465046F0
:10B2D0005946FBF71BFF3246CDE900013B46DDE94D
:10B2E0000401FCF7C9F80B46024680468946DDE9B1
:10B2F0000001FBF70BFF3B4B994204460D468B4682
:10B300003BDD01F13F4303F5E003034314D0DDE9E6
:10B31000020100220023FCF721FB801B18BF012043
:10B320003AE7314B0022FCF7A7F86FF034040B46E4
:10B3300023E54FF0010A39E521A3D3E90023DDE934
:10B340000001FBF7E3FE424606460F464B46204609
:10B350002946FBF7D9FE02460B4630463946FCF734
:10B360001BFB002850D0DDE9020100220023FCF77E
:10B37000F5FA003818BF01200EE71C4C21F00043FD
:10B38000A34244D91A4B0B44034333D0DDE90201F5
:10B3900000220023FCF7E2FA003818BF012004E77E
:10B3A000000000604715F73F44DF5DF80BAE543EE8
:10B3B000555555555555D53FFE822B654715F73FD9
:10B3C000FE822B654715973C0000E03F0000F07FB0
:10B3D0000000F03F0000F043FFFFEF3F0000D03FD0
:10B3E0000000F0BFFFFF8F4000004043FFCB9040C4
:10B3F00000346F3F42464B46FBF786FEDDE90023F3
:10B40000FCF7C0FA0028C1D140F2094304E0864AA3
:10B41000934240F2E1801B15A3F2FE334FF4801AF1
:10B420004AFA03FADA44CAF30A518048A1F2FF311A
:10B43000084100EA0A03CAF3130AC1F114014AF4ED
:10B44000801A4AFA01FABBF1000F404649464FF014
:10B450000002B8BFCAF1000AFBF756FE80468946D3
:10B46000DDE9002340464946FBF750FE00245EA379
:10B47000D3E9002320460D46FBF7FEFF4246064671
:10B480000F464B4620462946FBF73EFE02460B463A
:10B49000DDE90001FBF738FE55A3D3E90023FBF7F4
:10B4A000EBFF55A3D3E90023804689462046294671
:10B4B000FBF7E2FF02460B4640464946FBF726FEF5
:10B4C00004460D4602460B4630463946FBF71EFE43
:10B4D00032463B4680468946FBF716FE02460B463F
:10B4E00020462946FBF710FE424606460F464B46CD
:10B4F00040464946FBF7C0FF41A3D3E90023044679
:10B500000D46FBF7B9FF40A3D3E90023FBF7FCFD91
:10B5100022462B46FBF7B0FF3DA3D3E90023FBF700
:10B52000F5FD22462B46FBF7A7FF3BA3D3E90023FB
:10B53000FBF7EAFD22462B46FBF79EFF38A3D3E933
:10B540000023FBF7E3FD22462B46FBF795FF02465F
:10B550000B4640464946FBF7D7FD04460D460246DA
:10B560000B4640464946FBF787FF0022CDE9000124
:10B570004FF0804320462946FBF7C6FD02460B46A6
:10B58000DDE90001FCF7A2F8324604460D463B46D1
:10B5900040464946FBF770FF32463B46FBF7B6FD97
:10B5A00002460B4620462946FBF7AEFD42464B4677
:10B5B000FBF7AAFD02460B4600201D49FBF7A4FD40
:10B5C00001EB0A54B4F5801F08DA524622F0A4FABF
:10B5D000DDE90223FFF773BBB24641E72146F7E7F7
:10B5E00000240025FFF7EDBA00000000432EE63FDF
:10B5F000EF39FAFE422EE63F396CA80C615C20BEA2
:10B60000D0A4BE726937663EF16BD2C541BDBB3E68
:10B610002CDE25AF6A56113F93BDBE166CC1663F46
:10B620003E5555555555C53F0000E03F0000F0FF21
:10B630000000F03F084B1A68904208D0D3F8A020D1
:10B64000904206D10122A02101FB02307047002266
:10B65000F9E70020704700BF08240020064803686F
:10B660001BB1D0F8A03023B90123A02202FB0300B4
:10B6700070470020704700BF0824002009490A488D
:10B6800008B507F01FF9014638B110F1780F04D062
:10B69000BDE80840054822F088BEBDE808400448DF
:10B6A00022F083BE39BD020084870500EC870500C7
:10B6B0000F880500F0B587B00646FFF7BBFF0346CD
:10B6C00000283AD01E4A01AD02F1100C2C46106839
:10B6D00051682F4603C7083262453D46F7D11278BC
:10B6E0003A7003F164020DF1140C1746254603CDA0
:10B6F0006545106051602C4602F10802F6D12978A8
:10B700001170104ADA674FF6FF72A3F88620012401
:10B7100003229F67A3F8804083F8882003F1780113
:10B7200030460AF00DFF034638B1074A0748214664
:10B7300007B0BDE8F04022F079BA07B0F0BD00BF15
:10B74000606C05005DB9020021880500046C0500ED
:10B750002DE9F0418CB006460D461746FFF76AFF0B
:10B76000044640B95F4A6048012122F061FA002096
:10B770000CB0BDE8F08155B95C4A5B48022122F06B
:10B7800057FA1422294638462AF0F1FCEFE7584BC5
:10B79000D0F838C002AA03F1100896461868596814
:10B7A000174603C7083343453A46F7D11B783B7029
:10B7B0007146604625F015FA4E4F002836D1A7F1A4
:10B7C000100307AA186859689446ACE803000833C8
:10B7D000BB426246F6D11B788CF8003004F1260398
:10B7E00007AF0DF12C0E9C463A4603CA724518600D
:10B7F0005960174603F10803F6D112781A70C4F89D
:10B8000038C02B8A0133A4F84030032384F8483031
:10B8100004F1380130460AF093FE03460028A6D012
:10B82000354A3148012122F001FAA0E7D4F838E086
:10B83000A7F1100307AA186859689446ACE80300FA
:10B840000833BB426246F6D11B788CF8003007A95A
:10B85000704625F0C6F9074608BB284627F01FF8B2
:10B8600042F60213ADF806308DF804702346019AB3
:10B87000A4F8540043F8262FA3632B8A0233A4F8BC
:10B880004030042384F8483004F1380130460AF08F
:10B8900057FE034600283FF46AAF184AC1E7184A2A
:10B8A0001148032122F0C4F90127164BE364A4F8E0
:10B8B00058702B8AA4F8563004F14C0130460BF036
:10B8C00005FC034620B110F1780F01D00E4AA8E71D
:10B8D0000E4A0548032122F0ABF93046FFF7EAFE95
:10B8E00045E700BF3D880500046C05005D88050044
:10B8F000716C0500926C050085880500A68805001E
:10B90000C3880500A1BA0200EB880500058905007F
:10B9100070B50378092B04460D4619D14678112ECF
:10B9200011D10C49324660682AF029FC80B92846BA
:10B93000012300F8013B3246616835442AF009FCD6
:10B940000020687070BD032E02D103493246EAE739
:10B950000120F7E728890500E98F0500B0B51446F6
:10B9600000AF0D4661B9154A1548022122F060F971
:10B970001422294620462AF0FAFB0020BD46B0BD1D
:10B98000FFF758FE04460028F7D0284626F087FF28
:10B990006D468AB0A0806A460A4B53614FF400732B
:10B9A00013840634084BC2E906404FF4135142F8A1
:10B9B000103F034822F03EF9AD46DEE73A89050024
:10B9C000046C05005A8905000400000137B50546DE
:10B9D00026F0B7FF0446284626F0B3FF0346033C93
:10B9E000A4B2044A04480094032123F01BFD03B0D1
:10B9F00030BD00BF80890500046C05000B4621B1F5
:10BA0000034A0448012122F011B9FFF7DFBF00BF4C
:10BA1000B6890500046C0500F7B504468368DB6B46
:10BA20002BBBA368DB6A3BBB194D1A4EA3681B698D
:10BA300003B301220DF1070120469847012819D1CF
:10BA40009DF807202B680A2A01D00D2A19D1002B56
:10BA5000ECDD0027F7540F490F480022002329F09E
:10BA600098FE10B10D4822F0A0FC2F60DEE7984749
:10BA70000028D6D103B0F0BD204698470028D3D186
:10BA8000F8E7B3F5FF7FDEBF591CF2542960CDE71C
:10BA90005425002089540020A0080020D3890500E7
:10BAA0002DE9F043ADF50F7D054602AF88461446FB
:10BAB000534819461E4622F078FC64B95148524A50
:10BAC000022122F0B5F8A8F80840204607F50D77C6
:10BAD000BD46BDE8F0832846FFF7ACFD98B38379F7
:10BAE0008BB3851DFF2EB04628BF4FF0FF0842469E
:10BAF000214607F130002AF02CFB07F13002002329
:10BB00006C468AB002F8083002AA404B3D48C2E9B0
:10BB1000053507F13003D3613D4B13623D4B42F8CD
:10BB2000103F4FF4235122F085F83B49A54607F119
:10BB300030002AF050FB40B1384A3248032122F04D
:10BB400077F80120C2E7364DCCE73C1D0523354A86
:10BB50000094314607F1300001F056FD031E04DA6F
:10BB6000314A2848032122F061F8BFF35B8F2F4B45
:10BB70001B68BFF35B8F43BB2D4BD4F80490256942
:10BB8000BB61D4E902682AF0A0F94FF47A72A0FBF5
:10BB9000020302FB0131C00B40EA41404FF48073C5
:10BBA000C7E90709C7E90986FD622248009307F142
:10BBB000180207F59873032101F0A8FE002804DBA2
:10BBC0001D4807F5987122F0F0FB61681B4822F0D0
:10BBD000CFF805460028B4D04FF0FF324FF0FF33C6
:10BBE00017481FF0FBF894F91010284622F0D0F8FF
:10BBF00013481FF06BF913481FF0EAF9A1E700BFE3
:10BC0000FD890500046C05001B8A05002A8A0500D1
:10BC10000002010304000002328A0500408A050088
:10BC2000F5890500287005006C8A0500880200204F
:10BC3000828A0500907105008A8A05004825002047
:10BC40008C0800201809002070B503788AB00446DB
:10BC50000E4607AD032B20D8DFE803F002191B1DA9
:10BC600011492846FBF7DCFE059563780493A37819
:10BC70000393E37802932379019363790093A37983
:10BC80000A4A1E21304620F06FFB0AB070BD0849F9
:10BC9000E7E70849E5E70849E3E7084A0A212846B3
:10BCA00020F062FBE0E700BF8E8A0500B08A050045
:10BCB000958A05009C8A0500A68A050085B40500C2
:10BCC000F0B589B000AF0D46044625F03AFC394680
:10BCD000FFF7BAFF6E468AB06A46134BD561C2E9D8
:10BCE00005374FF400731384104B42F8103F10488F
:10BCF0004FF4135121F09EFF2046B546FFF79AFC02
:10BD0000044668B1006807F031FAA02200212046FD
:10BD10002AF02DFA07484FF4804200231FF0DAFB87
:10BD20002437BD46F0BD00BFD38A050004000001E2
:10BD3000046C0500000000202DE9F04798469CB0F7
:10BD4000624B1B688A4662498B4200AF0646144626
:10BD500040F0A380FFF782FC054600287BD0012C31
:10BD600001D9042C77D15B4C07F14C0C04F1200E67
:10BD7000624620686168634603C3083474459C4684
:10BD8000F7D123788CF800305349404604F086FB05
:10BD900097F84C30002B5ED007F10C04214630465A
:10BDA000FFF752FFE9468AB06A464C4B4C48C2E95D
:10BDB00005344C4B536207F14D084B4BC2E9078ADF
:10BDC0004FF4435142F8103FDFF820A121F032FF39
:10BDD000CD464FF000095AF8290058B125F0B1FBC3
:10BDE00007F12C01FFF730FF214607F12C00FBF78C
:10BDF0000DFE80B3B9F1280F31D106F0B3FD8146B5
:10BE000048BB3B4B0FCB07F12C0C8CE80F00394A99
:10BE10004FF0C873C7E9012330462B463A1D6146EF
:10BE200007F0F2FE0646E8B1E8468AB06A46324BB1
:10BE3000D061C2E905344FF4007313842F4B42F8EC
:10BE4000103F27484FF4115121F0F4FEC546C5F8C4
:10BE50000090FFF713FC7037BD46BDE8F0874FF048
:10BE60002809B8E7AB1D1F22414618462AF097F96A
:10BE700085F825606D468AB06A462149194B1362E0
:10BE8000204BD061C2E9051442F8103F4FF4235112
:10BE9000134821F0CFFEAD46DDE70C318B42DAD1FD
:10BEA00007F10C042146FFF7CFFE6D468AB06A46C3
:10BEB000154BC2F81CA0C2E905344FF4007313847B
:10BEC0000E4B42F8103F4FF41351E1E7F8230020E6
:10BED00078700500936C050011B90200F48A050022
:10BEE000046C050000020103050000020824002084
:10BEF000B46C0500180028001A8B0500040000012E
:10BF0000388B050004000002588B0500F0B58FB097
:10BF1000054600AF5C480C4622F047FA284625F05B
:10BF200010FB07F11801FFF78FFE8CBB574B1A6807
:10BF3000D3F8A030003A18BF012203B101325448AF
:10BF4000022307F1180122F030FA6C4688B06A46E5
:10BF5000504B536107F1180393614FF400739383BF
:10BF60004D4B42F8103F4D484FF4E65121F062FE30
:10BF70002846A546FFF75EFB044680BB484A474873
:10BF8000012121F055FE1321284625F0CAF923E0AE
:10BF90006E468AB06A46434B536107F11803C2E903
:10BFA00006344FF4007313843F4B42F8103F3B4874
:10BFB0004FF4115121F03EFE2846B546FFF73AFBFB
:10BFC000044638B1006807F0D1F8A02200212046CD
:10BFD0002AF0CDF8FFF752FB3C37BD46F0BD334B9E
:10BFE0007B60391D284625F0B2FA034620B1304A5D
:10BFF0002A48012121F01AFE21462E4B41F89C3F90
:10C0000028460AF071FA2C4B3A1D03F1100C1868FF
:10C010005968164603C6083363453246F7D11B7884
:10C02000337004F126023B1D07F1140E94461E46A0
:10C0300003CE764510605160334602F10802F6D116
:10C04000337813701D4BE3630123A4F840304FF69F
:10C05000FF73A4F846300023C4F838C084F8483091
:10C0600004F1380128460AF06BFA2846FFF722FB54
:10C07000FFF7F4FA0028AFD04FF400420023104835
:10C080001FF028FAA8E700BF738B050008240020E2
:10C090008E8B0500AE8B050003000001046C0500CB
:10C0A000DD8B0500BC8B050004000001FB00904205
:10C0B000FF8B0500FDB90200716C050051B702004D
:10C0C000000000200346024A0248032121F0AEBDD1
:10C0D000228C0500046C05000B4621B1034A04487C
:10C0E000012121F0A3BD9089FFF7ECBF3C8C050036
:10C0F000046C050010B50848084C4FF0FF324FF0B3
:10C10000FF331EF09FFF204623F08BFB18B96420FD
:10C1100021F093FDF7E710BD60090020F82300200F
:10C1200080B5764CA368ADF5A66D2BB11B6C1BB129
:10C130007349002220469847A3681B6A0BB16F48D9
:10C1400098477048704D714E714F22F02EF94FF0A4
:10C15000FF334FF0FF324CA928461EF0DBFD4FF4B1
:10C1600000724CA9CCA82AF01AF80AAC00234CA8FB
:10C17000C4E90033FBF75CFC00940146022332461D
:10C180004CA801F041FA011E01DBCB0703D438466D
:10C1900022F00BF9DBE7D4F800805E494046FBF75C
:10C1A00035FC10BB5C4BDFF874811C68DFF87091C4
:10C1B000642021F042FD002CC9D0E38F0293A38FAD
:10C1C000019304F120030093424623464FF480710B
:10C1D0000CA820F0C9F848460CA922F0E6F8142073
:10C1E000D4F8B44021F029FDE5E74E494046FBF77D
:10C1F0000DFC0146002833D10CAC2C22204629F03E
:10C20000B6FFCCA8FBF714FC474A009401460B2369
:10C21000CCA801F0F9F9002899DB139B0893129B35
:10C2200007934FF064089DF95030169890FBF8F092
:10C230000693FBF7B7F8CDE90401159890FBF8F0E9
:10C24000FBF7B0F8BDF84090BDF844300093CDE95D
:10C2500002014B46DDE90E122F4821F045FD76E73D
:10C2600032494046FBF7D2FBE0B9CDE90C000E9015
:10C27000CCA8FBF7DDFB0CAC01462D4A0094032350
:10C28000CCA801F0C1F90028FFF661AF0E99224851
:10C2900021F06EFD014600283FF459AF1E4821F001
:10C2A0004FFD54E723494046FBF7B0FB00287FF4DD
:10C2B0004EAF646820492046FBF7A8FB60B9BFF386
:10C2C0005B8F1E4B012253E8001F43E8002000282B
:10C2D000F9D1BFF35B8F3AE719492046FBF796FB8C
:10C2E00000287FF434AFBFF35B8F144B53E8002F6B
:10C2F00043E800010029ECD0F8E700BFC466050060
:10C3000019BA0200528C0500A008002070710500C7
:10C310006C8A0500708C0500482500207D8C050086
:10C320005A9D0500E38C0500C0700500EE8C0500E9
:10C3300090700500FC8C0500058D0500880200202A
:10C340000A8D050008B5054829F040F920B9BDE877
:10C350000840034822F029B8FFF7E2FEC466050052
:10C36000128D050010B5054C4FF0FF324FF0FF3332
:10C3700020461EF067FEFBF7B3FCF5E71809002026
:10C38000F8B5002000AF05F0ADF90446FBF7F8FD65
:10C39000002C7BD10321414A414821F049FC4FF454
:10C3A000203200233F481FF095F83F493F4823F0D3
:10C3B0002CFA3F483F4C404D1EF00AFE41F28830B7
:10C3C00021F03BFC266826B13C493D48FBF71EFBAB
:10C3D00050B1D4F8A060002E42D038493948FBF75C
:10C3E00015FB00283CD10120A023584323189A882C
:10C3F000D2B96E4688B06A46334B53612F4B936176
:10C400004FF400739383314B42F8103F24484FF4AC
:10C41000E25121F00FFC6FF01503B54620482A4683
:10C42000012121F003FCC9E7A3F890200022A3F822
:10C4300092202749274AC3F88C108C30C3F89420E7
:10C44000211804223046A3F898200AF0A7FD0346DD
:10C450000028E3D1204A1248032121F0E9FBADE78F
:10C460006E4688B06A461D4B5361144B93614FF47E
:10C4700000739383154B42F8103F09484FF4E25183
:10C4800021F0D8FB6FF00103B546C7E714482146F9
:10C4900021F08BFF0020BD46F8BD00BF5A8F05007C
:10C4A000046C05000000002078700500F8230020CF
:10C4B0006009002008240020B08F0500E98F0500E6
:10C4C0000E240020AE240020708F05000300000120
:10C4D000D9C0020093940500D48F0500988F050001
:10C4E0003A8F050010B5782204460021083029F063
:10C4F0003EFE054B0022C4E90023C4E90A23C4E937
:10C500001423C4E91E2310BD0000F03F2DE9F04FB5
:10C5100091B08407009302F004030293C2F3C203B4
:10C5200003F10103DDF86880039205460E4605938A
:10C5300040F0BA81041D30B1072909D86FF01B0003
:10C5400011B0BDE8F08F01F007063444C6F10806CB
:10C55000009B4FF00009591E4FF0040A4FF0FF33C3
:10C560000193CDF810904F46CB4653460DB1009A3B
:10C5700022600598002800F3E8809848009A8242DB
:10C5800003D397488242C0F0E080039AA4EB050EE3
:10C5900092074FEA9E0000F103810F2F00F2B18055
:10C5A000002D00F0058107F140020DEB020C019A0D
:10C5B0000CF8200C0CF8102C049801300490E7E0E3
:10C5C0007A285DD84B280ED8472859D829282DD845
:10C5D000252852D054D820287AD02338D0F1000B07
:10C5E0004BEB000B74E04C382E2849D8DFE800F004
:10C5F0007048484848484848484848484B48484890
:10C60000484848484859484B4B595959704B6D4810
:10C610007048184B184848827F4B48484B487F0069
:10C6200000204FF0000B4FF0040A38E02A38C0B267
:10C63000012202FA00F010EA0E0F49D110F0625CFC
:10C640002FD110EA020B43D06046013C5444B4FBA6
:10C65000FAF40AFB04F4002D61D0A3EB050CA4440A
:10C66000B4453FF66BAF002868D1042B47D158F88A
:10C67000043B2360043404232AE0019A013A019226
:10C680004FF0000B24E011F8010C6C2834D111F8A4
:10C69000023C00206C2B8346C5D14FF0080A53465C
:10C6A000D3E708F1070828F007080734F8E802ABD9
:10C6B00024F0070435B106982044B0423FF63EAF5F
:10C6C000C4E900AB08344FF0000B4FF0080A5346A2
:10C6D00011F8010F002878D0BBF1000F7FF470AF84
:10C6E0002528F5D1019B013301934FF0010B4FF049
:10C6F000040AECE7584694E700208346A5E7082B98
:10C7000002D06FF015001BE708F1070828F00708B2
:10C71000F8E80223C4E9002308340823D8E768B9FD
:10C72000042B02D108F10408A4E7082BE9D108F191
:10C73000070828F0070808F10808EDE7059A013A0C
:10C74000059258F8042B009210E7039A900720D521
:10C75000A4EB050E4FEA9E004FF0010CBEF5007FE2
:10C76000CFD20F2FCDD8F5B107F140020DEB020E5D
:10C77000C0B2019A0EF8200C0EF8102CBCF1000F7C
:10C780003FF41AAF60F07F000EF8200C09F10109A8
:10C790000137C5F10802043406924FF6DA7E97E7B6
:10C7A0004FF0000CDAE7BCF1000F01D00136EFE7E3
:10C7B000029802360028EBD10098CDE90631FBF74C
:10C7C00037F9DDE906310644E2E7631BB3F5806F14
:10C7D00097D23DB9A6F10804E018B1E6B4650500AA
:10C7E00034BD0500029A28609B082B709DF810301C
:10C7F000C2B1EB7085F80290B9F1000F05D008A81E
:10C800000022C5F1010C97420ED1C5F101030DF1D3
:10C8100020084FF0000A01930DF1300B574512D15B
:10C82000601B8DE66B70E5E710F8013B190608D533
:10C830000CEB040EB64503F07F033FF67FAE04F821
:10C84000013B0132DFE7B9F1000F03D098F9002076
:10C85000002A17DB029BD3B11AF80B2004F8012B36
:10C860000022019B18191044B0423FF667AE98F8B9
:10C87000000004F8010B00990392204629F069FC9E
:10C88000039A14440AF1010A08F10108C6E798F86E
:10C89000002055F822300093029B45F82230009882
:10C8A000FBF7C6F8421CDCE76FF00D0048E600BF5E
:10C8B0002DE9F04F97B000AF90F802A0D7F880B004
:10C8C0003B62CBF3C0030446FA62BB61894641B9BF
:10C8D000457800780AEB800020444D4517D8A0EB3E
:10C8E0000409E378FB61BAF1000F02D01BF0010FDD
:10C8F00016D1FB6953BBFB6A1BB13A6A4946204615
:10C9000098474D4628465C37BD46BDE8F08F461C2B
:10C910003046FBF78DF80130304409F10109DCE7BE
:10C92000237862687A62FA6A9900796104EB83017C
:10C93000002A40F000814D460E4601EB0A094FF0F7
:10C9400000084E454CD101EB0A0610E01BF0020F27
:10C95000D1D023789A007A6162687A62FA6A04EB2D
:10C960008301002A77D14D4601EB0A0690461BF061
:10C97000050F0CBF02230123FB62FB6906EB430A90
:10C980000BF00203BB625645BCD016F8021B16F82A
:10C99000013C54F82390994B994502D3984B994503
:10C9A00036D3BB69002B40D0786A21F0D5FC002833
:10C9B0003BD0E9468AB06A46924B53617B6AC2E932
:10C9C00006314FF4007313848F4B42F8103F8F48A9
:10C9D00000234FF4125101F04DFA023DCD46D2E74B
:10C9E00016F8013BF96254F82300FBF721F8D7F859
:10C9F0008430F96A01304BB1D7F8883098453EBF92
:10CA0000D7F8843023F8180008F10108054498E7A6
:10CA1000BB6923B1786A21F09FFC0028C9D11BF0C3
:10CA2000010F05D1FB6AED1AADE7BB6A002BAAD056
:10CA30004846FAF7FDFFD7F8843053B1D7F888306D
:10CA400098453FBFD7F88420431C22F8183008F1DE
:10CA50000108054497E7BAF1000F72D01BF00406F5
:10CA600072D0D046002607F1480052463B61B962B9
:10CA700029F06FFBB96A3B6901EB0A02BA62FA69F5
:10CA8000F9695200FA60BA6A02EB41023A610BF0AE
:10CA90000202BA603A69B96A8A4257D162787A6208
:10CAA0001BF0020F32440CBF4FEA580100211BF06B
:10CAB000010FD2B240F09F801BF0040F14BF40461C
:10CAC0000020BB616270A070E1703A6A7969FB6A0C
:10CAD00020469847051EFFF615AFBB6923707B6A99
