:020000022000DC
:107000000093002045E70200FBED040031E7020099
:1070100031E7020031E7020031E702000000000022
:107020000000000000000000000000000DE8020069
:1070300031E7020000000000A9E7020031E702008A
:10704000DDE90200A9280400DDE90200DDE9020013
:10705000DDE90200DDE90200DDE90200DDE9020010
:10706000DDE90200DDE90200DDE90200DDE9020000
:10707000DDE90200DDE90200DDE90200DDE90200F0
:10708000DDE90200DDE90200DDE90200DDE90200E0
:10709000DDE90200DDE90200DDE90200DDE90200D0
:1070A000DDE90200DDE90200DDE90200DDE90200C0
:1070B000DDE90200DDE90200DDE90200DDE90200B0
:1070C000DDE90200DDE90200DDE90200DDE90200A0
:1070D000DDE90200DDE90200DDE90200DDE9020090
:1070E000DDE90200DDE90200DDE90200DDE9020080
:1070F000DDE90200DDE90200DDE90200DDE9020070
:1071000081F0004102E000BF83F0004330B54FEA58
:1071100041044FEA430594EA050F08BF90EA020FC5
:107120001FBF54EA000C55EA020C7FEA645C7FEA58
:10713000655C00F0E2804FEA5454D4EB5555B8BF7B
:107140006D420CDD2C4480EA020281EA030382EAEC
:10715000000083EA010180EA020281EA0303362D7E
:1071600088BF30BD11F0004F4FEA01314FF4801C51
:107170004CEA113102D0404261EB410113F0004F63
:107180004FEA03334CEA133302D0524263EB43031A
:1071900094EA050F00F0A780A4F10104D5F1200EB8
:1071A0000DDB02FA0EFC22FA05F2801841F1000113
:1071B00003FA0EF2801843FA05F359410EE0A5F1E7
:1071C00020050EF1200E012A03FA0EFC28BF4CF018
:1071D000020C43FA05F3C01851EBE37101F00045CE
:1071E00007D54FF0000EDCF1000C7EEB00006EEBDB
:1071F0000101B1F5801F1BD3B1F5001F0CD3490865
:107200005FEA30004FEA3C0C04F101044FEA4452BB
:1072100012F5800F80F09A80BCF1004F08BF5FEA42
:10722000500C50F1000041EB045141EA050130BD22
:107230005FEA4C0C404141EB0101013C28BFB1F534
:10724000801FE9D291F0000F04BF01460020B1FA7F
:1072500081F308BF2033A3F10B03B3F120020CDA52
:107260000C3208DD02F1140CC2F10C0201FA0CF030
:1072700021FA02F10CE002F11402D8BFC2F1200C95
:1072800001FA02F120FA0CFCDCBF41EA0C0190404B
:10729000E41AA2BF01EB0451294330BD6FEA040494
:1072A0001F3C1CDA0C340EDC04F11404C4F120027F
:1072B00020FA04F001FA02F340EA030021FA04F391
:1072C00045EA030130BDC4F10C04C4F1200220FAE8
:1072D00002F001FA04F340EA0300294630BD21FA26
:1072E00004F0294630BD94F0000F83F4801306BFEC
:1072F00081F480110134013D4EE77FEA645C18BFE0
:107300007FEA655C29D094EA050F08BF90EA020F76
:1073100005D054EA000C04BF1946104630BD91EA6E
:10732000030F1EBF0021002030BD5FEA545C05D171
:107330004000494128BF41F0004130BD14F58004B0
:107340003CBF01F5801130BD01F0004545F0FE4124
:1073500041F470014FF0000030BD7FEA645C1ABF59
:10736000194610467FEA655C1CBF0B46024650EA90
:10737000013406BF52EA033591EA030F41F40021BC
:1073800030BD00BF90F0000F04BF0021704730B542
:107390004FF4806404F132044FF000054FF0000117
:1073A00050E700BF90F0000F04BF0021704730B5D8
:1073B0004FF4806404F1320410F0004548BF4042AD
:1073C0004FF000013EE700BF42004FEAE2014FEA02
:1073D00031014FEA02701FBF12F07F4393F07F4FDD
:1073E00081F06051704732F07F4208BF704793F0E0
:1073F0007F4F04BF41F40021704730B54FF46074F3
:1074000001F0004521F000411CE700BF50EA0102F5
:1074100008BF704730B54FF000050AE050EA01029E
:1074200008BF704730B511F0004502D5404261EB0E
:1074300041014FF4806404F132045FEA915C3FF44F
:10744000D8AE4FF003025FEADC0C18BF03325FEAEC
:10745000DC0C18BF033202EBDC02C2F1200300FA9D
:1074600003FC20FA02F001FA03FE40EA0E0021FAC2
:1074700002F11444BDE600BF70B54FF0FF0C4CF4B0
:10748000E06C1CEA11541DBF1CEA135594EA0C0F62
:1074900095EA0C0F00F0DEF82C4481EA030621EA9D
:1074A0004C5123EA4C5350EA013518BF52EA0335D8
:1074B00041F4801143F4801338D0A0FB02CE4FF08A
:1074C0000005E1FB02E506F00042E0FB03E54FF0BA
:1074D0000006E1FB03569CF0000F18BF4EF0010EB2
:1074E000A4F1FF04B6F5007F64F5407404D25FEAAE
:1074F0004E0E6D4146EB060642EAC62141EA555161
:107500004FEAC52040EA5E504FEACE2EB4F1FD0CA2
:1075100088BFBCF5E06F1ED8BEF1004F08BF5FEA20
:10752000500E50F1000041EB045170BD06F00046D2
:1075300046EA010140EA020081EA0301B4EB5C047F
:10754000C2BFD4EB0C0541EA045170BD41F4801177
:107550004FF0000E013C00F3AB8014F1360FDEBF9C
:10756000002001F0004170BDC4F10004203C35DA78
:107570000C341BDC04F11404C4F1200500FA05F3FB
:1075800020FA04F001FA05F240EA020001F000429C
:1075900021F0004110EBD37021FA04F642EB060112
:1075A0005EEA430E08BF20EAD37070BDC4F10C043C
:1075B000C4F1200500FA04F320FA05F001FA04F200
:1075C00040EA020001F0004110EBD37041F10001EC
:1075D0005EEA430E08BF20EAD37070BDC4F12005F7
:1075E00000FA05F24EEA020E20FA04F301FA05F25F
:1075F00043EA020321FA04F001F0004121FA04F207
:1076000020EA020000EBD3705EEA430E08BF20EAD6
:10761000D37070BD94F0000F0FD101F00046400010
:1076200041EB010111F4801F08BF013CF7D041EA92
:10763000060195F0000F18BF704703F00046520096
:1076400043EB030313F4801F08BF013DF7D043EA67
:107650000603704794EA0C0F0CEA135518BF95EA1D
:107660000C0F0CD050EA410618BF52EA4306D1D1A4
:1076700081EA030101F000414FF0000070BD50EAC3
:10768000410606BF1046194652EA430619D094EA4D
:107690000C0F02D150EA013613D195EA0C0F05D137
:1076A00052EA03361CBF104619460AD181EA03018B
:1076B00001F0004141F0FE4141F470014FF0000043
:1076C00070BD41F0FE4141F4780170BD70B54FF0DE
:1076D000FF0C4CF4E06C1CEA11541DBF1CEA13555E
:1076E00094EA0C0F95EA0C0F00F0A7F8A4EB050440
:1076F00081EA030E52EA03354FEA013100F0888037
:107700004FEA03334FF0805545EA131343EA1263FF
:107710004FEA022245EA111545EA10654FEA0026B4
:107720000EF000419D4208BF964244F1FD0404F56D
:10773000407402D25B084FEA3202B61A65EB0305C9
:107740005B084FEA32024FF480104FF4002CB6EB86
:10775000020E75EB030E22BFB61A754640EA0C0006
:107760005B084FEA3202B6EB020E75EB030E22BF46
:10777000B61A754640EA5C005B084FEA3202B6EB87
:10778000020E75EB030E22BFB61A754640EA9C0046
:107790005B084FEA3202B6EB020E75EB030E22BF16
:1077A000B61A754640EADC0055EA060E18D04FEAD4
:1077B000051545EA16754FEA06164FEAC30343EA74
:1077C00052734FEAC2025FEA1C1CC0D111F4801F41
:1077D0000BD141EA00014FF000004FF0004CB6E73A
:1077E00011F4801F04BF01430020B4F1FD0C88BFD9
:1077F000BCF5E06F3FF6AFAEB5EB030C04BFB6EBE4
:10780000020C5FEA500C50F1000041EB045170BDD6
:107810000EF0004E4EEA113114EB5C04C2BFD4EB03
:107820000C0541EA045170BD41F480114FF0000E87
:10783000013C90E645EA060E8DE60CEA135594EA03
:107840000C0F08BF95EA0C0F3FF43BAF94EA0C0F06
:107850000AD150EA01347FF434AF95EA0C0F7FF47B
:1078600025AF104619462CE795EA0C0F06D152EACF
:1078700003353FF4FDAE1046194622E750EA4106B3
:1078800018BF52EA43067FF4C5AE50EA41047FF4C4
:107890000DAF52EA43057FF4EBAE12E74FF0FF3C29
:1078A00006E000BF4FF0010C02E000BF4FF0010CFA
:1078B0004DF804CD4FEA410C7FEA6C5C4FEA430C73
:1078C00018BF7FEA6C5C1BD001B050EA410C0CBFC2
:1078D00052EA430C91EA030F02BF90EA020F002024
:1078E000704710F1000F91EA030F58BF994208BF8B
:1078F00090422CBFD8176FEAE37040F00100704748
:107900004FEA410C7FEA6C5C02D150EA013C07D19E
:107910004FEA430C7FEA6C5CD6D152EA033CD3D0E9
:107920005DF8040B704700BF8446104662468C46E3
:107930001946634600E000BF01B5FFF7B7FF002816
:1079400048BF10F1000F01BD4DF808EDFFF7F4FF3F
:107950000CBF012000205DF808FB00BF4DF808EDCA
:10796000FFF7EAFF34BF012000205DF808FB00BFED
:107970004DF808EDFFF7E0FF94BF012000205DF80F
:1079800008FB00BF4DF808EDFFF7CEFF94BF0120C4
:1079900000205DF808FB00BF4DF808EDFFF7C4FFBD
:1079A00034BF012000205DF808FB00BF4FEA410C06
:1079B0007FEA6C5C02D150EA013C0AD14FEA430CE9
:1079C0007FEA6C5C02D152EA033C02D14FF0000026
:1079D00070474FF00100704753B94AB9002908BFFA
:1079E00000281CBF4FF0FF314FF0FF3000F00CB803
:1079F000ADF1080C6DE904CE00F022F8DDF804E0EA
:107A0000DDE9022304B07047704700BF10F8012B76
:107A100011F8013B012A28BF9A42F7D0D01A7047CB
:107A2000034611F8012B03F8012B002AF9D1704706
:107A3000034613F8012B002AFBD1181A01387047AE
:107A40002DE9F04786468C460846089E1546744642
:107A50001946002B40F0C2808542B2FA82F245D925
:107A60004AB1C2F1200300FA02FC2EFA03F395405A
:107A700043EA0C0C94404FEA154EA8B2BCFBFEF84A
:107A8000230C0EFB18CC08FB00F943EA0C43994584
:107A900028D9EB1808F1FF3704D2994502D9A8F18B
:107AA00002072B44A3EB0903A4B2B3FBFEFC0EFBBD
:107AB0001C330CFB00F044EA0344A04214D92C19F7
:107AC0000CF1FF3304D2A04202D9ACF102032C44E2
:107AD000241A43EA07401EB1D44000233460736087
:107AE000BDE8F0874746DDE76346F1E792BB431BFD
:107AF00001214FEA154EAFB2B3FBFEFC200C0EFB8A
:107B00001C330CFB07F840EA0343984562D9EB1895
:107B10000CF1FF3004D2984502D9ACF102002B449D
:107B2000A3EB0803A4B2B3FBFEFC0EFB1C330CFB5F
:107B300007F744EA0344A7424ED92C190CF1FF334E
:107B400004D2A74202D9ACF102032C44E41B43EA5D
:107B50000040C0E7C2F1200320FA03F195409040B5
:107B60002EFA03F303434FEA154EAFB2B1FBFEFC0E
:107B70000EFB1C10190C0CFB07F841EA004188456C
:107B800004FA02F422D969180CF1FF3004D28845B6
:107B900002D9ACF102002944A1EB08019BB2B1FB70
:107BA000FEFC0EFB1C110CFB07F743EA01439F424E
:107BB0000ED9EB180CF1FF3104D29F4202D9ACF17F
:107BC00002012B44DB1B41EA004192E76046E3E7F8
:107BD0006146F7E76046A3E76346B7E7834206D905
:107BE00016B9002108467BE7C6E900E0F9E7B3FAD9
:107BF00083F78FB9834201D3724508D8BEEB0204E4
:107C000060EB030301209C461EB9002168E738465B
:107C1000FAE7C6E9004CF8E7C7F1200CBB4022FAAE
:107C20000CF41C432EFA0CF120FA0CF3B84001437B
:107C30004FEA14490EFA07F5B3FBF9F81FFA84FE70
:107C400009FB18300B0C08FB0EFA43EA00439A4577
:107C500002FA07F240D9E31808F1FF3004D29A453E
:107C600002D9A8F102002344A3EB0A0389B2B3FBB3
:107C7000F9F809FB183308FB0EFE41EA03418E4573
:107C80002CD9611808F1FF3304D28E4502D9A8F12E
:107C90000203214443EA0040A0FB0298A1EB0E013D
:107CA0004145CE46434602D306D14D4504D2B9EBF9
:107CB000020E68EB04030138002EA6D0B5EB0E02CD
:107CC00061EB030101FA0CFC22FA07F34CEA03030F
:107CD000F940C6E9003198E74046C5E74346D9E791
:107CE0002DE9F04FADF5177D4FF0FF324FF0FF3328
:107CF000914822F095FC914BD3F8009000224B461E
:107D0000002B40F0BC80102A28BF10228C4D8D4FD4
:107D1000DFF834A20B92984600240026B9F1000F38
:107D200003D0B8F1100F40F0B1800DF1300A874B4D
:107D3000CAF800300EAC864BCAF80430202200216D
:107D400020462DF0CDFD834B1B78002B40F0E680C4
:107D500000260027804DB046B9469B460B9A9345B6
:107D600005F1100540F0C6801BB1CDE90E89C4E9CC
:107D700002670B98794DFFF705FB02460B46064656
:107D80000F46DDE90E01FFF7A1FC3B46CDE90E01F0
:107D90003246D4E90201FFF799FC7022C4E90201DE
:107DA000002128462DF09CFD664B002245E9022368
:107DB000C5E90823C5E91223C5E91C23654A012347
:107DC00013705D48614D664E22F0A2FC5D4B624926
:107DD0005D480022CDE90623624B0022CDE9042351
:107DE000614B0022CDE9022351A3D3E90023CDE961
:107DF000084ACDE900230B9B012200F059FA0FCD70
:107E000034460FC495E80F0084E80F0050495748E6
:107E100080222DF057FDBFF35B8F554B1B68BFF3DE
:107E20005B8F012B27D12DF009FCD6E90623CDE984
:107E30000823D6E90423CDE90623D6E90223CDE9B8
:107E40000423D6E90023CDE902234FF47A72A0FB84
:107E5000020302FB0131C00B40EA4140C90BCDE9EE
:107E60000001444A4FF4007116A823F0B1FE4248C5
:107E700016A925F0BFFE0DF5177DBDE8F08F93F92B
:107E8000AF1001B10132D3F8B43039E799F9AF300E
:107E90006BB309F1900209F1AE01002312F9010F51
:107EA00091420344FAD199F950001E2293FBF2F358
:107EB0005BB2C01AFFF776FA22462B46FFF706FCA4
:107EC00002460B463046394602F00AFE0AEBC8036A
:107ED000C3E900012049D9E9102301EB0810C0E9EA
:107EE0000023D9E91223C0E9022308F10108D9F8D7
:107EF000B49013E755E9042340464946FFF706F9D5
:107F000055E902238046894630463946FFF7FEF898
:107F10000BF1010B06460F4601231FE7104E0FCE53
:107F200025460FC596E80F0085E80F0049E700BF1A
:107F30009A9999999999B93F4C08002034200020CA
:107F40000000324000002440980E0020780D0020F0
:107F5000F80C00209C4A0020980D0020200F0020E3
:107F6000980F0020000010400000E03F180F002094
:107F70005C0200209D7F05002C87050000000000AA
:107F80002DE9F04FAC4CDFF8B4A2DFF8B492AD4D60
:107F90008BB0204625F0C8FAAB4B07939CA3D3E9DE
:107FA000002300260027CDE902236FF0330848F2B2
:107FB000E603CDE90467CDF82090CDF81880009352
:107FC0005146A24A40F6C123204625F0B2FA92A2B9
:107FD000D2E9001245F2DF13CDE907A5CDE9046728
:107FE000CDE90212DFF868A2CDF818800093494667
:107FF000984A48F2CF03204625F09BFA6FF0390BE0
:1080000049F6AB53CDE9079ACDE90467CDE902679C
:10801000DFF84492CDF818B0009329468F4A46F60F
:108020003703204625F085FA8D498E4A6FF03A03D2
:10803000CDE9075906938C4D002049F29073CDE9A4
:108040000401CDE90267009351464AF213332046FA
:1080500025F06FFACDE907A5CDF818B00FF2C01BD7
:10806000DBE900AB4CF6FB23CDE902670093494600
:10807000CDE904AB7D4A47F2D773204625F059FA83
:1080800069A3D3E90023DFF8E8C1CDF81880CDE972
:10809000042344F2DA73CDE9079CCDE902670FF2BD
:1080A0009019D9E9008900932946724A41F63303B1
:1080B000204625F03EFADFF8C0E1704A6C496FF0C7
:1080C0003803069347F25073CDE9075ECDE90267A6
:1080D000CDE904890093204647F23D7325F029FA43
:1080E0004DA2D2E900126FF03003DFF884C1644E74
:1080F000069347F20313CDF81CC0CDE90212CDE977
:108100000489089600935F4A5B495F4D5F4F4EF2CA
:108110003303204625F00DFACDE904890FF2F0096A
:10812000D9E900896FF02C03DFF84CE106934CF29B
:108130004B33CDF81CE0CDE9028908950093314618
:10814000534A4EF6B933204625F0F3F936A3D3E966
:108150000023CDE90767CDE904236FF03D0647F61C
:10816000C403CDE90289009329464A4A069642F69D
:10817000D973204625F0DDF96FF03B03069324A365
:10818000D3E90023DFF81081CDE9022342F6C14391
:10819000CDE9075800933946CDE904AB3F4A404D3D
:1081A00048F68C73204625F0C4F919A3D3E90023BF
:1081B0002B490696CDE90223002046F6C533CDE9CA
:1081C000040100934146CDE90775364A46F6AC33C3
:1081D000204625F0AEF91C4B0FA2D2E90012CDE9E2
:1081E00007836FF03E0306934CF6BD63CDE90212A0
:1081F0000093CDE904AB2C4A4CF25F03294620469C
:1082000025F097F920460BB0BDE8F04F03F066BFAC
:108210003333333333330B40333333333333FB3F75
:108220000AD7A3703D0A0F40C3F5285C8FC21540E2
:10823000F6285C8FC2F51B4034200020E283050045
:10824000E98305000B840500E6800500C78305006F
:108250002D840500F08305004F840500128405007D
:108260000000F83F34840500718405005684050041
:108270009384050078840500B58405009A84050080
:10828000D7840500BC840500F98405001B85050022
:10829000DE840500008505003D850500228505007A
:1082A0005F85050044850500668505000000000027
:1082B0002DE9F04FADF2E45D02AF7960FB66D7F8CF
:1082C0002016B86207F5C063D3E9004507F5C3631C
:1082D000D3E900897A63002900F0F5800B4607F1A5
:1082E000B80601F1200C18685968324603C20833F9
:1082F00063451646F7D17022002107F1E0002DF00A
:10830000EFFA07F5AC70C7E93689C7E94089C7E9D4
:108310004A89C7E9548903F04DFFC7E95A45C7E9BF
:10832000644522462B4620462946FFF7A5F802461B
:108330000B4680468946FFF79FF807F5C163D3E9EE
:108340000023FFF799F86C4B0022FFF795F842469F
:1083500082468B464B4620462946FFF78DF807F5A7
:10836000C163D3E90023FFF787F8644B0022FFF7CE
:1083700083F80D4607F5C16104464B464246D1E9F4
:108380000001FFF779F870228046894607F5F07002
:1083900000212DF0A5FA07F51670C7E97A45C7E95F
:1083A0008445C7E98645C7E99045C7E976ABC7E983
:1083B00080ABC7E98A89C7E9948903F0FBFE07F51A
:1083C000367107F5AC7025F02AF97B6B4C499C009F
:1083D000002000239C427CD17B6B49491C0100207A
:1083E00000239C427ED1FB6E180106F0CFFCFB6E91
:1083F000C7F8A800DD00284606F0C8FCC7F89000C2
:10840000284606F0C3FCFB6EB8645B011846C7F84B
:10841000A03006F0BBFCC7F8B000D7F8A00006F00B
:10842000B5FCFB6EB86603FB03F4E400204606F0DF
:10843000ADFCC7F8AC00204606F0A8FCF867D7F8FA
:10844000A00006F0A3FCC7F8B400D7F8A00006F01F
:108450009DFCC7F8A400204606F098FCF862284668
:1084600006F094FCD7F8A830B867002B4AD1D7F8AB
:10847000A80006F0A5FCD7F8900006F0A1FCB86CA7
:1084800006F09EFCD7F8B00006F09AFCB86E06F035
:1084900097FCD7F8AC0006F093FCF86F06F090FC60
:1084A000D7F8B40006F08CFCD7F8A40006F088FCDE
:1084B000F86A06F085FCB86F06F082FC07F2DC571C
:1084C000BD46BDE8F08F202207F1B8002DF008FA74
:1084D00011E7D7F82426126802EBC302C2E90001B3
:1084E000013377E7D7F82426526802EBC302C2E9CA
:1084F0000001013375E700BF0000D03F0000E03FFE
:108500000000F87FD7F89030002BB0D0BB6C002B68
:10851000ADD0D7F8B030002BA9D0BB6E002BA6D0C1
:10852000D7F8AC30002BA2D0FB6F002B9FD0D7F830
:10853000B430002B9BD0D7F8A430002B97D0FB6A27
:10854000002B94D0BB6F002B91D00023FB64C7F8A5
:108550009430D7F894307A6B934288D0202200214F
:1085600007F5AB602DF0BCF907F5AB6407F5AC7609
:108570004FF00008F4E802AB07F1B803BB65C7F899
:108580009830B1460025D7F89810F1E80223C7F8D3
:108590009810F9E80201FEF76FFF02460B465046BD
:1085A0005946FEF7B3FD0135042D82468B46EAD1CC
:1085B00008F10408B8F1100F44E902AB06F12006F7
:1085C000D8D107F5AB650FCD07F1B8040FC495E816
:1085D0000F0084E80F0007F59B6207F1D80107F54B
:1085E000AC7025F094F807F5AB6107F5AC7025F099
:1085F00016F807F58B6207F59B6025F088F807F100
:10860000D80207F5EC7107F58B6024F0F4FFFA6CE3
:10861000BB6A7E6803EBC2081346FA6E1344FB6420
:10862000FA6CBB6A4FF0000B03EBC209C84540F07F
:10863000F280BBF1000F00F02482D7E92E34C7E9A5
:108640002034D7E93034C7E91834BB6CD7F8A860B8
:10865000C7F820D0083BFB63FD6B4FEA0B1906EB14
:108660000B1A3446D4E90023D7E92001FEF74CFD6C
:10867000D4E90223C7E92601D7E91801FEF744FD32
:10868000D7E92623C7E9220110461946FEF7F4FE72
:10869000D7E92223C7E9260110461946FEF7ECFE6A
:1086A00002460B46D7E92601FEF730FD24F0B0FD67
:1086B00010345445E5E90201D4D14FEA4B13D7F801
:1086C000B0003B631A4600212DF00AF9D7F8B080BC
:1086D000D6E90023D7E92001FEF716FDD6E90223EB
:1086E000C7E92601D7E91801FEF70EFDD7E92623D1
:1086F000C7E9220110461946FEF7BEFED7E922233C
:1087000004460D4610461946FEF7B6FE02460B46D5
:1087100020462946FEF7FAFC24F07AFD4EA3D3E961
:10872000002304460D46FFF719F910B14AA5D5E913
:10873000004522462B46D7E92601FEF7C7FF224611
:10874000C8E900012B46D7E92201FEF7BFFF10362A
:108750005645C8E9020108F12008B9D1BB6ED7F827
:10876000B0000422594624F0B4FF3A6BD7F8A400B5
:1087700000212DF0B5F8D7F8A430CDE900B30422DC
:10878000BB6E114607F1D8000BFB0BF824F057FF26
:108790004FEAC8020021D7F8AC002DF0A1F8D7F8B5
:1087A000AC30CDE900B30422D7F8A430D7F8B0003C
:1087B000594624F044FFD7F8AC500BF10103DB001D
:1087C000BB632C46002607F5C263D4E90001D3E958
:1087D0000023FEF79BFC0136BB6BB345C4E90001E7
:1087E0001C44F0D14FEA081006F0D0FA8246002867
:1087F00000F08680BB6B4FEA4B06A3F1080800240B
:1088000003464246184629462DF05CF80346434489
:108810009C4600222EE0F8E8024522462B462046E0
:108820002946FFF7C3F898B9D7F8A83003EB0B1126
:10883000D6E90023C1E90023D6E90223C1E90223D6
:10884000D7F8903003EBCB03C3E900450BF1010BE4
:108850001036EBE6AFF300808DEDB5A0F7C6B03E65
:10886000944208BFB4494FF0000018BF0021ECE863
:10887000020101320BEB02018E42F1D80134A34513
:1088800043444544BDD109F108037B620AEB090367
:108890003B660023C7F898A0C7F888A0C7F88030C7
:1088A000D7F88830D3E90034C7E910343B6C3B6714
:1088B0007B6C23F000437B67D7F88030FB65013386
:1088C000C7F88030D7F88830D7F88050FC6D03EBBC
:1088D0000906AB4500F2F98095A3D3E90023D7E957
:1088E0001C01FFF73BF8002800F00981504606F014
:1088F00067FAFB6FD7F8AC005A46594624F0E9FEF8
:108900003A6BD7F8B40000212CF0EAFFD7F8B43066
:10891000CDE900B35A46FB6FD7F8A400042124F038
:108920008EFEBB6FD7F89050A3F10806BB6BA3F186
:10893000080404EB0508F96BF1E90223F963F5E893
:108940000201FEF7E1FBA845E6E90201F3D1BB6FA6
:108950000025E318C7F898302C46D7F8B430BE6F1E
:1089600003EBC50A4FF000084FF00009F6E80223B8
:10897000FAE80201FEF780FD0B46024649464046F2
:10898000FEF7C4FBD7F89830B34280468946EDD154
:108990000B46B96D0246D1E90001FEF7B7FBBB6D8E
:1089A000E3E802010134042CBB655D44D5D107F531
:1089B00056758022002128462CF092FFCDE9004513
:1089C0002146D7F8B030D7F8B4005A4624F037FE25
:1089D0002C4607F5167807F576760025F4E802238D
:1089E000F8E80201FEF790FB0135102DE6E80201E0
:1089F000F4D107F59B64224607F1D80107F576709C
:108A000024F085FE07F5AB6107F5767024F007FECC
:108A100007F58B62204624F07AFED7F8A030D7F80D
:108A2000B400ADEB030D02AD2B465A46042124F0F1
:108A300050FE8022002120462CF052FF0421019498
:108A400000912B46D7F8B4005A4624F0F8FD07F5FC
:108A5000AB65002607F5C263D3E90023F4E8020101
:108A6000FEF70AFD0136102EE5E80201F2D107F10A
:108A7000D80207F5AB6107F58B6024F0BCFDD7F891
:108A800020D0D7F82436D7F894201B6807F1B80413
:108A900003EB421307F1D805224603CAAA42186025
:108AA0005960144603F10803F6D1D7F82436586804
:108AB000D7F89430802200EBC31007F1D8012CF0D6
:108AC00001FFD7F89430013341E533683B657368A3
:108AD00023F000437B65D7E91401D7E91C23FEF797
:108AE0005BFF50B9D7E91C23C7E91423D7E9142346
:108AF0000135C7E91C234E44EBE62C46F6E7FB6D37
:108B0000A3421BD0D7F8985009FB04A4D4E9002352
:108B1000D5E90001E5E802233B6E9D42E4E802014D
:108B2000F4D1D7F88830D3E9002309E0AFF300800F
:108B30009B2BA1869B84063D0000F03FD7E91023C4
:108B400037490020FEF7C2FDD7F8986004460D466D
:108B5000D6E9002320462946FEF78EFCE6E802010E
:108B60003B6E9E42F4D1FB6DDB00BB60544600259A
:108B7000FB6DAB422ED10135AB454C44F8D8D7F84C
:108B800088307A6A1344C7F88830D7F898304B4455
:108B9000C7F898303B6E4B443B66D7F880309B4516
:108BA0007FF47EAEBBF1000FFB6F0AEB080614BF2B
:108BB000454608250024314618462A462CF082FEF8
:108BC00001340346A34543444E44F4D8504606F0CE
:108BD000F7F895E6BB68E318D3E90023C7E9062355
:108BE00004EB0903FB60D7F898303B642646D6E9CE
:108BF0000023396CC7E90423F1E802233964D7E97B
:108C00000601FEF739FC0B460246D7E90401FEF7E0
:108C10007BFAE6E80201FB68B342E8D1ABE700BFAC
:108C20000000F03F00000000F0B5002285B01146C2
:108C300002AF40F6034008F08BFA044600285BD1EF
:108C400007F034FF21463A1D41F2030008F080FA94
:108C50000446002850D17A68C14DD168D1F801008E
:108C6000D1F8051005F1780303C3104606F094F916
:108C700021463A1D41F2010008F06AFA0446002834
:108C80003AD17868C3685A7885F870205A88A5F870
:108C900072201A7985F87120B3F80720A5F874209E
:108CA000B3F80530A5F8763006F076F921463A1D7E
:108CB00041F2020008F04CFA0446E8B9D7F804C0C3
:108CC000DCF80C2005F18006531C41321868596805
:108CD000344603C4083393422646F7D1604606F073
:108CE0005BF995F87C305B060AD49E4A9E480121C8
:108CF00027F08EFC6FF0120420460C37BD46F0BD05
:108D00003A1D002142F2030008F022FA044600282E
:108D1000F2D17A68954BD168D1F80100D1F80510ED
:108D200003C3104606F038F921463A1D42F202000C
:108D300008F00EFA04460028DED17E68F468B4F824
:108D400001309AB292B1E27882B1A5F80431E378A9
:108D5000032B06D0032200928348854A022125F086
:108D600086FFE278834811462CF0C4F9304606F0BD
:108D700013F995F87C6016F0200619D14FF0FF30FA
:108D80004FF0FF3107F0BCFE0446002800F09D8044
:108D900002210C3026F0F9F80123037046702146B9
:108DA000324640F66D4008F0D3F904460028A3D1BE
:108DB00095F89C301E0712D53A1D002142F21C0086
:108DC00008F0C6F90446002896D17868C368D3F83D
:108DD0000120D3F80530C5E9382306F0DDF895F811
:108DE000D8305C0610D53A1D002142F22A0008F066
:108DF000AFF9044600287FF47FAF7868C3685B78DA
:108E000085F8203106F0C8F84FF0FF304FF0FF3101
:108E100007F076FE0446002857D008210C3026F0D3
:108E2000B4F895F8D81011F0400F024640F2022332
:108E300008BF032388074CBF43F02C0043F00C000D
:108E40008B0695F8D93048BF40F0400013F0090F69
:108E500018BF40F40060CE0748BF40F0100000216A
:108E600027F000FC2146002242F2010008F070F9D0
:108E7000044600287FF440AF95F87C30B5F8041123
:108E8000980625D4C9B93A1D41F2050008F060F9E9
:108E9000044600287FF430AFB5F804317C684BB944
:108EA000E368B3F80120A5F804219A8831481146F7
:108EB0002CF020F9204606F06FF84FF0FF304FF00D
:108EC000FF3107F01DFE044660B96FF0680413E738
:108ED0000029F2D1284A2448012127F099FB6FF09C
:108EE000040409E708210C3026F04FF895F8D83033
:108EF000D907024629D421484FF0005127F0B2FB90
:108F00002146002240F6014008F022F904460028DC
:108F10007FF4F2AE01463A1D4FF6014008F018F911
:108F200080B3174A1048022127F072FB09F014F8A9
:108F3000044600287FF4E0AE0AF084FD04460028D1
:108F40007FF4DAAE07F0C8FED6E603A1D1E900014E
:108F5000D4E700BFAFF300809088000200800020BB
:108F6000D80000208E950500BC620500B0010020ED
:108F7000B2950500E0010020F89505001088000278
:108F80001B9605007B68DC68B4F80130032B96BFA4
:108F9000434A444952F823106E468AB002AA424816
:108FA000D3614FF400731384404BC2E9050142F8CA
:108FB000103F3F484FF4135127F044FBB4F8012011
:108FC000B4F80330022AB54649D1052B47D8394AAF
:108FD00052F823106E468AB002AA3748D3614FF484
:108FE00000731384314BC2E9050142F8103F4FF47E
:108FF00013512F4827F026FB637994F806C0D4F864
:109000000900032BB54698BF2C4AB4F8076094BFFB
:1090100052F8231023496C468CB002AADFF8A0E076
:10902000C2E9073C4FF400739385264BC2E905E182
:10903000C2E909604FF4735142F8103F1C4827F011
:1090400001FBA546786805F0A7FF3A1D00214FF601
:10905000024008F07DF8044618B11B4A62E7114946
:10906000B8E77868C368B3F80130A5F8C13005F0F7
:1090700093FF95F8C1305B077FF558AF3A1D214645
:109080004FF6034008F064F808B1104A4AE77868E0
:10909000C3685B7885F8C03005F07EFF46E700BF07
:1090A000546A0500E99305003F960500040000019D
:1090B000BC6205003C6A0500589605002C6A050054
:1090C00070960500070000019D960500C6960500F4
:1090D00038B51B4C9DF810E094F84CC01CF001050D
:1090E00024D163F3420C400194F83830A4F84210C4
:1090F0004FEACE0E0EF0180E00F0200040EA0E00EF
:1091000023F0380303430F4884F838309121A2FB41
:10911000000384F84CC001FB023107A3D3E900230C
:10912000FEF75AFC6064A064284638BD0C2528462A
:1091300038BD00BFAFF300808D49FD1A0700000065
:10914000A81A0020002AE78410B504469DF80800FC
:1091500062864FEA411CC00094F8281000F0180005
:109160000CF0200C4CEA000C0B4821F038014CEAC2
:10917000010CA3FB0002912184F828C001FB03210C
:1091800003A3D3E90023FEF727FC606310BD00BFF3
:109190008D49FD1A07000000002AE7840000000046
:1091A0002DE9F047044600F13B0190F84C0094F89B
:1091B0003830514DC0F3400060F386138CB084F812
:1091C000383010F00BFF94F83820B4F842304B4898
:1091D000246102F07902002784F838209121A3FB52
:1091E0000002C4E90277277001FB032140A3D3E901
:1091F0000023FEF7F1FBA26C414B651BA3FB053579
:1092000002F1090398428EBF19463A46014662644C
:109210006160064610F094FE6369C5F3871500F19E
:109220000907002B48D00DF12C08CDF820800694BA
:10923000B4F8423031484FF0000AA3FB0002CDF8E9
:109240000CA0912101FB0321636804932D4B07932C
:109250002D4B05934FF0020925A3D3E90023CDF848
:109260002C90FEF7B9FB104619464FF47A72002392
:10927000FEF7B2FB0235EDB22A46CDE901603B466E
:109280000321CDF800A0504610F008FD414611F032
:109290007DFB054660B994F84C3043F00103484625
:1092A00084F84C3018F0EEFF28460CB0BDE8F0878B
:1092B0000C200CB0BDE8F0870DF12C08CDE90A3385
:1092C000616843460AAA032000F0BAFD0028ACD129
:1092D0000B990E4806A3D3E90023A1FB0001FEF77A
:1092E0007BFB0A9B20F07F471F449EE7AFF3008083
:1092F0008D49FD1A07000000A81A0020002AE78403
:10930000CDCCCCCC45A00300B1C7030000CA9A3B2A
:109310002DE9F0418468A28C4FF6FF739A428AB01F
:1093200000F0CE800546204615F064FEAB7C012B94
:1093300000F01D81022B00F00F81002B00F0EF8068
:1093400094F83C81B8F1000F40F00A81A68DEB89BA
:10935000E78D0136B6B2002B40F0B5802B7C03F0D0
:109360000303012B00F0D680B4F86831002B00F025
:10937000B180B34240F230819B1BA4F86831B4F84D
:109380006C31002B00F0C980B34240F223819B1B5B
:109390009BB2062BA4F86C314FF000028CBF002367
:1093A0000123E285984694F83A2063F3820284F818
:1093B0003A2031460DF12702204615F0C9FB7430E2
:1093C00000F00281B4F866312BB1B34240F2E8807C
:1093D0009B1BA4F86631B4F862312BB1B34240F262
:1093E000D8809B1BA4F8623194F8B530E58D03F06A
:1093F0000101B8F1000F0AD1AF4200F0C68001357B
:10940000ADB241B9002D5BD04146404642E0013546
:10941000ADB200293DD094F8B53094F937206FF300
:109420000003002A84F8B530C0F2A78094F85A00EF
:10943000C0F3C00100F0070019F056FD94F85A205F
:1094400094F85B1002F003030933C2F34002DB001F
:10945000D34001F003020932C1F34001D200CA40F7
:10946000E18B01F23F110B44134403446A4A6B48F9
:109470000721E3FB0021104665A3D3E90023FEF793
:10948000ABFA616820F07F40814280F09880411AF9
:1094900060600020A28C246903950023604DCDF804
:1094A00010800332CDE9011006940093D2B201215D
:1094B0001846059510F00EFC10F0FD0F40F08E8060
:1094C0000AB0BDE8F081A4F868812B7C03F00303A7
:1094D000012B1FD0B4F86C31002B7FF455AFE28C18
:1094E000052A97BF013240F2E2434FF4FA7392B279
:1094F00003FB02F2B4F86A3142F2107101FB03235C
:10950000013BB3FBF2F39BB2A4F86C31002B7FF468
:109510003BAF02E00023A4F86C31002343E794F84A
:10952000723003F01803182B7FF40AAF218DB4F8C2
:1095300064218B1D9A42C4BF931F5B1AB4F860115B
:10954000CCBF9BB21346994253D0A4F86031A4F823
:109550006231A4F86621F3E64FF03D0884F83C81BF
:10956000414620460AB0BDE8F04113F091BE002309
:10957000A4F86631A4F86231E2E694F85B000121B8
:1095800000F0070019F0B2FC58E7002998D04546D2
:1095900041E70023A4F86231204615F04DFB23E794
:1095A00011F0C4F9014600B30023A4F86631A38C7E
:1095B000C3801B230371006811F08AF90BE7606018
:1095C000081A1CD0002165E79DF82710204613F0EB
:1095D0005FFE75E70821C4E73E21C2E711F0E8F914
:1095E00084423FF46DAF00DE6AE70123A4F86631E0
:1095F000F1E6B4F8661100297FF4A2AEA7E7002DCA
:10960000E0D1B8F1000FDDD15AE700BFAFF3008021
:109610008D49FD1A070000008C49FD1A00CA9A3BCB
:1096200031CB0300000000002DE9F04F8FB0B0F8FF
:1096300038610D930446B0F8FC3090F85A000B9155
:109640001E44C0F3C001BDF86830BDF86C70BDF8B1
:109650006080BDF86490D4F8F4A00C9300F007008B
:1096600019F042FCE58CB6B2A6EB070B052D1FFAEC
:109670008BFB40F2D38015FB0BF5B8F1050FADB2B3
:1096800040F2E24B40F2D480B4F85220B4F85030AB
:10969000134403F2D51303447B4A7C480721E3FBC0
:1096A00000214FF09613E36196231046238474A3A0
:1096B000D3E90023FEF790F9434620F07F4040F2C3
:1096C000E2420BFB05F102FB03FB4A1E5A44B2FBCC
:1096D000FBF293B20BFB03F39942606095B280F00A
:1096E000B3806A48591AA1FB000165A3D3E900239E
:1096F000FEF772F920F07F408244B4F8FC20B4F801
:109700003831BF1B3D44ADB213442B44A4F838316B
:10971000638D1A4494F837301544DB09658540F0B1
:10972000A1800D9B5948A3FB000155A3D3E9002359
:10973000FEF752F920F07F4501350C9BA4F86A3101
:1097400059462046A4F82680A4F8289015F02CFA53
:109750004F4B218D5B44881DB3FBFBF39AB29042C3
:10976000A4F8642104D2C1F57F41FA310A4492B2CF
:109770000B9BA4F8602113B10023A4F86C310221E3
:1097800001201BF05BF900220221064601200FF0A8
:1097900017F940494FF4C07220460FF0A1F8C21CDF
:1097A0003D4B0093D7B2019453463A460121002025
:1097B00010F024FB10F0FD0F5FD1344830A3D3E943
:1097C00000238BFB0001FEF707F908940694194665
:1097D00063680493314B0793314B05934FF6FE7347
:1097E00080460393104600234FF47A72FEF7F4F894
:1097F0000095CDE9018053463A460121002010F042
:109800004DFA10F0FD0F36D17EBB94F83A3143F09B
:10981000010384F83A310FB0BDE8F08F013515FB34
:109820000BF5B8F1050FADB24FF4FA7B3FF62CAF54
:109830004FF0961208F10103E261962222849BB256
:109840000A204FF4FA723CE71048C91AA1FB000144
:109850000BA3D3E90023FEF7BFF820F07F40AAEB6B
:10986000000A4AE700DE002567E7012202211046D0
:109870000FF0A6F8C9E700DEC6E700DE9DE700BFEF
:109880008D49FD1A070000008C49FD1A00CA9A3B59
:109890007FC3C901F81A0020F1CA0300D9CA030026
:1098A00025160400000000002DE9F04F8BB0CDE933
:1098B000050104930020BDF860309DF85470BDF898
:1098C00058A0BDF85CB00393164613F065F8002865
:1098D00000F04C8107F001080446404610F06EFB92
:1098E000B8F1000F70D1636904F110020792002BE8
:1098F00071D0D4F81490D9F8005099F84A00C0F308
:10990000C00100F0070019F0EFFAB9F84210B9F8F9
:109910004020B9F80E3000F23F100A4403441344CB
:10992000B148B24A0721E3FB00211046ACA3D3E9BA
:109930000023FEF751F820F07F406860304618F0B1
:10994000BFFC94F839306FF3410384F83930FF23BA
:1099500084F83A3066B3BB1E012B40F20B8194F8B9
:109960004C10049D67F3420184F84C1094F83910B0
:1099700065F30001DDE9052384F8391014990968BD
:10998000A16114998988A1830399A18404F110002D
:1099900000960021FFF7D8FBA06419F025FC0028F1
:1099A00040F0F3802046FFF7FBFB0BB0BDE8F08FE3
:1099B00018F06AFF0028CED014990498324618F0A7
:1099C0005BFD84F83A00C6E706210EF09DFF0028F3
:1099D00089D11220E9E710F063FF0790002800F01A
:1099E000F18013F025F90546002800F0E8801430D6
:1099F0000FF046F905F11009002840F0E980032135
:109A000005F1180019F096F9E86EA5F828B04FF6A0
:109A1000FF72A5F826A0AA84002800F0D58005F1E1
:109A2000600205F15C010EF07BFFB5F85A2022F4CC
:109A3000EF6222F0070242F48C7242F00102A5F8B4
:109A40005A2095F872204FF0000B22F0070285F89B
:109A5000722001212846C5F86CB0A5F870B013F04B
:109A60000BFFA5F82AB0C5F82EB005F1320017F0AB
:109A700003FF95F8372060F3050285F837200121B0
:109A80000DF1270019F056F99DF82710584A039B4D
:109A900085F839B0A2FB0102D20802EB4202A1EB29
:109AA000820195F83720A5F838B102F03F0285F819
:109AB000372095F83A20A5F86CB1053122F007025D
:109AC00040F2E24085F8381085F83A20298D494A5D
:109AD000A5F86A3100FB0AFA06205244A5F868018D
:109AE00001F1060CB2FBFAF290B26045A5F866B13E
:109AF000A5F862B1A5F8640102DD0638401A80B20B
:109B0000A5F86001284614F0E7FF5146284615F0F5
:109B10004BF84FF0000A079BC5F8403185F83CA18F
:109B200013F0F6FA95F8742160F3020285F87421B7
:109B300013F0F4FA95F8742160F3C50285F87421E6
:109B400095F83A216AF3410285F83A2105F1B80007
:109B500014F0E2FD4FF09612C5E90722C4F8149004
:109B6000C5E902AA85F800A02D61C6E60C200BB05D
:109B7000BDE8F08F002018F0BDFB94F8393043F0B9
:109B80000203474684F83930E9E66569EB6D2BBB83
:109B900005F1500105F14C000EF0C6FEE0B12E6853
:109BA000E865D6F84001A8B110F080FE304613F009
:109BB00045F80023032063610BB0BDE8F08F0798E0
:109BC00010F074FE0720F0E605F16400E86626E771
:109BD00000DE14E700DEE7E700DEE0E700DED7E7BF
:109BE0008D49FD1A0700000000CA9A3B8C49FD1AF6
:109BF000ABAAAAAA7FC3C9012DE9F04F04468DB0D4
:109C0000077F238D406AADF82C30E3070E461546DA
:109C1000C7F3C0110A90C7F3401700F1F980002381
:109C2000A383B37C707C13F001031CBFD4F81E30F7
:109C3000C4F82B3004F12B0214BF638CC4F82B3012
:109C4000FF28938004F1250804F11F0200F0C6806C
:109C500004F11E0118F068F8A37FBDF82C200A98C3
:109C6000C4F825000233A377A8F804203368D3F89A
:109C700000A0EB8A63862B8BA386BAF82430E38698
:109C800019F006FB84F83800D5F80090484612F029
:109C9000DBFF0021A882E080484614F099FFD6F847
:109CA00004802068214610F007FEAB8AA8F8063031
:109CB0001C23D8F8004088F80430002F40F09C8026
:109CC00088F81C704146204610F002FE95F84A00C4
:109CD000B5F816B0F46840F2E243C0F3C00100F0FA
:109CE000070003FB0BFB19F0FFF80022A4EB0008B0
:109CF000022101200EF064FE504612F025FE4A4C6F
:109D0000A8FB044846A3D3E9002305464146204664
:109D1000FDF762FECDF804A0B3684449009120F03D
:109D20007F47AA1C363BD2B23B440121002010F0F1
:109D300065F810F0FD0F6FD14FF0000A01221146B7
:109D40005346CDF800A0504610F016F8484612F0E1
:109D50007BFF0546344832A3D3E90023ABFB000167
:109D6000FDF73AFE1946324BB6680893314B06931D
:109D700040F27233CDF81C900993D9F80430834631
:109D8000CDE904A3104600234FF47A72FDF724FEB8
:109D9000294B0722A7FB0331CDE902B002FB0711D3
:109DA000E01A68EB01014FF47A720023FDF714FE0C
:109DB0000335363EEDB2CDE9007033462A46012127
:109DC00050460FF017FF10F0FD0F23D101220221A2
:109DD00010460DB0BDE8F04F0EF0F2BD0023BDF807
:109DE0002CC00A98C4F82530A8F80430A177C4F82C
:109DF0001F00A2F804C039E795F8273043F040036C
:109E000085F82730281D17F08DFD0127288557E795
:109E100000DE04E700DED9E700DE8DE7AFF3008067
:109E20008D49FD1A0700000000CA9A3B191604006C
:109E30001D160400251604008D49FD1A00000000BF
:109E40002DE9F04F8FB0FF2709930B1D08930023D6
:109E5000CDE90533DFF878A18DF82F700546164659
:109E60000C9398463C460DF134090DF1300B02235A
:109E70000D93CDE901A9CDF800B033460DF12F02C5
:109E8000294600200FF0FEFF022813D00D9BBBB91E
:109E9000FF2C18D03368434515D0002F00F0878081
:109EA000013FFF24FFB28DF82F40E0E72946002054
:109EB00010F02EF80D9B022BF8D00D9B002BE7D055
:109EC00000DEFF2CE6D19DF82F30FF2B49D0032B6D
:109ED000CDD1002012F0C0FE0028C8D090F9373054
:109EE000002B24DA436807939DF82F30032B14D0FE
:109EF000FF2CDDF8308008D00599404610F022F89C
:109F0000089B069A134498422DD8079B9DF82F4032
:109F1000CDE90583D6F80080A9E7002012F09CFE69
:109F20000028E5D090F93730002BE1DA9FE790F870
:109F30005A00C0F3C00100F0070018F0D5FF254A11
:109F4000254B00F5935005300721E0FB0231184600
:109F50001BA3D3E90023FDF73FFD20F07F430793C8
:109F6000C2E7FF2C27D0069A1C480721A2FB00035A
:109F700001FB023114A3D3E90023FDF72DFD0446B4
:109F8000B8B9059B1548013BA3FB0002072101FB63
:109F900003210DA3D3E90023FDF71EFD099A00F16B
:109FA0001E032344002013600FB0BDE8F08F00DED5
:109FB00076E73E34E5E76FF009000FB0BDE8F08FBB
:109FC0008D49FD1A0700000000CA9A3B00000000FE
:109FD0002918040000CA9A3B8C49FD1A8D49FD1AC4
:109FE0002DE9F043C668476873683D491A68D0F8A0
:109FF0000090A7F57423A3F510738B4283B08046BD
:10A0000007D907F1E87707F5D43709F1FF3907F5E4
:10A01000A57773685168DD8ACDF8049006F11003C6
:10A0200001AA0220FFF70CFF00284ED10199A1EBF5
:10A0300009031B0237D4084649460FF083FF034645
:10A0400028480721A3FB000201FB032122A3D3E937
:10A050000023FDF7C1FC34690444002C346109DBA2
:10A0600040F2E24305FB03F3A3422FD2E41AA342DA
:10A07000FCD33461D8F800301A48A3EB0903A3FBE2
:10A080000002072101FB032113A3D3E90023FDF7FD
:10A09000A3FC154BA3FB0737A0EB9740204430618E
:10A0A00003B0BDE8F08348460FF04CFF03460D486F
:10A0B0000721A3FB000201FB032107A3D3E900232F
:10A0C000FDF78AFC3469241AC7E73469002CD1D122
:10A0D00003B0BDE8F08300BF00CA9A3B0000000057
:10A0E000BFBDF07F8D49FD1A83DE1B4300000000D9
:10A0F0002DE9F041C46894F92830002B8CB0C0F2EF
:10A10000D480636805460E46002B40F0C38094F867
:10A1100028306FF3000384F828301AF007F8002085
:10A120001AF028F8002108461AF016F80820002234
:10A1300025211AF053F8012010F0DAFC002800F075
:10A14000BB801C301AF074F8754B0B930BA81AF0F7
:10A1500031F8744940F25B601AF0E0F894F8280096
:10A16000C0F34100253018F08BFE6F48214619F0EE
:10A17000B1FF94F828309B0603D46368002B00F0ED
:10A18000868096201AF018FA00231A4619461846B7
:10A190001AF02AF918F078FB002840D194F82830FA
:10A1A00013F0180F53D1D4F800802F68404618F0F0
:10A1B00053FE07446A6807F1090100201AF008FA03
:10A1C0001AF0DCFA1AF080F9204612F0C9FB811C63
:10A1D000C9B240463A4618F041FE8046002871D187
:10A1E00016B9636B002B3BD163687BB12A684F4B78
:10A1F000A2616A68E26104F1180199606462012257
:10A20000022100200EF010FC002859D1204618F041
:10A21000F1FD002852D100200CB0BDE8F08194F887
:10A220002800C0F3C00018F021F807460DF12B00FC
:10A2300018F04CFA79788046BA1C38781AF068F928
:10A240009DF82B00002241461AF05EFBABE701208F
:10A2500018F00CF84178821C00781AF059F9A2E73E
:10A26000334A0792334A059240F2F3120093089260
:10A27000CDE90366CDE9016606943B4631460122ED
:10A280000FF00CFD10F0FD0FAED000DEACE71AF0C1
:10A290000BF97FE7636893F82A30D90705D4636820
:10A2A00093F82A309A077FF532AF2348214619F0F8
:10A2B00011FF19F0DFFFAEE700DE42E700DEAAE79C
:10A2C00000DEA3E71D4A1E491E4840F2E51323F0B5
:10A2D0009EFC1D4B0721A8FB030301FB08310EA3C5
:10A2E000D3E90023FDF778FB18490246184823F00C
:10A2F0008EFC002585F31188BFF36F8F032318466A
:10A3000002DF1448214619F0E5FE19F0B3FF6FF0A3
:10A310008B0081E7AFF3008000CA9A3B0000000089
:10A32000D6BE898E55555500F9A30200AC05002014
:10A33000953204009D320400A52F0400C47105006D
:10A3400010720500607005008D49FD1A407205000D
:10A35000147205004933040038B5044618F0B2FF02
:10A3600094F8283094F82820C3F34103013303F014
:10A370000303032B08BF002363F3420214BF03F15E
:10A380002500252084F8282018F07AFD63680BB199
:10A3900023694BB90FF0D4FDC11C00201AF08CF9D1
:10A3A000BDE838401AF0EAB91AF0B4F905460FF0E2
:10A3B000C7FDC11C00201AF07FF91AF0DFF91AF06E
:10A3C000A9F929460FF0BEFD094A03460721A0FB63
:10A3D000020201FB032104A3D3E90023FDF7FCFAE9
:10A3E00023691B1A236138BD00CA9A3B0000000094
:10A3F0008D49FD1A000000002DE9F0478AB004469F
:10A4000019F078FFC0B250B918F084FDCA4821464F
:10A4100019F060FE0AB0BDE8F04719F02BBF19F043
:10A4200089FF05461AF0A8F807461AF0AFF88146EA
:10A430001AF0C4FA06461AF0A3FA82461AF05EF839
:10A44000EDB280461AF03EF818F064FD002DDDD024
:10A45000012010F04DFB0546002800F0B58117F0F3
:10A46000FF07F6B240F0ED80002E40F0E4804FF0A0
:10A47000FF093A464B463146204619F0ABF8002812
:10A48000C4D02A7F616800238DF823305FFA88F7F3
:10A4900002F00F03002900F0F680616891F82A109D
:10A4A000880700F1F080072BB0D094F82810090736
:10A4B00040F12C81002B40F0CE806B7F063B1F2BA0
:10A4C000A4D8042010F014FB00289FD01AF05EF9E5
:10A4D000636B074643B9638E40F2712202FB03F3BC
:10A4E000B0FBF3F203FB120723685A68934B072172
:10A4F000A2FB030301FB02318DA3D3E90023FDF787
:10A500006BFA6FF4427C00EB0C031F3B62EB020220
:10A51000BB4272F10002FFF479AF19F0C5FF484663
:10A52000636818F0B9F894F829309907804640F12B
:10A53000D981002800F0D6818246012719F008FF52
:10A54000CDE9027A09AB049305F11E0301932B7F39
:10A55000C3F38013014607460093002201232046DF
:10A5600019F054F8384619F069FE19F0B9FE0028C0
:10A5700040F0D5817248214619F0ACFD626892F82E
:10A580002A3043F0010382F82A3094F8283043F04F
:10A59000800384F8283010F0C5FA172202714FF6B4
:10A5A000FF72C28095F81CC082463B46CCF3401C2B
:10A5B00000F11C0207F1200E1D6858689968DF68D9
:10A5C000D7601033734515605060916002F110023E
:10A5D000F2D11B6813609AF81C30CAF808406CF37B
:10A5E00045138AF81C301AF095F8002ECAF81000AE
:10A5F000099BCAF8143008BF4FF0FF098AF8199078
:10A6000094F8293013F0020303D0B8F1000318BF07
:10A6100001239AF81A2063F300028AF81A2010F036
:10A6200081FACAF80C00DAF8000051460AB0BDE819
:10A63000F04710F0A1BA5FFA8AF018F075F8814679
:10A6400017E794F828005FFA89F1C0F3C00018F00A
:10A6500047F881460DE7012B74D16A7F0C2A7FF4FD
:10A66000D5AE2A7FCDF80090194600230193D20978
:10A6700005F12403204618F035FF00287FF421AFB0
:10A680002B7F03F00F03002B5CD16B7F052B7FF634
:10A69000BDAE252B3FF6BAAE94F8282002F0210279
:10A6A000202A09D16268002A00F0B080052B7FF6CD
:10A6B000ADAE252B3FF6AAAE63682BB12B7F03F01E
:10A6C0000F03072B7FF4A2AE03209DF8238010F028
:10A6D0000FFA054600283FF499AE10F023FA4FF622
:10A6E000FF73EB8005232B71EFB97F20AB7E2876BB
:10A6F000002E08BF4FF0FF0968F34103286885F872
:10A700001990AB76294610F037FA7FE6B9F1FF0FC2
:10A710008DF82490C2F380185AD094F82A209145DD
:10A720003FF4C8AEAFE719F0D9FEC0B2DEE700BF14
:10A7300000CA9A3B00000000613304008D49FD1AF5
:10A740006D340400062BA0D04521D94011F0010141
:10A750003CD1012B10D16B7F0C2B7FF457AE2A7F9D
:10A76000CDF800900DF123030193D20905F12403E4
:10A77000204618F0B7FE10BB2B7F03F00F03042B0D
:10A780007FF444AE6B7F063B1F2B3FF63FAE94F841
:10A790002830DB077FF53AAE19F0DAFD2B7F02781F
:10A7A000C3F38013B3EBD21F7FF430AE0830062220
:10A7B00005F11E012BF09CF800287FF427AE6B7F7B
:10A7C000002B7FF479AF21E600DE48E66B7F6DE772
:10A7D00005F11E0A09AA5146404617F0F9FF002864
:10A7E0003FF44EAF94F8293003F0010343457FF462
:10A7F00047AF5146062204F108002BF079F80028F3
:10A800007FF43EAF2B7F03F00F0353E696200792B1
:10A8100019F0D2FE079A104619F09EFD032010F0A1
:10A8200067F9804600283FF4F1AD10F07BF94FF650
:10A83000FF73A8F80630052388F80430002F58D19C
:10A840007F23002E88F8183014BF4B46FF2388F86A
:10A85000193098F81A30D8F800006FF3410388F8DF
:10A860001A30414610F088F919F072FD06460322AD
:10A87000337862F3030333702B7F3278C3F3801392
:10A8800063F3C7120C2332704846737017F004FF4D
:10A8900094F82920920730D578B33178324641F0C8
:10A8A000400102F8021B0168C6F8021083889380F9
:10A8B000D5F81E30B3606B8CB381304619F0BEFC06
:10A8C00019F00EFD68BB19F059FF94F828301648AE
:10A8D00043F00103214684F828300AB0BDE8F04770
:10A8E00019F0F8BB94F8287004F12B0AC7F380170D
:10A8F00024E619F0F3FDC3B2A3E794F828303278C8
:10A90000C3F3801363F38612334603F8022BD4F8A3
:10A910002B20C6F80220B4F82F209A80C8E700DE6A
:10A9200028E600DECFE700BF75330400000000001A
:10A93000F0B5C468A28A4FF6FF739A4285B000F062
:10A94000AE80054618F03EFF2B89628B208CA383D6
:10A950001A4492B2104494F82730E28380B2411C2A
:10A9600021845E064FF00001618304F1220167D467
:10A9700003F03F000B4694F82810009004F12900E2
:10A9800016F088FF0646204603A919F05BF8039BE2
:10A9900094F862101A7861F3C3021A70039A94F85B
:10A9A00062301178C3F3400363F38201117019F030
:10A9B000BDFB002019F0DEFB201D19F0FBFB2389F5
:10A9C000A17A40F25B6043EA014119F0A7FC3046EE
:10A9D00018F056FA0399204619F008F8214636482F
:10A9E00019F078FBE08919F0E7FD94F84B0000F0CE
:10A9F000070019F0B1FC27682E68384618F02CFAC9
:10AA0000064406F109016A68012019F0E1FD19F018
:10AA1000B5FEA18A03313246C9B2384618F01EFA93
:10AA20000646A8B1AB7A13F0020517D000252348DB
:10AA3000214619F04FFB19F01DFC284605B0F0BD6A
:10AA40000A4603F03F03218D16F070FF06469AE791
:10AA5000204618F0CFF948BB0025EEE7184A1949FF
:10AA600019484FF4807323F0D2F818480721A6FB49
:10AA7000000301FB06310EA3D3E90023FCF7ACFF72
:10AA800013490246134823F0C2F885F31188BFF337
:10AA90006F8F0323184602DF6FF08B05C7E70E4860
:10AAA000214619F017FB19F0E5FBD5E700DED3E7E7
:10AAB00000CA9A3B0000000049390400812F0400BD
:10AAC0005472050010720500607005008D49FD1A72
:10AAD000A472050014720500A52F040000000000F8
:10AAE0002DE9F04F93B0CDE90023DDE9007B2BF099
:10AAF000004C0D465CEA0701044611D1031885F4A9
:10AB00000022524199426F4B934180F0AA80DDE9C7
:10AB1000002320462946FCF7F9FA04460D4618E0C2
:10AB2000694A25F000439342A846F0D8864615D1DD
:10AB30000028ECD19C45EAD824D1002FE7D1634A04
:10AB4000934240F29180BBF1000FC0F21185DDE924
:10AB500000452046294613B0BDE8F08F944502D841
:10AB600010D1002F76D008F1404808F5801858EA37
:10AB70000E08CCD1FA198BF400235B419045514A61
:10AB80009A41C2E7B8F1000F24DA514A944525D919
:10AB90000226002F4ED0204625F00041BEF1000FC6
:10ABA00040F0AB82484A934240F07B82BBF1000FF9
:10ABB00005DA02460B4600204649FCF787FDB8F14E
:10ABC000000F04460D46C4DA012EC2D105F1004340
:10ABD0001D46BEE7002F64D00026DCE73B4A9445C3
:10ABE00003D8002FF8D13E4624E04FEA2C52A2F2BF
:10ABF000FF32142A0CDDC2F1340227FA02F606FAFB
:10AC000002F2BA42EDD106F00106C6F10206C0E733
:10AC1000002F40F03482C2F114024CFA02F606FA18
:10AC200002F262452B4A28D1944528D006F001064D
:10AC3000C6F10206BBF1804FADD1274A9342AAD894
:10AC4000264A93424CD922462B4620462946FCF7F9
:10AC500013FC62E703F1404202F5801202437FF4E5
:10AC60006EAF1C4D002474E7BBF1000F80F28084AE
:10AC7000DDE9004303F100456BE79445B3D1BBF137
:10AC8000000FBFF666AF0022002320462946FCF7DE
:10AC90005BFE78B14FEAD87013B0BDE8F04F22F0F8
:10ACA000D7BB0C4A9445EAD0BBF1804F40F0DD8120
:10ACB0003E46C2E722462B4606490020FCF706FD29
:10ACC0002BE700BF0000F0FF0000F07FFFFFEF3F29
:10ACD000FFFF3F430000F03FFFFFEF5F0000501E0B
:10ACE0005EEA030E204625F0004100F002824FEAA2
:10ACF000D872013A0992324300F0E481CA4A08EA64
:10AD00000202002A00F0D58200241A15A2F2FF32B6
:10AD100022440E92C54AC3F3130343F07F55934276
:10AD200045F4401508DDC24A934240F3CA820E9BA7
:10AD300001330E93A5F580154FF0000A4FEACA03C0
:10AD40000F93BC4B03EBCA03D3E900342946CDE98A
:10AD50000A341A462346CDE90C01FCF7D5F9DDE9A2
:10AD60000C2380468946DDE90A01FCF7CFF902464B
:10AD70000B460020B049FCF7A9FCCDE910010246C2
:10AD80000B4640464946FCF777FBCDE90601DDE975
:10AD90000634CDE9043400230493DDE904346D1056
:10ADA00045F0005505F50025CDE90234002205EBFC
:10ADB0008A4314461D462046DDE902232946FCF756
:10ADC0005BFB02460B4640464946FCF79DF9DDE930
:10ADD0000A238046894620462946FCF795F9024613
:10ADE0000B46DDE90C01FCF78FF9DDE90223FCF7E6
:10ADF00043FB02460B4640464946FCF785F9DDE930
:10AE00001023FCF739FBDDE90623CDE90A011046E2
:10AE10001946FCF731FB72A3D3E90023804689462B
:10AE2000FCF72AFB70A3D3E90023FCF76FF9424635
:10AE30004B46FCF721FB6EA3D3E90023FCF766F930
:10AE400042464B46FCF718FB6BA3D3E90023FCF703
:10AE50005DF942464B46FCF70FFB69A3D3E900239B
:10AE6000FCF754F942464B46FCF706FB66A3D3E9D0
:10AE70000023FCF74BF9424604460D464B4640463C
:10AE80004946FCF7F9FA02460B4620462946FCF7EC
:10AE9000F3FADDE9022304460D46DDE90601FCF77D
:10AEA00035F9DDE90A23FCF7E7FA22462B46FCF7E1
:10AEB0002DF9DDE9022304460D4610461946FCF73C
:10AEC000DBFA02460B46CDE90C235C4B0022FCF773
:10AED0001DF922462B46FCF719F9DDE90223002073
:10AEE00080468946FCF7C8FA544BCDE9020100229E
:10AEF00040464946FCF708F9DDE90C23FCF704F964
:10AF000002460B4620462946FCF7FEF8DDE90623FB
:10AF1000FCF7B2FADDE90A2304460D4640464946ED
:10AF2000FCF7AAFA02460B4620462946FCF7EEF843
:10AF300004460D4602460B46DDE90201FCF7E6F841
:10AF400033A3D3E90023002080468946FCF794FA16
:10AF5000DDE90223CDE9060140464946FCF7D4F875
:10AF600002460B4620462946FCF7CEF82AA3D3E931
:10AF70000023FCF781FA2AA3D3E9002304460D46F7
:10AF800040464946FCF778FA02460B4620462946D9
:10AF9000FCF7BCF80F9A2A4B1344D3E90023FCF7C3
:10AFA000B5F8CDE902010E98FCF7FCF90F9A254B94
:10AFB0001344D3E900890446DDE902230D46DDE9A7
:10AFC0000601FCF7A3F842464B46FCF79FF82246E1
:10AFD0002B46FCF79BF8002022462B4634E000BFAE
:10AFE000EF4E454A287ECA3F65DBC9934A86CD3F6E
:10AFF00001411DA96074D13F4D268F515555D53F54
:10B00000FFAB6FDBB66DDB3F033333333333E33FEB
:10B01000000000E009C7EE3FFD033ADC09C7EE3F40
:10B02000F5015B14E02F3EBE0000F07F8E98030018
:10B0300079B60B00386705000000F03F00000840BB
:10B040001867050028670500CDE90401FCF75CF8E6
:10B0500042464B46FCF758F8DDE90623FCF754F866
:10B0600002460B46DDE90201D6E0BB4A934515D105
:10B070002046294613B0BDE8F04F22F0C9B8BEF112
:10B08000000F1FD1B54A9342204625F0004107D159
:10B09000BBF1000FBFF641AD76468AE53E467AE544
:10B0A0007646AF4A934217D1BBF1000F05DA02464C
:10B0B0000B460020AA49FCF709FBB8F1000FBFF6C8
:10B0C0002CAD36B92046294613B0BDE8F04F22F02A
:10B0D000CBB904460D4677E57BB9BBF1000F08DA22
:10B0E000B8F1000F03DA731E58425841D4E51846F0
:10B0F000D2E5012E7FF411AD2BE54FEAD87202F1B3
:10B10000FF3ECDF824E05EEA060EDBD0BCF1844FB2
:10B110007FF6F4AD934CA445934C13D9A34208D8C1
:10B12000BBF1000F08DA002013B0BDE8F04F22F0A9
:10B1300083B9BBF1000FF6DC002013B0BDE8F04F7F
:10B140002AF02CBDA34205D2BBF1000F02EA060093
:10B15000F3DAE9E7824CA34205D9BBF1000F02EA1A
:10B160000600E1DCE9E77E4B0022FBF7CDFF70A390
:10B17000D3E9002304460D46FCF77EF96EA3D3E91C
:10B1800000238046894620462946FCF775F9774B0F
:10B19000CDE90201002220462946FCF76DF902465E
:10B1A0000B4667A1D1E90001FBF7AEFF22462B4613
:10B1B000FCF762F902460B4600206749FBF7A4FF43
:10B1C0002246CDE904012B4620462946FCF754F9D6
:10B1D00002460B46DDE90401FCF74EF95AA3D3E918
:10B1E0000023FCF749F902460B46DDE90201FBF7B3
:10B1F0008BFF02460B4604460D4640464946FBF788
:10B2000085FF002042464B46CDE90401FBF77CFF59
:10B2100002460B4620462946FBF776FF099B013E76
:10B220001E4314BF4E4B524B00220026CDE9022391
:10B2300004460D465B46DDE900013246FBF764FF3C
:10B24000DDE90423FCF718F95F46DDE900238B46AE
:10B25000824629462046FCF70FF902460B46504627
:10B260005946FBF753FF3246CDE900013B46DDE985
:10B270000401FCF701F90B46024680468946DDE9E8
:10B280000001FBF743FF3B4B994204460D468B46BA
:10B290003BDD01F13F4303F5E003034314D0DDE957
:10B2A000020100220023FCF759FB801B18BF01207C
:10B2B0003AE7314B0022FCF7DFF86FF034040B461D
:10B2C00023E54FF0010A39E521A3D3E90023DDE9A5
:10B2D0000001FBF71BFF424606460F464B46204641
:10B2E0002946FBF711FF02460B4630463946FCF76C
:10B2F00053FB002850D0DDE9020100220023FCF7B7
:10B300002DFB003818BF01200EE71C4C21F0004334
:10B31000A34244D91A4B0B44034333D0DDE9020165
:10B3200000220023FCF71AFB003818BF012004E7B5
:10B33000000000604715F73F44DF5DF80BAE543E58
:10B34000555555555555D53FFE822B654715F73F49
:10B35000FE822B654715973C0000E03F0000F07F20
:10B360000000F03F0000F043FFFFEF3F0000D03F40
:10B370000000F0BFFFFF8F4000004043FFCB904034
:10B3800000346F3F42464B46FBF7BEFEDDE900232B
:10B39000FCF7F8FA0028C1D140F2094304E0864ADC
:10B3A000934240F2E1801B15A3F2FE334FF4801A62
:10B3B0004AFA03FADA44CAF30A518048A1F2FF318B
:10B3C000084100EA0A03CAF3130AC1F114014AF45E
:10B3D000801A4AFA01FABBF1000F404649464FF085
:10B3E0000002B8BFCAF1000AFBF78EFE804689460C
:10B3F000DDE9002340464946FBF788FE00245EA3B2
:10B40000D3E9002320460D46FCF736F842460646AF
:10B410000F464B4620462946FBF776FE02460B4672
:10B42000DDE90001FBF770FE55A3D3E90023FCF72B
:10B4300023F855A3D3E900238046894620462946B0
:10B44000FCF71AF802460B4640464946FBF75EFEFB
:10B4500004460D4602460B4630463946FBF756FE7B
:10B4600032463B4680468946FBF74EFE02460B4677
:10B4700020462946FBF748FE424606460F464B4605
:10B4800040464946FBF7F8FF41A3D3E900230446B1
:10B490000D46FBF7F1FF40A3D3E90023FBF734FE91
:10B4A00022462B46FBF7E8FF3DA3D3E90023FBF739
:10B4B0002DFE22462B46FBF7DFFF3BA3D3E90023FB
:10B4C000FBF722FE22462B46FBF7D6FF38A3D3E933
:10B4D0000023FBF71BFE22462B46FBF7CDFF02465F
:10B4E0000B4640464946FBF70FFE04460D46024612
:10B4F0000B4640464946FBF7BFFF0022CDE900015D
:10B500004FF0804320462946FBF7FEFD02460B46DE
:10B51000DDE90001FCF7DAF8324604460D463B4609
:10B5200040464946FBF7A8FF32463B46FBF7EEFD97
:10B5300002460B4620462946FBF7E6FD42464B46AF
:10B54000FBF7E2FD02460B4600201D49FBF7DCFD40
:10B5500001EB0A54B4F5801F08DA524621F010FFBF
:10B56000DDE90223FFF773BBB24641E72146F7E767
:10B5700000240025FFF7EDBA00000000432EE63F4F
:10B58000EF39FAFE422EE63F396CA80C615C20BE12
:10B59000D0A4BE726937663EF16BD2C541BDBB3ED9
:10B5A0002CDE25AF6A56113F93BDBE166CC1663FB7
:10B5B0003E5555555555C53F0000E03F0000F0FF92
:10B5C0000000F03F0849094808B506F08FFF014622
:10B5D00020B1BDE80840064822F00CBBBDE8084099
:10B5E000044822F007BB00BF59BA0200A87E05003C
:10B5F000107F0500337F050037B5054626F06DFD49
:10B600000446284626F069FD0346033CA4B2044ADA
:10B6100004480094032123F02AFB03B030BD00BF8F
:10B62000457F050044630500F7B504468368DB6B7E
:10B630002BBBA368DB6A3BBB194D1A4EA3681B6981
:10B6400003B301220DF1070120469847012819D1C3
:10B650009DF807202B680A2A01D00D2A19D1002B4A
:10B66000ECDD0027F7540F490F480022002329F092
:10B6700049FC10B10D4822F0BDFA2F60DEE7984773
:10B680000028D6D103B0F0BD204698470028D3D17A
:10B69000F8E7B3F5FF7FDEBF591CF2542960CDE710
:10B6A000402000209D4A0020600800207B7F05008C
:10B6B00070B503788AB004460E4607AD032B20D838
:10B6C000DFE803F002191B1D11492846FCF7A8F911
:10B6D000059563780493A3780393E3780293237921
:10B6E000019363790093A3790A4A1E21304620F022
:10B6F0006FFA0AB070BD0849E7E70849E5E708496D
:10B70000E3E7084A0A21284620F062FAE0E700BF92
:10B71000F27F050014800500F97F05000080050018
:10B720000A80050002AB050010B50378092B0C4612
:10B730000CD14278082A09D1054940682AF0D8F886
:10B74000034601200BB92070184610BD0120FCE70C
:10B750003780050010B50848084C4FF0FF324FF015
:10B76000FF331FF091F8204623F080FC18B96420C5
:10B7700021F088FEF7E710BD2009002024200020DA
:10B7800010B5054C4FF0FF324FF0FF3320461FF04D
:10B790007BF8FCF7A5FAF5E7D808002080B5764CD1
:10B7A000A368ADF5A66D2BB11B6C1BB173490022CC
:10B7B00020469847A3681B6A0BB16F4898477048AA
:10B7C000704D714E714F22F015FA4FF0FF334FF06C
:10B7D000FF324CA928461EF0BFFE4FF400724CA960
:10B7E000CCA82AF095F80AAC00234CA8C4E9003391
:10B7F000FCF71EF900940146022332464CA801F0E2
:10B800006BFD011E01DBCB0703D4384622F0F2F9B1
:10B81000DBE7D4F800805E494046FCF7F7F810BB40
:10B820005C4BDFF874811C68DFF87091642021F0B4
:10B8300029FE002CC9D0E38F0293A38F019304F15A
:10B8400020030093424623464FF480710CA820F059
:10B85000BFF948460CA922F0CDF91420D4F8B44021
:10B8600021F010FEE5E74E494046FCF7CFF80146CF
:10B87000002833D10CAC2C2220462AF031F8CCA879
:10B88000FCF7D6F8474A009401460B23CCA801F0F8
:10B8900023FD002899DB139B0893129B07934FF01D
:10B8A00064089DF95030169890FBF8F00693FBF76A
:10B8B00079FDCDE90401159890FBF8F0FBF772FDD6
:10B8C000BDF84090BDF844300093CDE902014B46ED
:10B8D000DDE90E122F4821F02CFE76E73249404672
:10B8E000FCF794F8E0B9CDE90C000E90CCA8FCF779
:10B8F0009FF80CAC01462D4A00940323CCA801F01C
:10B90000EBFC0028FFF661AF0E99224821F055FEAE
:10B91000014600283FF459AF1E4821F036FE54E797
:10B9200023494046FCF772F800287FF44EAF646864
:10B9300020492046FCF76AF860B9BFF35B8F1E4BC5
:10B94000012253E8001F43E800200028F9D1BFF38B
:10B950005B8F3AE719492046FCF758F800287FF436
:10B9600034AFBFF35B8F144B53E8002F43E8000163
:10B970000029ECD0F8E700BF085E050029B60200F8
:10B980004080050060080020906805005E8005008A
:10B990007480050034200020818005002F9405006C
:10B9A000E7800500E0670500F2800500B06705004C
:10B9B00000810500098105005C0200200E81050060
:10B9C00008B5054829F0BBF920B9BDE8084003488F
:10B9D00022F010B9FFF7E2FE085E050016810500AF
:10B9E000F0B589B000AF0D46044625F0CFF93946D1
:10B9F000FFF75EFE6E468AB06A46124BD561C2E919
:10BA000005374FF4007313840F4B42F8103F0F4D6E
:10BA10000F4800234FF4135102F094F82B689C4216
:10BA2000B5460BD1204607F0B5F900232B60094A33
:10BA30000748032123F008F9FFF7C4FD2437BD466A
:10BA4000F0BD00BF2D810500040000012020002072
:10BA5000446305004E8105002DE9F0471C4690B077
:10BA6000414B1D6800AF82468846002D59D13F4B9F
:10BA70003F491B688B4258D1012A01D9042A50D171
:10BA80003C490025FA1D2046FD7104F02BFBFB7993
:10BA9000002B46D007F1200421465046FFF708FE50
:10BAA0006E468AB06A46344BC2F81C804FF4007967
:10BAB000DFF8C880A2F82090C2E9053442F8108F60
:10BAC0002F482B464FF4135102F03CF8B54606F0D0
:10BAD0005DFD054628BB2B4B0FCB07F1100C8CE806
:10BAE0000F00294A4FF0C873C7E9022361461E4B75
:10BAF00007F10802504607F06BFE90B18AB06A4623
:10BB0000224BD061C2E90534A2F8209042F8108F90
:10BB10001B482B464FF4115102F014F8B546FFF7BD
:10BB200051FD4037BD46BDE8F0870C318B42F8D15E
:10BB300007F120042146FFF7BBFD6E468AB06A4636
:10BB4000134BC2F81C80C2E905344FF40073138410
:10BB50000A4B42F8103F0A482B464FF4135101F0AC
:10BB6000F1FFB546DDE700BF2020002024200020A3
:10BB70009867050029B702006181050004000001F3
:10BB800044630500A06305001800280084810500B7
:10BB9000A28105002DE9F04192B000AF0D460446A8
:10BBA00024F0C9FFDFF8808107F12806C8F80000FB
:10BBB000204625F0EBF83146FFF77AFD05B36C46D9
:10BBC0008AB06A46594BD561C2E905364FF4007315
:10BBD0001384574B42F8103F002356484FF411513D
:10BBE00001F0B0FFA546D8F8000007F0D3F8002315
:10BBF000C8F80030FFF7E6FC4837BD46BDE8F081E5
:10BC0000E84688B06A464C4BC2E905364FF40073EB
:10BC100093834A4B42F8103F46482B464FF4E65177
:10BC200001F090FF464B7B61C54607F114012046A9
:10BC300025F0B2F8034620B1424A3E48012123F0E4
:10BC40000CF8414920460AF039FA034620B13F4A30
:10BC50003848022123F001F83D4B3D4603F1100C1A
:10BC60003A46186859682E4603C608336345354678
:10BC7000F7D11B783370374B07F1100C1E46154671
:10BC800003CD6545186059602A4603F10803F6D1D3
:10BC90002A7831491A70314B4B604FF6FF73CB81D4
:10BCA0000125002320460B740E600D810AF032FA44
:10BCB000034628B12A4A1F48294622F0CEFF9BE7B7
:10BCC000284B07F1140203F110061868596815464D
:10BCD00003C50833B3422A46F7D1234A1B782B7099
:10BCE00007F1240C07F1140316461D4603CD6545E4
:10BCF000106051602B4602F10802F6D12B781B49E7
:10BD000013701B4B4B604FF6FF73CB810125032350
:10BD100020460B740E600D810AF0FCF903460028E2
:10BD20003FF46AAF134AC6E720200020BD8105001A
:10BD30000400000144630500DE81050003000001EA
:10BD4000FB009042EC810500580200200F820500A4
:10BD5000B06305008B4A00200C200020E5BD0200E6
:10BD600034820500C16305007A4A0020E01F0020EC
:10BD7000B9BD0200558205000B4621B1034A0448B3
:10BD8000012122F06ABFFFF737BC00BF71820500B6
:10BD90004463050010B50446054A0648022122F016
:10BDA00053FF20461422BDE81040002129F098BD21
:10BDB0008E8205004463050008B5104619B9FFF7E7
:10BDC000E9FF002008BD084626F035F90346034A7E
:10BDD0000348032122F041FFF3E700BFAE820500D4
:10BDE000446305002DE9F04106468CB015460C462B
:10BDF00069B9554A5548022122F026FF14222146EE
:10BE0000284629F06DFD00200CB0BDE8F081504DB2
:10BE1000504BD5F800C002AA03F1100896461868E6
:10BE20005968174603C7083343453A46F7D11B788C
:10BE30003B707146604624F0F9FA474F90BBA7F17A
:10BE4000100307AA186859689446ACE80300083341
:10BE5000BB426246F6D11B788CF800303F4B07AFEF
:10BE60000DF12C0E9C463A4603CA72451860596083
:10BE7000174603F10803F6D112781A70238A344961
:10BE8000C5F800C001332B81304603232B740AF020
:10BE900041F903460028B6D0314A2C48012122F04E
:10BEA000DCFEB0E7D5F800E0A7F1100307AA186898
:10BEB00059689446ACE803000833BB426246F6D1A9
:10BEC0001B788CF8003007A9704624F0AFFA254F94
:10BED0008046E0B9204626F0AEF842F60213ADF8EF
:10BEE00006308DF804801D4B019A1A602B60238A5E
:10BEF000388102332B811649042330462B740AF013
:10BF000009F9034600283FF47EAF174AC5E7174AF0
:10BF10000E48032122F098FE154B3B600125238A31
:10BF20007B8139463046BD810AF022FE034620B1AE
:10BF300010F1780F01D00F4AAFE70F4A03480321F1
:10BF400022F082FE5FE700BFE68205004463050041
:10BF50000C200020B0630500E26305008B4A00203E
:10BF60000E830500F41F00202F8305004C8305007D
:10BF70007DBF0200748305008E8305002DE9F04328
:10BF8000CFB00E4602AF1D4614465AB93548364A60
:10BF9000022122F059FE3481204607F59A77BD46EA
:10BFA000BDE8F08307336A46DB08A2EBC3039D4676
:10BFB00002AE21462A4630463C1D29F083FC05236B
:10BFC0002A4A00942946304601F086F9BFF35B8F78
:10BFD000274B1B68BFF35B8F43BB264BD4F8049001
:10BFE0002569BB61D4E9026829F028FB4FF47A7215
:10BFF000A0FB020302FB0131C00B40EA41404FF4B9
:10C000008073C7E90709C7E90986FD621A480093EA
:10C0100007F1180207F13003032101F0DFFA0028CD
:10C0200004DB164807F1300121F0E4FD6168144893
:10C0300021F0C3FA054608B90120AEE74FF0FF3200
:10C040004FF0FF330F481EF0EBFA94F9101028461A
:10C0500021F0C3FA0B481EF05BFB0B481EF0DAFB25
:10C06000EAE700BF44630500B183050048670500A7
:10C070005C020020BF830500B06805002C87050026
:10C08000342000204C080020D808002010B50020E3
:10C0900005F048F90446FBF773FF2CB10948214627
:10C0A00021F0A8FD002010BD074A0848032122F016
:10C0B000CBFD0749074822F0CDFF07481EF0AAFB39
:10C0C000F0E700BF81850500A185050044630500F8
:10C0D0009867050024200020200900202DE9F04F5A
:10C0E00004468BB081682448244D254E1FF05EFD28
:10C0F000244B0593244B0493244B0393244B02932A
:10C10000244B0193244B254A254900932548264B6F
:10C110001FF04CFD254926481FF048FD246814B93E
:10C120000BB0BDE8F08F94F85110A38FE78F94F90E
:10C1300050C0D4E91089D4E912AB04F12002B1B1A6
:10C1400004F1510194F8710098B104F17100CDE946
:10C150000710CDE904AB2146CDE90289CDF818C01E
:10C16000009730461FF022FDD4F8B440D7E72946A7
:10C17000E8E72846EBE700BF6B860500648605000C
:10C1800030870500B9860500BF860500C486050016
:10C190002A86050028860500CF850500BF85050095
:10C1A0008486050089860500C6850500CC860500C5
:10C1B0002A87050010B5782204460021083029F0AE
:10C1C0008FFB054B0022C4E90023C4E90A23C4E91C
:10C1D0001423C4E91E2310BD0000F03F2DE9F04FE9
:10C1E00091B08407009302F004030293C2F3C203E8
:10C1F00003F10103DDF86880039205460E460593BE
:10C2000040F0BA81041D30B1072909D86FF01B0036
:10C2100011B0BDE8F08F01F007063444C6F10806FE
:10C22000009B4FF00009591E4FF0040A4FF0FF33F6
:10C230000193CDF810904F46CB4653460DB1009A6E
:10C2400022600598002800F3E8809848009A82420E
:10C2500003D397488242C0F0E080039AA4EB050E16
:10C2600092074FEA9E0000F103810F2F00F2B18088
:10C27000002D00F0058107F140020DEB020C019A40
:10C280000CF8200C0CF8102C049801300490E7E016
:10C290007A285DD84B280ED8472859D829282DD878
:10C2A000252852D054D820287AD02338D0F1000B3A
:10C2B0004BEB000B74E04C382E2849D8DFE800F037
:10C2C0007048484848484848484848484B484848C3
:10C2D000484848484859484B4B595959704B6D4844
:10C2E0007048184B184848827F4B48484B487F009D
:10C2F00000204FF0000B4FF0040A38E02A38C0B29B
:10C30000012202FA00F010EA0E0F49D110F0625C2F
:10C310002FD110EA020B43D06046013C5444B4FBD9
:10C32000FAF40AFB04F4002D61D0A3EB050CA4443D
:10C33000B4453FF66BAF002868D1042B47D158F8BD
:10C34000043B2360043404232AE0019A013A019259
:10C350004FF0000B24E011F8010C6C2834D111F8D7
:10C36000023C00206C2B8346C5D14FF0080A53468F
:10C37000D3E708F1070828F007080734F8E802AB0C
:10C3800024F0070435B106982044B0423FF63EAF92
:10C39000C4E900AB08344FF0000B4FF0080A5346D5
:10C3A00011F8010F002878D0BBF1000F7FF470AFB7
:10C3B0002528F5D1019B013301934FF0010B4FF07C
:10C3C000040AECE7584694E700208346A5E7082BCB
:10C3D00002D06FF015001BE708F1070828F00708E6
:10C3E000F8E80223C4E9002308340823D8E768B931
:10C3F000042B02D108F10408A4E7082BE9D108F1C5
:10C40000070828F0070808F10808EDE7059A013A3F
:10C41000059258F8042B009210E7039A900720D554
:10C42000A4EB050E4FEA9E004FF0010CBEF5007F15
:10C43000CFD20F2FCDD8F5B107F140020DEB020E90
:10C44000C0B2019A0EF8200C0EF8102CBCF1000FAF
:10C450003FF41AAF60F07F000EF8200C09F10109DB
:10C460000137C5F10802043406924FF6DA7E97E7E9
:10C470004FF0000CDAE7BCF1000F01D00136EFE716
:10C48000029802360028EBD10098CDE90631FBF77F
:10C49000CFFADDE906310644E2E7631BB3F5806FAE
:10C4A00097D23DB9A6F10804E018B1E6F85C0500A2
:10C4B000B0B30500029A28609B082B709DF81030DD
:10C4C000C2B1EB7085F80290B9F1000F05D008A851
:10C4D0000022C5F1010C97420ED1C5F101030DF107
:10C4E00020084FF0000A01930DF1300B574512D18F
:10C4F000601B8DE66B70E5E710F8013B190608D567
:10C500000CEB040EB64503F07F033FF67FAE04F854
:10C51000013B0132DFE7B9F1000F03D098F90020A9
:10C52000002A17DB029BD3B11AF80B2004F8012B69
:10C530000022019B18191044B0423FF667AE98F8EC
:10C54000000004F8010B00990392204629F0BAF983
:10C55000039A14440AF1010A08F10108C6E798F8A1
:10C56000002055F822300093029B45F822300098B5
:10C57000FBF75EFA421CDCE76FF00D0048E600BFF7
:10C580002DE9F04F97B000AF90F802A0D7F880B037
:10C590003B62CBF3C0030446FA62BB61894641B9F2
:10C5A000457800780AEB800020444D4517D8A0EB71
:10C5B0000409E378FB61BAF1000F02D01BF0010F10
:10C5C00016D1FB6953BBFB6A1BB13A6A4946204648
:10C5D00098474D4628465C37BD46BDE8F08F461C5F
:10C5E0003046FBF725FA0130304409F10109DCE758
:10C5F000237862687A62FA6A9900796104EB8301B0
:10C60000002A40F000814D460E4601EB0A094FF02A
:10C6100000084E454CD101EB0A0610E01BF0020F5A
:10C62000D1D023789A007A6162687A62FA6A04EB60
:10C630008301002A77D14D4601EB0A0690461BF094
:10C64000050F0CBF02230123FB62FB6906EB430AC3
:10C650000BF00203BB625645BCD016F8021B16F85D
:10C66000013C54F82390994B994502D3984B994536
:10C6700036D3BB69002B40D0786A21F092FA0028AB
:10C680003BD0E9468AB06A46924B53617B6AC2E965
:10C6900006314FF4007313848F4B42F8103F8F48DC
:10C6A00000234FF4125101F04DFA023DCD46D2E77E
:10C6B00016F8013BF96254F82300FBF7B9F9D7F8F3
:10C6C0008430F96A01304BB1D7F8883098453EBFC5
:10C6D000D7F8843023F8180008F10108054498E7DA
:10C6E000BB6923B1786A21F05CFA0028C9D11BF03C
:10C6F000010F05D1FB6AED1AADE7BB6A002BAAD08A
:10C700004846FBF795F9D7F8843053B1D7F888300D
:10C7100098453FBFD7F88420431C22F8183008F111
:10C720000108054497E7BAF1000F72D01BF0040628
:10C7300072D0D046002607F1480052463B61B962EC
:10C7400029F0C0F8B96A3B6901EB0A02BA62FA69DA
:10C75000F9695200FA60BA6A02EB41023A610BF0E1
:10C760000202BA603A69B96A8A4257D162787A623B
:10C770001BF0020F32440CBF4FEA580100211BF09E
:10C78000010FD2B240F09F801BF0040F14BF40464F
:10C790000020BB616270A070E1703A6A7969FB6A3F
:10C7A00020469847051EFFF615AFBB6923707B6ACC
:10C7B0006370FB69E37041463A6AFB6A84F802A041
:10C7C00007F148009847B0F10008C0F2BB807B69D0
:10C7D0003A6AA9EB0A01C91AFB68C91AD7E90A0320
:10C7E00098470028C0F2B080A84408EB00054FF03D
:10C7F000000B07F1380AB34572D300213A6AFB6A8D
:10C8000008469847E6E656464FF0000807F138001C
:10C8100093E75646D04697E7B04695E7BA6A12F8CE
:10C82000021BBA6212F8015C284A54F825009042B3
:10C8300002D3274A90421ED3BA6932B1786A7B602C
:10C8400021F0AFF97B6800288CD1BA6802BB08F1EF
:10C85000280207F1300C08F10100944407F1580256
:10C8600052FA80F008F102080CF8101C5FFA88F800
:10C8700000F8105C76E7BA693AB1786A7B6021F01B
:10C8800090F97B6800287FF46DAF1BF0010F09D091
:10C8900006F1280207F13000711C161806F8205C1A
:10C8A000CEB25FE71BF0040F3FF45CAF08F1280243
:10C8B00007F1300008F1010102EB000808F8105CF4
:10C8C0005FFA81F84EE7002063E700BFF85C0500DF
:10C8D000B0B305006587050004000001F46205009F
:10C8E0001BF80A3087F8373054F82390D7F8843093
:10C8F0002BB3D7F888309B4521D2D7F8843033F852
:10C900001B803A6AFB6A012107F13700984700282B
:10C910001ADB0544B8F1000F06D14846FBF788F84A
:10C9200000F101081FFA88F83A6AFB6A4146484656
:10C930009847002808DB05440BF1010B5BE74FF03B
:10C940000008DEE7454645E6054643E6014B18602C
:10C95000704700BF6002002080B505460E461746AE
:10C9600098461EF061FD034629F0BCF9DFF81890E7
:10C97000044649F80030424630463946A84754F844
:10C98000090001F0FBFE00BF080000002DE9F047A0
:10C99000058B04462807904611D4022905F00705A7
:10C9A00040F0CC80204621F0C4FB78B10138218BC7
:10C9B000042811D8DFE800F0C2106D859500012928
:10C9C0000CBF45F0100545F02005258388F311883C
:10C9D000BFF36F8FBDE8F08701F0070AAA4500F0AA
:10C9E000A5800027B9463E46A368002B00F0BC8016
:10C9F00041F00801218388F31188BFF36F8FA1688C
:10CA0000002900F0BA800D68002900F0B680D1F846
:10CA10000480334652462046C047002D76D02B680E
:10CA200029461D46F0E701F007035A1F012A1BD8CB
:10CA3000002221F00701062B276889B2C4E90022F1
:10CA400009D13B4603E0628B013262831B68002BF5
:10CA5000F9D141F002012183204621F06AFB002830
:10CA60007AD041F0200176E0042B0AD121F00701B1
:10CA700089B22183204621F05CFB10B141F02001F6
:10CA80002183218B01F0070AAA454FD00027B94620
:10CA9000AAE7236921F0070141F00601062DD3F82A
:10CAA000009021832DD1B9F1000F3FD041F0080152
:10CAB000218388F31188BFF36F8F3A492046C84716
:10CAC00029E021F00701236941F0040189B2042D16
:10CAD000D3F804902183E6D000273E464FF0040AA5
