:020000022000DC
:10700000009D0020E1E90200CDF40400CDE902007A
:10701000CDE90200CDE90200CDE902000000000048
:10702000000000000000000000000000A9EA0200CB
:10703000CDE902000000000045EA0200CDE90200AF
:1070400079EC0200D12F040079EC020079EC020007
:1070500079EC020079EC020079EC020079EC020094
:1070600079EC020079EC020079EC020079EC020084
:1070700079EC020079EC020079EC020079EC020074
:1070800079EC020079EC020079EC020079EC020064
:1070900079EC020079EC020079EC020079EC020054
:1070A00079EC020079EC020079EC020079EC020044
:1070B00079EC020079EC020079EC020079EC020034
:1070C00079EC020079EC020079EC020079EC020024
:1070D00079EC020079EC020079EC020079EC020014
:1070E00079EC020079EC020079EC020079EC020004
:1070F00079EC020079EC020079EC020079EC0200F4
:1071000081F0004102E000BF83F0004330B54FEA58
:1071100041044FEA430594EA050F08BF90EA020FC5
:107120001FBF54EA000C55EA020C7FEA645C7FEA58
:10713000655C00F0E2804FEA5454D4EB5555B8BF7B
:107140006D420CDD2C4480EA020281EA030382EAEC
:10715000000083EA010180EA020281EA0303362D7E
:1071600088BF30BD11F0004F4FEA01314FF4801C51
:107170004CEA113102D0404261EB410113F0004F63
:107180004FEA03334CEA133302D0524263EB43031A
:1071900094EA050F00F0A780A4F10104D5F1200EB8
:1071A0000DDB02FA0EFC22FA05F2801841F1000113
:1071B00003FA0EF2801843FA05F359410EE0A5F1E7
:1071C00020050EF1200E012A03FA0EFC28BF4CF018
:1071D000020C43FA05F3C01851EBE37101F00045CE
:1071E00007D54FF0000EDCF1000C7EEB00006EEBDB
:1071F0000101B1F5801F1BD3B1F5001F0CD3490865
:107200005FEA30004FEA3C0C04F101044FEA4452BB
:1072100012F5800F80F09A80BCF1004F08BF5FEA42
:10722000500C50F1000041EB045141EA050130BD22
:107230005FEA4C0C404141EB0101013C28BFB1F534
:10724000801FE9D291F0000F04BF01460020B1FA7F
:1072500081F308BF2033A3F10B03B3F120020CDA52
:107260000C3208DD02F1140CC2F10C0201FA0CF030
:1072700021FA02F10CE002F11402D8BFC2F1200C95
:1072800001FA02F120FA0CFCDCBF41EA0C0190404B
:10729000E41AA2BF01EB0451294330BD6FEA040494
:1072A0001F3C1CDA0C340EDC04F11404C4F120027F
:1072B00020FA04F001FA02F340EA030021FA04F391
:1072C00045EA030130BDC4F10C04C4F1200220FAE8
:1072D00002F001FA04F340EA0300294630BD21FA26
:1072E00004F0294630BD94F0000F83F4801306BFEC
:1072F00081F480110134013D4EE77FEA645C18BFE0
:107300007FEA655C29D094EA050F08BF90EA020F76
:1073100005D054EA000C04BF1946104630BD91EA6E
:10732000030F1EBF0021002030BD5FEA545C05D171
:107330004000494128BF41F0004130BD14F58004B0
:107340003CBF01F5801130BD01F0004545F0FE4124
:1073500041F470014FF0000030BD7FEA645C1ABF59
:10736000194610467FEA655C1CBF0B46024650EA90
:10737000013406BF52EA033591EA030F41F40021BC
:1073800030BD00BF90F0000F04BF0021704730B542
:107390004FF4806404F132044FF000054FF0000117
:1073A00050E700BF90F0000F04BF0021704730B5D8
:1073B0004FF4806404F1320410F0004548BF4042AD
:1073C0004FF000013EE700BF42004FEAE2014FEA02
:1073D00031014FEA02701FBF12F07F4393F07F4FDD
:1073E00081F06051704732F07F4208BF704793F0E0
:1073F0007F4F04BF41F40021704730B54FF46074F3
:1074000001F0004521F000411CE700BF50EA0102F5
:1074100008BF704730B54FF000050AE050EA01029E
:1074200008BF704730B511F0004502D5404261EB0E
:1074300041014FF4806404F132045FEA915C3FF44F
:10744000D8AE4FF003025FEADC0C18BF03325FEAEC
:10745000DC0C18BF033202EBDC02C2F1200300FA9D
:1074600003FC20FA02F001FA03FE40EA0E0021FAC2
:1074700002F11444BDE600BF70B54FF0FF0C4CF4B0
:10748000E06C1CEA11541DBF1CEA135594EA0C0F62
:1074900095EA0C0F00F0DEF82C4481EA030621EA9D
:1074A0004C5123EA4C5350EA013518BF52EA0335D8
:1074B00041F4801143F4801338D0A0FB02CE4FF08A
:1074C0000005E1FB02E506F00042E0FB03E54FF0BA
:1074D0000006E1FB03569CF0000F18BF4EF0010EB2
:1074E000A4F1FF04B6F5007F64F5407404D25FEAAE
:1074F0004E0E6D4146EB060642EAC62141EA555161
:107500004FEAC52040EA5E504FEACE2EB4F1FD0CA2
:1075100088BFBCF5E06F1ED8BEF1004F08BF5FEA20
:10752000500E50F1000041EB045170BD06F00046D2
:1075300046EA010140EA020081EA0301B4EB5C047F
:10754000C2BFD4EB0C0541EA045170BD41F4801177
:107550004FF0000E013C00F3AB8014F1360FDEBF9C
:10756000002001F0004170BDC4F10004203C35DA78
:107570000C341BDC04F11404C4F1200500FA05F3FB
:1075800020FA04F001FA05F240EA020001F000429C
:1075900021F0004110EBD37021FA04F642EB060112
:1075A0005EEA430E08BF20EAD37070BDC4F10C043C
:1075B000C4F1200500FA04F320FA05F001FA04F200
:1075C00040EA020001F0004110EBD37041F10001EC
:1075D0005EEA430E08BF20EAD37070BDC4F12005F7
:1075E00000FA05F24EEA020E20FA04F301FA05F25F
:1075F00043EA020321FA04F001F0004121FA04F207
:1076000020EA020000EBD3705EEA430E08BF20EAD6
:10761000D37070BD94F0000F0FD101F00046400010
:1076200041EB010111F4801F08BF013CF7D041EA92
:10763000060195F0000F18BF704703F00046520096
:1076400043EB030313F4801F08BF013DF7D043EA67
:107650000603704794EA0C0F0CEA135518BF95EA1D
:107660000C0F0CD050EA410618BF52EA4306D1D1A4
:1076700081EA030101F000414FF0000070BD50EAC3
:10768000410606BF1046194652EA430619D094EA4D
:107690000C0F02D150EA013613D195EA0C0F05D137
:1076A00052EA03361CBF104619460AD181EA03018B
:1076B00001F0004141F0FE4141F470014FF0000043
:1076C00070BD41F0FE4141F4780170BD70B54FF0DE
:1076D000FF0C4CF4E06C1CEA11541DBF1CEA13555E
:1076E00094EA0C0F95EA0C0F00F0A7F8A4EB050440
:1076F00081EA030E52EA03354FEA013100F0888037
:107700004FEA03334FF0805545EA131343EA1263FF
:107710004FEA022245EA111545EA10654FEA0026B4
:107720000EF000419D4208BF964244F1FD0404F56D
:10773000407402D25B084FEA3202B61A65EB0305C9
:107740005B084FEA32024FF480104FF4002CB6EB86
:10775000020E75EB030E22BFB61A754640EA0C0006
:107760005B084FEA3202B6EB020E75EB030E22BF46
:10777000B61A754640EA5C005B084FEA3202B6EB87
:10778000020E75EB030E22BFB61A754640EA9C0046
:107790005B084FEA3202B6EB020E75EB030E22BF16
:1077A000B61A754640EADC0055EA060E18D04FEAD4
:1077B000051545EA16754FEA06164FEAC30343EA74
:1077C00052734FEAC2025FEA1C1CC0D111F4801F41
:1077D0000BD141EA00014FF000004FF0004CB6E73A
:1077E00011F4801F04BF01430020B4F1FD0C88BFD9
:1077F000BCF5E06F3FF6AFAEB5EB030C04BFB6EBE4
:10780000020C5FEA500C50F1000041EB045170BDD6
:107810000EF0004E4EEA113114EB5C04C2BFD4EB03
:107820000C0541EA045170BD41F480114FF0000E87
:10783000013C90E645EA060E8DE60CEA135594EA03
:107840000C0F08BF95EA0C0F3FF43BAF94EA0C0F06
:107850000AD150EA01347FF434AF95EA0C0F7FF47B
:1078600025AF104619462CE795EA0C0F06D152EACF
:1078700003353FF4FDAE1046194622E750EA4106B3
:1078800018BF52EA43067FF4C5AE50EA41047FF4C4
:107890000DAF52EA43057FF4EBAE12E74FF0FF3C29
:1078A00006E000BF4FF0010C02E000BF4FF0010CFA
:1078B0004DF804CD4FEA410C7FEA6C5C4FEA430C73
:1078C00018BF7FEA6C5C1BD001B050EA410C0CBFC2
:1078D00052EA430C91EA030F02BF90EA020F002024
:1078E000704710F1000F91EA030F58BF994208BF8B
:1078F00090422CBFD8176FEAE37040F00100704748
:107900004FEA410C7FEA6C5C02D150EA013C07D19E
:107910004FEA430C7FEA6C5CD6D152EA033CD3D0E9
:107920005DF8040B704700BF8446104662468C46E3
:107930001946634600E000BF01B5FFF7B7FF002816
:1079400048BF10F1000F01BD4DF808EDFFF7F4FF3F
:107950000CBF012000205DF808FB00BF4DF808EDCA
:10796000FFF7EAFF34BF012000205DF808FB00BFED
:107970004DF808EDFFF7E0FF94BF012000205DF80F
:1079800008FB00BF4DF808EDFFF7CEFF94BF0120C4
:1079900000205DF808FB00BF4DF808EDFFF7C4FFBD
:1079A00034BF012000205DF808FB00BF4FEA410C06
:1079B0007FEA6C5C02D150EA013C0AD14FEA430CE9
:1079C0007FEA6C5C02D152EA033C02D14FF0000026
:1079D00070474FF00100704753B94AB9002908BFFA
:1079E00000281CBF4FF0FF314FF0FF3000F00CB803
:1079F000ADF1080C6DE904CE00F022F8DDF804E0EA
:107A0000DDE9022304B07047704700BF10F8012B76
:107A100011F8013B012A28BF9A42F7D0D01A7047CB
:107A2000034611F8012B03F8012B002AF9D1704706
:107A3000034613F8012B002AFBD1181A01387047AE
:107A40002DE9F04786468C460846089E1546744642
:107A50001946002B40F0C2808542B2FA82F245D925
:107A60004AB1C2F1200300FA02FC2EFA03F395405A
:107A700043EA0C0C94404FEA154EA8B2BCFBFEF84A
:107A8000230C0EFB18CC08FB00F943EA0C43994584
:107A900028D9EB1808F1FF3704D2994502D9A8F18B
:107AA00002072B44A3EB0903A4B2B3FBFEFC0EFBBD
:107AB0001C330CFB00F044EA0344A04214D92C19F7
:107AC0000CF1FF3304D2A04202D9ACF102032C44E2
:107AD000241A43EA07401EB1D44000233460736087
:107AE000BDE8F0874746DDE76346F1E792BB431BFD
:107AF00001214FEA154EAFB2B3FBFEFC200C0EFB8A
:107B00001C330CFB07F840EA0343984562D9EB1895
:107B10000CF1FF3004D2984502D9ACF102002B449D
:107B2000A3EB0803A4B2B3FBFEFC0EFB1C330CFB5F
:107B300007F744EA0344A7424ED92C190CF1FF334E
:107B400004D2A74202D9ACF102032C44E41B43EA5D
:107B50000040C0E7C2F1200320FA03F195409040B5
:107B60002EFA03F303434FEA154EAFB2B1FBFEFC0E
:107B70000EFB1C10190C0CFB07F841EA004188456C
:107B800004FA02F422D969180CF1FF3004D28845B6
:107B900002D9ACF102002944A1EB08019BB2B1FB70
:107BA000FEFC0EFB1C110CFB07F743EA01439F424E
:107BB0000ED9EB180CF1FF3104D29F4202D9ACF17F
:107BC00002012B44DB1B41EA004192E76046E3E7F8
:107BD0006146F7E76046A3E76346B7E7834206D905
:107BE00016B9002108467BE7C6E900E0F9E7B3FAD9
:107BF00083F78FB9834201D3724508D8BEEB0204E4
:107C000060EB030301209C461EB9002168E738465B
:107C1000FAE7C6E9004CF8E7C7F1200CBB4022FAAE
:107C20000CF41C432EFA0CF120FA0CF3B84001437B
:107C30004FEA14490EFA07F5B3FBF9F81FFA84FE70
:107C400009FB18300B0C08FB0EFA43EA00439A4577
:107C500002FA07F240D9E31808F1FF3004D29A453E
:107C600002D9A8F102002344A3EB0A0389B2B3FBB3
:107C7000F9F809FB183308FB0EFE41EA03418E4573
:107C80002CD9611808F1FF3304D28E4502D9A8F12E
:107C90000203214443EA0040A0FB0298A1EB0E013D
:107CA0004145CE46434602D306D14D4504D2B9EBF9
:107CB000020E68EB04030138002EA6D0B5EB0E02CD
:107CC00061EB030101FA0CFC22FA07F34CEA03030F
:107CD000F940C6E9003198E74046C5E74346D9E791
:107CE0002DE9F04FADF5177D4FF0FF324FF0FF3328
:107CF000914823F029F8914BD3F8009000224B468D
:107D0000002B40F0BC80102A28BF10228C4D8D4FD4
:107D1000DFF834A20B92984600240026B9F1000F38
:107D200003D0B8F1100F40F0B1800DF1300A874B4D
:107D3000CAF800300EAC864BCAF80430202200216D
:107D400020462EF0A2F9834B1B78002B40F0E680F2
:107D500000260027804DB046B9469B460B9A9345B6
:107D600005F1100540F0C6801BB1CDE90E89C4E9CC
:107D700002670B98794DFFF705FB02460B46064656
:107D80000F46DDE90E01FFF7A1FC3B46CDE90E01F0
:107D90003246D4E90201FFF799FC7022C4E90201DE
:107DA000002128462EF071F9664B002245E9022396
:107DB000C5E90823C5E91223C5E91C23654A012347
:107DC00013705D48614D664E23F036F85D4B624995
:107DD0005D480022CDE90623624B0022CDE9042351
:107DE000614B0022CDE9022351A3D3E90023CDE961
:107DF000084ACDE900230B9B012200F059FA0FCD70
:107E000034460FC495E80F0084E80F0050495748E6
:107E100080222EF02CF9BFF35B8F554B1B68BFF30C
:107E20005B8F012B27D12DF0DEFFD6E90623CDE9AC
:107E30000823D6E90423CDE90623D6E90223CDE9B8
:107E40000423D6E90023CDE902234FF47A72A0FB84
:107E5000020302FB0131C00B40EA4140C90BCDE9EE
:107E60000001444A4FF4007116A824F033FA424846
:107E700016A926F028FA0DF5177DBDE8F08F93F9C5
:107E8000AF1001B10132D3F8B43039E799F9AF300E
:107E90006BB309F1900209F1AE01002312F9010F51
:107EA00091420344FAD199F950001E2293FBF2F358
:107EB0005BB2C01AFFF776FA22462B46FFF706FCA4
:107EC00002460B463046394602F042FE0AEBC80332
:107ED000C3E900012049D9E9102301EB0810C0E9EA
:107EE0000023D9E91223C0E9022308F10108D9F8D7
:107EF000B49013E755E9042340464946FFF706F9D5
:107F000055E902238046894630463946FFF7FEF898
:107F10000BF1010B06460F4601231FE7104E0FCE53
:107F200025460FC596E80F0085E80F0049E700BF1A
:107F30009A9999999999B93F8C0800204825002071
:107F40000000324000002440D80E0020B80D002070
:107F5000380D002088540020D80D0020600F00202C
:107F6000D80F0020000010400000E03F580F002014
:107F700088020020E98B0500CE8805000000000083
:107F80002DE9F04FAC4CDFF8B4A2DFF8B492AD4D60
:107F90008BB0204625F049FEAB4B07939CA3D3E959
:107FA000002300260027CDE902236FF0330848F2B2
:107FB000E603CDE90467CDF82090CDF81880009352
:107FC0005146A24A40F6C123204625F033FE92A234
:107FD000D2E9001245F2DF13CDE907A5CDE9046728
:107FE000CDE90212DFF868A2CDF818800093494667
:107FF000984A48F2CF03204625F01CFE6FF0390B5B
:1080000049F6AB53CDE9079ACDE90467CDE902679C
:10801000DFF84492CDF818B0009329468F4A46F60F
:108020003703204625F006FE8D498E4A6FF03A034D
:10803000CDE9075906938C4D002049F29073CDE9A4
:108040000401CDE90267009351464AF213332046FA
:1080500025F0F0FDCDE907A5CDF818B00FF2C01B53
:10806000DBE900AB4CF6FB23CDE902670093494600
:10807000CDE904AB7D4A47F2D773204625F0DAFDFF
:1080800069A3D3E90023DFF8E8C1CDF81880CDE972
:10809000042344F2DA73CDE9079CCDE902670FF2BD
:1080A0009019D9E9008900932946724A41F63303B1
:1080B000204625F0BFFDDFF8C0E1704A6C496FF043
:1080C0003803069347F25073CDE9075ECDE90267A6
:1080D000CDE904890093204647F23D7325F0AAFDBF
:1080E0004DA2D2E900126FF03003DFF884C1644E74
:1080F000069347F20313CDF81CC0CDE90212CDE977
:108100000489089600935F4A5B495F4D5F4F4EF2CA
:108110003303204625F08EFDCDE904890FF2F009E6
:10812000D9E900896FF02C03DFF84CE106934CF29B
:108130004B33CDF81CE0CDE9028908950093314618
:10814000534A4EF6B933204625F074FD36A3D3E9E1
:108150000023CDE90767CDE904236FF03D0647F61C
:10816000C403CDE90289009329464A4A069642F69D
:10817000D973204625F05EFD6FF03B03069324A3E0
:10818000D3E90023DFF81081CDE9022342F6C14391
:10819000CDE9075800933946CDE904AB3F4A404D3D
:1081A00048F68C73204625F045FD19A3D3E900233A
:1081B0002B490696CDE90223002046F6C533CDE9CA
:1081C000040100934146CDE90775364A46F6AC33C3
:1081D000204625F02FFD1C4B0FA2D2E90012CDE95D
:1081E00007836FF03E0306934CF6BD63CDE90212A0
:1081F0000093CDE904AB2C4A4CF25F03294620469C
:1082000025F018FD0BB0BDE8F08F00BFAFF3008084
:108210003333333333330B40333333333333FB3F75
:108220000AD7A3703D0A0F40C3F5285C8FC21540E2
:10823000F6285C8FC2F51B40482500205B8C0500AA
:10824000628C0500848C05000E900500408C0500B2
:10825000A68C0500698C0500C88C05008B8C050078
:108260000000F83FAD8C0500EA8C0500CF8C0500BE
:108270000C8D0500F18C05002E8D0500138D050079
:10828000508D0500358D0500728D0500948D05001B
:10829000578D0500798D0500B68D05009B8D050075
:1082A000D88D0500BD8D0500DF8D050000000000A4
:1082B0002DE9F04FADF2E45D02AF7960FB66D7F8CF
:1082C0002016B86207F5C063D3E9004507F5C3631C
:1082D000D3E900897A63002900F0F5800B4607F1A5
:1082E000B80601F1200C18685968324603C20833F9
:1082F00063451646F7D17022002107F1E0002DF00A
:10830000C4FE07F5AC70C7E93689C7E94089C7E9FB
:108310004A89C7E9548904F09BF8C7E95A45C7E977
:10832000644522462B4620462946FFF7A5F802461B
:108330000B4680468946FFF79FF807F5C163D3E9EE
:108340000023FFF799F86C4B0022FFF795F842469F
:1083500082468B464B4620462946FFF78DF807F5A7
:10836000C163D3E90023FFF787F8644B0022FFF7CE
:1083700083F80D4607F5C16104464B464246D1E9F4
:108380000001FFF779F870228046894607F5F07002
:1083900000212DF07AFE07F51670C7E97A45C7E986
:1083A0008445C7E98645C7E99045C7E976ABC7E983
:1083B00080ABC7E98A89C7E9948904F049F807F5D1
:1083C000367107F5AC7025F093FC7B6B4C499C0033
:1083D000002000239C427CD17B6B49491C0100207A
:1083E00000239C427ED1FB6E180106F01DFEFB6E41
:1083F000C7F8A800DD00284606F016FEC7F8900072
:10840000284606F011FEFB6EB8645B011846C7F8FB
:10841000A03006F009FEC7F8B000D7F8A00006F0BB
:1084200003FEFB6EB86603FB03F4E400204606F08F
:10843000FBFDC7F8AC00204606F0F6FDF867D7F85C
:10844000A00006F0F1FDC7F8B400D7F8A00006F0D0
:10845000EBFDC7F8A400204606F0E6FDF8622846CA
:1084600006F0E2FDD7F8A830B867002B4AD1D7F85C
:10847000A80006F0F3FDD7F8900006F0EFFDB86C09
:1084800006F0ECFDD7F8B00006F0E8FDB86E06F097
:10849000E5FDD7F8AC0006F0E1FDF86F06F0DEFD73
:1084A000D7F8B40006F0DAFDD7F8A40006F0D6FD40
:1084B000F86A06F0D3FDB86F06F0D0FD07F2DC577E
:1084C000BD46BDE8F08F202207F1B8002DF0DDFD9C
:1084D00011E7D7F82426126802EBC302C2E90001B3
:1084E000013377E7D7F82426526802EBC302C2E9CA
:1084F0000001013375E700BF0000D03F0000E03FFE
:108500000000F87FD7F89030002BB0D0BB6C002B68
:10851000ADD0D7F8B030002BA9D0BB6E002BA6D0C1
:10852000D7F8AC30002BA2D0FB6F002B9FD0D7F830
:10853000B430002B9BD0D7F8A430002B97D0FB6A27
:10854000002B94D0BB6F002B91D00023FB64C7F8A5
:108550009430D7F894307A6B934288D0202200214F
:1085600007F5AB602DF091FD07F5AB6407F5AC7630
:108570004FF00008F4E802AB07F1B803BB65C7F899
:108580009830B1460025D7F89810F1E80223C7F8D3
:108590009810F9E80201FEF76FFF02460B465046BD
:1085A0005946FEF7B3FD0135042D82468B46EAD1CC
:1085B00008F10408B8F1100F44E902AB06F12006F7
:1085C000D8D107F5AB650FCD07F1B8040FC495E816
:1085D0000F0084E80F0007F59B6207F1D80107F54B
:1085E000AC7025F0FDFB07F5AB6107F5AC7025F02D
:1085F0007FFB07F58B6207F59B6025F0F1FB07F128
:10860000D80207F5EC7107F58B6025F05DFBFA6C7D
:10861000BB6A7E6803EBC2081346FA6E1344FB6420
:10862000FA6CBB6A4FF0000B03EBC209C84540F07F
:10863000F280BBF1000F00F02482D7E92E34C7E9A5
:108640002034D7E93034C7E91834BB6CD7F8A860B8
:10865000C7F820D0083BFB63FD6B4FEA0B1906EB14
:108660000B1A3446D4E90023D7E92001FEF74CFD6C
:10867000D4E90223C7E92601D7E91801FEF744FD32
:10868000D7E92623C7E9220110461946FEF7F4FE72
:10869000D7E92223C7E9260110461946FEF7ECFE6A
:1086A00002460B46D7E92601FEF730FD25F032F9E8
:1086B00010345445E5E90201D4D14FEA4B13D7F801
:1086C000B0003B631A4600212DF0DFFCD7F8B080E4
:1086D000D6E90023D7E92001FEF716FDD6E90223EB
:1086E000C7E92601D7E91801FEF70EFDD7E92623D1
:1086F000C7E9220110461946FEF7BEFED7E922233C
:1087000004460D4610461946FEF7B6FE02460B46D5
:1087100020462946FEF7FAFC25F0FCF84EA3D3E9E3
:10872000002304460D46FFF719F910B14AA5D5E913
:10873000004522462B46D7E92601FEF7C7FF224611
:10874000C8E900012B46D7E92201FEF7BFFF10362A
:108750005645C8E9020108F12008B9D1BB6ED7F827
:10876000B0000422594625F01DFB3A6BD7F8A4004F
:1087700000212DF08AFCD7F8A430CDE900B3042203
:10878000BB6E114607F1D8000BFB0BF825F0C0FAC1
:108790004FEAC8020021D7F8AC002DF076FCD7F8DC
:1087A000AC30CDE900B30422D7F8A430D7F8B0003C
:1087B000594625F0ADFAD7F8AC500BF10103DB00B8
:1087C000BB632C46002607F5C263D4E90001D3E958
:1087D0000023FEF79BFC0136BB6BB345C4E90001E7
:1087E0001C44F0D14FEA081006F01EFC8246002817
:1087F00000F08680BB6B4FEA4B06A3F1080800240B
:1088000003464246184629462DF031FC03464344B0
:108810009C4600222EE0F8E8024522462B462046E0
:108820002946FFF7C3F898B9D7F8A83003EB0B1126
:10883000D6E90023C1E90023D6E90223C1E90223D6
:10884000D7F8903003EBCB03C3E900450BF1010BE4
:108850001036EBE6AFF300808DEDB5A0F7C6B03E65
:10886000944208BFB4494FF0000018BF0021ECE863
:10887000020101320BEB02018E42F1D80134A34513
:1088800043444544BDD109F108037B620AEB090367
:108890003B660023C7F898A0C7F888A0C7F88030C7
:1088A000D7F88830D3E90034C7E910343B6C3B6714
:1088B0007B6C23F000437B67D7F88030FB65013386
:1088C000C7F88030D7F88830D7F88050FC6D03EBBC
:1088D0000906AB4500F2F98095A3D3E90023D7E957
:1088E0001C01FFF73BF8002800F00981504606F014
:1088F000B5FBFB6FD7F8AC005A46594625F052FA43
:108900003A6BD7F8B40000212DF0BFFBD7F8B43094
:10891000CDE900B35A46FB6FD7F8A400042125F037
:10892000F7F9BB6FD7F89050A3F10806BB6BA3F122
:10893000080404EB0508F96BF1E90223F963F5E893
:108940000201FEF7E1FBA845E6E90201F3D1BB6FA6
:108950000025E318C7F898302C46D7F8B430BE6F1E
:1089600003EBC50A4FF000084FF00009F6E80223B8
:10897000FAE80201FEF780FD0B46024649464046F2
:10898000FEF7C4FBD7F89830B34280468946EDD154
:108990000B46B96D0246D1E90001FEF7B7FBBB6D8E
:1089A000E3E802010134042CBB655D44D5D107F531
:1089B00056758022002128462DF067FBCDE9004541
:1089C0002146D7F8B030D7F8B4005A4625F0A0F9C0
:1089D0002C4607F5167807F576760025F4E802238D
:1089E000F8E80201FEF790FB0135102DE6E80201E0
:1089F000F4D107F59B64224607F1D80107F576709C
:108A000025F0EEF907F5AB6107F5767025F070F902
:108A100007F58B62204625F0E3F9D7F8A030D7F8A8
:108A2000B400ADEB030D02AD2B465A46042125F0F0
:108A3000B9F98022002120462DF027FB0421019462
:108A400000912B46D7F8B4005A4625F061F907F596
:108A5000AB65002607F5C263D3E90023F4E8020101
:108A6000FEF70AFD0136102EE5E80201F2D107F10A
:108A7000D80207F5AB6107F58B6025F025F9D7F82B
:108A800020D0D7F82436D7F894201B6807F1B80413
:108A900003EB421307F1D805224603CAAA42186025
:108AA0005960144603F10803F6D1D7F82436586804
:108AB000D7F89430802200EBC31007F1D8012DF0D5
:108AC000D6FAD7F89430013341E533683B657368D3
:108AD00023F000437B65D7E91401D7E91C23FEF797
:108AE0005BFF50B9D7E91C23C7E91423D7E9142346
:108AF0000135C7E91C234E44EBE62C46F6E7FB6D37
:108B0000A3421BD0D7F8985009FB04A4D4E9002352
:108B1000D5E90001E5E802233B6E9D42E4E802014D
:108B2000F4D1D7F88830D3E9002309E0AFF300800F
:108B30009B2BA1869B84063D0000F03FD7E91023C4
:108B400037490020FEF7C2FDD7F8986004460D466D
:108B5000D6E9002320462946FEF78EFCE6E802010E
:108B60003B6E9E42F4D1FB6DDB00BB60544600259A
:108B7000FB6DAB422ED10135AB454C44F8D8D7F84C
:108B800088307A6A1344C7F88830D7F898304B4455
:108B9000C7F898303B6E4B443B66D7F880309B4516
:108BA0007FF47EAEBBF1000FFB6F0AEB080614BF2B
:108BB000454608250024314618462A462DF057FA26
:108BC00001340346A34543444E44F4D8504606F0CE
:108BD00045FA95E6BB68E318D3E90023C7E9062305
:108BE00004EB0903FB60D7F898303B642646D6E9CE
:108BF0000023396CC7E90423F1E802233964D7E97B
:108C00000601FEF739FC0B460246D7E90401FEF7E0
:108C10007BFAE6E80201FB68B342E8D1ABE700BFAC
:108C20000000F03F00000000F0B5002285B01146C2
:108C300002AF40F6034008F021FC044600285BD157
:108C400008F0CAF821463A1D41F2030008F016FC6C
:108C50000446002850D17A68C14DD168D1F801008E
:108C6000D1F8051005F1780303C3104606F0E2FAC7
:108C700021463A1D41F2010008F000FC044600289C
:108C80003AD17868C3685A7885F870205A88A5F870
:108C900072201A7985F87120B3F80720A5F874209E
:108CA000B3F80530A5F8763006F0C4FA21463A1D2F
:108CB00041F2020008F0E2FB0446E8B9D7F804C02C
:108CC000DCF80C2005F18006531C41321868596805
:108CD000344603C4083393422646F7D1604606F073
:108CE000A9FA95F87C305B060AD49E4A9E48012179
:108CF00027F0F7FF6FF0120420460C37BD46F0BD99
:108D00003A1D002142F2030008F0B8FB0446002897
:108D1000F2D17A68954BD168D1F80100D1F80510ED
:108D200003C3104606F086FA21463A1D42F20200BD
:108D300008F0A4FB04460028DED17E68F468B4F88D
:108D400001309AB292B1E27882B1A5F80431E378A9
:108D5000032B06D0032200928348854A022126F085
:108D6000EFFAE278834811462CF099FD304606F080
:108D700061FA95F87C6016F0200619D14FF0FF30AB
:108D80004FF0FF3108F052F80446002800F09D80B3
:108D900002210C3026F062FC01230370467021464C
:108DA000324640F66D4008F069FB04460028A3D126
:108DB00095F89C301E0712D53A1D002142F21C0086
:108DC00008F05CFB0446002896D17868C368D3F8A5
:108DD0000120D3F80530C5E9382306F02BFA95F8C1
:108DE000D8305C0610D53A1D002142F22A0008F066
:108DF00045FB044600287FF47FAF7868C3685B7842
:108E000085F8203106F016FA4FF0FF304FF0FF31B1
:108E100008F00CF80446002857D008210C3026F042
:108E20001DFC95F8D81011F0400F024640F20223C5
:108E300008BF032388074CBF43F02C0043F00C000D
:108E40008B0695F8D93048BF40F0400013F0090F69
:108E500018BF40F40060CE0748BF40F0100000216A
:108E600027F069FF2146002242F2010008F006FBCC
:108E7000044600287FF440AF95F87C30B5F8041123
:108E8000980625D4C9B93A1D41F2050008F0F6FA52
:108E9000044600287FF430AFB5F804317C684BB944
:108EA000E368B3F80120A5F804219A8831481146F7
:108EB0002CF0F5FC204606F0BDF94FF0FF304FF0E6
:108EC000FF3107F0B3FF044660B96FF0680413E7A1
:108ED0000029F2D1284A2448012127F002FF6FF02F
:108EE000040409E708210C3026F0B8FB95F8D830C7
:108EF000D907024629D421484FF0005127F01BFF23
:108F00002146002240F6014008F0B8FA0446002845
:108F10007FF4F2AE01463A1D4FF6014008F0AEFA7A
:108F200080B3174A1048022127F0DBFE09F0B6F99A
:108F3000044600287FF4E0AE0AF056FF04460028FD
:108F40007FF4DAAE08F05EF8D6E603A1D1E90001BD
:108F5000D4E700BFAFF300809088000200800020BB
:108F600008010020CD9C0500946A0500E001002066
:108F7000F19C050010020020379D050010880002BA
:108F80005A9D05007B68DC68B4F80130032B96BF5E
:108F9000434A444952F823106E468AB002AA424816
:108FA000D3614FF400731384404BC2E9050142F8CA
:108FB000103F3F484FF4135127F0ADFEB4F80120A5
:108FC000B4F80330022AB54649D1052B47D8394AAF
:108FD00052F823106E468AB002AA3748D3614FF484
:108FE00000731384314BC2E9050142F8103F4FF47E
:108FF00013512F4827F08FFE637994F806C0D4F8F8
:109000000900032BB54698BF2C4AB4F8076094BFFB
:1090100052F8231023496C468CB002AADFF8A0E076
:10902000C2E9073C4FF400739385264BC2E905E182
:10903000C2E909604FF4735142F8103F1C4827F011
:109040006AFEA546786806F0F5F83A1D00214FF64D
:10905000024008F013FA044618B11B4A62E71149AE
:10906000B8E77868C368B3F80130A5F8C13006F0F6
:10907000E1F895F8C1305B077FF558AF3A1D2146FE
:109080004FF6034008F0FAF908B1104A4AE7786849
:10909000C3685B7885F8C03006F0CCF846E700BFBF
:1090A00060710500658805007E9D050004000001D3
:1090B000946A050048710500979D05003871050008
:1090C000AF9D050007000001DC9D0500059E050021
:1090D00038B51B4C9DF810E094F84CC01CF001050D
:1090E00024D163F3420C400194F83830A4F84210C4
:1090F0004FEACE0E0EF0180E00F0200040EA0E00EF
:1091000023F0380303430F4884F838309121A2FB41
:10911000000384F84CC001FB023107A3D3E900230C
:10912000FEF75AFC6064A064284638BD0C2528462A
:1091300038BD00BFAFF300808D49FD1A0700000065
:10914000301D0020002AE78410B504469DF8080071
:1091500062864FEA411CC00094F8281000F0180005
:109160000CF0200C4CEA000C0B4821F038014CEAC2
:10917000010CA3FB0002912184F828C001FB03210C
:1091800003A3D3E90023FEF727FC606310BD00BFF3
:109190008D49FD1A07000000002AE7840000000046
:1091A0002DE9F047044600F13B0190F84C0094F89B
:1091B0003830514DC0F3400060F386138CB084F812
:1091C000383011F0FBF994F83820B4F842304B48AD
:1091D000246102F07902002784F838209121A3FB52
:1091E0000002C4E90277277001FB032140A3D3E901
:1091F0000023FEF7F1FBA26C414B651BA3FB053579
:1092000002F1090398428EBF19463A46014662644C
:109210006160064611F084F96369C5F3871500F1B2
:109220000907002B48D00DF12C08CDF820800694BA
:10923000B4F8423031484FF0000AA3FB0002CDF8E9
:109240000CA0912101FB0321636804932D4B07932C
:109250002D4B05934FF0020925A3D3E90023CDF848
:109260002C90FEF7B9FB104619464FF47A72002392
:10927000FEF7B2FB0235EDB22A46CDE901603B466E
:109280000321CDF800A0504610F0F8FF414611F040
:109290006DFE054660B994F84C3043F00103484632
:1092A00084F84C3019F082FB28460CB0BDE8F087FA
:1092B0000C200CB0BDE8F0870DF12C08CDE90A3385
:1092C000616843460AAA032000F0EEFD0028ACD1F5
:1092D0000B990E4806A3D3E90023A1FB0001FEF77A
:1092E0007BFB0A9B20F07F471F449EE7AFF3008083
:1092F0008D49FD1A07000000301D0020002AE78478
:10930000CDCCCCCC25A6030091CD030000CA9A3B5E
:109310002DE9F0418468A28C4FF6FF739A428AB01F
:1093200000F0CE800546204616F0C6F9AB7C012B36
:1093300000F01D81022B00F00F81002B00F0EF8068
:1093400094F83C81B8F1000F40F00A81A68DEB89BA
:10935000E78D0136B6B2002B40F0B5802B7C03F0D0
:109360000303012B00F0D680B4F86831002B00F025
:10937000B180B34240F230819B1BA4F86831B4F84D
:109380006C31002B00F0C980B34240F223819B1B5B
:109390009BB2062BA4F86C314FF000028CBF002367
:1093A0000123E285984694F83A2063F3820284F818
:1093B0003A2031460DF12702204615F02BFF74307C
:1093C00000F00281B4F866312BB1B34240F2E8807C
:1093D0009B1BA4F86631B4F862312BB1B34240F262
:1093E000D8809B1BA4F8623194F8B530E58D03F06A
:1093F0000101B8F1000F0AD1AF4200F0C68001357B
:10940000ADB241B9002D5BD04146404642E0013546
:10941000ADB200293DD094F8B53094F937206FF300
:109420000003002A84F8B530C0F2A78094F85A00EF
:10943000C0F3C00100F007001AF0EAF894F85A20CF
:1094400094F85B1002F003030933C2F34002DB001F
:10945000D34001F003020932C1F34001D200CA40F7
:10946000E18B01F23F110B44134403446A4A6B48F9
:109470000721E3FB0021104665A3D3E90023FEF793
:10948000ABFA616820F07F40814280F09880411AF9
:1094900060600020A28C246903950023604DCDF804
:1094A00010800332CDE9011006940093D2B201215D
:1094B0001846059510F0FEFE10F0FD0F40F08E806E
:1094C0000AB0BDE8F081A4F868812B7C03F00303A7
:1094D000012B1FD0B4F86C31002B7FF455AFE28C18
:1094E000052A97BF013240F2E2434FF4FA7392B279
:1094F00003FB02F2B4F86A3142F2107101FB03235C
:10950000013BB3FBF2F39BB2A4F86C31002B7FF468
:109510003BAF02E00023A4F86C31002343E794F84A
:10952000723003F01803182B7FF40AAF218DB4F8C2
:1095300064218B1D9A42C4BF931F5B1AB4F860115B
:10954000CCBF9BB21346994253D0A4F86031A4F823
:109550006231A4F86621F3E64FF03D0884F83C81BF
:10956000414620460AB0BDE8F04114F0F9B90023A5
:10957000A4F86631A4F86231E2E694F85B000121B8
:1095800000F007001AF046F858E7002998D0454641
:1095900041E70023A4F86231204615F0AFFE23E72F
:1095A00011F0B4FC014600B30023A4F86631A38C8B
:1095B000C3801B230371006811F07AFC0BE7606025
:1095C000081A1CD0002165E79DF82710204614F0EA
:1095D000C7F975E70821C4E73E21C2E711F0D8FCBE
:1095E00084423FF46DAF00DE6AE70123A4F86631E0
:1095F000F1E6B4F8661100297FF4A2AEA7E7002DCA
:10960000E0D1B8F1000FDDD15AE700BFAFF3008021
:109610008D49FD1A070000008C49FD1A00CA9A3BCB
:1096200015D10300000000002DE9F04F8FB0B0F815
:1096300038610D930446B0F8FC3090F85A000B9155
:109640001E44C0F3C001BDF86830BDF86C70BDF8B1
:109650006080BDF86490D4F8F4A00C9300F007008B
:1096600019F0D6FFE58CB6B2A6EB070B052D1FFA55
:109670008BFB40F2D38015FB0BF5B8F1050FADB2B3
:1096800040F2E24B40F2D480B4F85220B4F85030AB
:10969000134403F2D51303447B4A7C480721E3FBC0
:1096A00000214FF09613E36196231046238474A3A0
:1096B000D3E90023FEF790F9434620F07F4040F2C3
:1096C000E2420BFB05F102FB03FB4A1E5A44B2FBCC
:1096D000FBF293B20BFB03F39942606095B280F00A
:1096E000B3806A48591AA1FB000165A3D3E900239E
:1096F000FEF772F920F07F408244B4F8FC20B4F801
:109700003831BF1B3D44ADB213442B44A4F838316B
:10971000638D1A4494F837301544DB09658540F0B1
:10972000A1800D9B5948A3FB000155A3D3E9002359
:10973000FEF752F920F07F4501350C9BA4F86A3101
:1097400059462046A4F82680A4F8289015F08EFDEE
:109750004F4B218D5B44881DB3FBFBF39AB29042C3
:10976000A4F8642104D2C1F57F41FA310A4492B2CF
:109770000B9BA4F8602113B10023A4F86C310221E3
:1097800001201BF0EFFC00220221064601200FF011
:1097900007FC40494FF4C47220460FF091FBC21CF5
:1097A0003D4B0093D7B2019453463A460121002025
:1097B00010F014FE10F0FD0F5FD1344830A3D3E950
:1097C00000238BFB0001FEF707F908940694194665
:1097D00063680493314B0793314B05934FF6FE7347
:1097E00080460393104600234FF47A72FEF7F4F894
:1097F0000095CDE9018053463A460121002010F042
:109800003DFD10F0FD0F36D17EBB94F83A3143F0A8
:10981000010384F83A310FB0BDE8F08F013515FB34
:109820000BF5B8F1050FADB24FF4FA7B3FF62CAF54
:109830004FF0961208F10103E261962222849BB256
:109840000A204FF4FA723CE71048C91AA1FB000144
:109850000BA3D3E90023FEF7BFF820F07F40AAEB6B
:10986000000A4AE700DE002567E7012202211046D0
:109870000FF096FBC9E700DEC6E700DE9DE700BFFC
:109880008D49FD1A070000008C49FD1A00CA9A3B59
:109890007FC3C901801D0020D5D00300BDD00300C7
:1098A000E91C0400000000002DE9F04F8BB0CDE969
:1098B00004011F460020BDF860309DF85490BDF8AB
:1098C00058A0BDF85CB00393164613F055FB002872
:1098D00000F06E8109F001080446404610F05EFE7B
:1098E0000290B8F1000F70D1149B02993A4640469D
:1098F00013F044FF002840F06C81636904F110020A
:109900000692002B68D063691D6807F0010A93F87E
:109910004A000293C0F3C00100F0070019F078FE7E
:10992000029BB3F84210B3F84020DB8900F23F10ED
:109930000A4403441344C648C64A0721E3FB0021F6
:109940001046C1A3D3E90023FEF746F820F07F407C
:109950006860304619F048F894F839306FF34103E5
:1099600084F83930FF2384F83A30002E00F0248147
:10997000A9F10203012B40F2308194F84C1069F3F5
:10998000420184F84C1094F839106AF30001DDE9C3
:10999000042384F8391014990968A16114998988FD
:1099A000A1830399A18404F1100000960021FFF720
:1099B000CBFBA06419F0ACFF002840F019812046D1
:1099C000FFF7EEFB0BB0BDE8F08F06210FF08CFA2D
:1099D000002889D11220F5E711F052FA06900028EC
:1099E00000F0278113F01CFC0546002800F01E81C2
:1099F00014300FF035FC05F11003002840F01B81F6
:109A0000032105F11800079319F028FDE86E079B64
:109A1000A5F828B04FF6FF72A5F826A0AA84002862
:109A200000F0008105F1600205F15C0107930FF081
:109A300067FAB5F85A2022F4EF6222F0070242F4E6
:109A40008C7242F00102A5F85A2095F872204FF06E
:109A5000000B22F0070285F8722001212846C5F884
:109A60006CB0A5F870B014F069FAA5F82AB0C5F882
:109A70002EB005F1320018F06BFA95F8372060F33C
:109A8000050285F8372001210DF1270019F0E6FCC9
:109A90009DF82710704A039BA5F86A31A2FB0102CA
:109AA000D20802EB4202A1EB820195F83720079B16
:109AB00085F839B002F03F0285F8372095F83A2052
:109AC000A5F838B1053122F0070240F2E24085F8EE
:109AD000381085F83A20298D604AA5F86CB100FB52
:109AE0000AFA06205244A5F8680101F1060CB2FBFF
:109AF000FAF290B26045A5F866B1A5F862B1A5F892
:109B0000640102DD0638401A80B2A5F860012846DB
:109B1000079315F043FB5146284615F0A7FB4FF07D
:109B2000000B069BC5F8403185F83CB113F01AFED6
:109B300095F8742160F3020285F8742113F018FE81
:109B400095F8742160F3C50285F8742195F83A21DF
:109B50006BF3410285F83A2105F1B80015F03EF9A2
:109B600095F87A21149B07F0010A6AF3410285F8FF
:109B70007A214FF09612C5E907221A68C5F88121AB
:109B800095F87A219988029BA5F8851169F300025E
:109B900085F87A211A68C5F87B219A88079BA5F871
:109BA0007F216361C5E902BB85F800B02D61AEE697
:109BB0000C200BB0BDE8F08F19F0FAF900283FF443
:109BC000D7AE14993846324618F0EAFF84F83A00C6
:109BD000CEE60B200BB0BDE8F08F002018F01EFF82
:109BE00094F8393043F00203C14684F83930C4E6B2
:109BF0006569EB6D2BBB05F1500105F14C000FF0D1
:109C000083F9E0B12E68E865D6F84001A8B111F0FB
:109C10003DF9304613F00AFB0023032063610BB0CB
:109C2000BDE8F08F05F16400E866FBE6069811F0E8
:109C30002DF90720C6E600DEE2E600DEE7E700DEFB
:109C4000E0E700DED7E700BF8D49FD1A07000000FE
:109C500000CA9A3B8C49FD1AABAAAAAA7FC3C901C4
:109C60002DE9F04F04468DB0077F238D406AADF893
:109C70002C30E3070E461546C7F3C0110A90C7F310
:109C8000401700F1F9800023A383B37C707C13F0AC
:109C900001031CBFD4F81E30C4F82B3004F12B0292
:109CA00014BF638CC4F82B30FF28938004F125087F
:109CB00004F11F0200F0C68004F11E0118F0A0FBA1
:109CC000A37FBDF82C200A98C4F825000233A3779F
:109CD000A8F804203368D3F800A0EB8A63862B8BA6
:109CE000A386BAF82430E38619F066FE84F83800BB
:109CF000D5F80090484613F09FFA0021A882E08032
:109D0000484615F0C7FAD6F804802068214611F0BD
:109D1000C3F8AB8AA8F806301C23D8F8004088F8AE
:109D20000430002F40F09C8088F81C70414620468B
:109D300011F0BEF895F84A00B5F816B0F46840F294
:109D4000E243C0F3C00100F0070003FB0BFB19F076
:109D50005FFC0022A4EB0008022101200FF020F993
:109D6000504613F0E1F84A4CA8FB044846A3D3E957
:109D70000023054641462046FDF72EFECDF804A0FF
:109D8000B3684449009120F07F47AA1C363BD2B209
:109D90003B440121002010F021FB10F0FD0F6FD19A
:109DA0004FF0000A012211465346CDF800A050465C
:109DB00010F0D2FA484613F03FFA0546344832A371
:109DC000D3E90023ABFB0001FDF706FE1946324B39
:109DD000B6680893314B069340F27233CDF81C906D
:109DE0000993D9F804308346CDE904A31046002333
:109DF0004FF47A72FDF7F0FD294B0722A7FB0331E0
:109E0000CDE902B002FB0711E01A68EB01014FF443
:109E10007A720023FDF7E0FD0335363EEDB2CDE961
:109E2000007033462A460121504610F0D3F910F055
:109E3000FD0F23D10122022110460DB0BDE8F04FE5
:109E40000FF0AEB80023BDF82CC00A98C4F8253036
:109E5000A8F80430A177C4F81F00A2F804C039E7BD
:109E600095F8273043F0400385F82730281D18F077
:109E7000C5F80127288557E700DE04E700DED9E7AB
:109E800000DE8DE7AFF300808D49FD1A070000006A
:109E900000CA9A3BDD1C0400E11C0400E91C04001C
:109EA0008D49FD1A000000002DE9F04F8FB0FF270B
:109EB00009930B1D08930023CDE90533DFF880A13A
:109EC0008DF82F70054616460C9398463C460DF1CA
:109ED00034090DF1300B02230D93CDE901A9CDF822
:109EE00000B033460DF12F022946002010F0BAFAD7
:109EF000022813D00D9BBBB9FF2C18D03368434503
:109F000015D0002F00F08B80013FFF24FFB28DF8A9
:109F10002F40E0E72946002010F0EAFA0D9B022BC3
:109F2000F8D00D9B002BE7D000DEFF2CE6D19DF88A
:109F30002F00FF284DD00338C3B2012BCBD880B2FD
:109F400013F082F90028C6D090F93730002B26DABA
:109F5000436807939DF82F000338C3B2012B14D92F
:109F6000FF2CDDF8308008D00599404610F0DAFA71
:109F7000089B069A134498422DD8079B9DF82F40C2
:109F8000CDE90583D6F80080A5E780B213F05CF92F
:109F90000028E5D090F93730002BE1DA9BE790F804
:109FA0005A00C0F3C00100F0070019F031FB254A48
:109FB000254B00F5935005300721E0FB0231184690
:109FC0001BA3D3E90023FDF707FD20F07F43079390
:109FD000C0E7FF2C27D0069A1C480721A2FB0003EC
:109FE00001FB023114A3D3E90023FDF7F5FC04467D
:109FF000B8B9059B1548013BA3FB0002072101FBF3
:10A0000003210DA3D3E90023FDF7E6FC099A00F133
:10A010001E032344002013600FB0BDE8F08F00DE64
:10A0200072E73E34E5E76FF009000FB0BDE8F08F4E
:10A030008D49FD1A0700000000CA9A3B000000008D
:10A04000011F040000CA9A3B8C49FD1A8D49FD1A74
:10A050002DE9F043C668476873683D491A68D0F82F
:10A060000090A7F57423A3F510738B4283B080464C
:10A0700007D907F1E87707F5D43709F1FF3907F574
:10A08000A57773685168DD8ACDF8049006F1100356
:10A0900001AA0220FFF708FF00284ED10199A1EB89
:10A0A00009031B0237D40846494610F03BFA034621
:10A0B00028480721A3FB000201FB032122A3D3E9C7
:10A0C0000023FDF789FC34690444002C346109DB6A
:10A0D00040F2E24305FB03F3A3422FD2E41AA3426A
:10A0E000FCD33461D8F800301A48A3EB0903A3FB72
:10A0F0000002072101FB032113A3D3E90023FDF78D
:10A100006BFC154BA3FB0737A0EB97402044306155
:10A1100003B0BDE8F083484610F004FA03460D484A
:10A120000721A3FB000201FB032107A3D3E90023BE
:10A13000FDF752FC3469241AC7E73469002CD1D1E9
:10A1400003B0BDE8F08300BF00CA9A3B00000000E6
:10A15000BFBDF07F8D49FD1A83DE1B430000000068
:10A160002DE9F041C46894F92830002B8CB0C0F27E
:10A17000D480636805460E46002B40F0C38094F8F7
:10A1800028306FF3000384F828301AF063FB0020B6
:10A190001AF084FB002108461AF072FB0820002206
:10A1A00025211AF0AFFB012010F092FF002800F0EB
:10A1B000BB801C301AF0D0FB754B0B930BA81AF028
:10A1C0008DFB744940F25B601AF03CFC94F8280067
:10A1D000C0F34100253019F0E7F96F4821461AF025
:10A1E0000DFB94F828309B0603D46368002B00F025
:10A1F000868096201AF074FD00231A4619461846E8
:10A200001AF086FC18F0D4FE002840D194F82830CB
:10A2100013F0180F53D1D4F800802F68404619F07E
:10A22000AFF907446A6807F1090100201AF064FDDC
:10A230001AF038FE1AF0DCFC204612F081FE811C78
:10A24000C9B240463A4619F09DF98046002871D1BE
:10A2500016B9636B002B3BD163687BB12A684F4B07
:10A26000A2616A68E26104F11801996064620122E6
:10A27000022100200EF0C8FE002859D1204619F016
:10A280004DF9002852D100200CB0BDE8F08194F8BF
:10A290002800C0F3C00018F07DFB07460DF12B002D
:10A2A00018F0A8FD79788046BA1C38781AF0C4FCFA
:10A2B0009DF82B00002241461AF0BAFEABE70120C0
:10A2C00018F068FB4178821C00781AF0B5FCA2E710
:10A2D000334A0792334A059240F2F31200930892F0
:10A2E000CDE90366CDE9016606943B46314601227D
:10A2F0000FF0C4FF10F0FD0FAED000DEACE71AF097
:10A3000067FC7FE7636893F82A30D90705D4636850
:10A3100093F82A309A077FF532AF234821461AF086
:10A320006DFA1AF03BFBAEE700DE42E700DEAAE77B
:10A3300000DEA3E71D4A1E491E4840F2E51323F044
:10A34000CFFF1D4B0721A8FB030301FB08310EA320
:10A35000D3E90023FDF740FB18490246184823F0D3
:10A36000BFFF002585F31188BFF36F8F03231846C5
:10A3700002DF144821461AF041FA1AF00FFB6FF081
:10A380008B0081E7AFF3008000CA9A3B0000000019
:10A39000D6BE898E5555550069A40200EC050020F3
:10A3A000BD390400C5390400CD360400D07805005D
:10A3B0001C7905006C7705008D49FD1A4C79050064
:10A3C00020790500713A040038B5044619F00EFBF7
:10A3D00094F8283094F82820C3F34103013303F0A4
:10A3E0000303032B08BF002363F3420214BF03F1EE
:10A3F0002500252084F8282019F0D6F863680BB1D1
:10A4000023694BB910F08CF8C11C00201AF0E8FC4D
:10A41000BDE838401AF046BD1AF010FD054610F0B0
:10A420007FF8C11C00201AF0DBFC1AF03BFD1AF08B
:10A4300005FD294610F076F8094A03460721A0FBDE
:10A44000020201FB032104A3D3E90023FDF7C4FAB0
:10A4500023691B1A236138BD00CA9A3B0000000023
:10A460008D49FD1A000000002DE9F0478AB004462E
:10A470001AF0D4FAC0B250B919F0E0F8CA4821462F
:10A480001AF0BCF90AB0BDE8F0471AF087BA1AF022
:10A49000E5FA05461AF004FC07461AF00BFC814663
:10A4A0001AF020FE06461AF0FFFD82461AF0BAFBAB
:10A4B000EDB280461AF09AFB19F0C0F8002DDDD0FD
:10A4C000012010F005FE0546002800F0B58117F0C8
:10A4D000FF07F6B240F0ED80002E40F0E4804FF030
:10A4E000FF093A464B463146204619F007FC002842
:10A4F000C4D02A7F616800238DF823305FFA88F783
:10A5000002F00F03002900F0F680616891F82A102C
:10A51000880700F1F080072BB0D094F828100907C5
:10A5200040F12C81002B40F0CE806B7F063B1F2B2F
:10A53000A4D8042010F0CCFD00289FD01AF0BAFC5B
:10A54000636B074643B9638E40F2712202FB03F34B
:10A55000B0FBF3F203FB120723685A68934B072101
:10A56000A2FB030301FB02318DA3D3E90023FDF716
:10A5700033FA6FF4427C00EB0C031F3B62EB0202E8
:10A58000BB4272F10002FFF479AF1AF021FB48469A
:10A59000636818F015FC94F829309907804640F15B
:10A5A000D981002800F0D681824601271AF064FA8A
:10A5B000CDE9027A09AB049305F11E0301932B7FC9
:10A5C000C3F380130146074600930022012320466F
:10A5D00019F0B0FB38461AF0C5F91AF015FA002840
:10A5E00040F0D581724821461AF008F9626892F865
:10A5F0002A3043F0010382F82A3094F8283043F0DF
:10A60000800384F8283010F07DFD172202714FF688
:10A61000FF72C28095F81CC082463B46CCF3401CBA
:10A6200000F11C0207F1200E1D6858689968DF6868
:10A63000D7601033734515605060916002F11002CD
:10A64000F2D11B6813609AF81C30CAF808406CF30A
:10A6500045138AF81C301AF0F1FB002ECAF81000DE
:10A66000099BCAF8143008BF4FF0FF098AF8199007
:10A6700094F8293013F0020303D0B8F1000318BF97
:10A6800001239AF81A2063F300028AF81A2010F0C6
:10A6900039FDCAF80C00DAF8000051460AB0BDE8EE
:10A6A000F04710F059BD5FFA8AF018F0D1FB8146EF
:10A6B00017E794F828005FFA89F1C0F3C00018F09A
:10A6C000A3FB81460DE7012B74D16A7F0C2A7FF42E
:10A6D000D5AE2A7FCDF80090194600230193D20908
:10A6E00005F12403204619F091FA00287FF421AFE8
:10A6F0002B7F03F00F03002B5CD16B7F052B7FF6C4
:10A70000BDAE252B3FF6BAAE94F8282002F0210208
:10A71000202A09D16268002A00F0B080052B7FF65C
:10A72000ADAE252B3FF6AAAE63682BB12B7F03F0AD
:10A730000F03072B7FF4A2AE03209DF8238010F0B7
:10A74000C7FC054600283FF499AE10F0DBFC4FF63D
:10A75000FF73EB8005232B71EFB97F20AB7E28764A
:10A76000002E08BF4FF0FF0968F34103286885F801
:10A770001990AB76294610F0EFFC7FE6B9F1FF0F98
:10A780008DF82490C2F380185AD094F82A2091456D
:10A790003FF4C8AEAFE71AF035FAC0B2DEE700BF4B
:10A7A00000CA9A3B00000000893A04008D49FD1A56
:10A7B000953B0400062BA0D04521D94011F00101A2
:10A7C0003CD1012B10D16B7F0C2B7FF457AE2A7F2D
:10A7D000CDF800900DF123030193D20905F1240374
:10A7E000204619F013FA10BB2B7F03F00F03042B44
:10A7F0007FF444AE6B7F063B1F2B3FF63FAE94F8D1
:10A800002830DB077FF53AAE1AF036F92B7F027855
:10A81000C3F38013B3EBD21F7FF430AE08300622AF
:10A8200005F11E012BF039FC00287FF427AE6B7F69
:10A83000002B7FF479AF21E600DE48E66B7F6DE701
:10A8400005F11E0A09AA5146404618F055FB00289A
:10A850003FF44EAF94F8293003F0010343457FF4F1
:10A8600047AF5146062204F108002BF016FC0028E1
:10A870007FF43EAF2B7F03F00F0353E69620079241
:10A880001AF02EFA079A10461AF0FAF8032010F080
:10A890001FFC804600283FF4F1AD10F033FC4FF66A
:10A8A000FF73A8F80630052388F80430002F58D12C
:10A8B0007F23002E88F8183014BF4B46FF2388F8FA
:10A8C000193098F81A30D8F800006FF3410388F86F
:10A8D0001A30414610F040FC1AF0CEF8064603222A
:10A8E000337862F3030333702B7F3278C3F3801322
:10A8F00063F3C7120C2332704846737018F060FA85
:10A9000094F82920920730D578B33178324641F057
:10A91000400102F8021B0168C6F802108388938088
:10A92000D5F81E30B3606B8CB38130461AF01AF83C
:10A930001AF06AF868BB1AF0B5FA94F8283016488D
:10A9400043F00103214684F828300AB0BDE8F047FF
:10A9500019F054BF94F8287004F12B0AC7F380173C
:10A9600024E61AF04FF9C3B2A3E794F828303278FE
:10A97000C3F3801363F38612334603F8022BD4F833
:10A980002B20C6F80220B4F82F209A80C8E700DEFA
:10A9900028E600DECFE700BF9D3A0400000000007B
:10A9A000F0B5C468A28A4FF6FF739A4285B000F0F2
:10A9B000AE80054619F09AFA2B89628B208CA3830E
:10A9C0001A4492B2104494F82730E28380B2411CBA
:10A9D00021845E064FF00001618304F1220167D4F7
:10A9E00003F03F000B4694F82810009004F1290072
:10A9F00017F0BCFA0646204603A919F0B7FB039BE3
:10AA000094F862101A7861F3C3021A70039A94F8EA
:10AA100062301178C3F3400363F38201117019F0BF
:10AA200019FF002019F03AFF201D19F057FF238964
:10AA3000A17A40F25B6043EA01411AF003F8304624
:10AA400018F0B2FD0399204619F064FB2146364800
:10AA500019F0D4FEE0891AF043F994F84B0000F0A5
:10AA600007001AF00DF827682E68384618F088FDA0
:10AA7000064406F109016A6801201AF03DF91AF04E
:10AA800011FAA18A03313246C9B2384618F07AFD6C
:10AA90000646A8B1AB7A13F0020517D0002523486B
:10AAA000214619F0ABFE19F079FF284605B0F0BD3C
:10AAB0000A4603F03F03218D17F0A4FA06469AE7F1
:10AAC000204618F02BFD48BB0025EEE7184A19492F
:10AAD00019484FF4807323F003FC18480721A6FBA4
:10AAE000000301FB06310EA3D3E90023FCF774FF3A
:10AAF00013490246134823F0F3FB85F31188BFF393
:10AB00006F8F0323184602DF6FF08B05C7E70E48EF
:10AB1000214619F073FE19F041FFD5E700DED3E7B7
:10AB200000CA9A3B0000000071400400A9360400EE
:10AB3000607905001C7905006C7705008D49FD1AC8
:10AB4000B079050020790500CD3604000000000032
:10AB50002DE9F04F93B0CDE90023DDE9007B2BF028
:10AB6000004C0D465CEA0701044611D1031885F438
:10AB70000022524199426F4B934180F0AA80DDE957
:10AB8000002320462946FCF7C1FA04460D4618E08A
:10AB9000694A25F000439342A846F0D8864615D16D
:10ABA0000028ECD19C45EAD824D1002FE7D1634A94
:10ABB000934240F29180BBF1000FC0F21185DDE9B4
:10ABC00000452046294613B0BDE8F08F944502D8D1
:10ABD00010D1002F76D008F1404808F5801858EAC7
:10ABE0000E08CCD1FA198BF400235B419045514AF1
:10ABF0009A41C2E7B8F1000F24DA514A944525D9A9
:10AC00000226002F4ED0204625F00041BEF1000F55
:10AC100040F0AB82484A934240F07B82BBF1000F88
:10AC200005DA02460B4600204649FCF74FFDB8F115
:10AC3000000F04460D46C4DA012EC2D105F10043CF
:10AC40001D46BEE7002F64D00026DCE73B4A944552
:10AC500003D8002FF8D13E4624E04FEA2C52A2F24E
:10AC6000FF32142A0CDDC2F1340227FA02F606FA8A
:10AC700002F2BA42EDD106F00106C6F10206C0E7C3
:10AC8000002F40F03482C2F114024CFA02F606FAA8
:10AC900002F262452B4A28D1944528D006F00106DD
:10ACA000C6F10206BBF1804FADD1274A9342AAD824
:10ACB000264A93424CD922462B4620462946FCF789
:10ACC000DBFB62E703F1404202F5801202437FF4AE
:10ACD0006EAF1C4D002474E7BBF1000F80F280843E
:10ACE000DDE9004303F100456BE79445B3D1BBF1C7
:10ACF000000FBFF666AF0022002320462946FCF76E
:10AD000023FE78B14FEAD87013B0BDE8F04F22F0BF
:10AD100021BF0C4A9445EAD0BBF1804F40F0DD8161
:10AD20003E46C2E722462B4606490020FCF7CEFCF1
:10AD30002BE700BF0000F0FF0000F07FFFFFEF3FB8
:10AD4000FFFF3F430000F03FFFFFEF5F0000501E9A
:10AD50005EEA030E204625F0004100F002824FEA31
:10AD6000D872013A0992324300F0E481CA4A08EAF3
:10AD70000202002A00F0D58200241A15A2F2FF3246
:10AD800022440E92C54AC3F3130343F07F55934206
:10AD900045F4401508DDC24A934240F3CA820E9B37
:10ADA00001330E93A5F580154FF0000A4FEACA0350
:10ADB0000F93BC4B03EBCA03D3E900342946CDE91A
:10ADC0000A341A462346CDE90C01FCF79DF9DDE96A
:10ADD0000C2380468946DDE90A01FCF797F9024613
:10ADE0000B460020B049FCF771FCCDE9100102468A
:10ADF0000B4640464946FCF73FFBCDE90601DDE93D
:10AE00000634CDE9043400230493DDE904346D10E5
:10AE100045F0005505F50025CDE90234002205EB8B
:10AE20008A4314461D462046DDE902232946FCF7E5
:10AE300023FB02460B4640464946FCF765F9DDE92F
:10AE40000A238046894620462946FCF75DF90246DA
:10AE50000B46DDE90C01FCF757F9DDE90223FCF7AD
:10AE60000BFB02460B4640464946FCF74DF9DDE92F
:10AE70001023FCF701FBDDE90623CDE90A011046AA
:10AE80001946FCF7F9FA72A3D3E9002380468946F4
:10AE9000FCF7F2FA70A3D3E90023FCF737F9424636
:10AEA0004B46FCF7E9FA6EA3D3E90023FCF72EF931
:10AEB00042464B46FCF7E0FA6BA3D3E90023FCF7CC
:10AEC00025F942464B46FCF7D7FA69A3D3E900239C
:10AED000FCF71CF942464B46FCF7CEFA66A3D3E9D1
:10AEE0000023FCF713F9424604460D464B46404604
:10AEF0004946FCF7C1FA02460B4620462946FCF7B4
:10AF0000BBFADDE9022304460D46DDE90601FCF744
:10AF1000FDF8DDE90A23FCF7AFFA22462B46FCF7E1
:10AF2000F5F8DDE9022304460D4610461946FCF704
:10AF3000A3FA02460B46CDE90C235C4B0022FCF73A
:10AF4000E5F822462B46FCF7E1F8DDE90223002074
:10AF500080468946FCF790FA544BCDE90201002265
:10AF600040464946FCF7D0F8DDE90C23FCF7CCF865
:10AF700002460B4620462946FCF7C6F8DDE90623C3
:10AF8000FCF77AFADDE90A2304460D4640464946B5
:10AF9000FCF772FA02460B4620462946FCF7B6F843
:10AFA00004460D4602460B46DDE90201FCF7AEF809
:10AFB00033A3D3E90023002080468946FCF75CFADE
:10AFC000DDE90223CDE9060140464946FCF79CF83D
:10AFD00002460B4620462946FCF796F82AA3D3E9F9
:10AFE0000023FCF749FA2AA3D3E9002304460D46BF
:10AFF00040464946FCF740FA02460B4620462946A1
:10B00000FCF784F80F9A2A4B1344D3E90023FCF78A
:10B010007DF8CDE902010E98FCF7C4F90F9A254B93
:10B020001344D3E900890446DDE902230D46DDE936
:10B030000601FCF76BF842464B46FCF767F82246E0
:10B040002B46FCF763F8002022462B4634E000BF75
:10B05000EF4E454A287ECA3F65DBC9934A86CD3FFD
:10B0600001411DA96074D13F4D268F515555D53FE3
:10B07000FFAB6FDBB66DDB3F033333333333E33F7B
:10B08000000000E009C7EE3FFD033ADC09C7EE3FD0
:10B09000F5015B14E02F3EBE0000F07F8E980300A8
:10B0A00079B60B00286F05000000F03F0000084053
:10B0B000086F0500186F0500CDE90401FCF724F8BE
:10B0C00042464B46FCF720F8DDE90623FCF71CF866
:10B0D00002460B46DDE90201D6E0BB4A934515D195
:10B0E0002046294613B0BDE8F04F22F013BCBEF154
:10B0F000000F1FD1B54A9342204625F0004107D1E9
:10B10000BBF1000FBFF641AD76468AE53E467AE5D3
:10B110007646AF4A934217D1BBF1000F05DA0246DB
:10B120000B460020AA49FCF7D1FAB8F1000FBFF690
:10B130002CAD36B92046294613B0BDE8F04F22F0B9
:10B1400015BD04460D4677E57BB9BBF1000F08DA63
:10B15000B8F1000F03DA731E58425841D4E518467F
:10B16000D2E5012E7FF411AD2BE54FEAD87202F142
:10B17000FF3ECDF824E05EEA060EDBD0BCF1844F42
:10B180007FF6F4AD934CA445934C13D9A34208D851
:10B19000BBF1000F08DA002013B0BDE8F04F22F039
:10B1A000CDBCBBF1000FF6DC002013B0BDE8F04FC2
:10B1B0002BF0DFB8A34205D2BBF1000F02EA060074
:10B1C000F3DAE9E7824CA34205D9BBF1000F02EAAA
:10B1D0000600E1DCE9E77E4B0022FBF795FF70A358
:10B1E000D3E9002304460D46FCF746F96EA3D3E9E4
:10B1F00000238046894620462946FCF73DF9774BD7
:10B20000CDE90201002220462946FCF735F9024625
:10B210000B4667A1D1E90001FBF776FF22462B46DA
:10B22000FCF72AF902460B4600206749FBF76CFF42
:10B230002246CDE904012B4620462946FCF71CF99D
:10B2400002460B46DDE90401FCF716F95AA3D3E9DF
:10B250000023FCF711F902460B46DDE90201FBF77A
:10B2600053FF02460B4604460D4640464946FBF74F
:10B270004DFF002042464B46CDE90401FBF744FF59
:10B2800002460B4620462946FBF73EFF099B013E3E
:10B290001E4314BF4E4B524B00220026CDE9022321
:10B2A00004460D465B46DDE900013246FBF72CFF04
:10B2B000DDE90423FCF7E0F85F46DDE900238B4677
:10B2C000824629462046FCF7D7F802460B465046F0
:10B2D0005946FBF71BFF3246CDE900013B46DDE94D
:10B2E0000401FCF7C9F80B46024680468946DDE9B1
:10B2F0000001FBF70BFF3B4B994204460D468B4682
:10B300003BDD01F13F4303F5E003034314D0DDE9E6
:10B31000020100220023FCF721FB801B18BF012043
:10B320003AE7314B0022FCF7A7F86FF034040B46E4
:10B3300023E54FF0010A39E521A3D3E90023DDE934
:10B340000001FBF7E3FE424606460F464B46204609
:10B350002946FBF7D9FE02460B4630463946FCF734
:10B360001BFB002850D0DDE9020100220023FCF77E
:10B37000F5FA003818BF01200EE71C4C21F00043FD
:10B38000A34244D91A4B0B44034333D0DDE90201F5
:10B3900000220023FCF7E2FA003818BF012004E77E
:10B3A000000000604715F73F44DF5DF80BAE543EE8
:10B3B000555555555555D53FFE822B654715F73FD9
:10B3C000FE822B654715973C0000E03F0000F07FB0
:10B3D0000000F03F0000F043FFFFEF3F0000D03FD0
:10B3E0000000F0BFFFFF8F4000004043FFCB9040C4
:10B3F00000346F3F42464B46FBF786FEDDE90023F3
:10B40000FCF7C0FA0028C1D140F2094304E0864AA3
:10B41000934240F2E1801B15A3F2FE334FF4801AF1
:10B420004AFA03FADA44CAF30A518048A1F2FF311A
:10B43000084100EA0A03CAF3130AC1F114014AF4ED
:10B44000801A4AFA01FABBF1000F404649464FF014
:10B450000002B8BFCAF1000AFBF756FE80468946D3
:10B46000DDE9002340464946FBF750FE00245EA379
:10B47000D3E9002320460D46FBF7FEFF4246064671
:10B480000F464B4620462946FBF73EFE02460B463A
:10B49000DDE90001FBF738FE55A3D3E90023FBF7F4
:10B4A000EBFF55A3D3E90023804689462046294671
:10B4B000FBF7E2FF02460B4640464946FBF726FEF5
:10B4C00004460D4602460B4630463946FBF71EFE43
:10B4D00032463B4680468946FBF716FE02460B463F
:10B4E00020462946FBF710FE424606460F464B46CD
:10B4F00040464946FBF7C0FF41A3D3E90023044679
:10B500000D46FBF7B9FF40A3D3E90023FBF7FCFD91
:10B5100022462B46FBF7B0FF3DA3D3E90023FBF700
:10B52000F5FD22462B46FBF7A7FF3BA3D3E90023FB
:10B53000FBF7EAFD22462B46FBF79EFF38A3D3E933
:10B540000023FBF7E3FD22462B46FBF795FF02465F
:10B550000B4640464946FBF7D7FD04460D460246DA
:10B560000B4640464946FBF787FF0022CDE9000124
:10B570004FF0804320462946FBF7C6FD02460B46A6
:10B58000DDE90001FCF7A2F8324604460D463B46D1
:10B5900040464946FBF770FF32463B46FBF7B6FD97
:10B5A00002460B4620462946FBF7AEFD42464B4677
:10B5B000FBF7AAFD02460B4600201D49FBF7A4FD40
:10B5C00001EB0A54B4F5801F08DA524622F05AFA09
:10B5D000DDE90223FFF773BBB24641E72146F7E7F7
:10B5E00000240025FFF7EDBA00000000432EE63FDF
:10B5F000EF39FAFE422EE63F396CA80C615C20BEA2
:10B60000D0A4BE726937663EF16BD2C541BDBB3E68
:10B610002CDE25AF6A56113F93BDBE166CC1663F46
:10B620003E5555555555C53F0000E03F0000F0FF21
:10B630000000F03F084B1A68904208D0D3F8A020D1
:10B64000904206D10122A02101FB02307047002266
:10B65000F9E70020704700BF08240020064803686F
:10B660001BB1D0F8A03023B90123A02202FB0300B4
:10B6700070470020704700BF0824002009490A488D
:10B6800008B507F0D5F8014638B110F1780F04D0AD
:10B69000BDE80840054822F016BEBDE80840044851
:10B6A00022F011BE31BE0200B48505001C860500E3
:10B6B0003F860500F0B587B00646FFF7BBFF03469F
:10B6C00000283AD01E4A01AD02F1100C2C46106839
:10B6D00051682F4603C7083262453D46F7D11278BC
:10B6E0003A7003F164020DF1140C1746254603CDA0
:10B6F0006545106051602C4602F10802F6D12978A8
:10B700001170104ADA674FF6FF72A3F88620012401
:10B7100003229F67A3F8804083F8882003F1780113
:10B7200030460AF0C3FE034638B1074A07482146AF
:10B7300007B0BDE8F04022F024BA07B0F0BD00BF6A
:10B74000706B05005DB90200518605001C6B050099
:10B750002DE9F0418CB006460D461746FFF76AFF0B
:10B76000044640B95F4A6048012122F00CFA0020EB
:10B770000CB0BDE8F08155B95C4A5B48022122F06B
:10B7800002FA1422294638462AF07FFCEFE7584B8C
:10B79000D0F838C002AA03F1100896461868596814
:10B7A000174603C7083343453A46F7D11B783B7029
:10B7B0007146604625F0A3F94E4F002836D1A7F117
:10B7C000100307AA186859689446ACE803000833C8
:10B7D000BB426246F6D11B788CF8003004F1260398
:10B7E00007AF0DF12C0E9C463A4603CA724518600D
:10B7F0005960174603F10803F6D112781A70C4F89D
:10B8000038C02B8A0133A4F84030032384F8483031
:10B8100004F1380130460AF049FE03460028A6D05C
:10B82000354A3148012122F0ACF9A0E7D4F838E0DC
:10B83000A7F1100307AA186859689446ACE80300FA
:10B840000833BB426246F6D11B788CF8003007A95A
:10B85000704625F054F9074608BB284626F0ADFF90
:10B8600042F60213ADF806308DF804702346019AB3
:10B87000A4F8540043F8262FA3632B8A0233A4F8BC
:10B880004030042384F8483004F1380130460AF08F
:10B890000DFE034600283FF46AAF184AC1E7184A74
:10B8A0001148032122F06FF90127164BE364A4F835
:10B8B00058702B8AA4F8563004F14C0130460BF036
:10B8C000BBFB034620B110F1780F01D00E4AA8E768
:10B8D0000E4A0548032122F056F93046FFF7EAFEEA
:10B8E00045E700BF6D8605001C6B05008D860500D1
:10B8F000816B0500A26B0500B5860500D6860500A4
:10B90000F38605007DBB02001B8705003587050017
:10B9100070B50378092B04460D4619D14678112ECF
:10B9200011D10C49324660682AF0B7FB80B928462D
:10B93000012300F8013B3246616835442AF097FB49
:10B940000020687070BD032E02D103493246EAE739
:10B950000120F7E7588705002C8B0500B0B5144689
:10B9600000AF0D4661B9154A1548022122F00BF9C6
:10B970001422294620462AF088FB0020BD46B0BD8F
:10B98000FFF758FE04460028F7D0284626F015FF9A
:10B990006D468AB0A0806A460A4B53614FF400732B
:10B9A00013840634084BC2E906404FF4135142F8A1
:10B9B000103F034822F0F4F8AD46DEE76A87050041
:10B9C0001C6B05008A870500040000012DE9F8437F
:10B9D0002E4DD5F8009000AF044688461646B9F1C2
:10B9E000000F04D00146A81DFCF710F808B3D5F8E5
:10B9F000A090B9F1000F04D025482146FCF706F8C5
:10BA0000B0B16D4688B06A46224B2348C2E905347E
:10BA10004FF400739383214B42F8103F4FF4E251EF
:10BA200022F0BEF86FF00100AD46BD46BDE8F883D8
:10BA30000120A0234343EA189188A1B96D4688B03C
:10BA40006A46174B1448C2E905344FF400739383D8
:10BA5000124B42F8103F4FF4E25122F0A1F86FF080
:10BA60001500AD46E1E70F48A2F890108C33002195
:10BA7000C2F88C00A2F892104846E918C2F89480E7
:10BA8000A2F898600BF040FACFE700BF082400202E
:10BA9000AE240020B08705001C6B050003000001E8
:10BAA000C887050089C3020037B5054626F0D7FED2
:10BAB0000446284626F0D3FE0346033CA4B2044ABB
:10BAC00004480094032123F03BFC03B030BD00BFC9
:10BAD000F08705001C6B05000B4621B1034A0448A2
:10BAE000012122F04EB8FFF7DFBF00BF2688050016
:10BAF0001C6B0500F7B504468368DB6B2BBBA368A2
:10BB0000DB6A3BBB194D1A4EA3681B6903B30122C4
:10BB10000DF1070120469847012819D19DF807200B
:10BB20002B680A2A01D00D2A19D1002BECDD002741
:10BB3000F7540F490F480022002329F0B8FD10B137
:10BB40000D4822F0C0FB2F60DEE798470028D6D1D1
:10BB500003B0F0BD204698470028D3D1F8E7B3F5ED
:10BB6000FF7FDEBF591CF2542960CDE75425002029
:10BB700089540020A0080020438805002DE9F043E7
:10BB8000ADF50F7D0D4602AF1E4614465AB9594811
:10BB9000594A022121F0F7FF2C81204607F50D7745
:10BBA000BD46BDE8F083FFF745FD002839D0837915
:10BBB000002B36D0851DFF2EB04628BF4FF0FF0862
:10BBC0004246214607F130002AF051FA07F13002CF
:10BBD00000236C468AB002F8083002AA474B454859
:10BBE000C2E9053507F13003D361454B1362454B7C
:10BBF00042F8103F4FF4235121F0D2FF424807F1A1
:10BC00003001A54622F05FFB404907F130002AF0E1
:10BC100070FA40B13E4A3748032121F0B4FF0120B9
:10BC2000BCE73C4DC7E73C4907F130002AF061FA18
:10BC300028B13A4807F1300122F045FBEFE73C1DFF
:10BC40000523374A0094314607F1300001F092FC99
:10BC5000031E04DA334A2748032121F092FFBFF381
:10BC60005B8F314B1B68BFF35B8F43BB2F4BD4F80B
:10BC700004902569BB61D4E902682AF0B4F84FF456
:10BC80007A72A0FB020302FB0131C00B40EA414083
:10BC90004FF48073C7E90709C7E90986FD622448A4
:10BCA000009307F1180207F59873032101F0E4FDF2
:10BCB000002804DB194807F5987122F004FB61683D
:10BCC0001C4821F0E3FF05460028A8D04FF0FF32C2
:10BCD0004FF0FF3318481FF037F894F9101028463A
:10BCE00021F0E4FF14481FF0A7F814481FF026F9CC
:10BCF00095E700BF1C6B05006D8805007C8805007A
:10BD000000020103040000026E9B05008488050008
:10BD10009288050065880500BE880500CE8805006C
:10BD2000386F0500D288050088020020E8880500E9
:10BD3000C06F0500482500208C080020180900204D
:10BD400070B503788AB004460E4607AD032B20D8A1
:10BD5000DFE803F002191B1D11492846FBF760FEBE
:10BD6000059563780493A3780393E378029323798A
:10BD7000019363790093A3790A4A1E21304620F08B
:10BD8000A9FA0AB070BD0849E7E70849E5E708499C
:10BD9000E3E7084A0A21284620F09CFAE0E700BFC2
:10BDA000F088050012890500F7880500FE88050067
:10BDB0000889050099B20500F0B589B000AF0D46BD
:10BDC000044625F04CFB3946FFF7BAFF6E468AB0B1
:10BDD0006A46134BD561C2E905374FF400731384EB
:10BDE000104B42F8103F10484FF4135121F0D8FE89
:10BDF0002046B546FFF71EFC044668B1006807F010
:10BE00006BF9A022002120462AF03FF907484FF4A1
:10BE1000804200231FF014FB2437BD46F0BD00BF55
:10BE200035890500040000011C6B0500000000209E
:10BE30002DE9F04798469CB0624B1B688A466249E0
:10BE40008B4200AF0646144640F0A380FFF706FC85
:10BE5000054600287BD0012C01D9042C77D15B4CFE
:10BE600007F14C0C04F1200E6246206861686346BD
:10BE700003C3083474459C46F7D123788CF800300E
:10BE80005349404604F0C0FA97F84C30002B5ED07E
:10BE900007F10C0421463046FFF752FFE9468AB00D
:10BEA0006A464C4B4C48C2E905344C4B536207F18F
:10BEB0004D084B4BC2E9078A4FF4435142F8103FFB
:10BEC000DFF820A121F06CFECD464FF000095AF8B2
:10BED000290058B125F0C3FA07F12C01FFF730FF14
:10BEE000214607F12C00FBF791FD80B3B9F1280F33
:10BEF00031D106F0EDFC814648BB3B4B0FCB07F13F
:10BF00002C0C8CE80F00394A4FF0C873C7E90123A5
:10BF100030462B463A1D614607F02CFE0646E8B136
:10BF2000E8468AB06A46324BD061C2E905344FF424
:10BF3000007313842F4B42F8103F27484FF41151E0
:10BF400021F02EFEC546C5F80090FFF797FB70372D
:10BF5000BD46BDE8F0874FF02809B8E7AB1D1F22AA
:10BF6000414618462AF0A9F885F825606D468AB042
:10BF70006A462149194B1362204BD061C2E905146E
:10BF800042F8103F4FF42351134821F009FEAD460B
:10BF9000DDE70C318B42DAD107F10C042146FFF7C3
:10BFA000CFFE6D468AB06A46154BC2F81CA0C2E9A6
:10BFB00005344FF4007313840E4B42F8103F4FF4D6
:10BFC0001351E1E7F8230020886F0500A36B0500FB
:10BFD00011B90200568905001C6B0500000201031F
:10BFE0000500000208240020C46B0500180028008A
:10BFF0007C890500040000019A8905000400000204
:10C00000BA890500F0B58FB0054600AF5C480C4614
:10C0100022F059F9284625F022FA07F11801FFF716
:10C020008FFE8CBB574B1A68D3F8A030003A18BF6C
:10C03000012203B101325448022307F1180122F012
:10C0400042F96C4688B06A46504B536107F11803B9
:10C0500093614FF4007393834D4B42F8103F4D486A
:10C060004FF4E65121F09CFD2846A546FFF7E2FA81
:10C07000044680BB484A4748012121F084FD132132
:10C08000284625F0DCF823E06E468AB06A46434B2A
:10C09000536107F11803C2E906344FF400731384A7
:10C0A0003F4B42F8103F3B484FF4115121F078FDCF
:10C0B0002846B546FFF7BEFA044638B1006807F0D7
:10C0C0000BF8A0220021204629F0DFFFFFF7D6FA67
:10C0D0003C37BD46F0BD334B7B60391D284625F00B
:10C0E000C4F9034620B1304A2A48012121F049FD14
:10C0F00021462E4B41F89C3F28460AF0ABF92C4BC9
:10C100003A1D03F1100C18685968164603C6083327
:10C1100063453246F7D11B78337004F126023B1D8C
:10C1200007F1140E94461E4603CE7645106051600A
:10C13000334602F10802F6D1337813701D4BE363E6
:10C140000123A4F840304FF6FF73A4F846300023D3
:10C15000C4F838C084F8483004F1380128460AF0A1
:10C16000A5F92846FFF7A6FAFFF778FA0028AFD01E
:10C170004FF40042002310481FF062F9A8E700BF07
:10C18000D589050008240020F0890500108A0500E3
:10C19000030000011C6B05003F8A05001E8A050094
:10C1A00004000001FB009042618A0500D9BA020038
:10C1B000816B050051B702000000002080B54D4C96
:10C1C000A368ADF5826D2BB11B6C1BB14A490022EF
:10C1D00020469847A3681B6A0BB1464898474748D2
:10C1E000474D484E484F22F06EF84FF0FF334FF066
:10C1F000FF3204A928461EF043FD4FF4007204A943
:10C2000084A829F05AFF02AC002304A8C4E9003333
:10C21000FBF70EFC009401460223324604A801F00D
:10C22000A9F9011E01DBCB0703D4384622F04BF8F5
:10C23000DBE736492068FBF7E9FB60B9334934484E
:10C240000422FFF7C3FB034600282ED0314A3248B0
:10C25000012121F096FC31492068FBF7D7FB58B942
:10C260002E492B480722FFF7B1FB034618B32C4A8F
:10C270002948012121F085FC2A492068FBF7C6FBEB
:10C280000028B2D1646828492046FBF7BFFBF0B90B
:10C29000264903222648FFF799FB034688B1254A21
:10C2A0001D48012121F06DFC9FE7234A1A48032114
:10C2B00021F069FCCFE7214A1748032121F063FCF4
:10C2C000DAE71F4A1448032121F05DFC8DE71D4980
:10C2D0002046FBF79BFB10B91B490322DAE71B49F9
:10C2E0002046FBF793FB00287FF47FAF1849032219
:10C2F000D0E700BFE0650500F5BA0200848A0500BA
:10C30000A0080020A06F0500D2880500A7920500B4
:10C310002C8B0500A28A05001C6B0500DF8A050036
:10C32000E98A0500308B05003B8B0500408B05003A
:10C3300058870500448B0500C68A0500128B05004E
:10C340006E8B05008E8B0500958B0500998B050083
:10C350009E8B050008B5054829F0C6F820B9BDE850
:10C360000840034821F0AFBFFFF728FFE065050054
:10C37000A28B05000346024A0248032121F001BCBA
:10C38000B98B05001C6B05000B4621B1034A04481C
:10C39000012121F0F6BB9089FFF7ECBFD38B05009C
:10C3A0001C6B050010B50948094C4FF0FF324FF0E7
:10C3B000FF331EF0FDFD204623F0C1F928B900210E
:10C3C00040F6CD4029F066FCF5E710BD600900207D
:10C3D000F823002010B5054C4FF0FF324FF0FF332B
:10C3E00020461EF0E5FDFBF77BFCF5E71809002071
:10C3F00010B5002005F02CF90446FBF7C1FD2CB167
:10C400000C48214621F05FFF002010BD03210A4A9D
:10C410000A4821F0B8FB4FF42032002308481FF0EF
:10C420000FF80849084823F07EF908481EF086FDF9
:10C43000EAE700BFFA8D05001A8E05001C6B0500A7
:10C4400000000020886F0500F8230020600900200C
:10C4500010B5782204460021083029F016FE054B5D
:10C460000022C4E90023C4E90A23C4E91423C4E96F
:10C470001E2310BD0000F03F2DE9F04F91B084075E
:10C48000009302F004030293C2F3C20303F1010319
:10C49000DDF86880039205460E46059340F0BA81A8
:10C4A000041D30B1072909D86FF01B0011B0BDE899
:10C4B000F08F01F007063444C6F10806009B4FF0E8
:10C4C0000009591E4FF0040A4FF0FF330193CDF8D5
:10C4D00010904F46CB4653460DB1009A2260059806
:10C4E000002800F3E8809848009A824203D39748D6
:10C4F0008242C0F0E080039AA4EB050E92074FEA57
:10C500009E0000F103810F2F00F2B180002D00F09A
:10C51000058107F140020DEB020C019A0CF8200C8A
:10C520000CF8102C049801300490E7E07A285DD8CC
:10C530004B280ED8472859D829282DD8252852D03D
:10C5400054D820287AD02338D0F1000B4BEB000BC5
:10C5500074E04C382E2849D8DFE800F0704848488D
:10C5600048484848484848484B4848484848484848
:10C570004859484B4B595959704B6D487048184BA6
:10C58000184848827F4B48484B487F0000204FF0B6
:10C59000000B4FF0040A38E02A38C0B2012202FA38
:10C5A00000F010EA0E0F49D110F0625C2FD110EAB2
:10C5B000020B43D06046013C5444B4FBFAF40AFB3E
:10C5C00004F4002D61D0A3EB050CA444B4453FF660
:10C5D0006BAF002868D1042B47D158F8043B236087
:10C5E000043404232AE0019A013A01924FF0000B2F
:10C5F00024E011F8010C6C2834D111F8023C002021
:10C600006C2B8346C5D14FF0080A5346D3E708F197
:10C61000070828F007080734F8E802AB24F00704FD
:10C6200035B106982044B0423FF63EAFC4E900ABB6
:10C6300008344FF0000B4FF0080A534611F8010F71
:10C64000002878D0BBF1000F7FF470AF2528F5D11A
:10C65000019B013301934FF0010B4FF0040AECE70B
:10C66000584694E700208346A5E7082B02D06FF0D8
:10C6700015001BE708F1070828F00708F8E802236F
:10C68000C4E9002308340823D8E768B9042B02D191
:10C6900008F10408A4E7082BE9D108F1070828F0FD
:10C6A000070808F10808EDE7059A013A059258F8DD
:10C6B000042B009210E7039A900720D5A4EB050EF7
:10C6C0004FEA9E004FF0010CBEF5007FCFD20F2F36
:10C6D000CDD8F5B107F140020DEB020EC0B2019AC0
:10C6E0000EF8200C0EF8102CBCF1000F3FF41AAF1E
:10C6F00060F07F000EF8200C09F101090137C5F147
:10C700000802043406924FF6DA7E97E74FF0000CE9
:10C71000DAE7BCF1000F01D00136EFE702980236EC
:10C720000028EBD10098CDE90631FBF781F9DDE96E
:10C7300006310644E2E7631BB3F5806F97D23DB93B
:10C74000A6F10804E018B1E6D064050048BB050076
:10C75000029A28609B082B709DF81030C2B1EB70D4
:10C7600085F80290B9F1000F05D008A80022C5F1A4
:10C77000010C97420ED1C5F101030DF120084FF0D5
:10C78000000A01930DF1300B574512D1601B8DE665
:10C790006B70E5E710F8013B190608D50CEB040EA9
:10C7A000B64503F07F033FF67FAE04F8013B01324C
:10C7B000DFE7B9F1000F03D098F90020002A17DB5A
:10C7C000029BD3B11AF80B2004F8012B0022019B25
:10C7D00018191044B0423FF667AE98F8000004F80C
:10C7E000010B00990392204629F041FC039A14445E
:10C7F0000AF1010A08F10108C6E798F8002055F887
:10C8000022300093029B45F822300098FBF710F984
:10C81000421CDCE76FF00D0048E600BF2DE9F04F49
:10C8200097B000AF90F802A0D7F880B03B62CBF38E
:10C83000C0030446FA62BB61894641B94578007875
:10C840000AEB800020444D4517D8A0EB0409E3789B
:10C85000FB61BAF1000F02D01BF0010F16D1FB698A
:10C8600053BBFB6A1BB13A6A4946204698474D467E
:10C8700028465C37BD46BDE8F08F461C3046FBF7C6
:10C88000D7F80130304409F10109DCE72378626808
:10C890007A62FA6A9900796104EB8301002A40F018
:10C8A00000814D460E4601EB0A094FF000084E4547
:10C8B0004CD101EB0A0610E01BF0020FD1D0237817
:10C8C0009A007A6162687A62FA6A04EB8301002A4C
:10C8D00077D14D4601EB0A0690461BF0050F0CBFC1
:10C8E00002230123FB62FB6906EB430A0BF0020300
:10C8F000BB625645BCD016F8021B16F8013C54F832
:10C900002390994B994502D3984B994536D3BB69EF
:10C91000002B40D0786A21F0ADFC00283BD0E946DE
:10C920008AB06A46924B53617B6AC2E906314FF482
:10C93000007313848F4B42F8103F8F4800234FF44D
:10C94000125101F04DFA023DCD46D2E716F8013BF7
:10C95000F96254F82300FBF76BF8D7F88430F96AD2
:10C9600001304BB1D7F8883098453EBFD7F88430B6
:10C9700023F8180008F10108054498E7BB6923B1C2
:10C98000786A21F077FC0028C9D11BF0010F05D18E
:10C99000FB6AED1AADE7BB6A002BAAD04846FBF74D
:10C9A00047F8D7F8843053B1D7F8883098453FBF5F
:10C9B000D7F88420431C22F8183008F101080544F8
:10C9C00097E7BAF1000F72D01BF0040672D0D04680
:10C9D000002607F1480052463B61B96229F047FB47
:10C9E000B96A3B6901EB0A02BA62FA69F969520055
:10C9F000FA60BA6A02EB41023A610BF00202BA60D5
:10CA00003A69B96A8A4257D162787A621BF0020F9A
:10CA100032440CBF4FEA580100211BF0010FD2B283
:10CA200040F09F801BF0040F14BF40460020BB6104
:10CA30006270A070E1703A6A7969FB6A2046984793
:10CA4000051EFFF615AFBB6923707B6A6370FB6937
:10CA5000E37041463A6AFB6A84F802A007F1480095
:10CA60009847B0F10008C0F2BB807B693A6AA9EB35
:10CA70000A01C91AFB68C91AD7E90A0398470028AE
:10CA8000C0F2B080A84408EB00054FF0000B07F19E
:10CA9000380AB34572D300213A6AFB6A08469847C0
:10CAA000E6E656464FF0000807F1380093E7564691
:10CAB000D04697E7B04695E7BA6A12F8021BBA6209
:10CAC00012F8015C284A54F82500904202D3274A04
:10CAD00090421ED3BA6932B1786A7B6021F0CAFBFA
