:020000022000DC
:107000004084002049C102001FC6040035C10200AF
:1070100035C1020035C1020035C102000000000088
:1070200000000000000000000000000011C202008B
:1070300035C1020000000000ADC1020035C10200F0
:10704000E1C3020039070400E1C30200E1C302000A
:10705000E1C30200E1C30200E1C30200E1C3020098
:10706000E1C30200E1C30200E1C30200E1C3020088
:10707000E1C30200E1C30200E1C30200E1C3020078
:10708000E1C30200E1C30200E1C30200E1C3020068
:10709000E1C30200E1C30200E1C30200E1C3020058
:1070A000E1C30200E1C30200E1C30200E1C3020048
:1070B000E1C30200E1C30200E1C30200E1C3020038
:1070C000E1C30200E1C30200E1C30200E1C3020028
:1070D000E1C30200E1C30200E1C30200E1C3020018
:1070E000E1C30200E1C30200E1C30200E1C3020008
:1070F000E1C30200E1C30200E1C30200E1C30200F8
:1071000053B94AB9002908BF00281CBF4FF0FF310E
:107110004FF0FF3000F00CB8ADF1080C6DE904CE73
:1071200000F022F8DDF804E0DDE9022304B0704746
:10713000704700BF10F8012B11F8013B012A28BF4E
:107140009A42F7D0D01A7047034611F8012B03F882
:10715000012B002AF9D17047034613F8012B002AAE
:10716000FBD1181A013870472DE9F04786468C4646
:107170000846089E154674461946002B40F0C2800A
:107180008542B2FA82F245D94AB1C2F1200300FA2F
:1071900002FC2EFA03F3954043EA0C0C94404FEAAC
:1071A000154EA8B2BCFBFEF8230C0EFB18CC08FB56
:1071B00000F943EA0C43994528D9EB1808F1FF3749
:1071C00004D2994502D9A8F102072B44A3EB090385
:1071D000A4B2B3FBFEFC0EFB1C330CFB00F044EA34
:1071E0000344A04214D92C190CF1FF3304D2A0425D
:1071F00002D9ACF102032C44241A43EA07401EB121
:10720000D440002334607360BDE8F0874746DDE773
:107210006346F1E792BB431B01214FEA154EAFB223
:10722000B3FBFEFC200C0EFB1C330CFB07F840EA02
:107230000343984562D9EB180CF1FF3004D298450E
:1072400002D9ACF102002B44A3EB0803A4B2B3FBB8
:10725000FEFC0EFB1C330CFB07F744EA0344A74279
:107260004ED92C190CF1FF3304D2A74202D9ACF14C
:1072700002032C44E41B43EA0040C0E7C2F12003B0
:1072800020FA03F1954090402EFA03F303434FEAAE
:10729000154EAFB2B1FBFEFC0EFB1C10190C0CFB23
:1072A00007F841EA0041884504FA02F422D9691836
:1072B0000CF1FF3004D2884502D9ACF10200294418
:1072C000A1EB08019BB2B1FBFEFC0EFB1C110CFBF9
:1072D00007F743EA01439F420ED9EB180CF1FF3147
:1072E00004D29F4202D9ACF102012B44DB1B41EADC
:1072F000004192E76046E3E76146F7E76046A3E7AF
:107300006346B7E7834206D916B9002108467BE7F2
:10731000C6E900E0F9E7B3FA83F78FB9834201D3F6
:10732000724508D8BEEB020460EB030301209C46C3
:107330001EB9002168E73846FAE7C6E9004CF8E7CD
:10734000C7F1200CBB4022FA0CF41C432EFA0CF1BE
:1073500020FA0CF3B84001434FEA14490EFA07F53E
:10736000B3FBF9F81FFA84FE09FB18300B0C08FB7D
:107370000EFA43EA00439A4502FA07F240D9E318AD
:1073800008F1FF3004D29A4502D9A8F10200234443
:10739000A3EB0A0389B2B3FBF9F809FB183308FB26
:1073A0000EFE41EA03418E452CD9611808F1FF33E6
:1073B00004D28E4502D9A8F10203214443EA0040D9
:1073C000A0FB0298A1EB0E014145CE46434602D3F5
:1073D00006D14D4504D2B9EB020E68EB0403013827
:1073E000002EA6D0B5EB0E0261EB030101FA0CFCF6
:1073F00022FA07F34CEA0303F940C6E9003198E7A3
:107400004046C5E74346D9E7F0B5002285B01146AE
:1074100002AF40F6034007F0E5FB044600285BD1CD
:1074200007F08EF821463A1D41F2030007F0DAFB1F
:107430000446002850D17A68C14DD168D1F80100C6
:10744000D1F8051005F1780303C3104605F0A6FA3C
:1074500021463A1D41F2010007F0C4FB0446002812
:107460003AD17868C3685A7885F870205A88A5F8A8
:1074700072201A7985F87120B3F80720A5F87420D6
:10748000B3F80530A5F8763005F088FA21463A1DA4
:1074900041F2020007F0A6FB0446E8B9D7F804C0A1
:1074A000DCF80C2005F18006531C4132186859683D
:1074B000344603C4083393422646F7D1604605F0AC
:1074C0006DFA95F87C305B060AD49E4A9E480121ED
:1074D00026F0A0FC6FF0120420460C37BD46F0BD2C
:1074E0003A1D002142F2030007F07CFB044600280D
:1074F000F2D17A68954BD168D1F80100D1F8051026
:1075000003C3104605F04AFA21463A1D42F2020032
:1075100007F068FB04460028DED17E68F468B4F802
:1075200001309AB292B1E27882B1A5F80431E378E1
:10753000032B06D0032200928348854A022124F0BF
:10754000A8FFE278834811462BF042FA304605F056
:1075500025FA95F87C6016F0200619D14FF0FF301F
:107560004FF0FF3107F016F80446002800F09D8028
:1075700002210C3025F01BF90123037046702146CF
:10758000324640F66D4007F02DFB04460028A3D19B
:1075900095F89C301E0712D53A1D002142F21C00BE
:1075A00007F020FB0446002896D17868C368D3F81A
:1075B0000120D3F80530C5E9382305F0EFF995F837
:1075C000D8305C0610D53A1D002142F22A0007F09F
:1075D00009FB044600287FF47FAF7868C3685B78B6
:1075E00085F8203105F0DAF94FF0FF304FF0FF3128
:1075F00006F0D0FF0446002857D008210C3025F0B3
:10760000D6F895F8D81011F0400F024640F2022348
:1076100008BF032388074CBF43F02C0043F00C0045
:107620008B0695F8D93048BF40F0400013F0090FA1
:1076300018BF40F40060CE0748BF40F010000021A2
:1076400026F012FC2146002242F2010007F0CAFA9D
:10765000044600287FF440AF95F87C30B5F804115B
:10766000980625D4C9B93A1D41F2050007F0BAFAC7
:10767000044600287FF430AFB5F804317C684BB97C
:10768000E368B3F80120A5F804219A88314811462F
:107690002BF09EF9204605F081F94FF0FF304FF0B6
:1076A000FF3106F077FF044660B96FF0680413E716
:1076B0000029F2D1284A2448012126F0ABFB6FF0C3
:1076C000040409E708210C3025F071F895F8D8304A
:1076D000D907024629D421484FF0005126F0C4FBB7
:1076E0002146002240F6014007F07CFA04460028BB
:1076F0007FF4F2AE01463A1D4FF6014007F072FAF0
:1077000080B3174A1048022126F084FB08F07AF96A
:10771000044600287FF4E0AE09F01AFF0446002872
:107720007FF4DAAE07F022F8D6E603A1D1E9000132
:10773000D4E700BFAFF300809088000200800020F3
:10774000080100200A6A05003C3B0500E00100201A
:107750002E6A050010020020746A050010880002DD
:10776000976A05007B68DC68B4F80130032B96BF8C
:10777000434A444952F823106E468AB002AA42484E
:10778000D3614FF400731384404BC2E9050142F802
:10779000103F3F484FF4135126F056FBB4F8012038
:1077A000B4F80330022AB54649D1052B47D8394AE7
:1077B00052F823106E468AB002AA3748D3614FF4BC
:1077C00000731384314BC2E9050142F8103F4FF4B6
:1077D00013512F4826F038FB637994F806C0D4F88B
:1077E0000900032BB54698BF2C4AB4F8076094BF34
:1077F00052F8231023496C468CB002AADFF8A0E0AF
:10780000C2E9073C4FF400739385264BC2E905E1BA
:10781000C2E909604FF4735142F8103F1C4826F04A
:1078200013FBA546786805F0B9F83A1D00214FF61C
:10783000024007F0D7F9044618B11B4A62E7114924
:10784000B8E77868C368B3F80130A5F8C13005F02F
:10785000A5F895F8C1305B077FF558AF3A1D214672
:107860004FF6034007F0BEF908B1104A4AE77868BE
:10787000C3685B7885F8C03005F090F846E700BF34
:10788000204105002A570500BB6A050004000001DD
:107890003C3B050008410500D46A0500F84005009E
:1078A000EC6A050007000001196B0500426B05003A
:1078B00038B51B4C9DF810E094F84CC01CF0010545
:1078C00024D163F3420C400194F83830A4F84210FC
:1078D0004FEACE0E0EF0180E00F0200040EA0E0027
:1078E00023F0380303430F4884F838309121A2FB7A
:1078F000000384F84CC001FB023107A3D3E9002345
:10790000FFF7FEFB6064A064284638BD0C252846BE
:1079100038BD00BFAFF300808D49FD1A070000009D
:1079200020190020002AE78410B504469DF80800BD
:1079300062864FEA411CC00094F8281000F018003D
:107940000CF0200C4CEA000C0B4821F038014CEAFA
:10795000010CA3FB0002912184F828C001FB032144
:1079600003A3D3E90023FFF7CBFB606310BD00BF87
:107970008D49FD1A07000000002AE784000000007E
:107980002DE9F047044600F13B0190F84C0094F8D3
:107990003830514DC0F3400060F386138CB084F84A
:1079A000383010F0BFF994F83820B4F842304B4822
:1079B000246102F07902002784F838209121A3FB8A
:1079C0000002C4E90277277001FB032140A3D3E939
:1079D0000023FFF795FBA26C414B651BA3FB05350C
:1079E00002F1090398428EBF19463A460146626485
:1079F0006160064610F048F96369C5F3871500F128
:107A00000907002B48D00DF12C08CDF820800694F2
:107A1000B4F8423031484FF0000AA3FB0002CDF821
:107A20000CA0912101FB0321636804932D4B079364
:107A30002D4B05934FF0020925A3D3E90023CDF880
:107A40002C90FFF75DFB104619464FF47A72002325
:107A5000FFF756FB0235EDB22A46CDE901603B4601
:107A60000321CDF800A050460FF0BCFF414610F0B6
:107A700031FE054660B994F84C3043F001034846A6
:107A800084F84C3018F046FB28460CB0BDE8F0876F
:107A90000C200CB0BDE8F0870DF12C08CDE90A33BD
:107AA000616843460AAA032000F0EEFD0028ACD12D
:107AB0000B990E4806A3D3E90023A1FB0001FFF7B1
:107AC0001FFB0A9B20F07F471F449EE7AFF3008017
:107AD0008D49FD1A0700000020190020002AE784C4
:107AE000CDCCCCCC8D7D0300F9A4030000CA9A3B19
:107AF0002DE9F0418468A28C4FF6FF739A428AB058
:107B000000F0CE800546204615F08AF9AB7C012BAB
:107B100000F01D81022B00F00F81002B00F0EF80A0
:107B200094F83C81B8F1000F40F00A81A68DEB89F2
:107B3000E78D0136B6B2002B40F0B5802B7C03F008
:107B40000303012B00F0D680B4F86831002B00F05D
:107B5000B180B34240F230819B1BA4F86831B4F885
:107B60006C31002B00F0C980B34240F223819B1B93
:107B70009BB2062BA4F86C314FF000028CBF00239F
:107B80000123E285984694F83A2063F3820284F850
:107B90003A2031460DF12702204614F0EFFE7430F2
:107BA00000F00281B4F866312BB1B34240F2E880B4
:107BB0009B1BA4F86631B4F862312BB1B34240F29A
:107BC000D8809B1BA4F8623194F8B530E58D03F0A2
:107BD0000101B8F1000F0AD1AF4200F0C6800135B3
:107BE000ADB241B9002D5BD04146404642E001357F
:107BF000ADB200293DD094F8B53094F937206FF339
:107C00000003002A84F8B530C0F2A78094F85A0027
:107C1000C0F3C00100F0070019F0AEF894F85A2044
:107C200094F85B1002F003030933C2F34002DB0057
:107C3000D34001F003020932C1F34001D200CA402F
:107C4000E18B01F23F110B44134403446A4A6B4831
:107C50000721E3FB0021104665A3D3E90023FFF7CA
:107C60004FFA616820F07F40814280F09880411A8D
:107C700060600020A28C246903950023604DCDF83C
:107C800010800332CDE9011006940093D2B2012195
:107C9000184605950FF0C2FE10F0FD0F40F08E80E3
:107CA0000AB0BDE8F081A4F868812B7C03F00303DF
:107CB000012B1FD0B4F86C31002B7FF455AFE28C50
:107CC000052A97BF013240F2E2434FF4FA7392B2B1
:107CD00003FB02F2B4F86A3142F2107101FB032394
:107CE000013BB3FBF2F39BB2A4F86C31002B7FF4A1
:107CF0003BAF02E00023A4F86C31002343E794F883
:107D0000723003F01803182B7FF40AAF218DB4F8FA
:107D100064218B1D9A42C4BF931F5B1AB4F8601193
:107D2000CCBF9BB21346994253D0A4F86031A4F85B
:107D30006231A4F86621F3E64FF03D0884F83C81F7
:107D4000414620460AB0BDE8F04113F0BDB900231A
:107D5000A4F86631A4F86231E2E694F85B000121F0
:107D600000F0070019F00AF858E7002998D04546B6
:107D700041E70023A4F86231204614F073FE23E7A4
:107D800010F078FC014600B30023A4F86631A38C00
:107D9000C3801B230371006810F03EFC0BE760609A
:107DA000081A1CD0002165E79DF82710204613F023
:107DB0008BF975E70821C4E73E21C2E710F09CFC6F
:107DC00084423FF46DAF00DE6AE70123A4F8663118
:107DD000F1E6B4F8661100297FF4A2AEA7E7002D02
:107DE000E0D1B8F1000FDDD15AE700BFAFF300805A
:107DF0008D49FD1A070000008C49FD1A00CA9A3B04
:107E00007DA80300000000002DE9F04F8FB0B0F80E
:107E100038610D930446B0F8FC3090F85A000B918D
:107E20001E44C0F3C001BDF86830BDF86C70BDF8E9
:107E30006080BDF86490D4F8F4A00C9300F00700C3
:107E400018F09AFFE58CB6B2A6EB070B052D1FFACA
:107E50008BFB40F2D38015FB0BF5B8F1050FADB2EB
:107E600040F2E24B40F2D480B4F85220B4F85030E3
:107E7000134403F2D51303447B4A7C480721E3FBF8
:107E800000214FF09613E36196231046238474A3D8
:107E9000D3E90023FFF734F9434620F07F4040F256
:107EA000E2420BFB05F102FB03FB4A1E5A44B2FB04
:107EB000FBF293B20BFB03F39942606095B280F042
:107EC000B3806A48591AA1FB000165A3D3E90023D6
:107ED000FFF716F920F07F408244B4F8FC20B4F894
:107EE0003831BF1B3D44ADB213442B44A4F83831A4
:107EF000638D1A4494F837301544DB09658540F0EA
:107F0000A1800D9B5948A3FB000155A3D3E9002391
:107F1000FFF7F6F820F07F4501350C9BA4F86A3195
:107F200059462046A4F82680A4F8289014F052FD63
:107F30004F4B218D5B44881DB3FBFBF39AB29042FB
:107F4000A4F8642104D2C1F57F41FA310A4492B207
:107F50000B9BA4F8602113B10023A4F86C3102211B
:107F600001201AF0B3FC00220221064601200EF087
:107F7000CBFB40494FF4C47220460EF055FBC21CA7
:107F80003D4B0093D7B2019453463A46012100205D
:107F90000FF0D8FD10F0FD0F5FD1344830A3D3E9C6
:107FA00000238BFB0001FFF7ABF8089406941946F9
:107FB00063680493314B0793314B05934FF6FE737F
:107FC00080460393104600234FF47A72FFF798F827
:107FD0000095CDE9018053463A46012100200FF07B
:107FE00001FD10F0FD0F36D17EBB94F83A3143F01D
:107FF000010384F83A310FB0BDE8F08F013515FB6D
:108000000BF5B8F1050FADB24FF4FA7B3FF62CAF8C
:108010004FF0961208F10103E261962222849BB28E
:108020000A204FF4FA723CE71048C91AA1FB00017C
:108030000BA3D3E90023FFF763F820F07F40AAEBFE
:10804000000A4AE700DE002567E701220221104608
:108050000EF05AFBC9E700DEC6E700DE9DE700BF71
:108060008D49FD1A070000008C49FD1A00CA9A3B91
:108070007FC3C901701900203DA8030025A8030093
:1080800051F40300000000002DE9F04F8BB0CDE962
:1080900004011F460020BDF860309DF85490BDF8E3
:1080A00058A0BDF85CB00393164612F019FB0028E7
:1080B00000F06E8109F00108044640460FF022FEF0
:1080C0000290B8F1000F70D1149B02993A464046D5
:1080D00012F008FF002840F06C81636904F110027F
:1080E0000692002B68D063691D6807F0010A93F8B7
:1080F0004A000293C0F3C00100F0070018F03CFEF4
:10810000029BB3F84210B3F84020DB8900F23F1025
:108110000A4403441344C648C64A0721E3FB00212E
:108120001046C1A3D3E90023FEF7EAFF20F07F4009
:108130006860304618F00CF894F839306FF341035A
:1081400084F83930FF2384F83A30002E00F024817F
:10815000A9F10203012B40F2308194F84C1069F32D
:10816000420184F84C1094F839106AF30001DDE9FB
:10817000042384F8391014990968A1611499898835
:10818000A1830399A18404F1100000960021FFF758
:10819000CBFBA06418F070FF002840F01981204646
:1081A000FFF7EEFB0BB0BDE8F08F06210EF050FAA2
:1081B000002889D11220F5E710F016FA0690002861
:1081C00000F0278112F0E0FB0546002800F01E8138
:1081D00014300EF0F9FB05F11003002840F01B816C
:1081E000032105F11800079318F0ECFCE86E079BDB
:1081F000A5F828B04FF6FF72A5F826A0AA8400289B
:1082000000F0008105F1600205F15C0107930EF0BA
:108210002BFAB5F85A2022F4EF6222F0070242F45A
:108220008C7242F00102A5F85A2095F872204FF0A6
:10823000000B22F0070285F8722001212846C5F8BC
:108240006CB0A5F870B013F02DFAA5F82AB0C5F8F7
:108250002EB005F1320017F02FFA95F8372060F3B1
:10826000050285F8372001210DF1270018F0AAFC3E
:108270009DF82710704A039BA5F86A31A2FB010202
:10828000D20802EB4202A1EB820195F83720079B4E
:1082900085F839B002F03F0285F8372095F83A208A
:1082A000A5F838B1053122F0070240F2E24085F826
:1082B000381085F83A20298D604AA5F86CB100FB8A
:1082C0000AFA06205244A5F8680101F1060CB2FB37
:1082D000FAF290B26045A5F866B1A5F862B1A5F8CA
:1082E000640102DD0638401A80B2A5F86001284614
:1082F000079314F007FB5146284614F06BFB4FF030
:10830000000B069BC5F8403185F83CB112F0DEFD4C
:1083100095F8742160F3020285F8742112F0DCFDF7
:1083200095F8742160F3C50285F8742195F83A2117
:108330006BF3410285F83A2105F1B80014F002F917
:1083400095F87A21149B07F0010A6AF3410285F837
:108350007A214FF09612C5E907221A68C5F88121E3
:1083600095F87A219988029BA5F8851169F3000296
:1083700085F87A211A68C5F87B219A88079BA5F8A9
:108380007F216361C5E902BB85F800B02D61AEE6CF
:108390000C200BB0BDE8F08F18F0BEF900283FF4B8
:1083A000D7AE14993846324617F0AEFF84F83A003B
:1083B000CEE60B200BB0BDE8F08F002017F0E2FEF8
:1083C00094F8393043F00203C14684F83930C4E6EA
:1083D0006569EB6D2BBB05F1500105F14C000EF00A
:1083E00047F9E0B12E68E865D6F84001A8B110F071
:1083F00001F9304612F0CEFA0023032063610BB07E
:10840000BDE8F08F05F16400E866FBE6069810F021
:10841000F1F80720C6E600DEE2E600DEE7E700DE70
:10842000E0E700DED7E700BF8D49FD1A0700000036
:1084300000CA9A3B8C49FD1AABAAAAAA7FC3C901FC
:108440002DE9F04F04468DB0077F238D406AADF8CB
:108450002C30E3070E461546C7F3C0110A90C7F348
:10846000401700F1F9800023A383B37C707C13F0E4
:1084700001031CBFD4F81E30C4F82B3004F12B02CA
:1084800014BF638CC4F82B30FF28938004F12508B7
:1084900004F11F0200F0C68004F11E0117F064FB16
:1084A000A37FBDF82C200A98C4F825000233A377D7
:1084B000A8F804203368D3F800A0EB8A63862B8BDE
:1084C000A386BAF82430E38618F02AFE84F8380030
:1084D000D5F80090484612F063FA0021A882E080A7
:1084E000484614F08BFAD6F804802068214610F034
:1084F00087F8AB8AA8F806301C23D8F8004088F823
:108500000430002F40F09C8088F81C7041462046C3
:1085100010F082F895F84A00B5F816B0F46840F209
:10852000E243C0F3C00100F0070003FB0BFB18F0AF
:1085300023FC0022A4EB0008022101200EF0E4F845
:10854000504612F0A5F84A4CA8FB044846A3D3E9CC
:108550000023054641462046FEF7D2FDCDF804A093
:10856000B3684449009120F07F47AA1C363BD2B241
:108570003B44012100200FF0E5FA10F0FD0F6FD110
:108580004FF0000A012211465346CDF800A0504694
:108590000FF096FA484612F003FA0546344832A323
:1085A000D3E90023ABFB0001FEF7AAFD1946324BCD
:1085B000B6680893314B069340F27233CDF81C90A5
:1085C0000993D9F804308346CDE904A3104600236B
:1085D0004FF47A72FEF794FD294B0722A7FB033173
:1085E000CDE902B002FB0711E01A68EB01014FF47C
:1085F0007A720023FEF784FD0335363EEDB2CDE9F5
:10860000007033462A46012150460FF097F910F0CA
:10861000FD0F23D10122022110460DB0BDE8F04F1D
:108620000EF072B80023BDF82CC00A98C4F82530AB
:10863000A8F80430A177C4F81F00A2F804C039E7F5
:1086400095F8273043F0400385F82730281D17F0B0
:1086500089F80127288557E700DE04E700DED9E71F
:1086600000DE8DE7AFF300808D49FD1A07000000A2
:1086700000CA9A3B45F4030049F4030051F4030097
:108680008D49FD1A000000002DE9F04F8FB0FF2743
:1086900009930B1D08930023CDE90533DFF880A172
:1086A0008DF82F70054616460C9398463C460DF102
:1086B00034090DF1300B02230D93CDE901A9CDF85A
:1086C00000B033460DF12F02294600200FF07EFA4C
:1086D000022813D00D9BBBB9FF2C18D0336843453B
:1086E00015D0002F00F08B80013FFF24FFB28DF8E2
:1086F0002F40E0E7294600200FF0AEFA0D9B022B39
:10870000F8D00D9B002BE7D000DEFF2CE6D19DF8C2
:108710002F00FF284DD00338C3B2012BCBD880B235
:1087200012F046F90028C6D090F93730002B26DA2F
:10873000436807939DF82F000338C3B2012B14D967
:10874000FF2CDDF8308008D0059940460FF09EFAE6
:10875000089B069A134498422DD8079B9DF82F40FA
:10876000CDE90583D6F80080A5E780B212F020F9A4
:108770000028E5D090F93730002BE1DA9BE790F83C
:108780005A00C0F3C00100F0070018F0F5FA254ABE
:10879000254B00F5935005300721E0FB02311846C8
:1087A0001BA3D3E90023FEF7ABFC20F07F43079324
:1087B000C0E7FF2C27D0069A1C480721A2FB000324
:1087C00001FB023114A3D3E90023FEF799FC044610
:1087D000B8B9059B1548013BA3FB0002072101FB2B
:1087E00003210DA3D3E90023FEF78AFC099A00F1C7
:1087F0001E032344002013600FB0BDE8F08F00DE9D
:1088000072E73E34E5E76FF009000FB0BDE8F08F86
:108810008D49FD1A0700000000CA9A3B00000000C5
:1088200069F6030000CA9A3B8C49FD1A8D49FD1A6E
:108830002DE9F043C668476873683D491A68D0F867
:108840000090A7F57423A3F510738B4283B0804684
:1088500007D907F1E87707F5D43709F1FF3907F5AC
:10886000A57773685168DD8ACDF8049006F110038E
:1088700001AA0220FFF708FF00284ED10199A1EBC1
:1088800009031B0237D4084649460FF0FFF9034697
:1088900028480721A3FB000201FB032122A3D3E9FF
:1088A0000023FEF72DFC34690444002C346109DBFD
:1088B00040F2E24305FB03F3A3422FD2E41AA342A2
:1088C000FCD33461D8F800301A48A3EB0903A3FBAA
:1088D0000002072101FB032113A3D3E90023FEF7C4
:1088E0000FFC154BA3FB0737A0EB974020443061EA
:1088F00003B0BDE8F08348460FF0C8F903460D48C1
:108900000721A3FB000201FB032107A3D3E90023F6
:10891000FEF7F6FB3469241AC7E73469002CD1D17D
:1089200003B0BDE8F08300BF00CA9A3B000000001E
:10893000BFBDF07F8D49FD1A83DE1B4300000000A0
:108940002DE9F041C46894F92830002B8CB0C0F2B6
:10895000D480636805460E46002B40F0C38094F82F
:1089600028306FF3000384F8283019F027FB00202B
:1089700019F048FB0021084619F036FB08200022B8
:10898000252119F073FB01200FF056FF002800F09D
:10899000BB801C3019F094FB754B0B930BA819F09E
:1089A00051FB744940F25B6019F000FC94F8280018
:1089B000C0F34100253018F0ABF96F48214619F09B
:1089C000D1FA94F828309B0603D46368002B00F09A
:1089D0008680962019F038FD00231A46194618465D
:1089E00019F04AFC17F098FE002840D194F828307E
:1089F00013F0180F53D1D4F800802F68404618F0B8
:108A000073F907446A6807F10901002019F028FD8D
:108A100019F0FCFD19F0A0FC204611F045FE811C68
:108A2000C9B240463A4618F061F98046002871D133
:108A300016B9636B002B3BD163687BB12A684F4B3F
:108A4000A2616A68E26104F118019960646201221E
:108A5000022100200DF08CFE002859D1204618F08C
:108A600011F9002852D100200CB0BDE8F08194F833
:108A70002800C0F3C00017F041FB07460DF12B00A2
:108A800017F06CFD79788046BA1C387819F088FCAC
:108A90009DF82B000022414619F07EFEABE7012035
:108AA00017F02CFB4178821C007819F079FCA2E7C2
:108AB000334A0792334A059240F2F3120093089228
:108AC000CDE90366CDE9016606943B4631460122B5
:108AD0000EF088FF10F0FD0FAED000DEACE719F00D
:108AE0002BFC7FE7636893F82A30D90705D46368C5
:108AF00093F82A309A077FF532AF2348214619F0C0
:108B000031FA19F0FFFAAEE700DE42E700DEAAE72D
:108B100000DEA3E71D4A1E491E4840F2E51322F07D
:108B200006FD1D4B0721A8FB030301FB08310EA323
:108B3000D3E90023FEF7E4FA18490246184822F068
:108B4000F6FC002585F31188BFF36F8F03231846C9
:108B500002DF1448214619F005FA19F0D3FA6FF034
:108B60008B0081E7AFF3008000CA9A3B0000000051
:108B7000D6BE898E55555500498C0200E805002067
:108B8000251104002D110400350E04009048050045
:108B9000DC4805002C4705008D49FD1A0C490500ED
:108BA000E0480500D911040038B5044618F0D2FA9F
:108BB00094F8283094F82820C3F34103013303F0DC
:108BC0000303032B08BF002363F3420214BF03F126
:108BD0002500252084F8282018F09AF863680BB146
:108BE00023694BB90FF050F8C11C002019F0ACFC00
:108BF000BDE8384019F00ABD19F0D4FC05460FF065
:108C000043F8C11C002019F09FFC19F0FFFC19F07B
:108C1000C9FC29460FF03AF8094A03460721A0FB90
:108C2000020201FB032104A3D3E90023FEF768FA43
:108C300023691B1A236138BD00CA9A3B000000005B
:108C40008D49FD1A000000002DE9F0478AB0044666
:108C500019F098FAC0B250B918F0A4F8CA482146E1
:108C600019F080F90AB0BDE8F04719F04BBA19F0D5
:108C7000A9FA054619F0C8FB074619F0CFFB814653
:108C800019F0E4FD064619F0C3FD824619F07EFB9B
:108C9000EDB2804619F05EFB18F084F8002DDDD0AF
:108CA00001200FF0C9FD0546002800F0B58117F03E
:108CB000FF07F6B240F0ED80002E40F0E4804FF068
:108CC000FF093A464B463146204618F0CBFB0028B8
:108CD000C4D02A7F616800238DF823305FFA88F7BB
:108CE00002F00F03002900F0F680616891F82A1065
:108CF000880700F1F080072BB0D094F828100907FE
:108D000040F12C81002B40F0CE806B7F063B1F2B67
:108D1000A4D804200FF090FD00289FD019F07EFC0D
:108D2000636B074643B9638E40F2712202FB03F383
:108D3000B0FBF3F203FB120723685A68934B072139
:108D4000A2FB030301FB02318DA3D3E90023FEF74D
:108D5000D7F96FF4427C00EB0C031F3B62EB02027D
:108D6000BB4272F10002FFF479AF19F0E5FA484610
:108D7000636817F0D9FB94F829309907804640F1D1
:108D8000D981002800F0D6818246012719F028FAFF
:108D9000CDE9027A09AB049305F11E0301932B7F01
:108DA000C3F38013014607460093002201232046A7
:108DB00018F074FB384619F089F919F0D9F9002830
:108DC00040F0D5817248214619F0CCF8626892F8DB
:108DD0002A3043F0010382F82A3094F8283043F017
:108DE000800384F828300FF041FD172202714FF6FE
:108DF000FF72C28095F81CC082463B46CCF3401CF3
:108E000000F11C0207F1200E1D6858689968DF68A0
:108E1000D7601033734515605060916002F1100205
:108E2000F2D11B6813609AF81C30CAF808406CF342
:108E300045138AF81C3019F0B5FB002ECAF8100053
:108E4000099BCAF8143008BF4FF0FF098AF819903F
:108E500094F8293013F0020303D0B8F1000318BFCF
:108E600001239AF81A2063F300028AF81A200FF0FF
:108E7000FDFCCAF80C00DAF8000051460AB0BDE863
:108E8000F0470FF01DBD5FFA8AF017F095FB8146A1
:108E900017E794F828005FFA89F1C0F3C00017F0D3
:108EA00067FB81460DE7012B74D16A7F0C2A7FF4A2
:108EB000D5AE2A7FCDF80090194600230193D20940
:108EC00005F12403204618F055FA00287FF421AF5D
:108ED0002B7F03F00F03002B5CD16B7F052B7FF6FC
:108EE000BDAE252B3FF6BAAE94F8282002F0210241
:108EF000202A09D16268002A00F0B080052B7FF695
:108F0000ADAE252B3FF6AAAE63682BB12B7F03F0E5
:108F10000F03072B7FF4A2AE03209DF823800FF0F0
:108F20008BFC054600283FF499AE0FF09FFC4FF6EE
:108F3000FF73EB8005232B71EFB97F20AB7E287682
:108F4000002E08BF4FF0FF0968F34103286885F839
:108F50001990AB7629460FF0B3FC7FE6B9F1FF0F0D
:108F60008DF82490C2F380185AD094F82A209145A5
:108F70003FF4C8AEAFE719F0F9F9C0B2DEE700BFC1
:108F800000CA9A3B00000000F11104008D49FD1A4F
:108F9000FD120400062BA0D04521D94011F001019B
:108FA0003CD1012B10D16B7F0C2B7FF457AE2A7F65
:108FB000CDF800900DF123030193D20905F12403AC
:108FC000204618F0D7F910BB2B7F03F00F03042BBA
:108FD0007FF444AE6B7F063B1F2B3FF63FAE94F809
:108FE0002830DB077FF53AAE19F0FAF82B7F0278CC
:108FF000C3F38013B3EBD21F7FF430AE08300622E8
:1090000005F11E012AF0E2F800287FF427AE6B7FFD
:10901000002B7FF479AF21E600DE48E66B7F6DE739
:1090200005F11E0A09AA5146404617F019FB00280F
:109030003FF44EAF94F8293003F0010343457FF429
:1090400047AF5146062204F108002AF0BFF8002875
:109050007FF43EAF2B7F03F00F0353E69620079279
:1090600019F0F2F9079A104619F0BEF803200FF034
:10907000E3FB804600283FF4F1AD0FF0F7FB4FF61D
:10908000FF73A8F80630052388F80430002F58D164
:109090007F23002E88F8183014BF4B46FF2388F832
:1090A000193098F81A30D8F800006FF3410388F8A7
:1090B0001A3041460FF004FC19F092F806460322DC
:1090C000337862F3030333702B7F3278C3F380135A
:1090D00063F3C7120C2332704846737017F024FAFA
:1090E00094F82920920730D578B33178324641F090
:1090F000400102F8021B0168C6F8021083889380C1
:10910000D5F81E30B3606B8CB381304618F0DEFFAB
:1091100019F02EF868BB19F079FA94F8283016483F
:1091200043F00103214684F828300AB0BDE8F04737
:1091300018F018BF94F8287004F12B0AC7F38017B1
:1091400024E619F013F9C3B2A3E794F82830327873
:10915000C3F3801363F38612334603F8022BD4F86B
:109160002B20C6F80220B4F82F209A80C8E700DE32
:1091700028E600DECFE700BF051204000000000073
:10918000F0B5C468A28A4FF6FF739A4285B000F02A
:10919000AE80054618F05EFA2B89628B208CA38383
:1091A0001A4492B2104494F82730E28380B2411CF2
:1091B00021845E064FF00001618304F1220167D42F
:1091C00003F03F000B4694F82810009004F12900AA
:1091D00016F080FA0646204603A918F07BFB039B95
:1091E00094F862101A7861F3C3021A70039A94F823
:1091F00062301178C3F3400363F38201117018F0F9
:10920000DDFE002018F0FEFE201D18F01BFF238954
:10921000A17A40F25B6043EA014118F0C7FF304693
:1092200017F076FD0399204618F028FB21463648B2
:1092300018F098FEE08919F007F994F84B0000F057
:10924000070018F0D1FF27682E68384617F04CFD4C
:10925000064406F109016A68012019F001F919F0C4
:10926000D5F9A18A03313246C9B2384617F03EFD1E
:109270000646A8B1AB7A13F0020517D000252348A3
:10928000214618F06FFE18F03DFF284605B0F0BDEE
:109290000A4603F03F03218D16F068FA06469AE766
:1092A000204617F0EFFC48BB0025EEE7184A1949A5
:1092B00019484FF4807322F03AF918480721A6FBA9
:1092C000000301FB06310EA3D3E90023FDF718FFCD
:1092D00013490246134822F02AF985F31188BFF397
:1092E0006F8F0323184602DF6FF08B05C7E70E4828
:1092F000214618F037FE18F005FFD5E700DED3E76A
:1093000000CA9A3B00000000D9170400110E0400A7
:1093100020490500DC4805002C4705008D49FD1A51
:1093200070490500E0480500350E0400084B1A6836
:10933000904208D0D3F8A020904206D10122A0216B
:1093400001FB023070470022F9E70020704700BFA0
:10935000F81F0020064803681BB1D0F8A03023B9DD
:109360000123A02202FB030070470020704700BFCA
:10937000F81F002009490A4808B506F00DFE01460D
:1093800038B110F1780F04D0BDE80840054822F04C
:10939000C1B8BDE80840044822F0BCB8359A0200C4
:1093A00074550500DC550500FF550500F0B587B084
:1093B0000646FFF7BBFF034600283AD01E4A01AD20
:1093C00002F1100C2C46106851682F4603C7083272
:1093D00062453D46F7D112783A7003F164020DF10F
:1093E000140C1746254603CD6545106051602C4688
:1093F00002F10802F6D129781170104ADA674FF6A7
:10940000FF72A3F88620012403229F67A3F88040FF
:1094100083F8882003F1780130460AF0FBFB03460D
:1094200038B1074A0748214607B0BDE8F04021F0AF
:1094300028BE07B0F0BD00BF203C05002597020004
:1094400011560500C43B05002DE9F0418CB00646DD
:109450000D461746FFF76AFF044640B95F4A604869
:10946000012121F010FE00200CB0BDE8F08155B9BB
:109470005C4A5B48022121F006FE14222946384648
:1094800029F09CFEEFE7584BD0F838C002AA03F150
:109490001008964618685968174603C708334345AD
:1094A0003A46F7D11B783B707146604624F0C0FB0A
:1094B0004E4F002836D1A7F1100307AA1868596843
:1094C0009446ACE803000833BB426246F6D11B78F1
:1094D0008CF8003004F1260307AF0DF12C0E9C46EA
:1094E0003A4603CA724518605960174603F10803EB
:1094F000F6D112781A70C4F838C02B8A0133A4F858
:109500004030032384F8483004F1380130460AF033
:1095100081FB03460028A6D0354A3148012121F0BD
:10952000B0FDA0E7D4F838E0A7F1100307AA186847
:1095300059689446ACE803000833BB426246F6D152
:109540001B788CF8003007A9704624F071FB0746A1
:1095500008BB284626F0CAF942F60213ADF80630D9
:109560008DF804702346019AA4F8540043F8262F7E
:10957000A3632B8A0233A4F84030042384F84830D4
:1095800004F1380130460AF045FB034600283FF459
:109590006AAF184AC1E7184A1148032121F073FD48
:1095A0000127164BE364A4F858702B8AA4F85630B0
:1095B00004F14C0130460BF0F3F8034620B110F1F2
:1095C000780F01D00E4AA8E70E4A0548032121F082
:1095D0005AFD3046FFF7EAFE45E700BF2D5605006D
:1095E000C43B05004D560500313C0500523C0500CA
:1095F0007556050096560500B356050055960200AF
:10960000DB560500F556050070B50378092B0446B6
:109610000D4619D14678112E11D10C493246606899
:1096200029F0D4FD80B92846012300F8013B3246D9
:109630006168354429F0B4FD0020687070BD032EC8
:1096400002D103493246EAE70120F7E7185705003F
:10965000E45A0500F0B5C1B00D4600AF1E461446F1
:1096600052B92548254A022121F00DFD2C812046C2
:1096700007F58277BD46F0BDFFF758FE70B38379DA
:1096800063B3851DFF2E28BFFF263246214638468C
:1096900029F086FD6C4600238AB0BB556A46184BFC
:1096A000D761C2E90535174B1362174B42F8103FDB
:1096B00011484FF4235121F0F3FC14483946A546D4
:1096C00021F028FF1249384629F0ACFD40B1114A7B
:1096D0000948032121F0D7FC0120C9E70E4DD1E74D
:1096E0000E49384629F09EFD0028F5D00C48394631
:1096F00021F010FFF0E700BFC43B05003257050022
:10970000415705000002010304000002AB68050098
:1097100049570500575705002A570500835705008C
:1097200093570500B0B5144600AF0D4661B9154A10
:109730001548022121F0A7FC14222946204629F0D1
:109740003DFD0020BD46B0BDFFF7F0FD04460028FA
:10975000F7D0284626F0CAF86D468AB0A0806A463F
:109760000A4B53614FF4007313840634084BC2E96B
:1097700006404FF4135142F8103F034821F090FC8B
:10978000AD46DEE797570500C43B0500B757050017
:10979000040000012DE9F8432E4DD5F8009000AFEC
:1097A000044688461646B9F1000F04D00146A81DAC
:1097B000FDF7C0FC08B3D5F8A090B9F1000F04D0B4
:1097C00025482146FDF7B6FCB0B16D4688B06A4623
:1097D000224B2348C2E905344FF400739383214B95
:1097E00042F8103F4FF4E25121F05AFC6FF00100B3
:1097F000AD46BD46BDE8F8830120A0234343EA18E7
:109800009188A1B96D4688B06A46174B1448C2E9E1
:1098100005344FF400739383124B42F8103F4FF41A
:10982000E25121F03DFC6FF01500AD46E1E70F4835
:10983000A2F890108C330021C2F88C00A2F892108C
:109840004846E918C2F89480A2F898600AF010FF20
:10985000CFE700BFF81F00209E200020DD57050045
:10986000C43B050003000001F55705008D9F020071
:1098700037B5054626F08CF80446284626F088F8C9
:109880000346033CA4B2044A04480094032122F096
:1098900000FE03B030BD00BF1D580500C43B0500ED
:1098A0000B4621B1034A0448012121F0EABBFFF72E
:1098B000DFBF00BF53580500C43B0500F7B50446A1
:1098C0008368DB6B2BBBA368DB6A3BBB194D1A4E6D
:1098D000A3681B6903B301220DF1070120469847D5
:1098E000012819D19DF807202B680A2A01D00D2ADA
:1098F00019D1002BECDD0027F7540F490F48002247
:10990000002328F06DFF10B10D4821F003FE2F60F9
:10991000DEE798470028D6D103B0F0BD204698472F
:109920000028D3D1F8E7B3F5FF7FDEBF591CF2540E
:109930002960CDE7382100206C50002088080020E5
:109940007058050070B503788AB004460E4607AD1E
:10995000032B20D8DFE803F002191B1D114928460C
:10996000FDF7F2FB059563780493A3780393E378FE
:1099700002932379019363790093A3790A4A1E2104
:10998000304620F05BF80AB070BD0849E7E70849A7
:10999000E5E70849E3E7084A0A21284620F04EF89F
:1099A000E0E700BF92580500B4580500995805003B
:1099B000A0580500AA580500D67F0500F0B589B06B
:1099C00000AF0D46044624F0E3FD3946FFF7BAFF29
:1099D0006E468AB06A46134BD561C2E905374FF42B
:1099E00000731384104B42F8103F10484FF413518A
:1099F00021F056FB2046B546FFF798FC044668B1B7
:109A0000006806F01DFFA0220021204629F0D6FBA9
:109A100007484FF4804200231FF0C6F82437BD46A4
:109A2000F0BD00BFD758050004000001C43B05008D
:109A3000000000202DE9F04798469CB0624B1B685F
:109A40008A4662498B4200AF0646144640F0A38026
:109A5000FFF780FC054600287BD0012C01D9042C9F
:109A600077D15B4C07F14C0C04F1200E6246206864
:109A70006168634603C3083474459C46F7D1237874
:109A80008CF800305349404604F072F897F84C3097
:109A9000002B5ED007F10C0421463046FFF752FF41
:109AA000E9468AB06A464C4B4C48C2E905344C4BF7
:109AB000536207F14D084B4BC2E9078A4FF44351FB
:109AC00042F8103FDFF820A121F0EAFACD464FF02E
:109AD00000095AF8290058B124F05AFD07F12C0169
:109AE000FFF730FF214607F12C00FDF723FB80B381
:109AF000B9F1280F31D106F09FFA814648BB3B4BA4
:109B00000FCB07F12C0C8CE80F00394A4FF0C873CB
:109B1000C7E9012330462B463A1D614607F0DEFBBC
:109B20000646E8B1E8468AB06A46324BD061C2E9DF
:109B300005344FF4007313842F4B42F8103F27482D
:109B40004FF4115121F0ACFAC546C5F80090FFF76B
:109B500011FC7037BD46BDE8F0874FF02809B8E723
:109B6000AB1D1F224146184629F040FB85F82560B1
:109B70006D468AB06A462149194B1362204BD06169
:109B8000C2E9051442F8103F4FF42351134821F065
:109B900087FAAD46DDE70C318B42DAD107F10C04D0
:109BA0002146FFF7CFFE6D468AB06A46154BC2F8D4
:109BB0001CA0C2E905344FF4007313840E4B42F825
:109BC000103F4FF41351E1E7E81F0020B83F0500B4
:109BD000533C050009960200F8580500C43B0500F7
:109BE0000002010305000002F81F0020743C05007C
:109BF000180028001E590500040000013C5905000A
:109C0000040000025C590500F0B58FB0054600AFB6
:109C10005C480C4621F07EFC284624F0B9FC07F194
:109C20001801FFF78FFE8CBB574B1A68D3F8A03092
:109C3000003A18BF012203B101325448022307F150
:109C4000180121F067FC6C4688B06A46504B53619E
:109C500007F1180393614FF4007393834D4B42F85F
:109C6000103F4D484FF4E65121F01AFA2846A54618
:109C7000FFF75CFB044680BB484A4748012121F0BE
:109C800002FA1321284624F073FB23E06E468AB0C3
:109C90006A46434B536107F11803C2E906344FF497
:109CA000007313843F4B42F8103F3B484FF411516F
:109CB00021F0F6F92846B546FFF738FB044638B1DF
:109CC000006806F0BDFDA0220021204629F076FAAA
:109CD000FFF750FB3C37BD46F0BD334B7B60391D71
:109CE000284624F05BFC034620B1304A2A48012173
:109CF00021F0C7F921462E4B41F89C3F284609F038
:109D00005DFF2C4B3A1D03F1100C1868596816467C
:109D100003C6083363453246F7D11B78337004F12C
:109D200026023B1D07F1140E94461E4603CE7645CF
:109D300010605160334602F10802F6D13378137097
:109D40001D4BE3630123A4F840304FF6FF73A4F8E2
:109D500046300023C4F838C084F8483004F1380194
:109D6000284609F057FF2846FFF720FBFFF7F2FAD5
:109D70000028AFD04FF40042002310481EF014FF1B
:109D8000A8E700BF77590500F81F00209259050089
:109D9000B259050003000001C43B0500E15905006C
:109DA000C059050004000001FB009042035A050061
:109DB000A1980200313C05004994020000000020F7
:109DC00080B54D4CA368ADF5826D2BB11B6C1BB1FA
:109DD0004A49002220469847A3681B6A0BB14648AF
:109DE00098474748474D484E484F21F093FB4FF066
:109DF000FF334FF0FF3204A928461EF0F5FA4FF466
:109E0000007204A984A829F0F1F902AC002304A887
:109E1000C4E90033FDF7A0F900940146022332465D
:109E200004A801F0C7F8011E01DBCB0703D43846B4
:109E300021F070FBDBE736492068FDF77BF960B95C
:109E4000334934480422FFF7A5FC034600282ED0EE
:109E5000314A3248012121F014F931492068FDF7D7
:109E600069F958B92E492B480722FFF793FC03469E
:109E700018B32C4A2948012121F003F92A49206806
:109E8000FDF758F90028B2D1646828492046FDF74B
:109E900051F9F0B9264903222648FFF77BFC034617
:109EA00088B1254A1D48012121F0EBF89FE7234A9C
:109EB0001A48032121F0E7F8CFE7214A1748032188
:109EC00021F0E1F8DAE71F4A1448032121F0DBF81A
:109ED0008DE71D492046FDF72DF910B91B490322D6
:109EE000DAE71B492046FDF725F900287FF47FAF0C
:109EF00018490322D0E700BFE8360500BD980200EC
:109F0000265A050088080020D03F0500445A050065
:109F1000E45F0500E45A05005A5A0500C43B0500F9
:109F2000975A0500A15A0500E85A0500F35A0500A2
:109F3000F85A050018570500FC5A05007E5A05001E
:109F4000CA5A0500265B0500465B05004D5B05000F
:109F5000515B0500565B050008B5054828F05DFB20
:109F600020B9BDE80840034821F0D4BAFFF728FF24
:109F7000E83605005A5B05000346024A0248032101
:109F800021F07FB8715B0500C43B05000B4621B191
:109F9000034A0448012121F074B89089FFF7ECBF0F
:109FA0008B5B0500C43B050008B5002004F004FFEE
:109FB000014620B10B4821F0ADFA002008BD032175
:109FC000094A0A4821F05FF84FF42032002308487C
:109FD0001EF0EAFD0749084822F04EFC07481EF033
:109FE00061FBEAE7A15B0500C15B0500C43B05001E
:109FF00000000020B83F0500E81F002030090020C5
:10A000002DE9F04F91B08407009302F0040302930E
:10A01000C2F3C20303F10103DDF868800392054631
:10A020000E46059340F0BA81041D30B1072909D8C6
:10A030006FF01B0011B0BDE8F08F01F0070634444B
:10A04000C6F10806009B4FF00009591E4FF0040AA4
:10A050004FF0FF330193CDF810904F46CB46534657
:10A060000DB1009A22600598002800F3E880984816
:10A07000009A824203D397488242C0F0E080039A5C
:10A08000A4EB050E92074FEA9E0000F103810F2F0B
:10A0900000F2B180002D00F0058107F140020DEBC8
:10A0A000020C019A0CF8200C0CF8102C04980130CA
:10A0B0000490E7E07A285DD84B280ED8472859D875
:10A0C00029282DD8252852D054D820287AD02338B2
:10A0D000D0F1000B4BEB000B74E04C382E2849D824
:10A0E000DFE800F070484848484848484848484831
:10A0F0004B484848484848484859484B4B59595993
:10A10000704B6D487048184B184848827F4B484840
:10A110004B487F0000204FF0000B4FF0040A38E05E
:10A120002A38C0B2012202FA00F010EA0E0F49D11B
:10A1300010F0625C2FD110EA020B43D06046013C64
:10A140005444B4FBFAF40AFB04F4002D61D0A3EBF1
:10A15000050CA444B4453FF66BAF002868D1042B2E
:10A1600047D158F8043B2360043404232AE0019AC1
:10A17000013A01924FF0000B24E011F8010C6C2819
:10A1800034D111F8023C00206C2B8346C5D14FF02E
:10A19000080A5346D3E708F1070828F007080734F0
:10A1A000F8E802AB24F0070435B106982044B04229
:10A1B0003FF63EAFC4E900AB08344FF0000B4FF060
:10A1C000080A534611F8010F002878D0BBF1000FA0
:10A1D0007FF470AF2528F5D1019B013301934FF037
:10A1E000010B4FF0040AECE7584694E70020834641
:10A1F000A5E7082B02D06FF015001BE708F1070850
:10A2000028F00708F8E80223C4E9002308340823EB
:10A21000D8E768B9042B02D108F10408A4E7082B99
:10A22000E9D108F1070828F0070808F10808EDE768
:10A23000059A013A059258F8042B009210E7039A08
:10A24000900720D5A4EB050E4FEA9E004FF0010CBD
:10A25000BEF5007FCFD20F2FCDD8F5B107F1400268
:10A260000DEB020EC0B2019A0EF8200C0EF8102C65
:10A27000BCF1000F3FF41AAF60F07F000EF8200C25
:10A2800009F101090137C5F10802043406924FF6BD
:10A29000DA7E97E74FF0000CDAE7BCF1000F01D04F
:10A2A0000136EFE7029802360028EBD10098CDE99D
:10A2B0000631FCF751FFDDE906310644E2E7631B96
:10A2C000B3F5806F97D23DB9A6F10804E018B1E666
:10A2D000D835050084880500029A28609B082B70F9
:10A2E0009DF81030C2B1EB7085F80290B9F1000F03
:10A2F00005D008A80022C5F1010C97420ED1C5F186
:10A3000001030DF120084FF0000A01930DF1300B0D
:10A31000574512D1601B8DE66B70E5E710F8013BE5
:10A32000190608D50CEB040EB64503F07F033FF683
:10A330007FAE04F8013B0132DFE7B9F1000F03D033
:10A3400098F90020002A17DB029BD3B11AF80B20E2
:10A3500004F8012B0022019B18191044B0423FF66B
:10A3600067AE98F8000004F8010B009903922046AC
:10A3700028F016FF039A14440AF1010A08F10108B3
:10A38000C6E798F8002055F822300093029B45F864
:10A3900022300098FCF7E0FE421CDCE76FF00D0075
:10A3A00048E600BF2DE9F04F97B000AF90F802A04B
:10A3B000D7F880B03B62CBF3C0030446FA62BB61BE
:10A3C000894641B9457800780AEB800020444D4524
:10A3D00017D8A0EB0409E378FB61BAF1000F02D0B3
:10A3E0001BF0010F16D1FB6953BBFB6A1BB13A6A24
:10A3F0004946204698474D4628465C37BD46BDE84D
:10A40000F08F461C3046FCF7A7FE0130304409F1BE
:10A410000109DCE7237862687A62FA6A9900796157
:10A4200004EB8301002A40F000814D460E4601EB0B
:10A430000A094FF000084E454CD101EB0A0610E026
:10A440001BF0020FD1D023789A007A6162687A6299
:10A45000FA6A04EB8301002A77D14D4601EB0A0624
:10A4600090461BF0050F0CBF02230123FB62FB6922
:10A4700006EB430A0BF00203BB625645BCD016F84C
:10A48000021B16F8013C54F82390994B994502D3CE
:10A49000984B994536D3BB69002B40D0786A21F0A0
:10A4A00010F800283BD0E9468AB06A46924B5361C7
:10A4B0007B6AC2E906314FF4007313848F4B42F874
:10A4C000103F8F4800234FF4125101F03DF8023D38
:10A4D000CD46D2E716F8013BF96254F82300FCF7A9
:10A4E0003BFED7F88430F96A01304BB1D7F8883099
:10A4F00098453EBFD7F8843023F8180008F10108CA
:10A50000054498E7BB6923B1786A20F0DAFF002898
:10A51000C9D11BF0010F05D1FB6AED1AADE7BB6A8B
:10A52000002BAAD04846FCF717FED7F8843053B169
:10A53000D7F8883098453FBFD7F88420431C22F8CD
:10A54000183008F10108054497E7BAF1000F72D0FE
:10A550001BF0040672D0D046002607F14800524690
:10A560003B61B96228F01CFEB96A3B6901EB0A0243
:10A57000BA62FA69F9695200FA60BA6A02EB4102FA
:10A580003A610BF00202BA603A69B96A8A4257D15D
:10A5900062787A621BF0020F32440CBF4FEA580116
:10A5A00000211BF0010FD2B240F09F801BF0040F7E
:10A5B00014BF40460020BB616270A070E1703A6A2F
:10A5C0007969FB6A20469847051EFFF615AFBB69FF
:10A5D00023707B6A6370FB69E37041463A6AFB6AE9
:10A5E00084F802A007F148009847B0F10008C0F2D3
:10A5F000BB807B693A6AA9EB0A01C91AFB68C91AD0
:10A60000D7E90A0398470028C0F2B080A84408EBB5
:10A6100000054FF0000B07F1380AB34572D3002153
:10A620003A6AFB6A08469847E6E656464FF0000845
:10A6300007F1380093E75646D04697E7B04695E7CE
:10A64000BA6A12F8021BBA6212F8015C284A54F87E
:10A650002500904202D3274A90421ED3BA6932B1F4
:10A66000786A7B6020F02DFF7B6800288CD1BA6867
:10A6700002BB08F1280207F1300C08F101009444F4
:10A6800007F1580252FA80F008F102080CF8101C89
:10A690005FFA88F800F8105C76E7BA693AB1786A30
:10A6A0007B6020F00EFF7B6800287FF46DAF1BF00D
:10A6B000010F09D006F1280207F13000711C1618AD
:10A6C00006F8205CCEB25FE71BF0040F3FF45CAFEE
:10A6D00008F1280207F1300008F1010102EB00083F
:10A6E00008F8105C5FFA81F84EE7002063E700BFCE
:10A6F000D835050084880500FC5B050004000001D6
:10A70000743B05001BF80A3087F8373054F8239063
:10A71000D7F884302BB3D7F888309B4521D2D7F8AF
:10A72000843033F81B803A6AFB6A012107F1370055
:10A73000984700281ADB0544B8F1000F06D14846B7
:10A74000FCF70AFD00F101081FFA88F83A6AFB6A73
:10A75000414648469847002808DB05440BF1010BA9
:10A760005BE74FF00008DEE7454645E6054643E671
:10A77000014B1860704700BF8802002080B5054675
:10A780000E46174698461EF097FD034628F01AFF1E
:10A79000DFF81890044649F8003042463046394602
:10A7A000A84754F8090001F0EBFC00BF08000000C6
:10A7B0002DE9F047058B04462807904611D402295D
:10A7C00005F0070540F0CC80204621F042F978B131
:10A7D0000138218B042811D8DFE800F0C2106D8504
:10A7E000950001290CBF45F0100545F02005258393
:10A7F00088F31188BFF36F8FBDE8F08701F0070A77
:10A80000AA4500F0A5800027B9463E46A368002B64
:10A8100000F0BC8041F00801218388F31188BFF368
:10A820006F8FA168002900F0BA800D68002900F040
:10A83000B680D1F80480334652462046C047002DEA
:10A8400076D02B6829461D46F0E701F007035A1F12
:10A85000012A1BD8002221F00701062B276889B2A4
:10A86000C4E9002209D13B4603E0628B01326283D6
:10A870001B68002BF9D141F002012183204621F011
:10A88000E8F800287AD041F0200176E0042B0AD1C4
:10A8900021F0070189B22183204621F0DAF810B1B6
:10A8A00041F020012183218B01F0070AAA454FD0F6
:10A8B0000027B946AAE7236921F0070141F0060104
:10A8C000062DD3F8009021832DD1B9F1000F3FD090
:10A8D00041F00801218388F31188BFF36F8F3A4953
:10A8E0002046C84729E021F00701236941F004010F
:10A8F00089B2042DD3F804902183E6D000273E4688
:10A900004FF0040A82E721F00701236941F00501B5
:10A9100089B2052DD3F808902183D6D000273E4672
:10A920004FF0050A72E700273E464FF0060A6DE732
:10A930002B4687E7B9F1000FD1D1EFF3118820231F
:10A9400083F31288BFF36F8F238B23F008032383D5
:10A95000258BEA062ED525F01003238305F0070585
:10A960006669218B002EBFF670AF00232768C4E90B
:10A97000003321F0070141F001012183218B01F017
:10A98000070AAA454FF000097FF440AF002F9CD082
:10A9900041F00801218388F31188BFF36F8F002FE6
:10A9A000C8D03D68394633465246204621F07DF8EE
:10A9B0002F46F4E7AB067FF51BAF25F0200323837A
:10A9C00005F0070500E700BFD7BA040070B5364EA2
:10A9D0008468446001460125084621F05FF930B9DA
:10A9E00021230B748B684C618B614B6070BD5C28BC
:10A9F0004AD1084621F052F9752805DC5B280ADCAB
:10AA00002228E9D02F28E7D021230B748B684C61D2
:10AA10008B610020E9E7A0F15C0305FA03F3334200
:10AA2000DAD17528F0D1084621F038F9A0F13003C9
:10AA3000092B04D920F0200041380528E4D8084625
:10AA400021F02CF9A0F13003092B04D920F02000CB
:10AA500041380528D8D8084621F020F9A0F1300364
:10AA6000092B04D920F0200041380528CCD808460D
:10AA700021F014F9A0F13003092BADD920F020000A
:10AA800041380528A8D9BFE72228A5D18B680874CA
:10AA9000013BC1E905438B604B60084621F0FEF89D
:10AAA0008B680248A1E700BF41044401D5AE020013
:10AAB00038B58368013B8360044621F0EFF86628CF
:10AAC00005460ED074280ED10A49204621F0F2F82E
:10AAD00048B9636863610848A3682574A36163602B
:10AAE00038BD0649F1E721232374636863610020C0
:10AAF000A368F3E7B05C0500D5AE0200B45C0500C6
:10AB000008B50146084621F0C9F8A0F13003092B29
:10AB1000F8D9A0F12D03012BF4D96528F2D02B2808
:10AB2000F0D08B68044830220A744A68013BC1E9BE
:10AB300005238B604B6008BDD5AE02007B2805D88D
:10AB4000652806D8382813D821280DD86FF01500AD
:10AB500070476638094BC0B2C34013F0010F14BFF1
:10AB600000206FF0150070472238054BC0B2F3E7A4
:10AB70005B280CBF00206FF01500704709E0200033
:10AB800001C07B0070B500244C60C66803460120FC
:10AB90009A68B24202D16FF015001AE0157834B10C
:10ABA000B5F1220418BF012401329A60F0E75D2D4F
:10ABB00010D10138F8D10C68121B01324A60094AE1
:10ABC0001A609A68013A9A609A610A685A615F222B
:10ABD0001A7470BD222D03D05B2DE5D10130E3E75F
:10ABE0000124E1E7D5AE02002DE9F3410446826875
:10ABF0000F4F92F8008028F0E5FC002313700E46FA
:10AC0000C35105460A22606801A91EF041FF306069
:10AC1000A36883F80080E85918B1404202B0BDE84B
:10AC2000F081A268019B9A4218BF6FF01500F5E70A
:10AC30000C0000002DE9F341044682680F4F92F8A2
:10AC4000008028F0BFFC002313700E46C351054658
:10AC50000A22606801A91FF029F83060A36883F810
:10AC60000080E85918B1404202B0BDE8F081A26806
:10AC7000019B9A4218BF6FF01500F5E70C00000029
:10AC80002DE9F34104468268104F92F8008028F0C5
:10AC900099FC002313700E46C35105460A226068D2
:10ACA00001A91EF06BFFC6E90001A36883F80080CC
:10ACB000E85918B1404202B0BDE8F081A268019B9A
:10ACC0009A4218BF6FF01500F5E700BF0C000000B6
:10ACD0002DE9F34104468268104F92F8008028F075
:10ACE00071FC002313700E46C35105460A226068AA
:10ACF00001A91FF041F8C6E90001A36883F80080AC
:10AD0000E85918B1404202B0BDE8F081A268019B49
:10AD10009A4218BF6FF01500F5E700BF0C00000065
:10AD20000A4910B5044620F0C5FFD4E901230028E4
:10AD3000B7BF21216E2121746261A4BF21746261B9
:10AD4000A3616360ACBF0248002010BDB95C050080
:10AD5000D5AE02002DE9F74316464C791278DDF89E
:10AD6000289080460F46104661081D4621F0D2F813
:10AD700040B15B296BD053D801F15E0303F07F0330
:10AD8000142B1DD96FF015004FF0FF3177E0A1F1C2
:10AD90007304082CF6D801A353F824F0C7AE0200C0
:10ADA00071AE02008FAE020085AD020085AD0200DB
:10ADB00085AD020085AD020085AD02003DAE02000A
:10ADC00022391429DED801A353F821F0BBAE0200CA
:10ADD00085AD020085AD020085AD020085AD0200A3
:10ADE00085AD020085AD020085AD020085AD020093
:10ADF00085AD020085AD020085AD020085AD020083
:10AE000085AD020085AE0200AFAE0200AFAE02001B
:10AE100063AE020085AD02009BAE0200A5AE02004B
:10AE20007B29AFD87229B2D8662921D06929A9D146
:10AE3000BA682946304621F00FF810E0D7E902122F
:10AE40002B46404603B0BDE8F04321F0F3B8CDF8FF
:10AE50000090D7E902122B46404621F090F9C11725
:10AE60000DE073682B6029464046FFF78BFEF6E73E
:10AE7000A2F174035A425A412A700020014603B0DD
:10AE8000BDE8F08329463046FFF7AEFEE7E7BA6833
:10AE90002946304621F011F8E1E729463046FFF710
:10AEA000EFFEDCE729463046FFF712FFD7E772686E
:10AEB0002A60B3689B1A6B60DFE7B36800221A70E0
:10AEC00073682B60D9E7BA682946304620F00BFF3B
:10AED000C5E700BF10B50146084620F0DFFE49284F
:10AEE000044654D016DC222853D009DC58B320285D
:10AEF00003D0A4F10903042B08D88B684B60EBE75F
:10AF00002D2830D03A2826D02C2824D0303C092CAB
:10AF100032D915E06E283ED00ADC5D281BD003DC58
:10AF20004E2834D05B28F0E76628EFD11B4819E0A3
:10AF30007428FBD07328E9DD7B280CD07D280AD04B
:10AF400021230B7400E008744B684B618B688B61A4
:10AF50004B60002006E04B684B6111488B680C7415
:10AF60008B614B6010BD084620F098FE8B6830382E
:10AF7000013B09288B6001D80A48F3E7084620F016
:10AF80008DFE8B68492803F1FF338B60BED10648E4
:10AF9000E8E70648E6E70648E4E700BFB1AA020092
:10AFA000D5AE020001AB0200D5BC0400CDA9020061
:10AFB00021AD020030B51D468BB0104B0590CDE998
:10AFC0000330084406905F23694603A814468DF8B1
:10AFD0001C3020F0D3FF28B96FF015004FF0FF317F
:10AFE0000BB030BD9DF800307B2BF5D10E9B2A466F
:10AFF000214603A821F01EF8F2E700BFD5AE0200FB
:10B000002DE9F047DFF85880044607464FF0010964
:10B0100014B93846BDE8F08794FAA4F5B5FA85F579
:10B0200009FA05F32E0108EB05156FEA030A24EA75
:10B0300003042B7B002BEBD058F806301B694BB96F
:10B040004644042273682846196807EA0A0721F073
:10B050009DF9DDE7284698470028D9D1F0E700BFE1
:10B06000043C050030B51049104889B0002227F093
:10B070009BFF0F4D0F494FF400320023CDE906230B
:10B0800000240E23CDE90334CDE901440A4B00949A
:10B090004FF4407228461DF04BFE0849284627F021
:10B0A000DAFD204609B030BDC1B00200801000209A
:10B0B000E80B0020405C0020EDB30200BD5C050001
:10B0C00001481DF0EFBA00BF000900202DE9F0474C
:10B0D000804621480F4621F039F90646002833D032
:10B0E00000252846BDE8F087237B83B12368DB6811
:10B0F0000BB120469847636883F8069023681B6964
:10B10000D3B9636804221968204621F03FF901365B
:10B1100010345445E8D3B8F1000FE2D0002DDFD051
:10B120002846FFF76DFF0546002FF7D000214FF4AA
:10B13000A47027F048FEF1E7204698470028E0D0A9
:10B1400009FA06F31D43E2E7044CDFF814A00546B4
:10B150004FF00109DDE700BF4C210020043C050051
:10B16000143C0500014B53F82000704704400500D3
:10B1700008B5034608462BB1044A136000F07AFC78
:10B18000002008BD6FF01500FBE700BF8C02002017
:10B1900010B5044C237813B903481DF083FA01233A
:10B1A000237010BD6C5200200009002010B5044629
:10B1B0000B4821F0CBF85CB1BFF35B8F094B53E830
:10B1C000001F013943E80012002AF8D1BFF35B8F5A
:10B1D000054827F0F5FE0548BDE810401DF062BAAD
:10B1E0004421002048210020801000200009002078
:10B1F0000020064BBFF35B8F014653E8000F43E886
:10B200000012002AF9D1BFF35B8F70474421002060
:10B2100070B5FFF7EDFF084C084E0546B44200D369
:10B2200070BD63685B792BB123685B6813B12946F5
:10B23000204698471034F1E7043C0500143C050013
:10B2400010B5044C0449204620F081FA034B1C60E1
:10B2500010BD00BFC0070020F03F05003C210020CA
:10B260000D4A0E48002310B513700D4A13600D4AA5
:10B270004FF400411360FFF77BFFFFF7E1FF0A4B3C
:10B280000A4918468B4200D310BD1A1A5C68121185
:10B29000013222711033F5E76D52002049C30400DA
:10B2A0004421002048210020043C0500143C0500F6
:10B2B000014600220148002320F06ABAC00700209E
:10B2C000014820F003BB00BFC0070020024B01462D
:10B2D000186820F04FBB00BF3C210020014820F03F
:10B2E00084BB00BFC007002070B5294B1878002828
:10B2F0004DD0FFF7E5FF0546002845D1254B264CEC
:10B300001B68002B19DD27F007FE4FF47A72A0FBB3
:10B31000020302FB0131C30BD4E9002043EA41439D
:10B320009B1A4FEAD13140F2E93261EB00019342BE
:10B3300071F1000101D3FFF76BFFD4E9003213F57F
:10B340007A7342F10002C4E90032BDE87040FFF7B1
:10B35000C5BF63685B7923B1236829461B68204613
:10B3600098471034B442F4D32846FFF7AFFFBFF339
:10B370005B8F0A4B53E8001F013943E80012002A93
:10B38000F8D1BFF35B8FB9E7054C064EEAE770BD15
:10B390006C52002044210020781000204821002019
:10B3A000043C0500143C050070B50D4D297861B9C9
:10B3B0000120FFF78BFE0B4C0B4EB44206D3FFF778
:10B3C00093FF0028FBD101232B7070BD63685B796C
:10B3D0001BB1236820469B6898471034EDE700BFF7
:10B3E0006D520020043C0500143C050000212DE9AD
:10B3F000F0470846FFF76AFE044658B340F2676814
:10B400004FF0000928F0DEF81B4B1C4A1B58136054
:10B4100033B11B4B1B68092B02DD1A481DF042F9A2
:10B42000194FDFF860A0002544B12046FFF7E8FD82
:10B43000044618B94FF0FF384FF0FF39FFF754FFBB
:10B44000064628B9B5B942464B4650461DF064F948
:10B450003546E9E74FF0FF384FF0FF39D2E72B6868
:10B460009B691BB100221146284698471035BD4202
:10B47000F5D3E8E7054DFAE7080000004021002079
:10B480004821002000090020143C0500043C050070
:10B4900013B5184820F05AFF174B1B7873B1EFF320
:10B4A0001184202383F31288BFF36F8FFFF71CFFF3
:10B4B00084F31188BFF36F8F02B010BD0F4B1B6870
:10B4C000002BF9D050B900220023CDE900230C480D
:10B4D0004FF4004200231EF0E5F9EDE70928EBD117
:10B4E000074827F06DFD074802B0BDE810401DF089
:10B4F000D9B800BF482100206D5200204021002013
:10B50000801000200009002010B5064B1B6804467F
:10B5100098472146A060044820F0B9F9BDE81040E2
:10B52000FFF7B6BF8C020020C0070020044A054B7D
:10B530009B1AB1EBD30F34BF52F831000020704793
:10B54000DC3A0500043C05002DE9F04F8FB004AF54
:10B55000C1F34A28B8600D4691467B600C0DB8F1E6
:10B56000000F63D0002607F114034FF0040B4FF0D7
:10B570000A0AC7F80C80C7E907667E620193CDF816
:10B5800008B0CDF800A007F11C03F9683246484620
:10B59000FEF708FFB0F5006F03461CD36C468AB077
:10B5A000D9F8041004AB2648C3E9050140F2FF7145
:10B5B000D9611A464FF400711984224B42F8103FAA
:10B5C000214833464FF41251FFF7BEFFA5462C37F2
:10B5D000BD46BDE8F08FC0F30A0804F11700184417
:10B5E00020F0070080083B60FFF762FE68F35325F8
:10B5F000044690B13B68154AC7E9083600F11001CE
:10B6000007F11403F961CDE900A3CDF808B0F9689A
:10B6100007F11C034846FEF7C5FE68F353257B6817
:10B62000B9682A46204620F0D1FED0E704F1170081
:10B6300020F007008008FFF73BFE0446EDE700BF5F
:10B64000D25C0500040000018C3B05009FC3040090
:10B650002DE9F04F87B0DDE91279DDE9105A044693
:10B66000039193469846BFB1CDF800903B465246B1
:10B6700010210020CDF81490FEF7C2FCB0F5006F49
:10B6800006460AD3184A194840F2FF73022107B050
:10B69000BDE8F04F20F0F3BE3E4605F11700304400
:10B6A00020F0070004F007048008FFF701FE0BF00C
:10B6B000070BE40044EA8B1444EA462444EA0554A8
:10B6C000054640B13FB1CDF800903B465246314669
:10B6D0001030FEF795FC039943462246284607B0F2
:10B6E000BDE8F04F20F072BE115D05008C3B0500F7
:10B6F000406820B1034BC01A40F3CF0070474FF0B1
:10B70000FF307047DC3A05000EB403B503AB0146C9
:10B7100053F8042B0448019300F0E8FF02B05DF8F1
:10B7200004EB03B0704700BFE1C40400CA0605D4AF
:10B730008B064CBF02490349FFF7E6BF704700BFC5
:10B740004A5D0500495D05002DE9F04F89B09B4633
:10B75000149B06939DF84CA0159B0593169B179E72
:10B76000049304460D469046BAF1000F00F09D8008
:10B7700006F48073079320F007FE06F002090246E4
:10B7800000283ED091492046FFF7BEFF0746B9F199
:10B79000000F08D016F0440F35D18D492A462046B7
:10B7A000FFF7B2FF074406F0010353B1894B8A4902
:10B7B00053F82A20894B2046002A08BF1A46FFF773
:10B7C000A3FF06F48073002B49D006F00803002B7A
:10B7D00063D1B8F1000F66D0814942462046FFF799
:10B7E00093FF0546069B3D44002B6DD1049B002B27
:10B7F00073D1F30700F1E48031462046FFF796FF4E
:10B80000D8E00746C3E7774B18680028CAD0764BC4
:10B810004FF47A791B68B5FBF3F54FF46163B5FB20
:10B82000F0F100FB115509FB05F54FF03C0CB1FBA5
:10B83000F3F203FB1211B5FBF0FEB1FBFCF300FBCE
:10B840001E550CFB131109FB05F50091B5FBF0F536
:10B850006649CDE901E52046FFF756FFA2E706F06D
:10B860000803EBB1624B634953F82A202046FFF7E7
:10B870004BFF0546B8F1000F05D059494246204616
:10B88000FFF742FF0544BBF1000FABD05A495A46BF
:10B890002046FFF739FF0544A4E74FF0000BE1E72E
:10B8A00006F00805E6E745469CE7BBF1010F069B5D
:10B8B00006D1002B64D1049B002B7BD000250CE02B
:10B8C000002BF8D04D485CE04D48069B4D49224680
:10B8D0001FF0C6FD049B002B68D0DFF82C81DFF839
:10B8E0002C91049F3146102F204628BF1027FFF7C8
:10B8F0001DFF4FF0000B5D4545DC059B49461A785E
:10B900002046FFF701FF4FF0010B1BF0070F03D19B
:10B9100041462046FFF7F8FE5F453BD9059B494667
:10B9200013F80B202046FFF7EFFE0BF1010BBBF1E4
:10B93000100FEAD1364920464FF0000BFFF7E4FE26
:10B940005A46059B9A5CA2F120015F2928BF2E224E
:10B9500030492046FFF7D8FE0BF1010BBBF1100F69
:10B960001DD01BF0070F03D141462046FFF7CCFE48
:10B970005F455A46E5D841462046FFF7C5FEEBE74E
:10B980001F485546A1E741462046FFF7BDFE0BF193
:10B99000010BB0E720492046FFF7B6FEC5E7059B3F
:10B9A0003B440593049BDB1B04939AD1BAF1000F2F
:10B9B0007FF41FAF204609B0BDE8F04F20F083BDF3
:10B9C000064A05492046FFF79FFE15E7515D050031
:10B9D000555D050014400500AB6805004C5D050091
:10B9E0007A5D050054210020502100205E5D050095
:10B9F000284005007E5D0500845D050017C5040034
:10BA0000E1C40400EDC60200915D0500895D0500FA
:10BA1000935D0500955D05008F5D050073B542F2ED
:10BA20000F738B4228BF0B4605680F4A0446052159
:10BA300068461EF003F863680C495B6806460B22F3
:10BA4000284620F032FD63683246694628465B6826
:10BA500020F02BFD636806495B681B22284620F016
:10BA600024FD02B070BD00BF31640500B45D050067
:10BA7000985D0500074A00210123904206D8064A36
:10BA800001B901231360054B1860704740085B0043
:10BA90000121F2E740420F005021002054210020F4
:10BAA000F8B5074F0D4604464618B44201D1284662
:10BAB000F8BD14F8011BBB6801485B689847F4E7C0
:10BAC000E8360500014B0360002070477040050018
:10BAD00007B51B491B4820F0C9FF70BB1A4919481C
:10BAE00020F0C4FF48BB1949164820F0BFFF20BB17
:10BAF0001749144820F0BAFFF8B90146154A114811
:10BB000021F07DFAC8B9024613490E48012321F0FD
:10BB100051FB90B901230093014602230948EF220B
:10BB200020F0C4FE48B9074820F0E9FE28B90548CE
:10BB300003B05DF804EB20F012BF03B05DF804FB26
:10BB40000C030020CC0A0020F4020020DC020020BC
:10BB5000C402002098020020F65D050008B50348E5
:10BB6000034A0021121A20F052FD08BD580B002094
:10BB7000F85300200748084A084908B5121A20F06F
:10BB800048FD0748074A0849BDE80840121A20F056
:10BB900040BD00BF00000020580B00208488050035
:10BBA0000000002000000020848805002DE9F047F7
:10BBB000064600AF0C46002936D0E9468AB0D1E9E6
:10BBC0000012A3686D462148A8464FF0050AC5E952
:10BBD0000501C5E9072348F810AF1D484246002378
:10BBE0004FF42151FFF7B0FCCD46D4E9031263694D
:10BBF000AD461848C5F810A0C5E90501C5E90723F9
:10BC00001348002342464FF42151FFF79DFCCD46D7
:10BC1000E369114A0E48012120F031FCA3690F4A63
:10BC20000B48012120F02BFC012E07D1EFF30583F7
:10BC30000B4A0748103B314620F021FC2146304694
:10BC40001CF076F9BD46BDE8F08700BF465E0500F2
:10BC5000CC3B0500755E0500A45E0500B35E0500E3
:10BC6000E15E050030BFFFF7FDBF00BF2DE9F041E9
:10BC70000B4EDFF8308006EB0807CC1B054632463A
:10BC80000949204627F08CFAA01942460021083CB9
:10BC900027F094FAC5F8844007F10800BDE8F08168
:10BCA0000000000008000000143C0500054B5A6924
:10BCB0009B689A421FBF044A536843F08053536005
:10BCC000704700BFF04F002000ED00E070B5294C38
:10BCD00006460D462848294920F0A8FCA36AD90445
:10BCE0003CD52548264920F0A1FC1720A36A1A0557
:10BCF00004D52148234920F099FC18201D4CA36A43
:10BD00009B0512D51C48204920F090FCA36BA26A29
:10BD1000100409D51D4A1848012120F0B0FB1EB1BE
:10BD2000A36A23F40043A3621920124CA36A5905A5
:10BD300004D51148164920F079FC1A20A36ADA05C7
:10BD40000ED50D48134920F071FC1B20094A936A57
:10BD500043F47F43936200232B7070BD1620C5E728
:10BD6000A36A9B04F2D504480B4920F05FFC1C2019
:10BD7000ECE700BF00ED00E0CC3B0500F45E050001
:10BD80000A5F05001B5F05002E5F0500475F050089
:10BD90005C5F0500775F05008F5F050010B5204CE4
:10BDA0002049214820F042FCA36A990136D51E485B
:10BDB0001E4920F03BFC1E20A36ADA0104D51A4874
:10BDC0001B4920F033FC1F20154CA36A1B0304D52C
:10BDD0001548184920F02AFC2120A36A590304D5EC
:10BDE0001148154920F022FC22200D4CA36A9A0329
:10BDF00004D50D48114920F019FC2320A36ADB0368
:10BE000004D509480E4920F011FC2420044A936A05
:10BE10006FEA03436FEA1343936210BD1D20CBE723
:10BE200000ED00E0BE5F0500CC3B0500D65F0500DD
:10BE3000E95F05000360050021600500466005001C
:10BE4000606005002DE9F843364D80468946364846
:10BE50003649174620F0EAFBAB6ADE0627D534499F
:10BE6000314820F0E3FB1124AB6A1D0704D53149AA
:10BE70002D4820F0DBFB12242A4DAB6A980718D519
:10BE80002D49294820F0D2FB6E6BAB6A190646D5C6
:10BE90002A4A25483346012120F0F1FAB9F1000F72
:10BEA00003D0AB6A23F08003AB62132403E01024B9
:10BEB000DAE76FF015061B4DAB6ADA0704D52049A7
:10BEC000194820F0B3FB1424AB6A9B0604D51D4926
:10BED000154820F0ABFB1524124B9A6AD50602D404
:10BEE0009A6A90070AD55B68190507D5414630461E
:10BEF00000F02EFA10B180F309880224094B9A6AE7
:10BF0000920642BF5A6A22F400525A629A6A42F07A
:10BF1000FF029A6200233B702046BDE8F8836FF071
:10BF20001506C2E700ED00E0CC3B05008B60050084
:10BF3000A16005001B5F0500D4600500EC600500F2
:10BF4000026105008F5F05002DE9F041664B8AB064
:10BF5000D3F8048000AF0446C8F30805002686F332
:10BF60001188BFF36F8F02F07F43B3F17F4F07D18A
:10BF700002F00C03082B12D15C495D4820F056FBFF
:10BF8000002634460023FB71EB1E092B00F28A8049
:10BF9000DFE803F00A80837C888888888886100719
:10BFA0004CBF0C460126EDE7524951484E4D20F05A
:10BFB0003DFB0023FB71EB6A9A0705D54E494C48BF
:10BFC00020F034FB002332E0EB6A002B01DA4B490E
:10BFD000F5E7EB6A5B00F5D54949454820F026FBBB
:10BFE0006B69A26943F480736B61BFF34F8FBFF33A
:10BFF0006F8F6B6932F8022C23F480736B61BFF38F
:10C000004F8FBFF36F8F4DF602739A4208D0AB6A21
:10C01000DBB273B3FA1D01212046FFF713FF37E0AF
:10C020002368384A3248012120F029FA2368FA7936
:10C03000DAB907F1080504F1200C206861682A4686
:10C0400003C2083464451546F7D17A6A002E45D0FC
:10C05000C2F3080121B96FEA52226FEA42227A62E2
:10C0600007F108011846FFF7A1FD2837BD46BDE8D6
:10C07000F081AB6A13F47F4F04D0F91D0120FFF764
:10C0800025FE05E0AB6AB3F5803F9BD3FFF786FE44
:10C090000346CCE7FA1D0021BEE7F91D0020EEE7BC
:10C0A00019498CE7194A1A4B18F4F87FE8468AB008
:10C0B00018BF13466A461749C2E905134FF40073C7
:10C0C0001384103D144BD56142F8103F08480023FB
:10C0D0004FF41151FFF738FAC54673E722F4FF72A7
:10C0E00022F00102BBE700BF00ED00E04F61050058
:10C0F000CC3B05007A61050091610500B261050045
:10C10000C0610500DF610500FB61050036610500C7
:10C11000216105001F62050004000001044B5A69FB
:10C1200042F010025A615A6922F008025A617047BF
:10C1300000ED00E0EFF30880EFF3098101B57246EE
:10C14000FFF702FF01BD00BF0B4880F3088819F01C
:10C150004FF9202080F3118808484FF404614018FB
:10C1600080F30988EFF314800221084380F31488D8
:10C17000BFF36F8F00F0B4F8408400208076002079
:10C18000084B9B6883420BD1EFF3058343B1064B09
:10C190005A6842F080525A605A6A22F400425A6247
:10C1A0001DF090B8F04F002000ED00E015498A68BE
:10C1B0004FF030001044EFF3098C80E8F01F20208E
:10C1C00080F31288BFF36F8F0F4F4FF000664A69FC
:10C1D0008A603E60D2F884000C4C2060D2F888005F
:10C1E0000023C2F8883080F3118804B5104600F0AF
:10C1F00015F9BDE8044002F1300090E8F01F8CF31F
:10C2000009887047F04F002004ED00E084210020F1
:10C210001EF0040F0CBFEFF30880EFF30980816973
:10C2200011F8021C0229FFD001B5724620F0F3F983
:10C2300001BD00BF40B2002807DB044A41090123C9
:10C2400000F01F00834042F82130704700E100E019
:10C2500040B200280CDB4309064900F01F002033E0
:10C260000122824041F82320BFF34F8FBFF36F8F2D
:10C27000704700BF00E100E0054B420900F01F00DD
:10C2800053F82220012303FA00F01040704700BF4A
:10C2900000E100E040B20028A8BF00F1604001F1D9
:10C2A0000101B8BF064B4FEA4111ACBF00F5614038
:10C2B00000F00F00C9B2B4BF195480F800137047E2
:10C2C00014ED00E0044B054A23F07F039360BFF3B5
:10C2D0004F8FBFF36F8F70470070020000ED00E0DA
:10C2E00008B5FFF7EFFF0B4AD2F8883023F470034C
:10C2F000C2F88830EFF3148323F0040383F3148827
:10C30000BFF36F8FFFF72AFCFFF734FC00F05CF8F7
:10C310001BF032FF00ED00E042F8203C009B42F8A9
:10C320001C3C0A49019B42F8183C029B42F8143C11
:10C3300021F001014FF0807342F8043C42F8081CE0
:10C340000023203A0265C0F8883070477DA70200BC
:10C35000094A0346906870B113F1160F406F05D07B
:10C36000A0F140029A4205D8834203D2814228BFFD
:10C370000020704700207047F04F002008B5154698
:10C380000C4A0D4B9060D0F884201A600E4600F0E5
:10C3900045F82C4686F309880020044B9847204630
:10C3A000002100220023024C2047000043C6040065
:10C3B0007DA70200F04F002084210020014B1022B5
:10C3C0001A61704700ED00E0044800232021C218E4
:10C3D0000133302B82F80013F9D1704700E100E0FF
:10C3E00008B5EFF30583064A103B02EBC30152F890
:10C3F000330049688847BDE80840FFF757BC00BFD5
:10C40000C8370500024B034A0348012100F08AB8EF
:10C41000000004200000002070400500426F054B22
:10C42000403A1A60044A4021C3E90112184601212A
:10C4300000F082B88821002000000B1508B50346E3
:10C440001048D0F89020C2F30722013A934207D94E
:10C450000D480E4A012120F012F86FF0150008BDBA
:10C46000C0F898300A6822F01F021A4342F0100206
:10C47000C0F89C208A6842F00102C0F8A02018464B
:10C48000EDE700BF00ED00E0A43B050036620500CB
:10C49000F0B50E4685B01F4604460025B5420DDABC
:10C4A000606810B397B1431E18420AD0104A114871
:10C4B0002B4601211FF0E3FF6FF01502104605B077
:10C4C000F0BD1F28F2D921680B42EFD123680193F8
:10C4D00020F0DAF8A36801A90343D0B20393FFF771
:10C4E000ADFF10F1160FE7D0421C01350C34D5E733
:10C4F0005C620500A43B0500044B0522C3F89420B0
:10C50000BFF34F8FBFF36F8F704700BF00ED00E0A8
:10C51000BFF35F8F024B0022C3F89420704700BF27
:10C5200000ED00E010B5034C01232278FFF7B0FFC7
:10C53000207010BD6F52002008B50B4A00231278FE
:10C54000FFF7A6FF10F1160F07D0084A0021D2F816
:10C550009030C3F30723984200DB08BDC2F898006F
:10C56000C2F8A0100130F2E76F52002000ED00E0A9
:10C570002DE9F04357485849D0F890300D68C3F37F
:10C5800007239D4285B000F2A180FFF7C1FF4968F3
:10C590000022954201F10C011AD1504C504F2570E8
:10C5A0006846FFF78FFADFF83C81DFF83C910646DA
:10C5B0000025AE421FD1237846490020D1F89020B3
:10C5C000C2F3072293427BDBFFF796FF00204CE08B
:10C5D000C0F8982051F80C3C23F01F03134343F09C
:10C5E0001003C0F89C3051F8043C43F00103C0F83C
:10C5F000A0300132CDE7009800EB05114FEA051C91
:10C60000CB683B40B3F5000F44D00AD8B3F5001F08
:10C610002ED0B3F5800F34D0B3F5801F10D0013584
:10C62000C7E7B3F1807F3ED0B3F1007FF7D150F878
:10C630000C3088684A6820F027F840F4802009E030
:10C6400050F80C3088684A6820F01EF840F0885096
:10C6500040F43020039001A92078CDE90123FFF7B1
:10C66000EDFE002828DA6FF0150005B0BDE8F08374
:10C6700050F80C3088684A6820F006F840EA080054
:10C68000E8E750F80C3088684A681FF0FDFF40EA80
:10C690000900DFE750F80C3088684A681FF0F4FFA3
:10C6A00040F08270D6E750F80C3088684A681FF076
:10C6B000EBFF40F08870CDE7237801332370AEE7BD
:10C6C000C1F89830C1F8A000013377E74FF0FF3090
:10C6D000CBE700BF00ED00E07C4005006F5200207A
:10C6E0000000F0FF0000081100000206F0B587B05E
:10C6F00007460E4614460021102268461D4626F0C5
:10C700005DFD02238DF802302A46054B0193214638
:10C710006846CDE904761DF051FC07B0F0BD00BFBE
:10C72000A9C6040008B5024B1B689847002008BD45
:10C7300094210020034B044A1860937843F00203CD
:10C7400093707047942100202403002008B5064907
:10C75000064821F00701C1F1005202F580221EF0C7
:10C7600042FE002008BD00BF6FC2002098210020BB
:10C7700003484FF0FF324FF0FF331BF099BE00BF6C
:10C780003403002001481BF00BBF00BF340300201E
:10C7900038B50546FFF7ECFF08482A4608211EF089
:10C7A000B3FD044628B925B126F00CFF044B0C223A
:10C7B0001A50FFF7E7FF204638BD00BF9821002040
:10C7C0000C00000010B50446FFF7D2FF21460348D5
:10C7D0001EF05BFDBDE81040FFF7D4BF982100209C
:10C7E00070B5A0FB01543CB92846FFF7D1FF0646BF
:10C7F00040B90026304670BD26F0E4FE044B0C2202
:10C800001A50F6E72A46214626F0D8FCF2E700BF88
:10C810000C00000070B54169867A0B4D044659B191
:10C82000437ADB0706D42C2303FB06535B6A1B68A1
:10C830009B689847002363612C20214606FB00502B
:10C84000BDE8704026F0B6B86C090020024B2C22DF
:10C8500002FB0030704700BF6C090020827A064B53
:10C860002C2101FB02339A6A1B7F1B33801A23F0B1
:10C870000303B0FBF3F070476C09002038B5074B99
:10C88000827A2C2404FB02335B6AD3E901240C6016
:10C890001568FFF7E3FF04FB005038BD6C0900206A
:10C8A0002DE9F04385B005466846039190461C4645
:10C8B00026F034FBDDE90067EFF31189202383F3D1
:10C8C0001288BFF36F8F6B8B002B41D02A8B9A425B
:10C8D00025D90022002328461BF0B2FE0446F0B101
:10C8E00089F31188BFF36F8F039B002B41D0324631
:10C8F0003B46684626F037FBA27A264B2C2101FBEB
:10C90000023320465B6A1B6803A91D68DDE900232A
:10C91000A847606170BB2046FFF77CFF24E0698B6D
:10C920004B1E6B8389F31188BFF36F8F2B7F2A8B8C
:10C93000AC6A1B3323F00303521A02FB0344154B6A
:10C94000154AEB1A9B105343A3722B7FE372CBE77C
:10C9500089F31188BFF36F8F2346424628461BF0A8
:10C960006FFE04460028BFD10024204605B0BDE874
:10C97000F0836361012300252381039B6382E27AB4
:10C980006560294604F1180026F018FC63692582C9
:10C99000E360EAE76C090020A38B2EBA70B50D4C5A
:10C9A0002C2500B970BD037A4668002BFAD0013BF4
:10C9B000DBB20372002BF5D1C3604360837A05FBC1
:10C9C00003431B6A13B198473046EAE7FFF722FF9B
:10C9D000FAE700BF6C0900202DE9F84F06460D4626
:10C9E0001746044621466468002CFBD1DFF86CA092
:10C9F0004FF02C0901F10C0B58461FF035FFA842EF
:10CA000028BF28461FFA80F83946424658461FF08C
:10CA1000D4FEB5EB0805444447441CD00C9B4BB1F5
:10CA2000DDE90A010D9A98470146A0B130461FF092
:10CA300090FEDFE7B37A03FB09A0436A9B6843B12A
:10CA4000AB4228BF2B461946DDE90A23FFF728FF32
:10CA5000EAE72946F8E72046BDE8F88F6C09002090
:10CA60000E4A0123C2F840354FF080424FF080510A
:10CA7000C2F87835D1F83001082808D1D1F834113E
:10CA8000052904D80648415C09B1C2F838364FF090
:10CA900080430122C3F880250020704700E0014058
:10CAA000B062050020B1034B800143F00103184739
:10CAB000704700BF203D050010B503460548826859
:10CAC00014688AB21946A0470028B4BF6FF004006A
:10CAD000002010BD083705002DE9F04190F8203006
