:020000022000DC
:1070000040210020B17C02005DE402009D7C020072
:107010009D7C02009D7C02009D7C0200000000001F
:10702000000000000000000000000000797D020068
:107030009D7C020000000000157D02009D7C020086
:10704000497F0200497F0200497F0200497F020018
:10705000497F0200497F0200497F0200497F020008
:10706000497F0200497F0200497F0200497F0200F8
:10707000497F0200497F0200497F0200497F0200E8
:10708000497F0200497F0200497F0200497F0200D8
:10709000497F0200497F0200497F0200497F0200C8
:1070A000497F0200497F0200497F0200497F0200B8
:1070B000497F0200497F0200497F0200497F0200A8
:1070C000497F0200497F0200497F0200497F020098
:1070D000497F0200497F0200497F0200497F020088
:1070E000497F0200497F0200497F0200497F020078
:1070F000497F0200497F0200497F0200497F020068
:1071000053B94AB9002908BF00281CBF4FF0FF310E
:107110004FF0FF3000F00CB8ADF1080C6DE904CE73
:1071200000F012F8DDF804E0DDE9022304B0704756
:10713000704700BF10F8012B11F8013B012A28BF4E
:107140009A42F7D0D01A70472DE9F04786468C4610
:107150000846089E154674461946002B40F0C2802A
:107160008542B2FA82F245D94AB1C2F1200300FA4F
:1071700002FC2EFA03F3954043EA0C0C94404FEACC
:10718000154EA8B2BCFBFEF8230C0EFB18CC08FB76
:1071900000F943EA0C43994528D9EB1808F1FF3769
:1071A00004D2994502D9A8F102072B44A3EB0903A5
:1071B000A4B2B3FBFEFC0EFB1C330CFB00F044EA54
:1071C0000344A04214D92C190CF1FF3304D2A0427D
:1071D00002D9ACF102032C44241A43EA07401EB141
:1071E000D440002334607360BDE8F0874746DDE794
:1071F0006346F1E792BB431B01214FEA154EAFB244
:10720000B3FBFEFC200C0EFB1C330CFB07F840EA22
:107210000343984562D9EB180CF1FF3004D298452E
:1072200002D9ACF102002B44A3EB0803A4B2B3FBD8
:10723000FEFC0EFB1C330CFB07F744EA0344A74299
:107240004ED92C190CF1FF3304D2A74202D9ACF16C
:1072500002032C44E41B43EA0040C0E7C2F12003D0
:1072600020FA03F1954090402EFA03F303434FEACE
:10727000154EAFB2B1FBFEFC0EFB1C10190C0CFB43
:1072800007F841EA0041884504FA02F422D9691856
:107290000CF1FF3004D2884502D9ACF10200294438
:1072A000A1EB08019BB2B1FBFEFC0EFB1C110CFB19
:1072B00007F743EA01439F420ED9EB180CF1FF3167
:1072C00004D29F4202D9ACF102012B44DB1B41EAFC
:1072D000004192E76046E3E76146F7E76046A3E7CF
:1072E0006346B7E7834206D916B9002108467BE713
:1072F000C6E900E0F9E7B3FA83F78FB9834201D317
:10730000724508D8BEEB020460EB030301209C46E3
:107310001EB9002168E73846FAE7C6E9004CF8E7ED
:10732000C7F1200CBB4022FA0CF41C432EFA0CF1DE
:1073300020FA0CF3B84001434FEA14490EFA07F55E
:10734000B3FBF9F81FFA84FE09FB18300B0C08FB9D
:107350000EFA43EA00439A4502FA07F240D9E318CD
:1073600008F1FF3004D29A4502D9A8F10200234463
:10737000A3EB0A0389B2B3FBF9F809FB183308FB46
:107380000EFE41EA03418E452CD9611808F1FF3306
:1073900004D28E4502D9A8F10203214443EA0040F9
:1073A000A0FB0298A1EB0E014145CE46434602D315
:1073B00006D14D4504D2B9EB020E68EB0403013847
:1073C000002EA6D0B5EB0E0261EB030101FA0CFC16
:1073D00022FA07F34CEA0303F940C6E9003198E7C3
:1073E0004046C5E74346D9E7F8B5174D284609F0AA
:1073F0009BFB044630B32A69A968136843F0806395
:1074000013600B68114A1A2128469847002819DB97
:107410000F4F104EAB684FF080615B69284698476C
:1074200000280FDB84F0010414F0FF0414BF394678
:107430003146094806F0F0F900214FF4803009F098
:107440002EFEE7E70020F8BD30150300010006001E
:107450005E1A0300611A0300651A0300014B1B68E2
:10746000184700BFD0000020014B1860704700BFD4
:10747000D000002030B585B004460D461022002112
:10748000684609F07BFF02238DF802302A46044B40
:1074900001932146684606F0D1F905B030BD00BF22
:1074A0005D74020080B505460E461746984605F005
:1074B000BFFE034609F0CEFFDFF81890044649F8F6
:1074C0000030424630463946A84754F8090000F0DB
:1074D0000BFC00BF080000002DE9F047058B0446B7
:1074E0002807904611D4022905F0070540F0CC800A
:1074F000204606F003FE78B10138218B042811D80C
:10750000DFE800F0C2106D85950001290CBF45F041
:10751000100545F02005258388F31188BFF36F8F90
:10752000BDE8F08701F0070AAA4500F0A580002712
:10753000B9463E46A368002B00F0BC8041F008012C
:10754000218388F31188BFF36F8FA168002900F0B1
:10755000BA800D68002900F0B680D1F80480334667
:1075600052462046C047002D76D02B6829461D463E
:10757000F0E701F007035A1F012A1BD8002221F06F
:107580000701062B276889B2C4E9002209D13B46CE
:1075900003E0628B013262831B68002BF9D141F05A
:1075A00002012183204606F0A9FD00287AD041F08F
:1075B000200176E0042B0AD121F0070189B2218352
:1075C000204606F09BFD10B141F020012183218B64
:1075D00001F0070AAA454FD00027B946AAE7236958
:1075E00021F0070141F00601062DD3F80090218318
:1075F0002DD1B9F1000F3FD041F00801218388F36C
:107600001188BFF36F8F3A492046C84729E021F01F
:107610000701236941F0040189B2042DD3F80490D5
:107620002183E6D000273E464FF0040A82E721F08E
:107630000701236941F0050189B2052DD3F80890AF
:107640002183D6D000273E464FF0050A72E7002777
:107650003E464FF0060A6DE72B4687E7B9F1000F6B
:10766000D1D1EFF31188202383F31288BFF36F8FFA
:10767000238B23F008032383258BEA062ED525F0E0
:107680001003238305F007056669218B002EBFF6E2
:1076900070AF00232768C4E9003321F0070141F0EF
:1076A00001012183218B01F0070AAA454FF000094F
:1076B0007FF440AF002F9CD041F00801218388F374
:1076C0001188BFF36F8F002FC8D03D68394633460D
:1076D0005246204606F03EFD2F46F4E7AB067FF506
:1076E0001BAF25F02003238305F0070500E700BF4B
:1076F00081E10200014B03600020704788180300FD
:1077000007B51B491B4807F03DF870BB1A491948DB
:1077100007F038F848BB1949164807F033F820BB82
:107720001749144807F02EF8F8B90146154A1148D0
:1077300007F0F1FAC8B9024613490E48012307F0D1
:10774000C5FB90B901230093014602230948EF22AB
:1077500006F038FF48B9074806F05DFF28B905482C
:1077600003B05DF804EB06F086BF03B05DF804FBE0
:1077700048010020FC0300203001002018010020F7
:1077800000010020D4000020741A030008B503484B
:10779000034A0021121A06F059FE08BD8804002091
:1077A000E40C00200748084A084908B5121A06F0F8
:1077B0004FFE0748074A0849BDE80840121A06F07C
:1077C00047BE00BF0000002088040020FC1F03000B
:1077D0000000002000000020FC1F030038B5054613
:1077E0000C4699B1D1E901230F48096806F05EFC07
:1077F000D4E90423E1680D4806F058FCE1690C481F
:1078000006F054FCA1690B4806F050FC012D05D18F
:10781000EFF305810848103906F048FC2146284658
:10782000BDE8384004F05EBCC41A0300F41A03003B
:10783000241B0300341B0300631B030030BFFFF74E
:10784000FDBF00BF2DE9F0410B4EDFF8308006EBA5
:107850000807CC1B054632460949204609F080FD41
:10786000A01942460021083C09F088FDC5F8804077
:1078700007F10800BDE8F0810000000008000000EA
:1078800074180300054B5A699B689A421FBF044A4B
:10789000536843F080535360704700BF800C002052
:1078A00000ED00E02DE9F843324D8046324889462C
:1078B000174606F0FBFBAB6ADE0622D52F4806F022
:1078C000F5FB1124AB6A1D0703D52D4806F0EEFB2E
:1078D0001224284DAB6A980715D52A4806F0E6FB16
:1078E0006E6BAB6A190642D52748314606F0DEFBBF
:1078F000B9F1000F03D0AB6A23F08003AB6213240D
:1079000003E01024DEE76FF015061A4DAB6ADA07C4
:1079100003D51E4806F0CAFB1424AB6A9B0603D5A8
:107920001B4806F0C3FB1524124B9A6AD50602D4F5
:107930009A6A90070AD55B68190507D54146304613
:1079400000F0BAFA10B180F309880224094B9A6A50
:10795000920642BF5A6A22F400525A629A6A42F070
:10796000FF029A6200233B702046BDE8F8836FF067
:107970001506C4E700ED00E0771B03008E1B030033
:10798000C21B0300D61B0300EF1B0300061C0300F1
:10799000261C030010B51D4C1D4806F087FBA36A8A
:1079A000990130D51B4806F081FB1E20A36ADA013D
:1079B00003D5194806F07AFB1F20144CA36A1B0359
:1079C00003D5164806F072FB2120A36A590303D59C
:1079D000134806F06BFB22200C4CA36A9A0303D5D4
:1079E000104806F063FB2320A36ADB0303D50E488F
:1079F00006F05CFB2420054A936A6FEA03436FEAB2
:107A00001343936210BD1D20D0E700BF00ED00E0DE
:107A1000561C03006F1C0300831C03009E1C030004
:107A2000BD1C0300E31C0300FE1C030070B5244CC6
:107A3000064624480D4606F039FBA36AD90435D51D
:107A4000214806F033FB1720A36A1A0503D51F4807
:107A500006F02CFB18201A4CA36A9B050FD51C4876
:107A600006F024FBA16BA36A180407D5194806F099
:107A70001DFB1EB1A36A23F40043A3621920104C1E
:107A8000A36A590503D5144806F010FB1A20A36A0F
:107A9000DA050DD5114806F009FB1B20084A936A48
:107AA00043F47F43936200232B7070BD1620CBE715
:107AB000A36A9B04F2D50A4806F0F8FA1C20EDE709
:107AC00000ED00E02A1D0300411D0300C21B03005E
:107AD000531D03006D1D0300831D03009F1D030044
:107AE000261C03002DE9F0415B4B5F688AB0044619
:107AF000C7F30806002585F31188BFF36F8F02F0E6
:107B00007F43B3F17F4F06D102F00C03082B13D152
:107B1000524806F0CBFA00252C464FF00008F31E21
:107B20008DF80780092B00F28680DFE803F00A7ADF
:107B30007E7684848484848210074CBF0C460125A1
:107B4000EBE74748444E06F0B1FA8DF80780F36A38
:107B50009A0704D5434806F0A9FA002330E0F36AF7
:107B6000002B01DA4048F6E7F36A5B00F5D53F48A1
:107B700006F09CFA7369A26943F480737361BFF3E2
:107B80004F8FBFF36F8F736932F8022C23F4807329
:107B90007361BFF34F8FBFF36F8F4DF602739A423D
:107BA00009D0B36ADBB253B30DF1070201212046BD
:107BB000FFF778FE33E021682D4806F077FA236856
:107BC0009DF80720C2B902AE04F120072068616861
:107BD000324603C20834BC421646F7D1099AB5B3FF
:107BE000C2F3080121B96FEA52226FEA42220992D8
:107BF00002A91846FFF7F2FD0AB0BDE8F081B36AAA
:107C000013F47F4F05D00DF107010120FFF70EFFA0
:107C100005E0B36AB3F5803F9FD3FFF7BBFE034691
:107C2000CEE70DF107020021C1E70DF107010020A9
:107C3000ECE710488FE7104B1049114817F4F87F14
:107C4000A6F1100218BF194606F030FA85E722F4B3
:107C5000FF7222F00102CAE700ED00E0E61D03001A
:107C6000121E03002A1E03004C1E03005B1E0300AD
:107C70007B1E0300981E0300CD1D0300B81D0300EA
:107C8000BD1E0300044B5A6942F010025A615A6942
:107C900022F008025A61704700ED00E0EFF308801F
:107CA000EFF3098101B57246FFF71CFF01BD00BF6C
:107CB0000B4880F3088803F04FFB202080F31188E5
:107CC00008484FF40461401880F30988EFF31480EA
:107CD0000221084380F31488BFF36F8F00F0B4F8DB
:107CE0004021002080130020084B9B6883420BD169
:107CF000EFF3058343B1064B5A6842F080525A6055
:107D00005A6A22F400425A6205F098BA800C0020A8
:107D100000ED00E015498A684FF030001044EFF3A1
:107D2000098C80E8F01F202080F31288BFF36F8F4A
:107D30000F4F4FF000664A698A603E60D2F88000BB
:107D40000C4C2060D2F884000023C2F8843080F309
:107D5000118804B5104600F015F9BDE8044002F1A1
:107D6000300090E8F01F8CF309887047800C0020E9
:107D700004ED00E0480800201EF0040F0CBFEFF3F4
:107D80000880EFF30980816911F8021C0229FFD0F5
:107D900001B5724606F05EFB01BD00BF40B200288F
:107DA00007DB044A4109012300F01F00834042F829
:107DB0002130704700E100E040B200280CDB4309AD
:107DC000064900F01F0020330122824041F82320A1
:107DD000BFF34F8FBFF36F8F704700BF00E100E02C
:107DE000054B420900F01F0053F82220012303FA3B
:107DF00000F01040704700BF00E100E040B20028F2
:107E0000A8BF00F1604001F10101B8BF064B4FEA85
:107E10004111ACBF00F5614000F00F00C9B2B4BF22
:107E2000195480F80013704714ED00E0044B054A24
:107E300023F07F039360BFF34F8FBFF36F8F7047C3
:107E40000070020000ED00E008B5FFF7EFFF0B4AFD
:107E5000D2F8883023F47003C2F88830EFF314832B
:107E600023F0040383F31488BFF36F8FFFF78EFCB6
:107E7000FFF798FC00F05CF804F0FCF900ED00E07E
:107E800042F8203C009B42F81C3C0A49019B42F806
:107E9000183C029B42F8143C21F001014FF0807322
:107EA00042F8043C42F8081C0023203A0265C0F85E
:107EB00084307047A5740200094A0346906870B187
:107EC00013F1160F006F05D0A0F140029A4205D8B9
:107ED000834203D2814228BF0020704700207047B0
:107EE000800C002008B515460C4A0D4B9060D0F868
:107EF00080201A600E4600F045F82C4686F309886B
:107F00000020044B98472046002100220023024C09
:107F10002047000079E40200A5740200800C0020D4
:107F200048080020014B10221A61704700ED00E064
:107F3000044800232021C2180133302B82F800139B
:107F4000F9D1704700E100E008B5EFF30583064A78
:107F5000103B02EBC30152F8330049688847BDE883
:107F60000840FFF78FBC00BFF0150300024B034A27
:107F70000348012100F076B8000004200000002032
:107F800088180300026F054B403A1A60044A4021EA
:107F9000C3E901121846012100F06EB84C08002018
:107FA00000000B15084AC2F898000B6823F01F0365
:107FB000034343F01003C2F89C308B6843F0010385
:107FC000C2F8A030704700BF00ED00E02DE9F0439B
:107FD000DFF8608085B00E461F4604464FF000096A
:107FE000B14523DA6068D8B13FB1411E08421BD1C8
:107FF0001F2819D92368194216D12368019306F066
:108000005EFAA36803430393D8F89050C5F307259D
:10801000D0B2013DA84207D801A9FFF7C3FF421C17
:1080200009F101090C34DBE76FF01502104605B0C9
:10803000BDE8F08300ED00E0044B0522C3F8942076
:10804000BFF34F8FBFF36F8F704700BF00ED00E0AD
:10805000BFF35F8F024B0022C3F89420704700BF2C
:1080600000ED00E010B5034C01232278FFF7AEFFCE
:10807000207010BDB40C002008B50B4A0023127804
:10808000FFF7A4FF10F1160F07D0084A0021D2F81D
:108090009030C3F30723984200DB08BDC2F8980074
:1080A000C2F8A0100130F2E7B40C002000ED00E0AF
:1080B0002DE9F043534B544CD3F890302568C3F36B
:1080C00007239D4285B000F29A80FFF7C1FF002090
:1080D0000C2685421AD14D4C4D4F25706846FFF74E
:1080E00009FBDFF82081DFF82C9106460025AE421F
:1080F00013D1237843490020D1F89020C2F30722FE
:10810000934276DBFFF798FF002042E0616806FBB0
:108110000011FFF747FF0130DBE7009800EB051186
:108120004FEA051CCB683B40B3F5000F48D00AD896
:10813000B3F5001F30D0B3F5800F36D0B3F5801FF4
:1081400010D00135D3E7B3F1807F42D0B3F1007F87
:10815000F7D150F80C3088684A6806F0B0F940F45E
:10816000802009E050F80C3088684A6806F0A7F9CA
:1081700040F0885040F43020CDE901230390D8F836
:1081800090302078C3F30723013B98422AD96FF03F
:10819000150005B0BDE8F08350F80C3088684A68D7
:1081A00006F08DF940EA0900E6E750F80C308868DF
:1081B0004A6806F084F940F0C06040F40030DBE724
:1081C00050F80C3088684A6806F079F940F08270FF
:1081D000D2E750F80C3088684A6806F070F940F031
:1081E0008870C9E701A9FFF7DDFE2378013323700A
:1081F000A7E7C1F89830C1F8A00001337CE74FF041
:10820000FF30C6E700ED00E094180300B40C002036
:108210000000F0FF0000081108B5024B1B689847EA
:10822000002008BD58080020034B044A18609378CA
:1082300043F002039370704758080020600100204B
:1082400008B50649064821F00701C1F1005202F5C0
:10825000802205F0ECFE002008BD00BFFF340020A6
:108260005C08002070B54169857A0C4E044659B10E
:10827000437ADB0706D4242303FB0563DB691B6811
:108280009B6898470023636105EBC505214606EB13
:108290008500BDE8704008F0D7BD00BFD8030020BE
:1082A000024B242202FB0030704700BFD80300209D
:1082B0002DE9F04385B005466846039190461C467B
:1082C00008F096FFDDE90067EFF31189202383F3BF
:1082D0001288BFF36F8F6B8A002B41D02A8A9A4293
:1082E00025D900220023284604F020FA0446F0B1E4
:1082F00089F31188BFF36F8F039B002B41D0324667
:108300003B46684608F099FFA27A264B242101FBE0
:1083100002332046DB691B6803A91D68DDE90023E1
:10832000A847606170BB2046FFF79CFF24E0698A84
:108330004B1E6B8289F31188BFF36F8F2B7D2A8AC6
:108340002C6A1B3323F00303521A02FB0344154B20
:10835000154AEB1A9B105343A3722B7DE372CBE7B4
:1083600089F31188BFF36F8F23464246284604F0F5
:10837000DDF904460028BFD10024204605B0BDE841
:10838000F0836361012300252381039B6382E27AEA
:108390006560294604F1180008F0F0FF6369258242
:1083A000E360EAE7D8030020398EE33870B50D4C5E
:1083B000242500B970BD037A4668002BFAD0013B32
:1083C000DBB20372002BF5D1C3604360837A05FBF7
:1083D00003439B6913B198473046EAE7FFF742FF32
:1083E000FAE700BFD80300200E4A0123C2F8403547
:1083F0004FF080424FF08051C2F87835D1F830010B
:10840000082808D1D1F83411052904D80648415C60
:1084100009B1C2F838364FF080430122C3F88025F5
:108420000020704700E00140E01E030020B1034B34
:10843000800143F001031847704700BF8018030014
:108440002DE9F04190F8203003F01F03012B044682
:108450000F4600F120061BD0022B05D043BB90F83D
:10846000211006F01CFD03E0818CC9B206F0F4FC7B
:108470000546E8B1304606F00DFA024668688368A2
:10848000A2B99B684BB13A463146BDE8F041184766
:10849000818CC9B206F0C7FCEAE76FF0850308F0EB
:1084A000D9FF0F4A13500020BDE8F081DB68E9E7EF
:1084B00094F82110204606F00CF902460028ECD072
:1084C000304606F0E7F940B91369002BE5D03A468B
:1084D0003146204698470346E1E7D368F5E700BFF9
:1084E0000C0000002DE9F04F0B7E33F0800893B0B4
:1084F0000446174600F1200940F071844A7E02F0DC
:10850000010097B117F10C0F0FD088B917F1710F57
:1085100003D10846FFF74AFF03E00846FFF746FF8E
:10852000B846404613B0BDE8F08F002800F0408404
:10853000002B40F00E840B8A072B0DD80846FFF75E
:1085400035FF484606F0A6F90346A069002B00F067
:108550003684802100F03CBCCA68136823625368EB
:10856000C9F804304A68E58C002AE7D0484606F08E
:1085700091F908BB537E15B113F0020F01E013F01F
:10858000040FDBD0002005F0CBFF05460028D8D033
:1085900008F060FF94F82020B84E002312F0600F1E
:1085A0008351C2F341130BD0032B40F0B38108F089
:1085B00051FF6FF0850340E0002DBFD0537EDBE715
:1085C000484606F067F994F82130002840F03981D8
:1085D000013B0A2BEBD801A151F823F029870200B7
:1085E000AF850200AB870200AF850200098602005A
:1085F000AF850200AF850200AF8502007B860200D6
:10860000AF850200DD860200A069618C03697F29C5
:10861000D3F88030CBD8A28C002AC8D1E28C002AB3
:10862000C5D194F82020D206C1D194F82C20022A7A
:1086300005D108F00FFF4FF0FF33335013E01B0755
:1086400006D5C9B206F05FF9804620B1284661E739
:10865000012384F8353094F82C30012B0BD1638C36
:108660004BB984F82C3008F0F5FE3358002B00F09D
:108670005683284663E70123F3E7204605F09DFF74
:10868000628CFF2A014692D8E38C002B8FD194F89C
:108690002030D8068BD194F82C30002BC9D02AB1C9
:1086A000D2B2204606F0E4FA0028C2D0618C94F8D9
:1086B00034308B42D7D0C9B2204606F0E0FA80466B
:1086C0000028C3D1628C002A14BF0223012384F83E
:1086D0002C300521204606F0F0FDC4E794F8203048
:1086E00003F01F03012B7FF462AFE38C002B7FF4B8
:1086F0005EAF628CFF2A3FF65AAFA18CFF293FF68E
:1087000056AF94F82C30022B93D1D2B2C9B2204686
:1087100006F0C7FC10F1020F804640F0008108F01F
:1087200099FE46F800809EE7E38CA18C002B7FF435
:108730003EAF94F82C30002B3FF47BAF012B0FD1D0
:1087400000297FF476AF12F01F020CD1638C012B4D
:1087500089D194F868306FF3C30384F8683082E7F6
:1087600012F01F0217D0022A7FF47DAFB4F822A0C6
:10877000BAF1000F7FF477AF5FFA81F841462046E7
:1087800006F081FD034608F065FE3350013306D143
:108790004FF0FF385AE700297FF44BAFD6E7524637
:1087A0004146204606F07CF85DE7E38CA18C002B67
:1087B0007FF4FDAE638C022B5FFA81F813D194F83D
:1087C000203003F01F0358EA03037FF4F0AEA069E2
:1087D0000122090A06F074F800287FF4E8AE0123AC
:1087E00084F835303FE794F82C0000283FF421AF9F
:1087F00001280DD100297FF41CAF12F01F020AD10D
:10880000012B7FF430AF94F8683043F00803A4E7FD
:1088100012F01F0211D0022A7FF425AF002B7FF443
:1088200022AF4146204606F019FD034608F012FE2D
:1088300033500133ACD00122B2E700297FF4F9AE06
:10884000DEE70A2B3FF6B3AE01A151F823F000BFDB
:1088500081880200AF850200AF850200AF8502006B
:10886000AF850200AF85020001890200AF850200DA
:10887000B78C0200AF850200E58C02000C000000FE
:10888000E38CA18C022B7FF492AE94F82C30002B59
:108890003FF4CFAE012B10D100297FF4CAAE12F005
:1088A0001F020DD194F868304FEA930808F00208CF
:1088B000C3F3001348EA030806E012F01F0210D0C9
:1088C000022A12D04FF0000805F10C0A504605F0BC
:1088D00063FEE38C98420ED208F0BCFD6FF00B03F0
:1088E000ABE600297FF4A5AEDCE7C9B2204606F06E
:1088F000D9FC8046E8E74146504605F034FEB2E632
:1089000094F82020B4F822A0D2064FEA1A235FFA86
:108910008AFA09D029462046FFF792FD8046B8F131
:10892000000F7FF493AE9EE6013B0E2B3FF63FAE69
:1089300001A252F823F000BF75890200BF8902002E
:10894000778A0200AF850200AF8502006F8A0200BD
:108950006F8A0200AF850200AF850200AF8502007A
:10896000AF850200AF850200AF850200AF8502002F
:10897000BF8B020005F10C0A5046B4F8268005F0C2
:108980000BFE80450AD2B4F82680204605F015FE7D
:1089900048B101287FF40BAE216F05E0504605F089
:1089A000FBFD8046F1E7E16E002900F013810A78B3
:1089B000424528BF4246504605F0C4FD53E62046D6
:1089C00005F0FBFD0AF1010201900146D2B22046FA
:1089D00006F028F9824600283FF4E9AD05F10C08BD
:1089E000D0F804B0404605F0D7FD9BF80020904237
:1089F00003D2404605F0D0FD02465946404605F0F8
:108A0000A1FDDAF80CA0BAF1000F09D1298AE38C94
:108A100099427FF628AEC91A404605F0AEFD22E61F
:108A2000DAF8040083681B6B13B9DAF800A0EAE7F0
:108A3000019998470028F8D0A0F1040B5BF8043F97
:108A4000002BF2D01B78002BEFD0404605F0A4FDA0
:108A5000DBF800301A78904203D2404605F09CFDC6
:108A600082B2DBF80010404605F06CFDE6E72046D8
:108A700005F0A3FD9BE552460321204605F068FE64
:108A8000824600283FF493AD05F0FFFEB4F826B00F
:108A9000E0B9BAF81430ADF82830DAF8103005F142
:108AA0000C081B88ADF82A30404605F075FD83455B
:108AB00008D2E08C9DF82820824228BF02460AA9ED
:108AC000404679E7404605F067FDF3E700238DF85F
:108AD00014309AF81530DAF808208DF81530C24BAA
:108AE0001340C24A934258D1102106A807F04EFC09
:108AF0000028FFF65CAD0AAA1028DFF8F4E20DF1B9
:108B0000180C114628BF1020404502F1020233D84C
:108B1000800002308DF81400019105F10C0A5046D6
:108B200005F03AFD9DF81480D84528BFD846404549
:108B300003D2504605F030FD8046B8F1020FC3461F
:108B400028BF4FF0020B5A4605A9504605F0FAFC23
:108B5000A8EB0B08DDF804B04FEA58030BEB580202
:108B60005A4522D118F0010F3FF47DAD019AD15C36
:108B7000504605F0F0FC76E51CF8013B4FEA131A6D
:108B800003F00F031EF80AA01EF8033002F802AC2F
:108B900002F8013C08F10108B6E79AF814308DF8A4
:108BA0001430DAF810300193B7E71BF8011B504678
:108BB000CDE9023205F0D7FCDDE90232D0E72046EC
:108BC00005F0FBFC20B101287FF4F1AC236F00E03D
:108BD000E36E13B96FF0150838E55B88B3F5007FD5
:108BE0007FF6E5AC834B0A9300238DF82C30A36C01
:108BF00004F1480A9A455BD105F10C0B584605F083
:108C0000CBFCBDF82A80E38C984528BF98464045A8
:108C100003D2584605F0C0FC80469DF82820424506
:108C200028BF42460AA9584605F08CFCB8F1050F4A
:108C300094BFA8EB0808A8F10508B8F1000F3FF4AD
:108C400012ADA36C53453FF40EAD002B3FF40BADBA
:108C50005A7D0F2A14D11A7D19690193424528BF04
:108C60004246584605F06EFC019B1A7D424594BF72
:108C7000A8EB0208A8EB0808B8F1000F3FF4F3AC2A
:108C8000E26C9A423FF4EFAC1B68DEE75A7D0F2A94
:108C90000AD11A7DBDF82A100A44ADF82A209DF8A1
:108CA0002C2001328DF82C20E26C9342A4D01B685A
:108CB000002BEBD1A0E794F82C3094F834A0002BD3
:108CC0003FF4B7ACE38C012B7FF471AC05F10C08D9
:108CD000404605F061FCE38C9842FFF4FDAD51463F
:108CE000404646E794F8203003F01F03012B7FF441
:108CF000A0AC204605F0AAFF00283FF49AACA38C54
:108D00004268FF2B3FF653AC12799A42FFF44FAC06
:108D10000F2B3FF64CAC234493F836A0D2E7012347
:108D2000A362484605F0B6FD60B9E38C53B129460D
:108D3000002005F0F5FB054600283FF402AC6B7EF1
:108D40005E07F4D52946204613B0BDE8F04F06F083
:108D500025BA50077FF5F5AB802B7FF4F2AB0846C0
:108D6000FFF724FBA36A012B7FF4DBAB94F83530CB
:108D7000002B3FF4D6AB94F82130052B05D1618C44
:108D8000A069C9B205F0BFFD804694F82130032BDD
:108D900009D1638C022B06D1A18CA0690022090A9B
:108DA00005F08EFD8046002384F83530FFF7B9BB0F
:108DB00052077FF5C6AB002B3FF4ABABCCE7E38C9F
:108DC000002B3FF4C6AB17F10C0118BF0121C901FC
:108DD00006F069FF00238046A362FFF7A2BB6FF095
:108DE0000408FFF79EBB00BF00FF02000003020063
:108DF000E61E0300050F050002480022002307F0CD
:108E000079BF00BF940300202DE9FF41514F4FF07F
:108E1000FF334FF0FF3201A9384603F05BFB039BA1
:108E20001B69D3F89C409DF80430072BEFD8DFE88E
:108E300003F00A041A0D2C277B8D00220121204605
:108E400006F03BFAE3E700221146F8E794F86830B1
:108E500043F0040301A984F86830204605F075FD4D
:108E600000220321EBE794F868306FF3820301A935
:108E700084F86830204605F068FD00220221DEE714
:108E800001A9204605F061FDC1E794F86830A669A4
:108E90006FF3820384F868303369D6F80880BFF333
:108EA0005B8FD3F8A030BFF35B8F9907C3F3400209
:108EB00008D40421204606F000FA4FF0FF352A4678
:108EC0000721BCE7D8F83C3030469847D8F8243022
:108ED000002130469847D8F840300546304698473C
:108EE000E5B92946204605F0CAFE0546B0B98021FD
:108EF000204606F0B0F9A06906F088FF831E5842AC
:108F0000584194F8683084F82C5023F0680343EA01
:108F1000401384F868302A46042190E70022042197
:108F2000204606F0CAF9CAE702990B7ED1F81E2046
:108F300013F07F0F204606D1FFF7D4FA054600282C
:108F40003FF465AFBBE705F07EFFF7E7029A062125
:108F500075E700BF9403002030B589B000220023DC
:108F6000CDE9062300246FF00703CDE90334CDE9F2
:108F700001441A4B1A4900944FF48062194803F0D7
:108F800095FE1949174807F0EAFF184B18498B421C
:108F900007D3184B184900208B4210D3002009B08A
:108FA00030BD03F11402BFF35B8F52E8000F42E8BB
:108FB0000045002DF9D1BFF35B8F1833E7E703F1CC
:108FC0001402BFF35B8F52E8004F42E80005002D0A
:108FD000F9D1BFF35B8F1833DEE700BF098E0200C3
:108FE000000D002088040020F71E030070040020FC
:108FF00088040020880400208804002038B5024638
:1090000009490546806906F068FF044648B985F8B5
:109010003400284605F00AFD044610B1A86906F0A0
:109020008FFF204638BD00BFF98D020070B5084C97
:10903000084E0546B44202D30024204670BD636842
:1090400028461968FEF776F80028F6D01834F1E7BC
:10905000700400208804002070B50646EFF31181EB
:10906000202282F31288BFF36F8F1D4C236881F397
:109070001188BFF36F8F5B6893F86830DB0705D406
:10908000BDE870402122002303F0BCBDEFF3118343
:1090900082F31288BFF36F8F256865B983F3118857
:1090A000BFF36F8F2368D3B130460022BDE8704014
:1090B000002303F073BD61682A6822608D4208BFF7
:1090C000626083F31188BFF36F8F686805F1080150
:1090D000C36998470348294607F0BCFDE2E770BD25
:1090E000680800206403002030B585B06C4684E831
:1090F0000600054600221548002303A903F052F993
:109100000246E8B9039B94E803005D60083383E8F6
:109110000300EFF31180202383F31288BFF36F8FD6
:10912000039B1A600A4A516861B9C2E9003380F3AF
:109130001188BFF36F8F07480022002303F02EFD34
:1091400005B030BD0B605360F1E700BF6403002041
:10915000680800200000002038B54B780469456895
:109160002069202B08D0222B19D008F073F9114B5D
:109170006FF085021A5010E0CB88072BF5D1D36829
:109180001A6842609A8802819B79837206F0B6F869
:1091900022460821284606F09EF8002038BD4B885C
:1091A0008381C3F3400203F0010302764376224633
:1091B0000921EFE70C00000008B5134602691069A9
:1091C0004A78212A13D133B908F044F90B4B6FF0D8
:1091D0000B021A5009E0CA88072A00F1040128BFCF
:1091E000072203F10C0005F0ADF9002008BD08F0DE
:1091F00031F9024B6FF08502EBE700BF0C00000075
:1092000073B504698DF807102025EFF3118685F3F7
:109210001288BFF36F8F0122E06B0DF1070105F09B
:10922000D2F886F31188BFF36F8F012812D007F0B0
:1092300090FE08B9A37EABB90D4BBFF35B8F012243
:1092400053E8001F002903D143E800200028F7D18C
:10925000BFF35B8F2122002304F1480003F09EFC42
:1092600002B070BD0021212007F019FFCDE700BF3B
:109270007008002038B505690E49EB6B0024C3E97E
:109280000144DC606B6B05F14800C3E90144DC601C
:1092900007F053FE05F17800074907F022FE074961
:1092A00005F1240007F01DFE284606F027F82046A9
:1092B00038BD00BFD1F4020079F6020005F70200C4
:1092C000F8B587681446FB6B05460E46984721465D
:1092D000064800220023FEF7EBFF044600B10676A5
:1092E00028463B6C98472046F8BD00BFD8030020B5
:1092F0004FF08053D3F83021082A06D1D3F8343107
:10930000052B04D8034AD05C704700207047012029
:10931000704700BF181F030010F0080F0B4B42B23C
:109320000CD100F00F00002A4FF0140202FB0033B2
:10933000B4BFD3F80806D3F808077047002AB4BFB3
:10934000D3F8A806D3F8A807704700BF0070024002
:10935000F8B50246EFF31185202383F31288BFF39B
:109360006F8F00F0080706F0E6FE0126864012F037
:109370007F0F1E4B6FEA060432D057B11A682240A5
:109380001A601B4BC3F86C6485F31188BFF36F8FB1
:10939000F8BD184F396821FA00F0C0070AD41968DF
:1093A0002140196014490B68120654BF234033430F
:1093B0000B60E6E72140396051B2C94322F08000DA
:1093C000C90F00F2DA30090101EB40010848C0F88A
:1093D0000018D0F8041841F00201C0F80418DEE7C4
:1093E000196821401960002FCBD1DBE7CC080020A1
:1093F00000700240C8080020D0080020EFF3118060
:10940000202383F31288BFF36F8F0A4BD3F8001C1D
:10941000032261B949F27531C3F8001CC3F8142D59
:10942000C3F8001C80F31188BFF36F8F7047C3F837
:10943000142DF7E700E00640EFF31180202383F3BB
:109440001288BFF36F8F0A4BD3F8001C61B949F241
:109450007532C3F8002CC3F8141DC3F8002C80F338
:109460001188BFF36F8F70470022C3F8142DF6E701
:1094700000E0064070B5024606F05DFEEFF3118590
:10948000202383F31288BFF36F8F531E0124062B12
:1094900004FA00F40FD80E4E0E4B31681B680B43D4
:1094A000C34013F0010306D10B4802F59472214327
:1094B00040F822303160094A136823431360084B97
:1094C0008022C3F8042185F31188BFF36F8F70BD2C
:1094D000C8080020D008002000700240CC080020FE
:1094E00000E100E0F8B50306044623D410F00807B5
:1094F00020D100F00F02920002F1804202F51C32EE
:10950000D2F84434B3B1EFF31186202383F31288E9
:10951000BFF36F8F06F00FFE084DC2F8A074012351
:1095200003FA00F12B6823EA01032B6086F311880C
:10953000BFF36F8F024BC3F81845F8BDD008002069
:109540000070024008B50B7E012203F00F0013F0FB
:10955000800F02FA00F2124B12D0D3F8100510421D
:1095600018D00B7E1A0709D40D4AC2F80C3543F403
:109570008073C2F80C35087EFFF7B4FF002008BDE9
:10958000D3F814051042ECD1D3F814050243C3F804
:109590001425E6E7D3F810050243C3F81025E0E7E9
:1095A000007002400B7E064A13F07F0F0BBF0123B1
:1095B00043F480735365C2F818350020704700BF2C
:1095C0000070024038B504460D4606F064FDA8B1AF
:1095D0002946204606F04AFD204606F055FD10B10A
:1095E0002846FEF7E3FE2946204606F062FD064BBC
:1095F0001B7813B9054B01221A6538BD204606F0C9
:1096000051FD0028E4D1E7E7BB0C002000700240C8
:1096100038B545682C4654F8040B01F04BF8094B5B
:109620000022186001212720FEF7E8FB204602F007
:10963000B3FC05F1080002F0F5FC07F044FA002045
:1096400038BD00BF84080020012810B5014602D0B3
:10965000022807D098B90A4BBDE8104018680022CC
:1096600006F022BA074B084C00221A70074BC4F8C8
:1096700000332720FEF792FB0123C4F8043510BD08
:10968000D4080020B80C002000700240FDFFDF016C
:109690000146014807F053BECC03002008B5054B36
:1096A0001970054B1B7813B10420FFF7F1FF002060
:1096B00008BD00BFB90C0020BA0C00202DE9F04F06
:1096C000494B0769186089B0054607F1840007F027
:1096D00020FB00220023CDE9062300246FF00703BE
:1096E000CDE90334CDE90144404B414900954FF4A5
:1096F0000072404803F0DAFA3F4E40493D48DFF837
:109700000091DFF800A107F02AFC32693E4B1340BC
:1097100043F4820343F040033361B046347631466C
:10972000284606F07CF900285AD10134092C18D0BB
:1097300008EB4412082C937C43F04003937408D147
:10974000D8F81031314A1A40314B1343C8F8103160
:1097500005E0136909EA030343EA0A0313612036AB
:10976000DCE72C4C2C4B2269DFF8A090DFF8A0A09E
:10977000DFF88CB0134043F4041343F0400323613B
:109780000646A04666F07F0323762146284606F06B
:1097900046F928BB0136092E1AD008EB4612082ECE
:1097A000937C43F02003937408D1D8F8103109EA70
:1097B000030343EA0A03C8F8103107E013690BEA10
:1097C000030343F4C02343F0400313612034D9E77B
:1097D00097F8803023F0760343F0760387F88030E3
:1097E00009B0BDE8F08F00BFD40800202D99020019
:1097F0004011002018050020F80900200F1F030069
:109800000000F9FF400006000000BEFF0000F7FF67
:10981000FF010800D80800200000DEFF38B50D4623
:1098200028461146144606F02DF9287E802809D1D5
:10983000238A3BB9637E5B0704D54020FFF728FFEE
:10984000002038BD06F077FC0146024806F0BAFC5D
:109850000120F3E71C0B002008B5064A0B7EC2F876
:109860000C3543F48073C2F80C35087EFFF73AFEDE
:10987000002008BD0070024010B50C7E4FF0FF3292
:109880004FF0FF33114802F0B7FF2046FFF760FDAD
:1098900004F00F02012393400D4A14F0800F14BF0F
:1098A000D2F81015D2F814156FEA030315BF0B4058
:1098B0000B40C2F81035C2F81435044802F068FFB6
:1098C000044B8022C3F80421002010BDBC030020FB
:1098D0000070024000E100E070B505460E7E0C46C7
:1098E0004FF0FF324FF0FF330E4802F085FF304655
:1098F000FFF72EFD0B4802F04BFF0B4B8022C3F805
:109900000421204606F0A5F8014620B16FF0700250
:10991000284606F0D5F82046002106F07BF8002006
:1099200070BD00BFBC03002000E100E02DE9F04F56
:10993000BC4FBD4D85B004464FF0FF384FF0FF39A6
:109940000022CDE900894FF0FF31384607F0FEFCD8
:109950004FF0FF31384607F0F5FC10F0080F824653
:109960002ED0B24842464B4602F046FFEFF311823A
:10997000202383F31288BFF36F8FAD4B1B787BB12D
:10998000D5F8003413F400730AD10121C5F82C1561
:10999000D5F82C15D5F80014890548BFC5F82C3525
:1099A00082F31188BFF36F8FA04802F0F1FE01210E
:1099B000204606F002F800220321204606F074F843
:1099C0001AF0100F08D00021204605F0F6FF002203
:1099D0000221204606F068F81AF0200F08D0002176
:1099E000204605F0EAFF00220221204606F05CF83E
:1099F0001AF0020F40F085801AF0010F10D0BFF36B
:109A00005B8F8C4B002253E8006F43E80021002954
:109A1000F9D1BFF35B8F4FF00108002E40F0DA80E0
:109A20001AF0400F0AD08021204605F0E6FF06F02C
:109A30000CF8014610B12046FFF7C4FD1AF0040FE0
:109A40003FF47AAF0021204605F0D7FF8021804601
:109A5000204605F0D2FF0646404605F0FAFF08B161
:109A6000FEF7A4FC304605F0F4FF08B1FEF79EFCBB
:109A70000021404605F0CEFF3046002105F0CAFF28
:109A800008220021204606F0B1F9064600283FF4DE
:109A900053AF05F0F9FFD5F88014F368C9B2197017
:109AA000D5F88424D2B25A70D5F88804D5F88CC47D
:109AB00040EA0C2058801FFA80FED5F89004D5F8B3
:109AC00094C440EA0C209880D5F89804D5F89CC43A
:109AD00040EA0C201FFA80FCD880574811B9052AAB
:109AE00000F08F80DFF854C100220270D5F87014A6
:109AF0009CF800C08C4540F0A780514B00221A70A2
:109B0000B2E0504BBFF35B8F002253E8008F43E875
:109B100000210029F9D1BFF35B8F4FF00109B8F1A3
:109B2000000F3FF469AF98FAA8FBBBFA8BFB09FA68
:109B30000BF3BBF10F0F28EA030810DDABF11006A1
:109B4000F6B23146204605F058FF029005F07DFF41
:109B5000834630BB3146204606F00BFBDFE74BF077
:109B600080063146204605F048FF029005F06DFF63
:109B7000039058B10298002105F04CFF039BBBF104
:109B8000000F08D119462046FFF71CFD314620463C
:109B900006F0D9FAC3E700221946204605F090FFE7
:109BA000F4E70298002105F035FF6EB920465946CA
:109BB00006F07FFA204606F06EFA0028CAD0594611
:109BC000204606F0E8F9C5E700225946204605F090
:109BD00077FFBFE796FAA6F3B3FA83F308FA03F226
:109BE0000F2B26EA020606DDA3F11001C9B22046BA
:109BF00006F0BFFA11E743F08001204606F0A3FA11
:109C00000BE701220270BCF1000F03D03046FEF7D3
:109C1000CDFB91E60EF07F025A8083F804C083F8F2
:109C200005C06AE7CC03002000700240BC0300209E
:109C3000B80C00201C0B0020BB0C0020B90C00202D
:109C4000BA0C0020180B0020DFF8A0C01A70012108
:109C50008CF80010017005215970D5F870145980E6
:109C60001A715A719A71DA71082106F10C0004F028
:109C700063FC2046314606F01CFA204606F0FDF94A
:109C800020B31B4B4FF0000883F80080F368414677
:109C90002046B3F806A005F0B0FE41468146524684
:109CA000204606F0A3F8014648B1484605F0EAFE12
:109CB0004146204606F05DFA0123EB643CE66FF076
:109CC0000B023146204605F0FBFE35E6204606F045
:109CD000DBF930B1064B802220461A7006F081F97C
:109CE0002AE6204606F0A3F926E600BFBA0C0020BB
:109CF000B70C00204FF08053D3F83031082B02BF4F
:109D0000024B0022C3F81C2C704700BF00700240B9
:109D10002DE9F04105464FF0FF324FF0FF33384850
:109D200002F06AFD374B8022C3F884212720FEF71A
:109D300057F8A0B1344F354B3C681B68240C240401
:109D40001C434FF001088CBB314E40F2FF133B60C7
:109D50002720C6F80445FEF72FF8C6F800432D4A21
:109D600013788BB12A4B0021C3F808110121C3F8E5
:109D70000026C3F804165960D3F808110029FBD057
:109D80000021C3F808111170214B0024C3F80045CD
:109D9000FFF7B0FF1A4802F0FBFC2146284605F009
:109DA00047FFC0B16FF00400BDE8F08194FAA4F65B
:109DB000B6FA86F60F2E3346C6BFA6F11003D8B208
:109DC00043F08000030701D4FFF7C2FA08FA06F651
:109DD00024EA0604B7E78021284605F029FF002879
:109DE000E0D10D4B0D491C68204604F064FA10F1D7
:109DF000780F02D1204604F03AFA00EAE070D3E787
:109E0000BC03002000E100E0D0080020CC080020C6
:109E100000700240B50C0020840800207408002067
:109E20002DE9F04F404B414FD3F8542185B0B2B1EA
:109E30000022C3F85421D3F8042391020FD5D3F89C
:109E4000C034002B3B6814BF4FF001224FF48072E6
:109E50001343374A3B60136823F001231360324BEE
:109E6000D3F8604134B10022C3F86021D3F86C44C8
:109E7000C3F86C44D3F828214AB10022C3F8282142
:109E80002C4B187806F057F9012383401C43DFF868
:109E9000A8A09AF800509AF900102A0732D4002995
:109EA000B4BF264B264B05F00F02920013441A68EC
:109EB000002A5AD000221A602846FFF72DFA214BBB
:109EC0001A7800F0010050401870FFF713FF1E4B86
:109ED00028461A6806F02FF9C240D30706463BD43D
:109EE000002916DA882D06D10146184806F06AF9CD
:109EF0000220FFF7CDFB0E4A01231168B3400B434C
:109F000013602FE0124B134A13EA210338BF1346A4
:109F1000CDE701460D4806F055F90220FFF7B8FBE2
:109F2000013D062DE7D91DE000700240D008002059
:109F3000C8080020B70C0020B60C002008710240B1
:109F400030710240B50C0020CC080020180B002016
:109F50002C71024050710240002D40F0F0809C4B6B
:109F60000122DA649B4802F013FC94B13B689A4AE0
:109F7000DFF86882DFF8689224F001210B433B6030
:109F8000136823EA01031360A4B20126002C40F0F9
:109F9000DA808F4BD3F800214AB10022C3F80021A8
:109FA000904B1A708D4B0421186805F07DFD884B8D
:109FB000D3F858212AB30022C3F85821D3F800441B
:109FC000C3F80044E00505D5864B012208201A702D
:109FD000FFF75EFBA10505D5824B002210201A7009
:109FE000FFF756FB62050CD57E4B1A784AB100226A
:109FF0001A70774B0122C3F8082520209A65FFF7D5
:10A0000047FB734B784CD3F85C31E3B1714B9B68E1
:10A010001BB99AF800305B0615D06D4B0022C3F8CF
:10A020005C2123686C4A23F0011323603B6823F40E
:10A03000803343F001033B601368042023F00113D5
:10A040001360FFF725FB24683B681C4074D0604B0D
:10A05000D3F82C35002B6FD15E480022002302F08C
:10A06000CBFB002868D114F0012314BF93FAA3F4AA
:10A0700094FAA4F4B4FA84F40F2C88BFA4F1100865
:10A08000564B8CBF5FFA88F844F080081868414648
:10A0900005F0B3FC009005F0F3FC4FFA88FB08F0E4
:10A0A0000802BBF1000F0346019208F00F0980F28D
:10A0B0009F80009B058A5B8BC668C3F30A039D42A1
:10A0C00006F0604271D9B2F1005F1D4605D03146FD
:10A0D0004648464E1A4607F043F94FF08053012197
:10A0E000D3F83031082B02BF394B8222C3F81C2C25
:10A0F0003B68019A8AF8008001FA04F423EA040319
:10A100003B60334B002A40F0AB80BBF1000F4FF0B7
:10A11000140202FB0932A9BF09F10A0903EB890302
:10A12000C2F80067C2F80457AFBF43F82910C2F85D
:10A130000066C2F80456596005B0BDE8F08F0029EA
:10A14000BFF6EEAED7E694FAA4F5B5FA85F506FAB1
:10A1500005F345F080052946D8F8000024EA0304F9
:10A1600005F04BFC05F08CFC83462846FFF7D4F83D
:10A1700001460BF10C0004F007FABBF81030002B7D
:10A180007FF404AF584605F086FC18B1584605F038
:10A1900086FCFBE6284605F0CEFF0146484606F061
:10A1A00011F80220FFF774FAF0E6009205F073FC54
:10A1B000009AB2F1005F034607D0009031460B4889
:10A1C0000A4E2A4607F0CCF8009B002B3BD084E7D0
:10A1D00000700240BC030020C8080020D408002002
:10A1E000180B0020B80C0020CC08002088080020A4
:10A1F00008F00801224A71B3D2F8C02412F4803F5B
:10A2000018BF0022198A53F80C6F039218460E44A7
:10A21000029304F0C1F9039A029B904228BF1046B2
:10A2200001460546184604F087F9009B039A598BAE
:10A23000029BC1F30A01914205D1184604F0ACF922
:10A2400000287FF44AAF0F4901220B68A24023EA9D
:10A2500002030B6041E709F5947152F82120D1E720
:10A26000BBF1000FB5BFC3F8A066C3F8A067C3F881
:10A27000A456C3F8A457B4BF596299645CE700BF01
:10A2800000700240CC080020EFF31183202282F3FB
:10A290001288BFF36F8F174A12781AB3164AD2F892
:10A2A0002C15F9B10021C2F82C154FF08052D2F8CC
:10A2B0003021082A05D083F31188BFF36F8F002067
:10A2C00070470E4AD2F8000CC02140B949F27530EF
:10A2D000C2F8000CC2F8141CC2F8000CEBE7C2F87C
:10A2E000141CE8E783F31188BFF36F8F6FF00A0047
:10A2F000704700BFB80C00200070024000E006402C
:10A3000013B50022009211464023044605F035FCA7
:10A31000024618B16FF0040002B010BD0090402357
:10A320008021204605F029FC0028F3D15349012360
:10A330008B60534B4860C860186803F041FF0028E9
:10A34000EADBEFF31184202383F31288BFF36F8FCE
:10A350004C4B4FF40062C3F80024FEF7C9FF08B16C
:10A36000FFF74CF84FF08053D3F83031082B18D159
:10A37000EFF31180202383F31288BFF36F8F424BDA
:10A38000D3F8001CC022002971D149F27531C3F8FD
:10A39000001CC3F8142CC3F8001C80F31188BFF311
:10A3A0006F8F384B0122C3F80025D3F80024120523
:10A3B000FBD54FF40062C3F800244FF08053D3F86C
:10A3C0003031082B17D1EFF31180202383F312884B
:10A3D000BFF36F8F2C4BD3F8001C00294AD149F2F0
:10A3E0007532C3F8002CC3F8141CC3F8002C80F39A
:10A3F0001188BFF36F8FFEF77BFF30B1FFF71CF8BA
:10A40000FEF776FF08B1FEF7F9FF4FF08053D3F85F
:10A410003031082B1B4B0AD140F2E372C3F80028FD
:10A420004022C3F80428BFF36F8FBFF34F8F802201
:10A43000C3F81C250122C3F83025144B40F2FF124B
:10A440001A60134B00211960124B1960124B1970DE
:10A45000FFF750FC114B1970FEF74AFF08B1FEF7E9
:10A46000EBFF84F31188BFF36F8F002054E7C3F82C
:10A47000142C92E70022C3F8142CB8E774080020CB
:10A48000840800200070024000E00640D008002050
:10A49000CC080020C8080020B50C0020B70C002014
:10A4A000084B70B5C31A0D4607499B100446594323
:10A4B0000648402205F0A2FE2B4601462046BDE894
:10A4C00070401847340B0020B76DDBB6F014030062
:10A4D00073B50C4C0C4A4023041B00930D460B46ED
:10A4E0000A49A41061430646094805F0B3FE011E5F
:10A4F00005DA30462B4602B0BDE87040184702B07E
:10A5000070BD00BF340B0020BF020300B76DDBB687
:10A51000F014030010B5EFF31184202383F31288A5
:10A52000BFF36F8F074A136823F00201DB07116046
:10A5300002D4012006F039FA84F31188BFF36F8F3B
:10A5400010BD00BF840B0020002270B5012104461D
:10A550001046FDF753FC0F4801F088F80E4B984267
:10A5600015D101F093F826690C49304603F015FE29
:10A5700000280BDB012535642469084904F11C001F
:10A5800003F00BFE002801DBE564002070BD6FF0D6
:10A590000400FBE799A602000000AD0B3819030088
:10A5A0001FB500220123CDE90223094ACDF800D0CE
:10A5B0006B46CDF804D005F07BFE002805DB4FF498
:10A5C00080420023684602F017F905B05DF804FBED
:10A5D000DD02030030B4104B0C2202FB00330146B5
:10A5E0000020D3E90E529863EFF31180202484F306
:10A5F0001288BFF36F8F1C6C04F0C00444F0020497
:10A600001C6480F31188BFF36F8F1DB12B46034884
:10A6100030BC184730BC7047340B0020F0140300E6
:10A6200010B4EFF31182202383F31288BFF36F8FEE
:10A630001748016841F002040460C80707D482F398
:10A640001188BFF36F8F012010BC01F037B84FF0B5
:10A650008041D1F80C04D1F80C14C907EFD5EFF301
:10A66000118083F31288BFF36F8F0A490B6C03F0DC
:10A67000C00343F002030B6480F31188BFF36F8FB4
:10A6800082F31188BFF36F8F002010BCFFF7A2BFC9
:10A69000840B0020340B002010B1012804D0704737
:10A6A000034B1B6C5B0701D1FFF794BF704700BFE2
:10A6B000340B0020024AC3B21C2003FB0020704769
:10A6C000340B00202DE9F0413849BFF35B8F07467A
:10A6D000012251E8003F41E800200028F9D1BFF3F2
:10A6E0005B8F33B9324933484B60CB608A6003F0EB
:10A6F00067FD7B1E012B2BD8012F07D14FF0804324
:10A70000D3F81C3403F00303012B21D006F021FC05
:10A710000546F8B9284B1B78E3B14FF0804302227D
:10A72000C3F808230646DFF894804FF08044D4F83D
:10A730001824D4F81834D20315D503F00303012BE1
:10A7400001D0012F0FD155B386F31188BFF36F8F5E
:10A75000BDE8F081EFF31186202383F31288BFF365
:10A760006F8F0125DFE7ADB1304603F099FED4F8D5
:10A770001835002BDBD1D4F80421002AD7D0C4F837
:10A780000431D4F804310123C4F81835C8F88031F5
:10A79000A360CCE70021212006F081FCE7E74FF021
:10A7A00080430222C3F80423D2E700BF300B00200D
:10A7B000200B0020500B0020E00C002000E100E006
:10A7C00008B5074806F0B0F938B10648FDF72CFD8A
:10A7D0000448FCF749FE002008BD6FF01200FBE7BB
:10A7E00050150300E9A702000A2838B5074D0446B2
:10A7F00004D1AB680D215B6828469847AB680348D5
:10A800005B68E1B29847204638BD00BF5015030091
:10A81000F0B516464268107B01F01F0444EA40146C
:10A82000106987B0002872D0B6F5001F02F110053C
:10A8300006D12146284606F038F9002007B0F0BDC1
:10A8400001A80027B6F5800F0197476039D1B3F111
:10A85000007F14BF052304238DF804300023CDE9C5
:10A8600004030393936823FA01F111F001010DF140
:10A8700003073ED1B6F1A07F3BD104F01F0362096C
:10A8800003F5E07328D0012A47D1254A52F8233036
:10A89000DB072ED43A462146284601F0F9F9214B30
:10A8A00098421CD0029703AA2146284601F0B0F82E
:10A8B0001D4B98422ED101222146284601F040FA34
:10A8C000BBE7B3F1C06F05D0B3F1007F14BF012324
:10A8D0000223C1E70323BFE74FF0A042D6E7394682
:10A8E000284601F025FA104B9842DBD06FF00B00A0
:10A8F000A4E73A462146284601F0CAF90A4B984295
:10A90000D1D19DF80310284601F00AFACBE76FF089
:10A91000850093E76FF0150090E751F82330FFDED4
:10A92000000300500400AD0B0000AD0B420970B5F0
:10A93000034602D0012A17D070BD0D4E326951680E
:10A940000029F9D003F01F0301250C689D40002960
:10A95000F2D08A682A4002D04B68304698472CB122
:10A96000236821461C46F2E7024EE7E72346F8E754
:10A97000301503001015030038B545682B69B3B1D5
:10A980001035284601F0C2F9044680B90146284630
:10A9900001F098F9084B98420BD108492246284605
:10A9A00001F070F9224605210620FDF727FA002064
:10A9B00038BD6FF00400FBE70000AD0B2DA90200CD
:10A9C0002DE9F043466840F20635D006337B87B068
:10A9D00002EA050554BFC2F34010032001F01F072F
:10A9E000B5F5837F144647EA43178DF8030045D039
:10A9F0000FD8062D18D007D8B5B1022D40D06FF072
:10AA0000150007B0BDE8F083B5F5807FF7D10125CB
:10AA10000AE040F20222954234D0B5F5407F33D0AF
:10AA2000B5F5007FEBD102250123220303FA01F1E2
:10AA30002CD57368C3F80815326982BB07F01F0371
:10AA40007F0929D0012F77D13E4A02EB830284F49B
:10AA50008033D2F80017C3F30043C4F3404444EA00
:10AA6000430421F4E16144EA800421F0070144EA4F
:10AA700005230B43C2F800370020C2E70725D3E7C0
:10AA80000425D1E70525CFE70325CDE7630344BFC0
:10AA90007368C3F80C15CFE74FF0A042D5E7103626
:10AAA0000DF102023946304601F0F2F814F4403F4D
:10AAB00080460CD13946304605F0F5FF224B9845CB
:10AAC000DAD19DF80210304601F02AF9D4E701AB43
:10AAD0004FF0000903AA39463046CDE90439CDE9E3
:10AAE0000199CDF80C9000F093FF174B984286D156
:10AAF00014F4003315D09DF803308DF80E3084F433
:10AB00008034C4F300444B4603AA394630468DF8DE
:10AB10000C508DF80D4001F037F80B4B9842CDD01A
:10AB20006DE7CDE9043303AA0DF10303394630463E
:10AB3000039300F06DFFF0E703F5E07352F8233064
:10AB4000FFDE00BF000300500000AD0B036803F000
:10AB50001F025B09026004D0012B034818BF0020CC
:10AB600070474FF0A0407047000300502DE9F04FB0
:10AB7000DFF89491DFF894A185B01546834600EB89
:10AB8000810140F2FF18594503D1002005B0BDE80E
:10AB9000F08FDBF800305E04C3F3C322C3F3080474
:10ABA00000F1AC801B0E19F80270444508BF4FF04D
:10ABB000FF34222B00F2A580DFE803F012191F22D8
:10ABC000252B22A3A3A3A33B68A3A3A3A3A3A3A36F
:10ABD000A3A36B818487A3A3A38A9194979A9D00D2
:10ABE000C5F80C45601C5ED10BF1040BCBE7C5F832
:10ABF0001445621CF8D000265FE0C5F80845F1E76F
:10AC0000C5F81045F5E7631CC5F80845ECD00026EB
:10AC100004E0661CC5F80C45E6D0012603A80394A1
:10AC2000FFF794FF039B012202FA03F3C0F80C35EF
:10AC300008E0C5F80845002FDBD1631CD4D00026FE
:10AC400032460627DBF80030019303F40040002869
:10AC500018BF002203A8009218BF01260394FFF733
:10AC600075FF039C019B009A00EB8400C3F3412C09
:10AC7000D0F800473B0243EA8C03134304EA0A047A
:10AC8000234343EA4603C0F80037ADE7C5F80C4557
:10AC9000D1E7C5F86045601CDBF80030A4D0C3F3F1
:10ACA0000043002BB9D003A80394FFF74FFF039B89
:10ACB000012606FA03F3C0F808353246C2E7C5F8A4
:10ACC0006445E8E7C5F86845E5E7C5F86C45E2E79F
:10ACD000C5F82445621C87D000220126B2E7C5F8DA
:10ACE00028457FE7C5F83045F4E7C5F83445F1E776
:10ACF000C5F83845EEE7C5F83C4573E76FF0150039
:10AD000044E76FF0850041E7571F0300F0F8FCFFB0
:10AD100038B570B1074C084A4FF400450021E0FBFC
:10AD2000054100232046FCF7EBF9BDE8384006F06A
:10AD3000B6B938BD3F420F0040420F002DE9F04147
:10AD4000044647680D4606F004F988B14FF0200824
:10AD5000EFF31186314688F31288BFF36F8F606876
:10AD600005F059FD50BB86F31188BFF36F8FEFE7F5
:10AD70001F4B1B78002BE9D04FF020086426606839
:10AD800005F049FD70B9012005F001FE013EF6D144
:10AD90000021212006F083F9F0E786F31188BFF344
:10ADA0006F8FF5E7EFF31186314688F31288BFF312
:10ADB0006F8F606805F02FFD0028EED0BB691D7015
:10ADC0006368BA691B680020C3F844250122C3F8F0
:10ADD0004825C3F82001D3F82041C3F85801D3F81F
:10ADE00058019A6081F31188BFF36F8FBDE8F0813D
:10ADF000E00C0020F8B50022054601210220FCF7F6
:10AE0000FDFF0220FCF7CAFF6C680121E06805F035
:10AE100056FD6B681A682369C2F82435617D237D6D
:10AE20000B43A17D0B43C2F86C356E68D6E9004335
:10AE300013F001033CD02F6907F10C0005F0B3FDBE
:10AE40002A4B98424ED1387B04F10C0204F59071E4
:10AE500005F09FFD387B012707FA00F000F09EFB0C
:10AE60000823C4F80035B369C4F844350023C4F896
:10AE70004835A760D4F85831002BFBD00021C4F826
:10AE800000156D682C68E86805F019FD0823C4F802
:10AE900000352A7A52B9EB69C4F834350123C4F875
:10AEA0003835C4F81021D4F8102123600020F8BDF3
:10AEB0000822C4F80025B269C4F84425C4F848350E
:10AEC0000123A360D4F82031002BFBD00023C4F869
:10AED0002031D4F820310123E3604FF48073C4F8AB
:10AEE0000433C7E76FF00400E1E700BF0000AD0BDB
:10AEF00070B5012383400E4ABFF35B8FDC4352E8F9
:10AF0000001F01EA040542E80056002EF7D1BFF306
:10AF10005B8F4FF4803282400648C0F80823BFF3AD
:10AF20005F8FBFF36F8F0B4214BF0120002070BDF5
:10AF3000D40B00200010014070B40E49D1E9003458
:10AF4000D01AC31844F1000422F07F46C1E900344E
:10AF5000A6F50013B3F5400F09D2074B1B681A0A78
:10AF60001B069C19054B42F10005C3E9004570BC66
:10AF700002F05ABBB8050020D80B0020C005002005
:10AF800011B3BFF35B8F0123104A834052E800CF17
:10AF90004CEA030C42E800C10029F7D1BFF35B8FF4
:10AFA0000B4A4FF480338340C2F80433094BBFF39C
:10AFB0005B8F1B68BFF35B8FC340DB0742BF064B51
:10AFC0004FF40032C3F80021704700BFD40B0020BB
:10AFD00000100140D00B002000E100E00D4B18688C
:10AFE000010A0006BFF35F8F0B4BD3F80435181826
:10AFF00041F10001B3F5801F0AD2084BD3E90023C9
:10B00000904271EB030303D210F1807041F1000113
:10B01000704700BFD80B002000100140C005002081
:10B020002DE9F04F85B016461F469DF840A0044616
:10B03000FFF75EFF0190FFF7D1FFB04271EB07030E
:10B0400054D23E4B301A67EB0101984271F1000176
:10B050004FD23B4B03EB0413D3E902239F4208BFBB
:10B0600096425ED037494FF4803804F1500508FA13
:10B0700004F8AD00C1F848832046ADB205F07AFC73
:10B0800026F07F4B05F1804504F5A87305F588355A
:10B09000DC464FF003090293029A2CF07F4341F8FB
:10B0A0002230C1F84483D1F80435274A6FF00200FA
:10B0B000C01A604420F07F40904232D9286868B1BD
:10B0C000D1F804350393A3EB0B0020F07F40B0F5DB
:10B0D000000F26D9204605F04DFC039BBAF1000F66
:10B0E00007D109EB030C09F10109D5E7BAF1000F0B
:10B0F00009D06FF0150520460199FFF741FF28465A
:10B1000005B0BDE8F08F0123104ABFF35B8FA34069
:10B1100052E8000F184342E800010029F8D1BFF3BC
:10B120005B8F07490E98230101EB0412C8500F9B57
:10B130005360C2E902670025DDE700BF010080001F
:10B14000A805002000100140FDFF7F00D00B00206B
:10B150007FB51C4C1C4BC4F80833C4F848331B4B58
:10B1600000254FF0FF304FF0FF31C4F80855C3E918
:10B1700002014FF48033C4F80433154B02264FF418
:10B1800000320121C4F804631120C3F880212A464B
:10B19000FCF734FE1120FCF701FE0E4A0123A360E8
:10B1A000236013600C4B0D4A0093CDE90155002339
:10B1B0002846FFF735FF3046FFF784FA284604B0EB
:10B1C00070BD00BF0010014003000F00A805002063
:10B1D00000E100E0D40B002039AF0200FFFF7F0048
:10B1E0002DE9F7432F4CD4F8043399070BD5D4F845
:10B1F000043143B12C4A0023C4F80431D4F804319B
:10B20000136801331360D4F80433DA0329D5BFF38C
:10B210005B8F264B53E8002F22F0010143E800101A
:10B220000028F7D1BFF35B8FD30702D4D4F84031A5
:10B23000BBB10025C4F84051D4F84031FFF7CEFE31
:10B24000EFF31182202383F31288BFF36F8F184B23
:10B25000D3E90267B042B94106D282F31188BFF345
:10B260006F8F03B0BDE8F0834FF0FF384FF0FF3928
:10B27000C3E90289D3E900101D604FF48033C4F89C
:10B280004833C4F84051D4F8403182F31188BFF3F9
:10B290006F8F0029E5D0009032463B46284688470C
:10B2A000DFE700BF00100140D80B0020D00B0020CA
:10B2B000A805002030B5431C124C85B005D084424F
:10B2C000A8BF0446012CB8BF0124FFF787FE0E4B30
:10B2D0000C4DD3E90013401AB0F5000F10D222181C
:10B2E000AA4228BF2A4652184FF000000749009191
:10B2F000CDE9010043F10003FFF792FE05B030BD38
:10B300002A46F0E7FFFF7F00B805002039AF0200B2
:10B3100008B5FFF763FE024B1B68C01A08BD00BFEB
:10B32000B80500204FF08053D3F83021082A06D109
:10B33000D3F83431052B02D8024AD05C7047002084
:10B34000704700BF981F0300024AD2F80034002B58
:10B35000FBD0704700E0014010B54FF08053D3F8A8
:10B360003021082A4ED14FF080420021C2F80C1142
:10B37000C2F81011C2F8381502F54042D3F804148F
:10B38000C2F82015D3F80814C2F82415D3F80C1409
:10B39000C2F82815D3F81014C2F82C15D3F81414D9
:10B3A000C2F83015D3F81814C2F83415D3F81C14A9
:10B3B000C2F84015D3F82014C2F84415D3F8241469
:10B3C000C2F84815D3F82814C2F84C15D3F82C1439
:10B3D000C2F85015D3F83014C2F85415D3F8341409
:10B3E000C2F86015D3F83814C2F86415D3F83C14C9
:10B3F000C2F86815D3F84014C2F86C15D3F8443479
:10B40000C2F87035FFF78EFF18B13A4B3A4AC3F8CD
:10B410008C26FFF787FF18B1384BFB22C3F818259D
:10B42000FFF780FF70B14FF080414FF08053D1F8AB
:10B43000E42ED3F8583222F00F0203F00F03134327
:10B44000C1F8E43EFFF76EFF20B12D4B4FF40072C0
:10B45000C3F840264FF08053D3F83031082B1AD16F
:10B460004FF08043D3F80024D20744BF6FF00102AD
:10B47000C3F800244FF08053D3F83431052B02D8A1
:10B48000204AD35C3BB14FF01023D3F808224FF091
:10B490008043C3F858254FF01023D3F80022002A28
:10B4A00003DBD3F80432002B22DA174901234FF0D3
:10B4B0001020C1F804351224FFF746FFC0F80042FF
:10B4C000FFF742FFC0F80442FFF73EFF0023C1F838
:10B4D0000435FFF739FFBFF34F8F0C490C4BCA6897
:10B4E00002F4E0621343CB60BFF34F8F00BFFDE770
:10B4F00010BD00BF005000404881030000F0004034
:10B5000000900240921F030000E0014000ED00E0C7
:10B510000400FA0530B50468CCB1BFF35B8FB4FA10
:10B5200084F3C3F11F03DBB201229A4024EA020232
:10B5300050E8005FA54204D140E8002CBCF1000FA8
:10B54000F6D1BFF35B8FE6D102480B7030BD0248E5
:10B55000FCE700BF0000AD0B0200AD0B10B50368A7
:10B56000CB40DB0714D401238B400268BFF35B8F11
:10B5700043EA020150E8004F944204D140E8001C25
:10B58000BCF1000FF6D1BFF35B8FEED1014810BDC7
:10B590000148FCE70000AD0B0400AD0B014BC3F804
:10B5A0000405704700F00140F7B50546F8B10128E1
:10B5B0001BD104224FF4807301464FF080400344B6
:10B5C0000244C0F808130026012111601E608D425C
:10B5D0001B688DF8071008BF0DF1070642F21074C2
:10B5E0004FF0804745B1012D29D003B0F0BD0C22AA
:10B5F0004FF482730221E0E7D7F8183403F4803364
:10B6000066B9002BF1D0012005F0C1F9013CF3D15E
:10B61000EBE705F0BCF9013CE4D1E6E7D7F81824E4
:10B6200002F003023260002BDFD09DF807000128F2
:10B63000EFD0012DD9D10C4B00225A71D5E7D7F8A4
:10B640000C3403F480333EB9002BF4D0012005F014
:10B650009EF9013CF3D1C8E7D7F80C2402F00102AF
:10B660003270002BE1D1E6E7DC0B0020044B1A79A5
:10B6700022B9012218609A80024870470248704738
:10B68000DC0B00200000AD0B0C00AD0B08B5094B26
:10B690001B682BB10020FCF7A3FB08B9FCF77EFB6D
:10B6A0004FF080430022C3F81825034B01221A7083
:10B6B00008BD00BFDC0B0020DE0C002010B510B16F
:10B6C000012843D010BD4FF08043D3F81814D3F8AD
:10B6D0001824C80321D502F00303012B04D013B1B1
:10B6E0000020FFF761FF00234FF080420220C2F8E4
:10B6F000183508224FF4827303F18043002119604A
:10B7000002F180421C6801241460154A12680AB3D1
:10B710004FF08043C3F80403D4E7D3F81424D107CF
:10B72000E1D5D3F81C249207DAD40D4A12681AB175
:10B730000222C3F80423C5E7D3F80421002AFBD072
:10B740000022C3F80421D3F80431BBE700224FF4F0
:10B750008073D1E71A68002AFCD019601B68B1E732
:10B76000DC0B0020F8B54FF080431C4ED3F80443A7
:10B770000125002704B9F8BDB4FA84F0C0F11F0018
:10B78000830003F580739BB203F1804305FA00F256
:10B79000196892B224EA02040029EBD01F601B68EA
:10B7A0004FF08043012AC3F8082305D0022A08D0AD
:10B7B0003368C0B29847DDE77379002BDAD1727134
:10B7C000F6E7D3F81814D3F818148907F0D1C3F8A2
:10B7D0001855C3F804239D60CCE700BFDC0B0020A4
:10B7E000036803F01F025B09026004D0012B0348C9
:10B7F00018BF002070474FF0A04070470003005072
:10B80000034A430900F01F00D35C1844C0B27047DC
:10B810009E1F030070B50546FFF7F2FF0C4C083081
:10B820000E4634F81030DA0508D5C3F3432304EB91
:10B83000C302284654F8333052689847A3682BB1A6
:10B84000E26831462846BDE87040184770BD00BF29
:10B85000E40B002008B5FFF7D3FF034B083033F8A3
:10B860001000400B08BD00BFE40B002008B5FFF737
:10B87000C7FF034B083033F81000C0F3400008BD89
:10B88000E40B002008B5FFF7BBFF034B083033F88B
:10B890001000C0F3401008BDE40B0020034611F077
:10B8A000010010B5CCB20DD1A207C4F3400012D5EF
:10B8B000094AD2F820055860C2F82005003818BFA0
:10B8C000012008E04FF0A041D1F820251A60C1F80E
:10B8D0002025002AE8D010BD0003005010B5FFF766
:10B8E0008FFF124A083032F81030D9051CD5C3F347
:10B8F000432123F4F85322F8103002F10E04002003
:10B9000034F8023F13F4807F03D0C3F343239942FA
:10B910000AD001303028F3D1002342F831300448F6
:10B92000BDE81040FFF71ABE10BD00BFE40B0020B9
:10B930005C0C002001F18051F0B501F5C2510446C4
:10B94000114A00208900012506468A420BD10F4B7F
:10B95000D3F87C2132B10022C3F87C21D3F87C31AA
:10B9600040F00040F0BD02F14043A3F5C2439B0804
:10B9700005FA03F31C4204D0176817B11660176864
:10B9800018430432E1E700BF00610040006000405E
:10B99000F7B506460846FFF733FF194F00F10805D3
:10B9A0000C4637F81530DB0727D5304605F057F839
:10B9B0002046FFF767FF40B12046FFF74BFF316895
:10B9C00000F5A270002341F820302046FFF786FFE3
:10B9D000002301A827F815300194FFF701FF019B10
:10B9E00000EB8300074BD0F80027134043F002031D
:10B9F000C0F80037044803B0F0BD0448FBE700BFBF
:10BA0000E40B0020F0F8FCFF0000AD0B0400AD0BD0
:10BA10002DE9FF41164680460846FFF7F1FE0C4629
:10BA20003168054609B32046FFF720FF18B12046CC
:10BA3000FFF728FF10BB0023CDE900338DF80E304F
:10BA40008DF80F300DF10F020B4620460DF10E015F
:10BA500004F0ADFF484A05F1080132F8113023F037
:10BA6000020343F0010322F8113073685BB32046F0
:10BA70001F785968FFF7FAFE10B1C9B13F4825E0B9
:10BA80003D4A05F1080C32F81C3023F02003DB049A
:10BA9000DB0C22F81C3059B1032FEFD87168D8F8AD
:10BAA000000049680978A7B901F5A27140F8217032
:10BAB000314A05F1080132F8113023F01C0343EA42
:10BAC000870322F81130B3686BBB2D4804B0BDE882
:10BAD000F08100EB810043EA4133D0F810E52EF00D
:10BAE000030EC0F810E5D8F8000000EB810E43F01B
:10BAF0002003DEF8100522F81C3020F44F3020F42B
:10BB00004070CEF810052002DEF8108500F47C505D
:10BB100040EA074040EA0800CEF8100502EB410079
:10BB2000A0F87C40C4E7D3E900672046FFF7D6FEC3
:10BB3000002ECAD0104CD4E90023964203D19F4274
:10BB400001D1002209E00F480DF10F01FFF7E2FCDF
:10BB50000B4B9842BAD19DF80F2044F8326004EBA9
:10BB6000C20308355F6034F8153043EA422343F4DA
:10BB7000807324F81530A8E7E40B00200400AD0B17
:10BB80000000AD0B5C0C00202DE9F0430C4685B0A5
:10BB90008046204611461E46FFF732FE054629B371
:10BBA0002046FFF763FE18B92046FFF76BFE18BB6F
:10BBB000314F05F1080937F8193013F01C0F02D086
:10BBC0004B78012B18D001238DF80F300023CDE9DD
:10BBD00000134A1C8B1C20460DF10F0104F0E7FEF8
:10BBE00037F8193043F0030327F81930002E41D0FD
:10BBF0002046FFF73BFE18B9204805B0BDE8F083AA
:10BC000096F800C0D8F800301B4F0CF5A272002146
:10BC100043F8221005F1080237F8121021F0200134
:10BC2000C904C90C27F8121075781DB3D8F80000A4
:10BC3000B67800EB8C002D04D0F8103523F499135E
:10BC400023F4F853C0F81035230203F47C5305F4B1
:10BC500040353605D0F810E52B4306F4801641EA4E
:10BC60004C31334341F0200143EA0E0327F8121010
:10BC7000C0F810350248C0E7E40B00200400AD0B0B
:10BC80000000AD0B014BC3E902127047E40B00202A
:10BC900010B508461446FFF7F5FD50B10846FFF70A
:10BCA000AFFD054B083033F8103004485B0B2370B0
:10BCB00010BD0348FCE700BFE40B00200000AD0B03
:10BCC0000400AD0B70B50E4C94F88C500646A5B927
:10BCD0006022294604F1100005F050FB3068C0F8DE
:10BCE0007C51D0F87C3140F30730FCF757F8012342
:10BCF000044884F88C30A36770BD0348FCE700BF9C
:10BD0000E40B00200000AD0B0C00AD0B034B93F8CF
:10BD10008C00003818BF0120704700BFE40B0020E2
:10BD20000079024B03EB8000FFF718BCE002002013
:10BD30000079024B03EB8000FFF7ECBBE002002030
:10BD4000F7B5054608461646FFF79CFD0C462968E0
:10BD5000F0B12046FFF78AFD0746C8B92046FFF735
:10BD600079FD04B2A40004F580728F508A582968C6
:10BD70002144D1F8102542F00102C1F810252EB15E
:10BD80002968012202FA00F3C1F8043303B0F0BDC0
:10BD9000D1F80433002BA4BF4FF00043C1F80433A3
:10BDA0002046FFF72DFD0F4B083033F81030C3F35A
:10BDB0008203042B12D0052B12D001A80194FFF7A7
:10BDC0000FFD019AD0F81035D34003F00103991C00
:10BDD000204603B0BDE8F04004F032BE0321F7E78F
:10BDE0000221F5E7E40B00202DE9F04F654BD3F875
:10BDF0000403C0B287B0082140F00040FFF79AFD6D
:10BE0000051E2BDA0023032104A8CDE90433FFF734
:10BE100045FDDFF874A10DF110084FF000094FF057
:10BE2000010B1AF8013B5949DA0803F007038A5C51
:10BE300022FA03F3DA071CD408F10408B9F1000F61
:10BE400014D000214FF00040FFF774FD032104A837
:10BE5000FFF724FD0028DCD125F00045494E4C4F6A
:10BE60000124002D78D107B0BDE8F08F4FF0010913
:10BE7000D7E7484B4B440093D8F800100029DBD09B
:10BE8000009B91FAA1F11C78B1FA81F141EA4414C6
:10BE90002046FFF7B5FC3E4B0394083033F8107092
:10BEA000C80801F0070118F800200BFA01F122EA96
:10BEB0000102BB0808F8002003A80193FFF790FCDB
:10BEC000039A019B02F5E072C7F3820650F8222024
:10BED0005B073746C2F3014223D520463946D6B226
:10BEE000FFF798FC03A80394FFF77AFC039B03F584
:10BEF000E07350F82330C3F301439E4207D1002181
:10BF0000204604F09DFD3146204604F099FD03A82B
:10BF10000394FFF765FC039B0BFA03F3C0F820358D
:10BF2000AAE7022A0CD10321204604F089FD06F07D
:10BF30000503012BEBD139462046FFF76BFCE6E702
:10BF400002212046019204F07BFD032EF3D0019ADA
:10BF5000032ADCD1022EEDE795FAA5F3B3FA83F3B9
:10BF600004FA03F225EA020503F5A27207EB430384
:10BF700056F82210B3F87C00C1F30141FFF74AFCE8
:10BF80006FE700BF00600040AE1F0300341A0300DB
:10BF9000E40B0020AE1F030010B5184C237853BBF0
:10BFA0000278C2F34003920712D54FF08053D3F8C2
:10BFB0003021082A0BD1D3F83431052B07D8104A89
:10BFC000D35C23B14FF080430122C3F8382601230C
:10BFD0004FF08042C2F88035037803F00103C2F8C5
:10BFE00078350020FBF7FCFE08B9FBF7D7FE0123EC
:10BFF0000448237010BD0448FCE700BFDF0C00209C
:10C00000B01F03000000AD0B0C00AD0B4FF08043E0
:10C010004FF46072C3F80823014B00221A60704786
:10C02000740C002008B5FFF7F1FF03680BB1014A5B
:10C03000136008BD740C002010B54FF08043D3F896
:10C040000443620707D54FF4847004F030FD10B14B
:10C050001E4B1B689847A30608D54FF48A7004F05E
:10C0600026FD18B11A4B00201B689847600608D5BA
:10C070004FF48C7004F01BFD18B1154B01201B68A8
:10C080009847210608D54FF48E7004F010FD18B1C2
:10C09000104B00201B689847E20508D54FF49070BC
:10C0A00004F005FD18B10B4B01201B689847A30550
:10C0B0000AD54FF4927004F0FAFC28B1054BBDE8A4
:10C0C00010401B680220184710BD00BF7C0C0020E8
:10C0D000780C0020740C002001460148FFF71ABAC2
:10C0E000E402002038B5EFF31185202383F3128892
:10C0F000BFF36F8F064B9C6804F029FD85F3118810
:10C10000BFF36F8F2046BDE83840FBF7EDBD00BFA1
:10C11000800C002038B50A4B53F82040013053F80A
:10C120002050A54200D838BD606830B1037FDB07DE
:10C1300001D404F0E1FC0834F3E723689847FAE7F8
:10C14000381A030070B52A4B2A4C2B4D012286B0B9
:10C1500003201A70FFF7DEFF01F042FB0420FFF717
:10C16000D9FF2646AE4204F1300410D300F06CFF34
:10C17000204C224EAC4226D300F07AFFFBF734F974
:10C180001F4A137B23F00103137306B070BD54F8EC
:10C190000C3C059354F8103C049354F8143C03935E
:10C1A00054F8183C029354F81C3C019354F8203C7A
:10C1B000009354E90A2354E90C0100F029FD54F8D6
:10C1C000303C5E65CDE7D4E90A23B3F1FF3F08BFF9
:10C1D000B2F1FF3F05D052EA0301206803D101F01C
:10C1E00003F83034C6E73146183001F08DF9F8E72E
:10C1F000E00C002070170300701703005F100300AD
:10C200005806002070B5164E164D1749902386B07B
:10C2100003FB006601220023CDE904230F22CDE9B0
:10C2200002320193142303FB005504464FF4C070FF
:10C2300000FB04110D4B00954FF4A072304600F046
:10C24000E7FC737B0A4AEE6023F0040373734FF438
:10C25000046304FB033313442C746B6006B070BD9D
:10C26000C8050020800C0020C01B0020C50C030066
:10C2700080130020BFB50020FFF74CFF284B83F34D
:10C280000888284C284F636943F4007363610025D4
:10C29000E02384F82230E57725766576A57684F864
:10C2A0002050636A43F4E023636284F82350FBF771
:10C2B000E9FCFBF737FE4FF0FF33A362E362FBF7C5
:10C2C000F7FEFBF753FE1948194C00F01BFD012047
:10C2D000FFF720FF0220FFF71DFF00F0FDFE154BCA
:10C2E00015495C61154B05930123CDE903534FF4C8
:10C2F00080623B46CDE901550095204600F088FC60
:10C30000627B064622F004022046627304F064FE5B
:10C310002846FFF777FF3A4631462046FBF7E2FD15
:10C32000C01B002000ED00E045C10200E80600202F
:10C3300058060020800C0020401D0020B61F03007E
:10C3400038B5064C064DAC4201D3002038BDD4E9C7
:10C350000112204604F040FC1434F4E7800300206E
:10C360009403002030B585B0DDE90845034B029306
:10C37000CDE9004504F0EEFB05B030BD51DF020011
:10C3800038B5064C064D0020AC4200D338BD2046DF
:10C3900004F046FC0028F9DB1C34F5E764030020B8
:10C3A0008003002073B50C46EFF31181202585F33F
:10C3B0001288BFF36F8FC5685DB125602B68C360BD
:10C3C000836901338361002081F31188BFF36F8F8C
:10C3D00011E052EA030603D125606FF00B00F3E78A
:10C3E000CDE900230246083000F074FD18B9034B74
:10C3F0009B681B69236002B070BD00BF800C0020E9
:10C400002DE9F34104460E469DF8200004F108088A
:10C41000EFF31187202181F31288BFF36F8F256A14
:10C42000E1688D4242D22568AC421AD0CDB128468F
:10C4300004F053FC05F1180004F0AEFEA268286970
:10C440003146002404F08CFF2846C5F8884004F0EB
:10C45000C3FD4046394600F0D1FD204602B0BDE89C
:10C46000F081A268A8B1E069314604F079FFE36980
:10C47000A26813446269E361934201D12369E361D5
:10C48000236A01332362002087F31188BFF36F8F83
:10C49000E4E7A1692369994204BF6369A361A069C4
:10C4A000801AA061314604F05BFFE9E752EA03011C
:10C4B0000AD00749896840460E61CDE90023394614
:10C4C000224600F007FDC9E76FF02200DCE700BF5D
:10C4D000800C0020F7B5044604F108070846EFF386
:10C4E0001186202181F31288BFF36F8F216A002902
:10C4F0003AD0A268A16904F033FFA369A268256855
:10C5000013446269A361934204BF2369A361236A50
:10C51000AC4203F1FF33236234D02846002D32D0E1
:10C5200004F0DBFB05F1180004F036FEA26829696F
:10C53000E06904F015FFE369A26813446269E361EE
:10C54000934204BF2369E361236A01332362002419
:10C550002846C5F8884004F03FFD3846314600F0D3
:10C560004DFD204603B0F0BD52EA030110D00A4948
:10C5700089680861CDE9002331462246384600F03B
:10C58000A9FCEFE7002086F31188BFF36F8FE9E77E
:10C590006FF02200F7E700BF800C00202DE9F34187
:10C5A000044617461E46EFF31188202383F31288B2
:10C5B000BFF36F8FC368334A7BB18068916888424C
:10C5C00019D057EA060318D188F31188BFF36F8F8B
:10C5D0006FF00F0002B0BDE8F081916891F90E1084
:10C5E00021610133E3609368A36088F31188BFF38E
:10C5F0006F8F0020EEE72169F2E791F90E1090F9B4
:10C600000E309942A8BF19466FF07E029142B8BF22
:10C6100011468B422DDD04F074FB0546CDE9007612
:10C6200019482246414600F055FC0028E1D0EFF3BE
:10C630001186202383F31288BFF36F8FA068D0B1D7
:10C64000236821699C420AD04BB193F90E3099427C
:10C65000A8BF19466FF07E039942B8BF194604F08F
:10C6600050FB40B10848314600F0C8FC6FF00A00AA
:10C67000B0E70025D2E7002DF4D186F31188BFF38F
:10C680006F8FF3E7800C0020E10C0020F8B5836881
:10C690000546002B40D0234A926893423FD1C3689D
:10C6A000012B03D9013BC3600020F8BDEFF31187D4
:10C6B000202383F31288BFF36F8F0169806804F031
:10C6C00020FB2C68A54207D10023C5E9023387F37C
:10C6D0001188BFF36F8FE7E7002CF5D0D4E9003263
:10C6E00013605A60637B002623F002036373C4E97E
:10C6F0000066A66004F1180004F04EFDAC6094F9E9
:10C700000E302B612046C4F8886004F065FC0648B2
:10C71000394600F073FCC7E76FF01500C5E74FF02E
:10C72000FF30C2E7800C0020E10C002037B5114635
:10C73000EFF31185202282F31288BFF36F8F046814
:10C740009CB12368426823F003039442036008BF4E
:10C7500043600121204604F058FB044685F311880C
:10C76000BFF36F8F204603B030BD51EA0302F5D00E
:10C7700000F10802CDE900131046294600F0AAFB9B
:10C780000028EFD1014B9B681C69EBE7800C00206F
:10C7900070B5EFF31186202383F31288BFF36F8FF8
:10C7A0000468A0421BD0D4B1D4E9003213605A60AF
:10C7B000637B002523F002036373C4E90055A56081
:10C7C00004F1180004F0E8FC2046C4F8885004F096
:10C7D00003FC31460748BDE8704000F00FBCD0E9CB
:10C7E00002329A4218BF0133836086F31188BFF387
:10C7F0006F8F70BDE10C002013B5EFF31181202481
:10C8000084F31288BFF36F8F846844B1013C846065
:10C8100081F31188BFF36F8F002002B010BD52EA80
:10C82000030406D181F31188BFF36F8F6FF00F00FF
:10C83000F3E7CDE900230246014800F04BFBECE7AB
:10C84000E10C00202DE9F0410546EFF3118720238C
:10C8500083F31288BFF36F8F00231E466FF00A0820
:10C860002C68A54216D0ACB1D4E9003213605A60EE
:10C87000637BA66023F002036373C4E9006604F1DE
:10C88000180004F089FCC4F88880204604F0A4FB5A
:10C890000123E5E70022AA602BB139460548BDE82F
:10C8A000F04100F0ABBB87F31188BFF36F8FBDE899
:10C8B000F08100BFE10C00202DE9FF414F4E0446FE
:10C8C0002027EFF3118887F31288BFF36F8FD4F816
:10C8D0009450F5B9022104F1AC0004F0C3FA002829
:10C8E00068D004F1A40500220121284604F0F8FBD9
:10C8F0000028F8D1002302934FF0FF324FF0FF33AE
:10C90000CDE90023414604F19C023D4800F036FD8C
:10C91000D7E7D4F898202B68C4F89430954208BF24
:10C92000C4F89830D4F8AC3043F00203C4F8AC300B
:10C93000EB6823F0040343F00103EB606B6888F3BA
:10C940001188BFF36F8F28469847EFF3118887F35C
:10C950001288BFF36F8FEB68D80623F0010236D43C
:10C96000EA60EB689A0716D5306823F00203EB60A3
:10C9700088B10368002170B14268954235D10368DF
:10C9800069BB72683360824200D17360002340F853
:10C99000083BFFF7FDFED4F8AC3023F00203C4F8E7
:10C9A000AC3088F31188BFF36F8FDB0589D400F0BA
:10C9B0009BFB86E7D4F8AC30D9069BD5C4F8AC0015
:10C9C00088F31188BFF36F8F04B0BDE8F08123F0C6
:10C9D0001103EB6005F11000FFF7DAFEC1E70B6011
:10C9E0007368834208BF7160D0E723B11A680146BB
:10C9F00018461346BFE71A46F9E700BFA00C00200F
:10CA0000E10C0020F8B5C3689A0704460F46C3F34B
:10CA100040062ED45B071CD40B680BB983680B60EF
:10CA2000E368DD0744BFA3683B603D684CBF022656
:10CA30000126002D3CD0204B9A68D5F890309A42C0
:10CA40000AD0D5F8AC30D807C3F3800214D46FF005
:10CA5000120600233B6025E004F07BFAD5F8AC30E9
:10CA60000028F0D1D907C3F3C002F0D552B15B075B
:10CA700008D46FF00F06ECE7002AFAD1C3F3C00325
:10CA8000002BF6D100232360D5F8983063B9C5E9AF
:10CA90002544284604F000FAE36843F00403E36009
:10CAA0003B68A3603046F8BD1C60C5F89840F0E7CD
:10CAB0006FF01506CDE700BF800C0020014601484D
:10CAC00004F02BBA98070020F0B589B00446002086
:10CAD000C4E925000E9D04F19C00C4E9270004F17F
