:020000022000DC
:10700000804B0020B9940200B1FA0300A59402005D
:10701000A5940200A5940200A594020000000000BF
:107020000000000000000000000000008195020048
:10703000A5940200000000001D950200A594020026
:1070400051970200996D0300519702005197020079
:107050005197020051970200519702005197020088
:107060005197020051970200519702005197020078
:107070005197020051970200519702005197020068
:107080005197020051970200519702005197020058
:107090005197020051970200519702005197020048
:1070A0005197020051970200519702005197020038
:1070B0005197020051970200519702005197020028
:1070C0005197020051970200519702005197020018
:1070D0005197020051970200519702005197020008
:1070E00051970200519702005197020051970200F8
:1070F00051970200519702005197020051970200E8
:1071000053B94AB9002908BF00281CBF4FF0FF310E
:107110004FF0FF3000F00CB8ADF1080C6DE904CE73
:1071200000F022F8DDF804E0DDE9022304B0704746
:10713000704700BF10F8012B11F8013B012A28BF4E
:107140009A42F7D0D01A7047034611F8012B03F882
:10715000012B002AF9D17047034613F8012B002AAE
:10716000FBD1181A013870472DE9F04786468C4646
:107170000846089E154674461946002B40F0C2800A
:107180008542B2FA82F245D94AB1C2F1200300FA2F
:1071900002FC2EFA03F3954043EA0C0C94404FEAAC
:1071A000154EA8B2BCFBFEF8230C0EFB18CC08FB56
:1071B00000F943EA0C43994528D9EB1808F1FF3749
:1071C00004D2994502D9A8F102072B44A3EB090385
:1071D000A4B2B3FBFEFC0EFB1C330CFB00F044EA34
:1071E0000344A04214D92C190CF1FF3304D2A0425D
:1071F00002D9ACF102032C44241A43EA07401EB121
:10720000D440002334607360BDE8F0874746DDE773
:107210006346F1E792BB431B01214FEA154EAFB223
:10722000B3FBFEFC200C0EFB1C330CFB07F840EA02
:107230000343984562D9EB180CF1FF3004D298450E
:1072400002D9ACF102002B44A3EB0803A4B2B3FBB8
:10725000FEFC0EFB1C330CFB07F744EA0344A74279
:107260004ED92C190CF1FF3304D2A74202D9ACF14C
:1072700002032C44E41B43EA0040C0E7C2F12003B0
:1072800020FA03F1954090402EFA03F303434FEAAE
:10729000154EAFB2B1FBFEFC0EFB1C10190C0CFB23
:1072A00007F841EA0041884504FA02F422D9691836
:1072B0000CF1FF3004D2884502D9ACF10200294418
:1072C000A1EB08019BB2B1FBFEFC0EFB1C110CFBF9
:1072D00007F743EA01439F420ED9EB180CF1FF3147
:1072E00004D29F4202D9ACF102012B44DB1B41EADC
:1072F000004192E76046E3E76146F7E76046A3E7AF
:107300006346B7E7834206D916B9002108467BE7F2
:10731000C6E900E0F9E7B3FA83F78FB9834201D3F6
:10732000724508D8BEEB020460EB030301209C46C3
:107330001EB9002168E73846FAE7C6E9004CF8E7CD
:10734000C7F1200CBB4022FA0CF41C432EFA0CF1BE
:1073500020FA0CF3B84001434FEA14490EFA07F53E
:10736000B3FBF9F81FFA84FE09FB18300B0C08FB7D
:107370000EFA43EA00439A4502FA07F240D9E318AD
:1073800008F1FF3004D29A4502D9A8F10200234443
:10739000A3EB0A0389B2B3FBF9F809FB183308FB26
:1073A0000EFE41EA03418E452CD9611808F1FF33E6
:1073B00004D28E4502D9A8F10203214443EA0040D9
:1073C000A0FB0298A1EB0E014145CE46434602D3F5
:1073D00006D14D4504D2B9EB020E68EB0403013827
:1073E000002EA6D0B5EB0E0261EB030101FA0CFCF6
:1073F00022FA07F34CEA0303F940C6E9003198E7A3
:107400004046C5E74346D9E72DE9F843D0E90738B8
:10741000856903EB08042F34A5420F46164619D898
:10742000DFF86C80A3FB080117A3D3E90023FFF763
:1074300067FE0346601BA0FB080123F07F4412A3F4
:10744000D3E90023FFF75CFE20F07F403C60306012
:10745000BDE8F883DFF838900BA3D3E90023A5FB40
:107460000901FFF74DFE20F07F440A480A2106A3D8
:10747000D3E90023E8FB0901FFF742FE20F07F403B
:107480003C603060BDE8F8838D49FD1A07000000BC
:1074900000CA9A3B00166BF1002800F037812DE9F5
:1074A000F04FC74C94F85E30DA078DB000F1688178
:1074B000627F94F8293004EB820204EB8303166A9E
:1074C000DF6A0EB3354615F8020BC0F3801007F0E3
:1074D000F1FD0368C6F802308388AB8033785B0621
:1074E00006D50621284606F027FA002800F04A8132
:1074F0003D4615F8020BC0F3801007F0DBFD036872
:10750000C7F802308388AB80337813F00E0F40F059
:10751000958063691BB10C200DB0BDE8F08F08F0B9
:107520006DFA8146002800F03B8108F073FA82462C
:10753000002800F032810AF059FE0546002800F0CC
:107540003181D0F888004FF6FF73AB8405F1100B42
:10755000002800F01D8105F17C0205F1780106F09C
:10756000F7F9B5F8763023F4EF6323F0070343F41B
:107570008C7343F00103A5F8763095F8373003F0AB
:107580003F0363F07F0385F8373095F88E3023F0A2
:10759000070385F88E3095F83C3023F00F034FF049
:1075A000000885F83C304FF4C023C5F88E312846DA
:1075B000C5E91288C5F88880A5F88C8085F83980DF
:1075C000A5F82A80C5F82E80C5F85080A5F86081FE
:1075D000A5F89481A5F88A810CF0BAFD85F864813C
:1075E000C5F868910BF0CEF895F89C3160F3020372
:1075F00085F89C310BF0CCF895F89C3160F3C5030D
:1076000085F89C3195F8623168F3410385F8623161
:10761000012128460BF06EFC05F1E0000CF0B8FBF0
:10762000C4E9159AC4F814B0C5E9028885F8008049
:107630002D6110F05FF8002840F0A680237E012124
:10764000C3F342030DF12B008DF82B3006F01CFB29
:10765000024600285CD0394630460AF01FF95949E5
:10766000594BB4F85C70A0FB0101C0184FF0000545
:1076700051A3D3E9002341F10701C4E90255257064
:10768000FFF73EFD606007F0D3FC00F109083FB949
:10769000357805F00F05A5F10105B5FA85F56D09F9
:1076A000207E636865F3000010F00105207636D077
:1076B000464A0992002010600225454A454F04932E
:1076C0000BAE019305920321CDE9020006944346D7
:1076D0000090089607972A460B9507F0ABFB3146BA
:1076E00008F00EFAA0B93C4905914AF2D83300934C
:1076F000CDE90300CDE901000797089606944346BB
:10770000012203210B9507F079FB2EE00AF062B805
:107710006369002B3FF4FFAE0AF032F8FBE62B4A18
:107720002E48049303F247130694029591211360A7
:10773000A7FB000301FB0731264B0793244B05935E
:107740004FF6FF730992022703930BAE1AA3D3E9F6
:1077500000230B970896FFF7D3FC4346CDE9005072
:107760003A462846032107F065FB314608F0C8F980
:107770000028CDD194F85E3043F0010384F85E30E8
:107780000020C9E61220C7E609F0FAFF0320C3E68D
:1077900005F18000C5F88800DDE6484608F034F9B8
:1077A0000720B9E6504608F03BF9484608F02CF9A6
:1077B000F6E700BFAFF300808D49FD1A0700000017
:1077C000F81F002000CA9A3B8C49FD1AEC1F0020CC
:1077D000111903004DF1020005160300002AE78489
:1077E00070B5037E8AB0C3F342030D4604460121FF
:1077F0000DF1230016468DF8233006F045FA314688
:10780000024628460AF04AF81F49204AA0FB0131E7
:10781000981841F107011AA3D3E90023FFF770FC80
:1078200063689842054621D21B1A00220192184A29
:107830000293184BA21AA3FB0232022192090023E1
:107840000A4409AE099114490591CDE90333032196
:10785000D2B206960093184607F04CFB314608F06A
:107860004FF938B9656000200AB070BDFBD9C21A63
:107870000023DBE70C200AB070BD00BFAFF300802F
:107880008D49FD1A0700000000CA9A3B8C49FD1A79
:10789000F81F0020ABAAAAAA4DF1020000000000C8
:1078A00038B5194C9DF810E094F828C01CF001057B
:1078B00021D163F3420C4001237DA1834FEACE0E18
:1078C0000EF0180E00F0200040EA0E0023F03803FE
:1078D00003430E4823759121A2FB000384F828C0BE
:1078E00001FB023106A3D3E90023FFF709FCC4E939
:1078F0000800284638BD0C25284638BDAFF3008067
:107900008D49FD1A07000000880D0020002AE78439
:107910002DE9F043044600F1150190F82800237D7D
:107920003F4DC0F3400060F386138DB0237507F020
:10793000D1FB227DA38B3B48246102F07902002712
:1079400022759121A3FB0002C4E90277277001FB95
:10795000032131A3D3E90023FFF7D2FB324A636A44
:107960002362651BA2FB05250933C5F34715984221
:1079700005EB450898BF27624FEA88082B4F8EBF5A
:10798000636003466060064647F8083007F050FB26
:1079900047440DF12C090997CDF820900694A38B4C
:1079A00000F109081F480027A3FB0002039791215B
:1079B00001FB0321636804931D4B07931D4B059343
:1079C00002230B9314A3D3E90023FFF799FB10467E
:1079D00019464FF47A720023FFF792FB0435EDB29B
:1079E000CDE90160032143462A460097384607F057
:1079F00021FA494608F084F840B994F8283043F059
:107A0000010384F828300DB0BDE8F0830C200DB0E0
:107A1000BDE8F083AFF300808D49FD1A0700000038
:107A2000880D0020002AE784A38B2EBA7020002046
:107A30004DF10200F91D03002DE9F04F05468BB012
:107A40008B46012002219946144611F075FD002253
:107A500002218246012005F0CBFF2F494FF4D4725A
:107A6000284605F055FF461D2C4B0093F6B20195B4
:107A70004B4632460121002007F096FA10F0FD0F28
:107A800042D1274BA4FB0348204621A3D3E900237E
:107A90004146FFF735FB089506956B680493214B2B
:107AA00020F07F47A7FB0331E01A1F4B07934FF0ED
:107AB00007021E4B059302FB07114FF6FE7368EB9E
:107AC000010103934FF47A720023FFF719FBCDF8FD
:107AD00000B0CDE901704B4632460121002007F08D
:107AE0008DF910F0FD0F0DD1BAF1000F02D10BB0DE
:107AF000BDE8F08F0122022110460BB0BDE8F04F27
:107B000005F076BF00DEEFE700DEBAE7AFF30080F6
:107B10008D49FD1A07000000B80D0020AD200300BC
:107B200000CA9A3B8D49FD1A95200300BD6A0300E7
:107B30002DE9F0418468A28C4FF6FF739A428CB015
:107B400000F08E80054620460CF07EFD2B7D012B3B
:107B500000F00D81022B00F00081002B00F0DF808F
:107B600094F86471002F40F0FB802B8AE68D94F925
:107B70003720CDE90A77002B75D0002AC0F2418169
:107B80000023A4F89031AB7CA28D03F00303551CB5
:107B9000012BADB200F0BF80B4F89431002B00F09F
:107BA000EC80AB4240F246815B1B9BB2062BA4F8F3
:107BB00094314FF000028CBF00230123E2851F4661
:107BC00094F83C2063F3820284F83C2029460DF1AE
:107BD000270220460CF0F8FA743000F02581B4F842
:107BE0008E312BB1AB4240F2FD805B1BA4F88E318D
:107BF000B4F88A312BB1AB4240F2EB805B1BA4F8A6
:107C00008A31E58D17B9AE4200F0DA800135ADB2A8
:107C100094F8D13013F0010640D1DDE90A130A4689
:107C2000002B40F0DD80002900F0CC801E46184675
:107C3000A28C24690694CDE9035705329C4D02902D
:107C4000CDE90016D2B201210020059507F052F9C6
:107C500010F0FD0F04D007F07DFF844240F0FB8060
:107C60000CB0BDE8F081002AB8BF84F8D570AB7CB9
:107C7000A28D03F00303551C012BADB24BD0B4F819
:107C80009031002B88D0AB4240F2D9805B1BA4F826
:107C90009031B4F89431002B83D191E794F93720D7
:107CA0006FF30003002A84F8D130C0F2818094F889
:107CB0007600C0F3C00100F007000FF09FFBB4F89E
:107CC0006E20B4F86C301344E28B03F23F1313447C
:107CD0000344784A78480721E3FB0021104672A349
:107CE000D3E90023FFF70CFADDE90A1320F07F4205
:107CF00060686260904235BF161A801A0020002624
:107D00000A46002B94D156EA010C91D1002859D093
:107D100019461E468CE70023A4F8943150E794F8E6
:107D20008E3003F01803182B7FF41AAF218DB4F8AE
:107D30008C218B1D9A42C4BF931F5B1AB4F8881123
:107D4000CCBF9BB21346994200F09480A4F88831CE
:107D5000A4F88A31A4F88E2102E73D2784F86471E3
:107D6000394620460CB0BDE8F0410AF0CBBD0023F7
:107D7000A4F88E31A4F88A31F2E6E28C052A97BF86
:107D8000013240F2E2434FF4FA7392B203FB02F283
:107D9000B4F8923142F2107101FB0323013BB3FBB3
:107DA000F2F39BB2A4F89431002B7FF4FAAE07E70C
:107DB00094F87700012100F007000FF021FB7EE727
:107DC0003D4625E7002D3FD000261146304633467C
:107DD0002EE70023A4F88A3120460CF087FA10E73A
:107DE000304625E707F05CFE014680B30023A4F887
:107DF0008E31A38CC3801B230371006807F022FE21
:107E0000F6E694F8D53043B3013B84F8D53004F15D
:107E1000E00840460BF0FEFF90B340460BF0FAFF3F
:107E200090B30023E385ABE69DF8271020460AF0C7
:107E300069FD15E7082120460AF064FD10E73E21A0
:107E400020460AF05FFD0BE7002FBDD108E70123B4
:107E5000A4F88E31CCE600DE02E70AAA0BA9284678
:107E6000FFF7D2FADDE90A231343D0D0237884F850
:107E7000D530CCE7B4F88E1100297FF471AE67E7F6
:107E8000FF200AF001FDC8E70246D4E91E0105F013
:107E900077FD0028C5D194F83C301B0744BF238DE3
:107EA000E3856DE6AFF300808D49FD1A0700000001
:107EB000ED2003008C49FD1A00CA9A3B0000000027
:107EC0002DE9F04F87B0B0F86071BDF84C9000918B
:107ED000CDE90423B0F82431BDF840A01F44BFB25F
:107EE0000446A7EB090390F87600D4F81C819EB2F3
:107EF000BDF844300193C0F3C001BDF8483003968B
:107F000000F0070002930FF079FAE58C052D40F29E
:107F1000A48015FB06F5ADB240F2E24BBAF1050FB5
:107F200040F28F80B4F86E20B4F86C30134403F242
:107F3000D5130344764A77480721E3FB00214FF02D
:107F40009613E3619623104623846FA3D3E900239D
:107F5000FFF7D6F8564620F07F4040F2E2430BFB95
:107F600005F203FB06F6531E3344B3FBF6F31FFA88
:107F700083FB606006FB0BF082425D4653D265498D
:107F8000801AA0FB010160A3D3E90023FFF7B8F832
:107F900020F07F408044B4F82421B4F86031A9EB8C
:107FA00007094D44ADB213442B44A4F86031638DEE
:107FB00013441D4494F837306585DB0955D100DE44
:107FC00000273546019B2385029BA4F89231314658
:107FD0002046A4F826A00CF023F94F4B218D334402
:107FE000881DB3FBF6F39AB29042A4F88C2104D218
:107FF000C1F57F41FA310A4492B2009BA4F888216E
:1080000013B10023A4F8943143462A46394620464A
:10801000FFF712FD94F8623143F0010384F86231F6
:1080200007B0BDE8F08F121A3A48A2FB000136A350
:10803000D3E90023FFF764F820F07F40A8EB0008A5
:10804000A9E74FF096130AF10106E3619623238412
:10805000B6B20A204FF4FA7381E7039B013515FB92
:1080600003F5ADB24FF4FA7B58E7216CA36C294FAE
:1080700001FB0233039A01FB1233A3640023C4F80B
:10808000DC300FF08BFB054694F8D400C0F34200BF
:108090000FF086FB054406FB05F5204B1C4805F553
:1080A000742505F23F25A3FB0535AD0CA36C2564B3
:1080B0000BFB05FB72085B44963A934228BF1346BC
:1080C000C4E91123049B40F2E24909FB03F30721B1
:1080D0002365EBFB07010CA3D3E90023FFF710F89E
:1080E0000F4B059AA8EB0008A3FB0230800A09FB9E
:1080F00000F0A0FB070104A3D3E90023FFF700F879
:10810000751B20F07F475DE78D49FD1A07000000D1
:108110008C49FD1A00CA9A3B7FC3C90183DE1B4309
:108120005917B7D1000000002DE9F04F0D4609683E
:10813000B0F82EC0D1F800900146144651F82EAB8D
:1081400052F8086B8F788346D0F81E00BBF82210D7
:108150009BF81C80A4F808C09770DBF82A206260A6
:1081600091B0DBF83A20C4F82220ADF83C109BF81F
:108170003E100E9084F8261010AB13E9030004F1B2
:1081800022020C90ADF834101046052105F07CFD5C
:1081900094F8272000F03F0060F3050284F82720C0
:1081A0009BF83F20C2F3040184F82810BBF8341078
:1081B000E1820128C8F380180DD902F01F021B329A
:1081C00002F01F020B2A06D889B2063989B240F69E
:1081D0007A42914219D90021C9F8081094F82C204C
:1081E00061F3000284F82C200125DBF80C408BF8A9
:1081F00004505046594607F019FC20682571214665
:1082000011B0BDE8F04F07F01DBC2A680021516095
:10821000BBF836202283E78ABBF832300A9340F25B
:10822000E242304602FB07F70CF00EF89BF83F10D5
:1082300096F8D400490961F3430086F8D4000FF0A2
:10824000ADFA0B9096F8D400C0F342000FF0A8FAF4
:108250000B99084407FB00F0994900F5742000F2DF
:108260003F20A1FB00107908800C963920636163E0
:108270009BF8311040F2E24201FB02F26264BBF86B
:108280003820A6F89221394630460BF0C9FF8D4AB6
:108290008D49C6F898113A44B2FBF7F290B2A6F8AD
:1082A0008C01218B01F1060C604504DDC1F57F4195
:1082B000FA31014488B25946A6F8880111F81C2FFA
:1082C000C907C2F3401200F1EC80BDF83410ABF8DE
:1082D00023100C988BF81E804FF48071CBF81F0090
:1082E000ABF81C10E18AABF82610218BABF82810F4
:1082F000B6F89211ABF82A1096F8D4100B92C1F38D
:1083000042018BF82C10304609F07CFFA082ABF8BC
:108310000600D5F804805046594607F087FBA38A2B
:108320000B9AA8F806301C23D8F800A088F804306F
:10833000002A40F0A28088F81C204146504607F0F1
:1083400081FB94F86700B4F85CA0B4F85E8001216A
:1083500000F007000FF054F8D04408F2D51800EBF5
:1083600008038246DFF8648159480721E3FB0801CE
:108370004FF09613C4E903334FA3D3E90023FEF76C
:10838000BFFE20F07F407060EB680A98226B40F2DD
:10839000E24101FB003404F2B3440221A41A01209B
:1083A000BF1A002205F024FB484609F027FCA4EB85
:1083B0000A040246A4FB080114463FA3D3E90023A4
:1083C000FEF79EFECDF80490AB684249009120F084
:1083D0007F4AA21C363BD2B253440121002006F052
:1083E000E3FD01285FD099F81830DB0751D43046FF
:1083F00009F008FF354BA7FB039804462EA3D3E9E9
:10840000002348464146FEF77BFE334BAD68334AB6
:10841000079220F07F47A7FB0331B9EB0300304BF5
:1084200005934FF4F8730696089373684FF0000BAA
:10843000CDE903B34FF0070303FB071168EB01011C
:108440004FF47A720023FEF75BFE0534363DE4B24A
:10845000CDE90170CDF800A02B46224601215846F7
:1084600006F0CCFC10F0FD0F23D1012202211046B2
:1084700011B0BDE8F04F05F0BBBA94F8273043F0D7
:10848000400384F82730201D0EF010FC01222085C7
:1084900051E70023012200931846114606F042FDE1
:1084A000A5E700DE11E707F055FB81459BD000DE14
:1084B00099E700DED9E700BF8D49FD1A07000000EB
:1084C00083DE1B437FC3C901404B4C0000CA9A3B6B
:1084D0008C49FD1A456B03008D49FD1A956A03000E
:1084E000BD6A030000000000F0B5C468636883B093
:1084F0000546002B40D110F0FDFB002010F01EFCC3
:108500000021084610F00CFC00222521082010F064
:1085100049FC374B019301A810F030FC354940F27B
:108520005B6010F0E7FC237AC3F3420262F30613A8
:10853000237220460FF0B8FA27682E6838460EF0EE
:1085400015FF06446A6806F10901012010F00CFECF
:1085500010F0FAFE204609F05DFB811C3246C9B2DC
:1085600038460EF005FF054698B920460EF0CCFEC1
:1085700068B9002003B0F0BD93F82C309B07BAD047
:108580001D48214610F08AFB10F05EFCF1E700DE8A
:10859000EFE71A4A1A491B4840F2114317F0A1F8B5
:1085A000194B0721A5FB030301FB05310EA3D3E9FA
:1085B0000023FEF7A5FD15490246154817F091F86E
:1085C000002585F31188BFF36F8F0323184602DF60
:1085D0001048214610F062FB10F036FC6FF08B0063
:1085E000C8E700BFAFF3008000CA9A3B000000005C
:1085F000D6BE898E55555500B1740300E856040067
:1086000034570400AC5504008D49FD1A645704002A
:1086100038570400AD7703002DE9F041C468237991
:108620006FF300038CB023710F46054610F062FB18
:10863000002010F083FB0021084610F071FB082099
:108640000022252110F0AEFB012007F023FB0028BB
:1086500064D01C3010F0D0FB494B0B930BA810F0EA
:108660008DFB484940F25B6010F044FC2079C0F378
:10867000410025300EF08EFE4348214610F00EFBDF
:1086800023799B062DD5962010F062FD00231A4613
:108690001946184610F094FCD4F800802E68404625
:1086A0000EF064FE06446A6806F10901002010F02D
:1086B0005BFD10F049FE10F0F3FC204609F05EFC73
:1086C000011DC9B2404632460EF052FE054648BB77
:1086D00057B120460EF018FE10BB00200CB0BDE8CC
:1086E000F08110F0CDFCD7E72369002BF1D0274DA6
:1086F0000795274D059540F2F3150093CDE90377D3
:10870000CDE901770694334603223946089506F0F1
:1087100075FB10F0FD0FDCD000DEDAE700DE98E735
:1087200000DEDAE71B4A1C491C4840F2E51316F04C
:10873000D8FF1B4B0721A5FB030301FB05310EA34B
:10874000D3E90023FEF7DCFC16490246164816F072
:10875000C8FF002585F31188BFF36F8F03231846E8
:1087600002DF1248214610F099FA10F06DFB6FF00D
:108770008B00B3E7AFF3008000CA9A3B0000000013
:10878000D6BE898E5555550081800300157E0300A5
:10879000257E03007057040034570400AC550400D4
:1087A0008D49FD1ABC57040038570400A17E030010
:1087B0002DE9F043C468A28A4FF6FF739A4283B052
:1087C00000F0FF8006460FF0FDFD3389628B208CA0
:1087D000A3831A4492B2104494F82730E28380B203
:1087E000411C21845D064FF00001618304F12201E8
:1087F00000F1A78003F03F000B4694F8281000908A
:1088000004F129000EF00AFA0546D4E90C31A26BF6
:10881000A08BA36303FB0022E36B8A4294BF9B18E7
:108820005B188B4228BF0B46626C216CE3630A44E1
:1088300094F867306264002294F82C10226494F853
:108840007E20C3F3020363F3061112F0040284F8DE
:108850002C1000F0878010F04DFA002010F06EFA16
:10886000201D10F08BFA2389A17A40F25B6043EA65
:10887000014110F03FFB28460EF08CFD2146584880
:1088800010F00CFAA08910F063FC94F8662094F8BC
:108890006700C2F3C003002102F0070200F00700E6
:1088A00010F08EFB20460FF027FED4F800803768CA
:1088B00040460EF05BFD0744726807F10901002095
:1088C00010F052FC814610F013FD002010F02AFD3C
:1088D000E36B94F8670003F12F02636C00F007006C
:1088E000012103EB420510F09BFA4D44054494F836
:1088F000670000F00700022832D004280CBF4FF4B4
:10890000BC73282301211D4410F08CFA284410F078
:10891000E1FCA18A05313A46C9B240460EF028FD75
:108920000546B0B1B37A13F0020629D000252D48D0
:10893000214610F0B3F910F087FA284603B0BDE8DD
:10894000F0830A4603F03F03218D0EF0B3F905468C
:108950005BE720460EF0D8FC002839D10025ECE773
:108960001823CFE7D4E91A0105F00AF800287FF4AC
:1089700072AF94F87E3043F0040384F87E306AE7E7
:10898000194A1A491A4840F2591316F0AAFE194812
:108990000721A5FB000301FB05310FA3D3E9002349
:1089A000FEF7AEFB14490246144816F09AFE86F311
:1089B0001188BFF36F8F0323184602DF6FF08B051A
:1089C000B5E70F48214610F069F910F03DFAC5E708
:1089D00000DEC3E7AFF3008000CA9A3B000000004E
:1089E0002187030091740300D0570400345704001A
:1089F000AC5504008D49FD1A245804003857040072
:108A0000B1740300014816F05FBE00BF9E5A040017
:108A100010B5044621B10948BDE8104016F054BE17
:108A2000074816F051FE0749204604F08DFD10F06E
:108A3000FF0101D00448EFE710BD00BFB85A0400A1
:108A4000CF5A040058020020DA5A040008B539B998
:108A500019F06BFD01460348BDE8084016F034BE2E
:108A60000148F9E7FC5A0400185B040030B58BB0EC
:108A7000002301AA8DF80130ADF804300223CDE9BE
:108A800004230393400002AB60F07F00069304AA26
:108A90000123CDE908230C468DF80000CDF808D05D
:108AA000079306480649836806AA1D6808ABA847CD
:108AB0009DF8053023700BB030BD00BFDC4D0400C5
:108AC00064510400074B1A691268D20748BF80F04E
:108AD000010020B19B68DB680248012118479B68B0
:108AE0001B69F9E71C4D040010B586B001AB029379
:108AF0000223039302AB4000049301238DF804008A
:108B00008DF80510059304480449836804AA1C687D
:108B10000023A04706B010BDDC4D040064510400E2
:108B200007B526481BF0A4FA20B96FF0120003B075
:108B30005DF804FB22481BF09BFA0028F5D0204882
:108B40001BF096FA80B11F484FF4D01116F0A7FA27
:108B500050B9FFF7B7FF0A2016F0BBFA0120FFF764
:108B6000B1FF322016F0B5FA0F210120FFF7BCFF4C
:108B7000322016F0AEFA80212A20FFF7B5FFA92196
:108B80002B20FFF7B1FFE8212C20FFF7ADFF0321D9
:108B90002D20FFF7A9FF40211520FFF7A5FF3D215C
:108BA0001120FFF7A1FF0321142016F0A2FA0DF106
:108BB00007013720FFF75AFF0020B8E7DC4D04001B
:108BC0001C4D04005851040030B585B0FFF7A8FFD4
:108BD000A0BB1F481F4D204C16F076FD4FF4D0115E
:108BE0001E4816F05CFA4FF4FA7016F072FA1B4841
:108BF0004FF4B01116F053FA02A816F01DFBC8B1DD
:108C00009DF80B309DF809209DF808100093284628
:108C10009DF80A3016F058FD4FF4D011204616F09A
:108C20003EFA4FF47A7016F054FA4FF4B011204621
:108C300016F035FAC82016F04CFADDE74FF4D011E3
:108C4000074816F02CFA4FF0FF3005B030BD00BFDA
:108C5000315B0400535B0400885104009051040010
:108C600080510400014B1B68184700BF5C020020C4
:108C7000014B1860704700BF5C02002030B585B022
:108C800004460D461022002168461BF049FF0223CE
:108C90008DF802302A46044B01932146684615F0B0
:108CA000A1FF05B030BD00BF658C020080B5054650
:108CB0000E461746984615F063FC03461BF0B4FFBA
:108CC000DFF81890044649F80030424630463946ED
:108CD000A84754F8090000F00BFC00BF0800000092
:108CE0002DE9F047058B04462807904611D4022948
:108CF00005F0070540F0CC80204616F01AFD78B14B
:108D00000138218B042811D8DFE800F0C2106D85EE
:108D1000950001290CBF45F0100545F0200525837D
:108D200088F31188BFF36F8FBDE8F08701F0070A61
:108D3000AA4500F0A5800027B9463E46A368002B4F
:108D400000F0BC8041F00801218388F31188BFF353
:108D50006F8FA168002900F0BA800D68002900F02B
:108D6000B680D1F80480334652462046C047002DD5
:108D700076D02B6829461D46F0E701F007035A1FFD
:108D8000012A1BD8002221F00701062B276889B28F
:108D9000C4E9002209D13B4603E0628B01326283C1
:108DA0001B68002BF9D141F002012183204616F007
:108DB000C0FC00287AD041F0200176E0042B0AD1D3
:108DC00021F0070189B22183204616F0B2FC10B1D0
:108DD00041F020012183218B01F0070AAA454FD0E1
:108DE0000027B946AAE7236921F0070141F00601EF
:108DF000062DD3F8009021832DD1B9F1000F3FD07B
:108E000041F00801218388F31188BFF36F8F3A493D
:108E10002046C84729E021F00701236941F00401F9
:108E200089B2042DD3F804902183E6D000273E4672
:108E30004FF0040A82E721F00701236941F00501A0
:108E400089B2052DD3F808902183D6D000273E465D
:108E50004FF0050A72E700273E464FF0060A6DE71D
:108E60002B4687E7B9F1000FD1D1EFF3118820230A
:108E700083F31288BFF36F8F238B23F008032383C0
:108E8000258BEA062ED525F01003238305F0070570
:108E90006669218B002EBFF670AF00232768C4E9F6
:108EA000003321F0070141F001012183218B01F002
:108EB000070AAA454FF000097FF440AF002F9CD06D
:108EC00041F00801218388F31188BFF36F8F002FD1
:108ED000C8D03D68394633465246204616F055FC08
:108EE0002F46F4E7AB067FF51BAF25F02003238365
:108EF00005F0070500E700BFB7F70300014B03606B
:108F0000002070479851040007B51B491B4816F014
:108F1000B5FF70BB1A49194816F0B0FF48BB194994
:108F2000164816F0ABFF20BB1749144816F0A6FFF1
:108F3000F8B90146154A114817F069FAC8B902464E
:108F400013490E48012317F03DFB90B9012300930C
:108F5000014602230948EF2216F0B0FE48B907483F
:108F600016F0D5FE28B9054803B05DF804EB16F0FD
:108F7000FEBE03B05DF804FBD4020020200A0020EE
:108F8000BC020020A40200208C020020600200200D
:108F9000725B040008B50348034A0021121A16F058
:108FA0007FFD08BDB00A00206C3100200748084A48
:108FB000084908B5121A16F075FD0748074A08490E
:108FC000BDE80840121A16F06DBD00BF0000002079
:108FD000AC0A0020246304000000002000000020F0
:108FE0002463040038B505460C4699B1D1E9012344
:108FF0000F48096816F068FBD4E90423E1680D48BE
:1090000016F062FBE1690C4816F05EFBA1690B48A3
:1090100016F05AFB012D05D1EFF3058108481039F0
:1090200016F052FB21462846BDE8384014F09AB9A4
:10903000C25B0400F25B0400225C0400325C0400AA
:10904000615C040030BFFFF7FDBF00BF2DE9F041B8
:109050000B4EDFF8308006EB0807CC1B0546324686
:10906000094920461BF034FDA01942460021083C66
:109070001BF056FDC5F8844007F10800BDE8F081FB
:10908000000000000800000024510400054B5A694C
:109090009B689A421FBF044A536843F08053536051
:1090A000704700BFC830002000ED00E02DE9F84314
:1090B000324D804632488946174616F005FBAB6AAA
:1090C000DE0622D52F4816F0FFFA1124AB6A1D07E1
:1090D00003D52D4816F0F8FA1224284DAB6A9807EC
:1090E00015D52A4816F0F0FA6E6BAB6A190642D510
:1090F0002748314616F0E8FAB9F1000F03D0AB6A01
:1091000023F08003AB62132403E01024DEE76FF04A
:1091100015061A4DAB6ADA0703D51E4816F0D4FAC5
:109120001424AB6A9B0603D51B4816F0CDFA152410
:10913000124B9A6AD50602D49A6A90070AD55B68E0
:10914000190507D54146304600F0BAFA10B180F350
:1091500009880224094B9A6A920642BF5A6A22F48D
:1091600000525A629A6A42F0FF029A6200233B70F0
:109170002046BDE8F8836FF01506C4E700ED00E077
:10918000755C04008C5C0400C05C0400D45C0400CA
:10919000ED5C0400045D0400245D040010B51D4C6A
:1091A0001D4816F091FAA36A990130D51B4816F0B4
:1091B0008BFA1E20A36ADA0103D5194816F084FA47
:1091C0001F20144CA36A1B0303D5164816F07CFA23
:1091D0002120A36A590303D5134816F075FA2220FB
:1091E0000C4CA36A9A0303D5104816F06DFA23209D
:1091F000A36ADB0303D50E4816F066FA2420054A5D
:10920000936A6FEA03436FEA1343936210BD1D2014
:10921000D0E700BF00ED00E0545D04006D5D040088
:10922000815D04009C5D0400BB5D0400E15D040001
:10923000FC5D040070B5244C064624480D4616F02B
:1092400043FAA36AD90435D5214816F03DFA172010
:10925000A36A1A0503D51F4816F036FA18201A4CCF
:10926000A36A9B050FD51C4816F02EFAA16BA36AC2
:10927000180407D5194816F027FA1EB1A36A23F47B
:109280000043A3621920104CA36A590503D5144862
:1092900016F01AFA1A20A36ADA050DD5114816F04D
:1092A00013FA1B20084A936A43F47F439362002316
:1092B0002B7070BD1620CBE7A36A9B04F2D50A4839
:1092C00016F002FA1C20EDE700ED00E0285E040035
:1092D0003F5E0400C05C0400515E04006B5E04004D
:1092E000815E04009D5E0400245D04002DE9F041D0
:1092F0005B4B5F688AB00446C7F30806002585F318
:109300001188BFF36F8F02F07F43B3F17F4F06D117
:1093100002F00C03082B13D1524816F0D5F90025A2
:109320002C464FF00008F31E8DF80780092B00F241
:109330008680DFE803F00A7A7E76848484848482DF
:1093400010074CBF0C460125EBE74748444E16F08A
:10935000BBF98DF80780F36A9A0704D5434816F0E5
:10936000B3F9002330E0F36A002B01DA4048F6E756
:10937000F36A5B00F5D53F4816F0A6F97369A26958
:1093800043F480737361BFF34F8FBFF36F8F7369C3
:1093900032F8022C23F480737361BFF34F8FBFF355
:1093A0006F8F4DF602739A4209D0B36ADBB253B3A2
:1093B0000DF1070201212046FFF778FE33E0216816
:1093C0002D4816F081F923689DF80720C2B902AE36
:1093D00004F1200720686168324603C20834BC42A9
:1093E0001646F7D1099AB5B3C2F3080121B96FEA5D
:1093F00052226FEA4222099202A91846FFF7F2FDB3
:109400000AB0BDE8F081B36A13F47F4F05D00DF1C7
:1094100007010120FFF70EFF05E0B36AB3F5803FB7
:109420009FD3FFF7BBFE0346CEE70DF107020021F5
:10943000C1E70DF107010020ECE710488FE7104B62
:109440001049114817F4F87FA6F1100218BF194609
:1094500016F03AF985E722F4FF7222F00102CAE71A
:1094600000ED00E0E45E0400105F0400285F0400EB
:109470004A5F0400595F0400795F0400965F0400AE
:10948000CB5E0400B65E0400BB5F0400044B5A6967
:1094900042F010025A615A6922F008025A6170477C
:1094A00000ED00E0EFF30880EFF3098101B57246AB
:1094B000FFF71CFF01BD00BF0B4880F3088812F0C6
:1094C00099FD202080F3118808484FF4046140186A
:1094D00080F30988EFF314800221084380F3148895
:1094E000BFF36F8F00F0B4F8804B0020C03D002028
:1094F000084B9B6883420BD1EFF3058343B1064BC6
:109500005A6842F080525A605A6A22F400425A6203
:1095100015F03CB8C830002000ED00E015498A681D
:109520004FF030001044EFF3098C80E8F01F20204A
:1095300080F31288BFF36F8F0F4F4FF000664A69B8
:109540008A603E60D2F884000C4C2060D2F888001B
:109550000023C2F8883080F3118804B5104600F06B
:1095600015F9BDE8044002F1300090E8F01F8CF3DB
:1095700009887047C830002004ED00E090120020F8
:109580001EF0040F0CBFEFF30880EFF30980816930
:1095900011F8021C0229FFD001B5724616F084FAB8
:1095A00001BD00BF40B2002807DB044A4109012386
:1095B00000F01F00834042F82130704700E100E0D6
:1095C00040B200280CDB4309064900F01F0020339D
:1095D0000122824041F82320BFF34F8FBFF36F8FEA
:1095E000704700BF00E100E0054B420900F01F009A
:1095F00053F82220012303FA00F01040704700BF07
:1096000000E100E040B20028A8BF00F1604001F195
:109610000101B8BF064B4FEA4111ACBF00F56140F4
:1096200000F00F00C9B2B4BF195480F8001370479E
:1096300014ED00E0044B054A23F07F039360BFF371
:109640004F8FBFF36F8F70470070020000ED00E096
:1096500008B5FFF7EFFF0B4AD2F8883023F4700308
:10966000C2F88830EFF3148323F0040383F31488E3
:10967000BFF36F8FFFF78EFCFFF798FC00F05CF8EC
:1096800013F038FF00ED00E042F8203C009B42F868
:109690001C3C0A49019B42F8183C029B42F8143CCE
:1096A00021F001014FF0807342F8043C42F8081C9D
:1096B0000023203A0265C0F888307047AD8C020064
:1096C000094A0346906870B113F1160F406F05D038
:1096D000A0F140029A4205D8834203D2814228BFBA
:1096E0000020704700207047C830002008B515469C
:1096F0000C4A0D4B9060D0F884201A600E4600F0A2
:1097000045F82C4686F309880020044B98472046EC
:10971000002100220023024C20470000CDFA030064
:10972000AD8C0200C830002090120020014B1022A6
:109730001A61704700ED00E0044800232021C218A0
:109740000133302B82F80013F9D1704700E100E0BB
:1097500008B5EFF30583064A103B02EBC30152F84C
:10976000330049688847BDE80840FFF78FBC00BF59
:109770003C4E0400024B034A0348012100F076B836
:10978000000004200000002098510400426F054BA7
:10979000403A1A60044A4021C3E9011218460121E7
:1097A00000F06EB89412002000000B15084AC2F8B1
:1097B00098000B6823F01F03034343F01003C2F823
:1097C0009C308B6843F00103C2F8A030704700BFA3
:1097D00000ED00E02DE9F043DFF8608085B00E4633
:1097E0001F4604464FF00009B14523DA6068D8B13E
:1097F0003FB1411E08421BD11F2819D923681942C5
:1098000016D12368019316F084F9A36803430393E8
:10981000D8F89050C5F30725D0B2013DA84207D82B
:1098200001A9FFF7C3FF421C09F101090C34DBE772
:109830006FF01502104605B0BDE8F08300ED00E0C2
:10984000044B0522C3F89420BFF34F8FBFF36F8FF3
:10985000704700BF00ED00E0BFF35F8F024B0022B6
:10986000C3F89420704700BF00ED00E010B5034C32
:1098700001232278FFF7AEFF207010BD18310020C1
:1098800008B50B4A00231278FFF7A4FF10F1160F5A
:1098900007D0084A0021D2F89030C3F3072398423A
:1098A00000DB08BDC2F89800C2F8A0100130F2E752
:1098B0001831002000ED00E02DE9F043534B544CEB
:1098C000D3F890302568C3F307239D4285B000F29A
:1098D0009A80FFF7C1FF00200C2685421AD14D4C1B
:1098E0004D4F25706846FFF709FBDFF82081DFF850
:1098F0002C9106460025AE4213D12378434900201F
:10990000D1F89020C2F30722934276DBFFF798FF4D
:10991000002042E0616806FB0011FFF747FF0130BD
:10992000DBE7009800EB05114FEA051CCB683B40D4
:10993000B3F5000F48D00AD8B3F5001F30D0B3F507
:10994000800F36D0B3F5801F10D00135D3E7B3F1C7
:10995000807F42D0B3F1007FF7D150F80C30886897
:109960004A6816F0D6F840F4802009E050F80C3030
:1099700088684A6816F0CDF840F0885040F43020EE
:10998000CDE901230390D8F890302078C3F3072362
:10999000013B98422AD96FF0150005B0BDE8F0836D
:1099A00050F80C3088684A6816F0B3F840EA0900AD
:1099B000E6E750F80C3088684A6816F0AAF840F0DC
:1099C000C06040F40030DBE750F80C3088684A682B
:1099D00016F09FF840F08270D2E750F80C3088689B
:1099E0004A6816F096F840F08870C9E701A9FFF7B9
:1099F000DDFE237801332370A7E7C1F89830C1F862
:109A0000A00001337CE74FF0FF30C6E700ED00E037
:109A1000A4510400183100200000F0FF00000811DC
:109A200008B5024B1B689847002008BDA012002013
:109A3000034B044A1860937843F002039370704715
:109A4000A0120020EC02002008B50649064821F0CB
:109A50000701C1F1005202F5802215F0F6FD002049
:109A600008BD00BF238A0020A412002070B5416900
:109A7000867A0B4D044659B1437ADB0706D42C2372
:109A800003FB06535B6A1B689B689847002363616E
:109A90002C20214606FB0050BDE870401AF0B8BCEF
:109AA000B8080020024B2C2202FB0030704700BF98
:109AB000B8080020827A064B2C2101FB02339A6AF7
:109AC0001B7F1B33801A23F00303B0FBF3F07047B6
:109AD000B808002038B5074B827A2C2404FB0233E7
:109AE0005B6AD3E901240C601568FFF7E3FF04FB10
:109AF000005038BDB80800202DE9F04385B0054678
:109B00006846039190461C461AF0C8FEDDE90067DE
:109B1000EFF31189202383F31288BFF36F8F6B8BD0
:109B2000002B41D02A8B9A4225D9002200232846B7
:109B300013F042FF0446F0B189F31188BFF36F8F31
:109B4000039B002B41D032463B4668461AF0CBFEC1
:109B5000A27A264B2C2101FB023320465B6A1B684C
:109B600003A91D68DDE90023A847606170BB20469A
:109B7000FFF77CFF24E0698B4B1E6B8389F3118810
:109B8000BFF36F8F2B7F2A8BAC6A1B3323F0030349
:109B9000521A02FB0344154B154AEB1A9B10534310
:109BA000A3722B7FE372CBE789F31188BFF36F8F2A
:109BB00023464246284613F0FFFE04460028BFD144
:109BC0000024204605B0BDE8F08363610123002531
:109BD0002381039B6382E27A6560294604F11800C1
:109BE0001AF09EFF63692582E360EAE7B808002067
:109BF000A38B2EBA70B50D4C2C2500B970BD037A1D
:109C00004668002BFAD0013BDBB20372002BF5D182
:109C1000C3604360837A05FB03431B6A13B1984713
:109C20003046EAE7FFF722FFFAE700BFB808002056
:109C30000E4A0123C2F840354FF080424FF0805168
:109C4000C2F87835D1F83001082808D1D1F834119C
:109C5000052904D80648415C09B1C2F838364FF0EE
:109C600080430122C3F880250020704700E00140B6
:109C7000DE5F040020B1034B800143F0010318476D
:109C8000704700BF505104002DE9F04190F820309A
:109C900003F01F03012B04460F4600F120061BD0E2
:109CA000022B05D043BB90F8211016F074FC03E0A2
:109CB000818CC9B216F04CFC0546E8B1304616F06E
:109CC00065F9024668688368A2B99B684BB13A4659
:109CD0003146BDE8F0411847818CC9B216F01FFC2F
:109CE000EAE76FF085031AF09FFF0F4A1350002038
:109CF000BDE8F081DB68E9E794F82110204616F012
:109D000064F802460028ECD0304616F03FF940B91E
:109D10001369002BE5D03A46314620469847034662
:109D2000E1E7D368F5E700BF0C0000002DE9F04F34
:109D30000B7E33F0800893B00446174600F12009EB
:109D400040F071844A7E02F0010097B117F10C0FC8
:109D50000FD088B917F1710F03D10846FFF74AFFFA
:109D600003E00846FFF746FFB846404613B0BDE89B
:109D7000F08F002800F04084002B40F00E840B8A06
:109D8000072B0DD80846FFF735FF484616F0FEF8BA
:109D90000346A069002B00F03684802100F03CBC13
:109DA000CA68136823625368C9F804304A68E58CAE
:109DB000002AE7D0484616F0E9F808BB537E15B1F3
:109DC00013F0020F01E013F0040FDBD0002015F0B8
:109DD000E5FE05460028D8D01AF026FF94F820208A
:109DE000B84E002312F0600F8351C2F341130BD021
:109DF000032B40F0B3811AF017FF6FF0850340E0AA
:109E0000002DBFD0537EDBE7484616F0BFF894F82C
:109E10002130002840F03981013B0A2BEBD801A109
:109E200051F823F0719F0200F79D0200F39F02009A
:109E3000F79D0200519E0200F79D0200F79D02006F
:109E4000F79D0200C39E0200F79D0200259F0200BD
:109E5000A069618C03697F29D3F88030CBD8A28CAC
:109E6000002AC8D1E28C002AC5D194F82020D2065D
:109E7000C1D194F82C20022A05D11AF0D5FE4FF05A
:109E8000FF33335013E01B0706D5C9B216F0B7F8FD
:109E9000804620B1284661E7012384F8353094F8E4
:109EA0002C30012B0BD1638C4BB984F82C301AF079
:109EB000BBFE3358002B00F05683284663E701238E
:109EC000F3E7204615F0F5FE628CFF2A014692D892
:109ED000E38C002B8FD194F82030D8068BD194F8E6
:109EE0002C30002BC9D02AB1D2B2204616F03CFA51
:109EF0000028C2D0618C94F834308B42D7D0C9B2DC
:109F0000204616F038FA80460028C3D1628C002A19
:109F100014BF0223012384F82C300521204616F0BB
:109F200048FDC4E794F8203003F01F03012B7FF4B1
:109F300062AFE38C002B7FF45EAF628CFF2A3FF6AA
:109F40005AAFA18CFF293FF656AF94F82C30022B64
:109F500093D1D2B2C9B2204616F01FFC10F1020F05
:109F6000804640F000811AF05FFE46F800809EE7D0
:109F7000E38CA18C002B7FF43EAF94F82C30002BA7
:109F80003FF47BAF012B0FD100297FF476AF12F0A5
:109F90001F020CD1638C012B89D194F868306FF3C8
:109FA000C30384F8683082E712F01F0217D0022A38
:109FB0007FF47DAFB4F822A0BAF1000F7FF477AF41
:109FC0005FFA81F84146204616F0D9FC03461AF0A4
:109FD0002BFE3350013306D14FF0FF385AE70029EA
:109FE0007FF44BAFD6E752464146204615F0D4FFEA
:109FF0005DE7E38CA18C002B7FF4FDAE638C022B1C
:10A000005FFA81F813D194F8203003F01F0358EA67
:10A0100003037FF4F0AEA0690122090A15F0CCFF1A
:10A0200000287FF4E8AE012384F835303FE794F848
:10A030002C0000283FF421AF01280DD100297FF426
:10A040001CAF12F01F020AD1012B7FF430AF94F83D
:10A05000683043F00803A4E712F01F0211D0022A6F
:10A060007FF425AF002B7FF422AF4146204616F047
:10A0700071FC03461AF0D8FD33500133ACD00122F5
:10A08000B2E700297FF4F9AEDEE70A2B3FF6B3AE64
:10A0900001A151F823F000BFC9A00200F79D020002
:10A0A000F79D0200F79D0200F79D0200F79D020058
:10A0B00049A10200F79D0200FFA40200F79D0200E3
:10A0C0002DA502000C000000E38CA18C022B7FF474
:10A0D00092AE94F82C30002B3FF4CFAE012B10D170
:10A0E00000297FF4CAAE12F01F020DD194F8683037
:10A0F0004FEA930808F00208C3F3001348EA030884
:10A1000006E012F01F0210D0022A12D04FF0000811
:10A1100005F10C0A504615F0BBFDE38C98420ED2B7
:10A120001AF082FD6FF00B03ABE600297FF4A5AEB9
:10A13000DCE7C9B2204616F031FC8046E8E741462C
:10A14000504615F05FFDB2E694F82020B4F822A046
:10A15000D2064FEA1A235FFA8AFA09D02946204626
:10A16000FFF792FD8046B8F1000F7FF493AE9EE6B4
:10A17000013B0E2B3FF63FAE01A252F823F000BF89
:10A18000BDA1020007A20200BFA20200F79D0200CB
:10A19000F79D0200B7A20200B7A20200F79D0200DD
:10A1A000F79D0200F79D0200F79D0200F79D020057
:10A1B000F79D0200F79D020007A4020005F10C0ABA
:10A1C0005046B4F8268015F063FD80450AD2B4F8F5
:10A1D0002680204615F06DFD48B101287FF40BAEB6
:10A1E000216F05E0504615F053FD8046F1E7E16E22
:10A1F000002900F013810A78424528BF42465046A4
:10A2000015F0EFFC53E6204615F053FD0AF101026C
:10A2100001900146D2B2204616F080F8824600280E
:10A220003FF4E9AD05F10C08D0F804B0404615F054
:10A230002FFD9BF80020904203D2404615F028FDE8
:10A2400002465946404615F0CCFCDAF80CA0BAF1AB
:10A25000000F09D1298AE38C99427FF628AEC91AEA
:10A26000404615F0D9FC22E6DAF8040083681B6B3F
:10A2700013B9DAF800A0EAE7019998470028F8D066
:10A28000A0F1040B5BF8043F002BF2D01B78002BED
:10A29000EFD0404615F0FCFCDBF800301A78904215
:10A2A00003D2404615F0F4FC82B2DBF800104046C1
:10A2B00015F097FCE6E7204615F0FBFC9BE55246BF
:10A2C0000321204615F0C0FD824600283FF493ADDF
:10A2D00015F057FEB4F826B0E0B9BAF81430ADF86E
:10A2E0002830DAF8103005F10C081B88ADF82A3058
:10A2F000404615F0CDFC834508D2E08C9DF828201F
:10A30000824228BF02460AA9404679E7404615F036
:10A31000BFFCF3E700238DF814309AF81530DAF813
:10A3200008208DF81530C24B1340C24A934258D1D1
:10A33000102106A819F0C6F80028FFF65CAD0AAA9D
:10A340001028DFF8F4E20DF1180C114628BF102098
:10A35000404502F1020233D8800002308DF814002B
:10A36000019105F10C0A504615F092FC9DF81480FD
:10A37000D84528BFD846404503D2504615F088FC42
:10A380008046B8F1020FC34628BF4FF0020B5A4671
:10A3900005A9504615F025FCA8EB0B08DDF804B024
:10A3A0004FEA58030BEB58025A4522D118F0010F1F
:10A3B0003FF47DAD019AD15C504615F01BFC76E56B
:10A3C0001CF8013B4FEA131A03F00F031EF80AA012
:10A3D0001EF8033002F802AC02F8013C08F1010853
:10A3E000B6E79AF814308DF81430DAF8103001938B
:10A3F000B7E71BF8011B5046CDE9023215F002FC0D
:10A40000DDE90232D0E7204615F053FC20B10128E7
:10A410007FF4F1AC236F00E0E36E13B96FF0150821
:10A4200038E55B88B3F5007F7FF6E5AC834B0A9394
:10A4300000238DF82C30A36C04F1480A9A455BD1B7
:10A4400005F10C0B584615F023FCBDF82A80E38C6F
:10A45000984528BF9846404503D2584615F018FC49
:10A4600080469DF82820424528BF42460AA9584602
:10A4700015F0B7FBB8F1050F94BFA8EB0808A8F1D9
:10A480000508B8F1000F3FF412ADA36C53453FF43B
:10A490000EAD002B3FF40BAD5A7D0F2A14D11A7D5F
:10A4A00019690193424528BF4246584615F099FB69
:10A4B000019B1A7D424594BFA8EB0208A8EB08084F
:10A4C000B8F1000F3FF4F3ACE26C9A423FF4EFAC0A
:10A4D0001B68DEE75A7D0F2A0AD11A7DBDF82A10C3
:10A4E0000A44ADF82A209DF82C2001328DF82C204A
:10A4F000E26C9342A4D01B68002BEBD1A0E794F848
:10A500002C3094F834A0002B3FF4B7ACE38C012B33
:10A510007FF471AC05F10C08404615F0B9FBE38CF3
:10A520009842FFF4FDAD5146404646E794F820308E
:10A5300003F01F03012B7FF4A0AC204615F002FFAF
:10A5400000283FF49AACA38C4268FF2B3FF653AC33
:10A5500012799A42FFF44FAC0F2B3FF64CAC2344D8
:10A5600093F836A0D2E70123A362484615F00EFD0A
:10A5700060B9E38C53B12946002015F00FFB054666
:10A5800000283FF402AC6B7E5E07F4D529462046D6
:10A5900013B0BDE8F04F16F07DB950077FF5F5AB6D
:10A5A000802B7FF4F2AB0846FFF724FBA36A012B54
:10A5B0007FF4DBAB94F83530002B3FF4D6AB94F846
:10A5C0002130052B05D1618CA069C9B215F017FDAA
:10A5D000804694F82130032B09D1638C022B06D1DD
:10A5E000A18CA0690022090A15F0E6FC8046002330
:10A5F00084F83530FFF7B9BB52077FF5C6AB002BA7
:10A600003FF4ABABCCE7E38C002B3FF4C6AB17F1C8
:10A610000C0118BF0121C90118F0DFFB002380469F
:10A62000A362FFF7A2BB6FF00408FFF79EBB00BF59
:10A6300000FF020000030200E45F0400050F0500B4
:10A6400002480022002319F0F9BD00BF34080020A1
:10A650002DE9FF41514F4FF0FF334FF0FF3201A979
:10A66000384613F07DF8039B1B69D3F89C409DF896
:10A670000430072BEFD8DFE803F00A041A0D2C276B
:10A680007B8D00220121204616F093F9E3E700229A
:10A690001146F8E794F8683043F0040301A984F800
:10A6A0006830204615F0CDFC00220321EBE794F83A
:10A6B00068306FF3820301A984F86830204615F0F2
:10A6C000C0FC00220221DEE701A9204615F0B9FCFA
:10A6D000C1E794F86830A6696FF3820384F86830A4
:10A6E0003369D6F80880BFF35B8FD3F8A030BFF38F
:10A6F0005B8F9907C3F3400208D40421204616F06B
:10A7000058F94FF0FF352A460721BCE7D8F83C300E
:10A7100030469847D8F82430002130469847D8F87A
:10A720004030054630469847E5B92946204615F0A1
:10A7300022FE0546B0B98021204616F008F9A0692E
:10A7400018F000FC831E5842584194F8683084F891
:10A750002C5023F0680343EA401384F868302A46FB
:10A76000042190E700220421204616F022F9CAE7CE
:10A7700002990B7ED1F81E2013F07F0F204606D1E0
:10A78000FFF7D4FA054600283FF465AFBBE715F0A4
:10A79000D6FEF7E7029A062175E700BF34080020CD
:10A7A00030B589B000220023CDE9062300246FF0E4
:10A7B0000703CDE90334CDE901441A4B1A4900944B
:10A7C0004FF48062194813F017FC1949174819F023
:10A7D0001CFF184B18498B4207D3184B184900200F
:10A7E0008B4210D3002009B030BD03F11402BFF337
:10A7F0005B8F52E8000F42E80045002DF9D1BFF30E
:10A800005B8F1833E7E703F11402BFF35B8F52E865
:10A81000004F42E80005002DF9D1BFF35B8F1833DC
:10A82000DEE700BF51A6020080310020B00A002000
:10A83000F55F0400940A0020AC0A0020AC0A002056
:10A84000AC0A002038B5024609490546806918F06F
:10A85000E0FB044648B985F83400284615F062FC50
:10A86000044610B1A86918F007FC204638BD00BFA7
:10A8700041A6020070B5084C084E0546B44202D30A
:10A880000024204670BD636828461968FCF752FC16
:10A890000028F6D01834F1E7940A0020AC0A002012
:10A8A00070B50646EFF31181202282F31288BFF3C0
:10A8B0006F8F1D4C236881F31188BFF36F8F5B6826
:10A8C00093F86830DB0705D4BDE8704021220023EF
:10A8D00013F03CBBEFF3118382F31288BFF36F8F49
:10A8E000256865B983F31188BFF36F8F2368D3B1EF
:10A8F00030460022BDE87040002313F0F3BA6168CF
:10A900002A6822608D4208BF626083F31188BFF31A
:10A910006F8F686805F10801C369984703482946A5
:10A9200019F03CFCE2E770BDB012002004080020E2
:10A9300030B585B06C4684E806000546002215480F
:10A94000002303A912F06EFE0246E8B9039B94E8C7
:10A9500003005D60083383E80300EFF311802023D8
:10A9600083F31288BFF36F8F039B1A600A4A516802
:10A9700061B9C2E9003380F31188BFF36F8F0748D4
:10A980000022002313F0AEFA05B030BD0B60536017
:10A99000F1E700BF04080020B012002000000020F2
:10A9A00038B54B78046945682069202B08D0222BE4
:10A9B00019D01AF039F9114B6FF085021A5010E0D6
:10A9C000CB88072BF5D1D3681A6842609A88028138
:10A9D0009B79837216F00EF822460821284615F05E
:10A9E000F6FF002038BD4B888381C3F3400203F09B
:10A9F00001030276437622460921EFE70C000000AE
:10AA000008B51346026910694A78212A13D133B96F
:10AA10001AF00AF90B4B6FF00B021A5009E0CA88C2
:10AA2000072A00F1040128BF072203F10C0015F0EA
:10AA3000D8F8002008BD1AF0F7F8024B6FF0850235
:10AA4000EBE700BF0C00000073B504698DF8071038
:10AA50002025EFF3118685F31288BFF36F8F012253
:10AA6000E06B0DF1070114F0D8FF86F31188BFF3F6
:10AA70006F8F012812D019F0C2FD08B9A37EABB9BF
:10AA80000D4BBFF35B8F012253E8001F002903D158
:10AA900043E800200028F7D1BFF35B8F2122002379
:10AAA00004F1480013F01EFA02B070BD002121200D
:10AAB00019F04BFECDE700BFB812002038B505698C
:10AAC0000E49EB6B0024C3E90144DC606B6B05F1BC
:10AAD0004800C3E90144DC6019F072FD05F178001B
:10AAE000074919F026FD074905F1240019F021FD59
:10AAF000284615F07FFF204638BD00BFC90B040073
:10AB0000710D0400FD0D04000378012B30B513D046
:10AB1000022B27D07BB9194B0A4603F1100453F8D6
:10AB2000045B42F8045BA342F9D11B78137043889D
:10AB30004B731B0A8B7330BD104B0A4603F1100494
:10AB400053F8045B42F8045BA342F9D11B781370FD
:10AB500043684B73C3F307221B0CCB731B0A8A7326
:10AB60000B74E8E700F1100350F8042B41F8042BB4
:10AB70009842F9D103780B70DDE700BF2060040034
:10AB800008B516F071FA13F007FC044B1B680BB103
:10AB90000A209847BDE8084013F012BCBC12002000
:10ABA00038B50446084814F0CFFF054648B1631E87
:10ABB000DBB21F2B96BF054A0021D15C0C3015F08B
:10ABC00019F8284638BD00BF940900203160040000
:10ABD0000F2810B50CD80D280CD90A4814F0B4FF72
:10ABE000044618B104210C3015F004F8204610BDBD
:10ABF0001328F2D009B10448F0E7BDE81040022064
:10AC0000FFF7CEBFC0090020100900202DE9F04752
:10AC1000884616468246002872D0BFF35B8FDFF865
:10AC2000E490002359E8004F49E80032002AF9D1A6
:10AC3000BFF35B8F002C63D02046FEF73BFF324D05
:10AC40000C2303FB005027464388534511D0BFF324
:10AC50005B8F59E8003F49E80072002AF9D1BFF341
:10AC60005B8F002B4CD01F463846BDE8F047FEF7FF
:10AC7000C1BFA64208D0204614F061FF328AF168B5
:10AC800004F10C0014F0ADFF2046FEF713FF0C2674
:10AC900006FB00504368ABB1B8F1000F12D120465B
:10ACA000FEF708FF06FB005001214268D2E90003CD
:10ACB000127A03F01F06B1405B09DAB100EB8300A2
:10ACC00016F02EFA2046FEF7F5FE0C2606FB005085
:10ACD0008368002BC8D02046FEF7ECFE704305F8D1
:10ACE00000802046FEF7E6FE06FB0055A86812F03D
:10ACF00095FEB9E7C94300EB830016F020FAE1E7BF
:10AD0000BDE8F08720020020C012002008B500F046
:10AD10000FFDBFF35B8F084B1A68BFF35B8F02F028
:10AD20000B02BFF35B8F53E8001F43E800200028AD
:10AD3000F9D1BFF35B8F08BDAC010020F8B5024626
:10AD40000B46104814F000FF0446C0B104210C303B
:10AD500014F036FF2046FEF7ADFE0B4D0C2707FB27
:10AD60000050002646802046FEF7A4FE07FB005058
:10AD700086602046FEF79EFE07FB00556E6020466B
:10AD8000F8BD00BF68090020C0120020034B014637
:10AD9000D3F86C0182689268104700BFD800002089
:10ADA00008B50448042116F0BBF9BDE8084000F0DE
:10ADB000BFBC00BFAC01002000487047BB6004006E
:10ADC000014813F01FB800BF9803002070B5054676
:10ADD0000C4659B94FF0FF304FF0FF31FFF7AEFF8F
:10ADE000044618B96FF06805284670BD2046FEF786
:10ADF00061FE164B0C2202FB0033A61830465D8024
:10AE000014F042FF03280BD90321304614F00BFF46
:10AE10000580238A033B83700121304614F00BFF29
:10AE200040F635439D4208D12046FFF7AFFF054667
:10AE300048B12046FEF7DEFED6E70548214619F068
:10AE4000DCFAFFF7BDFF0025CEE700BFC0120020EF
:10AE50002C02002038B502460B46244DD5F854117B
:10AE600009B9002038BD05F5987012F011FE0028D0
:10AE7000F7D10022002305F5AA7012F09DFD0446CB
:10AE800068B91B4A1B491C4840F6734314F029FC5F
:10AE900084F31188BFF36F8F0323184602DFD5F8C0
:10AEA000480120B1FEF7A6FE0023C5F84831204630
:10AEB00014F04EFEC5F848012046FFF767FF98B131
:10AEC0000E4812F0ABFD2046FEF7F4FD0C4B0C22B1
:10AED00002FB00301F2140882246FFF797FE2046E4
:10AEE000FEF788FEFFF76CFF0120BBE7D8000020CB
:10AEF00051600400C46004009E6004000802002049
:10AF0000C01200202DE9F04F064687B017460C46C8
:10AF100069B94FF0FF304FF0FF31FFF70FFF0446E4
:10AF200060B96FF06805284607B0BDE8F08F887AF1
:10AF3000FEF7B8FD454B834240F08280012200219C
:10AF4000684619F073FA2046FEF7B4FDDFF800A159
:10AF50000C2303FB00A0C0F808D0204614F0F8FD35
:10AF600001463046FFF732FF054618B12046FEF78E
:10AF700041FED8E719F058FE364B1A58364B9A4224
:10AF800020D1DFF8D8B0364819F04CFA00218146BC
:10AF90004FF4A020FFF75EFF804688B9314A32485F
:10AFA0004FF4F973594614F09CFB3048314614F0C5
:10AFB00098FB88F31188BFF36F8F0323184602DFD5
:10AFC0004C45E0D14FF4A0220023684612F060FD0A
:10AFD000804698B14FF4FC73224A2549224814F068
:10AFE00080FB24484246314614F07BFB002383F368
:10AFF0001188BFF36F8F0323184602DF2046FEF748
:10B0000059FD0C2358431AF80060AEB12046093EA2
:10B01000FEF7F0FD092E0CD8DFE806F0150B0B0843
:10B02000050B0B0B0B126FF00B057CE76FF00C059B
:10B0300079E76FF0040576E7002F97D03C6072E760
:10B040006FF015056FE76FF06E056CE7680900207B
:10B05000C01200200800000030110020C860040069
:10B060002C020020516004009E600400D0600400A7
:10B07000F0600400F9600400F7B50022114640F6C4
:10B080000340FFF73FFF0446002853D1FFF73EFE81
:10B09000214601AA41F20300FFF734FF04460028CD
:10B0A00048D1019AA04DD168D1F80100D1F805101E
:10B0B00005F1780303C31046FEF79CFD214601AA63
:10B0C00041F20100FFF71EFF044698BB0198C368D8
:10B0D0005A7885F870205A88A5F872201A7985F870
:10B0E0007120B3F80720A5F87420B3F80530A5F84F
:10B0F0007630FEF77FFD214601AA41F20200FFF7FC
:10B1000001FF0446B0B9019FFA6805F18006531C9F
:10B11000413218685968344603C4083393422646BE
:10B12000F7D13846FEF766FD95F87C305E0604D40C
:10B130006FF01204204603B0F0BD01AA002142F2D4
:10B140000300FFF7DFFE04460028F3D1019B774E92
:10B15000DA68D2F80100D2F8051003C61846FEF7E7
:10B1600049FD214601AA42F20200FFF7CBFE044648
:10B170000028DFD1019CE368B3F8012091B249B106
:10B18000D97839B1A5F80421DA78114606F12800FA
:10B1900019F04CF92046FEF72DFD95F87C601F2331
:10B1A00016F02006A5F8203119D14FF0FF304FF0EE
:10B1B000FF31FFF7C3FD0446002800F0AC800221F8
:10B1C0000C3014F008FD012303704670214632460E
:10B1D00040F66D40FFF796FE04460028AAD195F888
:10B1E0009C301C0712D501AA002142F21C00FFF777
:10B1F00089FE044600289DD10198C368D3F8012038
:10B20000D3F80530C5E93823FEF7F4FC95F8D830BB
:10B21000980624D50DF10201684615F0A0FF0446FA
:10B22000002887D14FF0FF304FF0FF31FFF786FD48
:10B23000064600286FD004210C3014F0CCFCBDF879
:10B2400000300380BDF8023043802246314642F28E
:10B250002400FFF757FE044600287FF46BAF4FF041
:10B26000FF304FF0FF31FFF769FD0446002852D050
:10B2700008210C3014F0AFFC95F8D82012F0020F22
:10B2800014BF2F230F23910695F8D92048BF43F010
:10B29000400312F0090F18BF43F40063002203704B
:10B2A000C3F3072343708270C270027142718271CE
:10B2B000C271214642F20100FFF724FE0446002835
:10B2C0007FF438AF95F87C30B5F804119A0625D490
:10B2D000C9B901AA41F20500FFF714FE044600288F
:10B2E0007FF428AFB5F80431019C4BB9E368B3F89B
:10B2F0000120A5F804219A880D48114619F096F806
:10B300002046FEF777FC4FF0FF304FF0FF31FFF79C
:10B3100015FD044670B96FF068040BE70029F2D1FF
:10B320006FF0040406E700BFD8000020B001002041
:10B33000E001002008210C3014F04DFC10230370B4
:10B340008823437002230022C3702023827002717D
:10B3500042718271C371214640F60140FFF7D2FD70
:10B36000044600287FF4E6AE014601AA4FF60140EC
:10B37000FFF7C8FD044620BB0198FEF73BFC2146C1
:10B3800001AA4FF60240FFF7BDFD0446C8B9019877
:10B39000C368B3F80130A5F8C130FEF72BFC95F86F
:10B3A000C1305B070DD501AA21464FF60340FFF7D8
:10B3B000A9FD30B90198C3685B7885F8C030FEF705
:10B3C00019FC00F09DF9044600287FF4B3AE00F0AC
:10B3D0001DFD044600287FF4ADAEFFF7E1FCA9E6B1
:10B3E00010B5FFF749FE034B1B6813B1BDE81040D1
:10B3F000184710BDE412002070B54FF0FF320D4623
:10B400004FF0FF3300210646FFF7E2FB044660B928
:10B410000A4A0B490B481A2314F063F984F3118884
:10B42000BFF36F8F0323184602DF022104F10C00E3
:10B4300014F0D1FB06704570204670BD3E610400DB
:10B44000C46004009E600400F8B50A4DEF7906461A
:10B450000024E3B29F4202D86FF0010007E02946C2
:10B46000304615F0E2FE0735631C08B12046F8BDF2
:10B470001C46EEE7D800002070B5144E0622314677
:10B48000044619F055FBE0B14FF0FF304FF0FF31AB
:10B49000FFF754FC0546B0B1062221460C3014F0EB
:10B4A000A0FB0022294642F20500FFF72BFD48B918
:10B4B0003346226843F86929A288B280012283F8C2
:10B4C0006820002070BD6FF06800FBE7410100209C
:10B4D00037B504460D4689B11849284615F0A5FE32
:10B4E00060B9174A2968C4EBC404A3181151AA888B
:10B4F0009A80AA799A71002003B030BD684615F091
:10B50000A5FD0028F8D16846FFF79EFF0028F5DA70
:10B510000B4A00989DF80610C4EBC404A318105100
:10B52000BDF8040098809971002DE4D012592A606A
:10B530009A88AA809B79AB71DDE700BF0D6004009B
:10B54000D800002070B5044611B16FF0150070BD31
:10B5500080B11B4915F069FE60B92046FFF774FF02
:10B56000002827DA2378012BEFD1A37903F0C00359
:10B57000C02BEAD1134DEB79012B1ED005F1D4007D
:10B5800015F05BFEC30707D4002CDED00C49204623
:10B5900015F04BFE0028D8D1EE792146731C3046B9
:10B5A000EB71FFF795FF08B93046D0E7EB79013B27
:10B5B000EB71CCE76FF07700C9E76FF00B00C6E7DF
:10B5C0000D600400D80000202DE9F3410446D8B1F5
:10B5D00001AA002141F20900FFF794FC054698B941
:10B5E000019E1249D6F80C8008F101070622384660
:10B5F00019F09EFA28B10E490622384619F098FA39
:10B6000030B93046FEF7F6FA002002B0BDE8F0810E
:10B61000D8F80130C4F80130BB88A4F805303046B2
:10B620002570FEF7E7FA0120EFE700BF1A6004007B
:10B630001460040007B56846FFF7C6FF044BD871D5
:10B6400018B169460020FFF743FF03B05DF804FB23
:10B65000D8000020F0B5294DEE7989B0002E46D1F2
:10B6600095F8C230DB0722D56A4631464FF60940CD
:10B67000FFF748FCD8B9DDF800C0DCF80C4063786F
:10B68000012B1E4628BF012673B1A31C02AA123447
:10B6900018685968174603C70833A3423A46F7D1DA
:10B6A000186838609B88BB806046FEF7A3FAEE718D
:10B6B000002416260127EB79E0B2834202D8B3B109
:10B6C000002012E008AB06FB0033694653F8182C43
:10B6D00033F8143CCDF80120ADF805308DF800703A
:10B6E000FFF7F6FE01340028E5D009B0F0BD0021D7
:10B6F000084609B0BDE8F040FFF724BFD80000209D
:10B7000010B50A4CE3790BB1002010BDFFF792FF92
:10B710000028FAD1E379002BF6D1FFF79BFF002830
:10B72000F3D1601CBDE81040FFF7A6BED800002092
:10B7300010B5094C44220021204619F0F1F904F11A
:10B740001C0018F08AFD04F1300018F086FD034B50
:10B7500000221A6010BD00BFE81200202C13002048
:10B7600070B50C4B1C68054644B154F8143C143CAD
:10B7700013B1697A284698476469F5E7064C074E85
:10B78000B44200D370BD236813B1697A2846984744
:10B790001834F5E764130020F45004000C51040041
:10B7A00010B50446FEF786F9044901EB0011204666
:10B7B00015F097FCBDE81040FFF702BB30130020E6
:10B7C00070B5D1E9015600220446C1E901220648BC
:10B7D00018F013FE3DB1314620462B466FF06D0246
:10B7E000BDE87040184770BDA008002070B5054640
:10B7F0000F480022002312F04BF9B8B90D4B1C681A
:10B8000034B154F80C3C143C03B198476469F7E731
:10B81000094C0A4EB44204D32846BDE8704012F0E9
:10B82000F1BAA36803B198471834F3E770BD00BFBD
:10B830007C08002064130020F45004000C51040024
:10B840002DE9F843DFF85480044620270025EFF364
:10B85000118387F31288BFF36F8FE16929B983F3EE
:10B860001188BFF36F8FBDE8F883206A0A68E26130
:10B87000814208BF226283F31188BFF36F8FD1E941
:10B8800001694046C1E9015518F0B7FD1EB100221B
:10B8900049462046B047FFF793FAD8E7A0080020B2
:10B8A00030B5044619F0C0F90D4A0D460D49085847
:10B8B000D2F8901088428BB005D120460BB0BDE87D
:10B8C0003040FFF7BDBF24342146104618F04DFE2E
:10B8D0001DB16946204618F058FE0BB030BD00BFC0
:10B8E000301100200800000008B5C430BFF35B8FA2
:10B8F00050E8003F013B40E80032002AF8D1BFF396
:10B900005B8F3BB9044812F089F8BDE80840034852
:10B9100012F078BA08BD00BF7C080020A803002000
:10B9200010B5044615F0B3FC12F036FD104BD3F8F9
:10B93000241104F1B80249B9C4F8B810D3F8281199
:10B9400089B9C3E9492212F03BFD06E08A4208D1D9
:10B9500012F036FD2046FFF7C7FFBDE81040FFF7A5
:10B960002FBA0968E7E70A60C3F82821EBE700BFB0
:10B97000D800002070B5837A8B42044668D081726B
:10B98000FBB915F084FCA37A012B1DD0072B5FD1E6
:10B990003048002113F068F80023C4E90D33E37840
:10B9A000012B55D1A378012B04BF032384F89430D5
:10B9B00004F140004FF42032BDE87040002312F043
:10B9C00091BA827A012A08D1234D05F584766169FE
:10B9D00061BBBDE87040FFF7F3B9072AD8D0002A51
:10B9E00036D1013B072B33D8DFE803F004171B1BCC
:10B9F0001B17323200F14005284618F0EDFD2046B5
:10BA00000121FFF74DFF204615F038FC28460022A3
:10BA1000BDE87040002312F099BA437A0BB1FFF7EA
:10BA20009FFE2046BDE87040FFF75EBFA2690B682D
:10BA30006361914208BFA3612046FFF7C1FEB5F8DC
:10BA40000431002B14BF3046002011F0E7FFBEE7A1
:10BA500070BD00BFB8030020D8000020034BC01AFF
:10BA6000034BC0105843C0B2704700BF400B0020CA
:10BA7000295C8FC270B51C46144305460E460AD099
:10BA800019F0D2F80B4908580B49D1F890108842A8
:10BA900004BF002213460949002D14BF284608465A
:10BAA00014F052F8044618B1711D0C3014F088F8E7
:10BAB000204670BD0800000030110020B8080020AA
:10BAC0002DE9F04F87B0002303930593AC4B5A8BBD
:10BAD00032B1AC4DD5F8244134B907B0BDE8F08F90
:10BAE0001B68002BF5D1F8E754F8B83903B1B83B1F
:10BAF000A549002601E01C461346B5F80421002A9A
:10BB000000F03B81D5F810214AB904F1B806002BAA
:10BB1000E3D0D3F8B820002AEDD0B83AEBE70A68B2
:10BB2000002AF2D0D4F8A420002AEED0D4F8A8201D
:10BB3000002AEAD0D4F8AC20002AE6D0A37A072B5A
:10BB400066D120469047002862D0BFF35B8FD4F8BF
:10BB5000BC30BFF35B8F022B5ADC204615F097FBFD
:10BB600004460028B9D0A37A072B40F0FD80D4F812
:10BB7000A430B5F8041104AA2046984707460028C7
:10BB800000F0D280B5F80421049B9A4206D3014606
:10BB9000D4F8A86005AB03AA2046B047059B0193E3
:10BBA0003B8ADDE9039A002B00F0E180384615F06E
:10BBB000AEFA8046002840F0DD80B5F80431DFF8A9
:10BBC000CCB1002B14BF584600200022002311F0F6
:10BBD0005FFF78B96C480022002311F0EDFE0646A5
:10BBE00000283BD1B5F80431002B18BF5E46304623
:10BBF00011F014FF6FF00B053846FDF7FBFFB9F1AC
:10BC0000000F00F08D8001992A462046C84787E042
:10BC1000D4F8B83004F1B802C6B9D5F82811C5F87F
:10BC200024318A4201D1C5F828310023C4F8B83044
:10BC30002046D4F8AC309847002894D0A37A072B3C
:10BC400040F092802046FFF76BFE8CE73360D5F81A
:10BC500028319A4208BFC5F82861E6E7019BC0F881
:10BC600004908360B5F804B14548DA454FF000020E
:10BC70004FF000034FF0000198BF1FFA8AFBFDF759
:10BC80003BFF814650B1FDF715FF414B5A4603EB90
:10BC900000133946484615F0FFF98146B5F80431DE
:10BCA00094F8C0709A458CBF4FF00108023784F8B1
:10BCB000C08098BFFFB204F1BC08BFF35B8F58E8A7
:10BCC000003F013348E80032002AF8D1BFF35B8F10
:10BCD00000233360A3695BBBC4E90566A378012B2D
:10BCE00029D0BFF35B8F58E8003F013B48E80032A2
:10BCF000002AF8D1BFF35B8F314604F1140015F030
:10BD0000A2FA4846FDF776FF20463146FFF758FD78
:10BD1000B5F804311D48002B08BF002011F07EFE4D
:10BD20001321204615F0CFFA2046FFF7DDFDD4E6BB
:10BD30001E60A661D2E709F10C0A0421504613F0F7
:10BD400072FF238807F0FD0743EA07330380B9F841
:10BD50001030043B43800221504613F06CFF4846EC
:10BD6000FFF714F80028BCD1FFF72AF8DCE76FF0E2
:10BD7000790541E76FF004053EE79368FFDE00BFF9
:10BD80003C090020D8000020A0080020E00100208D
:10BD90003013002070B505460A480E4615F077FAB4
:10BDA000044620B18378012B04D0FFF79DFD0024C9
:10BDB000204670BD3246294615F0A5FA0028F7D175
:10BDC0002046F2E7400B0020F8B505460E480E4627
:10BDD000174615F05CFA044620B18378012B03D096
:10BDE000FFF782FD00240DE036B13246294615F0FA
:10BDF0008AFA08B92046F3E7A37ABB42FAD1237A3C
:10BE0000AB42F7D12046F8BD400B002010B50C48DE
:10BE100018F0B4FA0B490A4818F0EFFA0A49084832
:10BE200018F0EBFA0949064818F0E7FA15F0F6FFA2
:10BE300016F0AAFD044608B915F02FFB204610BDE8
:10BE4000A0080020401300204C13002058130020AD
:10BE5000044B186818B9044A5A600B6070476FF0B9
:10BE60000B0070476C1300205C52040070B5044650
:10BE700052EA03000AD018F0D7FE074D074ED5F856
:10BE800090503058854204BF0022134620460431AA
:10BE9000BDE87040FFF7EEBD301100200800000043
:10BEA00023281FD81A2804D8431E182B0ED9062081
:10BEB0007047A0F11B03082B1ED8DFE803F0051D17
:10BEC0001B231D19251D0500032070470F4A012360
:10BED00083401A40C2B90E4A1A40002A14BF0120FA
:10BEE0000620704700F07F03522B05D100207047D9
:10BEF000012070470520704710F0400F0CBF06204E
:10BF0000002070470420704702207047AAAA8A02C6
:10BF10005455450170B50E46438D418B8B4202F15D
:10BF2000010228BF0B469A42054620D83046FFF74B
:10BF3000B7FF022812D0042810D018F075FE154B58
:10BF40001958154BD3F89030994213D0134B1B68F6
:10BF50005A1A18BF4FF0FF32134602E04FF4702216
:10BF600000230F480021FFF781FF044620B9002479
:10BF7000204670BD0022EFE7FDF79CFD094B18221B
:10BF800002FB0033012104F10C009D6013F023FE3D
:10BF90000670EDE7080000003011002004140020B6
:10BFA000E4080020BC130020011F014818F0F6B877
:10BFB000CC070020F8B54FF47022074600230D4847
:10BFC0000E4613F0C1FD044690B100F10C050921A5
:10BFD000284613F0F5FD2046FDF76CFD064B1822B0
:10BFE00002FB0033012128469F6013F0F4FD067028
:10BFF0002046F8BDE4080020BC13002070B503788B
:10C000008AB004460E4607AD032B20D8DFE803F0C4
:10C0100002191B1D11492846FBF796F80595637810
:10C020000493A3780393E3780293237901936379CC
:10C030000093A3790A4A1E21304612F0A9FD0AB0E6
:10C0400070BD0849E7E70849E5E70849E3E7084A1A
:10C050000A21284612F09CFDE0E700BF746104004D
:10C060009D6104007B610400826104008C61040016
:10C07000966104002DE9FF4105460E464FF0000889
:10C080004FF42053006817688DF8088002A9144601
:10C09000ADF80A3014F08CFFA0B142F60103286815
:10C0A0008DF80C8003A9ADF80E3014F081FF48B173
:10C0B00023691BB15A88B24200D25E80012004B0CD
:10C0C000BDE8F0816168286814F072FF10B10023A8
:10C0D0002361F3E7E368A0681A786AB1B7F82AC069
:10C0E000798B038A8C4594BFC3EB0C03C3EB01032C
:10C0F000934201DA0020E2E704210C3013F06BFDDB
:10C100002061068023695E80074B00930194A2683A
:10C1100000232946384615F082FB0028EADB206917
:10C12000003818BF0120CAE7FF17040010B500F15E
:10C1300050030446BFF35B8F53E8001F41F0010139
:10C1400043E80012002AF7D1BFF35B8F201F15F0E0
:10C15000E0F904F17400044918F032FA2068BDE8EF
:10C16000104001F0D7BA00BF071F04002DE9F347C4
:10C1700017680546894600685168D7F804A0144638
:10C1800014F016FF804600284BD1952229465046D0
:10C1900016F0CDF90646207540B1E3681B780BB167
:10C1A00084F81480002002B0BDE8F087294650468C
:10C1B00016F0BFFB10B908232375F3E7A0682675B6
:10C1C00013F0CAFC02210C3013F005FD164B206160
:10C1D000A0F8009000930194A2683346294638469F
:10C1E00015F01DFB002807DA10F1FF0F26BF4042B3
:10C1F000C0B20E202075D5E72369002BD2D0A068ED
:10C2000015F056F97B8B7A8D9A4294BFC0EB0200F1
:10C21000C0EB0300E3681B78984294BF0020012024
:10C22000C1E70120BFE700BFC1140400F7B5002338
:10C2300004460E462B480022694611F0F3F90546E4
:10C24000D0B918F0F1FC284B009F1A58274B29460B
:10C250001A60381D282218F063FC3C60009C2448BA
:10C260000195C4E90155C4E909550022002301A93B
:10C2700011F0D8F9054620B16FF00B05284603B040
:10C28000F0BD019B0146B022184618F049FC194A3E
:10C2900082605C3018F072F8019BBFF35B8F5433FF
:10C2A00053E8002F43E800510029F9D1BFF35B8F19
:10C2B000019B1C60636A019F1BB904F10C0018F01C
:10C2C0005DF8626AC7F8A820A26A07F1A803636252
:10C2D00002B9A362019B17225A855A830433336043
:10C2E000CCE700BFB00700200800000004140020C5
:10C2F000CC070020C80300202DE9F74F064608466A
:10C300000C46FDF7D7FBDFF898801823434308EB72
:10C3100003020546D2F808A0E068BFF35B8F716D99
:10C32000BFF35B8FC90738D5E16809781171002226
:10C3300048F803200378D22B0ED1336821461868C1
:10C3400016F01FFB40B101902046FDF753FC019B06
:10C35000184603B0BDE8F08F04F10C0013F094FC14
:10C3600018235D4308EB050900231A4607462146BA
:10C37000301DB4F810B0C9F8086015F021F8034674
:10C380000028E5D06269A4F810B012FA87F7E760D8
:10C3900048F80500C9F808A0DAE76FF01503D7E7F9
:10C3A000BC1300202DE9F14F0546FDF783FB33490F
:10C3B000182202FB00F3C81851F803A00779B0F85F
:10C3C0000680D0F810900021D0E9024618F0A8FBB2
:10C3D000A87AFDF767FB6969834651B16B7AD80784
:10C3E00005D4DBF824301B6828469B689847002357
:10C3F0006B612946584618F00BF8002F31D084B3F2
:10C40000236873B31B6863B3BAF1000F29D1201DF1
:10C4100015F0F2FB3846FFF743FD052821D8DFE889
:10C4200000F0160320162003BFF35B8F636DBFF38C
:10C430005B8FDA0715D5A36D9BB14FF470220023F3
:10C4400004F1780001B0BDE8F04F11F07FBD236822
:10C450001D68BFF35B8F636DBFF35B8FDB0700D598
:10C4600056B901B0BDE8F08F49462846B0470134BF
:10C47000A3B29845F8D8F4E70024F9E7BC130020EC
:10C48000F8B50B8A076804460D46002B39D0012108
:10C4900005F10C0013F0E0FBBB7A072B064630D108
:10C4A00054F8043C6BB301781748043C002310F89F
:10C4B00033708F4200EBC30208D1298A53789778F2
:10C4C000994213D2012F1CD1042317E001331C2BF6
:10C4D000EDD10846FFF7E4FC98B1052811D081B1F1
:10C4E00006230022204615F0E4FB0AE053682946A3
:10C4F00020469847012F034603D110B13178002917
:10C50000EFD10020F8BD00BF845204002DE9F041B6
:10C510000E8A043EF6B2022E04468CB0084601D0C4
:10C52000102E64D104210C3013F096FB0DF1080895
:10C5300005884788011D3246404614F067FD0028F3
:10C5400057D09DB3002687B3BD422FD84FF4205358
:10C5500001A940468DF80460ADF8063014F028FDBE
:10C5600040BB1422002107A818F0DAFA1121204656
:10C57000FFF720FD0990002837D001210C30CDE9CC
:10C58000074813F028FB00230A901B4A0370394622
:10C590000B93284607AB15F028F80A9B1B78FBB9CC
:10C5A0000998FDF727FB0A2301E03D4601232A46AF
:10C5B00010210EE042F6010307A940468DF81C60E9
:10C5C000ADF81E3014F0F4FC0028CAD010232A461F
:10C5D0001946204615F06DFB00200CB0BDE8F08137
:10C5E0000999204615F03DFBF6E71120F5E70420F8
:10C5F000F3E70E20F1E700BF75C002002DE9F0431C
:10C60000036885B004460D461868012116F08FF9BD
:10C6100040B904F1540015F0C2F9B0BB122005B0C6
:10C62000BDE8F08310220021684618F079FA212134
:10C630002046FFF7BFFC029048B3DFF85890009403
:10C6400005F10C074FF001082B8A012B04D8029941
:10C65000204615F006FB18E0384613F00DFB6B463C
:10C660004A46014606468DF80C8014F0BEFF9DF840
:10C670000C30002BE8D00298FDF7BCFA9DF80C3086
:10C6800032462021204615F014FB0020C7E7112078
:10C69000C5E700BF1D1A04002DE9F043036885B00B
:10C6A00004460D461868012116F041F940B904F11D
:10C6B000540015F074F9B0BB122005B0BDE8F0834A
:10C6C00010220021684618F02BFA0F212046FFF7B0
:10C6D00071FC029048B3DFF85890009405F10C0704
:10C6E0004FF001082B8A012B04D80299204615F03F
:10C6F000B8FA18E0384613F0BFFA6B464A460146CE
:10C7000006468DF80C8014F070FF9DF80C30002B5D
:10C71000E8D00298FDF76EFA9DF80C3032460E21F3
:10C72000204615F0C6FA0020C7E71120C5E700BF74
:10C73000BD190400F0B51D46036885B004460E46D9
:10C7400018680121174616F0F2F838B904F15400C0
:10C7500015F025F948BB122005B0F0BD65B31022D5
:10C760000021684618F0DCF939462046FFF722FC24
:10C77000029018B3BDF82830ADF8043001238DF8CD
:10C780000C300F4A00946B462946284614F02DFFC2
:10C790009DF80C305BB10298FDF72CFA9DF80C3037
:10C7A0002A463146204615F084FA0020D4E7029943
:10C7B000204615F056FAF8E70120CDE71120CBE727
:10C7C000BD1904002DE9F0410E8A043EF6B2022E96
:10C7D00004468CB0084601D0102E76D104210C30CE
:10C7E00013F03AFA0DF1040805884788011D324616
:10C7F000404614F00BFC002869D085B377B3BD42E6
:10C800002DD86068012116F092F8064678BB8DF8A5
:10C81000000042F6020369464046ADF8023014F0CB
:10C82000C7FB20B342F6030306A940468DF8186003
:10C83000ADF81A3014F0BCFBC8B1012D03D14FF68E
:10C84000FF739F4213D004F1540015F0A8F800289C
:10C8500014BF002012200CB0BDE8F0813D4601233A
:10C860002A460821204615F024FA0020F3E7182272
:10C8700000210DEB020018F053F909212046FFF7C3
:10C8800099FB0890F8B101210C30CDE9064813F06E
:10C89000A2F90023099003700A238DF82C300D4A69
:10C8A00006AB3946284614F0A0FE9DF82C302BB17B
:10C8B0000898FDF79FF99DF82C30D1E7089920469C
:10C8C00015F0CFF9D1E71120C5E70420C3E70E200A
:10C8D000C1E700BF6DC102002DE9F0430F4687B0EC
:10C8E0000446062107F10C0013F0B6F90588B0F8EC
:10C8F00002808288D7F80C90C5B10023B8F1000FF0
:10C9000013D0A84512D38DF800308DF8043001A95A
:10C910004FF420536846ADF80220ADF8063014F00D
:10C9200047FB064660B10A2301E0454601232A463B
:10C930000621204615F0BDF9002007B0BDE8F083C0
:10C940000146142201A83F7C18F0EAF8072120468E
:10C95000FFF730FB0290D8B10A238DF815300D4A4D
:10C96000019401AB41462846CDE903698DF8147066
:10C9700014F03BFE9DF815302BB10298FDF73AF903
:10C980009DF81530D3E70299204615F06AF9D3E7F0
:10C990001120D2E7011604007FB5CB681D885E88A0
:10C9A000044685B176B1AE420DD31022002168460F
:10C9B00018F0B6F805212046FFF7FCFA019058B9A7
:10C9C000112007E0354601232A460421204615F0B0
:10C9D00070F9002004B070BD6B46094A00943146DE
:10C9E000284614F002FE029B23B90198FDF702F9D4
:10C9F0000A23E9E70199204615F033F9E9E700BF7A
:10CA000047170400F0B51E4603680D46003987B08D
:10CA1000044618BF01211868174615F088FF40B971
:10CA200004F1540014F0BBFF002844D0002007B0EC
:10CA3000F0BD002E41D018220021684618F070F891
:10CA400047BB23681E4A1B6800930023ADF81230D1
:10CA50000C9B0393BDF83430ADF8103001238DF8F2
:10CA6000143031466B4630468DF8085014F0BDFD49
:10CA70009DF81430C3B1002FD8D00198FDF7BAF853
:10CA80009DF81430002DD1D032462946204615F0AD
:10CA900010F9CBE7002239462046FFF73BFA019018
:10CAA0000028CED11120C2E701990029BED020462E
:10CAB00015F0D7F8BAE71220B9E70120B7E700BFB1
:10CAC0007915040007B50B460246002118F0ACF8B2
:10CAD00001910F4909580F480068884204D00E4858
